:020000040800F2
:10000000D00D0024390300081D0900909B070090C3
:1000100045030008090200906F10009000000000E6
:100020000000000000000000000000002109009016
:100030000B020090000000001F09009023090090AF
:100040005303000853030008530300085303000838
:100050005303000853030008530300085303000828
:100060005303000853030008530300085303000818
:100070005303000853030008530300085303000808
:1000800053030008530300085303000853030008F8
:1000900053030008530300085303000853030008E8
:1000A00053030008530300085303000853030008D8
:1000B00053030008530300085303000853030008C8
:1000C00053030008530300085303000853030008B8
:1000D00053030008A113000853030008530300084A
:1000E00053030008530300080000000053030008F6
:1000F0005303000853030008530300085303000888
:100100005303000853030008530300085303000877
:100110005303000853030008530300085303000867
:100120005303000853030008530300085303000857
:100130005303000853030008530300085303000847
:1001400000000000000000000000000000000000AF
:100150005303000853030008530300085303000827
:100160005303000853030008530300085303000817
:100170005303000853030008530300085303000807
:1001800053030008530300085303000853030008F7
:1001900053030008530300085303000853030008E7
:1001A00053030008530300085303000853030008D7
:1001B00053030008530300085303000853030008C7
:1001C00053030008530300085303000853030008B7
:1001D00053030008530300085303000853030008A7
:1001E0005303000853030008530300085303000897
:1001F0005303000853030008530300085303000887
:100200005303000853030008530300085303000876
:100210005303000853030008530300085303000866
:1002200053030008530300085303000800000000B4
:1002300053030008530300080000000053030008A4
:100240005303000853030008530300085303000836
:100250005303000853030008530300085303000826
:100260005303000853030008530300085303000816
:100270005303000853030008530300080000000064
:1002800053030008000000005303000800000000B2
:10029000000000005303000800F002F800F03CF8F2
:1002A0000AA090E8000C82448344AAF10107DA45D1
:1002B00001D100F031F8AFF2090EBAE80F0013F0E7
:1002C000010F18BFFB1A43F001031847DC120000AE
:1002D000FC120000103A24BF78C878C1FAD852073F
:1002E00024BF30C830C144BF04680C6070470000B0
:1002F0000023002400250026103A28BF78C1FBD82F
:10030000520728BF30C148BF0B6070471FB501F0CE
:100310003DF91FBD10B510BD00F0AAF81146FFF75A
:10032000F5FF01F0ADF800F0C8F803B4FFF7F2FFF5
:1003300003BC01F067F800000948804709480047FE
:10034000FEE7FEE7FEE7FEE7FEE7FEE7FEE7FEE785
:10035000FEE7FEE704480549054A064B70470000E2
:100360001D13000899020008D0010024D00D0024BC
:10037000D0030024D0030024704753EA020C00F09D
:1003800069802DE9F04B4FF00006002B1FBFB3FA38
:1003900083F503FA05F424FA05F65E4012BF16430E
:1003A000B2FA82F502FA05F4C5F120051EBF22FA61
:1003B00005FC44EA0C04203556EA044C4FEA144488
:1003C00018BF641C4FF000084FF00009904271EB19
:1003D000030C39D3002919BFB1FA81F701FA07F6E6
:1003E000B0FA80F700FA07F6C7F120071EBF20FA1F
:1003F00007FC46EA0C062037B6FBF4FCA7EB050722
:10040000103F07F01F0BCBF120060CFA0BFB2CFA68
:1004100006F644BFB3460026202FA4BF5E464FF029
:10042000000B5BEA060C08BF4FF0010B19EB0B0940
:10043000ABFB027C48EB0608C01B06FB02CC0BFBA7
:1004400003CC71EB0C01C1E70B460246414648461E
:10045000BDE8F08B13B54FF000004FF00001AFF393
:100460000080BDE81C407047704770477047704778
:10047000754600F02BF8AE4605006946534620F05D
:100480000700854618B020B5FFF764FFBDE820409F
:100490004FF000064FF000074FF000084FF0000B40
:1004A00021F00701AC46ACE8C009ACE8C009ACE8F3
:1004B000C009ACE8C0098D46704710B50446AFF3DB
:1004C00000802046BDE81040FFF72FBF004870476E
:1004D0006C01002440F2A12CC9F2000C604740F2EC
:1004E000095CC9F2000C604740F2FD4CC9F2000CF7
:1004F000604740F2F36CC9F2000C604740F6810C93
:10050000C9F2000C604740F29D7CC9F2000C6047C4
:1005100040F20D0CC9F2000C604740F2FD7CC9F2BC
:10052000000C604740F6C50CC9F2000C604740F271
:10053000896CC9F2000C6047F0B5BFF34F8FBFF371
:100540006F8F1D4900200860BFF34F8FBFF36F8F7F
:100550001A4C216841F400312160BFF34F8FBFF383
:100560006F8F164970310860BFF34F8F081F006806
:1005700043F6FF75104E1036C0F34E31C0F3C90379
:1005800005EA4112184642EA80773760401EFAD2E7
:10059000491EF5D2BFF34F8F206840F480302060B1
:1005A000BFF34F8FBFF36F8F03484C30016841F0AA
:1005B00004010160F0BD000050EF00E014ED00E028
:1005C0000248016841F001010160704720040058B1
:1005D0002DE9F84F6C4C00224FF0B04A4FF0010B60
:1005E0004FF0030E4FF00F090B680BFA02F73B4078
:1005F000BB4270D14D68022D01D0122D12D1D50809
:1006000000EB850CDCF820605507ED0E09FA05F8C3
:1006100026EA0806D1F8108008FA05F848EA060824
:10062000CCF82080D0F80080560091F804C00EFA73
:1006300006F50CF0030C28EA05080CFA06FC4CEA57
:10064000080CC0F800C0D1F804C0BCF1010F08D0FC
:10065000BCF1020F05D0BCF1110F02D0BCF1120F9A
:1006600016D1D0F808C0D1F80C802CEA050C08FA95
:1006700006F848EA0C08C0F80880D0F804C02CEA54
:10068000070C0F79C7F30017974047EA0C0747603C
:10069000C768AF438D68B5403D43C5604D68ED0008
:1006A0006BD53A4D2E6846F002062E602D6822F07A
:1006B000030606F1B04605F002050095D6F808C419
:1006C00095072F0F09FA07F52CEA050C304DA842C3
:1006D00002D100252EE050E02E4DA84201D1012587
:1006E00028E02D4DA84201D1022523E02B4DA84240
:1006F00001D103251EE02A4DA84201D1042519E0AD
:10070000284DA84201D1052514E0274DA84201D16A
:1007100006250FE0254DA84201D107250AE0244D0A
:10072000A84201D1082505E0224DA84201D10925A2
:1007300000E00A25BD4045EA0C05C6F808542568C6
:100740004E689D43F60300D51D43256065684E68DD
:100750009D43B60300D51D436560DAF80050564648
:100760004F689D43FF0200D51D43356075684F6893
:100770009D43BF0200D51D437560521C102AFFF433
:1007800033AFBDE8F88F000080000058F4440258F1
:10079000000002580004025800080258000C0258D9
:1007A000001002580014025800180258001C025889
:1007B00000200258002402580069084000D001209F
:1007C000704742694A40426170470AB101837047ED
:1007D000418370470148806870470000140000247E
:1007E0000248816802781144816070471400002437
:1007F000032010B500F0A2F80F2000F007F808B1B0
:10080000012010BD00F06CF8002010BD70B50D4D3A
:1008100004464FF47A712878B1FBF0F00A49096870
:10082000B1FBF0F000F0A4FC48B9102C07D2002274
:100830002146501E00F062F800206C6070BD01205F
:1008400070BD00001400002400000024134A417809
:100850001160111D03780A1DE3B143680B60017B31
:10086000C37A090741EA0361837A41EAC341437BC2
:1008700041EA8341837B41EA4341C37B41EA03412F
:10088000437A41EA0321037A007841EA43010143B4
:1008900011607047002008601060704798ED00E01C
:1008A000BFF35F8F0448016821F480310160024981
:1008B000002070310860704724ED00E0074940F0E7
:1008C0000100086005487038016841F4803101601A
:1008D000BFF34F8FBFF36F8F7047000094ED00E0C0
:1008E0007047002809DB012100F01F0291404009F8
:1008F000800000F1E020C0F8001170470E4BF0B40A
:100900001B68C3F30223C3F10704042C00D9042499
:100910001D1D072D01D2002300E0DB1E012606FA73
:1009200004F56D1E0D409D409E40761E164045EA22
:100930000601F0BC00F056BD0CED00E0064A00F0E8
:10094000070110684FF6FF03184040EA01200349F1
:1009500008431060704700000CED00E00000FA054D
:100960002DE9F047DFF8BC9104460E46D9F80000A7
:1009700000F00700B0420CD2D9F8001021F00701B6
:100980003143C9F80010D9F8000000F00700B04268
:100990007ED12078DFF89081800707D5D8F8001045
:1009A000E26821F00F011143C8F800102078C00759
:1009B00062D0D8F80010A26821F470611143C8F821
:1009C000001059496068183902281CD003281DD02E
:1009D000096801281DD04907002960DA524F083FF5
:1009E000396821F0070101433960FFF7F3FE05463E
:1009F000606841F28831022813D003281ED00128F4
:100A00008A4627D034E009688903E5E70968890147
:100A1000E2E7C905E0E7FFF7DDFE411B514501D9DB
:100A200023E08A463868C0F3C2000228F3D123E0ED
:100A3000FFF7D0FE411B514501D916E08A463868C0
:100A4000C0F3C2000328F3D116E0FFF7C3FE411B39
:100A500051450AD83868C0F3C2000128F5D10BE02F
:100A6000FFF7B8FE411B514502D90320BDE8F087CE
:100A7000386810F0380FF3D1D9F80010484601F06B
:100A80000701B1420DD9016821F00701314300E0AF
:100A900005E00160006800F00700B04201D00120CD
:100AA000E4E72078400707D5D8F80010226921F044
:100AB00070011143C8F80010207801071B4805D5C4
:100AC0000168626921F07001114301602178C90653
:100AD00005D50168A26921F4E06111430160207825
:100AE000800607D51149091D0868E26920F07000E9
:100AF0001043086000F066F8D8F800104FF48072D8
:100B000092FAA2F201F47061B2FA82F2D140084A7C
:100B1000515CC840074908600F20FFF777FE0020AE
:100B2000A4E7000000200052184402581C44025858
:100B3000961500080000002410B5FFF7CBFC08490B
:100B40000968012292FAA2F201F00F01B2FA82F2D0
:100B5000D140044A515CC8400349086010BD000000
:100B600018440258961500080400002410B5FFF739
:100B7000E3FF07490968102292FAA2F201F070011E
:100B8000B2FA82F2D140034A515CC84010BD000065
:100B90001C4402589615000810B5FFF7CDFF074911
:100BA00009684FF4807292FAA2F201F4E061B2FA9D
:100BB00082F2D140024A515CC84010BD1C44025828
:100BC000961500083548F0B50068364D10F038012C
:100BD000334809D00411082904D0334E10290BD012
:100BE00018290BD02046F0BD29688906FBD5296855
:100BF000C1F3C101C840F0BD3046F0BD27491831EE
:100C00000A68096812F00302284BC1F305111B683A
:100C1000274F03F001033F68DFED260AB7EE001A05
:100C2000C7F3CC0717FB03F300EE103A224BB8EEE4
:100C3000400A06D0012A01D0022A2BD0B4FBF1F0E1
:100C400008E02A68920603D52A68C2F3C102D040A0
:100C5000B0FBF1F001EE900A1868B8EE612AC0F31B
:100C6000080001EE900A1868F8EE611A40EE201AAA
:100C700031EE810A22EE000AC0F34620401C00EE4D
:100C8000900AF8EE600A80EE201ABCEEC10A10EE5F
:100C9000100AF0BDB6FBF1F0DCE70000104402588A
:100CA0000090D0030044025840787D012C44025843
:100CB0003444025800000039304402582DE9F05FF6
:100CC00004460078DFF8FC8341F28839DFF8F8A3A6
:100CD000FE4DC0074ED0D8F800104046C1F3C20107
:100CE00002291AD00068C0F3C200032805D1DAF83F
:100CF000000000F0030002280FD06068B0F5803FCC
:100D000012D010B1B0F5A02F19D0286820F480308F
:100D10002860286820F4802009E02868800329D50D
:100D20006068002874D025E0286840F4803028608E
:100D3000606890B1FFF74EFD06464F4609E028680F
:100D400040F480202860EFE7FFF744FD801BB842A5
:100D50007DD828688003F7D50CE0FFF73BFD0646F9
:100D60004F4604E0FFF736FD801BB842F0D82868F4
:100D70008003F7D42078D64F80075AD5D8F80010D2
:100D800040464FF47C3B11F0380F13D00068C0F39D
:100D9000C200032803D1DAF8000080070AD0E06817
:100DA000A8B3296821F0190101432960FFF712FD5A
:100DB00006461DE02868400702D5E0680028B1D04B
:100DC0002868E16820F0190008432860FFF702FD59
:100DD000064604E0FFF7FEFC801B0228B8D828680E
:100DE0004007F7D507E0FFF7F5FC801B0228AFD8D6
:100DF00028684007F7D538689BFAABF220F47C31BD
:100E00002069B2FA82F290400143396011E000E0BB
:100E1000AEE0286820F001002860FFF7DBFC064602
:100E200004E0FFF7D7FC801B022891D82868400710
:100E3000F7D42078C00655D5D8F8001040464FF0BA
:100E4000F84BC1F3C201012917D0006800E0EDE0C2
:100E5000C0F3C200032805D1DAF8000000F0030057
:100E600001280AD0E069002828682CD040F08000D2
:100E70002860FFF7AFFC064616E02868C00502D5DB
:100E8000E069802874D138689BFAABF220F0F84111
:100E9000206AB2FA82F290400143396022E0FFF703
:100EA00099FC801B022899D82868C005F7D53868B6
:100EB0009BFAABF2216AB2FA82F220F0F84091403C
:100EC000084338600EE020F080002860FFF782FCC5
:100ED000064604E0FFF77EFC801B022887D82868BE
:100EE000C005F7D42078000724D5774F60694C37C8
:100EF000002838680FD040F001003860FFF76AFC26
:100F0000064604E0FFF766FC801B02288DD838688F
:100F10008007F7D50EE020F001003860FFF75AFC9B
:100F2000064604E0FFF756FC801B02287ED838688E
:100F30008007F7D42078800623D5A0690028286888
:100F40000FD040F480502860FFF744FC064604E0D0
:100F5000FFF740FC801B022868D828688004F7D57A
:100F60000FE020F480502860FFF734FC064605E0CF
:100F7000D6E0FFF72FFC801B022857D82868800492
:100F8000F7D42078400744D5524F386840F4807039
:100F90003860FFF71FFC064604E0FFF71BFC801BD0
:100FA000642843D83868C005F7D5474FA06848374C
:100FB00001280AD008B1052811D0386820F00100B6
:100FC0003860386820F0040002E0386840F0010022
:100FD0003860A06888B1FFF7FDFB064609E0386875
:100FE00040F004003860F0E7FFF7F4FB811B49454F
:100FF0001CD838688007F7D50BE0FFF7EBFB0646F7
:1010000004E0FFF7E7FB811B49450FD838688007EC
:10101000F7D4606AF0B3D8F80010C1F3C201032915
:101020007ED00228286820F0807000E079E02860F7
:1010300003D0FFF7CFFB044687E0FFF7CBFB064664
:1010400004E0FFF7C7FB801B02287BD828688001DB
:10105000F7D4DAF8001040F2F3329143E26A41EA41
:101060000211A26A1143CAF8001094F834004FF438
:10107000FE02218E4002491EA0F5007080B2C1F32D
:1010800008010843218F491E02EA0141084394F8F0
:101090003C1000E05CE0491E120202EA01610843D4
:1010A0000949083108600B1D19684FF6F872A06CE9
:1010B000914392FAA2F2B2FA82F29040014319608F
:1010C000014809E0104402582844025800440258DC
:1010D0000444025800480258001D0168226C21F0A7
:1010E0000C01114301600168626C21F0020111439F
:1010F0000160016841F480310160016841F4003110
:101100000160016841F480210160016841F0010142
:101110000160286840F080702860FFF75BFB01E009
:1011200018E00FE0044604E0FFF754FB001B022820
:1011300008D828688001F7D50AE0FFF74BFB001BB1
:10114000022802D90320BDE8F09F28688001F4D46A
:101150000020F8E70120F6E74FF0E02104280869B5
:1011600003D020F004000861704740F00400FAE763
:10117000401EB0F1807F10B501D3012010BD4FF0AB
:10118000E02460610F21601700F02CF90020A061BD
:1011900007202061002010BD10B5006886B01B49F3
:1011A000884230D11A48016841F0010101600068AD
:1011B00000F00100059016481030016841F0100160
:1011C000016000680121134C00F0100005904FF4FD
:1011D000007000900220CDE90101039007206946CC
:1011E00004902046FFF7F4F94FF480612046009107
:1011F0006946FFF7EDF92520FFF773FB0322252051
:101200001146FFF77BFB06B010BD00000010014047
:10121000E04402580000025830B500681149884285
:101220000CD1114A5088010408D411464FF0000334
:101230004404097806D50A2901D0538030BD40F412
:1012400000400DE00D2909D0084DC0F30D04401CED
:1012500080B2C72829555080EFD830BD40F4804077
:10126000508030BD001001400C00002424000024F8
:1012700070B5284C9CB0256825F004052560254CE8
:1012800000260C34256845F440452560256805F4A2
:1012900040451B952568AD04FCD5012400940CAD98
:1012A00003962404019402240994CDE90A41079687
:1012B000082485E80D00CDE910466846FFF7FEFCDE
:1012C00088B93F2013900320CDE914064020010186
:1012D000CDE91640CDE9180150201A90022113A83B
:1012E000FFF73EFB10B101201CB070BD0A48016839
:1012F00041F0800101600848F430016841F00201CA
:101300000160006800F002001B90FFF759F900200F
:10131000EAE700000C480258004402581C480168E3
:1013200041F4700101601B49086840F00100086049
:10133000184A0020103210600A68174B1A400A60E1
:10134000144A18321060121D1060121D1060114AEC
:1013500028321060121D1060121D1060121D1060E6
:10136000121D1060121D1060121D1060121D106001
:101370000A6822F480220A60064960310860012070
:101380000649C1F80801C006014980390860704764
:1013900088ED00E0004402587FEDF6EA008000513D
:1013A00070B50D4D00240D48FFF799F802E0641C5C
:1013B000AC4204D80948FFF797F82028F7D1002459
:1013C00002E0641CAC4206D8054901220348FFF73D
:1013D00090F80028F5D170BDFFFF0100EC0000245B
:1013E0000C0000240907090E002804DB00F1E020AE
:1013F00080F80014704700F00F0000F1E02080F842
:10140000141D70477047000010B504460420FFF714
:10141000A3FE0148046010BD0800002470B500243C
:1014200005464FF47A7603E0304600F005F8641C78
:10143000AC42F9D370BD000070B54FF0E02500213B
:101440006C69094AAB6912685043AA699A42FCD098
:1014500002D2A3EB020302E0A4EB020633441944D8
:1014600013468142F1D370BD080000240349CA69C4
:101470005206FCD5C2B20A85704700000010014038
:101480000EB50024FFF758F8FFF7B2F90423022243
:101490000521A020FFF7ECFE4FF4C870FFF7B4FF62
:1014A0004FF4E13000F056F8FFF728F8FFF72BF87B
:1014B00019A0FFF72DF8DFF87490002501264FF0F2
:1014C000202832270020FFF728F8012811D0022811
:1014D0001CD00A20FFF7A2FF641CE4B2B4FBF7F0B3
:1014E00007FB10400028EDD102214846FFF769F9BB
:1014F000E8E700950623012240468021CDE9015608
:10150000FFF710F80AA0FFF703F8E5E70B490CA076
:10151000FEF7FEFFE0E700000D0A0D0A4D505520D2
:10152000636C6F736564210D0A00000000000258AF
:101530004D5055206F70656E210D0A00002000206F
:10154000417272617920646174612069733A257314
:101550000D0A00000B490A4A10B5C1E9002000201D
:101560008860C860086188610C2048610846FEF701
:10157000DEFFBDE81040044901220248FEF7B9BF72
:1015800000100140EC0000240C0000244FF04070DB
:10159000E1EE100A7047000000000102030401029E
:1015A0000304060708090000C8150008000000240D
:1015B00024000000D4020008EC15000824000024D8
:1015C000AC0D0000F00200080090D0030090D003A2
:1015D000000000000000000000000000010000000A
:0C15E000100000000000000001000000EE
:0200000490006A
:10000000732900F07E800020704700000FB404497F
:1000100010B503AA029800F079F810BC5DF814FB43
:10002000100000242DE9F0410E4604460020206215
:100030002046E168884730B3252805D0D4E901215E
:100040009047206A401CF2E7E16820460027884775
:10005000050018D0A5F14100192802D820354FF429
:1000600000673246294620462760FFF7C9FF40B1A6
:10007000012804D0F61D26F007060836D8E7361DFD
:10008000D6E72846DAE7206ABDE8F08170B50C466D
:100090000546012A05D02878800600D5EA690023A4
:1000A00002E0012305E05B1C934202D2E05C0028E1
:1000B000F9D1A869E618C01AA861286A184428620C
:1000C0002846AFF3008004E0D5E9012114F8010BC4
:1000D0009047B442F8D32846AFF3008070BD10B506
:1000E000436913B1AFF3008001E0FFF7CFFF0120B8
:1000F00010BD127800F124010A7000224A7001221A
:10010000EDE711684FF0FF32E9E70000074B70B5EB
:100110000D467B4400F011F80446284600F020F814
:1001200010B14FF0FF3070BD204670BD57130078FE
:1001300001694A1C02610878704700B58FB0CDE9AB
:1001400001310021059105497944CDE9031011469B
:100150006846FFF767FF0FB000BD0000E5FFFFFF37
:10016000007B00F08000704740F6C53CC0F6000CF4
:10017000604740F6393CC0F6000C604741F2991CDC
:10018000C0F6000C604740F2D15CC0F6000C60473E
:1001900040F2B97CC0F6000C604741F21D4CC0F63D
:1001A000000C604740F2CB7CC0F6000C604740F684
:1001B000A10CC0F6000C604740F64D0CC0F6000CD8
:1001C000604740F6BD0CC0F6000C604740F2E17C91
:1001D000C0F6000C604740F2D57CC0F6000C6047CA
:1001E00041F2192CC0F6000C604740F27B3CC0F68F
:1001F000000C604740F66D3CC0F6000C604740F6CE
:10020000993CC0F6000C6047FEE7704710B528B176
:1002100090F83510022903D080214165012010BDDE
:100220001D4A4FF4956301688C189C4207D804223C
:1002300080F83520086820F00100086029E00C688B
:1002400024F00E040C6001680A440A6822F00102DE
:100250000A60016E0A6822F480720A6090F85C30CD
:10026000012202FA03F10D4B1960D0E919134B601A
:10027000C16E31B10B6823F480730B60D0E91C139D
:100280004B60002180F8341080F83520016D01B1F9
:100290008847002010BD0000F0FFFDBF0454025845
:1002A00010B5FFF761FF084909684FF4807292FAB0
:1002B000A2F201F47061B2FA82F2D140034A515CB9
:1002C000C8400349086010BD18440258961500083C
:1002D0000000002410B5FFF74CFF07490968102201
:1002E00092FAA2F201F07001B2FA82F2D140034A0E
:1002F000515CC84010BD000020440258961500080B
:10030000364930B50A68096812F00302344BC1F36C
:1003100005311B68334C03F010032468DFED320A0B
:10032000B7EE001AC4F3CC0414FB03F300EE103A4A
:100330002E4BB8EE400A07D02D4C012A01D0022ADC
:100340004AD0B4FBF1F10BE0244C283C226895061E
:10035000284A03D52468C4F3C104E240B2FBF1F19A
:1003600001EE901A1968B8EE612AC1F3080101EE96
:10037000901A1968F8EE611A40EE201A31EE810ADF
:1003800022EE000AC1F34621491C00EE901AF8EE55
:10039000600A80EE201AFCEEC10AC0ED000A19685E
:1003A000C1F30641491C00EE901AF8EE600A80EE97
:1003B000201AFCEEC10AC0ED010A1968C1F30661FA
:1003C000491C00EE901AF8EE600A80EE201ABCEE8E
:1003D000C10A80ED020A30BD074ABFE7284402582F
:1003E0002C4402583C44025800000039384402585A
:1003F00000093D000090D00340787D01364930B5BA
:100400000A68096812F00302344BC1F305511B68F6
:10041000334C03F480732468DFED320AB7EE001A20
:10042000C4F3CC0414FB03F300EE103A2E4BB8EEE9
:10043000400A07D02D4C012A01D0022A4AD0B4FB31
:10044000F1F10BE0244C283C22689506284A03D59C
:100450002468C4F3C104E240B2FBF1F101EE901A4A
:100460001968B8EE612AC1F3080101EE901A196803
:10047000F8EE611A40EE201A31EE810A22EE000AEF
:10048000C1F34621491C00EE901AF8EE600A80EE96
:10049000201AFCEEC10AC0ED000A1968C1F306413A
:1004A000491C00EE901AF8EE600A80EE201AFCEE6D
:1004B000C10AC0ED010A1968C1F30661491C00EECA
:1004C000901AF8EE600A80EE201ABCEEC10A80EDA8
:1004D000020A30BD074ABFE7284402582C4402589C
:1004E00044440258000000394044025800093D00CD
:1004F0000090D00340787D017047704790F87910E4
:1005000090F87A000843704770B502680446D069D5
:100510001368916810F00F0F64D0594D03F4907672
:100520000D40354376D0C50707D0DD0505D501253B
:100530001562E26F42F00102E267820708D5CA073E
:1005400006D0256802222A62E26F42F00402E267C6
:10055000420708D5CA0706D0256804222A62E26F3E
:1005600042F00202E26702070ED503F0200201F01A
:1005700080552A4352EAC17206D0256808222A62B1
:10058000E26F42F00802E267E26F002A3AD080068A
:1005900008D503F0200001F08051084302D0204626
:1005A00000F06BFAE06F000703D420688068400613
:1005B0002AD5204600F053FA2068816849061ED5E6
:1005C000816821F040018160606FC0B12D490165F3
:1005D000606FFFF71BFE002814D0606F016DBDE84F
:1005E00070400847850615D503F0200501F08056B8
:1005F00035430FD02046BDE8704000F03EBA20469B
:10060000FFF77BFF70BD05E02046FFF776FF002077
:10061000E067F7E7C6024FF020050CD54E020AD579
:10062000E803106284F8795084F87A502046BDE8D7
:100630007040FFF761BF06060AD503F0800601F49B
:1006400000010E4304D02046BDE8704000F0A4BC79
:1006500041060BD5590609D51168204621F0400105
:10066000116084F8795000F097F8CBE70002C9D503
:100670005800C7D5106820F080401060C2E7000025
:10068000010000104B0A009010B5040003D094F84C
:10069000790010B107E0012010BD002084F8780037
:1006A0002046FFF76BFD242084F87900206801685C
:1006B00021F001010160204600F01AFA0128EBD078
:1006C000606B10B1204600F02EF92068416821F4DB
:1006D000904141602068816821F02A018160206892
:1006E000016841F0010101602046BDE8104000F0C2
:1006F0007EB990F87A30202B4CD1B9B1B2B190F8D4
:100700007830012B46D0012380F878304166A0F87C
:100710006820A0F86A20FF228168B1F5805F07D0C9
:100720007F2351B1B1F1805F0CD010E00120704700
:10073000016921B940F2FF1107E0016909BBA0F886
:100740006C2004E00169E1B13F21A0F86C100021A8
:10075000C167222280F87A2080F8781001688A68C0
:1007600042F001028A6001680A6892000CD50A68AA
:1007700042F480720A600068816841F080518160B3
:1007800006E0A0F86C30E2E7086840F4907008607A
:1007900000207047022070477047FEE7144870B58C
:1007A00086B0016841F004010160016801F00401B4
:1007B0000591016841F010010160006800260325E1
:1007C000694600F01000059008200124CDE90006DC
:1007D0000848CDE90245FFF7D6FC20206946CDE95F
:1007E00000060548CDE90245FFF7CDFC06B070BD17
:1007F000E044025800100258000802582DE9F04168
:100800001C4C01251C4E01281C4F12D0207848B1E9
:1008100008213046FFF7BCFC68B120213846FFF7BD
:10082000B7FC40B108213046FFF7B2FC012817D0D1
:100830001DE02570ECE70A20FFF7AFFC00202070D8
:1008400008213046FFF7A4FC28B120213846FFF7E5
:100850009FFC18B10BE00120BDE8F0810220FBE70E
:1008600020213846FFF794FC012800D12570002094
:10087000F2E700002000002400100258000802588F
:100880000E4810B586B0016841F0010101600068B2
:1008900069460B4C00F001000590022000900120F9
:1008A00001900290032003902046FFF76CFC012288
:1008B00020460221FFF776FC06B010BDE044025846
:1008C000000002582DE9FF4707461E460CA81446B3
:1008D0000D4690E80007FFF76AFC01208DF8000044
:1008E00000208DF808508DF80C008DF809008DF867
:1008F0000D808DF80A0068468DF80E908DF8014045
:1009000001978DF80B608DF80FA0FFF755FC0420C0
:10091000FFF757FC04B00020BDE8F0877047704730
:100920007047FFF753BC90F83410C90706D0016830
:100930004A68836B22F400321A434A6090F83410FC
:10094000890706D501684A68C36B22F480321A43CE
:100950004A6090F83410490706D501684A68036C6C
:1009600022F480221A434A6090F83410090706D511
:1009700001684A68436C22F400421A434A6090F8C6
:100980003410C90606D501688A68836C22F4805247
:100990001A438A6090F83410890606D501688A687F
:1009A000C36C22F400521A438A6090F8341049064E
:1009B00011D501684A68036D22F480121A434A6017
:1009C000016DB1F5801F06D101684A68436D22F4BC
:1009D000C0021A434A6090F83410090606D501682F
:1009E0004A68806D22F4002202434A607047F8B5DD
:1009F00000250446C567FFF7EEFB07462068006840
:100A00006FF07E46000708D500223B464FF40011E8
:100A10002046009600F0FAFA60B9206800684007A6
:100A20000AD500223B464FF480012046009600F094
:100A3000EDFA08B10320F8BD202084F8790084F88D
:100A40007A00002084F87850F8BD10B5806B002142
:100A5000A0F86A10A0F86210FFF74FFD10BD016802
:100A60000A6822F490720A6001688A6822F0010222
:100A70008A60202180F87A10704710B5B0F86C2099
:100A800090F87A300168222B05D0088B40F00800DE
:100A90000883022010BD898C8368B3F5805F01D183
:100AA00003696BB11140426E531C43661170B0F87C
:100AB0006A10491E0904090CA0F86A1007D015E055
:100AC000436E11401980416E891C4166EFE7016851
:100AD0000A6822F490720A6001688A6822F00102B2
:100AE0008A60202180F87A10FFF77AFB002010BD81
:100AF0002DE9F04F044600688025FD4B0021D4F815
:100B000010C087B0A6680F46D4F81C8046EA0C06D1
:100B1000D4F814C0A26A4CEA080C46EA0C06324328
:100B20000668DFF8D0C306EA0C06164306602068A4
:100B30004268E66822F44052324342602268A0696B
:100B40009A4201D0266A3043A66AB6F1005F04D10A
:100B5000D4E90B6C46EA0C0630439668DFF898C37C
:100B600006EA0C06064396602068C26A666A22F0AE
:100B70000F023243C262E14E2068E14AB04210D116
:100B8000126802F03802182A74D005DCCAB3082AA9
:100B90007AD0102A47D179E0202A7BD0282A7CD12C
:100BA0007AE0D84EB04209D1126802F00702062A54
:100BB00073D2DFE802F053696B6D6F71D24EB042B1
:100BC00009D1126802F00702062A66D2DFE802F0B5
:100BD000465C5E606264CD4EB04209D1126802F09C
:100BE0000702062A59D2DFE802F0394F5153555710
:100BF000C74EB0420BD1126802F00702062A4CD24F
:100C000000E00EE0DFE802F02A4042444648C14ED0
:100C1000B04209D1126802F03802182A38D0BBDC81
:100C2000B4E74FF0010538E0BB4EB04209D112687D
:100C300002F00702062A30D2DFE802F01026282A46
:100C40002C2EB64EB0420BD1126802F00702062AD3
:100C500023D2DFE802F003191B1D1F2100251CE031
:100C600098421AD1A64A121D126802F00702062AFB
:100C700013D202E00CE007E00CE0DFE802F003052D
:100C800007090B0D022508E0042506E0402504E0D5
:100C9000082502E0102500E02025DFF864B2A04E10
:100CA0009842DFF880A2ABF1540B73D1102D31D0F4
:100CB00006DC022D09D0042D0AD0082D2FD111E019
:100CC000202D29D0402D2AD107E0FFF703FB13E0A8
:100CD0006846FFF715FB01980EE003A8FFF78EFBAF
:100CE000049809E0DBF800105846890610D5006822
:100CF000C0F3C1012AFA01F0002811D061688946C9
:100D000001EB410181420AD8B0EB093F07D808E066
:100D10005046F3E78448F1E74FF40040EEE701273F
:100D200033E1102D4FF000084ED006DC022D0FD01D
:100D3000042D15D0082D04D12DE0202D4AD0402DB2
:100D400013D00127794AA0F54071914270D9E6E7A6
:100D5000FFF7C0FA626A0023414636F812200DE020
:100D60006846FFF7CDFA019803E003A8FFF746FBBA
:100D700004980023616A36F811201946FFF735FA06
:100D800062680902030241EA10615008181841EB39
:100D9000080115E032E0DBF800105846890609D555
:100DA00000680023C0F3C1012AFA01F0616A36F835
:100DB000112015E0606A002336F8102050460FE03D
:100DC0000023FFF712FABDE7606A002336F810200F
:100DD000554805E0606A002336F810204FF40040C3
:100DE0000021FFF702FA0902020241EA10614FEA0C
:100DF000590010184A4641EB0801E1E7E3694FF456
:100E0000004293424DD1082D23D005DC8DB1012D38
:100E100012D0042D06D112E0102D35D0202D3AD05D
:100E2000402D11D0012721F00F00C1F342010843EA
:100E30005AE0FFF7DFF916E0FFF7E1F913E0684643
:100E4000FFF75EFA01980EE003A8FFF7D7FA0498BF
:100E500009E0DBF800105846890608D50068C0F3A1
:100E6000C1012AFA01F0616A36F8111010E0606AD7
:100E700036F81010BAFBF1F04100606801EB500148
:100E8000B1FBF0F081B2CEE7606A36F81010264868
:100E9000B0FBF1F0F0E7606A36F81000B2FBF0F05A
:100EA000EAE7082D4AD00ADC0DB3012D43D0042D0A
:100EB0007FF44DAF6846FFF723FA019809E0102D43
:100EC00052D0202D55D0402DF2D103A8FFF796FA2D
:100ED0000498616A36F81110B0FBF1F1606801EB1B
:100EE0005001B1FBF0F080B22168C8604DE01FE016
:100EF000000C0058F369FFCFFFF4FF110010014010
:100F0000544402580044004000480040004C004057
:100F1000005000400014014000780040007C004078
:100F2000701000900090D00300093D00FFFC0F00FE
:100F3000FFF760F9CDE7FFF762F9CAE7DBF80020B9
:100F4000594692060AD50968C1F3C1022AFA02F18C
:100F5000626A36F81220B1FBF2F20FE0616A36F8ED
:100F60001120BAFBF2F209E0616A36F81120094952
:100F7000F1E7616A36F81110B2FBF1F2616802EB39
:100F80005102B2FBF1F189B2C16007B03846BDE849
:100F9000F08F000000093D0090F87910212901D060
:100FA00002207047B0F8621021B18168B1F5805F0E
:100FB00013D014E001680A68920004D58A6822F40C
:100FC00000028A6003E00A6822F080020A6000687A
:100FD000016841F0400101600CE0016961B1C16D3F
:100FE0004A1CC265026809781185B0F86210491E72
:100FF000A0F8621000207047C16D02680988C1F333
:1010000008011185C16D891CC165EEE72DE9F0412C
:101010001E46174688460446069D1CE0681C1AD0EA
:1010200025B1FFF7D8F8801BA84214D920680168C1
:1010300021F4D07101602068816821F00101816094
:10104000202084F8790084F87A00002084F8780061
:101050000320BDE8F0812068C16938EA010004D0AE
:101060000020B842DAD00020F3E70120F9E7FEE7DC
:10107000010002000400060008000A000C00100035
:08108000200040008000000187
:040000050800029954
:00000001FF
