:020000040800F2
:10000000100C0024AD020008F11C00084B1C000875
:10001000B902000895030008012B00080000000049
:10002000000000000000000000000000F51C0008B7
:100030002104000800000000F31C0008A51D0008B2
:10004000C7020008C7020008C7020008C70200086C
:10005000C7020008C7020008C7020008C70200085C
:10006000C7020008C7020008C7020008C70200084C
:10007000C7020008C7020008C7020008C70200083C
:10008000C7020008C7020008C7020008C70200082C
:10009000C7020008C7020008C7020008C70200081C
:1000A000C7020008C7020008C7020008C70200080C
:1000B000C70200082D1E0008C7020008C70200087A
:1000C000C7020008C7020008C7020008C7020008EC
:1000D000C7020008BD2A0008C7020008C7020008BE
:1000E000C7020008C702000800000000C70200089D
:1000F000C7020008C7020008C7020008C7020008BC
:10010000C7020008C7020008C91E0008C70200088D
:10011000C7020008C7020008C7020008C70200089B
:10012000C7020008C7020008C7020008C70200088B
:10013000C7020008C7020008C7020008C70200087B
:1001400000000000000000000000000000000000AF
:10015000C7020008C7020008C7020008C70200085B
:10016000C7020008C7020008C7020008C70200084B
:10017000C7020008C7020008C7020008C70200083B
:10018000C7020008C7020008C7020008C70200082B
:10019000C7020008C7020008C7020008C70200081B
:1001A000C7020008C7020008C7020008C70200080B
:1001B000C7020008C7020008C7020008C7020008FB
:1001C000C7020008C7020008C7020008C7020008EB
:1001D000C7020008C7020008C7020008C7020008DB
:1001E000C7020008C7020008C7020008C7020008CB
:1001F000C7020008C7020008C7020008C7020008BB
:10020000C7020008C7020008C7020008C7020008AA
:10021000C7020008C7020008C7020008C70200089A
:10022000C7020008C7020008C7020008000000005B
:10023000C7020008C702000800000000C70200084B
:10024000C7020008C7020008C7020008C70200086A
:10025000C7020008C7020008C7020008C70200085A
:10026000C7020008C7020008C7020008C70200084A
:10027000C7020008C7020008C7020008000000000B
:10028000C702000800000000C702000800000000CC
:1002900000000000C7020008DFF80CD000F068F88A
:1002A00000480047092E0008100C0024064880472B
:1002B00006480047FEE7FEE7FEE7FEE7FEE7FEE74B
:1002C000FEE7FEE7FEE7FEE7A91D00089902000829
:1002D0002DE9F05F0546002092469B46884606467B
:1002E000814640241BE0284641464746224600F00E
:1002F0002FF853465A46C01A914110D3114618465A
:10030000224600F016F82D1A67EB01084F462246E8
:100310000120002100F00DF817EB00094E41201ECE
:10032000A4F10104DFDC484631462A464346BDE8D5
:10033000F09F202A04DB203A00FA02F100207047E7
:100340009140C2F1200320FA03F319439040704713
:10035000202A04DB203A21FA02F00021704721FA1A
:1003600002F3D040C2F12002914008431946704781
:10037000064C074D06E0E06840F0010394E80700F2
:1003800098471034AC42F6D3FFF78AFF242F0008B9
:10039000442F0008FEE70000F0B5BFF34F8FBFF316
:1003A0006F8F1D4900200860BFF34F8FBFF36F8F21
:1003B0001A4C216841F400312160BFF34F8FBFF325
:1003C0006F8F164970310860BFF34F8F081F0068A8
:1003D00043F6FF75104E1036C0F34E31C0F3C9031B
:1003E00005EA4112184642EA80773760401EFAD289
:1003F000491EF5D2BFF34F8F206840F48030206053
:10040000BFF34F8FBFF36F8F03484C30016841F04B
:1004100004010160F0BD000050EF00E014ED00E0C9
:100420007047000010B528B190F83510022903D0AC
:1004300080214165012010BD1D4A4FF4956301687C
:100440008C189C4207D8042280F83520086820F0D8
:100450000100086029E00C6824F00E040C600168BB
:100460000A440A6822F001020A60016E0A6822F456
:1004700080720A6090F85C30012202FA03F10D4BA1
:100480001960D0E919134B60C16E31B10B6823F4C8
:1004900080730B60D0E91C134B60002180F834108E
:1004A00080F83520016D01B18847002010BD0000A3
:1004B000F0FFFDBF045402580248016841F00101F9
:1004C00001607047200400582DE9F84F6C4C002261
:1004D0004FF0B04A4FF0010B4FF0030E4FF00F09F1
:1004E0000B680BFA02F73B40BB4270D14D68022DFE
:1004F00001D0122D12D1D50800EB850CDCF820605C
:100500005507ED0E09FA05F826EA0806D1F810801D
:1005100008FA05F848EA0608CCF82080D0F80080F0
:10052000560091F804C00EFA06F50CF0030C28EA08
:1005300005080CFA06FC4CEA080CC0F800C0D1F81B
:1005400004C0BCF1010F08D0BCF1020F05D0BCF112
:10055000110F02D0BCF1120F16D1D0F808C0D1F89B
:100560000C802CEA050C08FA06F848EA0C08C0F8DA
:100570000880D0F804C02CEA070C0F79C7F30017E5
:10058000974047EA0C074760C768AF438D68B5409E
:100590003D43C5604D68ED006BD53A4D2E6846F081
:1005A00002062E602D6822F0030606F1B04605F023
:1005B00002050095D6F808C495072F0F09FA07F52C
:1005C0002CEA050C304DA84202D100252EE050E067
:1005D0002E4DA84201D1012528E02D4DA84201D180
:1005E000022523E02B4DA84201D103251EE02A4D10
:1005F000A84201D1042519E0284DA84201D10525C2
:1006000014E0274DA84201D106250FE0254DA84250
:1006100001D107250AE0244DA84201D1082505E0B3
:10062000224DA84201D1092500E00A25BD4045EA36
:100630000C05C6F8085425684E689D43F60300D59E
:100640001D43256065684E689D43B60300D51D4374
:100650006560DAF8005056464F689D43FF0200D5AA
:100660001D43356075684F689D43BF0200D51D432B
:100670007560521C102AFFF433AFBDE8F88F0000FC
:1006800080000058F4440258000002580004025848
:1006900000080258000C02580010025800140258BA
:1006A00000180258001C025800200258002402586A
:1006B0000AB1018370474183704700000148806898
:1006C0007047000014000024024881680278114439
:1006D0008160704714000024032010B500F058F822
:1006E0000F2000F007F808B1012010BD00F022F83B
:1006F000002010BD70B50D4D04464FF47A71287876
:10070000B1FBF0F00A490968B1FBF0F000F086FD9A
:1007100048B9102C07D200222146501E00F018F8CC
:1007200000206C6070BD012070BD0000140000242A
:10073000000000247047002809DB012100F01F029F
:1007400091404009800000F1E020C0F8001170479E
:100750000E4BF0B41B68C3F30223C3F10704042C4F
:1007600000D904241D1D072D01D2002300E0DB1E4B
:10077000012606FA04F56D1E0D409D409E40761E32
:10078000164045EA0601F0BC02F0CCB90CED00E0E1
:10079000064A00F0070110684FF6FF03184040EAD0
:1007A0000120034908431060704700000CED00E091
:1007B0000000FA0510B500F05BFA084909684FF42B
:1007C000807292FAA2F201F47061B2FA82F2D14020
:1007D000034A515CC8400349086010BD18440258E0
:1007E000FC2E00080000002410B500F0FBF90749BA
:1007F0000968102292FAA2F201F07001B2FA82F2B4
:10080000D140034A515CC84010BD0000204402584A
:10081000FC2E0008364930B50A68096812F0030258
:10082000344BC1F305311B68334C03F010032468CB
:10083000DFED320AB7EE001AC4F3CC0414FB03F365
:1008400000EE103A2E4BB8EE400A07D02D4C012A8C
:1008500001D0022A4AD0B4FBF1F10BE0244C283C31
:1008600022689506284A03D52468C4F3C104E240EF
:10087000B2FBF1F101EE901A1968B8EE612AC1F3EA
:10088000080101EE901A1968F8EE611A40EE201A7C
:1008900031EE810A22EE000AC1F34621491C00EE26
:1008A000901AF8EE600A80EE201AFCEEC10AC0ED44
:1008B000000A1968C1F30641491C00EE901AF8EECF
:1008C000600A80EE201AFCEEC10AC0ED010A196828
:1008D000C1F30661491C00EE901AF8EE600A80EE42
:1008E000201ABCEEC10A80ED020A30BD074ABFE7FC
:1008F000284402582C4402583C4402580000003955
:100900003844025800093D000090D00340787D0132
:10091000364930B50A68096812F00302344BC1F356
:1009200005511B68334C03F480732468DFED320AF1
:10093000B7EE001AC4F3CC0414FB03F300EE103A34
:100940002E4BB8EE400A07D02D4C012A01D0022AC6
:100950004AD0B4FBF1F10BE0244C283C2268950608
:10096000284A03D52468C4F3C104E240B2FBF1F184
:1009700001EE901A1968B8EE612AC1F3080101EE80
:10098000901A1968F8EE611A40EE201A31EE810AC9
:1009900022EE000AC1F34621491C00EE901AF8EE3F
:1009A000600A80EE201AFCEEC10AC0ED000A196848
:1009B000C1F30641491C00EE901AF8EE600A80EE81
:1009C000201AFCEEC10AC0ED010A1968C1F30661E4
:1009D000491C00EE901AF8EE600A80EE201ABCEE78
:1009E000C10A80ED020A30BD074ABFE72844025819
:1009F0002C44025844440258000000394044025834
:100A000000093D000090D00340787D012DE9F047BA
:100A1000DFF8BC9104460E46D9F8000000F007004C
:100A2000B0420CD2D9F8001021F007013143C9F8C7
:100A30000010D9F8000000F00700B0427ED1207805
:100A4000DFF89081800707D5D8F80010E26821F020
:100A50000F011143C8F800102078C00762D0D8F801
:100A60000010A26821F470611143C8F800105949C0
:100A70006068183902281CD003281DD00968012895
:100A80001DD04907002960DA524F083F396821F02C
:100A9000070101433960FFF711FE0546606841F226
:100AA0008831022813D003281ED001288A4627D077
:100AB00034E009688903E5E709688901E2E7C905C7
:100AC000E0E7FFF7FBFD411B514501D923E08A46D2
:100AD0003868C0F3C2000228F3D123E0FFF7EEFD2F
:100AE000411B514501D916E08A463868C0F3C2005F
:100AF0000328F3D116E0FFF7E1FD411B51450AD869
:100B00003868C0F3C2000128F5D10BE0FFF7D6FD2D
:100B1000411B514502D90320BDE8F087386810F029
:100B2000380FF3D1D9F80010484601F00701B1425F
:100B30000DD9016821F00701314300E005E00160B3
:100B4000006800F00700B04201D00120E4E72078FF
:100B5000400707D5D8F80010226921F07001114331
:100B6000C8F80010207801071B4805D501686269A4
:100B700021F07001114301602178C90605D5016893
:100B8000A26921F4E061114301602078800607D555
:100B90001149091D0868E26920F0700010430860DF
:100BA00000F066F8D8F800104FF4807292FAA2F2C2
:100BB00001F47061B2FA82F2D140084A515CC84037
:100BC000074908600F20FFF795FD0020A4E700000B
:100BD00000200052184402581C440258FC2E000801
:100BE0000000002410B5FFF7E5FD0849096801225F
:100BF00092FAA2F201F00F01B2FA82F2D140044A55
:100C0000515CC8400349086010BD000018440258F8
:100C1000FC2E00080400002410B5FFF7E3FF07498D
:100C20000968102292FAA2F201F07001B2FA82F27F
:100C3000D140034A515CC84010BD00001C4402581A
:100C4000FC2E000810B5FFF7CDFF074909684FF4E7
:100C5000807292FAA2F201F4E061B2FA82F2D1401B
:100C6000024A515CC84010BD1C440258FC2E0008CA
:100C70003548F0B50068364D10F03801334809D0DA
:100C80000411082904D0334E10290BD018290BD099
:100C90002046F0BD29688906FBD52968C1F3C1014A
:100CA000C840F0BD3046F0BD274918310A680968D0
:100CB00012F00302284BC1F305111B68274F03F004
:100CC00001033F68DFED260AB7EE001AC7F3CC0731
:100CD00017FB03F300EE103A224BB8EE400A06D0A1
:100CE000012A01D0022A2BD0B4FBF1F008E02A68D7
:100CF000920603D52A68C2F3C102D040B0FBF1F0DE
:100D000001EE900A1868B8EE612AC0F3080001EEFF
:100D1000900A1868F8EE611A40EE201A31EE810A46
:100D200022EE000AC0F34620401C00EE900AF8EEC6
:100D3000600A80EE201ABCEEC10A10EE100AF0BD67
:100D4000B6FBF1F0DCE70000104402580090D0033D
:100D50000044025840787D012C4402583444025823
:100D600000000039304402582DE9F05F0446007855
:100D7000DFF8FC8341F28839DFF8F8A3FE4DC007A5
:100D80004ED0D8F800104046C1F3C20102291AD053
:100D90000068C0F3C200032805D1DAF8000000F0B3
:100DA000030002280FD06068B0F5803F12D010B168
:100DB000B0F5A02F19D0286820F48030286028686A
:100DC00020F4802009E02868800329D56068002885
:100DD00074D025E0286840F480302860606890B1C5
:100DE000FFF76CFC06464F4609E0286840F4802077
:100DF0002860EFE7FFF762FC801BB8427DD82868C7
:100E00008003F7D50CE0FFF759FC06464F4604E097
:100E1000FFF754FC801BB842F0D828688003F7D451
:100E20002078D64F80075AD5D8F8001040464FF4A6
:100E30007C3B11F0380F13D00068C0F3C2000328C8
:100E400003D1DAF8000080070AD0E068A8B3296867
:100E500021F0190101432960FFF730FC06461DE02F
:100E60002868400702D5E0680028B1D02868E1680A
:100E700020F0190008432860FFF720FC064604E034
:100E8000FFF71CFC801B0228B8D828684007F7D55C
:100E900007E0FFF713FC801B0228AFD82868400743
:100EA000F7D538689BFAABF220F47C312069B2FAAE
:100EB00082F290400143396011E000E0AEE0286822
:100EC00020F001002860FFF7F9FB064604E0FFF779
:100ED000F5FB801B022891D828684007F7D42078BA
:100EE000C00655D5D8F8001040464FF0F84BC1F376
:100EF000C201012917D0006800E0EDE0C0F3C20094
:100F0000032805D1DAF8000000F0030001280AD018
:100F1000E069002828682CD040F080002860FFF7A6
:100F2000CDFB064616E02868C00502D5E06980289A
:100F300074D138689BFAABF220F0F841206AB2FA1B
:100F400082F290400143396022E0FFF7B7FB801B3B
:100F5000022899D82868C005F7D538689BFAABF203
:100F6000216AB2FA82F220F0F840914008433860DA
:100F70000EE020F080002860FFF7A0FB064604E0AA
:100F8000FFF79CFB801B022887D82868C005F7D490
:100F90002078000724D5774F60694C3700283868DF
:100FA0000FD040F001003860FFF788FB064604E0F0
:100FB000FFF784FB801B02288DD838688007F7D59F
:100FC0000EE020F001003860FFF778FB064604E0F1
:100FD000FFF774FB801B02287ED838688007F7D49F
:100FE0002078800623D5A069002828680FD040F417
:100FF00080502860FFF762FB064604E0FFF75EFBC7
:10100000801B022868D828688004F7D50FE020F4F8
:1010100080502860FFF752FB064605E0D6E0FFF758
:101020004DFB801B022857D828688004F7D420780D
:10103000400744D5524F386840F480703860FFF75D
:101040003DFB064604E0FFF739FB801B642843D8CC
:101050003868C005F7D5474FA068483701280AD03F
:1010600008B1052811D0386820F0010038603868D0
:1010700020F0040002E0386840F001003860A06809
:1010800088B1FFF71BFB064609E0386840F0040012
:101090003860F0E7FFF712FB811B49451CD8386820
:1010A0008007F7D50BE0FFF709FB064604E0FFF7E2
:1010B00005FB811B49450FD838688007F7D4606A63
:1010C000F0B3D8F80010C1F3C20103297ED0022882
:1010D000286820F0807000E079E0286003D0FFF7F6
:1010E000EDFA044687E0FFF7E9FA064604E0FFF769
:1010F000E5FA801B02287BD828688001F7D4DAF84B
:10110000001040F2F3329143E26A41EA0211A26A0E
:101110001143CAF8001094F834004FF4FE02218EF7
:101120004002491EA0F5007080B2C1F308010843D7
:10113000218F491E02EA0141084394F83C1000E067
:101140005CE0491E120202EA0161084309490831C4
:1011500008600B1D19684FF6F872A06C914392FA63
:10116000A2F2B2FA82F2904001431960014809E00C
:1011700010440258284402580044025804440258BB
:1011800000480258001D0168226C21F00C01114337
:1011900001600168626C21F0020111430160016885
:1011A00041F480310160016841F40031016001685F
:1011B00041F480210160016841F00101016028686B
:1011C00040F080702860FFF779FA01E018E00FE046
:1011D000044604E0FFF772FA001B022808D82868CA
:1011E0008001F7D50AE0FFF769FA001B022802D94F
:1011F0000320BDE8F09F28688001F4D40020F8E7C0
:101200000120F6E74FF0E0210428086903D020F020
:1012100004000861704740F00400FAE7401EB0F196
:10122000807F10B501D3012010BD4FF0E024606134
:101230000F21601701F076FC0020A06107202061DB
:10124000002010BD7047704770B51E4E3078010603
:1012500013D41D4C41064FF6F5750FD540F08000B4
:1012600030700021204600F00DFB70602068016A9C
:10127000294001622068016A016270BD002171602D
:10128000402030702068026A41F211131A4207D1DF
:10129000026A9B101A4203D1028822F001020280E6
:1012A000206841622068016A294001622068016A61
:1012B00041F0020101622068018841F001010180D2
:1012C00070BD000020000024CC0100242DE9F04175
:1012D000044690F83C000D4601283CD0012684F8D5
:1012E0003C60022084F83D00A2B3042A45D0206867
:1012F000082A54D0D5E90027E968036A23F480530B
:101300000362D0F81CC0036A2CF4407C4CEA072727
:101310004FF6FF7C27F470470CEA01313943C16175
:101320004FF4204723F4204307EA02321A430262B3
:101330002068C16921F44061C1612068C169AA685F
:1013400041EA0221C16184F83D60002084F83C003C
:10135000BDE8F08101E00220FAE7EB682068D5E9FA
:10136000001200F0ABFF2068816921F00C0181615F
:1013700020688169AA6811430FE0EB682068D5E90D
:10138000001200F0DBFF2068816921F44061816177
:1013900020688169AA6841EA02218161D3E7D5E921
:1013A000002C2F7B016A21F480710162C169036AFC
:1013B00021F0030141EA0C0121F0F00C39074FF450
:1013C000206723F4206307EA02221A434CEA1161E2
:1013D000C16102622068C16921F00C01C16120680D
:1013E000C169AA681143ADE710B5040003D094F8B1
:1013F0003D0010B107E0012010BD002084F83C0042
:10140000204600F00DF8022084F83D002068211DE0
:1014100000F060FD012084F83D00002010BD0000B8
:10142000154800B587B0016841F008010160006807
:1014300000F00800059010480838016841F00101EB
:1014400001600068032100F0010005900120009078
:1014500002200190CDE90201049069460748FFF798
:1014600033F8002202213220FFF772F93220FFF711
:1014700062F907B000BD0000E844025800000258BD
:1014800010B50268044631B1042908D0082915D0E6
:101490000C2908D116E0D06840F0020002E0D068C4
:1014A00040F00400D0602068012200F073FD206845
:1014B000018841F001010180002010BDD06840F09A
:1014C0000800EFE7D06840F01000EBE770B5044685
:1014D000006801694FF00005C943890715D4C16848
:1014E000C943890711D4E91E0161012020772068D2
:1014F00080698007204602D0FFF7A6FE04E000F0D6
:10150000A5F8204600F07AF9257720680169C943DB
:10151000490717D4C168C943490713D46FF00401C0
:101520000161022020772068806910F4407F204606
:1015300002D0FFF789FE04E000F088F8204600F0B2
:101540005DF9257720680169C943090716D4C16888
:10155000C943090712D46FF0080101610420207704
:101560002068C0698007204602D0FFF76DFE04E0C6
:1015700000F06CF8204600F041F9257720680169F9
:10158000C943C90617D4C168C943C90613D46FF04B
:1015900010010161082020772068C06910F4407FA5
:1015A000204602D0FFF750FE04E000F04FF820463E
:1015B00000F024F9257720680169C943C90708D1DB
:1015C000C168C943C90704D1891E0161204600F0E2
:1015D00043F9206801696FF08005C943090607D403
:1015E000C168C943090603D405612046FFF72AFEF6
:1015F00020680169C943C90507D4C168C943090600
:1016000003D405612046FFF71DFE20680169C94328
:10161000490609D4C168C943490605D46FF04001A1
:101620000161204600F050F920680169C94389062C
:101630000BD4C168C943890607D46FF0200101614A
:101640002046BDE87040FFF7FEBD70BD704770B525
:10165000044690F83C000D4601280ED0012684F87F
:101660003C60022084F83D000C2A45D007DC5AB1CA
:10167000042A1BD0082A78D12CE0022070BD102A41
:101680004ED0142A71D15DE0206800F095FC2068EE
:10169000816941F0080181612068816921F00401BC
:1016A0008161206881692A69114311E0206800F096
:1016B000D1FC2068816941F4006181612068816901
:1016C00021F480618161206881692A6941EA0221EF
:1016D00081614AE0206800F005FD2068C16941F0A1
:1016E0000801C1612068C16921F00401C16120685D
:1016F000C1692A69114311E0206800F037FD2068B4
:10170000C16941F40061C1612068C16921F480614F
:10171000C1612068C1692A6941EA0221C16124E0EE
:10172000206800F059FD2068416D41F008014165D5
:101730002068416D21F0040141652068416D2A69EE
:10174000114311E0206800F07DFD2068416D41F4F7
:10175000006141652068416D21F480614165206828
:10176000416D2A6941EA0221416584F83D6000200B
:1017700084F83C0070BD10B5040003D094F83D001F
:1017800010B107E0012010BD002084F83C00204685
:1017900000F00CF8022084F83D002068211D00F0C4
:1017A00099FB012084F83D00002010BD114800B5D0
:1017B00087B0016841F002010160006800F002009A
:1017C00005900C480838016841F00201016000688A
:1017D000012100F00200059002200090CDE90101F6
:1017E0000321CDE9031004486946FEF76DFE07B0FA
:1017F00000BD0000E8440258000402587047000091
:1018000010B501220446006800F0C4FB0D482168B1
:1018100081420BD00C48814208D00C48814205D04F
:101820000B48814202D00B48814203D1486C40F4FE
:10183000004048642068018841F0010101800020D7
:1018400010BD0000000001400004014000400140C4
:10185000004401400048014009490878020606D4C6
:10186000420604D5C243920602D0401C087070475D
:1018700040F0800008704FF0FF3048607047000073
:101880002000002490F83C300022012B0AD00123D4
:1018900080F83C3041B1042909D008290AD00C292C
:1018A0000DD10AE00220704701684A6B07E0016829
:1018B0008A6B04E00168CA6B01E001680A6C0021D0
:1018C00080F83C101046704770477047704790F89A
:1018D000791090F87A0008437047000070B50268EC
:1018E0000446D0691368916810F00F0F64D0594D09
:1018F00003F490760D40354376D0C50707D0DD055B
:1019000005D501251562E26F42F00102E267820708
:1019100008D5CA0706D0256802222A62E26F42F083
:101920000402E267420708D5CA0706D025680422E8
:101930002A62E26F42F00202E26702070ED503F06C
:10194000200201F080552A4352EAC17206D0256870
:1019500008222A62E26F42F00802E267E26F002A80
:101960003AD0800608D503F0200001F080510843EA
:1019700002D0204600F0A7FDE06F000703D42068E6
:10198000806840062AD5204600F08FFD20688168D7
:1019900049061ED5816821F040018160606FC0B1A9
:1019A0002D490165606FFEF73DFD002814D0606F82
:1019B000016DBDE870400847850615D503F0200588
:1019C00001F0805635430FD02046BDE8704000F04E
:1019D0007ABD2046FFF77AFF70BD05E02046FFF78D
:1019E00075FF0020E067F7E7C6024FF020050CD531
:1019F0004E020AD5E803106284F8795084F87A50D0
:101A00002046BDE87040FFF760BF06060AD503F028
:101A1000800601F400010E4304D02046BDE870406A
:101A200000F0E0BF41060BD5590609D511682046E4
:101A300021F04001116084F8795000F005F9CBE7FE
:101A40000002C9D55800C7D5106820F0804010604A
:101A5000C2E70000010000109724000810B5040040
:101A600003D094F8790010B107E0012010BD0020E8
:101A700084F87800204600F027F8242084F87900C4
:101A80002068016821F001010160204600F056FD48
:101A90000128EBD0606B10B1204600F06AFC206892
:101AA000416821F4904141602068816821F02A0159
:101AB00081602068016841F0010101602046BDE8B5
:101AC000104000F0BABC000010B5006886B01B4999
:101AD000884230D11A48016841F001010160006874
:101AE00000F00100059016481030016841F0100127
:101AF000016000680121134C00F0100005904FF4C4
:101B0000007000900220CDE9010103900720694692
:101B100004902046FEF7D8FC4FF4806120460091E7
:101B20006946FEF7D1FC2520FEF705FE032225209D
:101B30001146FEF70DFE06B010BD0000001001407A
:101B4000E04402580000025890F87A30202B4CD123
:101B5000B9B1B2B190F87830012B46D0012380F8AA
:101B600078304166A0F86820A0F86A20FF228168DA
:101B7000B1F5805F07D07F2351B1B1F1805F0CD008
:101B800010E001207047016921B940F2FF1107E020
:101B9000016909BBA0F86C2004E00169E1B13F21B3
:101BA000A0F86C100021C167222280F87A2080F80A
:101BB000781001688A6842F001028A6001680A6848
:101BC00092000CD50A6842F480720A60006881684D
:101BD00041F08051816006E0A0F86C30E2E70868CF
:101BE00040F49070086000207047022070470000A9
:101BF00030B50068114988420CD1114A508801045F
:101C000008D411464FF000034404097806D50A2988
:101C100001D0538030BD40F400400DE00D2909D0C3
:101C2000084DC0F30D04401C80B2C72829555080D0
:101C3000EFD830BD40F48040508030BD00100140EE
:101C40000C000024280000247047FEE7144870B5FB
:101C500086B0016841F004010160016801F00401EF
:101C60000591016841F0100101600068002603251C
:101C7000694600F01000059008200124CDE9000617
:101C80000848CDE90245FEF71FFC20206946CDE952
:101C900000060548CDE90245FEF716FC06B070BD0A
:101CA000E044025800100258000802580E4810B5CF
:101CB00086B0016841F001010160006869460B4C83
:101CC00000F0010005900220009001200190029098
:101CD000032003902046FEF7F7FB01222046022155
:101CE000FEF7E6FC06B010BDE044025800000258C2
:101CF000704770477047000070B5284C9CB025684D
:101D000025F004052560254C00260C34256845F493
:101D100040452560256805F440451B952568AD04C0
:101D2000FCD5012400940CAD0396240401940224F4
:101D30000994CDE90A410796082485E80D00CDE90C
:101D400010466846FFF710F888B93F20139003202B
:101D5000CDE9140640200101CDE91640CDE9180176
:101D600050201A90022113A8FEF750FE10B1012056
:101D70001CB070BD0A48016841F08001016008484C
:101D8000F430016841F002010160006800F00200D7
:101D90001B90FEF791FB0020EAE700000C48025878
:101DA00000440258FEF790BC1C48016841F47001E1
:101DB00001601B49086840F001000860184A0020D3
:101DC000103210600A68174B1A400A60144A183221
:101DD0001060121D1060121D1060114A2832106030
:101DE000121D1060121D1060121D1060121D106077
:101DF000121D1060121D1060121D10600A6822F47E
:101E000080220A6006496031086001200649C1F855
:101E10000801C006014980390860704788ED00E07C
:101E2000004402587FEDF6EA008000510148FFF7B8
:101E30004DBB000070010024104A10B504460E4846
:101E4000C2E900010020C2E9020410611046FFF758
:101E500092FC0A4960200C2240310860600848600A
:101E6000022088600548FFF7F2FBBDE810400348F8
:101E70000C21FFF7C5BC00000004004070010024E5
:101E80007FB5104C00250E4AC4E90250256120465A
:101E9000C4E90021FFF7A8FA012069460022029553
:101EA0000395CDE900502046FFF710FA00212046A7
:101EB000FFF7E6FA2068C16841F00101C1607FBD0B
:101EC000000C0040CC0100240148FFF7FFBA0000DD
:101ED000CC0100242DE9F04702884FF0804A254CC0
:101EE000254D264EA042264F264B09D0504507D0FF
:101EF000A84205D0B04203D0B84201D0984204D1E4
:101F000022F0700C4A6842EA0C02DFF87CC0DFF86D
:101F10007C80A042DFF878900FD050450DD0A842C9
:101F20000BD0B04209D0B84207D0984205D06045E6
:101F300003D0404501D0484503D122F44075CA681A
:101F40002A438D8A22F080022A4302808A68C26274
:101F50000A880285A04207D0984205D0604503D088
:101F6000404501D0484501D1098A018601214161DE
:101F7000BDE8F08700000140000400400008004078
:101F8000000C0040000401400040014000440140BA
:101F900000480140012310B5046A8B409C43046251
:101FA000036A8A401343036210BD000001480C21FC
:101FB000FFF768BC700100242DE9F043026A22F0AB
:101FC00001020262056A4268836925F002051B4C22
:101FD0001C4E23400C6823F003031B4F1C438B68EB
:101FE000DFF868C02B43164DDFF86490A84207D095
:101FF000B04205D0B84203D0604501D0484506D173
:1020000023F00808CB6843EA080323F00403A8423E
:1020100007D0B04205D0B84203D0604501D0484552
:1020200005D14D6922F4407215438A692A43426002
:102030008461496841630362BDE8F0838FFFFEFF5E
:102040000000014000040140004001400044014004
:1020500000480140F0B5026A22F010020262056AEF
:1020600042688369194C1B4E23400C6823F440736B
:1020700043EA042425F020038D6843EA0513144D38
:10208000A84201D0B04206D1CF6823F0800343EAD2
:10209000071323F04003A8420AD0B04208D00E4DE7
:1020A000A84205D00D4DA84202D00D4DA84207D13F
:1020B0004D6922F4406242EA85028D6942EA850256
:1020C00042608461496881630362F0BDFF8FFFFE57
:1020D0000000014000040140004001400044014074
:1020E00000480140F0B5026A22F480720262026A7E
:1020F0004368C46922F40072184E24F073050C681A
:102100002C438D6842EA0522134DA84201D0B0420B
:1021100006D1CF6822F4006242EA072222F48062EC
:10212000A8420AD0B04208D00D4DA84205D00D4DAE
:10213000A84202D00C4DA84207D14D6923F4405368
:1021400043EA05138D6943EA05134360C461496896
:10215000C1630262F0BD00000000014000040140C4
:1021600000400140004401400048014030B5026A8F
:1021700022F480520262036A4268C46923F4005365
:102180000D6824F4E64444EA05248D6843EA0533E7
:102190000C4DA8420BD00C4DA84208D00B4DA842C4
:1021A00005D00B4DA84202D00A4DA84204D14D697A
:1021B00022F4804242EA85124260C46149680164A7
:1021C000036230BD000001400004014000400140B6
:1021D000004401400048014030B5026A22F48032D8
:1021E0000262046A4268436D24F4003423F07005EF
:1021F0000B682B430D8944EA05440D4DA8420BD0D2
:102200000C4DA84208D00C4DA84205D00B4DA84259
:1022100002D00B4DA84204D14D6922F4803242EA2B
:1022200005224260436549688165046230BD000053
:102230000000014000040140004001400044014012
:102240000048014030B5026A22F480120262046A3A
:102250004268436D24F400140D6823F4E04343EA1C
:1022600005230D8944EA05540C4DA8420BD00C4DB2
:10227000A84208D00B4DA84205D00B4DA84202D071
:102280000A4DA84204D14D6922F4003242EA852267
:10229000426043654968C165046230BD0000014089
:1022A000000401400040014000440140004801405A
:1022B00001490860704700004004004070B5046A9E
:1022C00024F0010404628469056A154EB04214D0FA
:1022D000B0F1804F11D0134EB0420ED0124EB0422A
:1022E0000BD0124EB04208D0114EB04205D0114E64
:1022F000B04202D0104EB04203D124F00304144384
:1023000001E044F001041A0724F0F00425F00A0368
:1023100001F00A01194344EA12628261016270BD50
:10232000000001400004004000080040000C004094
:1023300000040140001800400040014030B5046A2C
:1023400024F0100404628569046A25F4407545EAA6
:10235000022222F470454FF6FF7202EA033224F0A3
:10236000A003A0242A43826104EA011119430162F7
:1023700030BD90F83410C90706D001684A68836BF5
:1023800022F400321A434A6090F83410890706D5C7
:1023900001684A68C36B22F480321A434A6090F89D
:1023A0003410490706D501684A68036C22F480227C
:1023B0001A434A6090F83410090706D501684A6844
:1023C000436C22F400421A434A6090F83410C90664
:1023D00006D501688A68836C22F480521A438A60A9
:1023E00090F83410890606D501688A68C36C22F417
:1023F00000521A438A6090F83410490611D50168DA
:102400004A68036D22F480121A434A60016DB1F5E7
:10241000801F06D101684A68436D22F4C0021A4346
:102420004A6090F83410090606D501684A68806D44
:1024300022F4002202434A607047F8B500250446A2
:10244000C567FEF73BF90746206800686FF07E46D7
:10245000000708D500223B464FF4001120460096A5
:1024600000F0FAFA60B92068006840070AD5002237
:102470003B464FF480012046009600F0EDFA08B18B
:102480000320F8BD202084F8790084F87A00002029
:1024900084F87850F8BD10B5806B0021A0F86A1060
:1024A000A0F86210FFF712FA10BD01680A6822F462
:1024B00090720A6001688A6822F001028A60202115
:1024C00080F87A10704710B5B0F86C2090F87A3028
:1024D0000168222B05D0088B40F0080008830220F9
:1024E00010BD898C8368B3F5805F01D103696BB13E
:1024F0001140426E531C43661170B0F86A10491EB9
:102500000904090CA0F86A1007D015E0436E1140C9
:102510001980416E891C4166EFE701680A6822F460
:1025200090720A6001688A6822F001028A602021A4
:1025300080F87A10FFF75CFB002010BD2DE9F04F0A
:10254000044600688025FD4B0021D4F810C087B0F8
:10255000A6680F46D4F81C8046EA0C06D4F814C0CE
:10256000A26A4CEA080C46EA0C0632430668DFF819
:10257000D0C306EA0C061643066020684268E66887
:1025800022F44052324342602268A0699A4201D04C
:10259000266A3043A66AB6F1005F04D1D4E90B6C19
:1025A00046EA0C0630439668DFF898C306EA0C0644
:1025B000064396602068C26A666A22F00F023243C0
:1025C000C262E14E2068E14AB04210D1126802F0C6
:1025D0003802182A74D005DCCAB3082A7AD0102A27
:1025E00047D179E0202A7BD0282A7CD17AE0D84EC6
:1025F000B04209D1126802F00702062A73D2DFE85E
:1026000002F053696B6D6F71D24EB04209D11268FE
:1026100002F00702062A66D2DFE802F0465C5E603E
:102620006264CD4EB04209D1126802F00702062A58
:1026300059D2DFE802F0394F51535557C74EB042D7
:102640000BD1126802F00702062A4CD200E00EE01D
:10265000DFE802F02A4042444648C14EB04209D168
:10266000126802F03802182A38D0BBDCB4E74FF009
:10267000010538E0BB4EB04209D1126802F00702F2
:10268000062A30D2DFE802F01026282A2C2EB64E79
:10269000B0420BD1126802F00702062A23D2DFE80B
:1026A00002F003191B1D1F2100251CE098421AD1BE
:1026B000A64A121D126802F00702062A13D202E08F
:1026C0000CE007E00CE0DFE802F0030507090B0D62
:1026D000022508E0042506E0402504E0082502E084
:1026E000102500E02025DFF864B2A04E9842DFF804
:1026F00080A2ABF1540B73D1102D31D006DC022D2A
:1027000009D0042D0AD0082D2FD111E0202D29D079
:10271000402D2AD107E0FEF767F813E06846FEF780
:1027200079F801980EE003A8FEF7F2F8049809E0A2
:10273000DBF800105846890610D50068C0F3C101C7
:102740002AFA01F0002811D06168894601EB4101A5
:1027500081420AD8B0EB093F07D808E05046F3E7BA
:102760008448F1E74FF40040EEE7012733E1102DF4
:102770004FF000084ED006DC022D0FD0042D15D0EE
:10278000082D04D12DE0202D4AD0402D13D0012753
:10279000794AA0F54071914270D9E6E7FEF724F836
:1027A000626A0023414636F812200DE06846FEF7C3
:1027B00031F8019803E003A8FEF7AAF80498002373
:1027C000616A36F811201946FDF782FD6268090238
:1027D000030241EA10615008181841EB080115E0A6
:1027E00032E0DBF800105846890609D5006800235E
:1027F000C0F3C1012AFA01F0616A36F8112015E030
:10280000606A002336F8102050460FE00023FDF7E1
:102810005FFDBDE7606A002336F81020554805E0EB
:10282000606A002336F810204FF400400021FDF7C5
:102830004FFD0902020241EA10614FEA59001018E7
:102840004A4641EB0801E1E7E3694FF40042934255
:102850004DD1082D23D005DC8DB1012D12D0042DD2
:1028600006D112E0102D35D0202D3AD0402D11D0B8
:10287000012721F00F00C1F3420108435AE0FEF79F
:10288000CBF916E0FEF7DEF913E06846FDF7C2FF6C
:1028900001980EE003A8FEF73BF8049809E0DBF886
:1028A00000105846890608D50068C0F3C1012AFA0D
:1028B00001F0616A36F8111010E0606A36F8101005
:1028C000BAFBF1F04100606801EB5001B1FBF0F0A0
:1028D00081B2CEE7606A36F810102648B0FBF1F0FE
:1028E000F0E7606A36F81000B2FBF0F0EAE7082D76
:1028F0004AD00ADC0DB3012D43D0042D7FF44DAF37
:102900006846FDF787FF019809E0102D52D0202D71
:1029100055D0402DF2D103A8FDF7FAFF0498616A63
:1029200036F81110B0FBF1F1606801EB5001B1FB1A
:10293000F0F080B22168C8604DE01FE0000C005844
:10294000F369FFCFFFF4FF11001001405444025817
:102950000044004000480040004C0040005000404F
:102960000014014000780040007C00400C2F00085B
:102970000090D00300093D00FFFC0F00FEF74CF96A
:10298000CDE7FEF75FF9CAE7DBF80020594692066B
:102990000AD50968C1F3C1022AFA02F1626A36F85F
:1029A0001220B1FBF2F20FE0616A36F81120BAFB97
:1029B000F2F209E0616A36F811200949F1E7616A2B
:1029C00036F81110B2FBF1F2616802EB5102B2FB72
:1029D000F1F189B2C16007B03846BDE8F08F000060
:1029E00000093D0090F87910212901D0022070479C
:1029F000B0F8621021B18168B1F5805F13D014E0A6
:102A000001680A68920004D58A6822F400028A608C
:102A100003E00A6822F080020A600068016841F061
:102A2000400101600CE0016961B1C16D4A1CC265E1
:102A3000026809781185B0F86210491EA0F862108A
:102A400000207047C16D02680988C1F30801118533
:102A5000C16D891CC165EEE72DE9F0411E461746A0
:102A600088460446069D1CE0681C1AD025B1FDF777
:102A700025FE801BA84214D92068016821F4D0717A
:102A800001602068816821F001018160202084F8C4
:102A9000790084F87A00002084F878000320BDE8EB
:102AA000F0812068C16938EA010004D00020B842F2
:102AB000DAD00020F3E70120F9E7000070B50D4DF2
:102AC00000240D48FEF70AFF02E0641CAC4204D863
:102AD0000948FEF7FCFE2028F7D1002402E0641C20
:102AE000AC4206D8054901220348FFF72DF800281B
:102AF000F5D170BDFFFF0100F00000240C000024A0
:102B0000FEE700000FB4054B10B503A9044A029874
:102B100000F028F810BC5DF814FB0000F52D00084B
:102B2000100000240907090E002804DB00F1E02052
:102B300080F80014704700F00F0000F1E02080F8EA
:102B4000141D704702E008C8121F08C1002AFAD1FC
:102B500070477047002001E001C1121F002AFBD11D
:102B6000704700002DE9FF4F8BB09A460F46044690
:102B7000002606E025280BD052460D999047641C8C
:102B8000761C20780028F5D10FB03046BDE8F08FD4
:102B90000025A94601227D4900E0054314F8013FC4
:102BA000203B02FA03F00842F7D120782E2817D1F3
:102BB00014F8010F45F004052A280ED06FF02F02FB
:102BC0002078A0F1300109290AD809EB890102EB2C
:102BD000410100EB0109641CF2E757F8049B641CF7
:102BE00020786C280DD004DC4C2812D06A2811D132
:102BF00004E074280DD07A280CD10AE045F40015C1
:102C000007E0617845F48015814202D1641C05F526
:102C10008015641C207869283ED006DC0028B3D0DB
:102C200063280BD0642804D136E0732810D07528AF
:102C30005CD052460D999047761CA5E017F8040B1E
:102C40008DF8000000208DF80100E846012003E027
:102C500057F8048B4FF0FF3069074FF0000501D49F
:102C60000AE06D1C4D450DDA8542FADB18F80510B7
:102C70000029F6D106E06D1C8542FCDB18F8051032
:102C80000029F8D12E4404E018F8010B52460D99A2
:102C900090476D1EF8D277E000200A90C5F30250ED
:102CA0004FF00A0B02280CD001CFC117021E71F1A0
:102CB00000020CDA0023D0EB030063EB01012D22AC
:102CC00008E0FF1D27F00707F7E80201EEE72A05F5
:102CD00004D52B228DF82420012203E0EA070FD02F
:102CE0002022F7E70DF12008089218E000200A9052
:102CF000C5F302504FF00A0B022803D001CF002188
:102D00000022EFE7FF1D27F00707F7E80201F7E7CA
:102D10005A460A9BFDF7DCFA303208F8012D50EADA
:102D20000102F5D1ADEB080000F1200B680701D4DA
:102D30004FF00109D94502DDA9EB0B0000E00020AE
:102D40008146002506E009A85246405D0D9990474E
:102D50006D1C761C08988542F5DB04E03020524655
:102D60000D999047761CB9F10001A9F10109F5DC34
:102D700005E018F8010B52460D999047761CBBF1FF
:102D80000001ABF1010BF4DC641CFAE60928010038
:102D900010B504460420FEF735FA0148046010BD62
:102DA0000800002470B5002405464FF47A7603E04D
:102DB000304600F005F8641CAC42F9D370BD000049
:102DC00070B54FF0E02500216C69094AAB691268C3
:102DD0005043AA699A42FCD002D2A3EB020302E05C
:102DE000A4EB02063344194413468142F1D370BD6B
:102DF000080000240349CA695206FCD5C2B20A85FC
:102E00007047000000100140FDF7C6FAFDF764FCB2
:102E1000042302220521A020FEF76EFF4FF4C870A4
:102E2000FFF7B6FF4FF4E13000F04CF8FEF73EFF3D
:102E3000FEF70CFFC72140F2F310FEF7FDFFC7219C
:102E40004FF0FF30FFF71CF8174800220221FDF772
:102E50002FFC164D0024164E4FF496780A20FFF7EB
:102E6000A1FFFFF7A3F8401CFFF722FAFFF79EF837
:102E7000404502D10020FFF71BFA28780106EDD566
:102E800000F03F014FF0FF320027CB0FA1FB020CF7
:102E900003FB02C201FB072331684218634105A00E
:102EA000FFF730FE2C70D9E7000002582000002404
:102EB00024000024484947483A256C6C6420757307
:102EC0000D0A00000B490A4A10B5C1E90020002094
:102ED0008860C860086188610C2048610846FEF778
:102EE000BDFDBDE81040044901220248FEF72CBE9A
:102EF00000100140F00000240C000024000000003D
:102F0000010203040102030406070809010002008C
:102F10000400060008000A000C0010002000400019
:102F200080000001442F0008000000242800000059
:102F3000442B00086C2F000828000024E80B000038
:102F4000542B00080090D0030090D0030000000034
:102F50000000000000000000010000001000000060
:0C2F600000000000000000000000000065
:040000050800029954
:00000001FF
