:020000040800F2
:10000000F00C0024AD020008FD450008633F000825
:10001000B902000825090008AD56000800000000DC
:10002000000000000000000000000000D9490008A6
:100030004F0A000800000000FF450008E94B0008D7
:10004000C7020008C7020008C7020008C70200086C
:10005000C7020008C7020008C7020008C70200085C
:10006000C7020008C7020008C7020008C70200084C
:10007000C7020008C7020008C7020008C70200083C
:10008000C7020008C7020008C7020008C70200082C
:10009000C7020008C7020008C7020008C70200081C
:1000A000C7020008C7020008C7020008C70200080C
:1000B000C7020008C7020008C7020008C7020008FC
:1000C000C7020008C7020008C7020008C7020008EC
:1000D000C702000869560008C7020008C7020008E6
:1000E000C7020008C702000800000000C70200089D
:1000F000C7020008C7020008C7020008C7020008BC
:10010000C7020008C7020008C7020008C7020008AB
:10011000C7020008C7020008C7020008C70200089B
:10012000C7020008C7020008C7020008C70200088B
:10013000C7020008C7020008C7020008C70200087B
:1001400000000000000000000000000000000000AF
:10015000C7020008C7020008C7020008C70200085B
:10016000C7020008C7020008C7020008C70200084B
:10017000C7020008C7020008C7020008C70200083B
:10018000C7020008C7020008C7020008C70200082B
:10019000C7020008C7020008C7020008C70200081B
:1001A000C7020008C7020008C7020008C70200080B
:1001B000C7020008C7020008C7020008C7020008FB
:1001C000C7020008C7020008C7020008C7020008EB
:1001D000C7020008C7020008C7020008C7020008DB
:1001E000C7020008C7020008C7020008C7020008CB
:1001F000C7020008C7020008C7020008C7020008BB
:10020000C7020008C7020008C7020008C7020008AA
:10021000C7020008C7020008C7020008C70200089A
:10022000C7020008C7020008C7020008000000005B
:10023000C7020008C702000800000000C70200084B
:10024000C7020008C7020008C7020008C70200086A
:10025000C7020008C7020008C7020008C70200085A
:10026000C7020008C7020008C7020008C70200084A
:10027000C7020008C7020008C7020008000000000B
:10028000C702000800000000C702000800000000CC
:1002900000000000C7020008DFF80CD000F048FAA8
:1002A000004800473D600008F00C002406488047E5
:1002B00006480047FEE7FEE7FEE7FEE7FEE7FEE74B
:1002C000FEE7FEE7FEE7FEE7ED4B000899020008B7
:1002D0002DE9F05F0546002092469B46884606467B
:1002E000814640241BE0284641464746224600F00E
:1002F00057F853465A46C01A914110D31146184632
:10030000224600F03EF82D1A67EB01084F462246C0
:100310000120002100F035F817EB00094E41201EA6
:10032000A4F10104DFDC484631462A464346BDE8D5
:10033000F09F40EA01039B0703D009E008C9121FA0
:1003400008C0042AFAD203E011F8013B00F8013B8F
:10035000521EF9D2704730B50B46014600202022CC
:10036000012409E021FA02F59D4205D303FA02F5C2
:10037000491B04FA02F52844151EA2F10102F1DC22
:1003800030BD202A04DB203A00FA02F10020704739
:100390009140C2F1200320FA03F3194390407047C3
:1003A000202A04DB203A21FA02F00021704721FACA
:1003B00002F3D040C2F12002914008431946704731
:1003C0002DE9FE4F804681EA0300C00F0C460090E5
:1003D00021F0004123F00045B8EB0200A94105D20D
:1003E0004046214690461C460B46024623F00040FC
:1003F000104347D0270DC7F30A00C3F30A510290F8
:10040000401A019040286BDAC3F3130040F4801BBC
:100410000098924620B10023D2EB030A63EB0B0B4A
:1004200001985946C0F140025046FFF7AAFF064620
:100430000D4650465946019A00F08CF910EB080021
:100440006141002487EA115284EAE7731A4340D0DD
:10045000009A62B3019A012A4FEA075215DC001B89
:1004600061EB02014FF0004202EA0752CDE900427F
:10047000001C41F5801132462B4600F08CF903B088
:10048000BDE8F08F40462146F9E7001B61EB020111
:10049000001C41F5801300185B412018A2F50017DD
:1004A00047EB030140EAD570B6196D4111E06D08C4
:1004B0004FEA360645EAC0754FEA0752001B61EB6A
:1004C0000201001C41F5801149084FEA3000001973
:1004D000514132462B4603B0BDE8F04F00F04CB915
:1004E0000098012240000023D0EB020263EBE0738E
:1004F000009821464FEAE074B8EB000061EB04017C
:10050000E9E783F000435BE781F0004158E72DE91C
:10051000FE4F81EA030404F0004421F000410094FE
:100520004FF0000B23F0004350EA01045ED052EA82
:1005300003045BD0C3F30A54C1F30A552C44A4F25C
:10054000F3340194A0FB0254C1F3130141F4801170
:10055000C3F3130343F4801301FB024400FB034E77
:10056000840A970A44EA815447EA8357A4FB076840
:1005700002958D0A05FB07854FEA932C04FB0C546A
:100580002705029D4FEA065847EA1637B5EB0805DE
:100590006EEB070C870E920E47EA811742EA831230
:1005A000A7FB0201B6EB0B0164EB00042B0D43EA41
:1005B0000C335E1844EB1C50DA465146E7FB02014F
:1005C000C5F313044FEA0B3343EA14534FEA0432E2
:1005D000019C43EA0603A4F10C040294009CCDE9BB
:1005E00000B400F0D8F803B0BDE8F08F0020014659
:1005F000F9E72DE9F04D81EA030404F0004B21F006
:10060000004514464FF0000A23F0004150EA05026D
:1006100020D054EA01021DD0C5F30A570246C5F3A3
:100620001303C1F31300C1F30A5640F4801543F4D9
:100630008013A7EB0608101BD64608F2FD3873EBB3
:10064000050002D308F1010801E092185B41B8F1FE
:10065000000F03DA00200146BDE8F08D00204FF4C2
:100660008011064684460EE0171B73EB050705D381
:10067000121B63EB050306434CEA010C49084FEAE1
:10068000300092185B4150EA0107EDD152EA0300B5
:1006900012D082EA040083EA0501084305D0101B4A
:1006A000AB4106D20122002306E000224FF00043B6
:1006B00002E06FF0010253101AEB06004CEB0851F8
:1006C00010EB0A0041EB0B01BDE8F04D00F054B80F
:1006D000C1F30A52C1F3130140F2FF3341F4801118
:1006E0009A4202DA00200146704740F233439A42B0
:1006F000A2F2334202DC5242FFF752BEFFF741BE84
:1007000030B5041E71F1000404DB4FF00044404298
:1007100064EB0101141E73F1000405DB1C464FF06D
:100720000043524263EB0403994208BF904230BD3C
:10073000064C074D06E0E06840F0010394E807002E
:1007400098471034AC42F6D3FFF7AAFD3484000872
:1007500054840008202A06DBCB17203A41FA02F025
:1007600043EAE07306E041FA02F3D040C2F120020E
:10077000914008431946704710B5141E73F10004E8
:1007800008DA401C41F1000192185B411A4301D183
:1007900020F0010010BD2DE9F04D92469B4611B1AD
:1007A000B1FA81F202E0B0FA80F220329046FFF70F
:1007B000E8FD04460F4640EA0A0041EA0B015346B1
:1007C0005A46084313D0114653EA010019D0C8F124
:1007D00040025046FFF7E4FD05460E465046594696
:1007E0004246FFF7CEFD084305D0012004E0204635
:1007F0003946BDE8F08D0020054346EAE0762C43FB
:1008000037430A986305E40AA0EB08000022FD0ABA
:1008100044EA47540A3002D500200146E9E70105C1
:1008200010196941DDE9084500196941BDE8F04D3D
:10083000A2E770B504462068816801F00301012930
:100840002FD10168C9072CD0816801F00D01012961
:1008500009D0606D40F010006065A06D40F00100AF
:10086000A065012070BD816841F0020181602168AE
:100870000320086001F01CFB05460EE001F018FBA8
:10088000401B022809D9606D40F010006065A06D22
:1008900040F00100A065012070BD20688068C0079D
:1008A000ECD1002070BD000070B50446206881685E
:1008B00001F00301012902D10168C9072DD1816826
:1008C000174A114209D0606D40F010006065A06DBC
:1008D00040F00100A065012070BD816841F0010178
:1008E000816001F0E5FA054612E0816841F00101FE
:1008F000816001F0DDFA401B022809D9606D40F0EB
:1009000010006065A06D40F00100A065012070BD81
:1009100020680168C943C907E7D1002070BD000005
:100920003F000080FEE70000F0B5BFF34F8FBFF33C
:100930006F8F1E4900200860BFF34F8FBFF36F8F8A
:100940001B4E316841F400313160BFF34F8FBFF36C
:100950006F8F174970310860BFF34F8F081F006811
:10096000C0F34E31114A43F6FF771032C0F3C90588
:10097000284607EA411343EA80741460401E441C71
:10098000F9D1491E481CF3D1BFF34F8F306840F4B2
:1009900080303060BFF34F8FBFF36F8F03484C3010
:1009A000016841F004010160F0BD000050EF00E07B
:1009B00014ED00E02DE9F0438146884615461E46B9
:1009C00000240B4F04EB041117F81100A84209D1C1
:1009D00007EB41014878B04204D1891C42464846A1
:1009E00000F02AF8641CA4B2382CEBD3BDE8F083E5
:1009F000787900082DE9F0438146884615461E4661
:100A000000240C4F04EB840000EB441017F8101086
:100A1000A94209D107EB40014878B04204D1891CB2
:100A20004246484600F008F8641CA4B2092CE9D3F9
:100A3000BDE8F0834E81000810B5002304E011F8F2
:100A4000014B00F8014B5B1C9342F8D310BD70477B
:100A5000F0B585B014461D460A4B1A88121A92B298
:100A60005B885B1A9BB2084F4FF0100C00263F8842
:100A7000CDE9005CCDE90376029400F0D3F905B02E
:100A8000F0BD0000DC020024220000242DE9FF411B
:100A900014461D46084B1A88121A92B25B885B1ADC
:100AA0009BB200261027CDE90246CDE9005703F09E
:100AB000E9FFBDE8FF810000DC0200242DE9FF41D1
:100AC00014461D46084B1A88121A92B25B885B1AAC
:100AD0009BB200261827CDE90246CDE9005703F066
:100AE000D1FFBDE8FF810000DC0200242DE9F041C8
:100AF00005460C461646DFF858800122404617038B
:100B0000394601F0CFF9052000F0EBF9032003F09E
:100B1000A3FEC4F3074003F09FFEC4F3072003F0D5
:100B20009BFEE0B203F098FE002405E0FF2003F0F6
:100B300093FE2855641CA4B2B442F7D30022394670
:100B4000404601F0AFF9BDE8F041052000F0C9B919
:100B50000004025830B404460D4610461A46217867
:100B600020281DD009DC0C2812D0102814D01828F9
:100B70001ED1104801FB020106E0302814D04028A5
:100B800016D10D4801FB0201284630BCFFF7AEBF6D
:100B9000514301F50021F7E7084801FB0201F3E7A3
:100BA000074801FB0201EFE7064801FB0201EBE702
:100BB00030BC7047001208000092080000080800CE
:100BC000002608000048080030B4054608462C7886
:100BD0006978812C0AD3402908D3FF2906D0FF2C3D
:100BE00004D07F290DD24039CDB20CE00021002283
:100BF00003E000F8012B491C89B29942F9D330BCBB
:100C000070474139CDB2813CE1B2C1EB411404EBF4
:100C1000811105EB410159430C2A0BD0102A0CD04D
:100C2000182A0DD0202AEAD101F560111A4630BCED
:100C3000FFF75CBF044A1144F8E7044A1144F5E7A2
:100C400001F5ED11F2E700000014090000DD1100CC
:100C5000AFF3008070B586B04FF6FF7003F0B2F9C5
:100C600000206D4600242C54401CC0B21828FAD332
:100C7000112268460021FFF739FF10216B464FF41F
:100C8000784608463246FFF7E3FE00202C54401C0D
:100C9000C0B21828FAD3082268461421FFF726FFAD
:100CA00020216B4610203246FFF7D2FE00202C5444
:100CB000401CC0B21828FAD3082268461E21FFF74C
:100CC00015FF30216B4610203246FFF7C1FE4FF46E
:100CD000FA6005F089F906B070BD2DE9F04FC1B09A
:100CE00082460D4616461C46A946600701D00120E3
:100CF00000E0002000EBD40B60080BFB00FB0C2C89
:100D000009D0102C07D0182C05D0202C03D0302C63
:100D100001D0402C33D101A95B4622463046FFF773
:100D200019FF4FF0000828E001A810F8087000260D
:100D3000380605D54A9A2946504603F0ADF906E033
:100D40004C9820B94B9A2946504603F0A5F97806ED
:100D5000070E6D1CADB2A5EB0900A04205D14D46B2
:100D60000AF1010A1FFA8AFA03E0761CB6B2082ECD
:100D7000DED308F101081FFA88F8D845D4D341B072
:100D8000BDE8F08F2DE9F04FA1B082460C46154624
:100D90001F46A146780701D0012000E0002000EBAB
:100DA000D70B0BFB07FB0C2F05D0102F03D0182FF0
:100DB00001D0202F33D101A95B463A462846FFF7E0
:100DC00003FF4FF0000828E001A810F80860002594
:100DD000300605D52A9A2146504603F05DF906E013
:100DE0002C9820B92B9A2146504603F055F97006ED
:100DF000060E641CA4B2A4EB0900B84205D14C460F
:100E00000AF1010A1FFA8AFA03E06D1CEDB2082DFF
:100E1000DED308F1010808F0FF08D845D4D321B08B
:100E2000BDE8F08F2DE9FF4F83B004460E46934690
:100E3000DDE91075A046B2464FF0000920E0B9F197
:100E4000000F23D04FF0000908EB0B00401BA0421D
:100E500002DA701986B2444606985044401BB042EC
:100E600011DBDDE9121214982B4602902046CDE9E1
:100E700000123A463146FFF785FFBF1C601984B265
:100E800038780028DBD107B0BDE8F08F802802D980
:100E90004FF00109F4E708EB0B01A1EB5501A1426A
:100EA00002DA71198EB2444606995144491BB14287
:100EB000E9DB0D2810D0DDE9121214982B460290C0
:100EC0002046CDE900123A463146FFF706FF7F1C67
:100ED00004EB550084B2D3E7701986B244467F1CF8
:100EE000F5E7002206E00021491CC9B26429FBD3C2
:100EF000521CD2B28242F6D370470FB400B587B00D
:100F0000219800900120019007200290002003907A
:100F10000490059008A8694600F0FCF808A800F0C5
:100F2000F3FD0A2108A800F04DFD08A800F0CEFB53
:100F300007B080B25DF814FB0FB42DE9F041B0B0FA
:100F40004F9F509E002500240DF16C081CE0542298
:100F500036A917A8FFF7EDF94B982C904C982D90D7
:100F60004D984E9954221597CDE92E014146684679
:100F7000FFF7DFF917A80FC8FFF7BFFF05440520EB
:100F800005F032F8641CE4B2B442E0D3B5FBF6F0ED
:100F900030B0BDE8F00180B25DF814FB30B4054616
:100FA0000846144619462A786B78812A0FD3402BBD
:100FB0000DD3FF2B0BD0FF2A09D00C2910D01029FC
:100FC00010D018290CD1214630BCFFF713BD0021E9
:100FD000002203E000F8012B491CC9B2A142F9D359
:100FE00030BC7047214630BCFFF7E4BC10B52DED96
:100FF000028BB0B01B4804881A4820300088DFED0F
:101000001A0A001B00EE100AB8EEC00A80EE808AB1
:101010001649542217A8FFF78CF91448416D2C91FA
:10102000806D2D9011481C30016C406C5422CDE92C
:101030002E100A201221CDE915101BA96846FFF7D2
:1010400078F917A80FC8FFF777FF001B00EE100A0A
:10105000F8EE400AB3EE0E0A08EE200A30B0BDECFE
:10106000028B10BD20E8F11F0000A042F001002417
:101070002DE9F04104460F469046002594F85000B3
:10108000012811D0012084F850002046FFF7D1FB41
:101090000346002653B1606D40F01000606584F88F
:1010A00050601846BDE8F0810220FBE7606D20F437
:1010B000885040F0020060652068816821F080411E
:1010C00041EA080181602068816821F48031394358
:1010D00081602068816841F00041816020684FF4A0
:1010E0007A420CE06D1C954209D3606D20F002003D
:1010F00040F01000606584F850600120D2E78168FC
:101100000029EFDB606D20F0020040F00100606517
:10111000C5E700002DE9F84F0024A346CDF800B044
:10112000DFF8F893FE4DCA6890F85020012A2CD0C1
:101130004FF0010C80F850C0026893685B077DD4C3
:10114000D6690B780CFA03F31E43D6614A681F2751
:101150004FF4F866052A1BD20368D3F8308096FA5C
:10116000A6FA96FAA6F6BAFA8AFAB6FA86F602FB52
:101170000AFA07FA0AF7724328EA07080F68974045
:1011800048EA0708C3F8308053E00220BDE8F88F32
:101190000A2A19D20368D3F8348096FAA6FA521FA5
:1011A000BAFA8AFA96FAA6F602FB0AFAB6FA86F6AE
:1011B00007FA0AF7724328EA07080F68974048EAD7
:1011C0000708C3F8348034E00F2A19D20368D3F833
:1011D000388096FAA6FA0A3ABAFA8AFA96FAA6F67F
:1011E00002FB0AFAB6FA86F607FA0AF7724328EA09
:1011F00007080F68974048EA0708C3F8388018E0E6
:101200000368D3F83C8096FAA6FA0F3ABAFA8AFA3B
:1012100096FAA6F602FB0AFAB6FA86F607FA0AF773
:10122000724328EA07080F68974048EA0708C3F89E
:101230003C800268936813F00C0F00E033E24FF03B
:1012400038064FF007077DD10B680A2B1BD3D2F865
:10125000188096FAA6FA0A3BBAFA8AFA96FAA6FE15
:1012600003FB0AFABEFA8EFE07FA0AFA03FB0EF334
:1012700028EA0A08D1F808A00AFA03FA48EA0A0894
:10128000C2F8188019E0D2F8148096FAA6FA96FAF5
:10129000A6FEBAFA8AFABEFA8EFE03FB0AFA03FB2E
:1012A0000EF307FA0AFA28EA0A08D1F808A00AFA9F
:1012B00003FA48EA0A08C2F8148002684B69D2F8B7
:1012C0000C80C8F382084FEA480803FA08F3D1F803
:1012D00010804FF0F84AB8F1010F55D0B8F1020F65
:1012E0007ED0B8F1030F73D0B8F1040F71D0136E34
:1012F0009AFAAAFED1F80080BEFA8EFE03F0F843F7
:1013000008FA0EF8434503D1136E23F00043136629
:101310000268536E9AFAAAFE03F0F8480B68BEFA08
:101320008EFE03FA0EF3984503D1536E23F000436B
:1013300053660268936E9AFAAAFE03F0F848BEFA62
:101340008EFE00E019E00B6803FA0EF3984503D116
:10135000936E23F0004393660268D36E9AFAAAFA5A
:1013600003F0F8480B68BAFA8AFA03FA0AF39845C8
:1013700003D1D36E23F00043D3660268936803F071
:101380000303012B78D1A7E0D2F860809AFAAAFA79
:10139000D1F800E0BAFA8AFA08F000480EFA0AFE1C
:1013A0004EEA030E48EA0E08C2F86080026813692C
:1013B00091F8188023F4006343EA080313614A7E1E
:1013C00042B10268136E43F000431366D5E707E0AD
:1013D0002FE058E00268136E23F000431366CCE759
:1013E000D2F864809AFAAAFA08F0004ED1F8008088
:1013F000BAFA8AFA08FA0AF848EA03084EEA080E26
:10140000C2F864E00268136991F8188023F48053ED
:1014100043EA480313614A7E2AB10268536E43F0DF
:1014200000435366A9E70268536E23F000435366F6
:10143000A3E7D2F868809AFAAAFA08F0004ED1F829
:101440000080BAFA8AFA08FA0AF848EA03084EEA6B
:10145000080EC2F868E00268136991F8188023F456
:10146000005343EA880313614A7E32B10268936EE7
:1014700043F00043936680E731E00268936E23F007
:101480000043936679E7D2F86C809AFAAAFA08F0DA
:10149000004ED1F80080BAFA8AFA08FA0AF848EA47
:1014A00003084EEA080EC2F86CE00268136991F86E
:1014B000188023F4804343EAC80313614A7E2AB1AB
:1014C0000268D36E43F00043D36656E70268D36EDA
:1014D00023F00043D36650E71368DB077ED1CB6867
:1014E000B3F1804F08D052F8C03F0E780CFA06FCDA
:1014F00023EA0C03136044E052F8C03F91F80080E7
:101500000CFA08FC43EA0C0313600A68092A1FD38B
:101510000368D3F818C0093A04E000000020024034
:101520000060025896FAA6F896FAA6F6B8FA88F875
:10153000B6FA86F602FB08F807FA08F772432CEAB7
:10154000070C8F6897404CEA070CC3F818C018E0E6
:101550000368D3F814C096FAA6F8521CB8FA88F8B3
:1015600096FAA6F602FB08F8B6FA86F607FA08F726
:1015700072432CEA070C8F6897404CEA070CC3F8BB
:1015800014C003684C4E4B4501D0B34201D14B4AC5
:1015900000E04B4A0968122902D197683F0209D539
:1015A000112902D19768FF0104D5132916D1976834
:1015B0007F027DD49F6807F00307012F02D11F68C7
:1015C000FF073FD14B4514D1D9F8086106F0030657
:1015D000012E05D1D9F80061F60700E062E031D1B3
:1015E000AE6806F00306012E32D12E68F60729D127
:1015F0002EE0B34212D1D9F8086006F00306012E9E
:1016000003D1D9F80060F6071CD1AE6806F00306D6
:10161000012E0DD12E68F60714D109E0D9F8086023
:1016200006F00306012E03D1D9F80060F60709D1B0
:10163000D9F8086106F00306012E09D1D9F8006136
:10164000F60705D0416D41F02001416501242FE0EE
:10165000122916D1AB4214D1916841F40001916076
:101660001849194A0968B1FBF2F1C1EB0111C9002F
:10167000009102E00099491E009100990029F9D1DA
:1016800016E0112906D1AB4204D1916841F0807176
:1016900091600DE013290BD1AB4209D1916841F45F
:1016A0008001916004E0416D41F020014165012419
:1016B00080F850B0204669E5002102400023024036
:1016C000006302580400002480841E000068006C3F
:1016D00070470000F8B50446002500260096002C4F
:1016E00002D0606D10B107E00120F8BD204600F087
:1016F00033F9A66584F8506020688168890003D5B5
:10170000816821F00051816020688168C90013D48C
:10171000816841F080518160864887490068B0FB4C
:10172000F1F000EB80004000009002E00098401EC5
:10173000009000980028F9D120688168C90008D479
:10174000616D41F010016165A16D41F00101A1657C
:101750000125616DC9067DD481684907FBD4616D9F
:1017600041F002016165754A754E904201D0B04268
:1017700001D1744900E07449836803F00303012B2D
:1017800002D10368DB0740D1704B904212D1D2F8EE
:10179000080100F00300012803D1D2F80001C007BE
:1017A00033D1986800F00300012828D11868C007D9
:1017B0002BD124E0B04210D1906800F00300012842
:1017C00002D11068C00720D1986800F003000128FA
:1017D0000BD11868C00718D107E0906800F003002B
:1017E000012802D11068C0070FD1D2F8080100F01B
:1017F0000300012803D1D2F80001C00705D1886891
:10180000626820F47C1010438860A1684FF4803334
:10181000206B627D93FAA3F308434FF40051B3FAAF
:1018200083F391FAA1F1B1FA81F18A40217F01FAA3
:1018300003F31A431043012909D14FF46022216AAE
:1018400092FAA2F2491EB2FA82F291400843616A0A
:10185000012900E067E003D0A26A0AB111430843FE
:101860002168CA683A4B1A400243CA6020688168FE
:1018700011F00C0F28D14FF48042217D92FAA2F290
:10188000B2FA82F29140E26A1143C26844F2030361
:101890009A430A43C26094F83900012823D0206893
:1018A000016921F00101016120680169626B21F089
:1018B00070411143016194F83800012824D0206858
:1018C000816821F480718160E068012822D020685D
:1018D000016B21F00F010163606D20F0020040F008
:1018E0000100606524E0D4E91010A28F01230143B8
:1018F000A06C03EB02421043014320680269154BC0
:101900001A4011430161CFE72068816841F480717A
:101910008160D9E72068016BA26921F00F01521E96
:1019200011430163D8E7606D40F010006065012548
:101930002846F8BD0400002480841E0000200240D8
:101940000021024000230240006302580060025858
:1019500003C0F0FF1EF800FC00B5B5B017480168E1
:1019600041F020010160006800F020000090134861
:101970000830016841F080710160016801F08071F8
:101980000091016841F001010160006800F0010070
:1019900000904FF4002001908010299001A800F0E1
:1019A000C9FC202030900320319000203290044860
:1019B00030A900F07DF935B000BD0000D8440258D0
:1019C000000002582DE9F04704460D460127DFF8D4
:1019D00028812069082821D02068404502D0474945
:1019E00088421DD1D8F80813C90619D0D8F80813B1
:1019F00001F01F01052913D0D8F8081301F01F01C9
:101A000009290DD03E488168C1F38131022911D0E6
:101A10008068C0F3813003280CD011E0082610E064
:101A2000C068C0070CD0606D40F0200060650120E8
:101A3000BDE8F087606D40F0200060650120F7E7A9
:101A4000042600F035FA814611E0681C0FD02DB154
:101A500000F02EFAA0EB0900A84208D9606D40F012
:101A600004006065002084F850000320E0E720684F
:101A700000683042E9D020680168090700D40027D7
:101A8000404525D01F49884222D0D8F80813C906FE
:101A90001ED0D8F8081301F01F01052918D0D8F876
:101AA000081301F01F01092912D0D8F80C10082ED4
:101AB00010D04A0401D404220260606D40F400702A
:101AC0006065BFB12068C06810F4406F05D011E0B8
:101AD000C168ECE708220260EFE788040AD4606D71
:101AE00020F480706065606DC00403D4606D40F0C8
:101AF0000100606500209BE70020024000210240B9
:101B0000002302400060025870B5044620688068D7
:101B1000400768D494F8500001280BD0012084F8C5
:101B200050002046FEF7C0FE0146002221B184F895
:101B3000502059E0022070BD606DC00404D5A06D36
:101B400020F00600A06500E0A265606D40F601632C
:101B5000984340F480706065244B2068984206D01A
:101B6000234DA84203D0D3F80853ED0603D1656D89
:101B700025F4801565651C2505602068984222D0F3
:101B80001C4DA8421FD0D3F80853ED061BD0D3F844
:101B9000085305F01F05052D15D0D3F8085305F09F
:101BA0001F05092D0FD0606D40F480106065D86866
:101BB000800105D5606D20F4005040F480506065D0
:101BC00084F8502010E0C3689B0105D5636D23F4B1
:101BD000005343F48053636584F85020826842F0D8
:101BE0000402826000E00221084670BD002002402D
:101BF000002102400060025810B5002807D090F87C
:101C00003510022905D080214165012010BD012039
:101C100010BD214A4FF4956401688B18A34207D880
:101C2000042280F83520086820F00100086030E0C8
:101C30000B6823F00E030B6001680A44A24204D82B
:101C40000A6822F001020A6003E00A6822F0010239
:101C50000A60016E0A6822F480720A6090F85C10D3
:101C6000012404FA01F20D490A60D0E919215160FA
:101C7000C16E31B10A6822F480730B60D0E91C2177
:101C80005160002180F8341080F83540016D01B1B9
:101C90008847002010BD0000F0FFFDBF045402582B
:101CA0000248016841F001010160704720040058BA
:101CB0002DE9F84F00226D4C4FF0B04A4FF001096A
:101CC0004FF0030E4FF00F0809FA02F70B683B4084
:101CD000BB4270D14D68022D01D0122D12D1D50812
:101CE00000EB850CDCF820605507ED0E08FA05FBCB
:101CF00026EA0B06D1F810B00BFA05FB4BEA060BEF
:101D0000CCF820B0D0F800C055000EFA05F62CEA49
:101D1000060C91F804B00BF0030B0BFA05FB4BEA31
:101D20000C0BC0F800B0D1F804C0BCF1010F08D012
:101D3000BCF1020F05D0BCF1110F02D0BCF1120FA3
:101D400016D1D0F808C02CEA060CD1F80CB00BFA6A
:101D500005FB4BEA0C0BC0F808B0D0F804C02CEA25
:101D6000070C0F79C7F30017974047EA0C07476045
:101D7000C768B7438E68AE403E43C6604D68ED000D
:101D80006DD53B4D2E6846F002062E602D6805F09D
:101D90000205009522F0030606F1B046D6F808C405
:101DA00095072F0F08FA07F52CEA050C314DA842CC
:101DB00002D100252EE052E02F4DA84201D101258D
:101DC00028E02E4DA84201D1022523E02C4DA84247
:101DD00001D103251EE02B4DA84201D1042519E0B5
:101DE000294DA84201D1052514E0284DA84201D172
:101DF00006250FE0264DA84201D107250AE0254D12
:101E0000A84201D1082505E0234DA84201D10925AA
:101E100000E00A25BD4045EA0C05C6F808542568CF
:101E20009D434E68F60300D51D43256065689D43BC
:101E30004E68B60300D51D436560DAF800509D4337
:101E40004E68F60200D51D43CAF80050DAF8045077
:101E50009D434E68B60200D51D43CAF80450521C7B
:101E6000102AFFF431AFBDE8F88F00008000005861
:101E7000F4440258000002580004025800080258B6
:101E8000000C0258001002580014025800180258A2
:101E9000001C0258002002580024025842694A409F
:101EA00042617047002A01D0018370474183704727
:101EB00001488068704700001400002402488168CF
:101EC00002781144816070471400002410B503208B
:101ED00000F05AF80F2000F007F808B1012010BDFB
:101EE00000F024F8002010BD70B504460D4D4FF4ED
:101EF0007A712878B1FBF0F00B490968B1FBF0F07A
:101F000001F04AFE08B1012070BD102C07D200225A
:101F10002146501E00F018F86C60002070BD0120B2
:101F200070BD000014000024040000247047002845
:101F300009DB012100F01F0291404009800000F1FF
:101F4000E020C0F800117047F0B40D460D4B1B683F
:101F5000C3F30223C3F10704042C00D90424191D80
:101F6000072901D2002300E0DB1E012606FA04F156
:101F7000491E294099409E40761E16403143F0BCD0
:101F800003F0AABB0CED00E000F00701054A106861
:101F90004FF6FF03184040EA012003490843106050
:101FA000704700000CED00E00000FA0510B500F0ED
:101FB00083FF084909684FF4807292FAA2F201F493
:101FC0007061B2FA82F2D140034A515CC8400349C1
:101FD000086010BD184402589061000804000024F5
:101FE00010B500F023FF07490968102292FAA2F207
:101FF00001F07001B2FA82F2D140034A515CC8404C
:1020000010BD0000204402589061000830B55F49BF
:102010000A6802F003020968C1F305315B4B1B1D1E
:102020001B6803F01003594C14342468C4F3CC0427
:1020300014FB03F300EE103AB8EE400ADFED540A49
:10204000524BB7EE001A1033002A42D0514C012AED
:1020500073D0022A70D0B4FBF1F101EE901A196826
:10206000B8EE612AC1F3080101EE901AF8EE611A88
:1020700040EE201A31EE810A22EE000A1968C1F3FF
:102080004621491C00EE901AF8EE600A80EE201AF4
:10209000FCEEC10AC0ED000A1968C1F30641491CF3
:1020A00000EE901AF8EE600A80EE201AFCEEC10AEB
:1020B000C0ED010A1968C1F30661491C00EE901ACF
:1020C000F8EE600A80EE201ABCEEC10A80ED020A2A
:1020D00030BD2E4C283C226895062F4A17D524681F
:1020E000C4F3C104E240B2FBF1F101EE901A1968A9
:1020F000B8EE612AC1F3080101EE901AF8EE611AF8
:1021000040EE201A31EE810A22EE000AB6E7B2FB59
:10211000F1F101EE901A1968B8EE612AC1F30801D5
:1021200001EE901AF8EE611A40EE201A31EE810AA3
:1021300022EE000AA2E700E013E0B4FBF1F101EEA9
:10214000901A1968B8EE612AC1F3080101EE901ADD
:10215000F8EE611A40EE201A31EE810A22EE000AF2
:102160008CE70E4AB2FBF1F101EE901A1968B8EE55
:10217000612AC1F3080101EE901AF8EE611A40EEEF
:10218000201A31EE810A22EE000A77E7284402582D
:102190000000003900093D000090D00340787D0127
:1021A00030B55F490A6802F003020968C1F30551BE
:1021B0005B4B1B1D1B6803F48073594C1C34246853
:1021C000C4F3CC0414FB03F300EE103AB8EE400A5B
:1021D000DFED540A524BB7EE001A1833002A42D0F2
:1021E000514C012A73D0022A70D0B4FBF1F101EEF8
:1021F000901A1968B8EE612AC1F3080101EE901A2D
:10220000F8EE611A40EE201A31EE810A22EE000A41
:102210001968C1F34621491C00EE901AF8EE600AD5
:1022200080EE201AFCEEC10AC0ED000A1968C1F365
:102230000641491C00EE901AF8EE600A80EE201A62
:10224000FCEEC10AC0ED010A1968C1F30661491C20
:1022500000EE901AF8EE600A80EE201ABCEEC10A79
:1022600080ED020A30BD2E4C283C226895062F4A8C
:1022700017D52468C4F3C104E240B2FBF1F101EECA
:10228000901A1968B8EE612AC1F3080101EE901A9C
:10229000F8EE611A40EE201A31EE810A22EE000AB1
:1022A000B6E7B2FBF1F101EE901A1968B8EE612AB7
:1022B000C1F3080101EE901AF8EE611A40EE201AFF
:1022C00031EE810A22EE000AA2E700E013E0B4FB3F
:1022D000F1F101EE901A1968B8EE612AC1F3080114
:1022E00001EE901AF8EE611A40EE201A31EE810AE2
:1022F00022EE000A8CE70E4AB2FBF1F101EE901AD1
:102300001968B8EE612AC1F3080101EE901AF8EEDF
:10231000611A40EE201A31EE810A22EE000A77E7B8
:10232000284402580000003900093D000090D00305
:1023300040787D012DE9F84F044600250026FB4F2B
:102340002068DFF8EC83010104F1240000900DD532
:10235000606EB0B1B0F5801F18D0B0F5001F1BD073
:10236000B0F5401F00D00125E5B12E462088C005FC
:1023700035D5606D05282FD2DFE800F01D22282F0B
:102380002F00386840F400303860EDE70221201D4E
:1023900002F036F90546E7E70098022102F0B0F9AD
:1023A0000546E1E7D8F80000616E20F440100843CC
:1023B000C8F80000DAE7386840F4003038600CE014
:1023C0000021201D02F01CF9054606E000980021BE
:1023D00002F096F9054600E001255DB12E43208804
:1023E000800518D5A06D802830D00CDC18B34028AB
:1023F0000ED125E0D8F80000616D20F007000843F9
:10240000C8F80000EBE7C02803D0B0F5807F00D00B
:1024100001250DB32E432088DFF8189340052DD5F4
:10242000D4F8A400B0F5800F42D01EDCA0B3B0F504
:10243000001F20D136E0386840F400303860E8E70B
:102440000021201D02F0DCF80546E2E7009800219B
:1024500002F056F90546DCE7D8F80000A16D20F43B
:10246000E0700843C8F80000D5E7B0F5C00F03D00E
:10247000B0F5000F00D0012505B32E4320880005DC
:102480002FD5D4F8A800B0F1007F52D020DCE8B3FB
:10249000B0F1807F22D146E0FFE7386840F4003099
:1024A0003860E9E70021201D02F0AAF80546E3E7BD
:1024B0000098002102F024F90546DDE7D9F8000074
:1024C000D4F8A41020F460000843C9F80000D5E750
:1024D000B0F1407F03D0B0F1806F00D0012575B31B
:1024E0002E43206880010AD5A06C30B1102831D06D
:1024F000202835D0302800D0012585B32E432088F0
:10250000C00446D5E06DB0F5005F00E006E05BD0AA
:1025100036DCA0B3B0F5805F38D14FE0386840F4C6
:1025200000303860DBE70021201D02F069F8054625
:10253000D5E70098002102F0E3F80546CFE7FFE772
:10254000D9F80000D4F8A81020F0E0600843C9F8DA
:102550000000C6E7386840F400303860CDE705E099
:102560000221201D02F04CF80546C6E77048001F06
:102570000168A26C21F0300111430160BFE718E04F
:10258000B0F5405F03D0B0F5804F00D001250DB30A
:102590002E43208880042FD5206EB0F5403F29D0EF
:1025A00021DC38B3B0F5803F37D0B0F5003F20D103
:1025B00039E0386840F400303860E8E70021201D39
:1025C00002F01EF80546E2E70098002102F098F8B4
:1025D0000546DCE7D8F80000E16D20F4E040084350
:1025E000C8F80000D5E7B0F5802F03D0B0F5A02FD4
:1025F00000D00125EDB12E43208840042BD5D4F81E
:10260000AC00B0F1405F24D01CDC10B3B0F1805FAF
:102610004BD0B0F1005F1BD14EE00121201D01F035
:10262000EFFF0546E6E70098012102F069F805464C
:10263000E0E7D8F80000216E20F4E0200843C8F855
:102640000000D9E7B0F1804F03D0B0F1A04F00D027
:10265000012585B32E43208800040AD5E06E30B1F1
:10266000B0F1805F39D0B0F1005F3BD001259DB360
:102670002E432068C0010AD5606C30B1012841D0DA
:10268000022844D0032800D001258DB32E432068B2
:10269000DFF8A4B0400261D52848016841F4807198
:1026A0000160FFF705FC824652E00121201D01F088
:1026B000A7FF0546CDE705E00098012102F020F8CC
:1026C0000546C6E7D9F80000D4F8AC1020F0E04089
:1026D0000843C9F80000BEE70BE0386840F400305A
:1026E0003860C4E70121201D01F08AFF0546BEE7DE
:1026F00013E0D8F80000E16E20F040500843C8F81D
:102700000000B6E7386840F400303860BDE70221C9
:10271000201D01F075FF0546B7E70548001F016859
:10272000626C21F0030111430160B0E72C440258B0
:102730005044025858440258104402580048025865
:10274000FFF7B6FBA0EB0A00642801D9032503E0DC
:10275000FE480068C005F3D57DB12E432078DFF830
:10276000F0A3C00766D0A06F182861D05BDC80B3EF
:1027700008286AD010285AD16DE0F5481C3000684E
:10278000B4F8B01000F4407001F4407188420DD0EC
:10279000EF481C30016821F44071026842F4803235
:1027A0000260026822F4803202600160D4F8B00056
:1027B000B0F5807F13D1FFF77BFB82460AE0FFF77D
:1027C00077FBA0EB0A0141F28830814202D9032550
:1027D00005E02DE0DE481C3000688007EFD50DB124
:1027E0002E43BBE7D4F8B000C0F3012103290FD07A
:1027F000DBF8000020F47C50CBF80000D4481C30FB
:102800000168B4F8B020C2F30B0211430160A5E7E0
:10281000DBF80010CF4A21F47C51104041EA10103F
:10282000CBF80000EAE7202802D0282800D00125B4
:10283000BDB12E43207880072BD5606F062825D2A6
:10284000DFE800F025181E2525250121201D01F0B7
:10285000D7FE0546ECE70098012101F051FF05463F
:10286000E6E7DAF80000A16F20F038000843CAF864
:102870000000DFE70121201D01F0C2FE054606E051
:102880000098012101F03CFF054600E0012565B1FB
:102890002E432078400720D5D4F89000062819D27E
:1028A000DFE800F0190C12191919DAF80000616F4D
:1028B00020F007000843CAF80000EAE70121201DC4
:1028C00001F09EFE054606E00098012101F018FF88
:1028D000054600E001258DB12E432078800620D5E5
:1028E000D4F88C00B0F1405F19D011DCB8B1B0F170
:1028F000805F27D0B0F1005F10D129E0D9F8000047
:10290000D4F8901020F007000843C9F80000E4E76D
:10291000B0F1804F03D0B0F1A04F00D00125EDB150
:102920002E43207840062CD5D4F89800B0F5406F9F
:1029300025D01DDC18B3B0F5806F33D0B0F5006F33
:102940001CD135E00021201D01F05AFE0546E6E7C6
:102950000098022101F0D4FE0546E0E7DAF8000015
:10296000D4F88C1020F0E0400843CAF80000D8E703
:10297000B0F5805F03D0B0F5A05F00D00125EDB1C8
:102980002E43207800062CD5D4F89C00B0F5C04F1B
:1029900025D01DDC18B3B0F5005F7DD0B0F5804FB9
:1029A0001CD1DFE00021201D01F02AFE0546E6E7EC
:1029B0000098022101F0A4FE0546E0E7D9F80000E6
:1029C000D4F8981020F4E0500843C9F80000D8E784
:1029D000B0F5004F03D0B0F5204F00D00125EDB386
:1029E0002E43207800070BD5D4F88000B0F5805F27
:1029F00076D0DAF8001021F440510143CAF80010F3
:102A00002078C0060BD5D4F89400B0F5807F69D04B
:102A1000D9F8001021F440710143C9F80010206872
:102A200000030BD5D4F8A000B8B3B0F5803F7ED03A
:102A3000B0F5003F00D0012585B32E432068400348
:102A40000FD5D4F88400B0F5801F71D0B0F5001F09
:102A50006FD0B0F5401F00D0012500E088E0EDB355
:102A60002E432068C00307D5E06CC0B3B0F5803FAB
:102A70006BD00125ADB32E432068800004D50098AB
:102A8000022101F03DFE06432068800311D5E06F6E
:102A900068B1B0F5807F02E05EE080E08CE071D04C
:102AA000B0F5007F03D0B0F5407F00D00125EDB335
:102AB0002E432068C00207D5D8F80000216F20F00F
:102AC00000400843C8F800002068C0000ED5DBF8BD
:102AD0000000D4F8B41020F4804004E081E08AE0E3
:102AE00051E093E055E00843CBF8000020688002F5
:102AF00007D5D8F80000A16E20F080700843C8F810
:102B00000000206840000CD5DBF8000020F40040F5
:102B1000CBF80000DBF80000D4F8B8100843CBF87D
:102B20000000206800280CDA094803E07BE03DE063
:102B30004CE050E008380168226D21F0405111430B
:102B4000016096B30120BDE8F88F59E000480258B3
:102B500054440258FFFCFF0F0021201D01F050FDDE
:102B600005463CE70098022101F0CAFD054636E71C
:102B7000D9F80000D4F89C1020F460400843C9F84C
:102B800000002EE74AE00098022101F0B9FD06435B
:102B900036E70098022101F0B3FD06433FE700212C
:102BA000201D01F02DFD054646E745E00098022175
:102BB00001F0A6FD05463FE7D9F80000D4F8A010C3
:102BC00020F440300843C9F8000037E7386840F483
:102BD0000030386041E70098012101F091FD054681
:102BE0003BE7DAF80000D4F8841020F440100843E2
:102BF000CAF8000035E7386840F40030386039E73B
:102C00000221201D01F0FCFC054633E70B4801685A
:102C1000E26C21F48031114301602DE7386840F403
:102C20000030386043E7DAF80000E16F20F44070CC
:102C30000843CAF800003CE7002084E74C440258EF
:102C40002DE9F04704460E46DFF8CC81D8F80000A5
:102C500000F00700B0420FD2D8F8000020F00700C3
:102C60003043C8F80000D8F8000000F00700B04278
:102C700002D00120BDE8F0872078684F800705D595
:102C80003868E16820F00F00084338602078C007FA
:102C900070D03868A16820F47060084338605F49DC
:102CA00060681839022808D003280BD001280ED0FC
:102CB0000968490710D40120DCE7096889030BD4AF
:102CC0000120D7E70968890106D40120D2E7096805
:102CD000C90501D40120CDE7DFF84091A9F1080929
:102CE000D9F8001021F007010143C9F80010FFF7DF
:102CF000DFF80546606841F2883A02280BD00328C5
:102D000017D0012823D030E0FFF7D2F8401B504500
:102D100001D90320AEE7D9F80000C0F3C2000228B1
:102D2000F2D127E0FFF7C4F8401B504501D903203A
:102D3000A0E7D9F80000C0F3C2000328F2D119E0DF
:102D4000FFF7B6F8401B504501D9032092E7D9F8A8
:102D50000000C0F3C2000128F2D10BE0FFF7A8F891
:102D6000401B504501D9032084E7D9F8000010F03A
:102D7000380FF3D1D8F8000000F00700B0420ED9A8
:102D8000D8F8000020F007003043C8F80000D8F859
:102D9000000000F00700B04201D001206AE720786F
:102DA000400705D53868216920F070000843386075
:102DB00020781B49000705D50868626920F070007B
:102DC000104308602078C00605D50868A26920F481
:102DD000E060104308602078800607D51049091D7F
:102DE0000868E26920F070001043086000F064F8A1
:102DF00039684FF4807292FAA2F201F47061B2FA6B
:102E000082F2D140074A515CC840074908600F2050
:102E1000FFF76AF800202DE70020005218440258FE
:102E20001C440258906100080400002410B5FFF70C
:102E3000BDF808490968012292FAA2F201F00F01D7
:102E4000B2FA82F2D140044A515CC840034908609A
:102E500010BD0000184402589061000808000024CA
:102E600010B5FFF7E3FF07490968102292FAA2F2B2
:102E700001F07001B2FA82F2D140034A515CC840BD
:102E800010BD00001C4402589061000810B5FFF707
:102E9000CDFF074909684FF4807292FAA2F201F45B
:102EA000E061B2FA82F2D140024A515CC84010BDE2
:102EB0001C44025890610008F0B55C4800685D4D04
:102EC00010F038015A4809D0041108290ED05A4E82
:102ED00010290DD018290DD02046F0BD296889068B
:102EE000FBD52968C1F3C101C840F0BD2046F0BD43
:102EF0003046F0BD4D4918310A6802F003020968F6
:102F0000C1F30511494B1C331B6803F00103474F04
:102F100024373F68C7F3CC0717FB03F300EE103AE2
:102F2000B8EE400ADFED450A404BB7EE001A2033F9
:102F30002AB3012A52D0022A64D0B4FBF1F001EE88
:102F4000900A1868B8EE612AC0F3080001EE900AF2
:102F5000F8EE611A40EE201A31EE810A22EE000AE4
:102F60001868C0F34620401C00EE900AF8EE600A94
:102F700080EE201ABCEEC10A10EE100AF0BD2A68DD
:102F8000920617D52A68C2F3C102D040B0FBF1F017
:102F900001EE900A1868B8EE612AC0F3080001EE4D
:102FA000900AF8EE611A40EE201A31EE810A22EE04
:102FB000000AD5E7B0FBF1F001EE900A1868B8EE10
:102FC000612AC0F3080001EE900AF8EE611A40EEA3
:102FD000201A31EE810A22EE000AC1E7B4FBF1F0BB
:102FE00001EE900A1868B8EE612AC0F3080001EEFD
:102FF000900AF8EE611A40EE201A31EE810A22EEB4
:10300000000AADE7B6FBF1F001EE900A1868B8EEE1
:10301000612AC0F3080001EE900AF8EE611A40EE52
:10302000201A31EE810A22EE000A99E71044025874
:103030000090D0030044025840787D010000003920
:103040002DE9F05F0446FC4FFC4E41F28838FC4D00
:103050002078C0075FD03868C0F3C20002281FD0B4
:103060003868C0F3C200032804D1306800F00300C0
:10307000022815D06068B0F5803F19D0E8B1B0F5EE
:10308000A02F23D0286820F480302860286820F4FE
:1030900080202860606870B3FEF70AFF814626E052
:1030A0002868800337D5606820BB0120BDE8F09F09
:1030B000286840F480302860ECE7286820F48030ED
:1030C0002860286820F480202860E3E7286840F41E
:1030D00080202860286840F480302860DAE7FEF716
:1030E000E7FEA0EB0900404501D90320DEE7286890
:1030F0008003F4D50FE0FFE7FEF7DAFE814607E034
:10310000FEF7D6FEA0EB0900404501D90320CDE72C
:1031100028688003F4D42078DFF828A380076FD5CF
:1031200038684FF47C3B10F0380F12D03868C0F389
:10313000C200032802D1306880070AD0E06890B34B
:10314000296821F0190101432960FEF7B1FE81468B
:1031500032E02868400701D5E06848B12868E16896
:1031600020F0190008432860FEF7A2FE814609E01E
:1031700001209BE7FEF79CFEA0EB0900022801D985
:10318000032093E728684007F4D5DAF800009BFA9B
:10319000ABF22169B2FA82F220F47C30914008430C
:1031A000CAF800002CE018E0FEF782FEA0EB090050
:1031B000022801D9032079E728684007F4D5DAF816
:1031C00000009BFAABF220F47C312069B2FA82F263
:1031D00090400143CAF8001012E0286820F0010076
:1031E0002860FEF765FE814607E0FEF761FEA0EB72
:1031F0000900022801D9032058E728684007F4D4C1
:103200002078C0065DD538684FF0F84BC0F3C20097
:10321000012813D03868C0F3C200032804D13068F5
:1032200000F00300012809D0E069B0B3286840F03D
:1032300080002860FEF73CFE81461DE02868C0053E
:1032400004D5E069802801D001202FE7DAF80000DA
:103250009BFAABF220F0F841206AB2FA82F2904079
:103260000143CAF800102CE0FEF722FEA0EB090093
:10327000022801D9032019E72868C005F4D5DAF837
:1032800000009BFAABF2216AB2FA82F220F0F84019
:1032900091400843CAF8000013E0FFE7286820F0D7
:1032A00080002860FEF704FE814607E0FEF700FE7E
:1032B000A0EB0900022801D90320F7E62868C00521
:1032C000F4D42078000732D5DFF870A160690AF1E4
:1032D0004C0AB0B1DAF8000040F00100CAF8000072
:1032E000FEF7E6FD814607E0FEF7E2FDA0EB0900F0
:1032F000022801D90320D9E6DAF800008007F3D5C7
:1033000015E0DAF8000020F00100CAF80000FEF72E
:10331000CFFD814607E0FEF7CBFDA0EB09000228B8
:1033200001D90320C2E6DAF800008007F3D4207840
:10333000800628D5A06998B1286840F4805028609C
:10334000FEF7B6FD814607E0FEF7B2FDA0EB0900EF
:10335000022801D90320A9E628688004F4D512E0E8
:10336000286820F480502860FEF7A2FD814607E01F
:10337000FEF79EFDA0EB0900022801D9032095E687
:1033800028688004F4D4207840077CD5DFF8B8A002
:10339000DAF8000040F48070CAF80000FEF788FDFB
:1033A000814607E0FEF784FDA0EB0900642801D9FF
:1033B00003207BE6DAF80000C005F3D5DFF87C9047
:1033C000A06809F14809012814D0D0B1052825D0FA
:1033D000D9F8000020F00100C9F80000D9F8000079
:1033E00020F00400C9F80000A06820B3FEF760FDDB
:1033F000824633E0D9F8000040F00100C9F800002F
:10340000F2E7D9F8000020F00100C9F80000D9F86F
:10341000000020F00400C9F80000E5E7D9F800003A
:1034200040F00400C9F80000D9F8000040F00100A5
:10343000C9F80000D8E716E01044025828440258A2
:10344000004402580444025800480258FEF730FD78
:10345000A0EB0A00404501D9032027E6D9F8000077
:103460008007F3D50FE0FEF723FD824607E0FEF765
:103470001FFDA0EB0A00404501D9032016E6D9F84C
:1034800000008007F3D4606AE8B33968C1F3C20171
:10349000032975D0022807D0286820F080702860A2
:1034A000FEF706FD04467EE0286820F08070286064
:1034B000FEF7FEFC074606E0FEF7FAFCC01B0228FA
:1034C00001D90320F2E528688001F5D4306840F284
:1034D000F3318843E16A40EA0110A16A0843306091
:1034E000208E4FF6FF72616B401E491EC0F308002C
:1034F00002EA41210843218F4FF4FE02491E02EAED
:103500000141084300E051E094F83C10491E1202CA
:1035100002EA0161084327490860091D08684FF65F
:10352000F872A36C904392FAA2F2B2FA82F293403C
:10353000184308601F48001F0168226C21F00C012D
:10354000114301600168626C21F0020111430160C6
:10355000016841F480310160016841F4003101608B
:10356000016841F480210160016841F001010160BE
:10357000286840F080702860FEF79AFC044607E057
:1035800016E0FEF795FC001B022801D903208DE50B
:1035900028688001F5D509E0FEF78AFC001B0228A7
:1035A00001D9032082E528688001F5D400207DE55B
:1035B00001207BE5304402582DE9F05F04460025E8
:1035C000002C12D04FF4800BDFF8D8812068764EA3
:1035D000764F40450BD0B04209D0B84207D0E068E2
:1035E0000F2804D90120BDE8F09F0120FBE7204609
:1035F00001F0C8F901462068404505D0B04203D02B
:10360000B84201D0082907D8404503D0B04201D0C4
:10361000B84203D1102901D90120E4E7A16A4FF48F
:10362000702A594514D1404508D0B04206D0B8425E
:1036300004D0206B504501D90120D4E7256B0DB98A
:10364000A0890504E068B0EB154F01D90120CAE755
:1036500094F881004FF0000920B984F8809020464A
:1036600000F0A6F8022084F881002068016821F0AB
:1036700001010160A069B0F1806F09D1606858450F
:1036800006D1A06B20B92068016841F48051016027
:10369000A16AE0690843E16B29430843E1680843F4
:1036A00021688860616A606BA2690843A16B11435D
:1036B00008432169084361690843216A0843616836
:1036C0000843E16C0843A1680843A16C0843A16D5D
:1036D00008432168C860A06A584528D1206C012899
:1036E00028D02068016821F400410160606C012845
:1036F00026D02068016821F480410160206840459F
:1037000005D0B04203D0B84201D055451ED0404547
:1037100003D0B04201D0B84202D1B5F5F81F15D0A0
:10372000016821F4005101602168E06A0864606862
:1037300088B120E02068016841F400410160D5E7CC
:103740002068016841F480410160D7E7016841F4D5
:1037500000510160E8E7A06A30B92068816821F46F
:10376000C05141F4006181602068816821F4C0612A
:1037700041F4806181602068016D21F001010165E3
:103780006068400206D52068C168626D21F0004182
:103790001143C160C4F88490012084F881000020A6
:1037A00021E700000030014000380040003C0040AC
:1037B00000B5B5B01548016841F00201016000682C
:1037C00000F00200009011480830016841F4804187
:1037D0000160006800F4804000904FF48050019038
:1037E0000020189001A8FEF7A5FD4FF4604030902E
:1037F0000220319001203290032033900520349034
:10380000034830A9FEF754FA35B000BDE044025831
:10381000000402582DE9F84F04468A46934699461B
:103820000A9D94F88000012813D04FF0010884F815
:103830008080FEF73DFB064694F8810000270128B2
:103840004FF4800110D06068884209D1A06838B96F
:1038500002E00220BDE8F88F94F88100042803D02C
:10386000022084F88070F5E7BAF1000F34D0BBF184
:10387000000F31D0B9F1000F2ED094F88100042848
:1038800002D0052084F88100C4F88470C4F864B0C4
:10389000A4F86A90A4F86890C4F85CA0A4F86290B8
:1038A000A4F8609027676767206842686FF30F028B
:1038B00042EA090242602068026842F001020260A6
:1038C0006068884204D12068016841F40071016099
:1038D000E0680F283ED846E0012084F88070B9E700
:1038E000B4F8620070B12068416989070AD5E16DBA
:1038F00009680162E06D001DE065B4F86200401ED9
:10390000A4F86200B4F86A0080B12068416948F206
:10391000080211420AD0006B616E0860606E001DE3
:103920006066B4F86A00401EA4F86A00681C11D0F2
:10393000FEF7BEFA801BA8420CD3204600F0B4FF6D
:1039400004F8807F606840F48070606084F80180D3
:1039500001207FE7B4F862000028C1D1B4F86A0002
:103960000028BDD1EFE007285AD8E3E0B4F86200A0
:1039700000B32068416989071CD5B4F86210012999
:103980000DD9E16B59B1E16D09680162E06D001D6F
:10399000E065B4F86200801EA4F862000AE0E16D00
:1039A00009880184E06D801CE065B4F86200401E67
:1039B000A4F86200B4F86A00F0B12068416911F41B
:1039C000604F19D0416909040BD5006B616E086026
:1039D000606E001D6066B4F86A00801EA4F86A007C
:1039E0000AE0008E616E0880606E801C6066B4F82C
:1039F0006A00401EA4F86A00681C11D0FEF758FA4D
:103A0000801BA8420CD3204600F04EFF04F8807FB4
:103A1000606840F48070606084F80180012019E7DC
:103A2000B4F862000028A1D1B4F86A0000289DD142
:103A300089E0B4F8620038B320684169890730D55D
:103A4000B4F8621003290ED9E16B40290BD9E16D5E
:103A500009680162E06D001DE065B4F86200001FB6
:103A6000A4F862001DE0B4F8621001290DD9E16BE1
:103A700059B1E16D09880184E06D801CE065B4F8FE
:103A80006200801EA4F862000BE0E16D097880F806
:103A90002010E06D401CE065B4F86200401EA4F800
:103AA0006200B4F86A0020B32068416911F4604FE5
:103AB0002CD0416909040BD5006B616E0860606E03
:103AC000001D6066B4F86A00001FA4F86A001DE0DB
:103AD000416901F4C041B1F5005F0BD9008E616E00
:103AE0000880606E801C6066B4F86A00801EA4F8CE
:103AF0006A000BE090F83000616E0870606E401C48
:103B00006066B4F86A00401EA4F86A00681C11D010
:103B1000FEF7CEF9801BA8420CD3204600F0C4FE6D
:103B200004F8807F606840F48070606084F80180F1
:103B300001208FE6B4F8620000287FF47AAFB4F871
:103B40006A000028F9D1002233460821204600955A
:103B500000F022FF28B1D4F8840040F02000C4F81F
:103B60008400204600F0A0FE04F8807F84F80180E5
:103B7000606808B101206DE600206BE604284FF074
:103B8000E02104D0086920F004000861704708694A
:103B900040F004000861704710B5401EB0F1807F0E
:103BA00001D3012010BD4FF0E02460610F216017A8
:103BB00001F092FD0020A06107202061002010BDCF
:103BC00070477047014611F8790F497808437047EC
:103BD0002DE9F04104462368D8691A68996800F015
:103BE0000F05002D0CD186060AD502F0200601F043
:103BF00080573E4304D02046BDE8F04101F0EFB8C5
:103C0000002D74D0524D02F490760D4035436ED0A5
:103C1000C50707D0D50505D501251D62E36F43F023
:103C20000103E367830708D5CB0706D02568022385
:103C30002B62E36F43F00403E367430708D5CB0728
:103C400006D0256804232B62E36F43F00203E36789
:103C500003070ED502F0200301F080552B4301D15C
:103C6000CB0706D0256808232B62E36F43F00803D7
:103C7000E367E36F002B2DD0800608D502F020000B
:103C800001F08051084302D0204601F0A8F8E06F0F
:103C9000000703D420688068400621D5204601F043
:103CA00083F820688168490616D5816821F04001B3
:103CB0008160606F58B127490165606FFDF79CFF17
:103CC000002807D0606F016DBDE8F041084720462D
:103CD000FFF777FFBDE8F0812046FFF772FFF9E7B5
:103CE0002046FFF76EFF0020E067F3E7FFE7C5021D
:103CF0000ED54D020CD54FF480101862202084F8A8
:103D0000790084F87A002046BDE8F041FFF758BFFB
:103D100005060AD502F0800501F400010D4304D028
:103D20002046BDE8F04101F032BC410606D55106FF
:103D300004D52046BDE8F04101F044B80002C9D5E1
:103D40005000C7D5186820F080401860C2E7000016
:103D500001000010954D000810B50446002C03D05A
:103D600094F8790010B107E0012010BD002084F81C
:103D70007800204600F028F8242084F87900206894
:103D8000016821F001010160204601F065F8012879
:103D900018D0606B10B1204600F06AFF20684168BF
:103DA00021F4904141602068816821F02A018160FE
:103DB0002068016841F0010101602046BDE8104023
:103DC00000F0BABF012010BD10B586B000681B49D5
:103DD000884230D11A48016841F001010160006851
:103DE00000F00100009016481030016841F0100109
:103DF0000160006800F0100000904FF40070019026
:103E0000022002900121039104900720059001A94E
:103E10000C4C2046FDF74CFF4FF48061019101A945
:103E20002046FDF745FF2520FEF781F803222520D7
:103E30001146FEF789F806B010BD000000100140E1
:103E4000E04402580000025890F87A30202B01D04C
:103E500002207047B9B1B2B190F87830012B14D07C
:103E6000012380F878304166A0F86820A0F86A2025
:103E7000FF228168B1F5805F09D07F2389B1B1F15C
:103E8000805F16D01AE00120704702207047016958
:103E900011B1A0F86C2011E040F2FF11A0F86C10F5
:103EA0000CE0016911B1A0F86C3007E0A0F86C20BB
:103EB00004E00169E1B13F21A0F86C100021C16765
:103EC000222280F87A2080F8781001688A6842F00F
:103ED00001028A6001680A6892000CD50A6842F4FF
:103EE00080720A600068816841F08051816006E05C
:103EF000A0F86C30E2E7086840F490700860002099
:103F00007047000030B50068124988420CD1124A4F
:103F10005088010408D411464FF000034404097886
:103F200007D50A2901D0538030BD40F400405080AD
:103F300030BD0D290AD0094DC0F30D042955401C90
:103F400080B25080C728F3D9538030BD40F4804000
:103F5000508030BD001001401000002444000024B7
:103F60007047FEE770B586B01348016841F0040160
:103F70000160016801F004010091016841F0100145
:103F80000160006800F010000090082001900026F9
:103F900002960124039403250495084801A9FDF71E
:103FA00087FE2020019002960394049501A90448FD
:103FB000FDF77EFE06B070BDE044025800100258C6
:103FC000000802582DE9F041074600240C4E00215C
:103FD00008467388328800F0C5F9358870884543F3
:103FE0000021084600F0AAF900F0AEFA03E03846D6
:103FF00000F054FA641CAC42F9D3BDE8F081000033
:10400000DC0200242DE9F04122490027F0222C2473
:104010002A252B2600284FF4A07319D001281FD081
:1040200002284FF0010C23D003282AD08F710A8078
:104030004B800C814D818E8100244B880A880021A1
:10404000084600F08FF92046BDE8F04100F064B961
:104050008F710A804B800C814D818E810024ECE7AA
:104060008F710B804A800C814D818E810124E4E7A1
:1040700081F806C00A804B800C814D818E8102241C
:10408000DBE781F806C00B804A800C814D818E8170
:104090000324D2E7DC0200242DE9F04107460E4656
:1040A00015460A4C608900F033FA384600F0F6F9FC
:1040B000A08900F02DFA304600F0F0F9208900F0D8
:1040C00027FA2846BDE8F04100F0E8B9DC020024F8
:1040D00010B586B01948016841F00201016000681E
:1040E00000F00200009041F20300019001200290D4
:1040F00003900320049001A9114C2046FDF7D8FD40
:10410000012220461146FDF7CDFE01222046022164
:10411000FDF7C8FE012220461103FDF7C3FE00F0A3
:104120006FFBA00400F0A8FB00F00CF80122204671
:104130001146FDF7B7FE06B010BD0000E04402587E
:104140000004025870B50A4D4FF480440022214605
:104150002846FDF7A7FE322001F046FF0122214646
:104160002846FDF79FFEBDE870401E2001F03CBFD1
:104170000004025810B5FFF7ABFF00F085F93220BC
:1041800001F032FF362000F0C3F9002000F0A4F95E
:104190003A2000F0BDF9052000F09EF9B22000F0B1
:1041A000B7F90C2000F098F90C2000F095F90020E8
:1041B00000F092F9332000F08FF9332000F08CF9F1
:1041C000B72000F0A5F9352000F086F9BB2000F0FB
:1041D0009FF9192000F080F9C02000F099F92C20F7
:1041E00000F07AF9C22000F093F9012000F074F990
:1041F000C32000F08DF9122000F06EF9C42000F009
:1042000087F9202000F068F9C62000F081F90F201E
:1042100000F062F9D02000F07BF9A42000F05CF9F6
:10422000A12000F059F9E02000F072F9D02000F050
:1042300053F9042000F050F90D2000F04DF9112041
:1042400000F04AF9132000F047F92B2000F044F960
:104250003F2000F041F9542000F03EF94C2000F0DE
:104260003BF9182000F038F90D2000F035F90B204B
:1042700000F032F91F2000F02FF9232000F02CF974
:10428000E12000F045F9D02000F026F9042000F0EC
:1042900023F90C2000F020F9112000F01DF9132063
:1042A00000F01AF92C2000F017F93F2000F014F963
:1042B000442000F011F9512000F00EF92F2000F0F9
:1042C0000BF91F2000F008F91F2000F005F920204D
:1042D00000F002F9232000F0FFF8212000F018F987
:1042E000112000F015F9782001F07EFE292000F061
:1042F0000FF9C82001F078FE0020FFF783FE0122AD
:1043000004481146FDF7CEFDBDE810404FF6FF70A2
:10431000FFF758BE00040258002100280BD00128E6
:1043200004D0022804D0032805D103E0602102E074
:10433000C02100E0A021362000F00CB970B506467F
:104340000D46074C608900F0E3F8304600F0A6F80F
:10435000A08900F0DDF82846BDE8704000F09EB866
:10436000DC0200242DE9F04105460C46A818401E49
:1043700086B2E018401E87B2DFF82C80B8F80A0039
:1043800000F0C6F8284600F089F8304600F086F8BC
:10439000B8F80C0000F0BCF8204600F07FF8384672
:1043A000BDE8F04100F07AB8DC0200242DE9F84FB6
:1043B00082460C461F46A346780701D0012000E044
:1043C0000020790800EBD7004843C0B20090203AA3
:1043D00002F0FF09002648E00C2F13D0102F18D050
:1043E000182F45D1234909EBC90001EB8000855DF9
:1043F0004FF00008280611D50A9A21465046FFF7CB
:104400004BFE13E01C4909EB490001EB8000855D80
:10441000EEE71A4800EB0910855DE9E70B9828B92B
:104420001748214642885046FFF736FE6806050EBB
:10443000641CA4B213484088A04219D9A4EB0B0015
:10444000B84209D15C460AF1010A1FFA8AFA0D48FE
:10445000008850450CD906E008F1010808F0FF0873
:10446000B8F1080FC6D3761CF6B200988642B3D3D3
:10447000BDE8F88F1C6C0008B86100082C660008C5
:1044800020000024DC02002410B5012000F040F8D8
:10449000BDE81040322001F0A7BD000070B5044611
:1044A0000C4E4FF48055002229463046FDF7FAFCA9
:1044B000012230460221FDF7F5FC200A00F0CCF97C
:1044C000E0B200F0C9F929463046BDE8704001224B
:1044D000FDF7E8BC0004025870B506460B4D4FF4DA
:1044E0008054002221462846FDF7DCFC01222846A4
:1044F0000221FDF7D7FC304600F0AEF921462846F0
:10450000BDE870400122FDF7CDBC00000004025858
:1045100070B504460B4E4FF48055002229463046B4
:10452000FDF7C0FC002230460221FDF7BBFCE0B2E3
:1045300000F092F929463046BDE870400122FDF7AF
:10454000B1BC00000004025801480089FFF7E0BF39
:10455000DC02002410B50C46FFF7DAFFE0B2BDE83C
:104560001040FFF7B9BF000010B586B00D480168D4
:1045700041F001010160006800F00100009002209C
:1045800001900120029003900320049001A9064CA1
:104590002046FDF78DFB012220460221FDF782FC1B
:1045A00006B010BDE04402580000025810B5124891
:1045B000104901604FF44031416000218160C160C9
:1045C0000422026101754175012282610177016255
:1045D0004262816280F838201203026380F8391049
:1045E000C162FDF777F800220348BDE8104011468C
:1045F000FCF73EBD00600258F00100247047704790
:104600002DE9F047044688460027DFF8F090D9F8F6
:104610000000C043800709D0384D283D286820F0AD
:1046200080602860FDF744FC064609E00120BDE8F3
:10463000F087FDF73DFC801B022801D90320F6E737
:1046400028680001F5D4D9F80000216820F47C30F6
:1046500040EA0130C9F80000A0884FF6FF72A16857
:10466000401E491EC0F3080002EA41210843A18907
:104670004FF4FE02491E02EA01410843217C120266
:10468000491E02EA016108431C49103108601B48B9
:10469000001D0168626921F0C001114301600168D9
:1046A000A26921F0200111430160B8F1000F0ED082
:1046B000B8F1010F10D0016841F4001101602868C1
:1046C00040F080602860FDF7F3FB044610E00168CD
:1046D00041F400210160F2E7016841F480110160BA
:1046E000EDE7FDF7E5FB001B022801D903209EE75B
:1046F00028680001F5D5384699E70000284402589B
:104700002DE9F047044688460027DFF8F090D9F8F5
:104710000000C043800709D0384D283D286820F0AC
:1047200080502860FDF7C4FB064609E00120BDE883
:10473000F087FDF7BDFB801B022801D90320F6E7B7
:1047400028688000F5D4D9F80000218820F07C701A
:1047500040EA0150C9F80000A0884FF6FF72A16836
:10476000401E491EC0F3080002EA41210843A18906
:104770004FF4FE02491E02EA01410843217C120265
:10478000491E02EA016108431C49183108601B48B0
:10479000001D0168626921F44061114301600168F4
:1047A000A26921F4007111430160B8F1000F0ED02D
:1047B000B8F1010F10D0016841F0807101602868E4
:1047C00040F080502860FDF773FB044610E001685C
:1047D00041F480010160F2E7016841F400010160E9
:1047E000EDE7FDF765FB001B022801D903209EE7DA
:1047F00028688000F5D5384699E70000284402581B
:1048000010B5144C124820604FF480006060002006
:10481000A0600721E1604FF00072226152106261D6
:104820009200A2616063CA0762650A07E2612062C2
:104830006062A062E1622046FEF7BEFE2068016869
:1048400041F001010160BDE81040FF2000F004B814
:10485000003800405402002401B582B04FF47A7051
:104860000123009001AA034802A9FEF7D3FF9DF897
:1048700004000EBD540200240A4A11680B6823F09C
:1048800001030B6011688B6823F0E0438B601168B3
:104890008B6803438B601068016841F0010101607F
:1048A000704700005402002410B5026851699369F2
:1048B00043F0080393610268936943F01003936126
:1048C0000268136823F0010313600268136940F261
:1048D0006B34A34313610268936823F440439360ED
:1048E00090F88120042A0CD08A060AD5D0F88420BA
:1048F00042F08002C0F884200268936943F02003EC
:10490000936190F88120032A1DD04A060AD5D0F879
:10491000842042F00402C0F884200268936943F0C6
:1049200040039361826AB2F5800F0CD10A060AD562
:10493000D0F8842042F00202C0F884200268936913
:1049400043F0800393618A050AD5D0F8842042F0B1
:104950000102C0F884200268936943F400739361F4
:10496000C9050AD5D0F8841041F00801C0F88410B8
:1049700001688A6942F480728A61002120F8621F0E
:10498000018110BDC16B012202EB5111C068401CB6
:10499000C01DC008484370472DE9F04106460D464A
:1049A00017469846069C0BE0601C09D02CB1FDF719
:1049B0007FFAA0EB0800A04202D90320BDE8F081F5
:1049C0003068406935EA000004D00020B842EBD0DE
:1049D0000020F3E70120F9E7704700002DE9F04FD0
:1049E00093B004468A4615461F46A146780701D073
:1049F000012000E0002000EBD7007843C0B2009017
:104A00000C2F03D0102F01D0182F36D1009A01A9F6
:104A10003B462846FCF7C2FA4FF000082AE001A8FE
:104A200010F808600025DFF858B0300605D51C9A4C
:104A300051462046FFF730FB07E01D9828B9BBF828
:104A4000002051462046FFF727FB7006060E641C27
:104A5000A4B2A4EB0900B84204D14C460AF1010A01
:104A60001FFA8AFA6D1CEDB2082DDED308F1010899
:104A700008F0FF0800988045D1D313B0BDE8F08F4F
:104A8000220000242DE9FF4F83B004460E469346D2
:104A9000DDE91075A046B2464FF000091EE0B9F1FD
:104AA000000F21D04FF0000908EB0B00401BA04283
:104AB00002DA701986B2444606985044401BB04250
:104AC0000FDBDDE912012B463A46CDE90001314604
:104AD0002046FFF783FFBF1C601984B23A78002A92
:104AE000DDD107B0BDE8F08F802A02D94FF001096F
:104AF000F4E708EB0B00A0EB5500A04202DA7019B6
:104B000086B2444606985044401BB042E9DB0D2A69
:104B10000DD0DDE912012B46CDE9000131462046DA
:104B2000FFF744FC7F1C04EB550084B2D6E77019F4
:104B300086B244467F1CF5E770B59CB0284C2568CA
:104B400025F0040525600026254C0C34256845F425
:104B500040452560256805F4404500952568AD046D
:104B6000FCD501240194240402940496089602249E
:104B70000A940B940D900C910E920F9312960824A8
:104B8000119401A8FEF75CFA10B101201CB070BDB1
:104B90003F201490032015901696179440201990EA
:104BA00001011A91189050201B90022114A8FEF7C1
:104BB00047F808B10120E9E70A48016841F080019F
:104BC00001600848F430016841F0020101600068AA
:104BD00000F002000090FDF763F80020D6E7000027
:104BE0000C48025800440258FDF768B91C48016897
:104BF00041F4700101601B49086840F00100086041
:104C0000184A0020103210600A68174B1A400A60D8
:104C1000144A18321060121D1060121D1060114AE3
:104C200028321060121D1060121D1060121D1060DD
:104C3000121D1060121D1060121D1060121D1060F8
:104C40000A6822F480220A60064960310860012067
:104C500006490860C00602498039086070470000B4
:104C600088ED00E0004402587FEDF6EA088100512B
:104C700090F83410C90706D001684A68836B22F4A3
:104C800000321A434A6090F83410890706D501684B
:104C90004A68C36B22F480321A434A6090F8341099
:104CA000490706D501684A68036C22F480221A433A
:104CB0004A6090F83410090706D501684A68436CC9
:104CC00022F400421A434A6090F83410C90606D50F
:104CD00001688A68836C22F480521A438A6090F8D3
:104CE0003410890606D501688A68C36C22F4005224
:104CF0001A438A6090F83410490611D501684A6851
:104D0000036D22F480121A434A60016DB1F5801FD1
:104D100006D101684A68436D22F4C0021A434A6012
:104D200090F83410090606D501684A68806D22F4AF
:104D3000002202434A607047F8B504460026E66741
:104D4000FDF7B6F80746206800686FF07E4500075B
:104D50000AD500223B464FF400112046009500F092
:104D600050FC08B10320F8BD2068006840070AD550
:104D700000223B464FF480012046009500F041FCA4
:104D800008B10320F8BD202078346070A070267030
:104D90000020F8BD10B5806B0021A0F86A10A0F8C3
:104DA0006210FEF70EFF10BD01680A6822F49072CF
:104DB0000A6001688A6822F001028A60202180F876
:104DC0007A10704710B501680A6822F040020A6044
:104DD000202180F87910FFF7C3F8002010BD10B52E
:104DE000B0F86C2090F87A300168222B05D0088B3F
:104DF00040F008000883022010BD898C8368B3F559
:104E0000805F01D1036973B11140426E531C436648
:104E10001170B0F86A10491E0904090CA0F86A1054
:104E200008D0002010BD436E11401980416E891CCE
:104E30004166EEE701680A6822F490720A60016830
:104E40008A6822F001028A60202180F87A10FFF738
:104E500059F8002010BD00002DE9F04F87B004463E
:104E6000802500210027FD4B2068AE05A26AD4F8FA
:104E700008C0D4F81080D4F81C904CEA080CD4F880
:104E8000148048EA09084CEA080C42EA0C02D0F8FF
:104E900000C0DFF8CC830CEA080C4CEA020CC0F826
:104EA00000C020684268D4F80CC022F4405242EAA4
:104EB0000C024260A06922689A4203D0D4F820C054
:104EC0004CEA0000D4F828C0B44504D1D4E90B6CF6
:104ED00046EA0C0630439668DFF888C306EA0C06FB
:104EE000064396602068C26A666A22F00F02324367
:104EF000C262DD4E2068DD4AB0421CD1126802F069
:104F00003802182A11D005DC4AB1082A09D0102A23
:104F100006D108E0202A0AD0282A01D109E001257B
:104F2000D8E00425D6E04025D4E00825D2E01025BD
:104F3000D0E02025CEE0CE4EB04215D1126802F06E
:104F40000702062A05D2DFE802F0030507090B0D68
:104F50000025BFE00425BDE04025BBE00825B9E001
:104F60001025B7E02025B5E0C24EB04215D1126839
:104F700002F00702062A05D2DFE802F0030507095E
:104F80000B0D0025A6E00425A4E04025A2E008259D
:104F9000A0E010259EE020259CE0B74EB04215D140
:104FA000126802F00702062A05D2DFE802F00305C4
:104FB00007090B0D00258DE004258BE0402589E0D5
:104FC000082587E0102585E0202583E0AB4EB04220
:104FD00015D1126802F00702062A7BD2DFE802F040
:104FE000030507090B0D002574E0042572E0402538
:104FF00070E008256EE010256CE020256AE0A04EE8
:10500000B0421CD1126802F03802182A11D005DC17
:105010004AB1082A09D0102A5CD108E0202A0AD017
:10502000282A57D109E0012554E0042552E0402503
:1050300050E008254EE010254CE020254AE0914E36
:10504000B04215D1126802F00702062A42D2DFE808
:1050500002F0030507090B0D00253BE0042539E0AC
:10506000402537E0082535E0102533E0202531E0E4
:10507000854EB04215D1126802F00702062A29D2E5
:10508000DFE802F0030507090B0D002522E00425E7
:1050900020E040251EE008251CE010251AE0202510
:1050A00018E0984216D1714A121D126802F00702E8
:1050B000062A0FD2DFE802F0030507090B0D0225CF
:1050C00008E0042506E0402504E0082502E010255C
:1050D00000E02025DFF8B891DFF890A198426B4EF0
:1050E0004FEA291BAAF1540A7ED10020102D33D09B
:1050F00006DC022D16D0042D17D0082D04D11EE099
:10510000202D2BD0402D15D00127002809D0D4F810
:10511000048008EB4801814202D8B0EB083F20D957
:105120000127ACE1FCF75CFFEFE704A8FCF76EFF9A
:105130000598EAE701A8FDF733F80298E5E7DAF801
:105140000000800606D5DAF80000C0F3C10029FA95
:1051500000F0DAE74846D8E75846D6E74FF4004073
:10516000D3E729460025102975D006DC022911D085
:10517000042924D0082904D151E020296CD04029E9
:1051800036D00127434AA0F54071914265D8216885
:10519000C86074E1FCF724FF626A0023294636F8F0
:1051A0001220FBF795F862680902030241EA1061D8
:1051B0005008181869410023FBF78AF8E2E704A8B1
:1051C000FCF724FF616A0023059836F81120194680
:1051D000FBF77EF862680902030241EA1061500899
:1051E00018186941002300E09BE0FBF771F8C9E75C
:1051F00001A8FCF7D5FF616A0023029836F8112058
:105200001946FBF765F862680902030241EA10617A
:105210005008181869410023FBF75AF8B2E7DAF88A
:10522000000080063BD5DAF800000023616AC0F375
:10523000C10036F81120194629FA00F0FBF748F8AA
:105240000902020241EA10614FEA58001018424672
:105250006941002320E037E04BE060E0000C00589B
:10526000F369FFCFFFF4FF110010014054440258CE
:105270000044004000480040004C00400050004006
:105280000014014000780040007C0040A06100084C
:105290000090D003FFFC0F00FBF71AF872E7606A7A
:1052A0000023194636F810204846FBF711F809028A
:1052B000020241EA10614FEA580010184246694163
:1052C0000023FBF705F85DE7606A0023194636F80E
:1052D00010205846FAF7FCFF0902020241EA106169
:1052E0004FEA58001018424669410023FAF7F0FFD0
:1052F00048E7606A0023194636F810204FF4004052
:10530000FAF7E6FF0902020241EA10614FEA58008B
:105310001018424669410023FAF7DAFF32E7012705
:10532000ADE0E3694FF4004293426ED1082D55D0B1
:1053300005DC9DB1012D20D0042D06D12CE0102DCF
:1053400073D0202D7ED0402D37D0012721F00F00C3
:10535000C1F3420108432168C86090E0FDF780FD79
:10536000616A36F81110B0FBF1F04100606801EBA2
:105370005001B1FBF0F081B2E8E7FDF787FD616A0B
:1053800036F81110B0FBF1F04100606801EB5001FC
:10539000B1FBF0F081B2D9E704A8FCF737FE616AEF
:1053A000059836F81110B0FBF1F04100606801EB90
:1053B0005001B1FBF0F081B2C8E701A8FCF7F0FEA4
:1053C000616A029836F81110B0FBF1F04100606894
:1053D00001EB5001B1FBF0F081B2B7E7DAF8000061
:1053E000800613D5DAF80000C0F3C10029FA00F9ED
:1053F000606A36F81000B9FBF0F04100606801EB1C
:105400005001B1FBF0F081B2A0E728E0606A36F805
:105410001000B9FBF0F04100606801EB5001B1FBF6
:10542000F0F081B292E700E00CE0606A36F810001C
:10543000BBFBF0F04100606801EB5001B1FBF0F004
:1054400081B283E7606A36F81000B2FBF0F04100E9
:10545000606801EB5001B1FBF0F081B276E7082DF6
:1054600055D005DC7DB1012D1DD0042D06D12AE0DB
:10547000102D72D0202D7DD0402D36D0012707B0C1
:105480003846BDE8F08FFDF7EBFC616A36F8111085
:10549000B0FBF1F1606801EB5001B1FBF0F0216865
:1054A00080B2C860EBE7FDF7F1FC616A36F81110D5
:1054B000B0FBF1F1606801EB5001B1FBF0F0216845
:1054C00080B2C860DBE704A8FCF7A0FD616A05981C
:1054D00036F81110B0FBF1F1606801EB5001B1FB3F
:1054E000F0F0216880B2C860C9E701A8FCF758FE57
:1054F000616A029836F81110B0FBF1F1606801EBB7
:105500005001B1FBF0F0216880B2C860B7E7DAF86B
:105510000010890612D5DAF80010C1F3C10129FA8A
:1055200001F9616A36F81110B9FBF1F2616802EB1A
:105530005102B2FBF1F189B2C160A0E7616A36F8AD
:105540001110B9FBF1F2616802EB5102B2FBF1F10B
:1055500089B2C16093E700E00CE0616A36F811108F
:10556000BBFBF1F2616802EB5102B2FBF1F189B2CF
:10557000C16084E7616A36F81110B2FBF1F261682C
:1055800002EB5102B2FBF1F189B2C16077E790F80A
:105590007910212901D002207047B0F8621021B1A2
:1055A0008168B1F5805F14D015E001680A68920047
:1055B00004D58A6822F400028A6003E00A6822F0B7
:1055C00080020A600068016841F04001016000202B
:1055D0007047016959B1C16D4A1CC26502680978FA
:1055E000118530F8621F491E018000207047C16D8F
:1055F00002680988C1F308011185C16D891CC16564
:10560000EFE72DE9F04104460E4617469846069D01
:105610001DE0681C1BD02DB1FCF74AFCA0EB080074
:10562000A84214D92068016821F4D0710160206873
:10563000816821F001018160202084F8790084F8DC
:105640007A00002084F878000320BDE8F08120680B
:10565000C06936EA000004D00020B842D9D000204A
:10566000F3E70120F9E7000070B500240C4D0D4868
:10567000FEF7AEFA02E0641CAC4204D80948FEF71B
:10568000A1FA2028F7D1002402E0641CAC4206D81D
:10569000054901220348FEF7D7FB0028F5D170BD6C
:1056A000FFFF01000C01002410000024FEE70000B1
:1056B0000FB4084B10B504A902AA039800F0EEF845
:1056C000044602A9002000F080FC204610BC5DF8D2
:1056D00014FB0000CB5F00080907090E002804DB5B
:1056E00000F1E02080F80014704700F00F0000F196
:1056F000E02080F8141D704702E008C8121F08C19E
:10570000002AFAD170477047002001E001C1121F42
:10571000002AFBD1704700002DE9FF5F82B0002115
:10572000DDE90430020DDDF840B0034318D044F643
:105730001050A2F2FF3242431514119801281FD0D5
:10574000A5EB0B00401C5FEA000A4FF000064E4F2D
:10575000DFF83891B046504615D5CAF1000413E081
:10576000119801244AA3012801D16FEA0B01029884
:10577000119AC0E90031C0E9024206B0BDE8F09FCD
:10578000CBF10000DFE704460021404A491842EB14
:105790000450CDE9001012E0E00707D032463B4646
:1057A00040464946FAF7B3FE8046894632463B46B4
:1057B00010461946FAF7ABFE06460F466410002C59
:1057C000EAD1DDE90401DDE90023BAF1000F06DAD0
:1057D000FAF79DFE42464B46FAF799FE05E0FAF7C6
:1057E00008FF42464B46FAF704FF04460E460022E5
:1057F000284BFAF785FF03D84FF0FF30014607E04A
:105800000022254B20463146FAF7DAFDFAF760FF11
:10581000102409E0002C0ADB0A220023FAF758FDC5
:10582000039B30321A55641E50EA0102F2D1641C07
:10583000039AC4F111031444119A012A03D00122DE
:1058400008430DD10AE0084304D000204FF0110BAB
:10585000119072E7A3EB0B056D1E0DE05B4504DDB7
:105860004FF0000205F1010504E003DA4FF00002F9
:10587000A5F10105002AECD002981199C0E9023186
:10588000C0E9004579E70000000014400000F03F47
:10589000300000000000F0430000E03F2DE9FF4F22
:1058A00095B09B468946064600250FE2252877D10C
:1058B00000242746F84A0121059400E0044316F825
:1058C000013F203B01FA03F01042F7D130782A283B
:1058D00011D06FF02F033078A0F13002092A16D8CA
:1058E000059A44F0020402EB820203EB42021044E8
:1058F000761C0590EFE759F8042B0592002A03DA8D
:10590000504244F40054059044F00204761C307870
:105910002E2816D116F8010F44F004042A280DD0C1
:105920006FF02F023078A0F13003092B09D807EB74
:10593000870302EB4303C718761CF3E759F8047B8F
:10594000761C30786C280FD006DC4C2817D06828DD
:105950000DD06A2814D104E0742810D07A280FD111
:105960000DE044F400140AE044F4801401E044F42F
:1059700040147278824202D104F58014761C761CA1
:10598000307866280BD013DC582877D009DC002843
:1059900075D04528F6D04628F4D047281AD19DE185
:1059A00018E0632835D0642879D0652812D195E1B4
:1059B000702873D008DC6728F1D069286FD06E2872
:1059C0000DD06F2806D1B5E073282CD0752875D07E
:1059D000782874D05A46179990476D1C75E1C4F326
:1059E0000250022809D003280DD0D9F8001004284D
:1059F0000DD00D6009F1040967E1D9F80010EA172C
:105A0000C1E90052F6E7D9F800100D80F2E70D70F9
:105A1000F0E719F8041B8DF8001000208DF8010044
:105A2000EA46012003E059F804AB4FF0FF3061076C
:105A30004FF0000102D40DE008F101018846B9429F
:105A40000FDA8045F8DB1AF808100029F4D108E0D5
:105A500008F1010188468142FADB1AF80810002992
:105A6000F6D105985B46A0EB080721463846179A01
:105A700000F094FA284400EB080507E04DE029E126
:105A80000DE01AF8010B5A4617999047B8F1010832
:105A9000F7D25B4621463846179A13E142E00A22C4
:105AA0000092C4F302524FF0000A022A08D059F8BB
:105AB00004CB032A4FEAEC710AD00DE029E02AE07A
:105AC00009F1070121F00702F2E802C1914609E05D
:105AD0000FFA8CFC4FEAEC71042A03D14FFA8CFCCC
