:020000040800F2
:10000000F80F002439030008155900909725009037
:1000100045030008CD030090276300900000000016
:10002000000000000000000000000000D95B00900C
:10003000CF0300900000000017590090DB5B009098
:100040005303000853030008530300085303000838
:100050005303000853030008530300085303000828
:100060005303000853030008530300085303000818
:100070005303000853030008530300085303000808
:1000800053030008530300085303000853030008F8
:1000900053030008530300085303000853030008E8
:1000A00053030008530300085303000853030008D8
:1000B00053030008530300085303000853030008C8
:1000C00053030008530300085303000853030008B8
:1000D000530300083D1500085303000853030008AC
:1000E00053030008530300080000000053030008F6
:1000F0005303000853030008530300085303000888
:100100005303000853030008530300085303000877
:100110005303000853030008530300085303000867
:100120005303000853030008530300085303000857
:100130005303000853030008530300085303000847
:1001400000000000000000000000000000000000AF
:100150005303000853030008530300085303000827
:100160005303000853030008530300085303000817
:100170005303000853030008530300085303000807
:1001800053030008530300085303000853030008F7
:1001900053030008530300085303000853030008E7
:1001A00053030008530300085303000853030008D7
:1001B00053030008530300085303000853030008C7
:1001C00053030008530300085303000853030008B7
:1001D00053030008530300085303000853030008A7
:1001E0005303000853030008530300085303000897
:1001F0005303000853030008530300085303000887
:100200005303000853030008530300085303000876
:100210005303000853030008530300085303000866
:1002200053030008530300085303000800000000B4
:1002300053030008530300080000000053030008A4
:100240005303000853030008530300085303000836
:100250005303000853030008530300085303000826
:100260005303000853030008530300085303000816
:100270005303000853030008530300080000000064
:1002800053030008000000005303000800000000B2
:10029000000000005303000800F002F800F03CF8F2
:1002A0000AA090E8000C82448344AAF10107DA45D1
:1002B00001D100F031F8AFF2090EBAE80F0013F0E7
:1002C000010F18BFFB1A43F0010318471415000073
:1002D00034150000103A24BF78C878C1FAD8520704
:1002E00024BF30C830C144BF04680C6070470000B0
:1002F0000023002400250026103A28BF78C1FBD82F
:10030000520728BF30C148BF0B6070471FB501F0CE
:1003100059FA1FBD10B510BD00F0AAF81146FFF73D
:10032000F5FF01F07BF900F0C8F803B4FFF7F2FF26
:1003300003BC01F035F9000009488047094800472F
:10034000FEE7FEE7FEE7FEE7FEE7FEE7FEE7FEE785
:10035000FEE7FEE704480549054A064B70470000E2
:10036000B914000899020008F8030024F80F0024CB
:10037000F8050024F8050024704753EA020C00F049
:1003800069802DE9F04B4FF00006002B1FBFB3FA38
:1003900083F503FA05F424FA05F65E4012BF16430E
:1003A000B2FA82F502FA05F4C5F120051EBF22FA61
:1003B00005FC44EA0C04203556EA044C4FEA144488
:1003C00018BF641C4FF000084FF00009904271EB19
:1003D000030C39D3002919BFB1FA81F701FA07F6E6
:1003E000B0FA80F700FA07F6C7F120071EBF20FA1F
:1003F00007FC46EA0C062037B6FBF4FCA7EB050722
:10040000103F07F01F0BCBF120060CFA0BFB2CFA68
:1004100006F644BFB3460026202FA4BF5E464FF029
:10042000000B5BEA060C08BF4FF0010B19EB0B0940
:10043000ABFB027C48EB0608C01B06FB02CC0BFBA7
:1004400003CC71EB0C01C1E70B460246414648461E
:10045000BDE8F08B13B54FF000004FF00001AFF393
:100460000080BDE81C407047704770477047704778
:10047000754600F02BF8AE4605006946534620F05D
:100480000700854618B020B5FFF764FFBDE820409F
:100490004FF000064FF000074FF000084FF0000B40
:1004A00021F00701AC46ACE8C009ACE8C009ACE8F3
:1004B000C009ACE8C0098D46704710B50446AFF3DB
:1004C00000802046BDE81040FFF72FBF004870476E
:1004D0009803002441F23D5CC9F2000C604742F2EF
:1004E000053CC9F2000C604742F2F92CC9F2000C3D
:1004F000604742F2EF4CC9F2000C604745F27D1CA8
:10050000C9F2000C604742F2995CC9F2000C6047E6
:1005100045F6F92CC9F2000C604742F6510CC9F2BD
:10052000000C604745F6C50CC9F2000C604745F267
:100530004D0CC9F2000C604740F28D6CC9F2000C02
:10054000604745F2A10CC9F2000C604742F2854CAD
:10055000C9F2000C60470000F0B5BFF34F8FBFF346
:100560006F8F1D4900200860BFF34F8FBFF36F8F5F
:100570001A4C216841F400312160BFF34F8FBFF363
:100580006F8F164970310860BFF34F8F081F0068E6
:1005900043F6FF75104E1036C0F34E31C0F3C90359
:1005A00005EA4112184642EA80773760401EFAD2C7
:1005B000491EF5D2BFF34F8F206840F48030206091
:1005C000BFF34F8FBFF36F8F03484C30016841F08A
:1005D00004010160F0BD000050EF00E014ED00E008
:1005E0000248016841F00101016070472004005891
:1005F0002DE9F84F6C4C00224FF0B04A4FF0010B40
:100600004FF0030E4FF00F090B680BFA02F73B4057
:10061000BB4270D14D68022D01D0122D12D1D508E8
:1006200000EB850CDCF820605507ED0E09FA05F8A3
:1006300026EA0806D1F8108008FA05F848EA060804
:10064000CCF82080D0F80080560091F804C00EFA53
:1006500006F50CF0030C28EA05080CFA06FC4CEA37
:10066000080CC0F800C0D1F804C0BCF1010F08D0DC
:10067000BCF1020F05D0BCF1110F02D0BCF1120F7A
:1006800016D1D0F808C0D1F80C802CEA050C08FA75
:1006900006F848EA0C08C0F80880D0F804C02CEA34
:1006A000070C0F79C7F30017974047EA0C0747601C
:1006B000C768AF438D68B5403D43C5604D68ED00E8
:1006C0006BD53A4D2E6846F002062E602D6822F05A
:1006D000030606F1B04605F002050095D6F808C4F9
:1006E00095072F0F09FA07F52CEA050C304DA842A3
:1006F00002D100252EE050E02E4DA84201D1012567
:1007000028E02D4DA84201D1022523E02B4DA8421F
:1007100001D103251EE02A4DA84201D1042519E08C
:10072000284DA84201D1052514E0274DA84201D14A
:1007300006250FE0254DA84201D107250AE0244DEA
:10074000A84201D1082505E0224DA84201D1092582
:1007500000E00A25BD4045EA0C05C6F808542568A6
:100760004E689D43F60300D51D43256065684E68BD
:100770009D43B60300D51D436560DAF80050564628
:100780004F689D43FF0200D51D43356075684F6873
:100790009D43BF0200D51D437560521C102AFFF413
:1007A00033AFBDE8F88F000080000058F4440258D1
:1007B000000002580004025800080258000C0258B9
:1007C000001002580014025800180258001C025869
:1007D00000200258002402580069084000D001207F
:1007E000704742694A40426170470AB101837047CD
:1007F000418370470148806870470000140000245E
:100800000248816802781144816070471400002416
:10081000032010B500F0A2F80F2000F007F808B18F
:10082000012010BD00F06CF8002010BD70B50D4D1A
:1008300004464FF47A712878B1FBF0F00A49096850
:10084000B1FBF0F000F0A4FC48B9102C07D2002254
:100850002146501E00F062F800206C6070BD01203F
:1008600070BD00001400002400000024134A4178E9
:100870001160111D03780A1DE3B143680B60017B11
:10088000C37A090741EA0361837A41EAC341437BA2
:1008900041EA8341837B41EA4341C37B41EA03410F
:1008A000437A41EA0321037A007841EA4301014394
:1008B00011607047002008601060704798ED00E0FC
:1008C000BFF35F8F0448016821F480310160024961
:1008D000002070310860704724ED00E0074940F0C7
:1008E0000100086005487038016841F480310160FA
:1008F000BFF34F8FBFF36F8F7047000094ED00E0A0
:100900007047002809DB012100F01F0291404009D7
:10091000800000F1E020C0F8001170470E4BF0B4E9
:100920001B68C3F30223C3F10704042C00D9042479
:100930001D1D072D01D2002300E0DB1E012606FA53
:1009400004F56D1E0D409D409E40761E164045EA02
:100950000601F0BC00F014BE0CED00E0064A00F009
:10096000070110684FF6FF03184040EA01200349D1
:1009700008431060704700000CED00E00000FA052D
:100980002DE9F047DFF8BC9104460E46D9F8000087
:1009900000F00700B0420CD2D9F8001021F0070196
:1009A0003143C9F80010D9F8000000F00700B04248
:1009B0007ED12078DFF89081800707D5D8F8001025
:1009C000E26821F00F011143C8F800102078C00739
:1009D00062D0D8F80010A26821F470611143C8F801
:1009E000001059496068183902281CD003281DD00E
:1009F000096801281DD04907002960DA524F083FD5
:100A0000396821F0070101433960FFF7F3FE05461D
:100A1000606841F28831022813D003281ED00128D3
:100A20008A4627D034E009688903E5E70968890127
:100A3000E2E7C905E0E7FFF7DDFE411B514501D9BB
:100A400023E08A463868C0F3C2000228F3D123E0CD
:100A5000FFF7D0FE411B514501D916E08A463868A0
:100A6000C0F3C2000328F3D116E0FFF7C3FE411B19
:100A700051450AD83868C0F3C2000128F5D10BE00F
:100A8000FFF7B8FE411B514502D90320BDE8F087AE
:100A9000386810F0380FF3D1D9F80010484601F04B
:100AA0000701B1420DD9016821F00701314300E08F
:100AB00005E00160006800F00700B04201D00120AD
:100AC000E4E72078400707D5D8F80010226921F024
:100AD00070011143C8F80010207801071B4805D5A4
:100AE0000168626921F07001114301602178C90633
:100AF00005D50168A26921F4E06111430160207805
:100B0000800607D51149091D0868E26920F07000C8
:100B10001043086000F066F8D8F800104FF48072B7
:100B200092FAA2F201F47061B2FA82F2D140084A5C
:100B3000515CC840074908600F20FFF777FE00208E
:100B4000A4E7000000200052184402581C44025838
:100B5000CE1700080000002410B5FFF7BBFC0849C1
:100B60000968012292FAA2F201F00F01B2FA82F2B0
:100B7000D140044A515CC8400349086010BD0000E0
:100B800018440258CE1700080400002410B5FFF7DF
:100B9000E3FF07490968102292FAA2F201F07001FE
:100BA000B2FA82F2D140034A515CC84010BD000045
:100BB0001C440258CE17000810B5FFF7CDFF0749B7
:100BC00009684FF4807292FAA2F201F4E061B2FA7D
:100BD00082F2D140024A515CC84010BD1C44025808
:100BE000CE1700083548F0B50068364D10F03801D2
:100BF000334809D00411082904D0334E10290BD0F2
:100C000018290BD02046F0BD29688906FBD5296834
:100C1000C1F3C101C840F0BD3046F0BD27491831CD
:100C20000A68096812F00302284BC1F305111B681A
:100C3000274F03F001033F68DFED260AB7EE001AE5
:100C4000C7F3CC0717FB03F300EE103A224BB8EEC4
:100C5000400A06D0012A01D0022A2BD0B4FBF1F0C1
:100C600008E02A68920603D52A68C2F3C102D04080
:100C7000B0FBF1F001EE900A1868B8EE612AC0F3FB
:100C8000080001EE900A1868F8EE611A40EE201A8A
:100C900031EE810A22EE000AC0F34620401C00EE2D
:100CA000900AF8EE600A80EE201ABCEEC10A10EE3F
:100CB000100AF0BDB6FBF1F0DCE70000104402586A
:100CC0000090D0030044025840787D012C44025823
:100CD0003444025800000039304402582DE9F05FD6
:100CE00004460078DFF8FC8341F28839DFF8F8A386
:100CF000FE4DC0074ED0D8F800104046C1F3C201E7
:100D000002291AD00068C0F3C200032805D1DAF81E
:100D1000000000F0030002280FD06068B0F5803FAB
:100D200012D010B1B0F5A02F19D0286820F480306F
:100D30002860286820F4802009E02868800329D5ED
:100D40006068002874D025E0286840F4803028606E
:100D5000606890B1FFF74EFD06464F4609E02868EF
:100D600040F480202860EFE7FFF744FD801BB84285
:100D70007DD828688003F7D50CE0FFF73BFD0646D9
:100D80004F4604E0FFF736FD801BB842F0D82868D4
:100D90008003F7D42078D64F80075AD5D8F80010B2
:100DA00040464FF47C3B11F0380F13D00068C0F37D
:100DB000C200032803D1DAF8000080070AD0E068F7
:100DC000A8B3296821F0190101432960FFF712FD3A
:100DD00006461DE02868400702D5E0680028B1D02B
:100DE0002868E16820F0190008432860FFF702FD39
:100DF000064604E0FFF7FEFC801B0228B8D82868EE
:100E00004007F7D507E0FFF7F5FC801B0228AFD8B5
:100E100028684007F7D538689BFAABF220F47C319C
:100E20002069B2FA82F290400143396011E000E09B
:100E3000AEE0286820F001002860FFF7DBFC0646E2
:100E400004E0FFF7D7FC801B022891D828684007F0
:100E5000F7D42078C00655D5D8F8001040464FF09A
:100E6000F84BC1F3C201012917D0006800E0EDE0A2
:100E7000C0F3C200032805D1DAF8000000F0030037
:100E800001280AD0E069002828682CD040F08000B2
:100E90002860FFF7AFFC064616E02868C00502D5BB
:100EA000E069802874D138689BFAABF220F0F841F1
:100EB000206AB2FA82F290400143396022E0FFF7E3
:100EC00099FC801B022899D82868C005F7D5386896
:100ED0009BFAABF2216AB2FA82F220F0F84091401C
:100EE000084338600EE020F080002860FFF782FCA5
:100EF000064604E0FFF77EFC801B022887D828689E
:100F0000C005F7D42078000724D5774F60694C37A7
:100F1000002838680FD040F001003860FFF76AFC05
:100F2000064604E0FFF766FC801B02288DD838686F
:100F30008007F7D50EE020F001003860FFF75AFC7B
:100F4000064604E0FFF756FC801B02287ED838686E
:100F50008007F7D42078800623D5A0690028286868
:100F60000FD040F480502860FFF744FC064604E0B0
:100F7000FFF740FC801B022868D828688004F7D55A
:100F80000FE020F480502860FFF734FC064605E0AF
:100F9000D6E0FFF72FFC801B022857D82868800472
:100FA000F7D42078400744D5524F386840F4807019
:100FB0003860FFF71FFC064604E0FFF71BFC801BB0
:100FC000642843D83868C005F7D5474FA06848372C
:100FD00001280AD008B1052811D0386820F0010096
:100FE0003860386820F0040002E0386840F0010002
:100FF0003860A06888B1FFF7FDFB064609E0386855
:1010000040F004003860F0E7FFF7F4FB811B49452E
:101010001CD838688007F7D50BE0FFF7EBFB0646D6
:1010200004E0FFF7E7FB811B49450FD838688007CC
:10103000F7D4606AF0B3D8F80010C1F3C2010329F5
:101040007ED00228286820F0807000E079E02860D7
:1010500003D0FFF7CFFB044687E0FFF7CBFB064644
:1010600004E0FFF7C7FB801B02287BD828688001BB
:10107000F7D4DAF8001040F2F3329143E26A41EA21
:101080000211A26A1143CAF8001094F834004FF418
:10109000FE02218E4002491EA0F5007080B2C1F30D
:1010A00008010843218F491E02EA0141084394F8D0
:1010B0003C1000E05CE0491E120202EA01610843B4
:1010C0000949083108600B1D19684FF6F872A06CC9
:1010D000914392FAA2F2B2FA82F29040014319606F
:1010E000014809E0104402582844025800440258BC
:1010F0000444025800480258001D0168226C21F087
:101100000C01114301600168626C21F0020111437E
:101110000160016841F480310160016841F40031EF
:101120000160016841F480210160016841F0010122
:101130000160286840F080702860FFF75BFB01E0E9
:1011400018E00FE0044604E0FFF754FB001B022800
:1011500008D828688001F7D50AE0FFF74BFB001B91
:10116000022802D90320BDE8F09F28688001F4D44A
:101170000020F8E70120F6E74FF0E0210428086995
:1011800003D020F004000861704740F00400FAE743
:10119000401EB0F1807F10B501D3012010BD4FF08B
:1011A000E02460610F21601700F0EAF90020A061DF
:1011B00007202061002010BD10B5006886B01B49D3
:1011C000884230D11A48016841F00101016000688D
:1011D00000F00100059016481030016841F0100140
:1011E000016000680121134C00F0100005904FF4DD
:1011F000007000900220CDE90101039007206946AC
:1012000004902046FFF7F4F94FF4806120460091E6
:101210006946FFF7EDF92520FFF773FB0322252030
:101220001146FFF77BFB06B010BD00000010014027
:10123000E04402580000025830B500681149884265
:101240000CD1114A5088010408D411464FF0000314
:101250004404097806D50A2901D0538030BD40F4F2
:1012600000400DE00D2909D0084DC0F30D04401CCD
:1012700080B2C72829555080EFD830BD40F4804057
:10128000508030BD001001400C00002430000024CC
:1012900054482DE9F041524C86B0016841F00201FA
:1012A0000160016841F0200101604E480C3801687E
:1012B00041F4804101604020009002200190032011
:1012C000DFF82481002569460A270497CDE90250FA
:1012D0004046FFF78DF904206946092604960090E0
:1012E0004046FFF785F90496C020404E69460090BD
:1012F0003046FFF77DF94FF440706946049700903F
:101300003046FFF775F937486438016841F4804189
:101310000160016821F48041016031482038816812
:101320008906FCD43249016032494160016841F0CC
:101330000101016081688906FCD44FF49C71416110
:1013400081688907FCD5C16841F00201C1608168EC
:101350008906FCD44FF48371416181688907FCD50B
:10136000C16841F00201C16081688906FCD422494C
:101370004161056181684907FCD530212170016810
:1013800041F00401016081688907FCD5C16841F022
:101390000201C16081688906FCD481688906FCD499
:1013A000C561164941611648016821F48031016028
:1013B000134970310A6822F001020A600A1D1560A3
:1013C00082060F4B78331A601B1D0E4A1A600522E5
:1013D0000A60016841F48031016006B0BDE8F08127
:1013E00020500052E04402580004025800140258F1
:1013F0001003000101041600C0030003EBEF180FF7
:1014000024ED00E02D00030370B5294C9CB0256845
:1014100025F004052560264C00260C34256845F48B
:1014200040452560256805F440451B952568AD04B9
:10143000FCD5012400940CAD0396240401940224ED
:101440000994CDE90A410796082485E80D00CDE905
:1014500010466846FFF742FC98B9FFF719FF3F2096
:1014600013900320CDE9140640200101CDE9164078
:10147000CDE9180150201A90022113A8FFF780FA35
:1014800010B101201CB070BD0A48016841F0800114
:1014900001600848F430016841F002010160006811
:1014A00000F002001B90FFF79BF80020EAE7000025
:1014B0000C480258004402581C48016841F470016D
:1014C00001601B49086840F001000860184A0020CC
:1014D000103210600A68174B1A400A60144A18321A
:1014E0001060121D1060121D1060114A2832106029
:1014F000121D1060121D1060121D1060121D106070
:10150000121D1060121D1060121D10600A6822F476
:1015100080220A6006496031086001200649C1F84E
:101520000801C006014980390860704788ED00E075
:10153000004402587FEDF6EA0080005170B50D4D71
:1015400000240D48FEF7CBFF02E0641CAC4204D837
:101550000948FEF7C9FF2028F7D1002402E0641CE7
:10156000AC4206D8054901220348FEF7C2FF002815
:10157000F5D170BDFFFF0100F80000240C0000242D
:101580000907090E002804DB00F1E02080F80014B0
:10159000704700F00F0000F1E02080F8141D704744
:1015A0007047000010B504460420FFF7E5FD014830
:1015B000046010BD0800002470B5002405464FF4F7
:1015C0007A7603E0304600F005F8641CAC42F9D3AB
:1015D00070BD000070B54FF0E02500216C69094A2C
:1015E000AB6912685043AA699A42FCD002D2A3EBBD
:1015F000020302E0A4EB020633441944134681427D
:10160000F1D370BD080000240349CA695206FCD515
:10161000C2B20A8570470000001001401CB5FEF7F9
:101620009BFFFFF7F5F8042302220521A020FFF716
:10163000EBFE4FF4C870FFF7B5FF4FF4E13000F058
:10164000A5F8FEF75BFFFEF75EFFFEF761FFFEF712
:1016500064FFFEF767FF334C4FF478401026C82232
:1016600033463221206030A0CDE900601E20FEF715
:101670005EFF32A01023C822CDE9006046211E2063
:10168000FEF755FF32A01023C822CDE900605A2191
:101690001E20FEF74CFF32A01023C822CDE90060C7
:1016A0006E211E20FEF743FF1F2020602FA0102375
:1016B000C822CDE900608C211E20FEF738FFDFF83C
:1016C000C090002764254FF08008FEF735FF040026
:1016D00003D5404204B22BA000E02BA010238C21A4
:1016E0001A46CDE900606E20FEF721FF94FBF5F26B
:1016F00002238C217620CDE90067FEF722FF94FBC0
:10170000F5F002238C21CDE9006805FB10428E2004
:10171000FEF717FF02214846FFF763F8FA20FFF7AC
:101720004BFFD2E720000024504F4C415249532038
:10173000483735302F4637353000000054656D701E
:101740006572617475726520544553540000000041
:1017500041544F4D40414C49454E54454B000000CB
:10176000323031392F342F323900000054454D507A
:1017700045524154453A2030302E3030430000006D
:10178000000402582D000000200000000B490A4A06
:1017900010B5C1E9002000208860C8600861886138
:1017A0000C2048610846FEF7D1FEBDE81040044910
:1017B00001220248FEF79DBE00100140F8000024FF
:1017C0000C0000244FF04070E1EE100A704700005A
:1017D00000000102030401020304060708090000D7
:1017E000001800080000002430000000D4020008A7
:1017F0003018000830000024C80F0000F002000874
:101800000090D0030090D003000000000000000012
:1018100000000000010000001000000000000000B7
:10182000000000FFFFFFFFFF0000000000000000BD
:0200000490006A
:10000000782900F043800020704700000FB40449B5
:1000100010B503AA029800F0F1F810BC5DF814FBCB
:10002000100000242DE9F0410E4604460020206215
:100030002046E168884730B3252805D0D4E901215E
:100040009047206A401CF2E7E16820460027884775
:10005000050018D0A5F14100192802D820354FF429
:1000600000673246294620462760FFF7C9FF40B1A6
:10007000012804D0F61D26F007060836D8E7361DFD
:10008000D6E72846DAE7206ABDE8F08170B5044675
:100090000D4621461068AFF300802188090502D57E
:1000A0000F4A7A4402E00E4A7A440E32002104F1EB
:1000B000240305E000F00F060009965D5E54491C1C
:1000C0000028F7D120780023000704D5702D02D036
:1000D00009B1022311322046BDE8704000F034B867
:1000E000DAA9000010B5203AC0F00B80B1E8185032
:1000F000203AA0E81850B1E81850A0E81850BFF412
:10010000F5AF5FEA027C24BFB1E81850A0E81850B0
:1001100044BF18C918C0BDE810405FEA827C24BF04
:1001200051F8043B40F8043B08BF7047D20728BF92
:1001300031F8023B48BF11F8012B28BF20F8023BE1
:1001400048BF00F8012B70472DE9F0470D4699464E
:100150009246044600F124080168880604D5E06947
:1001600021F01001216000E00120A84201DD471BC1
:1001700000E00027A1697A1902EB0900081AA061C2
:100180002078C00602D42046AFF30080002608E0A5
:10019000D4E901211AF806009047206A401C761C19
:1001A00020624E45F4DB2078C0060AD52046AFF326
:1001B000008006E0D4E9012130209047206A401CED
:1001C0002062381EA7F10107F4DC07E0D4E9012121
:1001D00018F805009047206A401C2062281EA5F1EF
:1001E0000105F3DC2046AFF300802078000602D53D
:1001F0000220BDE8F0870120FBE70000074B70B547
:100200000D467B4400F011F80446284600F020F823
:1002100010B14FF0FF3070BD204670BD0314007860
:1002200001694A1C02610878704700B58FB0CDE9BA
:1002300001310021059105497944CDE903101146AA
:100240006846FFF7EFFE0FB000BD0000E5FFFFFFBF
:10025000007B00F08000704740F2F57CC0F6000C97
:10026000604741F2B95CC0F6000C604740F2F15CB7
:10027000C0F6000C604740F6E53CC0F6000C604755
:1002800040F6593CC0F6000C604741F2B91CC0F67C
:10029000000C604741F2D55CC0F6000C604740F2AC
:1002A000EB7CC0F6000C604740F6C10CC0F6000CB9
:1002B000604740F66D0CC0F6000C604740F6DD0C60
:1002C000C0F6000C604740F2D97CC0F6000C6047D5
:1002D00040F6010CC0F6000C604741F2392CC0F624
:1002E000000C604740F27B3CC0F6000C604740F6D3
:1002F0008D3CC0F6000C604740F6B93CC0F6000CDF
:10030000604770B504460068816801F00301012967
:1003100025D10168C90722D0816801F00D010129AA
:100320000FD1816841F002018160216803200860DB
:10033000FFF792FF05460EE0FFF78EFF401B0228F5
:1003400009D9606D40F010006065A06D40F00100BB
:10035000A065012070BD20688068C007ECD1002036
:1003600070BD000070B504460068816801F00301AB
:10037000012902D10168C90723D18168124A1142BB
:1003800010D1816841F001018160FFF765FF0546EA
:1003900012E0816841F001018160FFF75DFF401BC1
:1003A000022809D9606D40F010006065A06D40F032
:1003B0000100A065012070BD20680168C943C9071C
:1003C000E7D1002070BD00003F000080FEE77047CD
:1003D00070B5B3F5804F05D06FF0704140F8221032
:1003E000002070BD50F82230084C2340D1E9004570
:1003F0008E8944EA05148D6889692D0245EA06450F
:100400002C430C431C4340F82240E9E70000F0CFA6
:10041000F0B50C6850F824501A4A1540D1E9012370
:10042000D1E903671A433E4332434E6932438E6932
:100430003243CE6932430E6A32434E6A32438E6A89
:100440003243CE6A32430E6B32438E6B32434E6B75
:1004500032432A43082B01D142F0400240F82420C5
:100460000A6BB2F5801F05D10A684AB1026842F4EE
:10047000801202600A681AB10268496B0A4302607E
:100480000020F0BD8004C0FF00EB8202F0B553688D
:100490008E8903F04044D1E9003543EA05138D68A5
:1004A0002D0245EA06450E8A2B430D4D05EB0656F7
:1004B00033430E7D6F0107EB066633438E6933438A
:1004C000234353600268D20207D54268098A22F4A6
:1004D000700205EB0151114341600020F0BD0000A6
:1004E0000000F0FF30B5D1E901230D681A43D1E9CE
:1004F000033423431A434B691A438B691A43D1E9E6
:100500000734496A012D056807D01A4322430A437C
:100510006FF30E052A4302600AE025F4F8452343F1
:1005200029430B43416803606FF30E010A434260A5
:10053000002030BD426942EA41014161002070471C
:1005400018B5D1E900236FF01F041A438B68C968FE
:1005500004EB431343EA41210A4300920261002065
:1005600018BD0000F0B5D1E900346FF00F055B1E37
:100570002E0105EB041423438C682F034FEA054C2E
:100580000D8A06EB04248E8A2343CC68097E4FF043
:100590007F4E012A07EB05450CEB06560EEB016179
:1005A0000CD082683F1107EB043423432B433343C1
:1005B0000B4302F07042134383600FE08768084AE0
:1005C00017402203C468A2F5805232433A43826046
:1005D0002B430B4304F070442343C3600020F0BD61
:1005E000FF0F0FFF0FB400B587B069462198009048
:1005F00001200190072002900020039004900590B4
:1006000008A800F0E5F808A800F07CFD0A2108A879
:1006100000F0DCFC08A800F06FFB07B080B25DF8CA
:1006200014FB0FB42DE9F041B0B000250DF16808BE
:100630002C46DDE94F761EE0542236A916A8FFF7B6
:1006400051FD4B982B904C982C904D984E995422DC
:100650001597CDE92D0141466846FFF743FD0DF1A1
:10066000580C9CE80F00FFF7BDFF05440520FFF77D
:10067000F8FD641CE4B2B442DED3B5FBF6F030B052
:10068000BDE8F00180B25DF814FB000010B524480D
:100690002DED028BB0B00488214820300088542210
:1006A000DFED200A001B204900EE100A17A8B8EE63
:1006B000C00A80EE808AFFF715FD1B48416D2C9122
:1006C000806D2D9018491C31086C496C5422CDE97D
:1006D0002E010A211220CDE915011BA96846FFF75A
:1006E00001FD0DF15C0C9CE80F00FFF79AFF001B69
:1006F00000EE100A9FED0D1B30B0F8EE400AB3EE8D
:100700000E0A08EE200ABDEC028BB7EEC00A20EEFE
:10071000010BBDEEC00B10EE100A00B210BD0000C0
:1007200020E8F11F0000A042340300240000000074
:10073000000059402DE9F041044690F85000002592
:10074000164601280F460CD0012084F850002046A0
:10075000FFF7D7FD0100606D2A4605D040F010007C
:1007600031E00220BDE8F08120F4885040F0020022
:1007700060652068836823F080433343836020688A
:10078000836823F480333B4383602068836843F0AD
:100790000043836020684FF47A460CE06D1CB5423C
:1007A00009D3606D20F0020040F010006065012068
:1007B00084F85020D6E78368002BEFDB606D20F0D3
:1007C000020040F001006065084684F85020C9E747
:1007D0002DE9F84F0023FC4C4FF0804E9B460093D0
:1007E00090F85020012A28D0012580F85050026846
:1007F000966876077ED4D669AA460F78BD402E4308
:10080000D6614A681F254FF4F868052A18D2066891
:10081000376B98FAA8FCBCFA8CFC02FB0CFC05FABE
:100820000CF598FAA8FCAF430D68BCFA8CFC02FBEF
:100830000CF295402F43376349E00220BDE8F88F62
:100840000A2A16D20668776B98FAA8FC521FBCFADF
:100850008CFC02FB0CFC05FA0CF598FAA8FCAF43E3
:100860000D68BCFA8CFC02FB0CF295402F437763B9
:100870002DE006680F2A15D2B76B98FAA8FC0A3A41
:10088000BCFA8CFC02FB0CFC05FA0CF598FAA8FCEF
:10089000AF430D68BCFA8CFC02FB0CF295402F4371
:1008A000B76314E0F76B98FAA8FC0F3ABCFA8CFC1B
:1008B00002FB0CFC05FA0CF598FAA8FCAF430D6896
:1008C000BCFA8CFC02FB0CF295402F43F7630268E4
:1008D00095684FF038064FF0070915F00C0F7DD1E1
:1008E0000D680A2D1BD3976996FAA6FC0A3DBCFA3F
:1008F0008CFC00E0C9E105FB0CF809FA08FC96FA4B
:10090000A6F827EA0C07D1F808C0B8FA88F805FB62
:1009100008F50CFA05FC47EA0C07976117E05769E0
:1009200096FAA6FCBCFA8CFC05FB0CF809FA08FC4C
:1009300096FAA6F827EA0C07D1F808C0B8FA88F8A2
:1009400005FB08F50CFA05FC47EA0C07576102683D
:100950004D69D7684FF0F84CC7F382077F00BD4060
:100960000F69012F4AD0022F6AD0032F7DD0042FA8
:100970007CD0156E9CFAACF805F0F8470D68B8FA13
:1009800088F805FA08F5AF4203D1156E25F0004549
:1009900015660268556E9CFAACF805F0F8470D68CC
:1009A000B8FA88F805FA08F5AF4203D1556E25F07C
:1009B000004555660268956E9CFAACF80F68B8FA67
:1009C00088F805F0F84507FA08F7BD4203D1956E9F
:1009D00025F0004595660268D56E00E02FE09CFA90
:1009E000ACFC05F0F8470D68BCFA8CFC05FA0CF578
:1009F000AF4224D1D56E25F0004589E0176E9CFAF0
:100A0000ACFC07F000480F68BCFA8CFC07FA0CF746
:100A10002F4348EA0708C2F86080026815690F7E14
:100A200025F400653D4315614A7E002A0268156E73
:100A300002D045F0004501E025F00045156668E06C
:100A4000576E9CFAACFC07F000480F68BCFA8CFCAF
:100A500007FA0CF72F4348EA0708C2F864800268D7
:100A600015690F7E25F4805501E00FE031E045EA7D
:100A7000470515614A7E002A0268556E02D045F08E
:100A8000004501E025F00045556642E0976E9CFA6E
:100A9000ACFC07F000480F68BCFA8CFC07FA0CF7B6
:100AA0002F4348EA0708C2F86880026815690F7E7C
:100AB00025F4005545EA870515614A7E002A02683B
:100AC000956E02D045F0004501E025F000459566A1
:100AD0001FE0D76E9CFAACFC07F000480F68BCFA28
:100AE0008CFC07FA0CF72F4348EA0708C2F86C8021
:100AF000026815690F7E25F4804545EAC705156132
:100B00004A7E002A02683FF475AFD56E45F0004575
:100B1000D5660268956805F00305012D02D11568B8
:100B2000ED0761D1CD68754507D052F8C06F0F78D9
:100B30000AFA07F5AE4316603CE052F8C07F91F820
:100B400000C00AFA0CF52F4317600A680568092AE5
:100B500018D3AF6996FAA6FC093ABCFA8CFC96FA4F
:100B6000A6F602FB0CF8B6FA86F609FA08FC724300
:100B700027EA0C07D1F808C00CFA02FC47EA0C0778
:100B8000AF6117E06F6996FAA6FC521CBCFA8CFCA8
:100B900096FAA6F602FB0CF8B6FA86F609FA08FCF5
:100BA000724327EA0C07D1F808C00CFA02FC47EAA6
:100BB0000C076F61054E0568054FB54201D0BD4277
:100BC0000AD1044A09E000000060025800200240F7
:100BD0000021024000230240444A0968122904D03F
:100BE000112907D013290AD054E0D2F808C04FEADF
:100BF0000C2C08E0D2F808C04FEACC1C03E0D2F875
:100C000008C04FEA4C2CBCF1000F43DBD5F808C0FC
:100C10000CF0030CBCF1010F04D1D5F800C05FEA61
:100C2000CC7C32D1B54210D1D6F8087107F0030759
:100C3000012F03D1D6F80061F60726D1A66806F089
:100C40000306012E2AD126681DE0BD42B76807F0D1
:100C500003070BD1012F02D13768FF0715D1A76811
:100C600007F00307012F06D1276802E0012F02D108
:100C70003768FF0709D1D6F8087107F00307012F7D
:100C80000CD1D6F80061F60708D0416D41F0200183
:100C90004165012380F850B01846CFE512290AD0EB
:100CA00011291CD01329F5D1A542F3D1916841F443
:100CB00080019160EEE7A542ECD1916841F400011A
:100CC00091600B490B4A0968B1FBF2F1C1EB0111CC
:100CD000C90000E0491E00910029FBD1DAE7A542D6
:100CE000D8D1916841F08071E3E7000000630258B9
:100CF0000000002480841E000068006C7047000023
:100D0000F8B54FF0000504002E46009502D0606D46
:100D100010B107E00120F8BD204600F021F9A665DA
:100D200084F8506020688168890003D5816821F0CB
:100D30000051816020688168C90010D4816841F049
:100D4000805181607D487E490068B0FBF1F000EB86
:100D50008000400000E0401E00900028FBD1206889
:100D60008168C90008D4616D41F010016165A16D11
:100D700041F00101A1650125616DC9067ED481683C
:100D80004907FBD4616D41F0020161656D4A6E4E09
:100D9000904201D0B04201D16C4900E06C498368B7
:100DA00003F00303012B02D10368DB0739D1694B40
:100DB000904210D1D2F8080100F00300012803D1BD
:100DC000D2F80001C0072CD1986800F00300012878
:100DD00021D118681DE0B042906800F003000BD1EB
:100DE000012802D11068C0071BD1986800F00300E9
:100DF000012806D1186802E0012802D11068C00756
:100E00000FD1D2F8080100F00300012803D1D2F875
:100E10000001C00705D18868626820F47C10104387
:100E20008860A1684FF48033206B627D93FAA3F34E
:100E300008434FF40051B3FA83F391FAA1F1B1FAE8
:100E400081F18A40217F01FA03F31A4310430129FB
:100E500009D14FF46022216A92FAA2F2491EB2FA35
:100E600082F291400843616A012903D0A26A0AB163
:100E7000114308432168CA68374B00E056E01A4026
:100E80000243CA602068816811F00C0F28D14FF42A
:100E90008042217D92FAA2F2B2FA82F29140E26A95
:100EA0001143C26844F203039A430A43C26094F8B0
:100EB000390001281CD02068016921F0010101617D
:100EC00020680169626B21F070411143016194F85F
:100ED00038000128206881681AD021F4807181606F
:100EE000E06801282068016B21F00F0113D015E0A4
:100EF000D4E91010A28F01230143A06C03EB02423E
:100F00001043014320680269144B1A401143D6E78D
:100F100041F48071E3E7A269521E11430163606DE1
:100F200020F0020040F00100606504E0606D40F0D8
:100F30001000606501252846F8BD0000000000246F
:100F400080841E0000200240002102400023024055
:100F5000006302580060025803C0F0FF1EF800FC56
:100F6000184800B5B5B0016841F020010160006883
:100F700000F02000349013480830016841F080717F
:100F80000160016801F080713491016841F0010154
:100F90000160006800F0010034904FF400200090E0
:100FA00080102890684600F0F5FB20202F90032049
:100FB00030900020319004482FA9FFF757F935B041
:100FC00000BD0000D8440258000002582DE9F04747
:100FD00004460069DFF81C91012608280F4622D03C
:100FE00020684946884202D0434A90421DD1D1F838
:100FF0000823D20619D0D1F8082302F01F02052ACF
:1010000013D0D1F8081301F01F0109290DD03B4876
:101010008168C1F3813102290AD08068C0F3813030
:10102000032805D00BE008250AE0C068C00706D0F9
:10103000606D40F0200060650120BDE8F087042568
:10104000FFF70AF9804611E0781C0FD02FB1FFF7A7
:1010500003F9A0EB0800B84208D9606D40F0040025
:101060006065002084F850000320E6E720680068EF
:101070002842E9D020680168090700D400264946C3
:10108000884224D01E4A904221D0D1F80823D206AB
:101090001DD0D1F8082302F01F02052A17D0D1F87D
:1010A000082302F01F02092A11D0C968082D10D0A8
:1010B0004A0401D404220260606D40F4007060654F
:1010C000B6B12068C06810F4406F04D010E0C16869
:1010D000ECE70822EFE788040AD4606D20F4807002
:1010E0006065606DC00403D4606D40F00100606510
:1010F0000020A2E70020024000210240002302401D
:101100000060025870B5044600688068400767D4E4
:1011100094F8500001280AD0012084F8500020469D
:10112000FFF720F901004FF0000202D045E0022055
:1011300070BD606DC00404D5A06D20F00600A065F0
:1011400000E0A265606D40F60163984340F4807052
:101150006065254B2068984206D0244DA84203D0F4
:10116000D3F80853ED0603D1656D25F48015656548
:101170001C2505602068984222D01D4DA8421FD032
:10118000D3F80853ED061BD0D3F8085305F01F051C
:10119000052D15D0D3F8085305F01F05092D0FD0E4
:1011A000606D40F480106065D868800105D5606D81
:1011B00020F4005040F48050606584F8502010E026
:1011C000C3689B0105D5636D23F4005343F480533A
:1011D000636584F85020826842F00402826000E077
:1011E0000221084670BD000000200240002102409C
:1011F0000060025810B528B190F83510022903D0CC
:1012000080214165012010BD1D4A4FF4956301689E
:101210008C189C4207D8042280F83520086820F0FA
:101220000100086029E00C6824F00E040C600168DD
:101230000A440A6822F001020A60016E0A6822F478
:1012400080720A6090F85C30012202FA03F10D4BC3
:101250001960D0E919134B60C16E31B10B6823F4EA
:1012600080730B60D0E91C134B60002180F83410B0
:1012700080F83520016D01B18847002010BD0000C5
:10128000F0FFFDBF045402582DE9F041044690F8E8
:10129000A00015460F4601281DD0012684F8A06045
:1012A000022084F8A10005EB850000EBC500342284
:1012B00004EB80003830FEF715FF2A4639462046F9
:1012C00004F04EFA2068466284F8A160002084F899
:1012D000A000BDE8F0810220FBE7000070B504002B
:1012E00004D094F8A100002510B106E0012070BDE3
:1012F000204684F8A05000F06BF8022084F8A1008A
:101300002068816921F070418161D4E901100143B5
:10131000D4E90302104301432068826911438161CB
:101320002068826829490A408260A08A02042068F5
:101330008368A6693343134383602068C2680A4008
:10134000C260A08B02042068C368266A334313433B
:10135000C360206802690A400261A08C0204206810
:101360000369A66A334313430361206842690A4054
:101370004261A08D010420684269236B1A430A432D
:10138000426194F83500020294F8360001042068A6
:10139000C36A03F07F43C3622068C36A114394F8B1
:1013A000346033430B43C3622068416B41F0060154
:1013B00041632068816941F001018161C4F8A45052
:1013C000012084F8A100002070BD000000F800F0AA
:1013D0002B4810B586B0016841F008010160006833
:1013E00000F00800059026481038016841F010010F
:1013F0000160006800F0100005902148001F01689E
:1014000041F480710160016801F480710591016807
:1014100041F400710160016801F4007105910168F7
:1014200041F48061016000680324694600F4806033
:1014300005902020009001200190CDE90204114880
:10144000FEF714FF4FF4E0400090022001900020CE
:101450006946CDE902040E2004900B48FEF706FF12
:1014600048F67C60009009486946FEF7FFFEFF20C1
:10147000009007486946FEF7F9FE06B010BD00006F
:10148000E444025800040258002002580024025884
:101490000028025870B5044690F8A0000E460128B6
:1014A00020D0012584F8A050022084F8A10003EB8D
:1014B000830000EBC30004EB80018E63086E3044B0
:1014C000C1E90F02486E1044486438311A4620467C
:1014D00004F046F92068456284F8A150002084F8A1
:1014E000A00070BD022070BD70B5044690F8A00049
:1014F0000E46012820D0012584F8A050022084F84F
:10150000A10003EB830000EBC30004EB8001886BB8
:101510003044C863086C10444864C1E9186238312B
:101520001A46204604F01CF92068456284F8A15050
:10153000002084F8A00070BD022070BD10B5FEF739
:101540009AFE084909684FF4807292FAA2F201F4F7
:101550007061B2FA82F2D140034A515CC84003493B
:10156000086010BD18440258CE170008000000247F
:1015700010B5FEF785FE07490968102292FAA2F21B
:1015800001F07001B2FA82F2D140034A515CC840C6
:1015900010BD000020440258CE170008364930B56F
:1015A0000A68096812F00302344BC1F305311B6865
:1015B000334C03F010032468DFED320AB7EE001A53
:1015C000C4F3CC0414FB03F300EE103A2E4BB8EE38
:1015D000400A07D02D4C012A01D0022A4AD0B4FB80
:1015E000F1F10BE0244C283C22689506284A03D5EB
:1015F0002468C4F3C104E240B2FBF1F101EE901A99
:101600001968B8EE612AC1F3080101EE901A196851
:10161000F8EE611A40EE201A31EE810A22EE000A3D
:10162000C1F34621491C00EE901AF8EE600A80EEE4
:10163000201AFCEEC10AC0ED000A1968C1F3064188
:10164000491C00EE901AF8EE600A80EE201AFCEEBB
:10165000C10AC0ED010A1968C1F30661491C00EE18
:10166000901AF8EE600A80EE201ABCEEC10A80EDF6
:10167000020A30BD074ABFE7284402582C440258EA
:101680003C440258000000393844025800093D002B
:101690000090D00340787D01364930B50A6809686A
:1016A00012F00302344BC1F305511B68334C03F4B1
:1016B00080732468DFED320AB7EE001AC4F3CC045D
:1016C00014FB03F300EE103A2E4BB8EE400A07D09D
:1016D0002D4C012A01D0022A4AD0B4FBF1F10BE0D3
:1016E000244C283C22689506284A03D52468C4F374
:1016F000C104E240B2FBF1F101EE901A1968B8EEB4
:10170000612AC1F3080101EE901A1968F8EE611A16
:1017100040EE201A31EE810A22EE000AC1F3462182
:10172000491C00EE901AF8EE600A80EE201AFCEEDA
:10173000C10AC0ED000A1968C1F30641491C00EE58
:10174000901AF8EE600A80EE201AFCEEC10AC0ED95
:10175000010A1968C1F30661491C00EE901AF8EEFF
:10176000600A80EE201ABCEEC10A80ED020A30BD8C
:10177000074ABFE7284402582C4402584444025800
:10178000000000394044025800093D000090D00399
:1017900040787D012DE9F84F0446006800252E466B
:1017A000010104F12400FE4FDFF8F88300901DD5FD
:1017B000606E50B1B0F5801F0CD0B0F5001F0ED098
:1017C000B0F5401F1DD001250FE0386840F400300F
:1017D000386016E00221201D04F09EF803E0009816
:1017E000022104F011F905000BD02E462088C00517
:1017F00023D5606D05281ED2DFE800F00C11161B02
:101800001B00D8F80010626E21F440111143C8F893
:101810000010EBE7386840F40030386009E0002140
:10182000201D04F079F803E00098002104F0ECF8A2
:1018300005466DB100E001252E432088800528D59E
:10184000A06D80281ED00CDC90B140280ED114E091
:10185000D8F80010626D21F007011143C8F800109C
:10186000EBE7C02813D0B0F5807F10D001250FE042
:10187000386840F40030386009E00021201D04F091
:101880004BF803E00098002104F0BEF8054685B14E
:101890002E432088DFF8109340052CD5D4F8A400FF
:1018A000B0F5800F20D00DDCA0B1B0F5001F0FD136
:1018B00015E0D8F80010A26D21F4E0711143C8F8CA
:1018C0000010E6E7B0F5C00F13D0B0F5000F10D050
:1018D00001250FE0386840F40030386009E000214D
:1018E000201D04F019F803E00098002104F08CF8A2
:1018F000054675B12E43208800052DD5D4F8A800E3
:10190000B0F1007F21D00EDCA8B1B0F1807F10D102
:1019100016E0D9F80010D4F8A42021F46001114396
:10192000C9F80010E7E7B0F1407F13D0B0F1806F45
:1019300010D001250FE0386840F40030386009E02D
:101940000021201D03F0E8FF03E00098002104F0CF
:101950005BF805466DB12E43206880011FD5A06C51
:10196000D8B110280FD0202812D0302815D001254A
:1019700014E0D9F80010D4F8A82021F0E061114358
:10198000C9F80010E8E7386840F40030386004E037
:101990000221201D03F0C0FF05466DB12E432088B3
:1019A000C0042BD5E06DB0F5005F20D00DDCA0B1F8
:1019B000B0F5805F0FD115E07A48001F0168A26C76
:1019C00021F0300111430160E9E7B0F5405F13D029
:1019D000B0F5804F10D001250FE0386840F400309A
:1019E000386009E00021201D03F096FF03E0009815
:1019F000002104F009F8054685B12E4320888004B3
:101A000029D5206EB0F5403F23D010DC08B3B0F5E7
:101A1000803F14D0B0F5003F0FD115E0D8F800108A
:101A2000E26D21F4E0411143C8F80010E6E7B0F59B
:101A3000802F0ED0B0F5A02F0BD001250AE0012198
:101A4000201D03F069FF03E00098012103F0DCFF93
:101A500005468DB12E43208840042AD5D4F8AC0029
:101A6000B0F1405F23D010DC08B3B0F1805F14D038
:101A7000B0F1005F0FD115E0D8F80010226E21F40C
:101A8000E0211143C8F80010E5E7B0F1804F0ED017
:101A9000B0F1A04F0BD001250AE00121201D03F079
:101AA0003BFF03E00098012103F0AEFF05466DB156
:101AB0002E43208800041FD5E06ED8B1B0F1805FBE
:101AC0000ED0B0F1005F10D0012514E0D9F800105D
:101AD000D4F8AC2021F0E0411143C9F80010E8E748
:101AE000386840F40030386004E00121201D03F024
:101AF00013FF05466DB12E432068C0011ED5606CF2
:101B0000D0B101280ED0022811D0032814D001250D
:101B100013E0D8F80010E26E21F040511143C8F8EC
:101B20000010E9E7386840F40030386004E0022132
:101B3000201D03F0F1FE054675B12E432068DFF845
:101B40006CB040025AD51A48016841F480710160B6
:101B5000FEF782FB82460EE01248001F0168626CAD
:101B600021F0030111430160E8E7FEF775FBA0EBEC
:101B70000A0064283AD80E480068C005F5D5B5BB00
:101B8000094818300068B4F8B01000F4407001F44F
:101B90004071884219D00448183001680AE00000FA
:101BA0002C440258504402585844025810440258D9
:101BB00000480258026821F4407142F48032026009
:101BC000026822F4803202600160D4F8B000B0F5FF
:101BD000807F22D1FEF740FB824609E0FEF73CFB06
:101BE000A0EB0A0141F28830814201D9032504E0CB
:101BF000FE4800688007F1D57DB12E432078DFF8DC
:101C0000F0A3C0073CD0A06F182837D025DC78B3EC
:101C1000082828D0102824D12BE0D4F8B000C0F335
:101C2000012103290ED0DBF8001021F47C51CBF800
:101C30000010EE480168B4F8B020C2F30B02114363
:101C40000160DBE7DBF80020EA4B22F47C5203EA78
:101C500010100243CBF80020EBE720280ED02828F4
:101C60000CD001250BE00121201D03F055FE04E0FE
:101C700004E00098012103F0C7FE05465DB12E4344
:101C8000207880071ED5606F062819D2DFE800F0A3
:101C9000160C11161616DAF80010A26F21F0380192
:101CA0001143CAF80010EBE70121201D03F034FEB8
:101CB00003E00098012103F0A7FE054675B100E09E
:101CC00001252E43207840071FD5D4F89000062820
:101CD00019D2DFE800F0160C11161616DAF800100B
:101CE000626F21F007011143CAF80010EAE70121F1
:101CF000201D03F011FE03E00098012103F084FE93
:101D000005469DB100E001252E43207880062BD5A5
:101D1000D4F88C00B0F1405F24D011DC10B3B0F1E6
:101D2000805F15D0B0F1005F10D116E0D9F8001037
:101D3000D4F8902021F007011143C9F80010E4E71E
:101D4000B0F1804F0ED0B0F1A04F0BD001250AE0CA
:101D50000021201D03F0E0FD03E00098022103F0C4
:101D600053FE05468DB12E43207840062BD5D4F87E
:101D70009800B0F5406F24D011DC10B3B0F5806F3F
:101D800015D0B0F5006F10D116E0DAF80010D4F8D5
:101D90008C2021F0E0411143CAF80010E4E7B0F5CF
:101DA000805F0ED0B0F5A05F0BD001250AE00021C6
:101DB000201D03F0B1FD03E00098022103F024FE92
:101DC00005468DB12E43207800062BD5D4F89C0013
:101DD000B0F5C04F24D011DC10B3B0F5005F15D0C2
:101DE000B0F5804F10D116E0D9F80010D4F8982043
:101DF00021F4E0511143C9F80010E4E7B0F5004FB9
:101E00000ED0B0F5204F0BD001250AE00021201D97
:101E100003F082FD03E00098022103F0F5FD054682
:101E200065B32E43207800070BD5D4F88000B0F5B9
:101E3000805F2DD0DAF8002022F440520243CAF825
:101E400000202078C0060BD5D4F89400B0F5807F30
:101E500024D0D9F8002022F440720243C9F80020AF
:101E6000206800032CD5D4F8A000E8B1B0F5803F7D
:101E70001FD0B0F5003F21D0012520E0D9F8001097
:101E8000D4F89C2021F460411143C9F80010C9E73F
:101E90000098022103F0B8FD0643D2E70098022122
:101EA00003F0B2FD0643DBE70021201D03F034FD03
:101EB00003E00098022103F0A7FD054685B12E43FB
:101EC0002068400322D5D4F88400B0F5801F11D0DB
:101ED000B0F5001F13D0B0F5401F15D0012514E058
:101EE000D9F80010D4F8A02021F440311143C9F8EA
:101EF0000010E5E7386840F40030386004E00098EE
:101F0000012103F081FD054655B12E432068C00331
:101F10001CD5E06C70B1B0F5803F10D0012514E005
:101F2000DAF80010D4F8842021F440111143CAF8E3
:101F30000010EBE7386840F40030386004E002211C
:101F4000201D03F0E9FC0546C5B12E432068800042
:101F500004D50098022103F057FD06432068800352
:101F60001BD5E06FB8B1B0F5807F10D0B0F5007F21
:101F700011D0B0F5407F0ED001250DE01C48083887
:101F80000168E26C21F4803111430160DEE73868BA
:101F900040F40030386045B32E432068C00207D5B6
:101FA000D8F80000226F20F000401043C8F800006D
:101FB0002068C00008D5DBF80010D4F8B42021F464
:101FC00080411143CBF800102068800207D5D8F873
:101FD0000010A26E21F080711143C8F80010206833
:101FE000400014D5DBF8001006E01EE070440258F3
:101FF00054440258CFFFFF0021F40041CBF80010F9
:10200000DBF80010D4F8B8201143CBF8001020689A
:10201000002806DA0A480168226D21F04051114378
:1020200001605EB10120BDE8F88FDAF80010E26FC0
:1020300021F440711143CAF80010AEE70020F2E726
:102040004C44025870B504000D4603D094F82C009F
:1020500010B107E0012070BD002084F82D0020465B
:1020600000F018F8022084F82C002068211DFEF7EB
:1020700039FAD4E900022946FEF774FA04480168E7
:1020800041F000410160012084F82C00002070BD67
:1020900000400052444800B587B0016841F0020199
:1020A0000160006800F0020005903F482038016898
:1020B00041F480510160006800F4805005903A4876
:1020C0001438016841F004010160016801F0040165
:1020D0000591016841F008010160016801F0080103
:1020E0000591016841F010010160016801F01001E3
:1020F0000591016841F020010160016801F02001B3
:102100000591016841F040010160016801F0400162
:102110000591016841F080010160016801F08001D2
:102120000591016841F4807101600068694600F41E
:10213000807005900D2000900220019001200290F7
:10214000032003900C2004901848FEF78FF84CF2FF
:102150000370009016486946FEF788F84FF68370C2
:10216000009014486946FEF781F84FF63F00009052
:1021700011486946FEF77AF848F2371000900F4888
:102180006946FEF773F84FF47F4000900C486946AB
:10219000FEF76CF840F2FF6000900A486946FEF7CF
:1021A00065F807B000BD0000F4440258000802586A
:1021B000000C02580010025800140258001802586F
:1021C000001C02580020025810B5044690F82C005C
:1021D000022809D0022084F82C002068FEF7AAF912
:1021E000012084F82C00002010BD70B5044690F842
:1021F0002C000D4602280CD0022084F82C00206808
:10220000FEF79EF92868022804D0012084F82C00EB
:10221000002070BD0520F9E770B5040015460E4694
:1022200003D094F8450010B107E0012070BD0020F4
:1022300084F84400204600F021F8206804F10801E9
:10224000FEF7E6F8A26831462068FEF71DF9E36A5A
:102250002946D4E90102FEF7BBF8A168206850F8CE
:10226000212042F0010240F821200348016841F09A
:1022700000410160002070BD004000521A4800B5C6
:1022800087B0016841F480510160006800F480501B
:10229000059015480C30016841F0080101600168A3
:1022A00001F008010591016841F01001016000682A
:1022B000694600F0100005904EF2B37000900220C5
:1022C000019001200290032003900C200490074805
:1022D000FDF7CCFF4FF68070009005486946FDF78A
:1022E000C5FF07B000BD0000D4440258000C0258DE
:1022F000001002587047704790F8791090F87A00F3
:102300000843704770B502680446D0691368916845
:1023100010F00F0F64D0594D03F490760D40354303
:1023200076D0C50707D0DD0505D501251562E26F1A
:1023300042F00102E267820708D5CA0706D0256885
:1023400002222A62E26F42F00402E267420708D5E5
:10235000CA0706D0256804222A62E26F42F0020210
:10236000E26702070ED503F0200201F080552A43F0
:1023700052EAC17206D0256808222A62E26F42F052
:102380000802E267E26F002A3AD0800608D503F01F
:10239000200001F08051084302D0204603F0C9FC20
:1023A000E06F000703D42068806840062AD52046E5
:1023B00003F0B1FC2068816849061ED5816821F0D0
:1023C00040018160606FC0B12D490165606FFEF70B
:1023D00011FF002814D0606F016DBDE87040084700
:1023E000850615D503F0200501F0805635430FD042
:1023F0002046BDE8704003F09CBC2046FFF77BFF01
:1024000070BD05E02046FFF776FF0020E067F7E7A4
:10241000C6024FF020050CD54E020AD5E803106223
:1024200084F8795084F87A502046BDE87040FFF770
:1024300061BF06060AD503F0800601F400010E43D1
:1024400004D02046BDE8704003F002BF41060BD522
:10245000590609D51168204621F04001116084F821
:10246000795000F097F8CBE70002C9D55800C7D5DE
:10247000106820F080401060C2E7000001000010EA
:10248000035D009010B5040003D094F8790010B1FA
:1024900007E0012010BD002084F878002046FDF7F9
:1024A000F4FE242084F879002068016821F00101FD
:1024B0000160204603F078FC0128EBD0606B10B17E
:1024C000204603F08CFB2068416821F49041416074
:1024D0002068816821F02A0181602068016841F04C
:1024E000010101602046BDE8104003F0DCBB90F81C
:1024F0007A30202B4CD1B9B1B2B190F87830012BA1
:1025000046D0012380F878304166A0F86820A0F812
:102510006A20FF228168B1F5805F07D07F2351B127
:10252000B1F1805F0CD010E001207047016921B942
:1025300040F2FF1107E0016909BBA0F86C2004E03C
:102540000169E1B13F21A0F86C100021C16722228E
:1025500080F87A2080F8781001688A6842F00102D9
:102560008A6001680A6892000CD50A6842F4807299
:102570000A600068816841F08051816006E0A0F83F
:102580006C30E2E7086840F4907008600020704703
:10259000022070477047FEE71B4870B586B001689F
:1025A00041F001010160016801F00101059101683C
:1025B00041F004010160016801F004010591016826
:1025C00041F080010160006803240025694600F0A5
:1025D0008000059002200126CDE902040B48CDE9D8
:1025E0000065FDF743FE700303948DE86100084821
:1025F0006946FDF73BFE0C20009006486946FDF752
:1026000035FE06B070BD0000E044025800000258DC
:1026100000080258001C02580E490F4A70B50646C1
:1026200008881268002422B13046BDE8704002F0EC
:10263000CBBD4D8800214543084602F017FC02F04F
:102640008BFDB1B2054801E00180641CAC42FBD3B4
:1026500070BD0000C4010024B00200240000086026
:102660002DE9F05F394C3A4DA071296839B102F07B
:10267000CFFDE88A2080288B6080BDE8F09F334939
:102680002C232A254FF0F0092B2649F2413A4FF42A
:10269000305E45F2105B89884FF448774FF4A0789C
:1026A00045F2103C4FF4F07258B1A4F80080514547
:1026B000A4F8029001D0614529D123816581A681CA
:1026C00039E0A4F800905145A4F8028001D061459A
:1026D00008D1238161456581A68131D1A4F80080AC
:1026E00062802DE0594508D1A4F808E04FF4285045
:1026F00060814FF42C50A08106E0A1F5C8506338EA
:102700001ED123816681A5812280678018E059450A
:1027100008D1A4F808E04FF4285060814FF42C5001
:10272000A08106E0A1F5C850633804D123816581FA
:10273000A68127806280614502D12280A4F80280B0
:102740000020BDE8F05F02F0B5BA0000C40100242B
:10275000B00200242DE9F04104463A480D460068D5
:1027600020B12046BDE8F04102F066BD364E270A92
:102770004FEA15283146B0884989A0F51343413BFB
:102780000CD0A0F5A643103B08D0A0F5AA43103BFF
:1027900011D0A0F5C853633B27D04BE0084602F0A8
:1027A000CFFC384602F0C0FCE0B202F0BDFCB089BC
:1027B00002F0C6FC38E0084602F0C2FC384602F0DF
:1027C000B3FC7089401C80B202F0BAFCE0B202F0A7
:1027D000ABFCB08902F0B4FC404602F0A5FCB08925
:1027E000401C80B202F0ACFC21E0B07918B930880E
:1027F000001B401E84B2084602F0A2FC270A38469D
:1028000002F092FCE0B202F08FFC384602F08CFC41
:10281000E0B202F089FCB08902F092FC404602F07E
:1028200083FCE8B202F080FC404602F07DFCE8B296
:1028300002F07AFC054930890880881C0280BDE8D6
:10284000F0810000B0020024C4010024FEFF0760F4
:102850002DE9F04F95B002F025FFFE4D4FF6FF7ABF
:1028600049F2413945F21036A5F14C0845F21054B1
:1028700041F66317A88018B102F052FD02F08DB93D
:10288000F548016841F00201016000680EA900F0FE
:102890000200139020200E9001200F901090032032
:1028A0001190EE48FDF7E2FC02F0A4F9EC49102289
:1028B000C8F800104046EB49C8F804100021C8F8D9
:1028C0000810C8F80C10C0E904121202C8F8181059
:1028D000C8F81C10C0E908129200C0E90A1292015F
:1028E000C8F830101120C8E90D12CDE907015520B4
:1028F000099015200290CDE90001D6486A460D9155
:102900004C38069107A9FFF787FC3220FDF7A9FC98
:10291000D32002F015FC02F099F9A88002F096F994
:10292000A88002F093F90AEA00205246A88002F03B
:102930008DF9A9880843A880484546D0D42002F0E4
:10294000FFFB02F083F9A88002F080F9A88002F072
:102950007DF902EA0020A88002F078F9A9880843EE
:10296000A880B04231D04FF45A4002F0E9FB02F0A7
:102970006DF9A8804FF45B4002F0E2FB02F066F9CB
:1029800002EA0020A8804FF45C4002F0D9FB02F07C
:102990005DF9A9880843A880B0F5004F7DD0A0421A
:1029A00013D0A12002F0CCFB02F050F9A88002F075
:1029B0004DF902EA0020A88002F048F9A9880843EE
:1029C000A880A0F5AE41613968D080B2484566D193
:1029D000CF2002F0B5FB002002F0A6FBC12002F0E0
:1029E000A3FB302002F0A0FBED2002F0A9FB642045
:1029F00002F09AFB032002F097FB122002F094FBF6
:102A0000812002F091FBE82002F09AFB852002F081
:102A10008BFB102002F088FB7A2002F085FBCB2094
:102A200002F08EFB392002F07FFB2C2002F07CFBB1
:102A3000002002F079FB342002F076FB022002F045
:102A400073FBF72002F07CFB202002F06DFBEA20F4
:102A500002F076FB002002F067FB002002F064FB2E
:102A6000C02002F06DFB1B2002F05EFBC12002F0D3
:102A700067FB012002F058FBC52002F061FB30200B
:102A800002F052FB302002F04FFBC72002F058FB4F
:102A9000B72002F049FB362002E0B4E0B0E0B4E039
:102AA00002F04EFB482002F03FFB3A2002F048FBC8
:102AB000552002F039FBB12002F042FB002002F069
:102AC00033FB1A2002F030FBB62002F039FB0A205B
:102AD00002F02AFBA22002F027FBF22002F030FBDA
:102AE000002002F021FB262002F02AFB012002F048
:102AF0001BFBE02002F024FB0F2002F015FB2A2034
:102B000002F012FB282002F00FFB082002F00CFB61
:102B10000E2002F009FB082002F006FB542002F010
:102B200003FBA92002F000FB432002F0FDFA0A207B
:102B300002F0FAFA0F2002F0F7FA002002F0F4FA9D
:102B4000002002F0F1FA002002F0EEFA002002F07C
:102B5000EBFAE12002F0F4FA002002F0E5FA152089
:102B600002F0E2FA172002F0DFFA072002F0DCFAA6
:102B7000112002F0D9FA062002F0D6FA2B2002F03A
:102B8000D3FA562002F0D0FA3C2002F0CDFA05200C
:102B900002F0CAFA102002F0C7FA0F2002F0C4FABD
:102BA0003F2002F0C1FA3F2002F0BEFA0F2002F0EF
:102BB000BBFA2B2002F0C4FA002002F0B5FA002084
:102BC00002F0B2FA012002F0AFFA3F2002F0ACFAB4
:102BD0002A2002F0B5FA002002F0A6FA002002F046
:102BE000A3FA002002F0A0FAEF2002F09DFA1120D3
:102BF00002F0A6FA7820FDF734FB292001F010BF7F
:102C0000AF8001F012BFAC80FDE3B0427ED1ED2079
:102C100002F096FA012002F087FAFE2002F084FA10
:102C2000EE2002F08DFADE2002F07EFA212002F082
:102C30007BFAF12002F084FA012002F075FADF201D
:102C400002F07EFA102002F06FFAC42002F078FA47
:102C50008F2009E0C4010024E04402580004025817
:102C6000004000520441005202F05EFAC62002F019
:102C700067FA002002F058FAE22002F055FAE2204A
:102C800002F052FAE22002F04FFABF2002F058FAA6
:102C9000AA2002F049FAB02002F052FA0D2002F008
:102CA00043FA002002F040FA0D2002F03DFA002025
:102CB00002F03AFA112002F037FA002002F034FA5A
:102CC000192002F031FA002002F02EFA212002F041
:102CD0002BFA002002F028FA2D2002F025FA00201D
:102CE00002F022FA3D2002F01FFA002002F01CFA46
:102CF0005D2002F019FA002002F016FA5D2002F0C1
:102D000013FA002002F010FAB12000E0FEE302F016
:102D100017FA802002F008FA002002F005FA8B2052
:102D200002F002FA002002F0FFF9962002F0FCF90E
:102D3000002002F0F9F9B22002F002FA002002F0BD
:102D4000F3F9002002F0F0F9022002F0EDF9002082
:102D500002F0EAF9032002F0E7F9002002F0E4F9BA
:102D6000B32002F0EDF9002002F0DEF9002002F0BD
:102D7000DBF9002002F0D8F9002002F0D5F900209C
:102D800002F0D2F9002002F0CFF9002002F0CCF9D5
:102D9000002002F0C9F9002002F0C6F9002002F07C
:102DA000C3F9002002F0C0F9002002F0BDF90020B4
:102DB00002F0BAF9002002F0B7F9002002F0B4F9ED
:102DC000002002F0B1F9002002F0AEF9002002F07C
:102DD000ABF9002002F0A8F9002002F0A5F90020CC
:102DE00002F0A2F9002002F09FF9002002F09CF905
:102DF000002002F099F9B42002F0A2F98B2002F031
:102E000093F9002002F090F9962002F08DF900204D
:102E100002F08AF9A12002F087F9002002F084F97B
:102E2000B52002F08DF9022002F07EF9002002F0B8
:102E30007BF9032002F078F9002002F075F90420F4
:102E400002F072F9002002F06FF9B62002F078F972
:102E5000002002F069F9002002F066F9B72002F0C4
:102E60006FF9002002F060F9002002F05DF93F20C8
:102E700002F05AF9002002F057F95E2002F054F9EE
:102E8000002002F051F9642002F04EF9002002F017
:102E90004BF98C2002F048F9002002F045F9AC20F3
:102EA00002F042F9002002F03FF9DC2002F03CF988
:102EB000002002F039F9702002F036F9002002F00B
:102EC00033F9902002F030F9002002F02DF9EB20C8
:102ED00002F02AF9002002F027F9DC2002F024F9A0
:102EE000002002F021F9B82002F02AF9002002F0B7
:102EF0001BF9002002F018F9002002F015F900205B
:102F000002F012F9002002F00FF9002002F00CF993
:102F1000002002F009F9002002F006F9BA2002F0C0
:102F20000FF9242002F000F9002002F0FDF8002043
:102F300002F0FAF8002002F0F7F8C12002F000F9E0
:102F4000202002F0F1F8002002F0EEF8542002F008
:102F5000EBF8002002F0E8F8FF2002F0E5F800208E
:102F600002F0E2F8C22002F0EBF80A2002F0DCF8EE
:102F7000002002F0D9F8042002F0D6F8002002F078
:102F8000D3F8C32002F0DCF83C2002F0CDF800209A
:102F900002F0CAF83A2002F0C7F8002002F0C4F8A4
:102FA000392002F0C1F8002002F0BEF8372002F00C
:102FB000BBF8002002F0B8F83C2002F0B5F8002081
:102FC00002F0B2F8362002F0AFF8002002F0ACF8C0
:102FD000322002F0A9F8002002F0A6F82F2002F01B
:102FE000A3F8002002F0A0F82C2002F09DF80020A9
:102FF00002F09AF8292002F097F8002002F094F8E5
:10300000262002F091F8002002F08EF8242002F031
:103010008BF8002002F088F8242002F085F80020C8
:1030200002F082F8232002F07FF8002002F07CF802
:103030003C2002F079F8002002F076F8362002F009
:1030400073F8002002F070F8322002F06DF80020D2
:1030500002F06AF82F2002F067F8002002F064F80E
:103060002C2002F061F8002002F05EF8292002F026
:103070005BF8002002F058F8262002F055F80020F6
:1030800002F052F8242002F04FF8002002F04CF831
:10309000242002F049F8002002F046F8232002F034
:1030A00043F8002002F040F8C42002F049F8622002
:1030B00002F03AF8002002F037F8052002F034F868
:1030C000002002F031F8842002F02EF8002002F0F7
:1030D0002BF8F02002F028F8002002F025F8182044
:1030E00002F022F8002002F01FF8A42002F01CF8E1
:1030F000002002F019F8182002F016F8002002F063
:1031000013F8502002F010F8002002F00DF80C2007
:1031100002F00AF8002002F007F8172002F004F885
:10312000002002F001F8952001F0FEFF002001F0E0
:10313000FBFFF32001F0F8FF002001F0F5FFE6208F
:1031400001F0F2FF002001F0EFFFC52001F0F8FFD1
:10315000322001F0E9FF002001F0E6FF442001F0F9
:10316000E3FF002001F0E0FF652001F0DDFF00201B
:1031700001F0DAFF762001F0D7FF002001F0D4FF44
:10318000882001F0D1FF002001F0CEFFC62001F021
:10319000D7FF202001F0C8FF002001F0C5FF172055
:1031A00001F0C2FF002001F0BFFF012001F0BCFFD1
:1031B000002001F0B9FFC72001F0C2FF002001F09C
:1031C000B3FF002001F0B0FF002001F0ADFF0020B0
:1031D00001F0AAFFC82001F0B3FF002001F0A4FF16
:1031E000002001F0A1FF002001F09EFF002001F06F
:1031F0009BFFC92001F0A4FF002001F095FF0020F3
:1032000001F092FF002001F08FFF002001F08CFF01
:10321000002001F089FF002001F086FF002001F06E
:1032200083FF002001F080FF002001F07DFF0020DF
:1032300001F07AFF002001F077FF002001F074FF19
:10324000002001F071FF002001F06EFF002001F06E
:103250006BFF002001F068FFE02001F071FF1620F5
:1032600001F062FF002001F05FFF1C2001F05CFF15
:10327000002001F059FF212001F056FF002001F04D
:1032800053FF362001F050FF002001F04DFF462093
:1032900001F04AFF002001F047FF522001F044FFF7
:1032A000002001F041FF642001F03EFF002001F00A
:1032B0003BFF7A2001F038FF002001F035FF8B2022
:1032C00001F032FF002001F02FFF992001F02CFFC8
:1032D000002001F029FFA82001F026FF002001F0C6
:1032E00023FFB92001F020FF002001F01DFFC420C2
:1032F00001F01AFF002001F017FFCA2001F014FFAF
:10330000002001F011FFD22001F00EFF002001F09B
:103310000BFFD92001F008FF002001F005FFE0209D
:1033200001F002FF002001F0FFFEF32001F0FCFE9F
:10333000002001F0F9FEE12001F002FF162001F06B
:10334000F3FE002001F0F0FE1C2001F0EDFE002055
:1033500001F0EAFE222001F0E7FE002001F0E4FE89
:10336000362001F0E1FE002001F0DEFE452001F0F4
:10337000DBFE002001F0D8FE522001F0D5FE002037
:1033800001F0D2FE642001F0CFFE002001F0CCFE5F
:103390007A2001F0C9FE002001F0C6FE8B2001F06A
:1033A000C3FE002001F0C0FE992001F0BDFE002008
:1033B00001F0BAFEA82001F0B7FE002001F0B4FE33
:1033C000B92001F0B1FE002001F0AEFEC42001F0F2
:1033D000ABFE002001F0A8FECA2001F0A5FE0020EF
:1033E00001F0A2FED22001F09FFE002001F09CFE21
:1033F000D82001F099FE002001F096FEE02001F0B7
:1034000093FE002000E08BE301F08EFEF32001F03C
:103410008BFE002001F088FEE22001F091FE0520E5
:1034200001F082FE002001F07FFE0B2001F07CFE07
:10343000002001F079FE1B2001F076FE002001F053
:1034400073FE342001F070FE002001F06DFE442078
:1034500001F06AFE002001F067FE4F2001F064FEDB
:10346000002001F061FE612001F05EFE002001F00D
:103470005BFE792001F058FE002001F055FE882007
:1034800001F052FE002001F04FFE972001F04CFEAB
:10349000002001F049FEA62001F046FE002001F0C8
:1034A00043FEB72001F040FE002001F03DFEC220A7
:1034B00001F03AFE002001F037FEC72001F034FE93
:1034C000002001F031FED12001F02EFE002001F09D
:1034D0002BFED62001F028FE002001F025FEDD2085
:1034E00001F022FE002001F01FFEF32001F01CFE7F
:1034F000002001F019FEE32001F022FE052001F07A
:1035000013FE002001F010FE0A2000E006E301F0A7
:103510000BFE002001F008FE1C2001F005FE00203B
:1035200001F002FE332001F0FFFD002001F0FCFD60
:10353000442001F0F9FD002001F0F6FD502001F0DB
:10354000F3FD002001F0F0FD622001F0EDFD002010
:1035500001F0EAFD782001F0E7FD002001F0E4FD34
:10356000882001F0E1FD002001F0DEFD972001F050
:10357000DBFD002001F0D8FDA62001F0D5FD0020E4
:1035800001F0D2FDB72001F0CFFD002001F0CCFD0D
:10359000C22001F0C9FD002001F0C6FDC72001F0E6
:1035A000C3FD002001F0C0FDD12001F0BDFD0020D1
:1035B00001F0BAFDD52001F0B7FD002001F0B4FD07
:1035C000DD2001F0B1FD002001F0AEFDF32001F09F
:1035D000ABFD002001F0A8FDE42001F0B1FD0120C9
:1035E00001F0A2FD002001F09FFD012001F09CFDF3
:1035F000002001F099FD022001F096FD002001F06D
:1036000093FD2A2001F090FD002001F08DFD3C206B
:1036100001F08AFD002001F087FD4B2001F084FDC0
:10362000002001F081FD5D2001F07EFD002001F011
:103630007BFD742001F078FD002001F075FD8420F1
:1036400001F072FD002001F06FFD932001F06CFD90
:10365000002001F069FDA22001F066FD002001F0CC
:1036600063FDB32001F060FD002001F05DFDBE2090
:1036700001F05AFD002001F057FDC42001F054FD77
:10368000002001F051FDCD2001F04EFD002001F0A1
:103690004BFDD32001F048FD002001F045FDDD2069
:1036A00001F042FD002001F03FFDF32001F03CFD60
:1036B000002001F039FDE52001F042FD002001F07D
:1036C00033FD002001F030FD002001F02DFD002031
:1036D00001F02AFD022001F027FD002001F024FD69
:1036E000292001F021FD002001F01EFD3C2001F009
:1036F0001BFD002001F018FD4B2001F015FD0020FE
:1037000001F012FD5D2001F00FFD002001F00CFD25
:10371000742001F009FD002001F006FD842001F075
:1037200003FD002001F000FD932001F0FDFC0020CE
:1037300001F0FAFCA22001F0F7FC002001F0F4FCFB
:10374000B32001F0F1FC002001F0EEFCBE2001F0FE
:10375000EBFC002001F0E8FCC42001F0E5FC0020B7
:1037600001F0E2FCCD2001F0DFFC002001F0DCFCE8
:10377000D32001F0D9FC002001F0D6FCDC2001F0C0
:10378000D3FC002001F0D0FCF32001F0CDFC0020A0
:1037900001F0CAFCE62001F0D3FC112001F0C4FCCA
:1037A000002001F0C1FC342001F0BEFC002001F03B
:1037B000BBFC562001F0B8FC002001F0B5FC7620DF
:1037C00001F0B2FC002001F0AFFC772001F0ACFC6E
:1037D000002001F0A9FC662001F0A6FC002001F009
:1037E000A3FC882001F0A0FC002001F09DFC9920A2
:1037F00001F09AFC002001F097FCBB2001F094FC42
:10380000002001F091FC992001F08EFC002001F0D5
:103810008BFC662001F088FC002001F085FC55201F
:1038200001F082FC002001F07FFC552001F07CFCBF
:10383000002001F079FC452001F076FC002001F029
:1038400073FC432001F070FC002001F06DFC44206B
:1038500001F06AFC002001F067FCE72001F070FC39
:10386000322001F061FC002001F05EFC552001F0E7
:103870005BFC002001F058FC762001F055FC002094
:1038800001F052FC662001F04FFC002001F04CFCDE
:10389000672001F049FC002001F046FC672001F0A0
:1038A00043FC002001F040FC872001F03DFC00209B
:1038B00001F03AFC992001F037FC002001F034FCC3
:1038C000BB2001F031FC002001F02EFC992001F01A
:1038D0002BFC002001F028FC772001F025FC0020C3
:1038E00001F022FC442001F01FFC002001F01CFC30
:1038F000562001F019FC002001F016FC232001F0F5
:1039000013FC002001F010FC332001F00DFC00201E
:1039100001F00AFC452001F007FC002001F004FC46
:10392000E82001F00DFC002001F0FEFB002001F07A
:10393000FBFB992001F0F8FB002001F0F5FB87204C
:1039400001F0F2FB002001F0EFFB882001F0ECFB1E
:10395000002001F0E9FB772001F0E6FB002001F0F8
:10396000E3FB662001F0E0FB002001F0DDFB882096
:1039700001F0DAFB002001F0D7FBAA2001F0D4FB14
:10398000002001F0D1FBBB2001F0CEFB002001F0B4
:10399000CBFB992001F0C8FB002001F0C5FB66209D
:1039A00001F0C2FB002001F0BFFB552001F0BCFB81
:1039B000002001F0B9FB552001F0B6FB002001F01A
:1039C000B3FB442001F0B0FB002001F0ADFB44202C
:1039D00001F0AAFB002001F0A7FB552001F0A4FB99
:1039E000002001F0A1FBE92001F0AAFBAA2001F0D0
:1039F0009BFB002001F098FB002001F095FB0020CC
:103A000001F092FB002001F09BFBAA2001F08CFB4F
:103A1000CF2001F095FB002001F086FB002001F093
:103A200083FB002001F080FB002001F07DFB0020E3
:103A300001F07AFB002001F077FB002001F074FB1D
:103A4000002001F071FB002001F06EFB002001F06E
:103A50006BFB002001F068FB002001F065FB0020FB
:103A600001F062FB002001F05FFB002001F05CFB35
:103A7000002001F059FB002001F056FBF02001F07E
:103A80005FFB002001F050FB502001F04DFB0020B7
:103A900001F04AFB002001F047FB002001F044FB4D
:103AA000F32001F04DFB002001F03EFBF92001F076
:103AB00047FB062001F038FB102001F035FB2920E0
:103AC00001F032FB002001F02FFB3A2001F038FB1F
:103AD000552001F029FB112001F032FB6420FCF796
:103AE000C0FB292001F02CFB352001F029FB002030
:103AF00001F01AFB512001F023FBFF2001F014FB21
:103B0000532001F01DFB2C2001F00EFB552001F08D
:103B100017FB822001F008FB2C20FDE3A0427DD1A1
:103B20004FF470435521184601F020FB4FF2010B72
:103B3000AA21584601F01AFB52214FF2020001F06F
:103B400015FB08214FF2030001F010FB01214FF299
:103B5000040001F00BFB0D214FF4304001F006FB97
:103B60000D214BF2010001F001FB0D214BF202008F
:103B700001F0FCFA34214FF4364001F0F7FA342119
:103B80004BF2016001F0F2FA34214BF2026001F0D5
:103B9000EDFA0D214FF4314001F0E8FA0D214BF21E
:103BA000011001F0E3FA0D214BF2021001F0DEFAF0
:103BB00034214FF4374001F0D9FA34214BF201702F
:103BC00001F0D4FA34214BF2027001F0CFFA002157
:103BD0004FF4324001F0CAFA00214BF2012001F00B
:103BE000C5FA00214BF2022001F0C0FA24214FF463
:103BF000384001F0BBFA24214BF6010001F0B6FA7F
:103C000024214BF6020001F0B1FA01214FF43F40AC
:103C100001F0ACFA0F214FF4334000E0FEE301F075
:103C2000A5FA0F214BF2013001F0A0FA0F214BF25F
:103C3000023001F09BFA34214FF4394001F096FA3A
:103C400034214BF6011001F091FA34214BF60210A9
:103C500001F08CFA08214FF4354001F087FA082171
:103C60004BF2015001F082FA08214BF2025001F0B0
:103C70007DFA03214FF4424001F078FA24214FF4F9
:103C80003A4001F073FA24214BF6012001F06EFA5C
:103C900024214BF6022001F069FA00214FF43C4048
:103CA00001F064FA78214BF6014001F05FFA00213F
:103CB0004BF6024001F05AFA00214FF43D4001F06A
:103CC00055FA78214BF6015001F050FA00214BF6DD
:103CD000025001F04BFA00214FF43E4001F046FA49
:103CE00064214BF6016001F041FA00214FF451408C
:103CF00001F03CFA33214DF2011001F037FA0021B6
:103D00004DF2021001F032FA34214DF2031001F0AD
:103D10002DFA00214DF2041001F028FA3A214DF25B
:103D2000051001F023FA00214DF2061001F01EFAF1
:103D30004A214DF2071001F019FA00214DF2081046
:103D400001F014FA5C214DF2091001F00FFA002184
:103D50004DF20A1001F00AFA81214DF20B1001F028
:103D600005FA00214DF20C1001F000FAA6214DF2E7
:103D70000D1001F0FBF900214DF20E1001F0F6F9E3
:103D8000E5214DF20F1001F0F1F901214DF2101073
:103D900001F0ECF913214DF2111001F0E7F90121C6
:103DA0004DF2121001F0E2F954214DF2131001F01E
:103DB000DDF901214DF2141001F0D8F982214DF204
:103DC000151001F0D3F901214DF2161001F0CEF9D2
:103DD000CA214DF2171001F0C9F902214DF2181055
:103DE00001F0C4F900214DF2191001F0BFF90221D0
:103DF0004DF21A1001F0BAF901214DF21B1001F039
:103E0000B5F902214DF21C1001F0B0F934214DF248
:103E10001D1001F0ABF902214DF21E1001F0A6F9C0
:103E200067214DF21F1001F0A1F902214DF220107F
:103E300001F09CF984214DF2211001F097F9022143
:103E40004DF2221001F092F9A4214DF2231001F05D
:103E50008DF902214DF2241001F088F9B7214DF2BD
:103E6000251001F083F902214DF2261001F07EF9B0
:103E7000CF214DF2271001F079F902214DF22810DF
:103E800001F074F9DE214DF2291001F06FF90221E1
:103E90004DF22A1001F06AF9F2214DF22B1001F0D7
:103EA00065F902214DF22C1001F060F9FE214DF26E
:103EB0002D1001F05BF903214DF22E1001F056F99F
:103EC00010214DF22F1001F051F903214DF2301065
:103ED00001F04CF933214DF2311001F047F9032183
:103EE0004DF2321001F042F96D214DF2331001F024
:103EF0003DF900214FF4524001F038F933214DF2E1
:103F0000012001F033F900214DF2022001F02EF9D9
:103F100034214DF2032001F029F900214DF2042053
:103F200001F024F93A214DF2052001F01FF900219A
:103F30004DF2062001F01AF94A214DF2072001F056
:103F400015F900214DF2082001F010F95C214DF225
:103F5000092001F00BF900214DF20A2001F006F9C9
:103F600081214DF20B2001F001F900214DF20C20CE
:103F700001F0FCF8A6214DF20D2001F0F7F8002128
:103F80004DF20E2001F0F2F8E5214DF20F2001F084
:103F9000EDF801214DF2102001F0E8F813214DF267
:103FA000112001F0E3F801214DF2122001F0DEF8BA
:103FB00054214DF2132001F0D9F801214DF21420C3
:103FC00001F0D4F882214DF2152001F0CFF8012143
:103FD0004DF2162001F0CAF8CA214DF2172001F067
:103FE000C5F802214DF2182001F0C0F800214DF271
:103FF000192001F0BBF802214DF21A2001F0B6F8A9
:1040000001214DF21B2001F0B1F802214DF21C20DC
:1040100001F0ACF834214DF21D2001F0A7F8022187
:104020004DF21E2001F0A2F867214DF21F2001F091
:104030009DF802214DF2202001F098F884214DF2E4
:10404000212001F093F802214DF2222001F08EF898
:10405000A4214DF2232001F089F802214DF2242001
:1040600001F084F8B7214DF2252001F07FF80221FC
:104070004DF2262001F07AF8CF214DF2272001F0F1
:1040800075F802214DF2282001F070F8DE214DF282
:10409000292001F06BF802214DF22A2001F066F888
:1040A000F2214DF22B2001F061F802214DF22C207B
:1040B00001F05CF8FE214DF22D2001F057F80321AC
:1040C0004DF22E2001F052F810214DF22F2001F078
:1040D0004DF803214DF2302001F048F833214DF224
:1040E000312001F043F803214DF2322001F03EF877
:1040F0006D214DF2332001F039F800214FF4534087
:1041000001F034F833214DF2013001F02FF8002195
:104110004DF2023001F02AF834214DF2033001F063
:1041200025F800214DF2043001F020F83A214DF23B
:10413000053001F01BF800214DF2063001F016F8B1
:104140004A214DF2073001F011F800214DF20830FC
:1041500001F00CF85C214DF2093001F007F8002164
:104160004DF20A3001F002F881214DF20B3000F0DF
:10417000FDFF00214DF20C3000F0F8FFA6214DF2BA
:104180000D3000F0F3FF00214DF20E3000F0EEFF95
:10419000E5214DF20F3000F0E9FF01214DF2103022
:1041A00000F0E4FF13214DF2113000F0DFFF012198
:1041B0004DF2123000F0DAFF54214DF2133000F0CE
:1041C000D5FF01214DF2143000F0D0FF82214DF2D5
:1041D000153000F0CBFF01214DF2163000F0C6FF84
:1041E000CA214DF2173000F0C1FF02214DF2183004
:1041F00000F0BCFF00214DF2193000F0B7FF0221A2
:104200004DF21A3000F0B2FF01214DF21B3000F0E8
:10421000ADFF02214DF21C3000F0A8FF34214DF219
:104220001D3000F0A3FF02214DF21E3000F09EFF72
:1042300067214DF21F3000F099FF02214DF220302E
:1042400000F094FF84214DF2213000F08FFF022115
:104250004DF2223000F08AFFA4214DF2233000F00D
:1042600085FF02214DF2243000F080FFB7214DF28E
:10427000253000F07BFF02214DF2263000F076FF62
:10428000CF214DF2273000F071FF02214DF228308E
:1042900000F06CFFDE214DF2293000F067FF0221B3
