:020000040800F2
:10000000104F0424BD0200088D360008C32F0008DD
:10001000C9020008C9030008994F00080000000049
:10002000000000000000000000000000C5420008C1
:1000300083060008000000008F360008D544000841
:10004000D7020008D7020008D7020008D70200082C
:10005000D7020008D7020008D7020008D70200081C
:10006000D7020008D7020008D7020008D70200080C
:10007000D7020008D7020008D7020008D7020008FC
:10008000D7020008D7020008D7020008D7020008EC
:10009000D7020008D7020008D7020008D7020008DC
:1000A000D7020008D7020008D7020008D7020008CC
:1000B000D7020008D7020008D7020008D7020008BC
:1000C000D7020008D7020008D7020008D7020008AC
:1000D000D7020008554F0008D7020008D7020008D1
:1000E000D7020008D702000800000000D70200086D
:1000F000D7020008D7020008D7020008D70200087C
:10010000D7020008D7020008D7020008D70200086B
:10011000D7020008D7020008D7020008D70200085B
:10012000D7020008D7020008D7020008D70200084B
:10013000D7020008D7020008D7020008D70200083B
:1001400000000000000000000000000000000000AF
:10015000D7020008D7020008D7020008D70200081B
:10016000D7020008D7020008D7020008D70200080B
:10017000D7020008D7020008D7020008D7020008FB
:10018000D7020008D7020008D7020008D7020008EB
:10019000D7020008D7020008D7020008D7020008DB
:1001A000D7020008D7020008D7020008D7020008CB
:1001B000D7020008D7020008D7020008D7020008BB
:1001C000D7020008D7020008D7020008D7020008AB
:1001D000D7020008D7020008D7020008D70200089B
:1001E000D7020008D7020008D7020008D70200088B
:1001F000D7020008D7020008D7020008D70200087B
:10020000D7020008D7020008D7020008D70200086A
:10021000D7020008D7020008D7020008D70200085A
:10022000D7020008D7020008D7020008000000002B
:10023000D7020008D702000800000000D70200081B
:10024000D7020008D7020008D7020008D70200082A
:10025000D7020008D7020008D7020008D70200081A
:10026000D7020008D7020008D7020008D70200080A
:10027000D7020008D7020008D702000800000000DB
:10028000D702000800000000D702000800000000AC
:1002900000000000D7020008DFF80CD000F082F860
:1002A000004800476D530008104F042430BF72B659
:1002B000704762B6704780F30888704706488047E9
:1002C00006480047FEE7FEE7FEE7FEE7FEE7FEE73B
:1002D000FEE7FEE7FEE7FEE7D944000899020008C2
:1002E0002DE9F05F0546002092469B46884606466B
:1002F000814640241BE0284641464746224600F0FE
:1003000041F853465A46C01A914110D31146184637
:10031000224600F028F82D1A67EB01084F462246C6
:100320000120002100F01FF817EB00094E41201EAC
:10033000A4F10104DFDC484631462A464346BDE8C5
:10034000F09F40EA01039B0703D009E008C9121F90
:1003500008C0042AFAD203E011F8013B00F8013B7F
:10036000521EF9D27047202A04DB203A00FA02F12B
:10037000002070479140C2F1200320FA03F3194393
:1003800090407047202A04DB203A21FA02F0002135
:10039000704721FA02F3D040C2F120029140084395
:1003A00019467047064C074D06E0E06840F001032F
:1003B00094E8070098471034AC42F6D3FFF770FF7B
:1003C000C87B0008E87B0008FEE70000F0B5BFF33B
:1003D0004F8FBFF36F8F1E4900200860BFF34F8F10
:1003E000BFF36F8F1B4E316841F400313160BFF3B2
:1003F0004F8FBFF36F8F174970310860BFF34F8F76
:10040000081F0068C0F34E31114A43F6FF771032DF
:10041000C0F3C905284607EA411343EA8074146013
:10042000401E441CF9D1491E481CF3D1BFF34F8F25
:10043000306840F480303060BFF34F8FBFF36F8F70
:1004400003484C30016841F004010160F0BD000038
:1004500050EF00E014ED00E000204FF48031074A37
:1004600002E0536B1B0602D4491E4B1CF9D111B19B
:1004700003499163704703207047000000700052E9
:10048000FF0FE01F10B50E4A516B11F0450FFBD066
:100490000C4B4C0704D5042090639363032010BDDC
:1004A000C90702D00120906310BD1169814201D0BB
:1004B000102010BD9363506900F0080010BD0000CB
:1004C00000700052FF0FE01F10B500204FF4803283
:1004D0000D4C03E0616B11F0450F02D1521E531C0D
:1004E000F8D10AB14A0705D50320A16B41F00401F8
:1004F000A16310BDC90704D00120A16B41F0010127
:10050000A1630249A16310BD00700052FF0FE01FFC
:100510000849486B10F0450FFBD0400705D5886BA4
:1005200040F004008863032070470348886300207C
:100530007047000000700052FF0FE01F30B5054605
:100540000020174B5A6B12F0450FFBD0540705D50E
:10055000986B40F004009863032030BDD20705D0AB
:10056000986B40F001009863012030BD1A69AA42DF
:1005700001D0102030BD0B4A9A635A6912F4604FC3
:1005800003D0910404D5132030BD120C0A8030BD75
:10059000510401D5102030BD1104FCD50F2030BD11
:1005A00000700052FF0FE01F10B500204FF48032A2
:1005B0000C4B03E0596B11F0450F02D1521E541C35
:1005C000F8D10AB14A0705D50320996B41F004011F
:1005D000996310BD4906FCD50020996B41F040019C
:1005E000996310BD007000522DE9F04381468846A2
:1005F00015461E4600240B4F04EB041117F811009A
:10060000A84209D107EB41014878B04204D1891CC6
:100610004246484600F02AF8641CA4B2382CEBD3BA
:10062000BDE8F0830C7100082DE9F043814688464F
:1006300015461E4600240C4F04EB840000EB4410CA
:1006400017F81010A94209D107EB40014878B042D1
:1006500004D1891C4246484600F008F8641CA4B244
:10066000092CE9D3BDE8F083E278000810B5002337
:1006700004E011F8014B00F8014B5B1C9342F8D3E6
:1006800010BD7047F0B585B014461D460A4B1A8858
:10069000121A92B25B885B1A9BB2084F4FF0100C93
:1006A00000263F88CDE9005CCDE90376029400F096
:1006B00038FA05B0F0BD0000004504246E000024A7
:1006C0002DE9FF4114461D46084B1A88121A92B2B2
:1006D0005B885B1A9BB200261027CDE90246CDE964
:1006E000005703F045FEBDE8FF81000000450424EB
:1006F0003CB504460D4600200090019008220121DF
:10070000102003F003F91020FFF7BCFE002832D1BF
:1007100022040121372003F0F9F83720FFF7B2FE59
:10072000002828D1012303220821401E03F0FAF8F3
:1007300000220121332003F0E9F83320FFF7A2FE65
:10074000002818D1274A40F22A5309E0546B2103AC
:1007500006D4D2F880100091D2F88010019102E006
:10076000546B1C42F2D0516B090705D5906B40F0D9
:100770000800906304203CBD516B890705D5906B40
:1007800040F00200906302203CBD516B890605D504
:10079000906B40F02000906306203CBD12499163AD
:1007A0000099009A02F47F42090641EA0221009A68
:1007B00002F47F0241EA1221009A41EA1261696063
:1007C0000199019A02F47F42090641EA0221019A45
:1007D00002F47F0241EA1221019A41EA1261296082
:1007E0003CBD000000700052FF0FE01F2DE9F041FA
:1007F00005460C461646DFF858800122404617038E
:10080000394600F07EFB052000F0EAF9032003F0F2
:1008100099FCC4F3074003F095FCC4F3072003F0F0
:1008200091FCE0B203F08EFC002405E0FF2003F011
:1008300089FC2855641CA4B2B442F7D3002239467F
:10084000404600F05EFBBDE8F041052000F0C8B96D
:100850000004025830B404460D4610461A4621786A
:1008600020281DD009DC0C2812D0102814D01828FC
:100870001ED1104801FB020106E0302814D04028A8
:1008800016D10D4801FB0201284630BCFFF7AEBF70
:10089000514301F50021F7E7084801FB0201F3E7A6
:1008A000074801FB0201EFE7064801FB0201EBE705
:1008B00030BC7047001208000092080000080800D1
:1008C000002608000048080030B4054608462C7889
:1008D0006978812C0AD3402908D3FF2906D0FF2C40
:1008E00004D07F290DD24039CDB20CE00021002286
:1008F00003E000F8012B491C89B29942F9D330BCBE
:1009000070474139CDB2813CE1B2C1EB411404EBF7
:10091000811105EB410159430C2A0BD0102A0CD050
:10092000182A0DD0202AEAD101F560111A4630BCF0
:10093000FFF75CBF044A1144F8E7044A1144F5E7A5
:1009400001F5ED11F2E700000014090000DD1100CF
:10095000AFF3008070B586B04FF6FF7002F0A2FBD7
:1009600000206D4600242C54401CC0B21828FAD335
:10097000112268460021FFF739FF10216B464FF422
:10098000784608463246FFF77DFE00202C54401C76
:10099000C0B21828FAD3082268461421FFF726FFB0
:1009A00020216B4610203246FFF76CFE00202C54AD
:1009B000401CC0B21828FAD3082268461E21FFF74F
:1009C00015FF30216B4610203246FFF75BFEC82032
:1009D00004F098FC06B070BD2DE9F04FC1B082461E
:1009E0000D4616461C46A946600701D0012000E0CE
:1009F000002000EBD40B60080BFB00FB0C2C09D093
:100A0000102C07D0182C05D0202C03D0302C01D06E
:100A1000402C33D101A95B4622463046FFF71AFF2E
:100A20004FF0000828E001A810F8087000263806EA
:100A300005D54A9A2946504602F09EFB06E04C989E
:100A400020B94B9A2946504602F096FB7806070ECD
:100A50006D1CADB2A5EB0900A04205D14D460AF1CF
:100A6000010A1FFA8AFA03E0761CB6B2082EDED31A
:100A700008F101081FFA88F8D845D4D341B0BDE881
:100A8000F08F2DE9F04FA1B082460C4615461F4667
:100A9000A146780701D0012000E0002000EBD70B31
:100AA0000BFB07FB0C2F05D0102F03D0182F01D004
:100AB000202F33D101A95B463A462846FFF704FFB1
:100AC0004FF0000828E001A810F808600025300663
:100AD00005D52A9A2146504602F04EFB06E02C9896
:100AE00020B92B9A2146504602F046FB7006060EAE
:100AF000641CA4B2A4EB0900B84205D14C460AF12B
:100B0000010A1FFA8AFA03E06D1CEDB2082DDED34C
:100B100008F1010808F0FF08D845D4D321B0BDE89A
:100B2000F08F2DE9FF4F83B004460E469346DDE972
:100B30001075A046B2464FF0000920E0B9F1000F51
:100B400023D04FF0000908EB0B00401BA04202DA53
:100B5000701986B2444606985044401BB04211DBDF
:100B6000DDE9121214982B4602902046CDE90012BE
:100B70003A463146FFF785FFBF1C601984B23878CA
:100B80000028DBD107B0BDE8F08F802802D94FF0F4
:100B90000109F4E708EB0B01A1EB5501A14202DAD0
:100BA00071198EB2444606995144491BB142E9DBA2
:100BB0000D2810D0DDE9121214982B460290204621
:100BC000CDE900123A463146FFF706FF7F1C04EBE1
:100BD000550084B2D3E7701986B244467F1CF5E70E
:100BE000002206E00021491CC9B26429FBD3521C33
:100BF000D2B28242F6D3704730B405460846144656
:100C000019462A786B78812A0FD3402B0DD3FF2BFE
:100C10000BD0FF2A09D00C2910D0102910D0182988
:100C20000CD1214630BCFFF7FFBC0021002203E0BD
:100C300000F8012B491CC9B2A142F9D330BC70475E
:100C4000214630BCFFF7D0BC10B5002807D090F883
:100C50003510022905D080214165012010BD0120F9
:100C600010BD214A4FF4956401688B18A34207D840
:100C7000042280F83520086820F00100086030E088
:100C80000B6823F00E030B6001680A44A24204D8EB
:100C90000A6822F001020A6003E00A6822F00102F9
:100CA0000A60016E0A6822F480720A6090F85C1093
:100CB000012404FA01F20D490A60D0E919215160BA
:100CC000C16E31B10A6822F480730B60D0E91C2137
:100CD0005160002180F8341080F83540016D01B179
:100CE0008847002010BD0000F0FFFDBF04540258EB
:100CF0000248016841F0010101607047200400587A
:100D00002DE9F84F00226D4C4FF0B04A4FF0010929
:100D10004FF0030E4FF00F0809FA02F70B683B4043
:100D2000BB4270D14D68022D01D0122D12D1D508D1
:100D300000EB850CDCF820605507ED0E08FA05FB8A
:100D400026EA0B06D1F810B00BFA05FB4BEA060BAE
:100D5000CCF820B0D0F800C055000EFA05F62CEA09
:100D6000060C91F804B00BF0030B0BFA05FB4BEAF1
:100D70000C0BC0F800B0D1F804C0BCF1010F08D0D2
:100D8000BCF1020F05D0BCF1110F02D0BCF1120F63
:100D900016D1D0F808C02CEA060CD1F80CB00BFA2A
:100DA00005FB4BEA0C0BC0F808B0D0F804C02CEAE5
:100DB000070C0F79C7F30017974047EA0C07476005
:100DC000C768B7438E68AE403E43C6604D68ED00CD
:100DD0006DD53B4D2E6846F002062E602D6805F05D
:100DE0000205009522F0030606F1B046D6F808C4C5
:100DF00095072F0F08FA07F52CEA050C314DA8428C
:100E000002D100252EE052E02F4DA84201D101254C
:100E100028E02E4DA84201D1022523E02C4DA84206
:100E200001D103251EE02B4DA84201D1042519E074
:100E3000294DA84201D1052514E0284DA84201D131
:100E400006250FE0264DA84201D107250AE0254DD1
:100E5000A84201D1082505E0234DA84201D109256A
:100E600000E00A25BD4045EA0C05C6F8085425688F
:100E70009D434E68F60300D51D43256065689D437C
:100E80004E68B60300D51D436560DAF800509D43F7
:100E90004E68F60200D51D43CAF80050DAF8045037
:100EA0009D434E68B60200D51D43CAF80450521C3B
:100EB000102AFFF431AFBDE8F88F00008000005821
:100EC000F444025800000258000402580008025876
:100ED000000C025800100258001402580018025862
:100EE000001C0258002002580024025800690842E1
:100EF00001D0012070470020704742694A4042619A
:100F00007047002A01D00183704741837047000079
:100F1000014880687047000014000024024881687E
:100F200002781144816070471400002410B503203A
:100F300000F05AF80F2000F007F808B1012010BDAA
:100F400000F024F8002010BD70B504460D4D4FF49C
:100F50007A712878B1FBF0F00B490968B1FBF0F029
:100F600001F04AFE08B1012070BD102C07D200220A
:100F70002146501E00F018F86C60002070BD012062
:100F800070BD0000140000240000002470470028F9
:100F900009DB012100F01F0291404009800000F1AF
:100FA000E020C0F800117047F0B40D460D4B1B68EF
:100FB000C3F30223C3F10704042C00D90424191D30
:100FC000072901D2002300E0DB1E012606FA04F106
:100FD000491E294099409E40761E16403143F0BC80
:100FE00004F000B80CED00E000F00701054A1068BD
:100FF0004FF6FF03184040EA012003490843106000
:10100000704700000CED00E00000FA0510B500F09C
:1010100083FF084909684FF4807292FAA2F201F442
:101020007061B2FA82F2D140034A515CC840034970
:10103000086010BD18440258DC5800080000002465
:1010400010B500F023FF07490968102292FAA2F2B6
:1010500001F07001B2FA82F2D140034A515CC840FB
:1010600010BD000020440258DC58000830B55F492C
:101070000A6802F003020968C1F305315B4B1B1DCE
:101080001B6803F01003594C14342468C4F3CC04D7
:1010900014FB03F300EE103AB8EE400ADFED540AF9
:1010A000524BB7EE001A1033002A42D0514C012A9D
:1010B00073D0022A70D0B4FBF1F101EE901A1968D6
:1010C000B8EE612AC1F3080101EE901AF8EE611A38
:1010D00040EE201A31EE810A22EE000A1968C1F3AF
:1010E0004621491C00EE901AF8EE600A80EE201AA4
:1010F000FCEEC10AC0ED000A1968C1F30641491CA3
:1011000000EE901AF8EE600A80EE201AFCEEC10A9A
:10111000C0ED010A1968C1F30661491C00EE901A7E
:10112000F8EE600A80EE201ABCEEC10A80ED020AD9
:1011300030BD2E4C283C226895062F4A17D52468CE
:10114000C4F3C104E240B2FBF1F101EE901A196858
:10115000B8EE612AC1F3080101EE901AF8EE611AA7
:1011600040EE201A31EE810A22EE000AB6E7B2FB09
:10117000F1F101EE901A1968B8EE612AC1F3080185
:1011800001EE901AF8EE611A40EE201A31EE810A53
:1011900022EE000AA2E700E013E0B4FBF1F101EE59
:1011A000901A1968B8EE612AC1F3080101EE901A8D
:1011B000F8EE611A40EE201A31EE810A22EE000AA2
:1011C0008CE70E4AB2FBF1F101EE901A1968B8EE05
:1011D000612AC1F3080101EE901AF8EE611A40EE9F
:1011E000201A31EE810A22EE000A77E728440258DD
:1011F0000000003900093D000090D00340787D01D7
:1012000030B55F490A6802F003020968C1F305516D
:101210005B4B1B1D1B6803F48073594C1C34246802
:10122000C4F3CC0414FB03F300EE103AB8EE400A0A
:10123000DFED540A524BB7EE001A1833002A42D0A1
:10124000514C012A73D0022A70D0B4FBF1F101EEA7
:10125000901A1968B8EE612AC1F3080101EE901ADC
:10126000F8EE611A40EE201A31EE810A22EE000AF1
:101270001968C1F34621491C00EE901AF8EE600A85
:1012800080EE201AFCEEC10AC0ED000A1968C1F315
:101290000641491C00EE901AF8EE600A80EE201A12
:1012A000FCEEC10AC0ED010A1968C1F30661491CD0
:1012B00000EE901AF8EE600A80EE201ABCEEC10A29
:1012C00080ED020A30BD2E4C283C226895062F4A3C
:1012D00017D52468C4F3C104E240B2FBF1F101EE7A
:1012E000901A1968B8EE612AC1F3080101EE901A4C
:1012F000F8EE611A40EE201A31EE810A22EE000A61
:10130000B6E7B2FBF1F101EE901A1968B8EE612A66
:10131000C1F3080101EE901AF8EE611A40EE201AAE
:1013200031EE810A22EE000AA2E700E013E0B4FBEE
:10133000F1F101EE901A1968B8EE612AC1F30801C3
:1013400001EE901AF8EE611A40EE201A31EE810A91
:1013500022EE000A8CE70E4AB2FBF1F101EE901A80
:101360001968B8EE612AC1F3080101EE901AF8EE8F
:10137000611A40EE201A31EE810A22EE000A77E768
:10138000284402580000003900093D000090D003B5
:1013900040787D012DE9F84F044600250026FB4FDB
:1013A0002068DFF8EC83010104F1240000900DD5E2
:1013B000606EB0B1B0F5801F18D0B0F5001F1BD023
:1013C000B0F5401F00D00125E5B12E462088C005AC
:1013D00035D5606D05282FD2DFE800F01D22282FBB
:1013E0002F00386840F400303860EDE70221201DFE
:1013F00002F04EF90546E7E70098022102F0C8F92D
:101400000546E1E7D8F80000616E20F4401008437B
:10141000C8F80000DAE7386840F4003038600CE0C3
:101420000021201D02F034F9054606E00098002155
:1014300002F0AEF9054600E001255DB12E4320889B
:10144000800518D5A06D802830D00CDC18B340285A
:101450000ED125E0D8F80000616D20F007000843A8
:10146000C8F80000EBE7C02803D0B0F5807F00D0BB
:1014700001250DB32E432088DFF8189340052DD5A4
:10148000D4F8A400B0F5800F42D01EDCA0B3B0F5B4
:10149000001F20D136E0386840F400303860E8E7BB
:1014A0000021201D02F0F4F80546E2E70098002133
:1014B00002F06EF90546DCE7D8F80000A16D20F4D3
:1014C000E0700843C8F80000D5E7B0F5C00F03D0BE
:1014D000B0F5000F00D0012505B32E43208800058C
:1014E0002FD5D4F8A800B0F1007F52D020DCE8B3AB
:1014F000B0F1807F22D146E0FFE7386840F4003049
:101500003860E9E70021201D02F0C2F80546E3E754
:101510000098002102F03CF90546DDE7D9F800000B
:10152000D4F8A41020F460000843C9F80000D5E7FF
:10153000B0F1407F03D0B0F1806F00D0012575B3CA
:101540002E43206880010AD5A06C30B1102831D01C
:10155000202835D0302800D0012585B32E4320889F
:10156000C00446D5E06DB0F5005F00E006E05BD05A
:1015700036DCA0B3B0F5805F38D14FE0386840F476
:1015800000303860DBE70021201D02F081F80546BD
:10159000D5E70098002102F0FBF80546CFE7FFE70A
:1015A000D9F80000D4F8A81020F0E0600843C9F88A
:1015B0000000C6E7386840F400303860CDE705E049
:1015C0000221201D02F064F80546C6E77048001F9E
:1015D0000168A26C21F0300111430160BFE718E0FF
:1015E000B0F5405F03D0B0F5804F00D001250DB3BA
:1015F0002E43208880042FD5206EB0F5403F29D09F
:1016000021DC38B3B0F5803F37D0B0F5003F20D1B2
:1016100039E0386840F400303860E8E70021201DE8
:1016200002F036F80546E2E70098002102F0B0F833
:101630000546DCE7D8F80000E16D20F4E0400843FF
:10164000C8F80000D5E7B0F5802F03D0B0F5A02F83
:1016500000D00125EDB12E43208840042BD5D4F8CD
:10166000AC00B0F1405F24D01CDC10B3B0F1805F5F
:101670004BD0B0F1005F1BD14EE00121201D02F0E4
:1016800007F80546E6E70098012102F081F80546D3
:10169000E0E7D8F80000216E20F4E0200843C8F805
:1016A0000000D9E7B0F1804F03D0B0F1A04F00D0D7
:1016B000012585B32E43208800040AD5E06E30B1A1
:1016C000B0F1805F39D0B0F1005F3BD001259DB310
:1016D0002E432068C0010AD5606C30B1012841D08A
:1016E000022844D0032800D001258DB32E43206862
:1016F000DFF8A4B0400261D52848016841F4807148
:101700000160FFF705FC824652E00121201D01F037
:10171000BFFF0546CDE705E00098012102F038F84B
:101720000546C6E7D9F80000D4F8AC1020F0E04038
:101730000843C9F80000BEE70BE0386840F4003009
:101740003860C4E70121201D01F0A2FF0546BEE775
:1017500013E0D8F80000E16E20F040500843C8F8CC
:101760000000B6E7386840F400303860BDE7022179
:10177000201D01F08DFF0546B7E70548001F0168F1
:10178000626C21F0030111430160B0E72C44025860
:101790005044025858440258104402580048025815
:1017A000FFF7B6FBA0EB0A00642801D9032503E08C
:1017B000FE480068C005F3D57DB12E432078DFF8E0
:1017C000F0A3C00766D0A06F182861D05BDC80B39F
:1017D00008286AD010285AD16DE0F5481C300068FE
:1017E000B4F8B01000F4407001F4407188420DD09C
:1017F000EF481C30016821F44071026842F48032E5
:101800000260026822F4803202600160D4F8B00005
:10181000B0F5807F13D1FFF77BFB82460AE0FFF72C
:1018200077FBA0EB0A0141F28830814202D90325FF
:1018300005E02DE0DE481C3000688007EFD50DB1D3
:101840002E43BBE7D4F8B000C0F3012103290FD029
:10185000DBF8000020F47C50CBF80000D4481C30AA
:101860000168B4F8B020C2F30B0211430160A5E790
:10187000DBF80010CF4A21F47C51104041EA1010EF
:10188000CBF80000EAE7202802D0282800D0012564
:10189000BDB12E43207880072BD5606F062825D256
:1018A000DFE800F025181E2525250121201D01F067
:1018B000EFFE0546ECE70098012101F069FF0546BF
:1018C000E6E7DAF80000A16F20F038000843CAF814
:1018D0000000DFE70121201D01F0DAFE054606E0E9
:1018E0000098012101F054FF054600E0012565B193
:1018F0002E432078400720D5D4F89000062819D22E
:10190000DFE800F0190C12191919DAF80000616FFC
:1019100020F007000843CAF80000EAE70121201D73
:1019200001F0B6FE054606E00098012101F030FF07
:10193000054600E001258DB12E432078800620D594
:10194000D4F88C00B0F1405F19D011DCB8B1B0F11F
:10195000805F27D0B0F1005F10D129E0D9F80000F6
:10196000D4F8901020F007000843C9F80000E4E71D
:10197000B0F1804F03D0B0F1A04F00D00125EDB100
:101980002E43207840062CD5D4F89800B0F5406F4F
:1019900025D01DDC18B3B0F5806F33D0B0F5006FE3
:1019A0001CD135E00021201D01F072FE0546E6E75E
:1019B0000098022101F0ECFE0546E0E7DAF80000AD
:1019C000D4F88C1020F0E0400843CAF80000D8E7B3
:1019D000B0F5805F03D0B0F5A05F00D00125EDB178
:1019E0002E43207800062CD5D4F89C00B0F5C04FCB
:1019F00025D01DDC18B3B0F5005F7DD0B0F5804F69
:101A00001CD1DFE00021201D01F042FE0546E6E783
:101A10000098022101F0BCFE0546E0E7D9F800007D
:101A2000D4F8981020F4E0500843C9F80000D8E733
:101A3000B0F5004F03D0B0F5204F00D00125EDB335
:101A40002E43207800070BD5D4F88000B0F5805FD6
:101A500076D0DAF8001021F440510143CAF80010A2
:101A60002078C0060BD5D4F89400B0F5807F69D0FB
:101A7000D9F8001021F440710143C9F80010206822
:101A800000030BD5D4F8A000B8B3B0F5803F7ED0EA
:101A9000B0F5003F00D0012585B32E4320684003F8
:101AA0000FD5D4F88400B0F5801F71D0B0F5001FB9
:101AB0006FD0B0F5401F00D0012500E088E0EDB305
:101AC0002E432068C00307D5E06CC0B3B0F5803F5B
:101AD0006BD00125ADB32E432068800004D500985B
:101AE000022101F055FE06432068800311D5E06F06
:101AF00068B1B0F5807F02E05EE080E08CE071D0FC
:101B0000B0F5007F03D0B0F5407F00D00125EDB3E4
:101B10002E432068C00207D5D8F80000216F20F0BE
:101B200000400843C8F800002068C0000ED5DBF86C
:101B30000000D4F8B41020F4804004E081E08AE092
:101B400051E093E055E00843CBF8000020688002A4
:101B500007D5D8F80000A16E20F080700843C8F8BF
:101B60000000206840000CD5DBF8000020F40040A5
:101B7000CBF80000DBF80000D4F8B8100843CBF82D
:101B80000000206800280CDA094803E07BE03DE013
:101B90004CE050E008380168226D21F040511143BB
:101BA000016096B30120BDE8F88F59E00048025863
:101BB00054440258FFFCFF0F0021201D01F068FD76
:101BC00005463CE70098022101F0E2FD054636E7B4
:101BD000D9F80000D4F89C1020F460400843C9F8FC
:101BE00000002EE74AE00098022101F0D1FD0643F3
:101BF00036E70098022101F0CBFD06433FE70021C4
:101C0000201D01F045FD054646E745E0009802210C
:101C100001F0BEFD05463FE7D9F80000D4F8A0105A
:101C200020F440300843C9F8000037E7386840F432
:101C30000030386041E70098012101F0A9FD054618
:101C40003BE7DAF80000D4F8841020F44010084391
:101C5000CAF8000035E7386840F40030386039E7EA
:101C60000221201D01F014FD054633E70B480168F1
:101C7000E26C21F48031114301602DE7386840F4B3
:101C80000030386043E7DAF80000E16F20F440707C
:101C90000843CAF800003CE7002084E74C4402589F
:101CA0002DE9F04704460E46DFF8CC81D8F8000055
:101CB00000F00700B0420FD2D8F8000020F0070073
:101CC0003043C8F80000D8F8000000F00700B04228
:101CD00002D00120BDE8F0872078684F800705D545
:101CE0003868E16820F00F00084338602078C007AA
:101CF00070D03868A16820F47060084338605F498C
:101D000060681839022808D003280BD001280ED0AB
:101D10000968490710D40120DCE7096889030BD45E
:101D20000120D7E70968890106D40120D2E70968B4
:101D3000C90501D40120CDE7DFF84091A9F10809D8
:101D4000D9F8001021F007010143C9F80010FFF78E
:101D5000DFF80546606841F2883A02280BD0032874
:101D600017D0012823D030E0FFF7D2F8401B5045B0
:101D700001D90320AEE7D9F80000C0F3C200022861
:101D8000F2D127E0FFF7C4F8401B504501D90320EA
:101D9000A0E7D9F80000C0F3C2000328F2D119E08F
:101DA000FFF7B6F8401B504501D9032092E7D9F858
:101DB0000000C0F3C2000128F2D10BE0FFF7A8F841
:101DC000401B504501D9032084E7D9F8000010F0EA
:101DD000380FF3D1D8F8000000F00700B0420ED958
:101DE000D8F8000020F007003043C8F80000D8F809
:101DF000000000F00700B04201D001206AE720781F
:101E0000400705D53868216920F070000843386024
:101E100020781B49000705D50868626920F070002A
:101E2000104308602078C00605D50868A26920F430
:101E3000E060104308602078800607D51049091D2E
:101E40000868E26920F070001043086000F064F850
:101E500039684FF4807292FAA2F201F47061B2FA1A
:101E600082F2D140074A515CC840074908600F2000
:101E7000FFF76AF800202DE70020005218440258AE
:101E80001C440258DC5800080000002410B5FFF77D
:101E9000BDF808490968012292FAA2F201F00F0187
:101EA000B2FA82F2D140044A515CC840034908604A
:101EB00010BD000018440258DC580008040000243B
:101EC00010B5FFF7E3FF07490968102292FAA2F262
:101ED00001F07001B2FA82F2D140034A515CC8406D
:101EE00010BD00001C440258DC58000810B5FFF774
:101EF000CDFF074909684FF4807292FAA2F201F40B
:101F0000E061B2FA82F2D140024A515CC84010BD91
:101F10001C440258DC580008F0B55C4800685D4D70
:101F200010F038015A4809D0041108290ED05A4E31
:101F300010290DD018290DD02046F0BD296889063A
:101F4000FBD52968C1F3C101C840F0BD2046F0BDF2
:101F50003046F0BD4D4918310A6802F003020968A5
:101F6000C1F30511494B1C331B6803F00103474FB4
:101F700024373F68C7F3CC0717FB03F300EE103A92
:101F8000B8EE400ADFED450A404BB7EE001A2033A9
:101F90002AB3012A52D0022A64D0B4FBF1F001EE38
:101FA000900A1868B8EE612AC0F3080001EE900AA2
:101FB000F8EE611A40EE201A31EE810A22EE000A94
:101FC0001868C0F34620401C00EE900AF8EE600A44
:101FD00080EE201ABCEEC10A10EE100AF0BD2A688D
:101FE000920617D52A68C2F3C102D040B0FBF1F0C7
:101FF00001EE900A1868B8EE612AC0F3080001EEFD
:10200000900AF8EE611A40EE201A31EE810A22EEB3
:10201000000AD5E7B0FBF1F001EE900A1868B8EEBF
:10202000612AC0F3080001EE900AF8EE611A40EE52
:10203000201A31EE810A22EE000AC1E7B4FBF1F06A
:1020400001EE900A1868B8EE612AC0F3080001EEAC
:10205000900AF8EE611A40EE201A31EE810A22EE63
:10206000000AADE7B6FBF1F001EE900A1868B8EE91
:10207000612AC0F3080001EE900AF8EE611A40EE02
:10208000201A31EE810A22EE000A99E71044025824
:102090000090D0030044025840787D0100000039D0
:1020A0002DE9F05F0446FC4FFC4E41F28838FC4DB0
:1020B0002078C0075FD03868C0F3C20002281FD064
:1020C0003868C0F3C200032804D1306800F0030070
:1020D000022815D06068B0F5803F19D0E8B1B0F59E
:1020E000A02F23D0286820F480302860286820F4AE
:1020F00080202860606870B3FEF70AFF814626E002
:102100002868800337D5606820BB0120BDE8F09FB8
:10211000286840F480302860ECE7286820F480309C
:102120002860286820F480202860E3E7286840F4CD
:1021300080202860286840F480302860DAE7FEF7C5
:10214000E7FEA0EB0900404501D90320DEE728683F
:102150008003F4D50FE0FFE7FEF7DAFE814607E0E3
:10216000FEF7D6FEA0EB0900404501D90320CDE7DC
:1021700028688003F4D42078DFF828A380076FD57F
:1021800038684FF47C3B10F0380F12D03868C0F339
:10219000C200032802D1306880070AD0E06890B3FB
:1021A000296821F0190101432960FEF7B1FE81463B
:1021B00032E02868400701D5E06848B12868E16846
:1021C00020F0190008432860FEF7A2FE814609E0CE
:1021D00001209BE7FEF79CFEA0EB0900022801D935
:1021E000032093E728684007F4D5DAF800009BFA4B
:1021F000ABF22169B2FA82F220F47C3091400843BC
:10220000CAF800002CE018E0FEF782FEA0EB0900FF
:10221000022801D9032079E728684007F4D5DAF8C5
:1022200000009BFAABF220F47C312069B2FA82F212
:1022300090400143CAF8001012E0286820F0010025
:102240002860FEF765FE814607E0FEF761FEA0EB21
:102250000900022801D9032058E728684007F4D470
:102260002078C0065DD538684FF0F84BC0F3C20047
:10227000012813D03868C0F3C200032804D13068A5
:1022800000F00300012809D0E069B0B3286840F0ED
:1022900080002860FEF73CFE81461DE02868C005EE
:1022A00004D5E069802801D001202FE7DAF800008A
:1022B0009BFAABF220F0F841206AB2FA82F2904029
:1022C0000143CAF800102CE0FEF722FEA0EB090043
:1022D000022801D9032019E72868C005F4D5DAF8E7
:1022E00000009BFAABF2216AB2FA82F220F0F840C9
:1022F00091400843CAF8000013E0FFE7286820F087
:1023000080002860FEF704FE814607E0FEF700FE2D
:10231000A0EB0900022801D90320F7E62868C005D0
:10232000F4D42078000732D5DFF870A160690AF193
:102330004C0AB0B1DAF8000040F00100CAF8000021
:10234000FEF7E6FD814607E0FEF7E2FDA0EB09009F
:10235000022801D90320D9E6DAF800008007F3D576
:1023600015E0DAF8000020F00100CAF80000FEF7DE
:10237000CFFD814607E0FEF7CBFDA0EB0900022868
:1023800001D90320C2E6DAF800008007F3D42078F0
:10239000800628D5A06998B1286840F4805028604C
:1023A000FEF7B6FD814607E0FEF7B2FDA0EB09009F
:1023B000022801D90320A9E628688004F4D512E098
:1023C000286820F480502860FEF7A2FD814607E0CF
:1023D000FEF79EFDA0EB0900022801D9032095E637
:1023E00028688004F4D4207840077CD5DFF8B8A0B2
:1023F000DAF8000040F48070CAF80000FEF788FDAB
:10240000814607E0FEF784FDA0EB0900642801D9AE
:1024100003207BE6DAF80000C005F3D5DFF87C90F6
:10242000A06809F14809012814D0D0B1052825D0A9
:10243000D9F8000020F00100C9F80000D9F8000028
:1024400020F00400C9F80000A06820B3FEF760FD8A
:10245000824633E0D9F8000040F00100C9F80000DE
:10246000F2E7D9F8000020F00100C9F80000D9F81F
:10247000000020F00400C9F80000E5E7D9F80000EA
:1024800040F00400C9F80000D9F8000040F0010055
:10249000C9F80000D8E716E0104402582844025852
:1024A000004402580444025800480258FEF730FD28
:1024B000A0EB0A00404501D9032027E6D9F8000027
:1024C0008007F3D50FE0FEF723FD824607E0FEF715
:1024D0001FFDA0EB0A00404501D9032016E6D9F8FC
:1024E00000008007F3D4606AE8B33968C1F3C20121
:1024F000032975D0022807D0286820F08070286052
:10250000FEF706FD04467EE0286820F08070286013
:10251000FEF7FEFC074606E0FEF7FAFCC01B0228A9
:1025200001D90320F2E528688001F5D4306840F233
:10253000F3318843E16A40EA0110A16A0843306040
:10254000208E4FF6FF72616B401E491EC0F30800DB
:1025500002EA41210843218F4FF4FE02491E02EA9C
:102560000141084300E051E094F83C10491E12027A
:1025700002EA0161084327490860091D08684FF60F
:10258000F872A36C904392FAA2F2B2FA82F29340EC
:10259000184308601F48001F0168226C21F00C01DD
:1025A000114301600168626C21F002011143016076
:1025B000016841F480310160016841F4003101603B
:1025C000016841F480210160016841F0010101606E
:1025D000286840F080702860FEF79AFC044607E007
:1025E00016E0FEF795FC001B022801D903208DE5BB
:1025F00028688001F5D509E0FEF78AFC001B022857
:1026000001D9032082E528688001F5D400207DE50A
:1026100001207BE5304402582DE9F05F0446002597
:10262000002C12D04FF4800BDFF8D8812068764E52
:10263000764F40450BD0B04209D0B84207D0E06891
:102640000F2804D90120BDE8F09F0120FBE72046B8
:1026500001F00EFE01462068404505D0B04203D08F
:10266000B84201D0082907D8404503D0B04201D074
:10267000B84203D1102901D90120E4E7A16A4FF43F
:10268000702A594514D1404508D0B04206D0B8420E
:1026900004D0206B504501D90120D4E7256B0DB93A
:1026A000A0890504E068B0EB154F01D90120CAE705
:1026B00094F881004FF0000920B984F880902046FA
:1026C00000F0A6F8022084F881002068016821F05B
:1026D00001010160A069B0F1806F09D160685845BF
:1026E00006D1A06B20B92068016841F480510160D7
:1026F000A16AE0690843E16B29430843E1680843A4
:1027000021688860616A606BA2690843A16B11430C
:1027100008432169084361690843216A08436168E5
:102720000843E16C0843A1680843A16C0843A16D0C
:1027300008432168C860A06A584528D1206C012848
:1027400028D02068016821F400410160606C0128F4
:1027500026D02068016821F480410160206840454E
:1027600005D0B04203D0B84201D055451ED04045F7
:1027700003D0B04201D0B84202D1B5F5F81F15D050
:10278000016821F4005101602168E06A0864606812
:1027900088B120E02068016841F400410160D5E77C
:1027A0002068016841F480410160D7E7016841F485
:1027B00000510160E8E7A06A30B92068816821F41F
:1027C000C05141F4006181602068816821F4C061DA
:1027D00041F4806181602068016D21F00101016593
:1027E0006068400206D52068C168626D21F0004132
:1027F0001143C160C4F88490012084F88100002056
:1028000021E700000030014000380040003C00405B
:1028100000B5B5B01548016841F0020101600068DB
:1028200000F00200009011480830016841F4804136
:102830000160006800F4804000904FF480500190E7
:102840000020189001A8FEF7A5FD4FF460403090DD
:1028500002203190012032900320339005203490E3
:10286000034830A9FEF74CFA35B000BDE0440258E9
:10287000000402582DE9F84F04468A4693469946CB
:102880000A9D94F88000012813D04FF0010884F8C5
:102890008080FEF73DFB064694F881000027012862
:1028A0004FF4800110D06068884209D1A06838B91F
:1028B00002E00220BDE8F88F94F88100042803D0DC
:1028C000022084F88070F5E7BAF1000F34D0BBF134
:1028D000000F31D0B9F1000F2ED094F881000428F8
:1028E00002D0052084F88100C4F88470C4F864B074
:1028F000A4F86A90A4F86890C4F85CA0A4F8629068
:10290000A4F8609027676767206842686FF30F023A
:1029100042EA090242602068026842F00102026055
:102920006068884204D12068016841F40071016048
:10293000E0680F283ED846E0012084F88070B9E7AF
:10294000B4F8620070B12068416989070AD5E16D69
:1029500009680162E06D001DE065B4F86200401E88
:10296000A4F86200B4F86A0080B12068416948F2B6
:10297000080211420AD0006B616E0860606E001D93
:102980006066B4F86A00401EA4F86A00681C11D0A2
:10299000FEF7BEFA801BA8420CD3204601F0FAFBDA
:1029A00004F8807F606840F48070606084F8018083
:1029B00001207FE7B4F862000028C1D1B4F86A00B2
:1029C0000028BDD1EFE007285AD8E3E0B4F8620050
:1029D00000B32068416989071CD5B4F86210012949
:1029E0000DD9E16B59B1E16D09680162E06D001D1F
:1029F000E065B4F86200801EA4F862000AE0E16DB0
:102A000009880184E06D801CE065B4F86200401E16
:102A1000A4F86200B4F86A00F0B12068416911F4CA
:102A2000604F19D0416909040BD5006B616E0860D5
:102A3000606E001D6066B4F86A00801EA4F86A002B
:102A40000AE0008E616E0880606E801C6066B4F8DB
:102A50006A00401EA4F86A00681C11D0FEF758FAFC
:102A6000801BA8420CD3204601F094FB04F8807F21
:102A7000606840F48070606084F80180012019E78C
:102A8000B4F862000028A1D1B4F86A0000289DD1F2
:102A900089E0B4F8620038B320684169890730D50D
:102AA000B4F8621003290ED9E16B40290BD9E16D0E
:102AB00009680162E06D001DE065B4F86200001F66
:102AC000A4F862001DE0B4F8621001290DD9E16B91
:102AD00059B1E16D09880184E06D801CE065B4F8AE
:102AE0006200801EA4F862000BE0E16D097880F8B6
:102AF0002010E06D401CE065B4F86200401EA4F8B0
:102B00006200B4F86A0020B32068416911F4604F94
:102B10002CD0416909040BD5006B616E0860606EB2
:102B2000001D6066B4F86A00001FA4F86A001DE08A
:102B3000416901F4C041B1F5005F0BD9008E616EAF
:102B40000880606E801C6066B4F86A00801EA4F87D
:102B50006A000BE090F83000616E0870606E401CF7
:102B60006066B4F86A00401EA4F86A00681C11D0C0
:102B7000FEF7CEF9801BA8420CD3204601F00AFBD9
:102B800004F8807F606840F48070606084F80180A1
:102B900001208FE6B4F8620000287FF47AAFB4F821
:102BA0006A000028F9D1002233460821204600950A
:102BB00001F068FB28B1D4F8840040F02000C4F88C
:102BC0008400204601F0E6FA04F8807F84F8018052
:102BD000606808B101206DE600206BE604284FF024
:102BE000E02104D0086920F00400086170470869FA
:102BF00040F004000861704710B5401EB0F1807FBE
:102C000001D3012010BD4FF0E02460610F21601757
:102C100002F0E8F90020A06107202061002010BD2B
:102C200070477047014611F8790F4978084370479B
:102C30002DE9F04104462368D8691A68996800F0C4
:102C40000F05002D0CD186060AD502F0200601F0F2
:102C500080573E4304D02046BDE8F04101F035BD29
:102C6000002D74D0524D02F490760D4035436ED055
:102C7000C50707D0D50505D501251D62E36F43F0D3
:102C80000103E367830708D5CB0706D02568022335
:102C90002B62E36F43F00403E367430708D5CB07D8
:102CA00006D0256804232B62E36F43F00203E36739
:102CB00003070ED502F0200301F080552B4301D10C
:102CC000CB0706D0256808232B62E36F43F0080387
:102CD000E367E36F002B2DD0800608D502F02000BB
:102CE00001F08051084302D0204601F0EEFCE06F75
:102CF000000703D420688068400621D5204601F0F3
:102D0000C9FC20688168490616D5816821F0400118
:102D10008160606F58B127490165606FFDF794FFCE
:102D2000002807D0606F016DBDE8F04108472046DC
:102D3000FFF777FFBDE8F0812046FFF772FFF9E764
:102D40002046FFF76EFF0020E067F3E7FFE7C502CC
:102D50000ED54D020CD54FF480101862202084F857
:102D6000790084F87A002046BDE8F041FFF758BFAB
:102D700005060AD502F0800501F400010D4304D0D8
:102D80002046BDE8F04102F078B8410606D551066C
:102D900004D52046BDE8F04101F08ABC0002C9D547
:102DA0005000C7D5186820F080401860C2E70000C6
:102DB000010000108146000810B50446002C03D025
:102DC00094F8790010B107E0012010BD002084F8CC
:102DD0007800204600F028F8242084F87900206844
:102DE000016821F001010160204601F0ABFC0128DF
:102DF00018D0606B10B1204601F0B0FB206841682C
:102E000021F4904141602068816821F02A018160AD
:102E10002068016841F0010101602046BDE81040D2
:102E200001F000BC012010BD10B586B000681B4940
:102E3000884230D11A48016841F001010160006800
:102E400000F00100009016481030016841F01001B8
:102E50000160006800F0100000904FF400700190D5
:102E6000022002900121039104900720059001A9FE
:102E70000C4C2046FDF744FF4FF48061019101A9FD
:102E80002046FDF73DFF2520FEF781F8032225208F
:102E90001146FEF789F806B010BD00000010014091
:102EA000E04402580000025890F87A30202B01D0FC
:102EB00002207047B9B1B2B190F87830012B14D02C
:102EC000012380F878304166A0F86820A0F86A20D5
:102ED000FF228168B1F5805F09D07F2389B1B1F10C
:102EE000805F16D01AE00120704702207047016908
:102EF00011B1A0F86C2011E040F2FF11A0F86C10A5
:102F00000CE0016911B1A0F86C3007E0A0F86C206A
:102F100004E00169E1B13F21A0F86C100021C16714
:102F2000222280F87A2080F8781001688A6842F0BE
:102F300001028A6001680A6892000CD50A6842F4AE
:102F400080720A600068816841F08051816006E00B
:102F5000A0F86C30E2E7086840F490700860002048
:102F60007047000030B50068124988420CD1124AFF
:102F70005088010408D411464FF000034404097836
:102F800007D50A2901D0538030BD40F4004050805D
:102F900030BD0D290AD0094DC0F30D042955401C40
:102FA00080B25080C728F3D9538030BD40F48040B0
:102FB000508030BD001001400C000024900000241F
:102FC0007047FEE770B586B01348016841F0040110
:102FD0000160016801F004010091016841F01001F5
:102FE0000160006800F010000090082001900026A9
:102FF00002960124039403250495084801A9FDF7CE
:103000007FFE2020019002960394049501A90448B4
:10301000FDF776FE06B070BDE0440258001002587D
:10302000000802582DE9F0411B4C0125012800D170
:1030300025702078194F1A4E48B108213846FDF7FF
:1030400055FF58B120213046FDF750FF30B108211F
:103050003846FDF74BFF012815D01BE00A2002F08F
:1030600051F90020207008213846FDF73FFF28B1B4
:1030700020213046FDF73AFF18B10BE00120BDE8F2
:10308000F0810220FBE720213046FDF72FFF0128C9
:1030900000D125700020F2E7200000240010025823
:1030A000000802582DE9F041074600240C4E00218B
:1030B00008467388328800F0C5F935887088454322
:1030C0000021084600F0AAF900F0AEFA03E0384605
:1030D00000F054FA641CAC42F9D3BDE8F081000062
:1030E000004504242DE9F04122490027F0222C2438
:1030F0002A252B2600284FF4A07319D001281FD0B1
:1031000002284FF0010C23D003282AD08F710A80A7
:103110004B800C814D818E8100244B880A880021D0
:10312000084600F08FF92046BDE8F04100F064B990
:103130008F710A804B800C814D818E810024ECE7D9
:103140008F710B804A800C814D818E810124E4E7D0
:1031500081F806C00A804B800C814D818E8102244B
:10316000DBE781F806C00B804A800C814D818E819F
:103170000324D2E7004504242DE9F04107460E461A
:1031800015460A4C608900F033FA384600F0F6F92B
:10319000A08900F02DFA304600F0F0F9208900F007
:1031A00027FA2846BDE8F04100F0E8B900450424BC
:1031B00010B586B01948016841F00201016000684D
:1031C00000F00200009041F2030001900120029003
:1031D00003900320049001A9114C2046FDF790FDB7
:1031E000012220461146FDF78CFE012220460221D5
:1031F000FDF787FE012220461103FDF782FE00F055
:1032000075FFA00400F0AEFF00F00CF8012220468C
:103210001146FDF776FE06B010BD0000E0440258EE
:103220000004025870B50A4D4FF480440022214634
:103230002846FDF766FE322002F064F8012221469E
:103240002846FDF75EFEBDE870401E2002F05AB829
:103250000004025810B5FFF7ABFF00F085F93220EB
:1032600002F050F8362000F0C3F9002000F0A4F975
:103270003A2000F0BDF9052000F09EF9B22000F0E0
:10328000B7F90C2000F098F90C2000F095F9002017
:1032900000F092F9332000F08FF9332000F08CF920
:1032A000B72000F0A5F9352000F086F9BB2000F02A
:1032B0009FF9192000F080F9C02000F099F92C2026
:1032C00000F07AF9C22000F093F9012000F074F9BF
:1032D000C32000F08DF9122000F06EF9C42000F038
:1032E00087F9202000F068F9C62000F081F90F204E
:1032F00000F062F9D02000F07BF9A42000F05CF926
:10330000A12000F059F9E02000F072F9D02000F07F
:1033100053F9042000F050F90D2000F04DF9112070
:1033200000F04AF9132000F047F92B2000F044F98F
:103330003F2000F041F9542000F03EF94C2000F00D
:103340003BF9182000F038F90D2000F035F90B207A
:1033500000F032F91F2000F02FF9232000F02CF9A3
:10336000E12000F045F9D02000F026F9042000F01B
:1033700023F90C2000F020F9112000F01DF9132092
:1033800000F01AF92C2000F017F93F2000F014F992
:10339000442000F011F9512000F00EF92F2000F028
:1033A0000BF91F2000F008F91F2000F005F920207C
:1033B00000F002F9232000F0FFF8212000F018F9B6
:1033C000112000F015F9782001F09CFF292000F071
:1033D0000FF9C82001F096FF0020FFF783FE0122BD
:1033E00004481146FDF78DFDBDE810404FF6FF7013
:1033F000FFF758BE00040258002100280BD0012816
:1034000004D0022804D0032805D103E0602102E0A3
:10341000C02100E0A021362000F00CB970B50646AE
:103420000D46074C608900F0E3F8304600F0A6F83E
:10343000A08900F0DDF82846BDE8704000F09EB895
:10344000004504242DE9F04105460C46A818401E0D
:1034500086B2E018401E87B2DFF82C80B8F80A0068
:1034600000F0C6F8284600F089F8304600F086F8EB
:10347000B8F80C0000F0BCF8204600F07FF83846A1
:10348000BDE8F04100F07AB8004504242DE9F84F7A
:1034900082460C461F46A346780701D0012000E073
:1034A0000020790800EBD7004843C0B20090203AD2
:1034B00002F0FF09002648E00C2F13D0102F18D07F
:1034C000182F45D1234909EBC90001EB8000855D28
:1034D0004FF00008280611D50A9A21465046FFF7FA
:1034E0004BFE13E01C4909EB490001EB8000855DB0
:1034F000EEE71A4800EB0910855DE9E70B9828B95B
:103500001748214642885046FFF736FE6806050EEA
:10351000641CA4B213484088A04219D9A4EB0B0044
:10352000B84209D15C460AF1010A1FFA8AFA0D482D
:10353000008850450CD906E008F1010808F0FF08A2
:10354000B8F1080FC6D3761CF6B200988642B3D302
:10355000BDE8F88FB06300084C590008C05D000852
:103560006C0000240045042410B5012000F040F850
:10357000BDE81040322001F0C5BE000070B5044621
:103580000C4E4FF48055002229463046FDF7B9FC19
:10359000012230460221FDF7B4FC200A00F0D2FDE2
:1035A000E0B200F0CFFD29463046BDE87040012270
:1035B000FDF7A7BC0004025870B506460B4D4FF44A
:1035C0008054002221462846FDF79BFC0122284614
:1035D0000221FDF796FC304600F0B4FD2146284656
:1035E000BDE870400122FDF78CBC000000040258C9
:1035F00070B504460B4E4FF48055002229463046E4
:10360000FDF77FFC002230460221FDF77AFCE0B294
:1036100000F098FD29463046BDE870400122FDF7D4
:1036200070BC00000004025801480089FFF7E0BFA9
:103630000045042410B50C46FFF7DAFFE0B2BDE800
:103640001040FFF7B9BF000010B586B00D48016803
:1036500041F001010160006800F0010000900220CB
:1036600001900120029003900320049001A9064CD0
:103670002046FDF745FB012220460221FDF741FCD3
:1036800006B010BDE0440258000002587047704771
:103690002DE9F047044688460027DFF8F090D9F876
:1036A0000000C043800709D0384D283D286820F02D
:1036B00080602860FDF72CFC064609E00120BDE88B
:1036C000F087FDF725FC801B022801D90320F6E7CF
:1036D00028680001F5D4D9F80000216820F47C3076
:1036E00040EA0130C9F80000A0884FF6FF72A168D7
:1036F000401E491EC0F3080002EA41210843A18987
:103700004FF4FE02491E02EA01410843217C1202E5
:10371000491E02EA016108431C49103108601B4838
:10372000001D0168626921F0C00111430160016858
:10373000A26921F0200111430160B8F1000F0ED001
:10374000B8F1010F10D0016841F400110160286840
:1037500040F080602860FDF7DBFB044610E0016864
:1037600041F400210160F2E7016841F48011016039
:10377000EDE7FDF7CDFB001B022801D903209EE7F2
:1037800028680001F5D5384699E70000284402581A
:103790002DE9F047044688460027DFF8F090D9F875
:1037A0000000C043800709D0384D283D286820F02C
:1037B00080502860FDF7ACFB064609E00120BDE81B
:1037C000F087FDF7A5FB801B022801D90320F6E74F
:1037D00028688000F5D4D9F80000218820F07C709A
:1037E00040EA0150C9F80000A0884FF6FF72A168B6
:1037F000401E491EC0F3080002EA41210843A18986
:103800004FF4FE02491E02EA01410843217C1202E4
:10381000491E02EA016108431C49183108601B482F
:10382000001D0168626921F4406111430160016873
:10383000A26921F4007111430160B8F1000F0ED0AC
:10384000B8F1010F10D0016841F080710160286863
:1038500040F080502860FDF75BFB044610E00168F3
:1038600041F480010160F2E7016841F40001016068
:10387000EDE7FDF74DFB001B022801D903209EE771
:1038800028688000F5D5384699E70000284402589A
:103890003CB50021009101910024002800D00224B1
:1038A00013484069800101D50E203CBD114D694689
:1038B000A88880B2FCF71CFF0028F6D101984003CD
:1038C00013D5A88801210204372000F01FF8372003
:1038D000FCF7D8FD0028E8D101212246062000F09F
:1038E00015F80620FCF7CEFD3CBD25203CBD0000B0
:1038F0000070005224000024034A51686FF309014C
:10390000014351607047000000700052044B9A6000
:1039100000F03F0040EA012040F48050D86070473A
:103920000070005210B5094C606221F07E40A06228
:10393000E06A20F0FF0040EA021003F0010140EAD3
:10394000410040F00100E06210BD00000070005234
:1039500010B5044600200E490978032908D019B192
:10396000012901D0022902D1022C03D3272010BD46
:10397000272010BDE0B2FFF78BFF0028F9D1054AE0
:10398000516821F4404141EA843189B2516010BD4F
:1039900024000024007000522DE9F04784490C787F
:1039A00080F856408988A0F85410DFF80882D8F8CB
:1039B00000100A0E93090370C2F38303437002F0F0
:1039C000030282700A0CC2700A0A02714171D8F8AF
:1039D0000420110E0B01C2F3074143EA1113C38007
:1039E00001F00F070772C2F30721CB094372C1F33D
:1039F00080138372C1F34013C372C1F300130373C6
:103A00000023437345464FF0010CAE68350E002C81
:103A1000C6F30749C6F3072A06D0012C04D0032CAD
:103A200002D0022C33D042E08907090DD2B241EA1C
:103A3000820141EA95120261C5F3C201017505F0E8
:103A4000070141754FEA59118175C9F38201C175AA
:103A50004FEA89714C0F514644EAD1140476521C46
:103A6000A41C0CFA04F5A2FB054A4FEAE57903FB16
:103A700005A502FB09550CFA07F20265A4FB0279C1
:103A800005FB029204FB0322C0E912720FE09106CB
:103A9000890A41EA052242EA090202615146521CA2
:103AA000540BD204C0E912244FF4007202651A309C
:103AB000C1F3801200F8012C89064A0EF1B242EAE5
:103AC000D112027001F07F014170D8F80C20110E64
:103AD000CC098470C1F34114C470C1F38204047131
:103AE00089070C0FC2F3074144EA91144471C1F3F2
:103AF00040148471C37101F001010172C2F3072106
:103B0000CC094472C1F380148472C1F34014C472AE
:103B1000C1F300140473C1F38104447301F0030181
:103B20008173D1B24908C17380F810C0214A1032A4
:103B300011680C0E84740C0C2402C1F307252C436D
:103B400084820C0651680D0E44EA0544C1F3074512
:103B500044EA0524C1F307252C43C0F816408176BA
:103B600091680C0EC4760C0C2406C1F3072544EAB8
:103B70000544C9B244EA0124D1680A0E1443C0F8CE
:103B80001E40C1F3074290F8224044EA121480F824
:103B900022401207120DC1F3072422438284C9B2C6
:103BA000490880F8261080F827C01846BDE8F0873D
:103BB00024000024D801002410B586B036480168DE
:103BC00041F480310160006800F480300090324898
:103BD0000C30016841F004010160016801F004014A
:103BE0000091016841F008010160006800F00800E0
:103BF00000904FF4F85001900220029000240394AA
:103C0000032004900C200590244801A9FDF778F8C2
:103C100004200190224801A9FDF772F821480460B0
:103C200044608460C46044628462C4621E498163EB
:103C3000C463002202213120FDF7B6F93120FDF7DF
:103C4000A6F900F099F8034613B900F033F80346DB
:103C50001BB91648FFF7A0FE0346144C2BB9B4F865
:103C60005400000400F036FA03461BB90120FFF7A8
:103C70006FFE03461BB10E480078032807D194F865
:103C8000560038B1012805D00420FFF735FE06B0F4
:103C9000184610BD0620F8E7D44402580008025820
:103CA000000C025800700052FF0FE01FF8010024C2
:103CB0002400002438B5012000902C4C2068800797
:103CC0001ED02B4D2878042811D000220321022079
:103CD000FFF71CFEFCF7F8FB002812D161692548AC
:103CE0000160A1694160E1698160216AC160287851
:103CF00040B1012806D0062804D0022802D00CE0EA
:103D0000252038BD002201210320FFF7FFFD0320FD
:103D10006946FCF713FC0028F3D1287803280AD160
:103D2000BDF80000012102040320FFF7EFFDFCF7BE
:103D3000CBFB0028E5D12878042815D0BDF8000079
:103D40006860032102040920FFF7E0FDFCF7BCFBDB
:103D50000028D6D16169074810380160A169416027
:103D6000E1698160216AC160002038BD00700052A5
:103D700024000024E80100242DE9F04F4FF0000951
:103D800000200026002400250027DFF8EC80C8F87A
:103D90000400FA20FFF7B0FD4FF0030BC8F800B0A5
:103DA000002211461046FFF7B1FDFCF755FB30B17C
:103DB00009F1010909F0FF09B9F14A0FF0D3002810
:103DC0003AD101214FF4D5720820FFF79FFDFCF78F
:103DD000EBFBDFF8A8A018B901208AF800008707DC
:103DE000002201213720FFF791FD3720FCF74AFB25
:103DF0004FF6FF79D0B1224E34E000220121372066
:103E0000FFF784FD3720FCF73DFB002814D11D4847
:103E1000012147EA00022920FFF778FDFCF778FB33
:103E2000002809D1D8F81460F50F641C0DB94C4571
:103E3000E3D34C4502D31B20BDE8F08F16F0804F32
:103E4000FAD002218AF80010F6E70121324608462E
:103E5000FFF75CFDFCF75CFB0028EDD1D8F81410EF
:103E6000CD0F641C0DB94C45EFD34C4501D31B203D
:103E7000E2E78AF800B0DFE7007000522400002477
:103E80000080FF80000010802DE9F05FDDE90A98D6
:103E9000074614461D464FF0FF36DFF880A100208C
:103EA000CAF82C00DFF878B19BF80000022804D192
:103EB0004FF40079640A44EAC5544A4601211020AF
:103EC000FFF724FD1020FCF7DDFA0546280006D098
:103ED00054A0294601F062F82846BDE8F09F08FB8F
:103EE00009F1012330460922FFF71CFDDAF80C0026
:103EF00040F04000CAF80C00B8F1010F0FD90121C1
:103F000022461220FFF702FD1220FCF7BBFA0446FE
:103F1000200010D048A001F041F82046DDE7012143
:103F200022461120FFF7F2FC1120FCF7ABFA044601
:103F3000200000D0D1E7FCF7BAF9474910E0DAF8E1
:103F4000340000040AD50020DAF8802047F8202049
:103F5000401C0828F8D320370E4601E0CEB1761E6B
:103F6000DAF8340010F4957FE9D0DAF80C0020F08C
:103F70004000CAF80C00FCF79CF9DAF8340000079E
:103F800009D5DAF8380040F00800CAF838000420F3
:103F9000A3E70420A1E7DAF83400800712D5DAF8A5
:103FA000380040F00200CAF83800B8F1010F07D914
:103FB000002201210C20FFF7A9FC0C20FCF762FA7B
:103FC00002208AE7DAF83400800607D5DAF83800EC
:103FD00040F02000CAF8380006207EE7DAF8340006
:103FE000C00515D5B8F1010F12D99BF8000018B122
:103FF000012801D002280BD1002201210C20FFF75B
:1040000085FC0C20FCF73EFA0446200000D064E753
:104010001248CAF8380020465FE7000000700052DE
:104020002400002453444D4D435F53656E645F4349
:104030006D643D25640D0A0053445F434D445F5257
:104040004541445F4D554C545F424C4F434B2045D6
:1040500072726F720D0A0000FFFF7F00FF0FE01FFA
:104060002DE9FC5F07460C4691464FF0000BDA46FF
:10407000554616480078002801D0E50D6402B807BF
:104080004FF4007817D0002612E00120CDE900801F
:10409000700202190E484AEB0503FFF7F5FE83464E
:1040A0000B4942463846FCF74CF907F50077761C79
:1040B0004E45EAD307E0CDE9008922462B46384633
:1040C000FFF7E2FE83465846BDE8FC9F240000242B
:1040D0005002002400B5012102460720FFF716FC1C
:1040E0005DF804EB0720FCF7CDB9000010B5144CC7
:1040F000124820604FF4800060600020A06007211B
:10410000E1604FF000722261521062619200A26180
:104110006063CA0762650A07E26120626062A062AA
:10412000E1622046FEF778FA2068016841F001015B
:104130000160BDE81040FF2000F004B800380040E6
:104140005004002401B582B04FF47A70012300902E
:1041500001AA034802A9FEF78DFB9DF804000EBDDD
:10416000500400240A4A11680B6823F001030B6015
:1041700011688B6823F0E0438B6011688B68034300
:104180008B601068016841F0010101607047000018
:104190005004002410B502685169936943F0080384
:1041A00093610268936943F0100393610268136896
:1041B00023F0010313600268136940F26B34A343D8
:1041C00013610268936823F44043936090F8812060
:1041D000042A0CD08A060AD5D0F8842042F0800246
:1041E000C0F884200268936943F02003936190F83B
:1041F0008120032A1DD04A060AD5D0F8842042F037
:104200000402C0F884200268936943F0400393617C
:10421000826AB2F5800F0CD10A060AD5D0F8842044
:1042200042F00202C0F884200268936943F08003E0
:1042300093618A050AD5D0F8842042F00102C0F8C3
:1042400084200268936943F400739361C9050AD519
:10425000D0F8841041F00801C0F8841001688A6920
:1042600042F480728A61002120F8621F018110BD32
:10427000C16B012202EB5111C068401CC01DC00877
:10428000484370472DE9F04106460D4617469846CB
:10429000069C0BE0601C09D02CB1FCF739FEA0EBAA
:1042A0000800A04202D90320BDE8F08130684069CF
:1042B00035EA000004D00020B842EBD00020F3E73C
:1042C0000120F9E7704700002DE9F04F93B0044654
:1042D0008A4615461F46A146780701D0012000E016
:1042E000002000EBD7007843C0B200900C2F03D021
:1042F000102F01D0182F36D1009A01A93B4628462D
:10430000FCF77AFC4FF000082AE001A810F80860DA
:104310000025DFF858B0300605D51C9A51462046D6
:10432000FEF72AFF07E01D9828B9BBF80020514688
:104330002046FEF721FF7006060E641CA4B2A4EB13
:104340000900B84204D14C460AF1010A1FFA8AFA60
:104350006D1CEDB2082DDED308F1010808F0FF084E
:1043600000988045D1D313B0BDE8F08F6E000024D3
:104370002DE9FF4F83B004460E469346DDE91075E4
:10438000A046B2464FF000091EE0B9F1000F21D05F
:104390004FF0000908EB0B00401BA04202DA701935
:1043A00086B2444606985044401BB0420FDBDDE91C
:1043B00012012B463A46CDE9000131462046FFF76F
:1043C00083FFBF1C601984B23A78002ADDD107B0A0
:1043D000BDE8F08F802A02D94FF00109F4E708EB1D
:1043E0000B00A0EB5500A04202DA701986B24446D9
:1043F00006985044401BB042E9DB0D2A0DD0DDE9A0
:1044000012012B46CDE9000131462046FFF73EF868
:104410007F1C04EB550084B2D6E7701986B244467F
:104420007F1CF5E770B59CB0284C256825F0040585
:1044300025600026254C0C34256845F44045256050
:10444000256805F4404500952568AD04FCD5012498
:104450000194240402940496089602240A940B946E
:104460000D900C910E920F9312960824119401A8AE
:10447000FDF716FE10B101201CB070BD3F20149056
:1044800003201590169617944020199001011A9157
:10449000189050201B90022114A8FDF701FC08B1D0
:1044A0000120E9E70A48016841F0800101600848FD
:1044B000F430016841F002010160006800F0020080
:1044C0000090FCF715FC0020D6E700000C480258CD
:1044D00000440258FCF722BD1C48016841F47001F9
:1044E00001601B49086840F001000860184A00207C
:1044F000103210600A68174B1A400A60144A1832CA
:104500001060121D1060121D1060114A28321060D8
:10451000121D1060121D1060121D1060121D10601F
:10452000121D1060121D1060121D10600A6822F426
:1045300080220A600649603108600120064908604F
:10454000C0060249803908607047000088ED00E02D
:10455000004402587FEDF6EA0881005190F83410CB
:10456000C90706D001684A68836B22F400321A43F7
:104570004A6090F83410890706D501684A68C36B11
:1045800022F480321A434A6090F83410490706D565
:1045900001684A68036C22F480221A434A6090F84A
:1045A0003410090706D501684A68436C22F40042BA
:1045B0001A434A6090F83410C90606D501688A6823
:1045C000836C22F480521A438A6090F83410890672
:1045D00006D501688A68C36C22F400521A438A60C7
:1045E00090F83410490611D501684A68036D22F429
:1045F00080121A434A60016DB1F5801F06D101682F
:104600004A68436D22F4C0021A434A6090F834109D
:10461000090606D501684A68806D22F4002202432B
:104620004A607047F8B504460026E667FCF770FC60
:104630000746206800686FF07E4500070AD5002213
:104640003B464FF400112046009500F050FC08B1A5
:104650000320F8BD2068006840070AD500223B46C9
:104660004FF480012046009500F041FC08B1032082
:10467000F8BD202078346070A07026700020F8BD4E
:1046800010B5806B0021A0F86A10A0F86210FEF748
:10469000C8FA10BD01680A6822F490720A600168C5
:1046A0008A6822F001028A60202180F87A1070471F
:1046B00010B501680A6822F040020A60202180F8E3
:1046C0007910FEF77DFC002010BD10B5B0F86C200D
:1046D00090F87A300168222B05D0088B40F0080052
:1046E0000883022010BD898C8368B3F5805F01D1F7
:1046F000036973B11140426E531C43661170B0F8E8
:104700006A10491E0904090CA0F86A1008D000209C
:1047100010BD436E11401980416E891C4166EEE761
:1047200001680A6822F490720A6001688A6822F0BF
:1047300001028A60202180F87A10FEF713FC002025
:1047400010BD00002DE9F04F87B004468025002100
:104750000027FD4B2068AE05A26AD4F808C0D4F843
:104760001080D4F81C904CEA080CD4F8148048EA65
:1047700009084CEA080C42EA0C02D0F800C0DFF845
:10478000CC830CEA080C4CEA020CC0F800C020688C
:104790004268D4F80CC022F4405242EA0C02426053
:1047A000A06922689A4203D0D4F820C04CEA0000E5
:1047B000D4F828C0B44504D1D4E90B6C46EA0C0601
:1047C00030439668DFF888C306EA0C060643966015
:1047D0002068C26A666A22F00F023243C262DD4E6E
:1047E0002068DD4AB0421CD1126802F03802182A53
:1047F00011D005DC4AB1082A09D0102A06D108E0F8
:10480000202A0AD0282A01D109E00125D8E0042570
:10481000D6E04025D4E00825D2E01025D0E02025C0
:10482000CEE0CE4EB04215D1126802F00702062A41
:1048300005D2DFE802F0030507090B0D0025BFE0F4
:104840000425BDE04025BBE00825B9E01025B7E010
:104850002025B5E0C24EB04215D1126802F0070221
:10486000062A05D2DFE802F0030507090B0D002533
:10487000A6E00425A4E04025A2E00825A0E010253C
:104880009EE020259CE0B74EB04215D1126802F0A0
:104890000702062A05D2DFE802F0030507090B0D1F
:1048A00000258DE004258BE0402589E0082587E080
:1048B000102585E0202583E0AB4EB04215D112686B
:1048C00002F00702062A7BD2DFE802F0030507099F
:1048D0000B0D002574E0042572E0402570E00825EA
:1048E0006EE010256CE020256AE0A04EB0421CD19D
:1048F000126802F03802182A11D005DC4AB1082AE1
:1049000009D0102A5CD108E0202A0AD0282A57D1E1
:1049100009E0012554E0042552E0402550E0082537
:104920004EE010254CE020254AE0914EB04215D1D2
:10493000126802F00702062A42D2DFE802F00305FD
:1049400007090B0D00253BE0042539E0402537E041
:10495000082535E0102533E0202531E0854EB042B2
:1049600015D1126802F00702062A29D2DFE802F008
:10497000030507090B0D002522E0042520E0402552
:104980001EE008251CE010251AE0202518E09842BA
:1049900016D1714A121D126802F00702062A0FD2C0
:1049A000DFE802F0030507090B0D022508E00425E6
:1049B00006E0402504E0082502E0102500E020255F
:1049C000DFF8B891DFF890A198426B4E4FEA291BAF
:1049D000AAF1540A7ED10020102D33D006DC022D1E
:1049E00016D0042D17D0082D04D11EE0202D2BD079
:1049F000402D15D00127002809D0D4F8048008EBF9
:104A00004801814202D8B0EB083F20D90127ACE130
:104A1000FCF716FBEFE704A8FCF728FB0598EAE78C
:104A200001A8FCF7EDFB0298E5E7DAF80000800644
:104A300006D5DAF80000C0F3C10029FA00F0DAE781
:104A40004846D8E75846D6E74FF40040D3E7294612
:104A50000025102975D006DC022911D0042924D0A4
:104A6000082904D151E020296CD0402936D00127F3
:104A7000434AA0F54071914265D82168C86074E14D
:104A8000FCF7DEFA626A0023294636F81220FBF7AB
:104A900027FC62680902030241EA106150081818F5
:104AA00069410023FBF71CFCE2E704A8FCF7DEFAEF
:104AB000616A0023059836F811201946FBF710FCAF
:104AC00062680902030241EA10615008181869413E
:104AD000002300E09BE0FBF703FCC9E701A8FCF71B
:104AE0008FFB616A0023029836F811201946FBF704
:104AF000F7FB62680902030241EA106150081818C6
:104B000069410023FBF7ECFBB2E7DAF8000080060E
:104B10003BD5DAF800000023616AC0F3C10036F823
:104B20001120194629FA00F0FBF7DAFB090202020C
:104B300041EA10614FEA58001018424669410023CB
:104B400020E037E04BE060E0000C0058F369FFCF55
:104B5000FFF4FF110010014054440258004400408B
:104B600000480040004C004000500040001401404C
:104B700000780040007C0040EC5800080090D00312
:104B8000FFFC0F00FBF7ACFB72E7606A00231946DD
:104B900036F810204846FBF7A3FB0902020241EA5F
:104BA00010614FEA58001018424669410023FBF794
:104BB00097FB5DE7606A0023194636F810205846D7
:104BC000FBF78EFB0902020241EA10614FEA58002E
:104BD0001018424669410023FBF782FB48E7606AF0
:104BE0000023194636F810204FF40040FBF778FBFD
:104BF0000902020241EA10614FEA580010184246C9
:104C000069410023FBF76CFB32E70127ADE0E36964
:104C10004FF4004293426ED1082D55D005DC9DB172
:104C2000012D20D0042D06D12CE0102D73D0202D85
:104C30007ED0402D37D0012721F00F00C1F3420173
:104C400008432168C86090E0FDF73AF9616A36F8D8
:104C50001110B0FBF1F04100606801EB5001B1FBB5
:104C6000F0F081B2E8E7FDF741F9616A36F811101A
:104C7000B0FBF1F04100606801EB5001B1FBF0F0D6
:104C800081B2D9E704A8FCF7F1F9616A059836F812
:104C90001110B0FBF1F04100606801EB5001B1FB75
:104CA000F0F081B2C8E701A8FCF7AAFA616A02989D
:104CB00036F81110B0FBF1F04100606801EB5001D3
:104CC000B1FBF0F081B2B7E7DAF80000800613D547
:104CD000DAF80000C0F3C10029FA00F9606A36F87A
:104CE0001000B9FBF0F04100606801EB5001B1FB2E
:104CF000F0F081B2A0E728E0606A36F81000B9FB56
:104D0000F0F04100606801EB5001B1FBF0F081B2BE
:104D100092E700E00CE0606A36F81000BBFBF0F0B0
:104D20004100606801EB5001B1FBF0F081B283E714
:104D3000606A36F81000B2FBF0F04100606801EBE9
:104D40005001B1FBF0F081B276E7082D55D005DCBB
:104D50007DB1012D1DD0042D06D12AE0102D72D079
:104D6000202D7DD0402D36D0012707B03846BDE834
:104D7000F08FFDF7A5F8616A36F81110B0FBF1F17C
:104D8000606801EB5001B1FBF0F0216880B2C860AF
:104D9000EBE7FDF7ABF8616A36F81110B0FBF1F103
:104DA000606801EB5001B1FBF0F0216880B2C8608F
:104DB000DBE704A8FCF75AF9616A059836F8111088
:104DC000B0FBF1F1606801EB5001B1FBF0F021683C
:104DD00080B2C860C9E701A8FCF712FA616A0298BC
:104DE00036F81110B0FBF1F1606801EB5001B1FB36
:104DF000F0F0216880B2C860B7E7DAF800108906E1
:104E000012D5DAF80010C1F3C10129FA01F9616A7B
:104E100036F81110B9FBF1F2616802EB5102B2FBF6
:104E2000F1F189B2C160A0E7616A36F81110B9FBEF
:104E3000F1F2616802EB5102B2FBF1F189B2C1609B
:104E400093E700E00CE0616A36F81110BBFBF1F269
:104E5000616802EB5102B2FBF1F189B2C16084E7F3
:104E6000616A36F81110B2FBF1F2616802EB51028F
:104E7000B2FBF1F189B2C16077E790F8791021298E
:104E800001D002207047B0F8621021B18168B1F5FD
:104E9000805F14D015E001680A68920004D58A6822
:104EA00022F400028A6003E00A6822F080020A60AD
:104EB0000068016841F0400101600020704701690D
:104EC00059B1C16D4A1CC26502680978118530F874
:104ED000621F491E018000207047C16D0268098869
:104EE000C1F308011185C16D891CC165EFE72DE98A
:104EF000F04104460E4617469846069D1DE0681C84
:104F00001BD02DB1FCF704F8A0EB0800A84214D97F
:104F10002068016821F4D07101602068816821F067
:104F200001018160202084F8790084F87A00002053
:104F300084F878000320BDE8F0812068C06936EA73
:104F4000000004D00020B842D9D00020F3E70120AF
:104F5000F9E7000070B500240C4D0D48FDF768FE20
:104F600002E0641CAC4204D80948FDF75BFE20282F
:104F7000F7D1002402E0641CAC4206D805490122A6
:104F80000348FDF791FF0028F5D170BDFFFF010038
:104F9000580100240C000024FEE700000FB4054B6C
:104FA00010B503A9044A029800F03CF810BC5DF863
:104FB00014FB000059530008100000240FB4084BE4
:104FC00010B504A902AA039800F02CF8044602A91F
:104FD000002000F087F9204610BC5DF814FB0000AB
:104FE000E55200080907090E002804DB00F1E02063
:104FF00080F80014704700F00F0000F1E02080F806
:10500000141D704702E008C8121F08C1002AFAD117
:1050100070477047002001E001C1121F002AFBD138
:10502000704700002DE9FF4F8DB09B460F460446A8
:10503000002606E025280BD05A460F999047641C9D
:10504000761C20780028F5D111B03046BDE8F08FED
:105050000025A8460122984900E0054314F8013FC5
:10506000203B02FA03F00842F7D120782E2817D10E
:1050700014F8010F45F004052A280ED06FF02F0216
:105080002078A0F1300109290AD808EB880102EB49
:10509000410100EB0108641CF2E757F8048B641C23
:1050A00020786C280DD004DC4C2812D06A2811D14D
:1050B00004E074280DD07A280CD10AE045F40015DC
:1050C00007E0617845F48015814202D1641C05F542
:1050D0008015641C2278692A45D008DC002AB3D0E8
:1050E000582A69D0632A10D0642A08D13BE0702A7C
:1050F00067D0732A13D0752A5CD0782A5CD010460A
:105100005A460F999047761CD3E017F8040B8DF898
:10511000000000208DF80100E946012003E057F867
:10512000049B4FF0FF3069074FF0000501D40AE0FF
:105130006D1C45450DDA8542FADB19F8051000298A
:10514000F6D106E06D1C8542FCDB19F8051000293C
:10515000F8D12E4404E019F8010B5A460F999047F4
:105160006D1EF8D2A5E00A200021CDE90801C5F3A3
:10517000025002280DD001CFC117031E71F10003A8
:105180000DDA4FF0000CD0EB0C006CEB01012D237D
:1051900008E0FF1D27F00707F7E80201EDE72B0500
:1051A00004D52B238DF8283001233BE0EB0739D0C1
:1051B0002023F7E70A2000E010200021CDE90801B4
:1051C00007E01020002145F00405CDE908014FF06B
:1051D0000808C5F3025002280FD001CF00214FF07C
:1051E000000A2B071FD5702A0DD0DDE908C38CF00B
:1051F000100C5CEA030C0CD015E0FF1D27F007072C
:10520000F7E80201EBE740228DF828204FF0010A71
:105210000BE050EA010306D030238DF828308DF8DA
:10522000292002239A46582A04D024A20DF12009ED
:105230000B9209E026A2F9E7DDE90823FBF750F815
:105240000B9B9B5C09F8013D50EA0102F4D1ADEBE8
:10525000090020300890680701D44FF00108089930
:10526000884502DDA8EB010000E000208046002513
:1052700006E00AA85A46405D0F9990476D1C761CBF
:105280005545F6DB04E030205A460F999047761CCE
:10529000B8F10001A8F10108F5DC05E019F8010BEF
:1052A0005A460F999047761C0899481E0890002985
:1052B000F4DC641CC5E600000928010030313233FB
:1052C0003435363738396162636465660000000042
:1052D000303132333435363738394142434445462C
:1052E000000000000A68531C0B601070704700003B
:1052F00010B504460420FDF771FC0148046010BDA0
:105300000800002470B5054600244FF47A7603E0C7
:10531000304600F005F8641CAC42F9D370BD0000C3
:1053200070B500214FF0E0256C690A4A12685043BD
:10533000AB69AA699A42FCD003D2A3EB02031944D9
:1053400003E0A4EB02063344194413468142F0D330
:1053500070BD0000080000240349CA695206FCD54C
:10536000C2B20A8570470000001001400025FBF71B
:105370002DF8FBF7DBFD042302220521A020FFF717
:1053800051F84FF4C870FFF7B3FF4FF4E13000F06D
:1053900089FAFEF759F9FDF715FEFDF75BFFFBF7FC
:1053A000D7FA4FF6FF70FDF77DFE002000F040F9C0
:1053B00010214FF47844084647A32246FBF780F9B2
:1053C0001F222021102049A3FBF77AF91F22302148
:1053D00010204BA3FBF774F91F22402110204DA38E
:1053E000FBF76EF9504F4FF4FA7615E05A2122463A
:1053F00010204EA3FBF764F93046FFF783FF5A21D4
:10540000224610204DA3FBF75BF93046FFF77AFFE9
:1054100002213846FBF771FDFEF7CEFB0028E5D1EF
:1054200000F0ACF91F225A21102048A3FBF748F9DD
:105430004A48D0E912100A0D031542EA00324D48DD
:1054400047A1FFF7BBFD4B4B1F226E211020FBF73E
:1054500037F90020FDF7E6FD022812D18102002075
:1054600000F072F90646012230460021FEF7F8FDF1
:10547000014699B140A0FFF791FD0020314600F0B0
:1054800057F96D1CEDB20A20FFF73CFF142DE0D157
:1054900002213846FBF731FD0025DAE71F22822181
:1054A000102038A3FBF70CF93BA0FFF777FD002491
:1054B0004FF400783DA0315DFFF770FD641C44455A
:1054C000F8D33BA0FFF76AFD1F22822110203CA3E6
:1054D000FBF7F6F8D1E70000202053544D33324853
:1054E0003720534420436172642000002020C7B657
:1054F000C8EBCABDBFAAB7A2CDF82020200000008B
:105500006D63756465762E74616F62616F2E636F73
:105510006D0000004B4559323A5265616420536575
:1055200063746F722030000000000258534420431F
:10553000617264204572726F72210000506C656167
:10554000736520436865636B21200000534420434A
:10555000617264204F4B202020200000F8010024BD
:10556000534420436172642053697A653A2025755B
:10557000204D4200700000246572723A25640D0AC5
:10558000000000005553415254312053656E646948
:105590006E67202E2E2E0000534543544F5220306C
:1055A00020444154413A0D0A0000000025782000B3
:1055B0000D0A4441544120454E4445440D0A000023
:1055C0005553415254312053656E6420204F766507
:1055D0007221000070B5144A131893F83830002B6C
:1055E00012D0124B53F820308B421AD90F4B183B74
:1055F00053F82030B1FBF3F102EB8002106A50F84F
:1056000021300020002408E011688847012070BD87
:10561000156A0E1845F82640401C9842F8DB002019
:1056200070BD022070BD00002C0000243459000819
:1056300030B504460748084D002150F82400820088
:1056400005EB8400006A00F091F80120291981F827
:10565000380030BD045900082C0000242DE9F04129
:1056600005460F460024DFF8848008EB050090F81B
:105670003800002803D1D8F80010284688474FF09A
:10568000FF33F7B11A4E56F82500B7FBF0F2B7FB1F
:10569000F0F100FB117000B1521C1548183850F899
:1056A0002510491E00291FDB08EB8507386A50F8D2
:1056B00021C0BCF1000F07D00024944211D1002377
:1056C00009E01846BDE8F081641CF6E7386ACC189A
:1056D00040F824205B1C9342F8D356F82500484339
:1056E000F0E7491E0029E2DA1846EBE72C00002417
:1056F0001C59000810B5002200210B4B0B4C53F82D
:10570000203004EB800005E0046A54F8214004B125
:10571000521C491C8B42F7D84FF47A704243B2FBBB
:10572000F3F080B210BD0000045900082C000024E2
:10573000002906D0034A02EB80029268891AFFF71B
:1057400049BF70472C00002410B504462046FFF7DF
:1057500085FF411C05D0044901EB84018968084498
:1057600010BD002010BD00002C00002401E000F856
:10577000011B521E531CFAD17047000010B5194C82
:1057800094F85600002806D0012808D002280AD034
:1057900003280FD10BE014A0FFF700FC0AE018A0CB
:1057A000FFF7FCFB06E01CA0FFF7F8FB02E020A0DF
:1057B000FFF7F4FB14F82C1F23A0FFF7EFFB218D5C
:1057C00028A0FFF7EBFBD4E907010A0342EA1051D6
:1057D00028A0FFF7E3FB616A2CA0BDE81040FFF7AB
:1057E000DDBB0000F801002443617264205479702D
:1057F000653A534453432056312E310D0A000000C0
:105800004361726420547970653A5344534320567F
:10581000322E300D0A00000043617264205479700A
:10582000653A534448432056322E300D0A0000009A
:105830004361726420547970653A4D4D4320436151
:1058400072640D0A0000000043617264204D616EB5
:1058500075666163747572657249443A25640D0A10
:105860000000000043617264205243413A25640DF8
:105870000A000000436172642043617061636974CF
:10588000793A2564204D420D0A000000436172649C
:1058900020426C6F636B53697A653A25640D0A0D7B
:1058A0000A00000010B50B49094A0A604860002050
:1058B0008860C860086188610C2048610846FDF76F
:1058C0007BFABDE81040044901220248FDF7ECBA1A
:1058D00000100140580100240C00002400000000CA
:1058E0000102030401020304060708090100020083
:1058F0000400060008000A000C0010002000400010
:10590000800000010010000001000000000F0000F6
:10591000C003000080070000C0030000400000003A
:105920004000000040000000400000004000000077
:1059300040000000000004004000000000C0030020
:1059400000F0000000E0010000F000000000000096
:105950000000000000000000000000003F400000C8
:105960000000000000003000400030004000000057
:1059700009000BC03D000BC03D00090018C02440C9
:105980007FE0224031800000180024C01B000D8001
:105990003240018003801C4027401C8007400040AB
:1059A0001000600000000000000000000000000087
:1059B00000001F80204040200000402020401F8029
:1059C00000000000090006001F800600090000001A
:1059D000040004003F800400040000000010006088
:1059E00000000000000000000400040004000400A7
:1059F0000400000000000040000000000000000063
:105A0000002001C006003800400000001F80204038
:105A1000204020401F800000000010403FC0004098
:105A20000000000018C0214022402440184000001F
:105A300010802040244024401B80000002000D0004
:105A400011003FC0014000003C802440244024401D
:105A5000238000001F802440244034400380000045
:105A60003000200027C03800200000001B802440A8
:105A7000244024401B8000001C0022C02240224001
:105A80001F8000000000000008400000000000002F
:105A9000000000000460000000000000000004009E
:105AA0000A00110020804040090009000900090097
:105AB0000900000000004040208011000A0004009E
:105AC0001800200023402400180000001F80204000
:105AD000274029401F400000004007C039000F0048
