:020000040800F2
:10000000282B0024AD020008693C0008D134000808
:10001000B90200080F080008C94A000800000000E3
:100020000000000000000000000000001740000871
:10003000C90A0008000000006B3C000815420008D7
:10004000C7020008C7020008C7020008C70200086C
:10005000C7020008C7020008C7020008C70200085C
:10006000C7020008C7020008C7020008C70200084C
:10007000C7020008C7020008C7020008C70200083C
:10008000C7020008C7020008C7020008C70200082C
:10009000C7020008C7020008C7020008C70200081C
:1000A000C7020008C7020008C7020008C70200080C
:1000B000C7020008C7020008C7020008C7020008FC
:1000C000C7020008C7020008C7020008C7020008EC
:1000D000C7020008854A0008C7020008C7020008D6
:1000E000C7020008C702000800000000C70200089D
:1000F000C7020008C7020008C7020008C7020008BC
:10010000C7020008C7020008C7020008C7020008AB
:10011000C7020008C7020008C7020008C70200089B
:10012000C7020008C7020008C7020008C70200088B
:10013000C7020008C7020008C7020008C70200087B
:1001400000000000000000000000000000000000AF
:10015000C7020008C7020008C7020008C70200085B
:10016000C7020008C7020008C7020008C70200084B
:10017000C7020008C7020008C7020008C70200083B
:10018000C7020008C7020008C7020008C70200082B
:10019000C7020008C7020008C7020008C70200081B
:1001A000C7020008C7020008C7020008C70200080B
:1001B000C7020008C7020008C7020008C7020008FB
:1001C000C7020008C7020008C7020008C7020008EB
:1001D000C7020008C7020008C7020008C7020008DB
:1001E000C7020008C7020008C7020008C7020008CB
:1001F000C7020008C7020008C7020008C7020008BB
:10020000C7020008C7020008C7020008C7020008AA
:10021000C7020008C7020008C7020008C70200089A
:10022000C7020008C7020008C7020008000000005B
:10023000C7020008C702000800000000C70200084B
:10024000C7020008C7020008C7020008C70200086A
:10025000C7020008C7020008C7020008C70200085A
:10026000C7020008C7020008C7020008C70200084A
:10027000C7020008C7020008C7020008000000000B
:10028000C702000800000000C702000800000000CC
:1002900000000000C7020008DFF80CD000F036FABA
:1002A0000048004789540008282B0024064880474E
:1002B00006480047FEE7FEE7FEE7FEE7FEE7FEE74B
:1002C000FEE7FEE7FEE7FEE7194200089902000894
:1002D0002DE9F05F0546002092469B46884606467B
:1002E000814640241BE0284641464746224600F00E
:1002F00045F853465A46C01A914110D31146184644
:10030000224600F02CF82D1A67EB01084F462246D2
:100310000120002100F023F817EB00094E41201EB8
:10032000A4F10104DFDC484631462A464346BDE8D5
:10033000F09F30B50B46014600202022012409E041
:1003400021FA02F59D4205D303FA02F5491B04FA8E
:1003500002F52844151EA2F10102F1DC30BD202A6D
:1003600004DB203A00FA02F1002070479140C2F10C
:10037000200320FA03F3194390407047202A04DB3E
:10038000203A21FA02F00021704721FA02F3D0400E
:10039000C2F1200291400843194670472DE9FE4FF3
:1003A000804681EA0300C00F0C46009021F0004116
:1003B00023F00045B8EB0200A94105D24046214692
:1003C00090461C460B46024623F00040104347D09F
:1003D000270DC7F30A00C3F30A510290401A019097
:1003E00040286BDAC3F3130040F4801B0098924658
:1003F00020B10023D2EB030A63EB0B0B01985946A3
:10040000C0F140025046FFF7AAFF06460D4650468F
:100410005946019A00F08CF910EB08006141002464
:1004200087EA115284EAE7731A4340D0009A62B314
:10043000019A012A4FEA075215DC001B61EB020109
:100440004FF0004202EA0752CDE90042001C41F59C
:10045000801132462B4600F08CF903B0BDE8F08FD6
:1004600040462146F9E7001B61EB0201001C41F503
:10047000801300185B412018A2F5001747EB030119
:1004800040EAD570B6196D4111E06D084FEA3606A5
:1004900045EAC0754FEA0752001B61EB0201001CE0
:1004A00041F5801149084FEA3000001951413246A8
:1004B0002B4603B0BDE8F04F00F04CB90098012284
:1004C00040000023D0EB020263EBE073009821466A
:1004D0004FEAE074B8EB000061EB0401E9E783F058
:1004E00000435BE781F0004158E72DE9FE4F81EAC8
:1004F000030404F0004421F0004100944FF0000B8D
:1005000023F0004350EA01045ED052EA03045BD0BA
:10051000C3F30A54C1F30A552C44A4F2F3340194F2
:10052000A0FB0254C1F3130141F48011C3F3130380
:1005300043F4801301FB024400FB034E840A970A34
:1005400044EA815447EA8357A4FB076802958D0A61
:1005500005FB07854FEA932C04FB0C542705029DED
:100560004FEA065847EA1637B5EB08056EEB070C5D
:10057000870E920E47EA811742EA8312A7FB020117
:10058000B6EB0B0164EB00042B0D43EA0C335E1851
:1005900044EB1C50DA465146E7FB0201C5F3130455
:1005A0004FEA0B3343EA14534FEA0432019C43EA07
:1005B0000603A4F10C040294009CCDE900B400F001
:1005C000D8F803B0BDE8F08F00200146F9E72DE927
:1005D000F04D81EA030404F0004B21F0004514467D
:1005E0004FF0000A23F0004150EA050220D054EAFF
:1005F00001021DD0C5F30A570246C5F31303C1F328
:100600001300C1F30A5640F4801543F48013A7EB9E
:100610000608101BD64608F2FD3873EB050002D31E
:1006200008F1010801E092185B41B8F1000F03DA0C
:1006300000200146BDE8F08D00204FF480110646F1
:1006400084460EE0171B73EB050705D3121B63EB03
:10065000050306434CEA010C49084FEA30009218A2
:100660005B4150EA0107EDD152EA030012D082EA61
:10067000040083EA0501084305D0101BAB4106D2F4
:100680000122002306E000224FF0004302E06FF059
:10069000010253101AEB06004CEB085110EB0A0054
:1006A00041EB0B01BDE8F04D00F054B8C1F30A5224
:1006B000C1F3130140F2FF3341F480119A4202DA90
:1006C00000200146704740F233439A42A2F233427F
:1006D00002DC5242FFF752BEFFF741BE30B5041EA6
:1006E00071F1000404DB4FF00044404264EB01016F
:1006F000141E73F1000405DB1C464FF00043524208
:1007000063EB0403994208BF904230BD064C074D8D
:1007100006E0E06840F0010394E8070098471034D1
:10072000AC42F6D3FFF7BCFD887A0008A87A00082F
:10073000202A06DBCB17203A41FA02F043EAE073A5
:1007400006E041FA02F3D040C2F120029140084392
:100750001946704710B5141E73F1000408DA401CE6
:1007600041F1000192185B411A4301D120F00100D0
:1007700010BD2DE9F04D92469B4611B1B1FA81F2C0
:1007800002E0B0FA80F220329046FFF7E8FD04461E
:100790000F4640EA0A0041EA0B0153465A46084315
:1007A00013D0114653EA010019D0C8F14002504657
:1007B000FFF7E4FD05460E46504659464246FFF710
:1007C000CEFD084305D0012004E020463946BDE8AF
:1007D000F08D0020054346EAE0762C4337430A9823
:1007E0006305E40AA0EB08000022FD0A44EA47542E
:1007F0000A3002D500200146E9E7010510196941D8
:10080000DDE9084500196941BDE8F04DA2E7FEE7C2
:10081000F0B5BFF34F8FBFF36F8F1D490020086005
:10082000BFF34F8FBFF36F8F1A4C216841F4003133
:100830002160BFF34F8FBFF36F8F1649703108608F
:10084000BFF34F8F081F006843F6FF75104E103638
:10085000C0F34E31C0F3C90305EA4112184642EA1B
:1008600080773760401EFAD2491EF5D2BFF34F8F12
:10087000206840F480302060BFF34F8FBFF36F8F4C
:1008800003484C30016841F004010160F0BD0000F4
:1008900050EF00E014ED00E02DE9F0430D4F00248F
:1008A0001D4616468846814604EB041017F81010C2
:1008B000B14209D107EB40014878A84204D1891C14
:1008C0004246484600F02AF8641CA4B2382CEBD308
:1008D000BDE8F083CE6F00082DE9F0430E4F0024F1
:1008E0001D4616468846814604EB840000EB441002
:1008F00017F81010B14209D107EB40014878A8421F
:1009000004D1891C4246484600F008F8641CA4B291
:10091000092CE9D3BDE8F083A4770008002310B5C3
:1009200004E011F8014B5B1C00F8014B9342F8D333
:1009300010BD000001681823CAB2103AB2FBF3F2EE
:10094000054B6FF30901032A9B5CC36500D9091DA0
:100950008165084670470000ED57000810B5124940
:100960000123026854188C2CD1B20AD814220839F9
:10097000B1FBF2F10D4A02EB810202660B4A8032B2
:100980000EE018241039B1FBF4F1094C2244A82AD6
:1009900000D80831074A02EB81020266054A80321C
:1009A0008B40C0E9192310BDF8ABFDA700580258D1
:1009B000F0FBFDBF0008024010B5017903684A1E34
:1009C000072A14D80A4C23448C2B06D8094B03EB76
:1009D0008101C1660749443105E0074B03EB810102
:1009E000C16605494431016701219140416710BD4D
:1009F000F8ABFDA7FC580258FC080240014610B5B0
:100A000000208B694FF0C0748A6A53B1B3F5005F60
:100A100015D072B1012A0CD0022A0AD0032A09D1BA
:100A200004E01AB1012A06D0022A03D1C96AC90119
:100A300000D5012010BDC96AA142FAD010BD002A1C
:100A4000F7D0012AF2D0022AF3D0032AF3D010BD46
:100A5000F0B5D0E91964856D7460C46E14B1D0E945
:100A60001C466660154E04682644B6F5956F11D88D
:100A700090F85C603F24B440AC600468256825F4BD
:100A8000802512E09A600068C160F0BD996000683E
:100A9000C260F0BD0A4D2C448C2CFAD8094C256854
:100AA000012690F85C70BE403543256004686360A1
:100AB0008368402B0368E9D1E4E70000F0FFFDBF45
:100AC000F8ABFDA70454025870470000F0B51C466F
:100AD000094B0A4F164685B04FF0000C10251A88B6
:100AE0005B883F88121A5B1A8DE8F01092B29BB2B5
:100AF00000F0BAF905B0F0BD142100243000002444
:100B00002DE9FF411C46084B1646002710251A8880
:100B10005B88121A5B1A8DE8F00092B29BB203F068
:100B2000C7FABDE8FF810000142100242DE9FF4130
:100B30001C46084B1646002718251A885B88121A8F
:100B40005B1A8DE8F00092B29BB203F0B1FABDE8F7
:100B5000FF810000142100242DE9F0411546DFF843
:100B60005C8001220C46064640461703394600F0D9
:100B700066FD052000F0D6F9032003F095F9C4F3D3
:100B8000074003F091F9C4F3072003F08DF9E0B2B8
:100B900003F08AF9002405E0FF2003F085F93055C1
:100BA000641CA4B2AC42F7D300223946404600F0A0
:100BB00046FDBDE8F041052000F0B4B9000402583C
:100BC00030B40C460178202A1AD009DC0C2A0DD04A
:100BD000102A13D0182A17D10C4801FB030108E092
:100BE000302A0FD0402A0FD10948F6E7594301F5C2
:100BF0000021204630BC1A46FFF7AEBF0548ECE79F
:100C00000548EAE70548E8E730BC704700120800ED
:100C100000920800000808000026080000480800AC
:100C200030B40C460146007815464A78812809D32D
:100C3000402A07D3FF2A05D0FF2803D07F2A0CD2F1
:100C4000403A0BE00022104603E0521C92B204F836
:100C5000010B9A42F9D330BC7047413A8138C0B297
:100C6000D1B2C0EB401202EB801001EB40015943BE
:100C70000C2D0CD0102D0CD0182D0DD0202DEAD11C
:100C800001F56011204630BC1A46FFF765BF0448E5
:100C900000E004480144F5E701F5ED11F2E700003A
:100CA0000014090000DD1100AFF3008070B586B0BC
:100CB0004FF6FF7002F080FC00206C46054625547C
:100CC000401CC0B21828FAD3112220460021FFF799
:100CD00043FF10216B464FF4784608463246FFF733
:100CE000F5FE00202554401CC0B21828FAD3082273
:100CF00068461421FFF730FF20216B461020324652
:100D0000FFF7E4FE00202554401CC0B21828FAD397
:100D1000082268461E21FFF71FFF30216B46102076
:100D20003246FFF7D3FE4FF4FA6004F07BFB06B0C7
:100D300070BD2DE9F04FC1B01C4616460D468246E7
:100D40008946580701D0012100E0002101EBD400C1
:100D500061080C2C10FB01F0834609D0102C07D041
:100D6000182C05D0202C03D0302C01D0402C2DD1B4
:100D70000346224669463046FFF722FF002022E064
:100D80001DF808700026380601D54A9A02E04C98F2
:100D900020B94B9A2946504602F070FC78066D1C2B
:100DA000ADB2070EA5EB0900A04205D10AF1010082
:100DB0004D461FFA80FA03E0761CB6B2082EE2D345
:100DC00008F1010080B258458046D9D341B0BDE852
:100DD000F08F2DE9F04FA1B01F4615460C46824614
:100DE0008946580701D0012100E0002101EBD7001E
:100DF0000C2F10FB07F0834605D0102F03D0182FBF
:100E000001D0202F2DD103463A4669462846FFF7E8
:100E100007FF002022E01DF808600025300601D5FC
:100E20002A9A02E02C9820B92B9A2146504602F0CB
:100E300025FC7006641CA4B2060EA4EB0900B8429F
:100E400005D10AF101004C461FFA80FA03E06D1C3F
:100E5000EDB2082DE2D308F10100C0B2584580463A
:100E6000D9D321B0BDE8F08F2DE9FF4F83B09B4669
:100E70000E46044680468A46DDE91075002081460C
:100E800020E0B9F1000F23D005994FF0000908EBDD
:100E90000100401BA04202DA7019444686B20AEBF8
:100EA0000B00401BB04210DB12AB93E807002B464F
:100EB0008DE807003A4631462046FFF78AFF601961
:100EC00084B2BF1C38780028DBD107B0BDE8F08FB2
:100ED000802801D90120D2E7059A08EB0201A1EB95
:100EE0005501A14202DA711944468EB20AEB0B0198
:100EF000491BB142E9DB0D280FD012AB93E8070084
:100F00002B468DE807003A4631462046FFF711FF91
:100F100004EB550084B27F1CD4E77019444686B2B6
:100F20007F1CF5E7002206E00021491CC9B26429B4
:100F3000FBD3521CD2B28242F6D3704770B416462D
:100F400002781D464378812A0C4610D3402B0ED3DD
:100F5000FF2B0CD0FF2A0AD00C2D11D0102D11D050
:100F6000182D0DD13146204670BCFFF7B5BC0021CD
:100F7000084603E0491C04F8010BC9B2B142F9D399
:100F800070BC70473146204670BCFFF785BC00003E
:100F90002DE9F0470027044600F056FB0646C4B38F
:100FA00094F83500B846022804D08020606584F8A3
:100FB00034802EE020684FF495622B494318934209
:100FC000036809D823F01E0303602068436923F0F7
:100FD00080034361A76D02E023F00E030360206EDF
:100FE0002568036823F4807303602068894692466D
:100FF000016821F0010101600EE000F025FB801B7B
:10100000052809D92020606584F83480032084F8FD
:1010100035000120BDE8F0872868C007EDD12168C0
:1010200001EB09000121504505D894F85C203F20D0
:101030009040B86005E094F85C000C4A01FA00F0BA
:101040001060D4E919024260E06E30B1026822F407
:1010500080720260D4E91C02426084F8348084F813
:1010600035100020D6E70000F0FFFDBF0454025801
:1010700010B528B190F83510022903D080214165C0
:10108000012010BD1D4A4FF4956301688C189C42E5
:1010900007D8042280F83520086820F00100086095
:1010A00029E00C6824F00E040C6001680A440A6808
:1010B00022F001020A60016E0A6822F480720A605E
:1010C00090F85C30012202FA03F10D4B1960D0E96F
:1010D00019134B60C16E31B10B6823F480730B6040
:1010E000D0E91C134B60002180F8341080F83520C3
:1010F000016D01B18847002010BD0000F0FFFDBF69
:101100000454025870B5040024D094F83500022825
:1011100022D020682A49036823F001030360206875
:1011200000250144B1F5956F1AD805602068456027
:10113000206885602068C5602068056121202168DD
:1011400048612046FFF7F6FB94F85C203F21914070
:10115000816016E0012070BD4FF400606065F9E722
:10116000184901448C290CD8056020684560206826
:1011700085602068C560012094F85C1088401249A1
:1011800008602046FFF7EAFB206E18B10560D4E93D
:10119000190141606068401E072807D82046FFF704
:1011A0000BFCE06E0560D4E91C014160E566256733
:1011B0006567656584F83550002084F8345070BD4B
:1011C000F0FFFDBFF8ABFDA704540258406D704717
:1011D0002DE9F047044600F037FA0646BCB15E49F7
:1011E0002027206800254FF0010A4FF0030842181D
:1011F0004FF040090221B2F5956F50D884F8345071
:1012000084F83510016821F00101016009E0012036
:10121000BDE8F08700F018FA801B052801D9676542
:1012200079E020680068C007F4D121680A684B485B
:101230000240D4E902031843D4E904363343184387
:10124000A3691843E3691843236A18431043626A89
:10125000042A03D1D4E90B231A4310430860206801
:10126000406920F00701606A042840EA01060BD1BA
:10127000A06A0643E06A38B12046FFF7BFFB18B109
:10128000C4F85490504647E0206846612046FFF776
:1012900051FB94F85C203F21914081602DE0304B60
:1012A000C2188C2A35D884F8345084F83510026876
:1012B00047F6F0718A43A168402925D0802925D0BE
:1012C0000021E66841EAD601266941EAD60166694D
:1012D00041EAD601A66941EAD601E66907EAD606DF
:1012E0003143266A41EA1611114301602068142136
:1012F0001844B0FBF1F08000E0652046FFF72EFBBC
:10130000A06880280BD00BE01021DAE74FF4804171
:10131000D7E7C4F85490404684F8350077E7656015
:10132000216E20790860D4E9190141606068401E8F
:10133000072808D82046FFF73FFBE06E0560D4E998
:101340001C01416002E0E56625676567656584F814
:1013500035A000205CE70000F0FFFDBF3F8010FEDD
:10136000F8ABFDA72DE9F04104004FF0000514D0C3
:1013700094F83400012812D0012084F8340094F845
:1013800035600020012E0CD084F834004FF400604A
:10139000606501252846BDE8F0810120FBE70220B9
:1013A000F9E7022684F8356060654FF49567206898
:1013B0001F4ED0F800C02CF0010CC0F800C0204631
:1013C000FFF746FB20688119B942016810D821F067
:1013D0001E0141F0160101602068416941F0800161
:1013E0004161206C80B12068016841F008010AE089
:1013F00021F00E0141F00A010160206C20B120684B
:10140000016841F004010160206E0168C90303D541
:10141000016841F480710160E06E18B1016841F427
:10142000807101602068016841F001010160B1E74D
:10143000F0FFFDBF0248016841F001010160704703
:10144000200400582DE9F84F6C4C00224FF0B04AB0
:101450004FF0010B4FF0030E4FF00F090B680BFA22
:1014600002F73B40BB4270D14D68022D01D0122DD6
:1014700012D1D50800EB850CDCF820605507ED0E85
:1014800009FA05F826EA0806D1F8108008FA05F8E6
:1014900048EA0608CCF82080D0F80080560091F881
:1014A00004C00EFA06F50CF0030C28EA05080CFA45
:1014B00006FC4CEA080CC0F800C0D1F804C0BCF12E
:1014C000010F08D0BCF1020F05D0BCF1110F02D002
:1014D000BCF1120F16D1D0F808C0D1F80C802CEA5C
:1014E000050C08FA06F848EA0C08C0F80880D0F89D
:1014F00004C02CEA070C0F79C7F30017974047EA9E
:101500000C074760C768AF438D68B5403D43C56071
:101510004D68ED006BD53A4D2E6846F002062E6000
:101520002D6822F0030606F1B04605F0020500958D
:10153000D6F808C495072F0F09FA07F52CEA050C11
:10154000304DA84202D100252EE050E02E4DA84299
:1015500001D1012528E02D4DA84201D1022523E02B
:101560002B4DA84201D103251EE02A4DA84201D1EE
:10157000042519E0284DA84201D1052514E0274D86
:10158000A84201D106250FE0254DA84201D107252B
:101590000AE0244DA84201D1082505E0224DA842C9
:1015A00001D1092500E00A25BD4045EA0C05C6F831
:1015B000085425684E689D43F60300D51D432560F9
:1015C00065684E689D43B60300D51D436560DAF833
:1015D000005056464F689D43FF0200D51D433560BD
:1015E00075684F689D43BF0200D51D437560521C4E
:1015F000102AFFF433AFBDE8F88F000080000058D8
:10160000F44402580000025800040258000802582E
:10161000000C02580010025800140258001802581A
:10162000001C02580020025800240258006908409B
:1016300000D00120704742694A40426170470AB1B8
:1016400001837047418370470148806870470000FC
:1016500020000024024881680278114481607047AC
:1016600020000024032010B500F0A2F80F2000F0A5
:1016700007F808B1012010BD00F06CF8002010BD83
:1016800070B50D4D04464FF47A712878B1FBF0F037
:101690000A490968B1FBF0F001F0D6FC48B9102CFA
:1016A00007D200222146501E00F062F800206C6034
:1016B00070BD012070BD0000200000240C0000243B
:1016C000134A41781160111D03780A1DE3B1436884
:1016D0000B60017BC37A090741EA0361837A41EA1F
:1016E000C341437B41EA8341837B41EA4341C37B5E
:1016F00041EA0341437A41EA0321037A007841EA4F
:10170000430101431160704700200860106070477A
:1017100098ED00E0BFF35F8F0448016821F4803149
:1017200001600249002070310860704724ED00E03C
:10173000074940F00100086005487038016841F42D
:1017400080310160BFF34F8FBFF36F8F7047000090
:1017500094ED00E07047002809DB012100F01F0232
:1017600091404009800000F1E020C0F8001170476E
:101770000E4BF0B41B68C3F30223C3F10704042C1F
:1017800000D904241D1D072D01D2002300E0DB1E1B
:10179000012606FA04F56D1E0D409D409E40761E02
:1017A000164045EA0601F0BC03F0B4B90CED00E0C8
:1017B000064A00F0070110684FF6FF03184040EAA0
:1017C0000120034908431060704700000CED00E061
:1017D0000000FA0510B500F0B3FE084909684FF49F
:1017E000807292FAA2F201F47061B2FA82F2D140F0
:1017F000034A515CC8400349086010BD18440258B0
:10180000DD5700080C00002410B500F053FE074916
:101810000968102292FAA2F201F07001B2FA82F283
:10182000D140034A515CC84010BD0000204402581A
:10183000DD570008364930B50A68096812F003021E
:10184000344BC1F305311B68334C03F0100324689B
:10185000DFED320AB7EE001AC4F3CC0414FB03F335
:1018600000EE103A2E4BB8EE400A07D02D4C012A5C
:1018700001D0022A4AD0B4FBF1F10BE0244C283C01
:1018800022689506284A03D52468C4F3C104E240BF
:10189000B2FBF1F101EE901A1968B8EE612AC1F3BA
:1018A000080101EE901A1968F8EE611A40EE201A4C
:1018B00031EE810A22EE000AC1F34621491C00EEF6
:1018C000901AF8EE600A80EE201AFCEEC10AC0ED14
:1018D000000A1968C1F30641491C00EE901AF8EE9F
:1018E000600A80EE201AFCEEC10AC0ED010A1968F8
:1018F000C1F30661491C00EE901AF8EE600A80EE12
:10190000201ABCEEC10A80ED020A30BD074ABFE7CB
:10191000284402582C4402583C4402580000003924
:101920003844025800093D000090D00340787D0102
:10193000364930B50A68096812F00302344BC1F326
:1019400005511B68334C03F480732468DFED320AC1
:10195000B7EE001AC4F3CC0414FB03F300EE103A04
:101960002E4BB8EE400A07D02D4C012A01D0022A96
:101970004AD0B4FBF1F10BE0244C283C22689506D8
:10198000284A03D52468C4F3C104E240B2FBF1F154
:1019900001EE901A1968B8EE612AC1F3080101EE50
:1019A000901A1968F8EE611A40EE201A31EE810A99
:1019B00022EE000AC1F34621491C00EE901AF8EE0F
:1019C000600A80EE201AFCEEC10AC0ED000A196818
:1019D000C1F30641491C00EE901AF8EE600A80EE51
:1019E000201AFCEEC10AC0ED010A1968C1F30661B4
:1019F000491C00EE901AF8EE600A80EE201ABCEE48
:101A0000C10A80ED020A30BD074ABFE728440258E8
:101A10002C44025844440258000000394044025803
:101A200000093D000090D00340787D012DE9F84F7A
:101A30000446006800252E46010104F12400FE4FF3
:101A4000DFF8F88300901DD5606E50B1B0F5801FAF
:101A50000CD0B0F5001F0ED0B0F5401F1DD00125F1
:101A60000FE0386840F40030386016E00221201D95
:101A700002F0FCF803E00098022102F06FF9050083
:101A80000BD02E462088C00523D5606D05281ED2B8
:101A9000DFE800F00C11161B1B00D8F80010626E76
:101AA00021F440111143C8F80010EBE7386840F406
:101AB0000030386009E00021201D02F0D7F803E073
:101AC0000098002102F04AF905466DB100E00125B9
:101AD0002E432088800528D5A06D80281ED00CDCE0
:101AE00090B140280ED114E0D8F80010626D21F0BA
:101AF00007011143C8F80010EBE7C02813D0B0F578
:101B0000807F10D001250FE0386840F40030386045
:101B100009E00021201D02F0A9F803E0009800214F
:101B200002F01CF9054685B12E432088DFF810939A
:101B300040052CD5D4F8A400B0F5800F20D00DDCE2
:101B4000A0B1B0F5001F0FD115E0D8F80010A26DBC
:101B500021F4E0711143C8F80010E6E7B0F5C00FBA
:101B600013D0B0F5000F10D001250FE0386840F415
:101B70000030386009E00021201D02F077F803E012
:101B80000098002102F0EAF8054675B12E4320883E
:101B900000052DD5D4F8A800B0F1007F21D00EDCCF
:101BA000A8B1B0F1807F10D116E0D9F80010D4F8B8
:101BB000A42021F460011143C9F80010E7E7B0F157
:101BC000407F13D0B0F1806F10D001250FE038684E
:101BD00040F40030386009E00021201D02F046F892
:101BE00003E00098002102F0B9F805466DB12E43DC
:101BF000206880011FD5A06CD8B110280FD02028F4
:101C000012D0302815D0012514E0D9F80010D4F8EE
:101C1000A82021F0E0611143C9F80010E8E7386816
:101C200040F40030386004E00221201D02F01EF86C
:101C300005466DB12E432088C0042BD5E06DB0F56C
:101C4000005F20D00DDCA0B1B0F5805F0FD115E0B2
:101C50007A48001F0168A26C21F030011143016035
:101C6000E9E7B0F5405F13D0B0F5804F10D0012503
:101C70000FE0386840F40030386009E00021201D92
:101C800001F0F4FF03E00098002102F067F8054638
:101C900085B12E432088800429D5206EB0F5403FC1
:101CA00023D010DC08B3B0F5803F14D0B0F5003F6E
:101CB0000FD115E0D8F80010E26D21F4E041114396
:101CC000C8F80010E6E7B0F5802F0ED0B0F5A02FD1
:101CD0000BD001250AE00121201D01F0C7FF03E020
:101CE0000098012102F03AF805468DB12E43208874
:101CF00040042AD5D4F8AC00B0F1405F23D010DC0A
:101D000008B3B0F1805F14D0B0F1005F0FD115E0DF
:101D1000D8F80010226E21F4E0211143C8F8001019
:101D2000E5E7B0F1804F0ED0B0F1A04F0BD0012508
:101D30000AE00121201D01F099FF03E00098012134
:101D400002F00CF805466DB12E43208800041FD523
:101D5000E06ED8B1B0F1805F0ED0B0F1005F10D06E
:101D6000012514E0D9F80010D4F8AC2021F0E041AE
:101D70001143C9F80010E8E7386840F400303860D3
:101D800004E00121201D01F071FF05466DB12E43D5
:101D90002068C0011ED5606CD0B101280ED0022889
:101DA00011D0032814D0012513E0D8F80010E26EFA
:101DB00021F040511143C8F80010E9E7386840F4B9
:101DC0000030386004E00221201D01F04FFF05467D
:101DD00075B12E432068DFF86CB040025AD51A481E
:101DE000016841F480710160FFF72EFC82460EE02D
:101DF0001248001F0168626C21F003011143016069
:101E0000E8E7FFF721FCA0EB0A0064283AD80E4867
:101E10000068C005F5D5B5BB094818300068B4F8AE
:101E2000B01000F4407001F44071884219D00448A9
:101E3000183001680AE000002C440258504402584F
:101E4000584402581044025800480258026821F4CD
:101E5000407142F480320260026822F480320260F3
:101E60000160D4F8B000B0F5807F22D1FFF7ECFB21
:101E7000824609E0FFF7E8FBA0EB0A0141F2883057
:101E8000814201D9032504E0FE4800688007F1D5AE
:101E90007DB12E432078DFF8F0A3C0073CD0A06FBF
:101EA000182837D025DC78B3082828D0102824D16A
:101EB0002BE0D4F8B000C0F3012103290ED0DBF8E9
:101EC000001021F47C51CBF80010EE480168B4F802
:101ED000B020C2F30B0211430160DBE7DBF8002006
:101EE000EA4B22F47C5203EA10100243CBF80020A4
:101EF000EBE720280ED028280CD001250BE001218B
:101F0000201D01F0B3FE04E004E00098012101F07F
:101F100025FF05465DB12E43207880071ED5606FF2
:101F2000062819D2DFE800F0160C11161616DAF89A
:101F30000010A26F21F038011143CAF80010EBE73E
:101F40000121201D01F092FE03E00098012101F023
:101F500005FF054675B100E001252E4320784007B6
:101F60001FD5D4F89000062819D2DFE800F0160C2F
:101F700011161616DAF80010626F21F007011143EE
:101F8000CAF80010EAE70121201D01F06FFE03E00E
:101F90000098012101F0E2FE05469DB100E0012517
:101FA0002E43207880062BD5D4F88C00B0F1405F0A
:101FB00024D011DC10B3B0F1805F15D0B0F1005F18
:101FC00010D116E0D9F80010D4F8902021F00701C4
:101FD0001143C9F80010E4E7B0F1804F0ED0B0F122
:101FE000A04F0BD001250AE00021201D01F03EFE8C
:101FF00003E00098022101F0B1FE05468DB12E43A9
:10200000207840062BD5D4F89800B0F5406F24D046
:1020100011DC10B3B0F5806F15D0B0F5006F10D1A2
:1020200016E0DAF80010D4F88C2021F0E0411143DA
:10203000CAF80010E4E7B0F5805F0ED0B0F5A05FFD
:102040000BD001250AE00021201D01F00FFE03E066
:102050000098022101F082FE05468DB12E432078C2
:1020600000062BD5D4F89C00B0F5C04F24D011DC6D
:1020700010B3B0F5005F15D0B0F5804F10D116E069
:10208000D9F80010D4F8982021F4E0511143C9F890
:102090000010E4E7B0F5004F0ED0B0F5204F0BD0A4
:1020A00001250AE00021201D01F0E0FD03E0009879
:1020B000022101F053FE054665B32E432078000748
:1020C0000BD5D4F88000B0F5805F2DD0DAF8002071
:1020D00022F440520243CAF800202078C0060BD5F3
:1020E000D4F89400B0F5807F24D0D9F8002022F4F1
:1020F00040720243C9F80020206800032CD5D4F8B0
:10210000A000E8B1B0F5803F1FD0B0F5003F21D06E
:10211000012520E0D9F80010D4F89C2021F460417A
:102120001143C9F80010C9E70098022101F016FE1A
:102130000643D2E70098022101F010FE0643DBE7D8
:102140000021201D01F092FD03E00098022101F022
:1021500005FE054685B12E432068400322D5D4F8FC
:102160008400B0F5801F11D0B0F5001F13D0B0F57A
:10217000401F15D0012514E0D9F80010D4F8A02094
:1021800021F440311143C9F80010E5E7386840F404
:102190000030386004E00098012101F0DFFD0546C1
:1021A00055B12E432068C0031CD5E06C70B1B0F56A
:1021B000803F10D0012514E0DAF80010D4F8842014
:1021C00021F440111143CAF80010EBE7386840F4DD
:1021D0000030386004E00221201D01F047FD054673
:1021E000C5B12E432068800004D50098022101F07B
:1021F000B5FD0643206880031BD5E06FB8B1B0F58C
:10220000807F10D0B0F5007F11D0B0F5407F0ED0A8
:1022100001250DE01C4808380168E26C21F480318A
:1022200011430160DEE7386840F40030386045B3A0
:102230002E432068C00207D5D8F80000226F20F096
:1022400000401043C8F800002068C00008D5DBF843
:102250000010D4F8B42021F480411143CBF80010D1
:102260002068800207D5D8F80010A26E21F0807196
:102270001143C8F800102068400014D5DBF80010A6
:1022800006E01EE07044025854440258CFFFFF009D
:1022900021F40041CBF80010DBF80010D4F8B8208E
:1022A0001143CBF800102068002806DA0A480168BC
:1022B000226D21F04051114301605EB10120BDE863
:1022C000F88FDAF80010E26F21F440711143CAF878
:1022D0000010AEE70020F2E74C4402582DE9F04729
:1022E000DFF8BC9104460E46D9F8000000F0070064
:1022F000B0420CD2D9F8001021F007013143C9F8DF
:102300000010D9F8000000F00700B0427ED120781C
:10231000DFF89081800707D5D8F80010E26821F037
:102320000F011143C8F800102078C00762D0D8F818
:102330000010A26821F470611143C8F800105949D7
:102340006068183902281CD003281DD009680128AC
:102350001DD04907002960DA524F083F396821F043
:10236000070101433960FFF76FF90546606841F2E4
:102370008831022813D003281ED001288A4627D08E
:1023800034E009688903E5E709688901E2E7C905DE
:10239000E0E7FFF759F9411B514501D923E08A468F
:1023A0003868C0F3C2000228F3D123E0FFF74CF9EC
:1023B000411B514501D916E08A463868C0F3C20076
:1023C0000328F3D116E0FFF73FF9411B51450AD826
:1023D0003868C0F3C2000128F5D10BE0FFF734F9EB
:1023E000411B514502D90320BDE8F087386810F041
:1023F000380FF3D1D9F80010484601F00701B14277
:102400000DD9016821F00701314300E005E00160CA
:10241000006800F00700B04201D00120E4E7207816
:10242000400707D5D8F80010226921F07001114348
:10243000C8F80010207801071B4805D501686269BB
:1024400021F07001114301602178C90605D50168AA
:10245000A26921F4E061114301602078800607D56C
:102460001149091D0868E26920F0700010430860F6
:1024700000F066F8D8F800104FF4807292FAA2F2D9
:1024800001F47061B2FA82F2D140084A515CC8404E
:10249000074908600F20FFF7F3F80020A4E70000C9
:1024A00000200052184402581C440258DD5700080E
:1024B0000C00002410B5FFF78DF9084909680122C6
:1024C00092FAA2F201F00F01B2FA82F2D140044A6C
:1024D000515CC8400349086010BD00001844025810
:1024E000DD5700081000002410B5FFF7E3FF07498F
:1024F0000968102292FAA2F201F07001B2FA82F297
:10250000D140034A515CC84010BD00001C44025831
:10251000DD57000810B5FFF7CDFF074909684FF4F4
:10252000807292FAA2F201F4E061B2FA82F2D14032
:10253000024A515CC84010BD1C440258DD570008D7
:102540003548F0B50068364D10F03801334809D0F1
:102550000411082904D0334E10290BD018290BD0B0
:102560002046F0BD29688906FBD52968C1F3C10161
:10257000C840F0BD3046F0BD274918310A680968E7
:1025800012F00302284BC1F305111B68274F03F01B
:1025900001033F68DFED260AB7EE001AC7F3CC0748
:1025A00017FB03F300EE103A224BB8EE400A06D0B8
:1025B000012A01D0022A2BD0B4FBF1F008E02A68EE
:1025C000920603D52A68C2F3C102D040B0FBF1F0F5
:1025D00001EE900A1868B8EE612AC0F3080001EE17
:1025E000900A1868F8EE611A40EE201A31EE810A5E
:1025F00022EE000AC0F34620401C00EE900AF8EEDE
:10260000600A80EE201ABCEEC10A10EE100AF0BD7E
:10261000B6FBF1F0DCE70000104402580090D00354
:102620000044025840787D012C440258344402583A
:1026300000000039304402582DE9F05F044600786C
:10264000DFF8FC8341F28839DFF8F8A3FE4DC007BC
:102650004ED0D8F800104046C1F3C20102291AD06A
:102660000068C0F3C200032805D1DAF8000000F0CA
:10267000030002280FD06068B0F5803F12D010B17F
:10268000B0F5A02F19D0286820F480302860286881
:1026900020F4802009E02868800329D5606800289C
:1026A00074D025E0286840F480302860606890B1DC
:1026B000FEF7CAFF06464F4609E0286840F480202E
:1026C0002860EFE7FEF7C0FF801BB8427DD828687E
:1026D0008003F7D50CE0FEF7B7FF06464F4604E04F
:1026E000FEF7B2FF801BB842F0D828688003F7D409
:1026F0002078D64F80075AD5D8F8001040464FF4BE
:102700007C3B11F0380F13D00068C0F3C2000328DF
:1027100003D1DAF8000080070AD0E068A8B329687E
:1027200021F0190101432960FEF78EFF06461DE0E6
:102730002868400702D5E0680028B1D02868E16821
:1027400020F0190008432860FEF77EFF064604E0EB
:10275000FEF77AFF801B0228B8D828684007F7D513
:1027600007E0FEF771FF801B0228AFD828684007FA
:10277000F7D538689BFAABF220F47C312069B2FAC5
:1027800082F290400143396011E000E0AEE0286839
:1027900020F001002860FEF757FF064604E0FEF730
:1027A00053FF801B022891D828684007F7D420786F
:1027B000C00655D5D8F8001040464FF0F84BC1F38D
:1027C000C201012917D0006800E0EDE0C0F3C200AB
:1027D000032805D1DAF8000000F0030001280AD030
:1027E000E069002828682CD040F080002860FEF7BF
:1027F0002BFF064616E02868C00502D5E069802850
:1028000074D138689BFAABF220F0F841206AB2FA32
:1028100082F290400143396022E0FEF715FF801BF1
:10282000022899D82868C005F7D538689BFAABF21A
:10283000216AB2FA82F220F0F840914008433860F1
:102840000EE020F080002860FEF7FEFE064604E061
:10285000FEF7FAFE801B022887D82868C005F7D447
:102860002078000724D5774F60694C3700283868F6
:102870000FD040F001003860FEF7E6FE064604E0A7
:10288000FEF7E2FE801B02288DD838688007F7D556
:102890000EE020F001003860FEF7D6FE064604E0A8
:1028A000FEF7D2FE801B02287ED838688007F7D456
:1028B0002078800623D5A069002828680FD040F42E
:1028C00080502860FEF7C0FE064604E0FEF7BCFE1E
:1028D000801B022868D828688004F7D50FE020F410
:1028E00080502860FEF7B0FE064605E0D6E0FEF711
:1028F000ABFE801B022857D828688004F7D42078C4
:10290000400744D5524F386840F480703860FEF775
:102910009BFE064604E0FEF797FE801B642843D822
:102920003868C005F7D5474FA068483701280AD056
:1029300008B1052811D0386820F0010038603868E7
:1029400020F0040002E0386840F001003860A06820
:1029500088B1FEF779FE064609E0386840F00400C9
:102960003860F0E7FEF770FE811B49451CD83868D7
:102970008007F7D50BE0FEF767FE064604E0FEF79A
:1029800063FE811B49450FD838688007F7D4606A19
:10299000F0B3D8F80010C1F3C20103297ED0022899
:1029A000286820F0807000E079E0286003D0FEF70E
:1029B0004BFE044687E0FEF747FE064604E0FEF7BE
:1029C00043FE801B02287BD828688001F7D4DAF800
:1029D000001040F2F3329143E26A41EA0211A26A26
:1029E0001143CAF8001094F834004FF4FE02218E0F
:1029F0004002491EA0F5007080B2C1F308010843EF
:102A0000218F491E02EA0141084394F83C1000E07E
:102A10005CE0491E120202EA0161084309490831DB
:102A200008600B1D19684FF6F872A06C914392FA7A
:102A3000A2F2B2FA82F2904001431960014809E023
:102A400010440258284402580044025804440258D2
:102A500000480258001D0168226C21F00C0111434E
:102A600001600168626C21F002011143016001689C
:102A700041F480310160016841F400310160016876
:102A800041F480210160016841F001010160286882
:102A900040F080702860FEF7D7FD01E018E00FE0FD
:102AA000044604E0FEF7D0FD001B022808D8286881
:102AB0008001F7D50AE0FEF7C7FD001B022802D906
:102AC0000320BDE8F09F28688001F4D40020F8E7D7
:102AD0000120F6E72DE9F05F04004FF000053DD03E
:102AE000DFF8C4812068714E714F4045A36A06D05B
:102AF000B04204D0B84202D0E1680F292ED8E26B70
:102B00004FF0010B0BEB521CE26802F10801C908FF
:102B1000404501FB0CF105D0B04203D0B84201D0D2
:102B200008291BD8404503D0B04201D0B84201D19A
:102B3000102913D84FF480094B4512D1404507D0D6
:102B4000B04205D0B84203D0206BB0F5702F05D845
:102B5000256B05B91504B2EB154F02D90120BDE86C
:102B6000F09F94F881004FF0000A20B9204684F8C5
:102B700080A000F09FF8022084F88100206801689E
:102B800021F001010160A069B0F1806F09D1606896
:102B9000484506D1A06B20B92068016841F48051F6
:102BA0000160A16AE0690843E16B29430843E168D9
:102BB000084321688860616A606BA2690843A16B61
:102BC000114308432169084361690843216A0843A6
:102BD00061680843E16C0843A1680843A16C08439D
:102BE000A16D08432168C860A06A484529D1206CBE
:102BF00001282068016827D021F400410160606C41
:102C000001282068016822D021F4804101602068F9
:102C1000404506D0B04204D0B84202D0B5F5702F7E
:102C200018D0404503D0B04201D0B84202D1B5F52A
:102C3000F81F0FD0016821F4005101602168E06A9B
:102C40000864606850B119E041F40041D6E741F4EE
:102C50008041DBE7016841F40051EEE7A06A30B93A
:102C60002068816821F4C05141F4006181602068CE
:102C7000816821F4C06141F4806181602068016D48
:102C800021F0010101656068400206D52068C16835
:102C9000626D21F000411143C160C4F884A084F842
:102CA00081B000205BE700000030014000380040A8
:102CB000003C0040164800B5B5B0016841F0020183
:102CC0000160006800F0020034901148083001688B
:102CD00041F480410160006800F4804034904FF47A
:102CE00080500090002017906846FEF79FFE4FF43A
:102CF00060402F90022030900120319003203290CC
:102D00000520339003482FA9FEF79CFB35B000BD8A
:102D1000E0440258000402582DE9F84F044690F8A8
:102D200080001F4692460A9D01288B4613D04FF023
:102D3000010984F88090FEF787FC94F8812006460C
:102D40000020012A4FF480010ED062688A4209D126
:102D5000A2683AB902E00220BDE8F88F94F8812019
:102D6000042A01D0022136E0BBF1000F32D0BAF1C3
:102D7000000F2FD077B394F88120042A02D00522C7
:102D800084F881208046C4F88400C4F864A0A4F8C4
:102D90006A70A4F86870C4F85CB0A4F86270A4F813
:102DA000607020676067206842686FF30F023A43E3
:102DB00042602068026842F0010202606068884256
:102DC00004D12068016841F400710160E0680F28B7
:102DD00040D848E0012184F880000846BCE7B4F8F8
:102DE000620070B12068416989070AD5E16D096800
:102DF0000162E06D001DE065B4F86200401EA4F8B9
:102E00006200B4F86A0080B12068416948F20802A3
:102E100011420AD0006B616E0860606E001D606632
:102E2000B4F86A00401EA4F86A00681C12D0FEF7CD
:102E30000BFC801BA8420DD3204601F05DF884F8FE
:102E40008080D4F8840040F48070C4F8840084F852
:102E50008190EBE0B4F862000028C0D1B4F86A00B9
:102E60000028BCD1C8E0072849D8BDE0B4F862000A
:102E7000F0B12068416989071AD5B4F862100129B8
:102E80000BD9E16B49B1E16D09680162E06D001D8C
:102E9000E065B4F86200801E08E0E16D09880184F5
:102EA000E06D801CE065B4F86200401EA4F862008A
:102EB000B4F86A00E0B12068416911F4604F17D09E
:102EC0004169090409D5006B616E0860606E001DE0
:102ED0006066B4F86A00801E08E0008E616E0880AB
:102EE000606E801C6066B4F86A00401EA4F86A0038
:102EF000681C04D0FEF7A8FB801BA8429CD2B4F843
:102F000062000028B2D1B4F86A000028AED173E0A4
:102F1000B4F8620080B32068416989072CD5B4F801
:102F2000621003290CD9E16B402909D9E16D0968C8
:102F30000162E06D001DE065B4F86200001F19E059
:102F4000B4F8621001290BD9E16B49B1E16D098830
:102F50000184E06D801CE065B4F86200801E09E029
:102F6000E16D097880F82010E06D401CE065B4F850
:102F70006200401EA4F86200B4F86A0068B32068DA
:102F8000416911F4604F28D04169090409D5006BEB
:102F9000616E0860606E001D6066B4F86A00001F14
:102FA00019E0416901F4C041B1F5005F09D9008E13
:102FB000616E0880606E801C6066B4F86A00801ED6
:102FC00009E090F83000616E0870606E401C606629
:102FD000B4F86A00401EA4F86A00681C04D0FEF72A
:102FE00033FB801BA84289D2B4F8620000288FD13D
:102FF000B4F86A0000288BD100223346082120460D
:10300000009500F0E8FF28B1D4F8840040F02000DB
:10301000C4F88400204600F06FFF84F8808084F8B4
:103020008190D4F8840000283FF4D8AE012093E6C4
:103030004FF0E0210428086903D020F00400086163
:10304000704740F00400FAE7401EB0F1807F10B5F1
:1030500001D3012010BD4FF0E02460610F21601703
:1030600001F058FD0020A06107202061002010BD64
:10307000704710B5044690F8790021280ED12068D9
:10308000816809060AD5816821F080018160206F7E
:1030900008B1FDF77DFF204601F0F0F994F87A00C1
:1030A00022280ED12068816849060AD5816821F05E
:1030B00040018160606F08B1FDF76AFF204601F0B2
:1030C000CFF9002010BD704790F8791090F87A0081
:1030D0000843704770B502680446D0691368916868
:1030E00010F00F0F64D0594D03F490760D40354326
:1030F00076D0C50707D0DD0505D501251562E26F3D
:1031000042F00102E267820708D5CA0706D02568A7
:1031100002222A62E26F42F00402E267420708D507
:10312000CA0706D0256804222A62E26F42F0020232
:10313000E26702070ED503F0200201F080552A4312
:1031400052EAC17206D0256808222A62E26F42F074
:103150000802E267E26F002A3AD0800608D503F041
:10316000200001F08051084302D0204601F08FF981
:10317000E06F000703D42068806840062AD5204607
:1031800001F06EF92068816849061ED5816821F03A
:1031900040018160606FC0B12D490165606FFDF72E
:1031A00067FF002814D0606F016DBDE870400847CC
:1031B000850615D503F0200501F0805635430FD064
:1031C0002046BDE8704001F062B92046FFF77BFF62
:1031D00070BD05E02046FFF776FF0020E067F7E7C7
:1031E000C6024FF020050CD54E020AD5E803106246
:1031F00084F8795084F87A502046BDE87040FFF793
:1032000037BF06060AD503F0800601F400010E431D
:1032100004D02046BDE8704001F0C8BB41060BD584
:10322000590609D51168204621F04001116084F843
:10323000795000F04BF9CBE70002C9D55800C7D54B
:10324000106820F080401060C2E70000010000100C
:10325000C143000810B5040003D094F8790010B100
:1032600007E0012010BD002084F87800204600F01F
:1032700027F8242084F879002068016821F00101F2
:103280000160204601F03EF90128EBD0606B10B1DF
:10329000204601F003F82068416821F49041416024
:1032A0002068816821F02A0181602068016841F06E
:1032B000010101602046BDE8104001F053B8000054
:1032C00010B5006886B01B49884230D11A480168A1
:1032D00041F001010160006800F00100059016480E
:1032E0001030016841F01001016000680121134CA9
:1032F00000F0100005904FF4007000900220CDE91E
:10330000010103900720694604902046FEF79AF8D1
:103310004FF48061204600916946FEF793F825201E
:10332000FEF719FA032225201146FEF721FA06B00E
:1033300010BD000000100140E04402580000025897
:1033400090F87A30202B4CD1B9B1B2B190F87830E6
:10335000012B46D0012380F878304166A0F8682020
:10336000A0F86A20FF228168B1F5805F07D07F2333
:1033700051B1B1F1805F0CD010E0012070470169BC
:1033800021B940F2FF1107E0016909BBA0F86C20E8
:1033900004E00169E1B13F21A0F86C100021C16790
:1033A000222280F87A2080F8781001688A6842F03A
:1033B00001028A6001680A6892000CD50A6842F42A
:1033C00080720A600068816841F08051816006E087
:1033D000A0F86C30E2E7086840F4907008600020C4
:1033E000704702207047000030B5006811498842DC
:1033F0000CD1114A5088010408D411464FF0000343
:103400004404097806D50A2901D0538030BD40F420
:1034100000400DE00D2909D0084DC0F30D04401CFB
:1034200080B2C72829555080EFD830BD40F4804085
:10343000508030BD0010014018000024CC1E002434
:1034400070B5044690F87900202836D191B38AB33C
:1034500094F87800012830D0012084F87800E165E4
:10346000A4F86020A4F862200025E567212084F8F4
:1034700079001346216F1248C863216F1148086410
:10348000216F1148C864206F05652668E16D206FC3
:103490005C3406F12802FDF765FF54F85C1C4020FF
:1034A0000862257754F85C0C816841F080018160E6
:1034B000002070BDFFE70120FBE70220F9E70000D4
:1034C0002744000857440008D54300087047704758
:1034D000FEE70000144870B586B0016841F00401B1
:1034E0000160016801F004010591016841F01001DB
:1034F0000160006800260325694600F01000059071
:1035000008200124CDE900060848CDE90245FDF771
:1035100099FF20206946CDE900060548CDE902451E
:10352000FDF790FF06B070BDE0440258001002584D
:10353000000802582DE9F0411C4C01251C4E0128C1
:103540001C4F12D0207848B108213046FEF76EF8A3
:1035500068B120213846FEF769F840B108213046AD
:10356000FEF764F8012817D01DE02570ECE70A206B
:1035700001F058FF0020207008213046FEF756F871
:1035800028B120213846FEF751F818B10BE0012090
:10359000BDE8F0810220FBE720213846FEF746F81F
:1035A000012800D125700020F2E700002C00002443
:1035B00000100258000802582DE9F0410D4F002478
:1035C0000646214620467B883A8800F0BDF93D88B2
:1035D000002178884543084600F0A2F900F09CFAE3
:1035E00003E0304600F042FA641CAC42F9D3BDE877
:1035F000F0810000142100242DE9F0411E4900272C
:10360000F0222C242A252B264FF4A07338B1012850
:1036100017D002284FF0010C1BD0032822D08F7145
:103620000A804B800C8100244D818E814B880A8852
:103630000021084600F088F92046BDE8F04100F07E
:103640005DB98F710B804A800C8101244D818E8180
:10365000ECE781F806C00A804B800C8102244D8182
:103660008E81E3E781F806C00B804A800C81032439
:103670004D818E81DAE70000142100242DE9F0410C
:103680000B4C16460F460546608900F029FA28467D
:1036900000F0ECF9A08900F023FA384600F0E6F9D2
:1036A000208900F01DFA3046BDE8F04100F0DEB997
:1036B000142100241A4810B586B0016841F00201B7
:1036C000016000686946174C00F00200059041F265
:1036D00003000090012001900290032003902046F7
:1036E000FDF7B0FE012220461146FDF7A8FF01229A
:1036F00020460221FDF7A3FF012220461103FDF71A
:103700009EFF00F0A3FBA00400F0DEFB00F00CF82D
:10371000012220461146FDF792FF06B010BD0000C1
:10372000E04402580004025870B50A4D4FF480443A
:10373000002221462846FDF782FF322001F072FE6A
:10374000012221462846FDF77AFFBDE870401E2081
:1037500001F068BE0004025810B5FFF7ABFF00F09F
:103760007BF9322001F05EFE362000F0B9F900202E
:1037700000F09AF93A2000F0B3F9052000F094F92E
:10378000B22000F0ADF90C2000F08EF90C2000F012
:103790008BF9002000F088F9332000F085F9332000
:1037A00000F082F9B72000F09BF9352000F07CF999
:1037B000BB2000F095F9192000F076F9C02000F048
:1037C0008FF92C2000F070F9C22000F089F9012057
:1037D00000F06AF9C32000F083F9122000F064F9C8
:1037E000C42000F07DF9202000F05EF9C62000F032
:1037F00077F90F2000F058F9D02000F071F9A420DB
:1038000000F052F9A12000F04FF9E02000F068F933
:10381000D02000F049F9042000F046F90D2000F016
:1038200043F9112000F040F9132000F03DF92B205E
:1038300000F03AF93F2000F037F9542000F034F955
:103840004C2000F031F9182000F02EF90D2000F086
:103850002BF90B2000F028F91F2000F025F9232078
:1038600000F022F9E12000F03BF9D02000F01CF933
:10387000042000F019F90C2000F016F9112000F0D6
:1038800013F9132000F010F92C2000F00DF93F205F
:1038900000F00AF9442000F007F9512000F004F983
:1038A0002F2000F001F91F2000F0FEF81F2000F08B
:1038B000FBF8202000F0F8F8232000F0F5F8212094
:1038C00000F00EF9112000F00BF9782001F0AAFDAC
:1038D000292000F005F9C82001F0A4FD0020FFF721
:1038E0008BFE012204481146FDF7A9FEBDE81040F9
:1038F0004FF6FF70FFF760BE00040258002158B178
:10390000012804D0022804D0032805D103E0602157
:1039100002E0C02100E0A021362000F003B9000041
:1039200070B5084C0D460646608900F0D9F830465F
:1039300000F09CF8A08900F0D3F82846BDE870405C
:1039400000F094B8142100242DE9F04104460E4FF4
:1039500010448846401E86B2C818401E85B2788939
:1039600000F0BEF8204600F081F8304600F07EF806
:10397000B88900F0B5F8404600F078F82846BDE870
:10398000F04100F073B80000142100242DE9F84F35
:103990001F460C4682468B46580700D00120790806
:1039A00000EBD700203A10FB01F0002602F0FF09DF
:1039B000C0B2009040E00C2F0FD0102F11D0182F64
:1039C0003DD1204909EBC90001EB80004FF0000810
:1039D000855D280609D50A9A0BE01B4909EB4900C9
:1039E000F2E71A4901EB0910F0E70B9828B91848DB
:1039F000428821465046FFF741FE6806641C050ECA
:103A00001448A4B24088A04219D9A4EB0B00B842D4
:103A100009D10AF101005C461FFA80FA0D480188BD
:103A200051450CD906E008F1010000F0FF08B8F19B
:103A3000080FCED3761CF6B200988642BBD3BDE801
:103A4000F88F0000726200080E580008825C0008BF
:103A50002E00002414210024012010B500F040F8AD
:103A6000BDE81040322001F0DDBC000070B50D4E05
:103A70004FF480550022044629463046FDF7DFFD0D
:103A8000012230460221FDF7DAFD200A00F00CFA8F
:103A9000E0B200F009FA29463046BDE87040012244
:103AA000FDF7CDBD0004025870B50C4D4FF48054A5
:103AB0000022064621462846FDF7C1FD0122284680
:103AC0000221FDF7BCFD304600F0EEF92146284604
:103AD000BDE870400122FDF7B2BD000000040258AD
:103AE00070B50C4E4FF480550022044629463046EE
:103AF000FDF7A5FD002230460221FDF7A0FDE0B252
:103B000000F0D2F929463046BDE870400122FDF7A9
:103B100096BD00000004025801480089FFF7E0BF8D
:103B20001421002410B50C46FFF7DAFFE0B2BDE81F
:103B30001040FFF7B9BF00000E4810B586B001680D
:103B400041F001010160006869460B4C00F0010082
:103B50000590022000900120019002900320039024
:103B60002046FDF76FFC012220460221FDF767FD8C
:103B700006B010BDE0440258000002580EB5002106
:103B8000012000900323CDE90101122102464806DD
:103B900000F001F80EBD2DE9FF4707461E460CA8B0
:103BA00014460D4690E80007FDF7B4FD01208DF89E
:103BB000000000208DF808508DF80C008DF80900E9
:103BC0008DF80D808DF80A0068468DF80E908DF8FE
:103BD000014001978DF80B608DF80FA0FDF770FD87
:103BE0000420FDF7A5FD04B00020BDE8F08700002B
:103BF0001A49194A08B590420A6806D942F00202E9
:103C00000A60096801F0020105E042F001020A6061
:103C1000096801F00101134A0091114911678A6393
:103C20004FF4806208602A204860402088600020AD
:103C3000C1E90302920148618861C1E907020322D8
:103C4000C1E90902C86208630846FDF75BFABDE8EE
:103C500008400348FDF7BCBA00040240D8440258AB
:103C600014200024941F0024704770472DE9F0476A
:103C7000DFF8E48004460F464FF00009D8F8000052
:103C8000C043800709D0344D283D286820F080606B
:103C90002860FDF7D9FC064607E00120BDE8F08763
:103CA000FDF7D2FC801B02284ED828680001F7D40B
:103CB000D8F80010226821F47C3141EA0231C8F8BA
:103CC0000010207A4FF4FE02A1884002491EA0F5A0
:103CD000007080B2C1F308010843A189491E02EABD
:103CE00001410843217C1202491E02EA0161084396
:103CF0001949103108601848001D0168626921F0F7
:103D0000C001114301600168A26921F02001114343
:103D100001606FB10168012F0ED041F40011016004
:103D2000286840F080602860FDF78EFC04460DE0B6
:103D3000016841F40021F2E741F48011EFE7FDF75B
:103D400083FC001B022801D90320A7E72868000193
:103D5000F5D54846A2E70000284402582DE9F0476F
:103D6000DFF8E48004460F464FF00009D8F8000061
:103D7000C043800709D0344D283D286820F080508A
:103D80002860FDF761FC064607E00120BDE8F087EA
:103D9000FDF75AFC801B02284ED828688000F7D413
:103DA000D8F80010228821F07C7141EA0251C8F84D
:103DB0000010207A4FF4FE02A1884002491EA0F5AF
:103DC000007080B2C1F308010843A189491E02EACC
:103DD00001410843217C1202491E02EA01610843A5
:103DE0001949183108601848001D0168626921F4FA
:103DF0004061114301600168A26921F4007111431F
:103E000001606FB10168012F0ED041F08071016037
:103E1000286840F080502860FDF716FC04460DE04D
:103E2000016841F48001F2E741F40001EFE7FDF79A
:103E30000BFC001B022801D90320A7E7286880009B
:103E4000F5D54846A2E700002844025810B5154CA5
:103E5000072113484FF0007204F1080320604FF46B
:103E600080006060002083E80700521062619200C9
:103E7000A261CA07606362650A07C4E9072060623D
:103E8000C4E90A012046FEF725FE2068016841F0DA
:103E900001010160BDE81040FF2000F005B80000FE
:103EA000003800408C20002401B582B04FF47A70B5
:103EB0000123009001AA034802A9FEF72DFF9DF8F7
:103EC00004000EBD8C2000240A4A11680B6823F000
:103ED00001030B6011688B6823F0E0438B6011686D
:103EE0008B6803438B601068016841F00101016039
:103EF000704700008C20002410B502685169936956
:103F000043F0080393610268936943F010039361DF
:103F10000268136823F0010313600268136940F21A
:103F20006B34A34313610268936823F440439360A6
:103F300090F88120042A0CD08A060AD5D0F8842073
:103F400042F08002C0F884200268936943F02003A5
:103F5000936190F88120032A1DD04A060AD5D0F833
:103F6000842042F00402C0F884200268936943F080
:103F700040039361826AB2F5800F0CD10A060AD51C
:103F8000D0F8842042F00202C0F8842002689369CD
:103F900043F0800393618A050AD5D0F8842042F06B
:103FA0000102C0F884200268936943F400739361AE
:103FB000C9050AD5D0F8841041F00801C0F8841072
:103FC00001688A6942F480728A610021A0F8621057
:103FD000A0F86A1010BD2DE9F0411E4617460D46A7
:103FE0008046069C0AE0601C08D024B1FDF72CFB3B
:103FF000801BA04202D90320BDE8F081D8F8000060
:10400000406935EA000004D00020B842EBD000201F
:10401000F2E70120F9E770472DE9F04F93B01F4612
:1040200015468A4604468146580700D0012000EB19
:10403000D7000C2F10FB07F0C0B2129003D0102F46
:1040400001D0182F2FD1024669462846FCF776FF8B
:10405000002024E01DF808600025DFF850B030068D
:1040600001D51C9A03E01D9828B9BBF800205146E1
:104070002046FFF703FB7006641CA4B2060EA4EBF7
:104080000900B84204D10AF101004C461FFA80FA37
:104090006D1CEDB2082DE2D308F10100C0B21299F7
:1040A00080468842D6D313B0BDE8F08F300000249C
:1040B0002DE9FF4F83B09B460E46044680468A4654
:1040C000DDE91075002081461FE0B9F1000F22D014
:1040D00005994FF0000908EB0100401BA04202DAED
:1040E0007019444686B20AEB0B00401BB0420FDB4E
:1040F000DDE912012B463A46CDE900013146204662
:10410000FFF78AFF601984B2BF1C3A78002ADCD11D
:1041100007B0BDE8F08F802A01D90120D3E70599C7
:1041200008EB0100A0EB5500A04202DA70194446EA
:1041300086B20AEB0B00401BB042E9DB0D2A0DD022
:10414000DDE912012B46CDE9000131462046FFF79B
:104150001DFC04EB550084B27F1CD6E77019444661
:1041600086B27F1CF5E7000070B5284C9CB025682E
:1041700025F004052560254C00260C34256845F4FF
:1041800040452560256805F440451B952568AD042C
:10419000FCD5012400940CAD039624040194022460
:1041A0000994CDE90A410796082485E80D00CDE978
:1041B00010466846FEF740FA88B93F201390032066
:1041C000CDE9140640200101CDE91640CDE91801E2
:1041D00050201A90022113A8FEF780F810B1012098
:1041E0001CB070BD0A48016841F0800101600848B8
:1041F000F430016841F002010160006800F0020043
:104200001B90FDF717F90020EAE700000C48025860
:1042100000440258FDF71EBA1C48016841F47001C1
:1042200001601B49086840F001000860184A00203E
:10423000103210600A68174B1A400A60144A18328C
:104240001060121D1060121D1060114A283210609B
:10425000121D1060121D1060121D1060121D1060E2
:10426000121D1060121D1060121D10600A6822F4E9
:1042700080220A6006496031086001200649C1F8C1
:104280000801C006014980390860704788ED00E0E8
:10429000004402587FEDF6EA0080005190F8341097
:1042A000C90706D001684A68836B22F400321A43BA
:1042B0004A6090F83410890706D501684A68C36BD4
:1042C00022F480321A434A6090F83410490706D528
:1042D00001684A68036C22F480221A434A6090F80D
:1042E0003410090706D501684A68436C22F400427D
:1042F0001A434A6090F83410C90606D501688A68E6
:10430000836C22F480521A438A6090F83410890634
:1043100006D501688A68C36C22F400521A438A6089
:1043200090F83410490611D501684A68036D22F4EB
:1043300080121A434A60016DB1F5801F06D10168F1
:104340004A68436D22F4C0021A434A6090F8341060
:10435000090606D501684A68806D22F400220243EE
:104360004A607047F8B500250446C567FDF76CF94B
:104370000746206800686FF07E46000708D50022D7
:104380003B464FF400112046009600F049FB60B90F
:104390002068006840070AD500223B464FF48001A0
:1043A0002046009600F03CFB08B10320F8BD202019
:1043B00084F8790084F87A00002084F87850F8BDF9
:1043C00010B5806B0021A0F86A10A0F86210FEF70B
:1043D0007AFE10BD70B5846BFCF7F8FE022821D080
:1043E00094F879000025212808D12068806800060B
:1043F00004D5A4F86250204600F040F894F87A0002
:10440000222808D120688068400604D5A4F86A50A4
:10441000204600F025F8E06F40F01000E0672046ED
:10442000FEF751FE70BD014610B5806BC969B1F54C
:10443000807F0DD00021A0F8621001688A6822F008
:1044400080028A600068016841F04001016010BD8F
:10445000FFF73CF810BD10B5806BFFF738F810BDC2
:1044600001680A6822F490720A6001688A6822F082
:1044700001028A60202180F87A10704701680A687A
:1044800022F0C0020A60202180F87910704710B530
:10449000B0F86C2090F87A300168222B05D0088B98
:1044A00040F008000883022010BD898C8368B3F5B2
:1044B000805F01D103696BB11140426E531C4366AA
:1044C0001170B0F86A10491E0904090CA0F86A10AE
:1044D00007D015E0436E11401980416E891C41667A
:1044E000EFE701680A6822F490720A6001688A683E
:1044F00022F001028A60202180F87A10FEF774FF12
:10450000002010BD2DE9F04F044600688025FD4BCA
:104510000021D4F810C087B0A6680F46D4F81C80DC
:1045200046EA0C06D4F814C0A26A4CEA080C46EA23
:104530000C0632430668DFF8D0C306EA0C061643C1
:10454000066020684268E66822F4405232434260C6
:104550002268A0699A4201D0266A3043A66AB6F161
:10456000005F04D1D4E90B6C46EA0C063043966830
:10457000DFF898C306EA0C06064396602068C26A14
:10458000666A22F00F023243C262E14E2068E14ABD
:10459000B04210D1126802F03802182A74D005DC3B
:1045A000CAB3082A7AD0102A47D179E0202A7BD0D2
:1045B000282A7CD17AE0D84EB04209D1126802F0A4
:1045C0000702062A73D2DFE802F053696B6D6F7140
:1045D000D24EB04209D1126802F00702062A66D212
:1045E000DFE802F0465C5E606264CD4EB04209D105
:1045F000126802F00702062A59D2DFE802F0394FAA
:1046000051535557C74EB0420BD1126802F0070202
:10461000062A4CD200E00EE0DFE802F02A404244D5
:104620004648C14EB04209D1126802F03802182A39
:1046300038D0BBDCB4E74FF0010538E0BB4EB042E8
:1046400009D1126802F00702062A30D2DFE802F030
:104650001026282A2C2EB64EB0420BD1126802F03A
:104660000702062A23D2DFE802F003191B1D1F21CF
:1046700000251CE098421AD1A64A121D126802F0C9
:104680000702062A13D202E00CE007E00CE0DFE8A4
:1046900002F0030507090B0D022508E0042506E0DA
:1046A000402504E0082502E0102500E02025DFF881
:1046B00064B2A04E9842DFF880A2ABF1540B73D1E4
:1046C000102D31D006DC022D09D0042D0AD0082D82
:1046D0002FD111E0202D29D0402D2AD107E0FDF760
:1046E00093F813E06846FDF7A5F801980EE003A8DB
:1046F000FDF71EF9049809E0DBF80010584689061A
:1047000010D50068C0F3C1012AFA01F0002811D0C9
:104710006168894601EB410181420AD8B0EB093F4B
:1047200007D808E05046F3E78448F1E74FF400402B
:10473000EEE7012733E1102D4FF000084ED006DCE4
:10474000022D0FD0042D15D0082D04D12DE0202DE1
:104750004AD0402D13D00127794AA0F540719142EB
:1047600070D9E6E7FDF750F8626A0023414636F853
:1047700012200DE06846FDF75DF8019803E003A8FC
:10478000FDF7D6F804980023616A36F8112019461F
:10479000FBF79EFD62680902030241EA10615008BE
:1047A000181841EB080115E032E0DBF8001058461C
:1047B000890609D500680023C0F3C1012AFA01F077
:1047C000616A36F8112015E0606A002336F810207F
:1047D00050460FE00023FBF77BFDBDE7606A002336
:1047E00036F81020554805E0606A002336F810209E
:1047F0004FF400400021FBF76BFD0902020241EA81
:1048000010614FEA590010184A4641EB0801E1E7F0
:10481000E3694FF4004293424DD1082D23D005DCCB
:104820008DB1012D12D0042D06D112E0102D35D0FE
:10483000202D3AD0402D11D0012721F00F00C1F3D7
:10484000420108435AE0FDF74FFE16E0FDF762FE15
:1048500013E06846FCF7EEFF01980EE003A8FDF7B1
:1048600067F8049809E0DBF800105846890608D577
:104870000068C0F3C1012AFA01F0616A36F811102C
:1048800010E0606A36F81010BAFBF1F04100606881
:1048900001EB5001B1FBF0F081B2CEE7606A36F86F
:1048A00010102648B0FBF1F0F0E7606A36F810000F
:1048B000B2FBF0F0EAE7082D4AD00ADC0DB3012D77
:1048C00043D0042D7FF44DAF6846FCF7B3FF019849
:1048D00009E0102D52D0202D55D0402DF2D103A843
:1048E000FDF726F80498616A36F81110B0FBF1F173
:1048F000606801EB5001B1FBF0F080B22168C86044
:104900004DE01FE0000C0058F369FFCFFFF4FF11EA
:104910000010014054440258004400400048004048
:10492000004C00400050004000140140007800405E
:10493000007C0040F65700080090D00300093D00BD
:10494000FFFC0F00FDF7D0FDCDE7FDF7E3FDCAE763
:10495000DBF80020594692060AD50968C1F3C10266
:104960002AFA02F1626A36F81220B1FBF2F20FE085
:10497000616A36F81120BAFBF2F209E0616A36F892
:1049800011200949F1E7616A36F81110B2FBF1F222
:10499000616802EB5102B2FBF1F189B2C16007B06C
:1049A0003846BDE8F08F000000093D0090F879100E
:1049B000212901D002207047B0F8621021B181682E
:1049C000B1F5805F13D014E001680A68920004D545
:1049D0008A6822F400028A6003E00A6822F08002FA
:1049E0000A600068016841F0400101600CE0016963
:1049F00061B1C16D4A1CC265026809781185B0F8C1
:104A00006210491EA0F8621000207047C16D026854
:104A10000988C1F308011185C16D891CC165EEE7E4
:104A20002DE9F0411E46174688460446069D1CE0C7
:104A3000681C1AD025B1FCF707FE801BA84214D9C8
:104A40002068016821F4D07101602068816821F03C
:104A500001018160202084F8790084F87A00002028
:104A600084F878000320BDE8F0812068C16938EA45
:104A7000010004D00020B842DAD00020F3E7012082
:104A8000F9E7000070B50D4D00240D48FEF722FB3C
:104A900002E0641CAC4204D80948FEF715FB20284C
:104AA000F7D1002402E0641CAC4206D8054901227B
:104AB0000348FEF745FC0028F5D170BDFFFF01005B
:104AC000941F002418000024FEE700000FB4054BDB
:104AD00010B503A9044A029800F0FEF810BC5DF876
:104AE00014FB0000755400081C0000240FB4084B90
:104AF00010B504A902AA039800F0EEF8044602A932
:104B0000002000F080FC204610BC5DF814FB000083
:104B1000075400080907090E002804DB00F1E02013
:104B200080F80014704700F00F0000F1E02080F8DA
:104B3000141D704702E008C8121F08C1002AFAD1EC
:104B400070477047002001E001C1121F002AFBD10D
:104B5000704700002DE9FF5F82B00021DDE90430DD
:104B6000020DDDF840B0034318D044F61050A2F215
:104B7000FF3242431514119801281FD0A5EB0B00FA
:104B8000401C5FEA000A4FF000064E4FDFF83891F4
:104B9000B046504615D5CAF1000413E0119801241F
:104BA0004AA3012801D16FEA0B010298119AC0E9CA
:104BB0000031C0E9024206B0BDE8F09FCBF1000031
:104BC000DFE704460021404A491842EB0450CDE992
:104BD000001012E0E00707D032463B464046494607
:104BE000FBF783FC8046894632463B461046194611
:104BF000FBF77BFC06460F466410002CEAD1DDE98A
:104C00000401DDE90023BAF1000F06DAFBF76DFCC1
:104C100042464B46FBF769FC05E0FBF7D8FC4246F1
:104C20004B46FBF7D4FC04460E460022284BFBF70C
:104C300055FD03D84FF0FF30014607E00022254B19
:104C400020463146FBF7AAFBFBF730FD102409E0B4
:104C5000002C0ADB0A220023FBF73AFB039B3032CD
:104C60001A55641E50EA0102F2D1641C039AC4F181
:104C700011031444119A012A03D0012208430DD1D3
:104C80000AE0084304D000204FF0110B119072E7A6
:104C9000A3EB0B056D1E0DE05B4504DD4FF000023C
:104CA00005F1010504E003DA4FF00002A5F101056A
:104CB000002AECD002981199C0E90231C0E9004500
:104CC00079E70000000014400000F03F30000000D1
:104CD0000000F0430000E03F2DE9FF4F95B09B46F8
:104CE0008946064600250FE2252877D1002427466D
:104CF000F84A0121059400E0044316F8013F203BE7
:104D000001FA03F01042F7D130782A2811D06FF061
:104D10002F033078A0F13002092A16D8059A44F002
:104D2000020402EB820203EB42021044761C05905F
:104D3000EFE759F8042B0592002A03DA504244F4B5
:104D40000054059044F00204761C30782E2816D1C9
:104D500016F8010F44F004042A280DD06FF02F023A
:104D60003078A0F13003092B09D807EB870302EB59
:104D70004303C718761CF3E759F8047B761C307898
:104D80006C280FD006DC4C2817D068280DD06A2874
:104D900014D104E0742810D07A280FD10DE044F427
:104DA00000140AE044F4801401E044F440147278E2
:104DB000824202D104F58014761C761C3078662875
:104DC0000BD013DC582877D009DC002875D0452893
:104DD000F6D04628F4D047281AD19DE118E0632880
:104DE00035D0642879D0652812D195E1702873D028
:104DF00008DC6728F1D069286FD06E280DD06F28A5
:104E000006D1B5E073282CD0752875D0782874D0D9
:104E10005A46179990476D1C75E1C4F30250022859
:104E200009D003280DD0D9F8001004280DD00D604A
:104E300009F1040967E1D9F80010EA17C1E9005245
:104E4000F6E7D9F800100D80F2E70D70F0E719F8D9
:104E5000041B8DF8001000208DF80100EA460120A7
:104E600003E059F804AB4FF0FF3061074FF0000149
:104E700002D40DE008F101018846B9420FDA8045FD
:104E8000F8DB1AF808100029F4D108E008F1010154
:104E900088468142FADB1AF808100029F6D10598F5
:104EA0005B46A0EB080721463846179A00F094FAB3
:104EB000284400EB080507E04DE029E10DE01AF871
:104EC000010B5A4617999047B8F10108F7D25B4693
:104ED00021463846179A13E142E00A220092C4F3B1
:104EE00002524FF0000A022A08D059F804CB032AD4
:104EF0004FEAEC710AD00DE029E02AE009F1070140
:104F000021F00702F2E802C1914609E00FFA8CFC99
:104F10004FEAEC71042A03D14FFA8CFC4FEAEC7192
:104F2000002907DA0A460021DCF1000C61EB0201DE
:104F30002D2202E0220504D52B228DF80420012227
:104F400003E0E20701D02022F7E7904659E00A216A
:104F500002E010220DE010214FF0000A00910BE05A
:104F600010224FF0000A44F004040827009203E0E6
:104F700008224FF0000A0092C4F30252022A05D020
:104F800059F804CB0021032A08D009E009F10701F0
:104F900021F00702F2E802C1914605E01FFA8CFCFD
:104FA000042A01D10CF0FF0C4FF00008220728D58D
:104FB000702806D0009B83F0100353EA0A0305D043
:104FC0000EE040228DF80420012208E05CEA010294
:104FD00006D030228DF804208DF80500022290467C
:104FE000009B83F0080353EA0A030AD15CEA01023A
:104FF00001D1620705D530228DF804204FF0010859
:105000007F1E582804D034A003900EA802900DE013
:1050100036A0F9E753466046009AFBF759F98446F3
:105020000398825C0298401E029002705CEA0100C4
:10503000F0D1029806A9081A00F1200A600702D5EB
:1050400024F4803400E00127574502DDA7EB0A0075
:1050500000E0002000EB0A01009005984144401A4E
:105060000590E00306D45B462146179A059800F0A8
:10507000B3F90544002706E001A85A46C05D179918
:1050800090476D1C7F1C4745F6DBE0030CD55B4663
:105090002146179A059800F09FF9054404E0302056
:1050A0005A46179990476D1C0099481E0090002998
:1050B000F5DC08E0029802995A460078491C0291F2
:1050C000179990476D1CBAF10001AAF1010AF1DCB1
:1050D00065E10000092801003031323334353637BC
:1050E0003839616263646566000000003031323334
:1050F00034353637383941424344454600000000D4
:1051000000F058F90544761C307800287FF4ECADA7
:1051100019B02846BDE8F08F620700D4062709F1D0
:10512000070222F0070CFCE80223E14603F00048E6
:105130005FEA080C02D00FF2702C0DE05FEA045C0D
:1051400002D50FF2682C07E05FEAC47C02D00FF2B0
:10515000602C01E0AFF2700C4FF0FF3823F00043F9
:10516000CDF850C065280CD006DC452809D046286B
:105170001DD047283DD13DE0662818D067287ED154
:1051800038E00021112F01DB112000E0781CCDE96F
:10519000000106A90EA8FFF7DDFCDDE90F010E9A5C
:1051A00003910021009207F1010A04914DE04FF0B4
:1051B00000400097CDE9011006A90EA8FFF7CAFC30
:1051C000DDE90F0203920E9B11990022DDF80CA07D
:1051D0000093049211B9791C00EB010AB7EB0A00A5
:1051E00004D4C0F1FF3007F1010A0490AAEB0700D4
:1051F000019044E0012F00DA01270021112F01DD89
:10520000112000E03846CDE9000106A90EA8FFF7FD
:10521000A1FCDDE90F010E9A039100210491009297
:10522000BA4621070CD40399514500DA8A46BAF1EF
:10523000010F05DD009AAAF10101515C302908D067
:10524000B84202DA10F1040F06DA0121CDE90110AB
:1052500015E0AAF10101E9E7002805DC0499014401
:105260000491AAEB000102E0411C514500DD8A4691
:105270000499401A401C01904FF000400290200712
:1052800004D40198504501DBCDF8048000208DF84E
:105290004F0002980DF14F07B0F1004F25D02B20A1
:1052A0000E9002984FF0020800280CDA404202905B
:1052B0002D200E9007E00A210298FBF73AF83031D2
:1052C000029007F8011DB8F10001A8F10108F2DC15
:1052D00002980028EFD1791E0E980870307800F0FF
:1052E000200040F0450007F8020D12A8C01B00F195
:1052F00007081498007800B1012000EB0A0101981A
:1053000001EBE07105984144401A401E0590E0030E
:1053100006D45B462146179A059800F05DF80544CF
:105320001498007818B15A46179990476D1CE003FD
:1053300024D55B462146179A059800F04DF80544A0
:105340001CE00498002807DBDDE90301884203DD47
:105350000098405C179901E0179930205A46904711
:10536000049805F10105401C04900198401E01902D
:1053700004D12E205A46179990476D1CBAF10001AE
:10538000AAF1010ADDDC05E017F8010B5A4617996E
:1053900090476D1CB8F10001A8F10108F4DC5B46F0
:1053A0002146179A0598ABE62D0000002B0000005F
:1053B000200000002DE9F041044600251E46174656
:1053C000880404D405E039462020B0476D1C641ED3
:1053D000F9D52846BDE8F0812DE9F04104460025C5
:1053E0001E469046C80301D5302700E020278804D8
:1053F00004D505E041463846B0476D1C641EF9D51A
:105400002846BDE8F0810A68531C0B601070704795
:1054100010B504460420FDF70BFE0148046010BDE2
:105420001400002470B5002405464FF47A7603E09A
:10543000304600F005F8641CAC42F9D370BD0000A2
:1054400070B54FF0E02500216C69094AAB6912681C
:105450005043AA699A42FCD002D2A3EB020302E0B5
:10546000A4EB02063344194413468142F1D370BDC4
:10547000140000240349CA695206FCD5C2B20A8549
:105480007047000000100140FBF7C2F9042302221C
:105490000521A020FEF768FEFCF7E4F84FF4C87081
:1054A000FFF7B6FF4FF4E13000F066F9FEF744FB7A
:1054B000FEF710F8FEF762FBFEF74EF9FBF7F4FB80
:1054C0004FF6FF70FEF778F8DFF8C4814046FEF72C
:1054D0008FFB10214FF4784908466EA34C464A468C
:1054E000FBF70EFB1F22202110206FA3FBF708FB08
:1054F0001F223021102071A3FBF702FB402122461E
:10550000102073A3FBF712FB744E2D23744A002165
:10551000B370B180307898420CD3707820B1B588E0
:105520000A20505531700CE0B5880D2050550120EF
:10553000707006E06B4D7170B7882D5C401CD555BE
:10554000307041F67864B088401C80B2B080A042D0
:10555000E0D3654A1F20654DDFF834A1B83DDFF880
:105560008CB110800020AC02B080AAF1600A00204B
:10557000FDF7E0FF0228307057D15DA0FFF7A6FAD3
:105580005A214F4608204A465DA3FBF7CFFA7821FF
:105590003A4608205FA3FBF7C9FA514941F6786201
:1055A0006148FDF74DFF614F3868404501D96049BA
:1055B00003E0504503D93649B43909680BE0584532
:1055C00002D93349B839F8E748496039884201D9E6
:1055D000696800E0296811F0006F36D0404502D9B3
:1055E0005348001D08E0504502D92948AC3803E073
:1055F000584503D92648B038046006E03B49603975
:10560000884201D9EC6000E0AC604748FDF731FD0D
:1056100078214F4608204A4646A3FBF787FA5A21CD
:105620003A46082048A3FBF781FAB088401CB080B6
:105630000A20FFF7F7FEB088142898D147480221C6
:10564000FBF7F9FF0020B08091E7406800EE100AF8
:10565000B8EE400A9FED421A464843A1C0EE010A47
:10566000B7EE000A30EE600ADFED3E0A20EE200AB7
:1056700086ED020AB7EEC00A53EC102BFFF736FA9C
:105680003C4B782110204A46FBF750FA8CE700008B
:10569000B8040240202053544D3332483720444D43
:1056A00041202020200000002020C7B6C8EBCABD42
:1056B000BFAAB7A2CDF82020200000006D6375645A
:1056C00065762E74616F62616F2E636F6D000000EE
:1056D0004B4559323A537461727400000000002443
:1056E00034000024B05700082E000024B800024007
:1056F0000D0A444D4120444154413A0D0A00000036
:105700005374617274205472616E73696D69742E82
:105710002E20200020202025202020202020202096
:105720002020202020202000941F0024142000246A
:105730000054025831303025202020202020202005
:1057400020202020202020005472616E73696D6932
:10575000742046696E697368656421000000025810
:1057600000C0F3450000C84225352E3266202520B2
:1057700000000000AC1E00240B490A4A10B5C1E924
:10578000002000208860C860086188610C204861A2
:105790000846FDF75FFDBDE81040044901220248BC
:1057A000FDF7CEBD00100140941F00241800002416
:1057B000206D63756465762E74616F62616F2E6310
:1057C0006F6D2053544D3332483758585820444D4C
:1057D0004120B4AEBFDACAB5D1E9202000000000F4
:1057E0000001020304010203040607080900061071
:1057F0001600061016000100020004000600080052
:105800000A000C0010002000400080000001000091
:1058100000000000000000000000000000003F4009
:105820000000000000000000300040003000400098
:10583000000009000BC03D000BC03D00090018C06E
:1058400024407FE0224031800000180024C01B006B
:105850000D803240018003801C4027401C8007409F
:105860000040100060000000000000000000000088
:10587000000000001F802040402000004020204009
:105880001F8000000000090006001F8006000900BC
:105890000000040004003F80040004000000001029
:1058A000006000000000000000000400040004008C
:1058B00004000400000000000040000000000000A0
:1058C0000000002001C006003800400000001F80DA
:1058D0002040204020401F800000000010403FC0BA
:1058E00000400000000018C0214022402440184021
:1058F000000010802040244024401B800000020053
:105900000D0011003FC0014000003C8024402440B5
:105910002440238000001F80244024403440038022
:1059200000003000200027C03800200000001B804D
:105930002440244024401B8000001C0022C0224040
:1059400022401F800000000000000840000000000E
:1059500000000000000004600000000000000000E3
:1059600004000A00110020804040090009000900DD
:1059700009000900000000004040208011000A00DA
:1059800004001800200023402400180000001F809D
:105990002040274029401F400000004007C0390038
:1059A0000F0001C0004020403FC0244024401B8025
:1059B00000001F8020402040204030800000204018
:1059C0003FC0204020401F80000020403FC02440B6
:1059D0002E4030C0000020403FC024402E00300048
:1059E00000000F0010802040224033800200204041
:1059F0003FC0040004003FC02040204020403FC082
:105A00002040204000000060202020203FC02000D7
:105A1000200020403FC024400B0030C020402040E8
:105A20003FC020400040004000C03FC03C0003C0D9
:105A30003C003FC0000020403FC00C4023003FC05E
:105A400020001F802040204020401F800000204078
:105A50003FC024402400180000001F802140214046
:105A600020E01FA0000020403FC02440260019C0B5
:105A7000004018C024402440224031800000300003
:105A800020403FC020403000000020003F80004008
:105A900000403F80200020003E0001C00700380089
:105AA0002000380007C03C0007C03800000020403C
:105AB00039C0060039C0204000002000384007C02F
:105AC000384020000000304021C02640384020C02F
:105AD0000000000000007FE04020402000000000A7
