:020000040800F2
:10000000700B0024AD02000811170008CB16000881
:10001000B902000895030008DD1F00080000000079
:10002000000000000000000000000000151700089C
:10003000210400080000000013170008C51700087D
:10004000C7020008C7020008C7020008C70200086C
:10005000C7020008C7020008C7020008C70200085C
:10006000C702000823040008C7020008C7020008EE
:10007000C7020008C7020008C7020008C70200083C
:10008000C7020008C7020008C7020008C70200082C
:10009000C7020008C7020008C702000829040008B8
:1000A000C7020008C7020008C7020008C70200080C
:1000B000C7020008C7020008C7020008C7020008FC
:1000C000C7020008C7020008C7020008C7020008EC
:1000D000C7020008991F0008C7020008C7020008ED
:1000E000C7020008C702000800000000C70200089D
:1000F000C7020008C7020008C7020008C7020008BC
:10010000C7020008C7020008C7020008C7020008AB
:10011000C7020008C7020008C7020008C70200089B
:10012000C7020008C7020008C7020008C70200088B
:10013000C7020008C7020008C7020008C70200087B
:1001400000000000000000000000000000000000AF
:10015000C7020008C7020008C7020008C70200085B
:10016000C7020008C7020008C7020008C70200084B
:10017000C7020008C7020008C7020008C70200083B
:10018000C7020008C7020008C7020008C70200082B
:10019000C7020008C7020008C7020008C70200081B
:1001A000C7020008C7020008C7020008C70200080B
:1001B000C7020008C7020008C7020008C7020008FB
:1001C000C7020008C7020008C7020008C7020008EB
:1001D000C7020008C7020008C7020008C7020008DB
:1001E000C7020008C7020008C7020008C7020008CB
:1001F000C7020008C7020008C7020008C7020008BB
:10020000C7020008C7020008C7020008C7020008AA
:10021000C7020008C7020008C7020008C70200089A
:10022000C7020008C7020008C7020008000000005B
:10023000C7020008C702000800000000C70200084B
:10024000C7020008C7020008C7020008C70200086A
:10025000C7020008C7020008C7020008C70200085A
:10026000C7020008C7020008C7020008C70200084A
:10027000C7020008C7020008C7020008000000000B
:10028000C702000800000000C702000800000000CC
:1002900000000000C7020008DFF80CD000F068F88A
:1002A00000480047C9200008700B0024064880471A
:1002B00006480047FEE7FEE7FEE7FEE7FEE7FEE74B
:1002C000FEE7FEE7FEE7FEE7C9170008990200080F
:1002D0002DE9F05F0546002092469B46884606467B
:1002E000814640241BE0284641464746224600F00E
:1002F0002FF853465A46C01A914110D3114618465A
:10030000224600F016F82D1A67EB01084F462246E8
:100310000120002100F00DF817EB00094E41201ECE
:10032000A4F10104DFDC484631462A464346BDE8D5
:10033000F09F202A04DB203A00FA02F100207047E7
:100340009140C2F1200320FA03F319439040704713
:10035000202A04DB203A21FA02F00021704721FA1A
:1003600002F3D040C2F12002914008431946704781
:10037000064C074D06E0E06840F0010394E80700F2
:1003800098471034AC42F6D3FFF78AFF8C2100085F
:10039000AC210008FEE70000F0B5BFF34F8FBFF3BC
:1003A0006F8F1D4900200860BFF34F8FBFF36F8F21
:1003B0001A4C216841F400312160BFF34F8FBFF325
:1003C0006F8F164970310860BFF34F8F081F0068A8
:1003D00043F6FF75104E1036C0F34E31C0F3C9031B
:1003E00005EA4112184642EA80773760401EFAD289
:1003F000491EF5D2BFF34F8F206840F48030206053
:10040000BFF34F8FBFF36F8F03484C30016841F04B
:1004100004010160F0BD000050EF00E014ED00E0C9
:100420007047082000F0C4B8202000F0C1B80000D8
:100430001B4830B587B0016841F0040101600168D4
:1004400001F004010591016841F0100101600068AC
:100450000124144D694600F0100005900820029414
:10046000CDE90005104800F0AFF820206946CDE93D
:1004700000050E48029400F0A7F802220920114658
:1004800000F0EAF9092000F0DAF90322022117202E
:1004900000F0E2F9172000F0D2F907B030BD0000FB
:1004A000E0440258000021110010025800080258D0
:1004B00010B528B190F83510022903D0802141658C
:1004C000012010BD1D4A4FF4956301688C189C42B1
:1004D00007D8042280F83520086820F00100086061
:1004E00029E00C6824F00E040C6001680A440A68D4
:1004F00022F001020A60016E0A6822F480720A602A
:1005000090F85C30012202FA03F10D4B1960D0E93A
:1005100019134B60C16E31B10B6823F480730B600B
:10052000D0E91C134B60002180F8341080F835208E
:10053000016D01B18847002010BD0000F0FFFDBF34
:10054000045402580248016841F0010101607047FB
:100550002004005870B50646142001F083FD104DAC
:10056000082E104C0BD0202E18D10F48202100F05F
:100570001FF9002812D1207820B1002103E00B4898
:100580000821F4E70121217009B1012200E00022D5
:100590002846BDE87040022100F00FB970BD000090
:1005A00000000258200000240008025800100258E1
:1005B0004FF0B04110B5D1F88820024203D0C1F805
:1005C0008800FFF7C7FF10BD2DE9F84F6C4C0022E3
:1005D0004FF0B04A4FF0010B4FF0030E4FF00F09F0
:1005E0000B680BFA02F73B40BB4270D14D68022DFD
:1005F00001D0122D12D1D50800EB850CDCF820605B
:100600005507ED0E09FA05F826EA0806D1F810801C
:1006100008FA05F848EA0608CCF82080D0F80080EF
:10062000560091F804C00EFA06F50CF0030C28EA07
:1006300005080CFA06FC4CEA080CC0F800C0D1F81A
:1006400004C0BCF1010F08D0BCF1020F05D0BCF111
:10065000110F02D0BCF1120F16D1D0F808C0D1F89A
:100660000C802CEA050C08FA06F848EA0C08C0F8D9
:100670000880D0F804C02CEA070C0F79C7F30017E4
:10068000974047EA0C074760C768AF438D68B5409D
:100690003D43C5604D68ED006BD53A4D2E6846F080
:1006A00002062E602D6822F0030606F1B04605F022
:1006B00002050095D6F808C495072F0F09FA07F52B
:1006C0002CEA050C304DA84202D100252EE050E066
:1006D0002E4DA84201D1012528E02D4DA84201D17F
:1006E000022523E02B4DA84201D103251EE02A4D0F
:1006F000A84201D1042519E0284DA84201D10525C1
:1007000014E0274DA84201D106250FE0254DA8424F
:1007100001D107250AE0244DA84201D1082505E0B2
:10072000224DA84201D1092500E00A25BD4045EA35
:100730000C05C6F8085425684E689D43F60300D59D
:100740001D43256065684E689D43B60300D51D4373
:100750006560DAF8005056464F689D43FF0200D5A9
:100760001D43356075684F689D43BF0200D51D432A
:100770007560521C102AFFF433AFBDE8F88F0000FB
:1007800080000058F4440258000002580004025847
:1007900000080258000C02580010025800140258B9
:1007A00000180258001C0258002002580024025869
:1007B0000069084000D0012070470AB101837047EA
:1007C000418370470148806870470000140000248E
:1007D0000248816802781144816070471400002447
:1007E000032010B500F058F80F2000F007F808B10A
:1007F000012010BD00F022F8002010BD70B50D4D95
:1008000004464FF47A712878B1FBF0F00A49096880
:10081000B1FBF0F000F086FD48B9102C07D20022A1
:100820002146501E00F018F800206C6070BD0120B9
:1008300070BD000014000024000000247047002850
:1008400009DB012100F01F0291404009800000F106
:10085000E020C0F8001170470E4BF0B41B68C3F3E2
:100860000223C3F10704042C00D904241D1D072D05
:1008700001D2002300E0DB1E012606FA04F56D1EFE
:100880000D409D409E40761E164045EA0601F0BC94
:1008900001F0AEBB0CED00E0064A00F00701106865
:1008A0004FF6FF03184040EA012003490843106057
:1008B000704700000CED00E00000FA0510B500F0F4
:1008C0005BFA084909684FF4807292FAA2F201F4C7
:1008D0007061B2FA82F2D140034A515CC8400349C8
:1008E000086010BD1844025864210008000000246C
:1008F00010B500F0FBF907490968102292FAA2F23C
:1009000001F07001B2FA82F2D140034A515CC84052
:1009100010BD00002044025864210008364930B55B
:100920000A68096812F00302344BC1F305311B68F1
:10093000334C03F010032468DFED320AB7EE001ADF
:10094000C4F3CC0414FB03F300EE103A2E4BB8EEC4
:10095000400A07D02D4C012A01D0022A4AD0B4FB0C
:10096000F1F10BE0244C283C22689506284A03D577
:100970002468C4F3C104E240B2FBF1F101EE901A25
:100980001968B8EE612AC1F3080101EE901A1968DE
:10099000F8EE611A40EE201A31EE810A22EE000ACA
:1009A000C1F34621491C00EE901AF8EE600A80EE71
:1009B000201AFCEEC10AC0ED000A1968C1F3064115
:1009C000491C00EE901AF8EE600A80EE201AFCEE48
:1009D000C10AC0ED010A1968C1F30661491C00EEA5
:1009E000901AF8EE600A80EE201ABCEEC10A80ED83
:1009F000020A30BD074ABFE7284402582C44025877
:100A00003C440258000000393844025800093D00B7
:100A10000090D00340787D01364930B50A680968F6
:100A200012F00302344BC1F305511B68334C03F43D
:100A300080732468DFED320AB7EE001AC4F3CC04E9
:100A400014FB03F300EE103A2E4BB8EE400A07D029
:100A50002D4C012A01D0022A4AD0B4FBF1F10BE05F
:100A6000244C283C22689506284A03D52468C4F300
:100A7000C104E240B2FBF1F101EE901A1968B8EE40
:100A8000612AC1F3080101EE901A1968F8EE611AA3
:100A900040EE201A31EE810A22EE000AC1F346210F
:100AA000491C00EE901AF8EE600A80EE201AFCEE67
:100AB000C10AC0ED000A1968C1F30641491C00EEE5
:100AC000901AF8EE600A80EE201AFCEEC10AC0ED22
:100AD000010A1968C1F30661491C00EE901AF8EE8C
:100AE000600A80EE201ABCEEC10A80ED020A30BD19
:100AF000074ABFE7284402582C440258444402588D
:100B0000000000394044025800093D000090D00325
:100B100040787D012DE9F047DFF8BC9104460E4690
:100B2000D9F8000000F00700B0420CD2D9F800104C
:100B300021F007013143C9F80010D9F8000000F096
:100B40000700B0427ED12078DFF89081800707D57A
:100B5000D8F80010E26821F00F011143C8F8001026
:100B60002078C00762D0D8F80010A26821F4706124
:100B70001143C8F8001059496068183902281CD080
:100B800003281DD0096801281DD04907002960DA13
:100B9000524F083F396821F0070101433960FFF7E0
:100BA00011FE0546606841F28831022813D00328FF
:100BB0001ED001288A4627D034E009688903E5E77A
:100BC00009688901E2E7C905E0E7FFF7FBFD411B82
:100BD000514501D923E08A463868C0F3C200022893
:100BE000F3D123E0FFF7EEFD411B514501D916E09B
:100BF0008A463868C0F3C2000328F3D116E0FFF735
:100C0000E1FD411B51450AD83868C0F3C2000128F4
:100C1000F5D10BE0FFF7D6FD411B514502D903206A
:100C2000BDE8F087386810F0380FF3D1D9F800101C
:100C3000484601F00701B1420DD9016821F00701D2
:100C4000314300E005E00160006800F00700B042B9
:100C500001D00120E4E72078400707D5D8F800103C
:100C6000226921F070011143C8F8001020780107B3
:100C70001B4805D50168626921F0700111430160CC
:100C80002178C90605D50168A26921F4E061114304
:100C900001602078800607D51149091D0868E269BE
:100CA00020F070001043086000F066F8D8F80010DB
:100CB0004FF4807292FAA2F201F47061B2FA82F2F9
:100CC000D140084A515CC840074908600F20FFF72F
:100CD00095FD0020A4E700000020005218440258AF
:100CE0001C440258642100080000002410B5FFF7DE
:100CF000E5FD08490968012292FAA2F201F00F010C
:100D0000B2FA82F2D140044A515CC84003490860FB
:100D100010BD00001844025864210008040000249B
:100D200010B5FFF7E3FF07490968102292FAA2F213
:100D300001F07001B2FA82F2D140034A515CC8401E
:100D400010BD00001C4402586421000810B5FFF7D4
:100D5000CDFF074909684FF4807292FAA2F201F4BC
:100D6000E061B2FA82F2D140024A515CC84010BD43
:100D70001C440258642100083548F0B50068364D1F
:100D800010F03801334809D00411082904D0334E3B
:100D900010290BD018290BD02046F0BD29688906F0
:100DA000FBD52968C1F3C101C840F0BD3046F0BD94
:100DB000274918310A68096812F00302284BC1F369
:100DC00005111B68274F03F001033F68DFED260A7A
:100DD000B7EE001AC7F3CC0717FB03F300EE103A87
:100DE000224BB8EE400A06D0012A01D0022A2BD0AD
:100DF000B4FBF1F008E02A68920603D52A68C2F332
:100E0000C102D040B0FBF1F001EE900A1868B8EED4
:100E1000612AC0F3080001EE900A1868F8EE611A22
:100E200040EE201A31EE810A22EE000AC0F346207D
:100E3000401C00EE900AF8EE600A80EE201ABCEE2C
:100E4000C10A10EE100AF0BDB6FBF1F0DCE70000BD
:100E5000104402580090D0030044025840787D01AD
:100E60002C440258344402580000003930440258DF
:100E70002DE9F05F04460078DFF8FC8341F2883901
:100E8000DFF8F8A3FE4DC0074ED0D8F8001040465A
:100E9000C1F3C20102291AD00068C0F3C2000328BE
:100EA00005D1DAF8000000F0030002280FD06068D6
:100EB000B0F5803F12D010B1B0F5A02F19D028683E
:100EC00020F480302860286820F4802009E0286819
:100ED000800329D56068002874D025E0286840F494
:100EE00080302860606890B1FFF76CFC06464F4682
:100EF00009E0286840F480202860EFE7FFF762FCF3
:100F0000801BB8427DD828688003F7D50CE0FFF736
:100F100059FC06464F4604E0FFF754FC801BB842DC
:100F2000F0D828688003F7D42078D64F80075AD5A8
:100F3000D8F8001040464FF47C3B11F0380F13D026
:100F40000068C0F3C200032803D1DAF8000080076C
:100F50000AD0E068A8B3296821F01901014329608B
:100F6000FFF730FC06461DE02868400702D5E06820
:100F70000028B1D02868E16820F0190008432860F3
:100F8000FFF720FC064604E0FFF71CFC801B02284C
:100F9000B8D828684007F7D507E0FFF713FC801B97
:100FA0000228AFD828684007F7D538689BFAABF21B
:100FB00020F47C312069B2FA82F29040014339601A
:100FC00011E000E0AEE0286820F001002860FFF7A3
:100FD000F9FB064604E0FFF7F5FB801B022891D8D9
:100FE00028684007F7D42078C00655D5D8F80010F7
:100FF00040464FF0F84BC1F3C201012917D00068F9
:1010000000E0EDE0C0F3C200032805D1DAF80000EB
:1010100000F0030001280AD0E069002828682CD0DD
:1010200040F080002860FFF7CDFB064616E02868F8
:10103000C00502D5E069802874D138689BFAABF20C
:1010400020F0F841206AB2FA82F290400143396000
:1010500022E0FFF7B7FB801B022899D82868C0055B
:10106000F7D538689BFAABF2216AB2FA82F220F027
:10107000F8409140084338600EE020F0800028607E
:10108000FFF7A0FB064604E0FFF79CFB801B02284D
:1010900087D82868C005F7D42078000724D5774F73
:1010A00060694C37002838680FD040F00100386084
:1010B000FFF788FB064604E0FFF784FB801B02284D
:1010C0008DD838688007F7D50EE020F00100386031
:1010D000FFF778FB064604E0FFF774FB801B02284D
:1010E0007ED838688007F7D42078800623D5A06999
:1010F000002828680FD040F480502860FFF762FB7A
:10110000064604E0FFF75EFB801B022868D82868CB
:101110008004F7D50FE020F480502860FFF752FBE1
:10112000064605E0D6E0FFF74DFB801B022857D8A6
:1011300028688004F7D42078400744D5524F386897
:1011400040F480703860FFF73DFB064604E0FFF78F
:1011500039FB801B642843D83868C005F7D5474F52
:10116000A068483701280AD008B1052811D038688E
:1011700020F001003860386820F0040002E0386890
:1011800040F001003860A06888B1FFF71BFB0646FD
:1011900009E0386840F004003860F0E7FFF712FB20
:1011A000811B49451CD838688007F7D50BE0FFF74D
:1011B00009FB064604E0FFF705FB811B49450FD8F4
:1011C00038688007F7D4606AF0B3D8F80010C1F32C
:1011D000C20103297ED00228286820F0807000E038
:1011E00079E0286003D0FFF7EDFA044687E0FFF7C7
:1011F000E9FA064604E0FFF7E5FA801B02287BD8EF
:1012000028688001F7D4DAF8001040F2F3329143F5
:10121000E26A41EA0211A26A1143CAF8001094F886
:1012200034004FF4FE02218E4002491EA0F50070EA
:1012300080B2C1F308010843218F491E02EA01412F
:10124000084394F83C1000E05CE0491E120202EAF8
:10125000016108430949083108600B1D19684FF600
:10126000F872A06C914392FAA2F2B2FA82F2904024
:1012700001431960014809E010440258284402580B
:10128000004402580444025800480258001D0168F6
:10129000226C21F00C01114301600168626C21F0A5
:1012A000020111430160016841F48031016001686D
:1012B00041F400310160016841F48021016001685E
:1012C00041F001010160286840F080702860FFF75C
:1012D00079FA01E018E00FE0044604E0FFF772FA43
:1012E000001B022808D828688001F7D50AE0FFF71C
:1012F00069FA001B022802D90320BDE8F09F286884
:101300008001F4D40020F8E70120F6E74FF0E02157
:101310000428086903D020F004000861704740F0F9
:101320000400FAE7401EB0F1807F10B501D3012020
:1013300010BD4FF0E02460610F21601700F058FEEF
:101340000020A06107202061002010BD7047704779
:1013500090F8791090F87A000843704770B50268E9
:101360000446D0691368916810F00F0F64D0594D8E
:1013700003F490760D40354376D0C50707D0DD05E0
:1013800005D501251562E26F42F00102E26782078E
:1013900008D5CA0706D0256802222A62E26F42F009
:1013A0000402E267420708D5CA0706D0256804226E
:1013B0002A62E26F42F00202E26702070ED503F0F2
:1013C000200201F080552A4352EAC17206D02568F6
:1013D00008222A62E26F42F00802E267E26F002A06
:1013E0003AD0800608D503F0200001F08051084370
:1013F00002D0204600F0D4FAE06F000703D4206842
:10140000806840062AD5204600F0BCFA2068816832
:1014100049061ED5816821F040018160606FC0B12E
:101420002D490165606FFFF743F8002814D0606F05
:10143000016DBDE870400847850615D503F020050D
:1014400001F0805635430FD02046BDE8704000F0D3
:10145000A7BA2046FFF77BFF70BD05E02046FFF7E7
:1014600076FF0020E067F7E7C6024FF020050CD5B5
:101470004E020AD5E803106284F8795084F87A5055
:101480002046BDE87040FFF761BF06060AD503F0AD
:10149000800601F400010E4304D02046BDE87040F0
:1014A00000F00EBD41060BD5590609D5116820463E
:1014B00021F04001116084F8795000F005F9CBE784
:1014C0000002C9D55800C7D5106820F080401060D0
:1014D000C2E70000010000107119000810B50400F7
:1014E00003D094F8790010B107E0012010BD00206E
:1014F00084F87800204600F027F8242084F879004A
:101500002068016821F001010160204600F084FAA2
:101510000128EBD0606B10B1204600F097F92068ED
:10152000416821F4904141602068816821F02A01DE
:1015300081602068016841F0010101602046BDE83A
:10154000104000F0E7B9000010B5006886B01B49F4
:10155000884230D11A48016841F0010101600068F9
:1015600000F00100059016481030016841F01001AC
:10157000016000680121134C00F0100005904FF449
:10158000007000900220CDE9010103900720694618
:1015900004902046FFF718F84FF480612046009130
:1015A0006946FFF711F82520FFF749F903222520A6
:1015B0001146FFF751F906B010BD000000100140C0
:1015C000E04402580000025890F87A30202B4CD1A9
:1015D000B9B1B2B190F87830012B46D0012380F830
:1015E00078304166A0F86820A0F86A20FF22816860
:1015F000B1F5805F07D07F2351B1B1F1805F0CD08E
:1016000010E001207047016921B940F2FF1107E0A5
:10161000016909BBA0F86C2004E00169E1B13F2138
:10162000A0F86C100021C167222280F87A2080F88F
:10163000781001688A6842F001028A6001680A68CD
:1016400092000CD50A6842F480720A6000688168D2
:1016500041F08051816006E0A0F86C30E2E7086854
:1016600040F490700860002070470220704700002E
:1016700030B50068114988420CD1114A50880104E4
:1016800008D411464FF000034404097806D50A290E
:1016900001D0538030BD40F400400DE00D2909D049
:1016A000084DC0F30D04401C80B2C7282955508056
:1016B000EFD830BD40F48040508030BD0010014074
:1016C0000C000024240000247047FEE70E4810B5EB
:1016D00086B0016841F001010160006869460B4C69
:1016E00000F001000590022000900120019002907E
:1016F000032003902046FEF767FF012220460221C7
:10170000FFF75BF806B010BDE04402580000025835
:10171000704770477047000070B5284C9CB0256832
:1017200025F004052560254C00260C34256845F479
:1017300040452560256805F440451B952568AD04A6
:10174000FCD5012400940CAD0396240401940224DA
:101750000994CDE90A410796082485E80D00CDE9F2
:1017600010466846FFF784FB88B93F20139003209A
:10177000CDE9140640200101CDE91640CDE918015C
:1017800050201A90022113A8FFF7C4F910B10120CC
:101790001CB070BD0A48016841F080010160084832
:1017A000F430016841F002010160006800F00200BD
:1017B0001B90FEF7C7FE0020EAE700000C48025825
:1017C00000440258FFF704B81C48016841F4700156
:1017D00001601B49086840F001000860184A0020B9
:1017E000103210600A68174B1A400A60144A183207
:1017F0001060121D1060121D1060114A2832106016
:10180000121D1060121D1060121D1060121D10605C
:10181000121D1060121D1060121D10600A6822F463
:1018200080220A6006496031086001200649C1F83B
:101830000801C006014980390860704788ED00E062
:10184000004402587FEDF6EA0080005190F8341011
:10185000C90706D001684A68836B22F400321A4334
:101860004A6090F83410890706D501684A68C36B4E
:1018700022F480321A434A6090F83410490706D5A2
:1018800001684A68036C22F480221A434A6090F887
:101890003410090706D501684A68436C22F40042F7
:1018A0001A434A6090F83410C90606D501688A6860
:1018B000836C22F480521A438A6090F834108906AF
:1018C00006D501688A68C36C22F400521A438A6004
:1018D00090F83410490611D501684A68036D22F466
:1018E00080121A434A60016DB1F5801F06D101686C
:1018F0004A68436D22F4C0021A434A6090F83410DB
:10190000090606D501684A68806D22F40022024368
:101910004A607047F8B500250446C567FEF752FFD8
:101920000746206800686FF07E46000708D5002251
:101930003B464FF400112046009600F0FBFA60B9D8
:101940002068006840070AD500223B464FF480011A
:101950002046009600F0EEFA08B10320F8BD2020E2
:1019600084F8790084F87A00002084F87850F8BD73
:1019700010B5806B0021A0F86A10A0F86210FFF784
:10198000E6FC10BD01680A6822F490720A600168E2
:101990008A6822F001028A60202180F87A1070475C
:1019A00010B5B0F86C2090F87A300168222B05D081
:1019B000088B40F008000883022010BD898C8368E2
:1019C000B3F5805F01D103696BB11140426E531CC6
:1019D00043661170B0F86A10491E0904090CA0F89A
:1019E0006A1007D015E0436E11401980416E891CC2
:1019F0004166EFE701680A6822F490720A600168A4
:101A00008A6822F001028A60202180F87A10FFF7AC
:101A10002FFE002010BD00002DE9F04F04460068A5
:101A20008025FD4B0021D4F810C087B0A6680F4672
:101A3000D4F81C8046EA0C06D4F814C0A26A4CEA1A
:101A4000080C46EA0C0632430668DFF8D0C306EA03
:101A50000C061643066020684268E66822F440528D
:101A6000324342602268A0699A4201D0266A30431C
:101A7000A66AB6F1005F04D1D4E90B6C46EA0C0605
:101A800030439668DFF898C306EA0C060643966072
:101A90002068C26A666A22F00F023243C262E14ED7
:101AA0002068E14AB04210D1126802F03802182AC8
:101AB00074D005DCCAB3082A7AD0102A47D179E05D
:101AC000202A7BD0282A7CD17AE0D84EB04209D196
:101AD000126802F00702062A73D2DFE802F05369A7
:101AE0006B6D6F71D24EB04209D1126802F00702DD
:101AF000062A66D2DFE802F0465C5E606264CD4E84
:101B0000B04209D1126802F00702062A59D2DFE872
:101B100002F0394F51535557C74EB0420BD112689E
:101B200002F00702062A4CD200E00EE0DFE802F0E5
:101B30002A4042444648C14EB04209D1126802F0E0
:101B40003802182A38D0BBDCB4E74FF0010538E082
:101B5000BB4EB04209D1126802F00702062A30D209
:101B6000DFE802F01026282A2C2EB64EB0420BD108
:101B7000126802F00702062A23D2DFE802F00319F6
:101B80001B1D1F2100251CE098421AD1A64A121DD8
:101B9000126802F00702062A13D202E00CE007E006
:101BA0000CE0DFE802F0030507090B0D022508E051
:101BB000042506E0402504E0082502E0102500E0A9
:101BC0002025DFF864B2A04E9842DFF880A2ABF186
:101BD000540B73D1102D31D006DC022D09D0042D09
:101BE0000AD0082D2FD111E0202D29D0402D2AD147
:101BF00007E0FEF77DFE13E06846FEF78FFE0198D2
:101C00000EE003A8FEF708FF049809E0DBF80010D7
:101C10005846890610D50068C0F3C1012AFA01F0C0
:101C2000002811D06168894601EB410181420AD840
:101C3000B0EB093F07D808E05046F3E78448F1E7E6
:101C40004FF40040EEE7012733E1102D4FF000087C
:101C50004ED006DC022D0FD0042D15D0082D04D156
:101C60002DE0202D4AD0402D13D00127794AA0F530
:101C70004071914270D9E6E7FEF73AFE626A0023AE
:101C8000414636F812200DE06846FEF747FE0198FF
:101C900003E003A8FEF7C0FE04980023616A36F84B
:101CA00011201946FEF714FB62680902030241EA9B
:101CB00010615008181841EB080115E032E0DBF81C
:101CC00000105846890609D500680023C0F3C101F9
:101CD0002AFA01F0616A36F8112015E0606A0023E3
:101CE00036F8102050460FE00023FEF7F1FABDE76A
:101CF000606A002336F81020554805E0606A00232A
:101D000036F810204FF400400021FEF7E1FA0902F6
:101D1000020241EA10614FEA590010184A4641EBAD
:101D20000801E1E7E3694FF4004293424DD1082DE9
:101D300023D005DC8DB1012D12D0042D06D112E087
:101D4000102D35D0202D3AD0402D11D0012721F073
:101D50000F00C1F3420108435AE0FEF7E1FF16E02D
:101D6000FEF7F4FF13E06846FEF7D8FD01980EE099
:101D700003A8FEF751FE049809E0DBF8001058466E
:101D8000890608D50068C0F3C1012AFA01F0616A2A
:101D900036F8111010E0606A36F81010BAFBF1F056
:101DA0004100606801EB5001B1FBF0F081B2CEE779
:101DB000606A36F810102648B0FBF1F0F0E7606A70
:101DC00036F81000B2FBF0F0EAE7082D4AD00ADC42
:101DD0000DB3012D43D0042D7FF44DAF6846FEF7BF
:101DE0009DFD019809E0102D52D0202D55D0402D99
:101DF000F2D103A8FEF710FE0498616A36F81110BC
:101E0000B0FBF1F1606801EB5001B1FBF0F080B282
:101E10002168C8604DE01FE0000C0058F369FFCF57
:101E2000FFF4FF11001001405444025800440040E8
:101E300000480040004C00400050004000140140A9
:101E400000780040007C0040742100080090D0031E
:101E500000093D00FFFC0F00FEF762FFCDE7FEF733
:101E600075FFCAE7DBF80020594692060AD50968D3
:101E7000C1F3C1022AFA02F1626A36F81220B1FBFC
:101E8000F2F20FE0616A36F81120BAFBF2F209E0D3
:101E9000616A36F811200949F1E7616A36F81110D4
:101EA000B2FBF1F2616802EB5102B2FBF1F189B2CF
:101EB000C16007B03846BDE8F08F000000093D0062
:101EC00090F87910212901D002207047B0F86210F3
:101ED00021B18168B1F5805F13D014E001680A6810
:101EE000920004D58A6822F400028A6003E00A683E
:101EF00022F080020A600068016841F04001016040
:101F00000CE0016961B1C16D4A1CC26502680978C3
:101F10001185B0F86210491EA0F8621000207047C9
:101F2000C16D02680988C1F308011185C16D891C62
:101F3000C165EEE72DE9F0411E4617468846044686
:101F4000069D1CE0681C1AD025B1FEF73BFC801BE7
:101F5000A84214D92068016821F4D071016020687A
:101F6000816821F001018160202084F8790084F8E3
:101F70007A00002084F878000320BDE8F081206812
:101F8000C16938EA010004D00020B842DAD000204C
:101F9000F3E70120F9E7000070B50D4D00240D486E
:101FA000FFF7DCF902E0641CAC4204D80948FFF7F3
:101FB000CFF92028F7D1002402E0641CAC4206D8F7
:101FC000054901220348FFF7FFFA0028F5D170BD4B
:101FD000FFFF0100EC0000240C000024FEE70000DD
:101FE000014A024900F023B8B5200008100000247F
:101FF0000907090E002804DB00F1E02080F8001436
:10200000704700F00F0000F1E02080F8141D7047C9
:1020100002E008C8121F08C1002AFAD170477047B1
:10202000002001E001C1121F002AFBD170472DE9F9
:10203000F04116460F460446002503E03946B047F6
:10204000641C6D1C20780028F8D12846BDE8F0817A
:1020500010B504460420FFF759F90148046010BD8B
:102060000800002470B5002405464FF47A7603E09A
:10207000304600F005F8641CAC42F9D370BD000096
:1020800070B54FF0E02500216C69094AAB69126810
:102090005043AA699A42FCD002D2A3EB020302E0A9
:1020A000A4EB02063344194413468142F1D370BDB8
:1020B000080000240349CA695206FCD5C2B20A8549
:1020C0007047000000100140FEF766F9FEF788FB3C
:1020D000042302220521A020FFF71EFB4FF4C87045
:1020E000FFF7B6FF4FF4E13000F020F8FFF7EEFA0B
:1020F000FEF79EF9064800220221FEF75EFB4FF430
:102100007A7404A0FFF76CFF2046FFF7ABFFF8E7F7
:10211000000002580D0A206D63756465762E7461A7
:102120006F62616F2E636F6D200D0A000B490A4AC2
:1021300010B5C1E9002000208860C860086188618E
:102140000C2048610846FFF7C9F9BDE81040044972
:1021500001220248FFF738BA00100140EC000024C9
:102160000C0000240000000001020304010203042B
:1021700006070809010002000400060008000A0022
:102180000C0010002000400080000001AC2100087D
:10219000000000242400000010200008D0210008C6
:1021A000240000244C0B0000202000080090D003E5
:1021B0000090D003000000000000000000000000BC
:1021C00001000000100000000000000001000000FD
:040000050800029954
:00000001FF
