:020000040800F2
:10000000400C0024AD020008153100086B2A0008DE
:10001000B9020008C1030008593F000800000000B1
:100020000000000000000000000000004335000850
:10003000E7040008000000001731000841370008FD
:10004000C7020008C7020008C7020008C70200086C
:10005000C7020008C7020008C7020008C70200085C
:10006000C7020008C7020008C7020008C70200084C
:10007000C7020008C7020008C7020008C70200083C
:10008000C7020008C7020008C7020008C70200082C
:10009000C7020008C7020008C7020008C70200081C
:1000A000C7020008C7020008C7020008C70200080C
:1000B000C7020008C7020008C7020008C7020008FC
:1000C000C7020008C7020008C7020008C7020008EC
:1000D000C7020008153F0008C7020008C702000851
:1000E000C7020008C702000800000000C70200089D
:1000F000C7020008C7020008C7020008C7020008BC
:10010000C7020008C7020008C7020008C7020008AB
:10011000C7020008C7020008C7020008C70200089B
:10012000C7020008C7020008C7020008C70200088B
:10013000C7020008C7020008C7020008C70200087B
:1001400000000000000000000000000000000000AF
:10015000C7020008C7020008C7020008C70200085B
:10016000C7020008C7020008C7020008C70200084B
:10017000C7020008C7020008C7020008C70200083B
:10018000C7020008C7020008C7020008C70200082B
:10019000C7020008C7020008C7020008C70200081B
:1001A000C7020008C7020008C7020008C70200080B
:1001B000C7020008C7020008C7020008C7020008FB
:1001C000C7020008C7020008C7020008C7020008EB
:1001D000C7020008C7020008C7020008C7020008DB
:1001E000C7020008C7020008C7020008C7020008CB
:1001F000C7020008C7020008C7020008C7020008BB
:10020000C7020008C7020008C7020008C7020008AA
:10021000C7020008C7020008C7020008C70200089A
:10022000C7020008C7020008C7020008000000005B
:10023000C7020008C702000800000000C70200084B
:10024000C7020008C7020008C7020008C70200086A
:10025000C7020008C7020008C7020008C70200085A
:10026000C7020008C7020008C7020008C70200084A
:10027000C7020008C7020008C7020008000000000B
:10028000C702000800000000C702000800000000CC
:1002900000000000C7020008DFF80CD000F07EF874
:1002A0000048004775430008400C0024064880477A
:1002B00006480047FEE7FEE7FEE7FEE7FEE7FEE74B
:1002C000FEE7FEE7FEE7FEE7453700089902000873
:1002D0002DE9F05F0546002092469B46884606467B
:1002E000814640241BE0284641464746224600F00E
:1002F00045F853465A46C01A914110D31146184644
:10030000224600F02CF82D1A67EB01084F462246D2
:100310000120002100F023F817EB00094E41201EB8
:10032000A4F10104DFDC484631462A464346BDE8D5
:10033000F09F30B50B46014600202022012409E041
:1003400021FA02F59D4205D303FA02F5491B04FA8E
:1003500002F52844151EA2F10102F1DC30BD202A6D
:1003600004DB203A00FA02F1002070479140C2F10C
:10037000200320FA03F3194390407047202A04DB3E
:10038000203A21FA02F00021704721FA02F3D0400E
:10039000C2F120029140084319467047064C074DB0
:1003A00006E0E06840F0010394E807009847103445
:1003B000AC42F6D3FFF774FF2C6800084C680008C5
:1003C000FEE70000F0B5BFF34F8FBFF36F8F1D49FD
:1003D00000200860BFF34F8FBFF36F8F1A4C216866
:1003E00041F400312160BFF34F8FBFF36F8F164987
:1003F00070310860BFF34F8F081F006843F6FF7528
:10040000104E1036C0F34E31C0F3C90305EA411255
:10041000184642EA80773760401EFAD2491EF5D26C
:10042000BFF34F8F206840F480302060BFF34F8FC0
:10043000BFF36F8F03484C30016841F00401016045
:10044000F0BD000050EF00E014ED00E02DE9F043B6
:100450000D4F00241D4616468846814604EB0410C5
:1004600017F81010B14209D107EB40014878A842B3
:1004700004D1891C4246484600F02AF8641CA4B204
:10048000382CEBD3BDE8F083705D00082DE9F04314
:100490000E4F00241D4616468846814604EB840014
:1004A00000EB441017F81010B14209D107EB4001DE
:1004B0004878A84204D1891C4246484600F008F812
:1004C000641CA4B2092CE9D3BDE8F083466500089A
:1004D000002310B504E011F8014B5B1C00F8014B40
:1004E0009342F8D310BD7047F0B51C46094B0A4F34
:1004F000164685B04FF0000C10251A885B883F889F
:10050000121A5B1A8DE8F01092B29BB200F0BAF9A1
:1005100005B0F0BD2C020024280000242DE9FF4185
:100520001C46084B1646002710251A885B88121AAD
:100530005B1A8DE8F00092B29BB203F04FF8BDE871
:10054000FF8100002C0200242DE9FF411C46084BCE
:100550001646002718251A885B88121A5B1A8DE840
:10056000F00092B29BB203F039F8BDE8FF810000C1
:100570002C0200242DE9F0411546DFF85C800122B1
:100580000C46064640461703394600F05EFB052040
:1005900000F0D6F9032002F01DFFC4F3074002F07B
:1005A00019FFC4F3072002F015FFE0B202F012FFBA
:1005B000002405E0FF2002F00DFF3055641CA4B2BA
:1005C000AC42F7D300223946404600F03EFBBDE87E
:1005D000F041052000F0B4B90004025830B40C46D4
:1005E0000178202A1AD009DC0C2A0DD0102A13D049
:1005F000182A17D10C4801FB030108E0302A0FD05C
:10060000402A0FD10948F6E7594301F50021204659
:1006100030BC1A46FFF7AEBF0548ECE70548EAE7ED
:100620000548E8E730BC7047001208000092080057
:1006300000080800002608000048080030B40C46F6
:100640000146007815464A78812809D3402A07D305
:10065000FF2A05D0FF2803D07F2A0CD2403A0BE0B6
:100660000022104603E0521C92B204F8010B9A4299
:10067000F9D330BC7047413A8138C0B2D1B2C0EB37
:10068000401202EB801001EB400159430C2D0CD0BD
:10069000102D0CD0182D0DD0202DEAD101F56011B0
:1006A000204630BC1A46FFF765BF044800E0044806
:1006B0000144F5E701F5ED11F2E70000001409002F
:1006C00000DD1100AFF3008070B586B04FF6FF700B
:1006D00002F03EFA00206C4605462554401CC0B28C
:1006E0001828FAD3112220460021FFF743FF1021DA
:1006F0006B464FF4784608463246FFF7F5FE002079
:100700002554401CC0B21828FAD308226846142188
:10071000FFF730FF20216B4610203246FFF7E4FE42
:1007200000202554401CC0B21828FAD3082268467D
:100730001E21FFF71FFF30216B4610203246FFF7C6
:10074000D3FE4FF4FA6003F0EDFD06B070BD2DE965
:10075000F04FC1B01C4616460D46824689465807E2
:1007600001D0012100E0002101EBD40061080C2C34
:1007700010FB01F0834609D0102C07D0182C05D0AF
:10078000202C03D0302C01D0402C2DD10346224602
:1007900069463046FFF722FF002022E01DF808706E
:1007A0000026380601D54A9A02E04C9820B94B9AA7
:1007B0002946504602F02EFA78066D1CADB2070E9F
:1007C000A5EB0900A04205D10AF101004D461FFA30
:1007D00080FA03E0761CB6B2082EE2D308F10100DD
:1007E00080B258458046D9D341B0BDE8F08F2DE99D
:1007F000F04FA1B01F4615460C4682468946580761
:1008000001D0012100E0002101EBD7000C2F10FBEB
:1008100007F0834605D0102F03D0182F01D0202FCA
:100820002DD103463A4669462846FFF707FF0020C8
:1008300022E01DF808600025300601D52A9A02E062
:100840002C9820B92B9A2146504602F0E3F9700605
:10085000641CA4B2060EA4EB0900B84205D10AF14B
:1008600001004C461FFA80FA03E06D1CEDB2082D22
:10087000E2D308F10100C0B258458046D9D321B077
:10088000BDE8F08F2DE9FF4F83B09B460E4604462E
:1008900080468A46DDE910750020814620E0B9F1E6
:1008A000000F23D005994FF0000908EB0100401B11
:1008B000A04202DA7019444686B20AEB0B00401BD4
:1008C000B04210DB12AB93E807002B468DE807001F
:1008D0003A4631462046FFF78AFF601984B2BF1CB2
:1008E00038780028DBD107B0BDE8F08F802801D927
:1008F0000120D2E7059A08EB0201A1EB5501A142C4
:1009000002DA711944468EB20AEB0B01491BB1425F
:10091000E9DB0D280FD012AB93E807002B468DE8DA
:1009200007003A4631462046FFF711FF04EB550019
:1009300084B27F1CD4E77019444686B27F1CF5E769
:10094000002206E00021491CC9B26429FBD3521CD5
:10095000D2B28242F6D3704770B4164602781D4672
:100960004378812A0C4610D3402B0ED3FF2B0CD09A
:10097000FF2A0AD00C2D11D0102D11D0182D0DD119
:100980003146204670BCFFF781BD0021084603E0D8
:10099000491C04F8010BC9B2B142F9D370BC7047CD
:1009A0003146204670BCFFF751BD000010B528B19C
:1009B00090F83510022903D080214165012010BD37
:1009C0001D4A4FF4956301688C189C4207D8042295
:1009D00080F83520086820F00100086029E00C68E4
:1009E00024F00E040C6001680A440A6822F0010237
:1009F0000A60016E0A6822F480720A6090F85C3026
:100A0000012202FA03F10D4B1960D0E919134B6072
:100A1000C16E31B10B6823F480730B60D0E91C13F5
:100A20004B60002180F8341080F83520016D01B151
:100A30008847002010BD0000F0FFFDBF045402589D
:100A40000248016841F0010101607047200400582C
:100A50002DE9F84F6C4C00224FF0B04A4FF0010BDB
:100A60004FF0030E4FF00F090B680BFA02F73B40F3
:100A7000BB4270D14D68022D01D0122D12D1D50884
:100A800000EB850CDCF820605507ED0E09FA05F83F
:100A900026EA0806D1F8108008FA05F848EA0608A0
:100AA000CCF82080D0F80080560091F804C00EFAEF
:100AB00006F50CF0030C28EA05080CFA06FC4CEAD3
:100AC000080CC0F800C0D1F804C0BCF1010F08D078
:100AD000BCF1020F05D0BCF1110F02D0BCF1120F16
:100AE00016D1D0F808C0D1F80C802CEA050C08FA11
:100AF00006F848EA0C08C0F80880D0F804C02CEAD0
:100B0000070C0F79C7F30017974047EA0C074760B7
:100B1000C768AF438D68B5403D43C5604D68ED0083
:100B20006BD53A4D2E6846F002062E602D6822F0F5
:100B3000030606F1B04605F002050095D6F808C494
:100B400095072F0F09FA07F52CEA050C304DA8423E
:100B500002D100252EE050E02E4DA84201D1012502
:100B600028E02D4DA84201D1022523E02B4DA842BB
:100B700001D103251EE02A4DA84201D1042519E028
:100B8000284DA84201D1052514E0274DA84201D1E6
:100B900006250FE0254DA84201D107250AE0244D86
:100BA000A84201D1082505E0224DA84201D109251E
:100BB00000E00A25BD4045EA0C05C6F80854256842
:100BC0004E689D43F60300D51D43256065684E6859
:100BD0009D43B60300D51D436560DAF800505646C4
:100BE0004F689D43FF0200D51D43356075684F680F
:100BF0009D43BF0200D51D437560521C102AFFF4AF
:100C000033AFBDE8F88F000080000058F44402586C
:100C1000000002580004025800080258000C025854
:100C2000001002580014025800180258001C025804
:100C300000200258002402580069084000D001201A
:100C4000704742694A40426170470AB10183704768
:100C500041837047014880687047000018000024F5
:100C600002488168027811448160704718000024AE
:100C7000032010B500F058F80F2000F007F808B175
:100C8000012010BD00F022F8002010BD70B50D4D00
:100C900004464FF47A712878B1FBF0F00A490968EC
:100CA000B1FBF0F001F00EFD48B9102C07D2002284
:100CB0002146501E00F018F800206C6070BD012025
:100CC00070BD0000180000240800002470470028B0
:100CD00009DB012100F01F0291404009800000F172
:100CE000E020C0F8001170470E4BF0B41B68C3F34E
:100CF0000223C3F10704042C00D904241D1D072D71
:100D000001D2002300E0DB1E012606FA04F56D1E69
:100D10000D409D409E40761E164045EA0601F0BCFF
:100D200003F030B90CED00E0064A00F0070110684E
:100D30004FF6FF03184040EA0120034908431060C2
:100D4000704700000CED00E00000FA0510B500F05F
:100D5000B3FE084909684FF4807292FAA2F201F4D6
:100D60007061B2FA82F2D140034A515CC840034933
:100D7000086010BD18440258884500080800002487
:100D800010B500F053FE07490968102292FAA2F24A
:100D900001F07001B2FA82F2D140034A515CC840BE
:100DA00010BD00002044025888450008364930B57F
:100DB0000A68096812F00302344BC1F305311B685D
:100DC000334C03F010032468DFED320AB7EE001A4B
:100DD000C4F3CC0414FB03F300EE103A2E4BB8EE30
:100DE000400A07D02D4C012A01D0022A4AD0B4FB78
:100DF000F1F10BE0244C283C22689506284A03D5E3
:100E00002468C4F3C104E240B2FBF1F101EE901A90
:100E10001968B8EE612AC1F3080101EE901A196849
:100E2000F8EE611A40EE201A31EE810A22EE000A35
:100E3000C1F34621491C00EE901AF8EE600A80EEDC
:100E4000201AFCEEC10AC0ED000A1968C1F3064180
:100E5000491C00EE901AF8EE600A80EE201AFCEEB3
:100E6000C10AC0ED010A1968C1F30661491C00EE10
:100E7000901AF8EE600A80EE201ABCEEC10A80EDEE
:100E8000020A30BD074ABFE7284402582C440258E2
:100E90003C440258000000393844025800093D0023
:100EA0000090D00340787D01364930B50A68096862
:100EB00012F00302344BC1F305511B68334C03F4A9
:100EC00080732468DFED320AB7EE001AC4F3CC0455
:100ED00014FB03F300EE103A2E4BB8EE400A07D095
:100EE0002D4C012A01D0022A4AD0B4FBF1F10BE0CB
:100EF000244C283C22689506284A03D52468C4F36C
:100F0000C104E240B2FBF1F101EE901A1968B8EEAB
:100F1000612AC1F3080101EE901A1968F8EE611A0E
:100F200040EE201A31EE810A22EE000AC1F346217A
:100F3000491C00EE901AF8EE600A80EE201AFCEED2
:100F4000C10AC0ED000A1968C1F30641491C00EE50
:100F5000901AF8EE600A80EE201AFCEEC10AC0ED8D
:100F6000010A1968C1F30661491C00EE901AF8EEF7
:100F7000600A80EE201ABCEEC10A80ED020A30BD84
:100F8000074ABFE7284402582C44025844440258F8
:100F9000000000394044025800093D000090D00391
:100FA00040787D012DE9F84F0446006800252E4663
:100FB000010104F12400FE4FDFF8F88300901DD5F5
:100FC000606E50B1B0F5801F0CD0B0F5001F0ED090
:100FD000B0F5401F1DD001250FE0386840F4003007
:100FE000386016E00221201D02F096F803E0009818
:100FF000022102F009F905000BD02E462088C00519
:1010000023D5606D05281ED2DFE800F00C11161BF9
:101010001B00D8F80010626E21F440111143C8F88B
:101020000010EBE7386840F40030386009E0002138
:10103000201D02F071F803E00098002102F0E4F8AE
:1010400005466DB100E001252E432088800528D596
:10105000A06D80281ED00CDC90B140280ED114E089
:10106000D8F80010626D21F007011143C8F8001094
:10107000EBE7C02813D0B0F5807F10D001250FE03A
:10108000386840F40030386009E00021201D02F08B
:1010900043F803E00098002102F0B6F8054685B158
:1010A0002E432088DFF8109340052CD5D4F8A400F7
:1010B000B0F5800F20D00DDCA0B1B0F5001F0FD12E
:1010C00015E0D8F80010A26D21F4E0711143C8F8C2
:1010D0000010E6E7B0F5C00F13D0B0F5000F10D048
:1010E00001250FE0386840F40030386009E0002145
:1010F000201D02F011F803E00098002102F084F8AE
:10110000054675B12E43208800052DD5D4F8A800DA
:10111000B0F1007F21D00EDCA8B1B0F1807F10D1FA
:1011200016E0D9F80010D4F8A42021F4600111438E
:10113000C9F80010E7E7B0F1407F13D0B0F1806F3D
:1011400010D001250FE0386840F40030386009E025
:101150000021201D01F0E0FF03E00098002102F0D3
:1011600053F805466DB12E43206880011FD5A06C51
:10117000D8B110280FD0202812D0302815D0012542
:1011800014E0D9F80010D4F8A82021F0E061114350
:10119000C9F80010E8E7386840F40030386004E02F
:1011A0000221201D01F0B8FF05466DB12E432088B5
:1011B000C0042BD5E06DB0F5005F20D00DDCA0B1F0
:1011C000B0F5805F0FD115E07A48001F0168A26C6E
:1011D00021F0300111430160E9E7B0F5405F13D021
:1011E000B0F5804F10D001250FE0386840F4003092
:1011F000386009E00021201D01F08EFF03E0009817
:10120000002102F001F8054685B12E4320888004B4
:1012100029D5206EB0F5403F23D010DC08B3B0F5DF
:10122000803F14D0B0F5003F0FD115E0D8F8001082
:10123000E26D21F4E0411143C8F80010E6E7B0F593
:10124000802F0ED0B0F5A02F0BD001250AE0012190
:10125000201D01F061FF03E00098012101F0D4FF9F
:1012600005468DB12E43208840042AD5D4F8AC0021
:10127000B0F1405F23D010DC08B3B0F1805F14D030
:10128000B0F1005F0FD115E0D8F80010226E21F404
:10129000E0211143C8F80010E5E7B0F1804F0ED00F
:1012A000B0F1A04F0BD001250AE00121201D01F073
:1012B00033FF03E00098012101F0A6FF05466DB160
:1012C0002E43208800041FD5E06ED8B1B0F1805FB6
:1012D0000ED0B0F1005F10D0012514E0D9F8001055
:1012E000D4F8AC2021F0E0411143C9F80010E8E740
:1012F000386840F40030386004E00121201D01F01E
:101300000BFF05466DB12E432068C0011ED5606CF1
:10131000D0B101280ED0022811D0032814D0012505
:1013200013E0D8F80010E26E21F040511143C8F8E4
:101330000010E9E7386840F40030386004E002212A
:10134000201D01F0E9FE054675B12E432068DFF847
:101350006CB040025AD51A48016841F480710160AE
:10136000FFF778FC82460EE01248001F0168626CAD
:1013700021F0030111430160E8E7FFF76BFCA0EBEC
:101380000A0064283AD80E480068C005F5D5B5BBF8
:10139000094818300068B4F8B01000F4407001F447
:1013A0004071884219D00448183001680AE00000F2
:1013B0002C440258504402585844025810440258D1
:1013C00000480258026821F4407142F48032026001
:1013D000026822F4803202600160D4F8B000B0F5F7
:1013E000807F22D1FFF736FC824609E0FFF732FC0E
:1013F000A0EB0A0141F28830814201D9032504E0C3
:10140000FE4800688007F1D57DB12E432078DFF8D3
:10141000F0A3C0073CD0A06F182837D025DC78B3E4
:10142000082828D0102824D12BE0D4F8B000C0F32D
:10143000012103290ED0DBF8001021F47C51CBF8F8
:101440000010EE480168B4F8B020C2F30B0211435B
:101450000160DBE7DBF80020EA4B22F47C5203EA70
:1014600010100243CBF80020EBE720280ED02828EC
:101470000CD001250BE00121201D01F04DFE04E000
:1014800004E00098012101F0BFFE05465DB12E4346
:10149000207880071ED5606F062819D2DFE800F09B
:1014A000160C11161616DAF80010A26F21F038018A
:1014B0001143CAF80010EBE70121201D01F02CFEBA
:1014C00003E00098012101F09FFE054675B100E0A0
:1014D00001252E43207840071FD5D4F89000062818
:1014E00019D2DFE800F0160C11161616DAF8001003
:1014F000626F21F007011143CAF80010EAE70121E9
:10150000201D01F009FE03E00098012101F07CFE9E
:1015100005469DB100E001252E43207880062BD59D
:10152000D4F88C00B0F1405F24D011DC10B3B0F1DE
:10153000805F15D0B0F1005F10D116E0D9F800102F
:10154000D4F8902021F007011143C9F80010E4E716
:10155000B0F1804F0ED0B0F1A04F0BD001250AE0C2
:101560000021201D01F0D8FD03E00098022101F0C8
:101570004BFE05468DB12E43207840062BD5D4F87E
:101580009800B0F5406F24D011DC10B3B0F5806F37
:1015900015D0B0F5006F10D116E0DAF80010D4F8CD
:1015A0008C2021F0E0411143CAF80010E4E7B0F5C7
:1015B000805F0ED0B0F5A05F0BD001250AE00021BE
:1015C000201D01F0A9FD03E00098022101F01CFE9E
:1015D00005468DB12E43207800062BD5D4F89C000B
:1015E000B0F5C04F24D011DC10B3B0F5005F15D0BA
:1015F000B0F5804F10D116E0D9F80010D4F898203B
:1016000021F4E0511143C9F80010E4E7B0F5004FB0
:101610000ED0B0F5204F0BD001250AE00021201D8F
:1016200001F07AFD03E00098022101F0EDFD05468E
:1016300065B32E43207800070BD5D4F88000B0F5B1
:10164000805F2DD0DAF8002022F440520243CAF81D
:1016500000202078C0060BD5D4F89400B0F5807F28
:1016600024D0D9F8002022F440720243C9F80020A7
:10167000206800032CD5D4F8A000E8B1B0F5803F75
:101680001FD0B0F5003F21D0012520E0D9F800108F
:10169000D4F89C2021F460411143C9F80010C9E737
:1016A0000098022101F0B0FD0643D2E70098022124
:1016B00001F0AAFD0643DBE70021201D01F02CFD0F
:1016C00003E00098022101F09FFD054685B12E43FD
:1016D0002068400322D5D4F88400B0F5801F11D0D3
:1016E000B0F5001F13D0B0F5401F15D0012514E050
:1016F000D9F80010D4F8A02021F440311143C9F8E2
:101700000010E5E7386840F40030386004E00098E5
:10171000012101F079FD054655B12E432068C00333
:101720001CD5E06C70B1B0F5803F10D0012514E0FD
:10173000DAF80010D4F8842021F440111143CAF8DB
:101740000010EBE7386840F40030386004E0022114
:10175000201D01F0E1FC0546C5B12E432068800044
:1017600004D50098022101F04FFD06432068800354
:101770001BD5E06FB8B1B0F5807F10D0B0F5007F19
:1017800011D0B0F5407F0ED001250DE01C4808387F
:101790000168E26C21F4803111430160DEE73868B2
:1017A00040F40030386045B32E432068C00207D5AE
:1017B000D8F80000226F20F000401043C8F8000065
:1017C0002068C00008D5DBF80010D4F8B42021F45C
:1017D00080411143CBF800102068800207D5D8F86B
:1017E0000010A26E21F080711143C8F8001020682B
:1017F000400014D5DBF8001006E01EE070440258EB
:1018000054440258CFFFFF0021F40041CBF80010F0
:10181000DBF80010D4F8B8201143CBF80010206892
:10182000002806DA0A480168226D21F04051114370
:1018300001605EB10120BDE8F88FDAF80010E26FB8
:1018400021F440711143CAF80010AEE70020F2E71E
:101850004C4402582DE9F047DFF8BC9104460E468F
:10186000D9F8000000F00700B0420CD2D9F80010FF
:1018700021F007013143C9F80010D9F8000000F049
:101880000700B0427ED12078DFF89081800707D52D
:10189000D8F80010E26821F00F011143C8F80010D9
:1018A0002078C00762D0D8F80010A26821F47061D7
:1018B0001143C8F8001059496068183902281CD033
:1018C00003281DD0096801281DD04907002960DAC6
:1018D000524F083F396821F0070101433960FFF793
:1018E000B9F90546606841F28831022813D003280F
:1018F0001ED001288A4627D034E009688903E5E72D
:1019000009688901E2E7C905E0E7FFF7A3F9411B90
:10191000514501D923E08A463868C0F3C200022845
:10192000F3D123E0FFF796F9411B514501D916E0A9
:101930008A463868C0F3C2000328F3D116E0FFF7E7
:1019400089F9411B51450AD83868C0F3C200012803
:10195000F5D10BE0FFF77EF9411B514502D9032079
:10196000BDE8F087386810F0380FF3D1D9F80010CF
:10197000484601F00701B1420DD9016821F0070185
:10198000314300E005E00160006800F00700B0426C
:1019900001D00120E4E72078400707D5D8F80010EF
:1019A000226921F070011143C8F800102078010766
:1019B0001B4805D50168626921F07001114301607F
:1019C0002178C90605D50168A26921F4E0611143B7
:1019D00001602078800607D51149091D0868E26971
:1019E00020F070001043086000F066F8D8F800108E
:1019F0004FF4807292FAA2F201F47061B2FA82F2AC
:101A0000D140084A515CC840074908600F20FFF7E1
:101A10003DF90020A4E700000020005218440258BD
:101A20001C440258884500080800002410B5FFF740
:101A30008DF908490968012292FAA2F201F00F011A
:101A4000B2FA82F2D140044A515CC84003490860AE
:101A500010BD000018440258884500080C000024FE
:101A600010B5FFF7E3FF07490968102292FAA2F2C6
:101A700001F07001B2FA82F2D140034A515CC840D1
:101A800010BD00001C4402588845000810B5FFF73F
:101A9000CDFF074909684FF4807292FAA2F201F46F
:101AA000E061B2FA82F2D140024A515CC84010BDF6
:101AB0001C440258884500083548F0B50068364D8A
:101AC00010F03801334809D00411082904D0334EEE
:101AD00010290BD018290BD02046F0BD29688906A3
:101AE000FBD52968C1F3C101C840F0BD3046F0BD47
:101AF000274918310A68096812F00302284BC1F31C
:101B000005111B68274F03F001033F68DFED260A2C
:101B1000B7EE001AC7F3CC0717FB03F300EE103A39
:101B2000224BB8EE400A06D0012A01D0022A2BD05F
:101B3000B4FBF1F008E02A68920603D52A68C2F3E4
:101B4000C102D040B0FBF1F001EE900A1868B8EE87
:101B5000612AC0F3080001EE900A1868F8EE611AD5
:101B600040EE201A31EE810A22EE000AC0F3462030
:101B7000401C00EE900AF8EE600A80EE201ABCEEDF
:101B8000C10A10EE100AF0BDB6FBF1F0DCE7000070
:101B9000104402580090D0030044025840787D0160
:101BA0002C44025834440258000000393044025892
:101BB0002DE9F05F04460078DFF8FC8341F28839B4
:101BC000DFF8F8A3FE4DC0074ED0D8F8001040460D
:101BD000C1F3C20102291AD00068C0F3C200032871
:101BE00005D1DAF8000000F0030002280FD0606889
:101BF000B0F5803F12D010B1B0F5A02F19D02868F1
:101C000020F480302860286820F4802009E02868CB
:101C1000800329D56068002874D025E0286840F446
:101C200080302860606890B1FFF714F806464F4690
:101C300009E0286840F480202860EFE7FFF70AF801
:101C4000801BB8427DD828688003F7D50CE0FFF7E9
:101C500001F806464F4604E0FEF7FCFF801BB84241
:101C6000F0D828688003F7D42078D64F80075AD55B
:101C7000D8F8001040464FF47C3B11F0380F13D0D9
:101C80000068C0F3C200032803D1DAF8000080071F
:101C90000AD0E068A8B3296821F01901014329603E
:101CA000FEF7D8FF06461DE02868400702D5E06829
:101CB0000028B1D02868E16820F0190008432860A6
:101CC000FEF7C8FF064604E0FEF7C4FF801B0228AB
:101CD000B8D828684007F7D507E0FEF7BBFF801BA0
:101CE0000228AFD828684007F7D538689BFAABF2CE
:101CF00020F47C312069B2FA82F2904001433960CD
:101D000011E000E0AEE0286820F001002860FEF756
:101D1000A1FF064604E0FEF79DFF801B022891D834
:101D200028684007F7D42078C00655D5D8F80010A9
:101D300040464FF0F84BC1F3C201012917D00068AB
:101D400000E0EDE0C0F3C200032805D1DAF800009E
:101D500000F0030001280AD0E069002828682CD090
:101D600040F080002860FEF775FF064616E0286800
:101D7000C00502D5E069802874D138689BFAABF2BF
:101D800020F0F841206AB2FA82F2904001433960B3
:101D900022E0FEF75FFF801B022899D82868C00563
:101DA000F7D538689BFAABF2216AB2FA82F220F0DA
:101DB000F8409140084338600EE020F08000286031
:101DC000FEF748FF064604E0FEF744FF801B0228AA
:101DD00087D82868C005F7D42078000724D5774F26
:101DE00060694C37002838680FD040F00100386037
:101DF000FEF730FF064604E0FEF72CFF801B0228AA
:101E00008DD838688007F7D50EE020F001003860E3
:101E1000FEF720FF064604E0FEF71CFF801B0228A9
:101E20007ED838688007F7D42078800623D5A0694B
:101E3000002828680FD040F480502860FEF70AFF81
:101E4000064604E0FEF706FF801B022868D82868D3
:101E50008004F7D50FE020F480502860FEF7FAFEEA
:101E6000064605E0D6E0FEF7F5FE801B022857D8AF
:101E700028688004F7D42078400744D5524F38684A
:101E800040F480703860FEF7E5FE064604E0FEF799
:101E9000E1FE801B642843D83868C005F7D5474F5A
:101EA000A068483701280AD008B1052811D0386841
:101EB00020F001003860386820F0040002E0386843
:101EC00040F001003860A06888B1FEF7C3FE064606
:101ED00009E0386840F004003860F0E7FEF7BAFE29
:101EE000811B49451CD838688007F7D50BE0FEF701
:101EF000B1FE064604E0FEF7ADFE811B49450FD852
:101F000038688007F7D4606AF0B3D8F80010C1F3DE
:101F1000C20103297ED00228286820F0807000E0EA
:101F200079E0286003D0FEF795FE044687E0FEF7CF
:101F300091FE064604E0FEF78DFE801B02287BD84A
:101F400028688001F7D4DAF8001040F2F3329143A8
:101F5000E26A41EA0211A26A1143CAF8001094F839
:101F600034004FF4FE02218E4002491EA0F500709D
:101F700080B2C1F308010843218F491E02EA0141E2
:101F8000084394F83C1000E05CE0491E120202EAAB
:101F9000016108430949083108600B1D19684FF6B3
:101FA000F872A06C914392FAA2F2B2FA82F29040D7
:101FB00001431960014809E01044025828440258BE
:101FC000004402580444025800480258001D0168A9
:101FD000226C21F00C01114301600168626C21F058
:101FE000020111430160016841F480310160016820
:101FF00041F400310160016841F480210160016811
:1020000041F001010160286840F080702860FEF70F
:1020100021FE01E018E00FE0044604E0FEF71AFE9E
:10202000001B022808D828688001F7D50AE0FEF7CF
:1020300011FE001B022802D90320BDE8F09F28688A
:102040008001F4D40020F8E70120F6E710B5040081
:1020500010D02068016821F02C01016020684168DF
:1020600021F060014160204600F058F800206072C5
:10207000207210BD012010BD2DE9F0470446007A02
:102080000026894601280BD001272772607AB046C6
:10209000012807D0012684F808803046BDE8F08783
:1020A0000220FBE702206072FEF7D4FD05460AE03D
:1020B000FEF7D0FD401B022805D9042060720320E2
:1020C00084F80880EAE720684068C043C007EFD181
:1020D00020688068E060C9F800006772DBE710B52F
:1020E000040002D0607A10B106E0012010BD00208B
:1020F0002072204600F014F8022060722068016807
:10210000626821F02001114301602068016841F0FC
:102110000401016001206072002010BD70470000C2
:1021200000B5B1B04FF40030009040121F906846E7
:10213000FEF738FF0548016841F040010160006882
:1021400000F040002F9031B000BD0000DC44025888
:102150002DE9F05F04004FF000053DD0DFF8C481A9
:102160002068714E714F4045A36A06D0B04204D03A
:10217000B84202D0E1680F292ED8E26B4FF0010B74
:102180000BEB521CE26802F10801C908404501FB53
:102190000CF105D0B04203D0B84201D008291BD8B9
:1021A000404503D0B04201D0B84201D1102913D824
:1021B0004FF480094B4512D1404507D0B04205D0BD
:1021C000B84203D0206BB0F5702F05D8256B05B948
:1021D0001504B2EB154F02D90120BDE8F09F94F829
:1021E00081004FF0000A20B9204684F880A000F05A
:1021F0009FF8022084F881002068016821F0010125
:102200000160A069B0F1806F09D16068484506D1CE
:10221000A06B20B92068016841F480510160A16A77
:10222000E0690843E16B29430843E16808432168FA
:102230008860616A606BA2690843A16B114308431F
:102240002169084361690843216A084361680843BA
:10225000E16C0843A1680843A16C0843A16D0843E1
:102260002168C860A06A484529D1206C01282068EF
:10227000016827D021F400410160606C01282068CA
:10228000016822D021F4804101602068404506D0D9
:10229000B04204D0B84202D0B5F5702F18D04045F6
:1022A00003D0B04201D0B84202D1B5F5F81F0FD02B
:1022B000016821F4005101602168E06A08646068E7
:1022C00050B119E041F40041D6E741F48041DBE729
:1022D000016841F40051EEE7A06A30B920688168D6
:1022E00021F4C05141F4006181602068816821F4CB
:1022F000C06141F4806181602068016D21F00101BD
:1023000001656068400206D52068C168626D21F0F1
:1023100000411143C160C4F884A084F881B000205A
:102320005BE700000030014000380040003C004006
:10233000164800B5B5B0016841F0020101600068BF
:1023400000F00200349011480830016841F48041E7
:102350000160006800F4804034904FF48050009099
:10236000002017906846FEF71DFE4FF460402F9046
:1023700002203090012031900320329005203390CC
:1023800003482FA9FEF764FB35B000BDE0440258B6
:10239000000402582DE9F84F044690F880001F46CB
:1023A00092460A9D01288B4613D04FF0010984F80C
:1023B0008090FEF74FFC94F8812006460020012A09
:1023C0004FF480010ED062688A4209D1A2683AB9FE
:1023D00002E00220BDE8F88F94F88120042A01D0A1
:1023E000022136E0BBF1000F32D0BAF1000F2FD03E
:1023F00077B394F88120042A02D0052284F8812042
:102400008046C4F88400C4F864A0A4F86A70A4F8F4
:102410006870C4F85CB0A4F86270A4F860702067BB
:102420006067206842686FF30F023A434260206899
:10243000026842F0010202606068884204D12068AC
:10244000016841F400710160E0680F2840D848E05D
:10245000012184F880000846BCE7B4F8620070B13E
:102460002068416989070AD5E16D09680162E06D5C
:10247000001DE065B4F86200401EA4F86200B4F8E4
:102480006A0080B12068416948F2080211420AD00E
:10249000006B616E0860606E001D6066B4F86A00D3
:1024A000401EA4F86A00681C12D0FEF7D3FB801B04
:1024B000A8420DD3204600F0B5FF84F88080D4F800
:1024C000840040F48070C4F8840084F88190EBE0CC
:1024D000B4F862000028C0D1B4F86A000028BCD16A
:1024E000C8E0072849D8BDE0B4F86200F0B1206820
:1024F000416989071AD5B4F8621001290BD9E16B3B
:1025000049B1E16D09680162E06D001DE065B4F854
:102510006200801E08E0E16D09880184E06D801C86
:10252000E065B4F86200401EA4F86200B4F86A00E6
:10253000E0B12068416911F4604F17D04169090486
:1025400009D5006B616E0860606E001D6066B4F8AE
:102550006A00801E08E0008E616E0880606E801C3C
:102560006066B4F86A00401EA4F86A00681C04D0D3
:10257000FEF770FB801BA8429CD2B4F862000028D2
:10258000B2D1B4F86A000028AED173E0B4F86200AA
:1025900080B32068416989072CD5B4F862100329FB
:1025A0000CD9E16B402909D9E16D09680162E06D40
:1025B000001DE065B4F86200001F19E0B4F8621075
:1025C00001290BD9E16B49B1E16D09880184E06D06
:1025D000801CE065B4F86200801E09E0E16D0978B6
:1025E00080F82010E06D401CE065B4F86200401EE9
:1025F000A4F86200B4F86A0068B32068416911F475
:10260000604F28D04169090409D5006B616E0860EC
:10261000606E001D6066B4F86A00001F19E0416931
:1026200001F4C041B1F5005F09D9008E616E0880E8
:10263000606E801C6066B4F86A00801E09E090F845
:102640003000616E0870606E401C6066B4F86A000D
:10265000401EA4F86A00681C04D0FEF7FBFA801B39
:10266000A84289D2B4F8620000288FD1B4F86A0079
:1026700000288BD10022334608212046009500F027
:1026800040FF28B1D4F8840040F02000C4F8840052
:10269000204600F0C7FE84F8808084F88190D4F84A
:1026A000840000283FF4D8AE012093E64FF0E021EB
:1026B0000428086903D020F004000861704740F046
:1026C0000400FAE7401EB0F1807F10B501D301206D
:1026D00010BD4FF0E02460610F21601701F052FC43
:1026E0000020A06107202061002010BD70477047C6
:1026F00090F8791090F87A000843704770B5026836
:102700000446D0691368916810F00F0F64D0594DDA
:1027100003F490760D40354376D0C50707D0DD052C
:1027200005D501251562E26F42F00102E2678207DA
:1027300008D5CA0706D0256802222A62E26F42F055
:102740000402E267420708D5CA0706D025680422BA
:102750002A62E26F42F00202E26702070ED503F03E
:10276000200201F080552A4352EAC17206D0256842
:1027700008222A62E26F42F00802E267E26F002A52
:102780003AD0800608D503F0200001F080510843BC
:1027900002D0204601F0C2F8E06F000703D42068A1
:1027A000806840062AD5204601F0AAF82068816892
:1027B00049061ED5816821F040018160606FC0B17B
:1027C0002D490165606FFEF7F1F8002814D0606FA5
:1027D000016DBDE870400847850615D503F020055A
:1027E00001F0805635430FD02046BDE8704001F01F
:1027F00095B82046FFF77BFF70BD05E02046FFF748
:1028000076FF0020E067F7E7C6024FF020050CD501
:102810004E020AD5E803106284F8795084F87A50A1
:102820002046BDE87040FFF761BF06060AD503F0F9
:10283000800601F400010E4304D02046BDE870403C
:1028400001F0FCBA41060BD5590609D5116820469E
:1028500021F04001116084F8795000F005F9CBE7D0
:102860000002C9D55800C7D5106820F0804010601C
:10287000C2E7000001000010ED38000810B50400A8
:1028800003D094F8790010B107E0012010BD0020BA
:1028900084F87800204600F027F8242084F8790096
:1028A0002068016821F001010160204601F072F802
:1028B0000128EBD0606B10B1204600F085FF206846
:1028C000416821F4904141602068816821F02A012B
:1028D00081602068016841F0010101602046BDE887
:1028E000104000F0D5BF000010B5006886B01B494D
:1028F000884230D11A48016841F001010160006846
:1029000000F00100059016481030016841F01001F8
:10291000016000680121134C00F0100005904FF495
:10292000007000900220CDE9010103900720694664
:1029300004902046FEF78CF84FF480612046009109
:102940006946FEF785F82520FEF7C1F90322252008
:102950001146FEF7C9F906B010BD00000010014095
:10296000E04402580000025890F87A30202B4CD1F5
:10297000B9B1B2B190F87830012B46D0012380F87C
:1029800078304166A0F86820A0F86A20FF228168AC
:10299000B1F5805F07D07F2351B1B1F1805F0CD0DA
:1029A00010E001207047016921B940F2FF1107E0F2
:1029B000016909BBA0F86C2004E00169E1B13F2185
:1029C000A0F86C100021C167222280F87A2080F8DC
:1029D000781001688A6842F001028A6001680A681A
:1029E00092000CD50A6842F480720A60006881681F
:1029F00041F08051816006E0A0F86C30E2E70868A1
:102A000040F490700860002070470220704700007A
:102A100030B50068114988420CD1114A5088010430
:102A200008D411464FF000034404097806D50A295A
:102A300001D0538030BD40F400400DE00D2909D095
:102A4000084DC0F30D04401C80B2C72829555080A2
:102A5000EFD830BD40F48040508030BD00100140C0
:102A6000140000244C0000247047FEE7144870B5A1
:102A700086B0016841F004010160016801F00401C1
:102A80000591016841F010010160006800260325EE
:102A9000694600F01000059008200124CDE90006E9
:102AA0000848CDE90245FDF7D3FF20206946CDE96E
:102AB00000060548CDE90245FDF7CAFF06B070BD26
:102AC000E044025800100258000802582DE9F04175
:102AD0001C4C01251C4E01281C4F12D0207848B1F7
:102AE00008213046FEF7A8F868B120213846FEF7E5
:102AF000A3F840B108213046FEF79EF8012817D010
:102B00001DE02570ECE70A2001F00CFC002020708D
:102B100008213046FEF790F828B120213846FEF70C
:102B20008BF818B10BE00120BDE8F0810220FBE733
:102B300020213846FEF780F8012800D125700020BA
:102B4000F2E7000024000024001002580008025898
:102B50002DE9F0410D4F00240646214620467B8892
:102B60003A8800F0BDF93D88002178884543084641
:102B700000F0A2F900F09CFA03E0304600F042FABF
:102B8000641CAC42F9D3BDE8F08100002C020024A3
:102B90002DE9F0411E490027F0222C242A252B265E
:102BA0004FF4A07338B1012817D002284FF0010C60
:102BB0001BD0032822D08F710A804B800C81002407
:102BC0004D818E814B880A880021084600F088F9E3
:102BD0002046BDE8F04100F05DB98F710B804A805E
:102BE0000C8101244D818E81ECE781F806C00A80BA
:102BF0004B800C8102244D818E81E3E781F806C071
:102C00000B804A800C8103244D818E81DAE700001D
:102C10002C0200242DE9F0410B4C16460F460546C8
:102C2000608900F029FA284600F0ECF9A08900F04C
:102C300023FA384600F0E6F9208900F01DFA304604
:102C4000BDE8F04100F0DEB92C0200241A4810B5AE
:102C500086B0016841F00201016000686946174CC6
:102C600000F00200059041F2030000900120019065
:102C70000290032003902046FDF7EAFE0122204641
:102C80001146FDF7E2FF012220460221FDF7DDFF9C
:102C9000012220461103FDF7D8FF00F06DFBA004D0
:102CA00000F0A8FB00F00CF8012220461146FDF7C9
:102CB000CCFF06B010BD0000E044025800040258EA
:102CC00070B50A4D4FF48044002221462846FDF796
:102CD000BCFF322001F026FB012221462846FDF7E9
:102CE000B4FFBDE870401E2001F01CBB0004025878
:102CF00010B5FFF7ABFF00F07BF9322001F012FBBB
:102D0000362000F0B9F9002000F09AF93A2000F0DE
:102D1000B3F9052000F094F9B22000F0ADF90C20D1
:102D200000F08EF90C2000F08BF9002000F088F9FB
:102D3000332000F085F9332000F082F9B72000F04D
:102D40009BF9352000F07CF9BB2000F095F91920A3
:102D500000F076F9C02000F08FF92C2000F070F917
:102D6000C22000F089F9012000F06AF9C32000F0C8
:102D700083F9122000F064F9C42000F07DF92020CE
:102D800000F05EF9C62000F077F90F2000F058F946
:102D9000D02000F071F9A42000F052F9A12000F039
:102DA0004FF9E02000F068F9D02000F049F9042044
:102DB00000F046F90D2000F043F9112000F040F931
:102DC000132000F03DF92B2000F03AF93F2000F0ED
:102DD00037F9542000F034F94C2000F031F9182074
:102DE00000F02EF90D2000F02BF90B2000F028F94F
:102DF0001F2000F025F9232000F022F9E12000F047
:102E00003BF9D02000F01CF9042000F019F90C2047
:102E100000F016F9112000F013F9132000F010F95A
:102E20002C2000F00DF93F2000F00AF9442000F0BA
:102E300007F9512000F004F92F2000F001F91F20BC
:102E400000F0FEF81F2000F0FBF8202000F0F8F85A
:102E5000232000F0F5F8212000F00EF9112000F0F9
:102E60000BF9782001F05EFA292000F005F9C8205E
:102E700001F058FA0020FFF78BFE012204481146AA
:102E8000FDF7E3FEBDE810404FF6FF70FFF760BEB0
:102E900000040258002158B1012804D0022804D0AF
:102EA000032805D103E0602102E0C02100E0A02159
:102EB000362000F003B9000070B5084C0D460646F8
:102EC000608900F0D9F8304600F09CF8A08900F045
:102ED000D3F82846BDE8704000F094B82C020024D6
:102EE0002DE9F04104460E4F10448846401E86B23C
:102EF000C818401E85B2788900F0BEF8204600F060
:102F000081F8304600F07EF8B88900F0B5F8404608
:102F100000F078F82846BDE8F04100F073B80000F2
:102F20002C0200242DE9F84F1F460C4682468B46A2
:102F3000580700D00120790800EBD700203A10FB99
:102F400001F0002602F0FF09C0B2009040E00C2F13
:102F50000FD0102F11D0182F3DD1204909EBC900F7
:102F600001EB80004FF00008855D280609D50A9A1C
:102F70000BE01B4909EB4900F2E71A4901EB091084
:102F8000F0E70B9828B91848428821465046FFF7C9
:102F900041FE6806641C050E1448A4B24088A04295
:102FA00019D9A4EB0B00B84209D10AF101005C4623
:102FB0001FFA80FA0D48018851450CD906E008F146
:102FC000010000F0FF08B8F1080FCED3761CF6B26E
:102FD00000988642BBD3BDE8F88F0000145000086B
:102FE000B0450008244A0008260000242C020024D2
:102FF000012010B500F040F8BDE81040322001F08B
:1030000091B9000070B50D4E4FF480550022044672
:1030100029463046FDF719FE012230460221FDF710
:1030200014FE200A00F0D6F9E0B200F0D3F92946E8
:103030003046BDE870400122FDF707BE000402588B
:1030400070B50C4D4FF480540022064621462846A8
:10305000FDF7FBFD012228460221FDF7F6FD304673
:1030600000F0B8F921462846BDE870400122FDF77E
:10307000ECBD00000004025870B50C4E4FF48055B2
:103080000022044629463046FDF7DFFD0022304687
:103090000221FDF7DAFDE0B200F09CF92946304646
:1030A000BDE870400122FDF7D0BD000000040258C9
:1030B00001480089FFF7E0BF2C02002410B50C4640
:1030C000FFF7DAFFE0B2BDE81040FFF7B9BF00003C
:1030D0000E4810B586B0016841F00101016000683A
:1030E00069460B4C00F00100059002200090012081
:1030F00001900290032003902046FDF7A9FC0122D5
:1031000020460221FDF7A1FD06B010BDE0440258A3
:1031100000000258704770472DE9F047DFF8E4805F
:1031200004460F464FF00009D8F80000C04380075E
:1031300009D0344D283D286820F080602860FDF7D4
:1031400089FD064607E00120BDE8F087FDF782FD16
:10315000801B02284ED828680001F7D4D8F8001048
:10316000226821F47C3141EA0231C8F80010207A4B
:103170004FF4FE02A1884002491EA0F5007080B203
:10318000C1F308010843A189491E02EA014108432D
:10319000217C1202491E02EA0161084319491031DB
:1031A00008601848001D0168626921F0C0011143E0
:1031B00001600168A26921F02001114301606FB133
:1031C0000168012F0ED041F400110160286840F021
:1031D00080602860FDF73EFD04460DE0016841F483
:1031E0000021F2E741F48011EFE7FDF733FD001B0A
:1031F000022801D90320A7E728680001F5D5484631
:10320000A2E70000284402582DE9F047DFF8E480E7
:1032100004460F464FF00009D8F80000C04380076D
:1032200009D0344D283D286820F080502860FDF7F3
:1032300011FD064607E00120BDE8F087FDF70AFD15
:10324000801B02284ED828688000F7D4D8F80010D8
:10325000228821F07C7141EA0251C8F80010207ADE
:103260004FF4FE02A1884002491EA0F5007080B212
:10327000C1F308010843A189491E02EA014108433C
:10328000217C1202491E02EA0161084319491831E2
:1032900008601848001D0168626921F4406111430B
:1032A00001600168A26921F40071114301606FB1EE
:1032B0000168012F0ED041F080710160286840F054
:1032C00080502860FDF7C6FC04460DE0016841F41B
:1032D0008001F2E741F40001EFE7FDF7BBFC001BC2
:1032E000022801D90320A7E728688000F5D54846C1
:1032F000A2E700002844025808B503486946FEF7D3
:10330000BBFE009808BD00009401002438B50D46AE
:10331000044606486946FEF7AFFE009A291B491C81
:10332000B2FBF1F001FB1020204438BD94010024D1
:1033300070B5104E00240E4830603046FEF786FE11
:103340003046FEF7CCFE42F2107504E0641CA4B2D5
:103350000A2000F0F5FF30684068C043C00701D084
:10336000AC42F3D3AC4201D3012070BD002070BD4C
:10337000001802489401002410B5154C0721134889
:103380004FF0007204F1080320604FF48000606089
:10339000002083E80700521062619200A261CA0710
:1033A000606362650A07C4E907206062C4E90A0134
:1033B0002046FEF7CDFE2068016841F00101016062
:1033C000BDE81040FF2000F005B8000000380040C4
:1033D000A401002401B582B04FF47A70012300905B
:1033E00001AA034802A9FEF7D5FF9DF804000EBD0F
:1033F000A40100240A4A11680B6823F001030B6042
:1034000011688B6823F0E0438B6011688B6803437D
:103410008B601068016841F0010101607047000095
:10342000A401002410B502685169936943F00803B0
:1034300093610268936943F0100393610268136813
:1034400023F0010313600268136940F26B34A34355
:1034500013610268936823F44043936090F88120DD
:10346000042A0CD08A060AD5D0F8842042F08002C3
:10347000C0F884200268936943F02003936190F8B8
:103480008120032A1DD04A060AD5D0F8842042F0B4
:103490000402C0F884200268936943F040039361FA
:1034A000826AB2F5800F0CD10A060AD5D0F88420C2
:1034B00042F00202C0F884200268936943F080035E
:1034C00093618A050AD5D0F8842042F00102C0F841
:1034D00084200268936943F400739361C9050AD597
:1034E000D0F8841041F00801C0F8841001688A699E
:1034F00042F480728A610021A0F86210A0F86A107C
:1035000010BD2DE9F0411E4617460D468046069C2B
:103510000AE0601C08D024B1FDF79CFB801BA04290
:1035200002D90320BDE8F081D8F80000406935EAEF
:10353000000004D00020B842EBD00020F2E70120C8
:10354000F9E770472DE9F04F93B01F4615468A46BC
:1035500004468146580700D0012000EBD7000C2F0D
:1035600010FB07F0C0B2129003D0102F01D0182F1B
:103570002FD1024669462846FDF7EEF9002024E0E7
:103580001DF808600025DFF850B0300601D51C9A00
:1035900003E01D9828B9BBF8002051462046FFF7EC
:1035A00039FB7006641CA4B2060EA4EB0900B842F5
:1035B00004D10AF101004C461FFA80FA6D1CEDB2ED
:1035C000082DE2D308F10100C0B21299804688426A
:1035D000D6D313B0BDE8F08F280000242DE9FF4FAB
:1035E00083B09B460E46044680468A46DDE9107548
:1035F000002081461FE0B9F1000F22D005994FF05D
:10360000000908EB0100401BA04202DA7019444691
:1036100086B20AEB0B00401BB0420FDBDDE9120162
:103620002B463A46CDE9000131462046FFF78AFF96
:10363000601984B2BF1C3A78002ADCD107B0BDE81B
:10364000F08F802A01D90120D3E7059908EB01000A
:10365000A0EB5500A04202DA7019444686B20AEB8C
:103660000B00401BB042E9DB0D2A0DD0DDE9120151
:103670002B46CDE9000131462046FFF753FC04EB11
:10368000550084B27F1CD6E77019444686B27F1C71
:10369000F5E7000070B5284C9CB0256825F00405BE
:1036A0002560254C00260C34256845F440452560EE
:1036B000256805F440451B952568AD04FCD501241B
:1036C00000940CAD03962404019402240994CDE9DE
:1036D0000A410796082485E80D00CDE910466846A2
:1036E000FEF766FA88B93F2013900320CDE914064F
:1036F00040200101CDE91640CDE9180150201A9073
:10370000022113A8FEF7A6F810B101201CB070BD6D
:103710000A48016841F0800101600848F4300168FE
:1037200041F002010160006800F002001B90FDF70B
:1037300087F90020EAE700000C48025800440258CC
:10374000FDF78EBA1C48016841F4700101601B4905
:10375000086840F001000860184A0020103210602C
:103760000A68174B1A400A60144A18321060121D7A
:103770001060121D1060114A28321060121D106076
:10378000121D1060121D1060121D1060121D1060BD
:10379000121D1060121D10600A6822F480220A6057
:1037A00006496031086001200649C1F80801C006D9
:1037B000014980390860704788ED00E000440258F4
:1037C0007FEDF6EA0080005190F83410C90706D06A
:1037D00001684A68836B22F400321A434A6090F809
:1037E0003410890706D501684A68C36B22F4803219
:1037F0001A434A6090F83410490706D501684A68B0
:10380000036C22F480221A434A6090F834100907AE
:1038100006D501684A68436C22F400421A434A60A4
:1038200090F83410C90606D501688A68836C22F4C2
:1038300080521A438A6090F83410890606D50168D0
:103840008A68C36C22F400521A438A6090F83410DC
:10385000490611D501684A68036D22F480121A43A3
:103860004A60016DB1F5801F06D101684A68436D59
:1038700022F4C0021A434A6090F83410090606D5B3
:1038800001684A68806D22F4002202434A60704752
:10389000F8B500250446C567FDF7DCF90746206842
:1038A00000686FF07E46000708D500223B464FF4C3
:1038B00000112046009600F0FBFA60B9206800680D
:1038C00040070AD500223B464FF48001204600966F
:1038D00000F0EEFA08B10320F8BD202084F879004A
:1038E00084F87A00002084F87850F8BD10B5806B19
:1038F0000021A0F86A10A0F86210FEF7F8FE10BDD3
:1039000001680A6822F490720A6001688A6822F0ED
:1039100001028A60202180F87A10704710B5B0F853
:103920006C2090F87A300168222B05D0088B40F08B
:1039300008000883022010BD898C8368B3F5805F7E
:1039400001D103696BB11140426E531C4366117083
:10395000B0F86A10491E0904090CA0F86A1007D0D3
:1039600015E0436E11401980416E891C4166EFE7F6
:1039700001680A6822F490720A6001688A6822F07D
:1039800001028A60202180F87A10FFF741F80020B8
:1039900010BD00002DE9F04F044600688025FD4B66
:1039A0000021D4F810C087B0A6680F46D4F81C8058
:1039B00046EA0C06D4F814C0A26A4CEA080C46EA9F
:1039C0000C0632430668DFF8D0C306EA0C0616433D
:1039D000066020684268E66822F440523243426042
:1039E0002268A0699A4201D0266A3043A66AB6F1DD
:1039F000005F04D1D4E90B6C46EA0C0630439668AC
:103A0000DFF898C306EA0C06064396602068C26A8F
:103A1000666A22F00F023243C262E14E2068E14A38
:103A2000B04210D1126802F03802182A74D005DCB6
:103A3000CAB3082A7AD0102A47D179E0202A7BD04D
:103A4000282A7CD17AE0D84EB04209D1126802F01F
:103A50000702062A73D2DFE802F053696B6D6F71BB
:103A6000D24EB04209D1126802F00702062A66D28D
:103A7000DFE802F0465C5E606264CD4EB04209D180
:103A8000126802F00702062A59D2DFE802F0394F25
:103A900051535557C74EB0420BD1126802F007027E
:103AA000062A4CD200E00EE0DFE802F02A40424451
:103AB0004648C14EB04209D1126802F03802182AB5
:103AC00038D0BBDCB4E74FF0010538E0BB4EB04264
:103AD00009D1126802F00702062A30D2DFE802F0AC
:103AE0001026282A2C2EB64EB0420BD1126802F0B6
:103AF0000702062A23D2DFE802F003191B1D1F214B
:103B000000251CE098421AD1A64A121D126802F044
:103B10000702062A13D202E00CE007E00CE0DFE81F
:103B200002F0030507090B0D022508E0042506E055
:103B3000402504E0082502E0102500E02025DFF8FC
:103B400064B2A04E9842DFF880A2ABF1540B73D15F
:103B5000102D31D006DC022D09D0042D0AD0082DFD
:103B60002FD111E0202D29D0402D2AD107E0FDF7DB
:103B700007F913E06846FDF719F901980EE003A86C
:103B8000FDF792F9049809E0DBF800105846890621
:103B900010D50068C0F3C1012AFA01F0002811D045
:103BA0006168894601EB410181420AD8B0EB093FC7
:103BB00007D808E05046F3E78448F1E74FF40040A7
:103BC000EEE7012733E1102D4FF000084ED006DC60
:103BD000022D0FD0042D15D0082D04D12DE0202D5D
:103BE0004AD0402D13D00127794AA0F54071914267
:103BF00070D9E6E7FDF7C4F8626A0023414636F85B
:103C000012200DE06846FDF7D1F8019803E003A803
:103C1000FDF74AF904980023616A36F81120194625
:103C2000FCF756FB62680902030241EA1061500882
:103C3000181841EB080115E032E0DBF80010584697
:103C4000890609D500680023C0F3C1012AFA01F0F2
:103C5000616A36F8112015E0606A002336F81020FA
:103C600050460FE00023FCF733FBBDE7606A0023FA
:103C700036F81020554805E0606A002336F8102019
:103C80004FF400400021FCF723FB0902020241EA45
:103C900010614FEA590010184A4641EB0801E1E76C
:103CA000E3694FF4004293424DD1082D23D005DC47
:103CB0008DB1012D12D0042D06D112E0102D35D07A
:103CC000202D3AD0402D11D0012721F00F00C1F353
:103CD000420108435AE0FDF7C3FE16E0FDF7D6FEA9
:103CE00013E06846FDF762F801980EE003A8FDF7BF
:103CF000DBF8049809E0DBF800105846890608D57F
:103D00000068C0F3C1012AFA01F0616A36F81110A7
:103D100010E0606A36F81010BAFBF1F041006068FC
:103D200001EB5001B1FBF0F081B2CEE7606A36F8EA
:103D300010102648B0FBF1F0F0E7606A36F810008A
:103D4000B2FBF0F0EAE7082D4AD00ADC0DB3012DF2
:103D500043D0042D7FF44DAF6846FDF727F8019856
:103D600009E0102D52D0202D55D0402DF2D103A8BE
:103D7000FDF79AF80498616A36F81110B0FBF1F17A
:103D8000606801EB5001B1FBF0F080B22168C860BF
:103D90004DE01FE0000C0058F369FFCFFFF4FF1166
:103DA00000100140544402580044004000480040C4
:103DB000004C0040005000400014014000780040DA
:103DC000007C0040984500080090D00300093D00A9
:103DD000FFFC0F00FDF744FECDE7FDF757FECAE7F5
:103DE000DBF80020594692060AD50968C1F3C102E2
:103DF0002AFA02F1626A36F81220B1FBF2F20FE001
:103E0000616A36F81120BAFBF2F209E0616A36F80D
:103E100011200949F1E7616A36F81110B2FBF1F29D
:103E2000616802EB5102B2FBF1F189B2C16007B0E7
:103E30003846BDE8F08F000000093D0090F8791089
:103E4000212901D002207047B0F8621021B18168A9
:103E5000B1F5805F13D014E001680A68920004D5C0
:103E60008A6822F400028A6003E00A6822F0800275
:103E70000A600068016841F0400101600CE00169DE
:103E800061B1C16D4A1CC265026809781185B0F83C
:103E90006210491EA0F8621000207047C16D0268D0
:103EA0000988C1F308011185C16D891CC165EEE760
:103EB0002DE9F0411E46174688460446069D1CE043
:103EC000681C1AD025B1FCF7C5FE801BA84214D986
:103ED0002068016821F4D07101602068816821F0B8
:103EE00001018160202084F8790084F87A000020A4
:103EF00084F878000320BDE8F0812068C16938EAC1
:103F0000010004D00020B842DAD00020F3E70120FD
:103F1000F9E7000070B50D4D00240D48FEF7EEFBEB
:103F200002E0641CAC4204D80948FEF7E1FB2028FB
:103F3000F7D1002402E0641CAC4206D805490122F6
:103F40000348FEF711FD0028F5D170BDFFFF010009
:103F50001401002414000024FEE700000FB4084BF5
:103F600010B504A902AA039800F02CF8044602A98F
:103F7000002000F0C8F9204610BC5DF814FB0000DA
:103F8000074300080907090E002804DB00F1E020C0
:103F900080F80014704700F00F0000F1E02080F876
:103FA000141D704702E008C8121F08C1002AFAD188
:103FB00070477047002001E001C1121F002AFBD1A9
:103FC000704700002DE9FF4F8BB08846054600265C
:103FD00006E025280BD0DDE90D1290476D1C761CFC
:103FE00028780028F5D10FB03046BDE8F08F0024C6
:103FF000A146A2460122AE4900E0044315F8013F64
:10400000203B02FA03F00842F7D128782A2810D082
:104010006FF02F022878A0F13001092915D809EB9B
:10402000890102EB410144F0020400EB01096D1C1F
:10403000F0E758F8041B5FEA010903D544F4005483
:10404000C9F1000944F002046D1C28782E2817D10C
:1040500015F8010F44F004042A280ED06FF02F0247
:104060002878A0F1300109290AD80AEB8A0102EB6D
:10407000410100EB010A6D1CF2E758F804AB6D1C1E
:1040800028786C280FD006DC4C2817D068280DD073
:104090006A2814D104E0742810D07A280FD10DE0DA
:1040A00044F400140AE044F4801401E044F44014A1
:1040B0006978814202D104F580146D1C6D1C28784A
:1040C000692865D006DC00288DD0632827D06428B5
:1040D00006D15DE06E2808D073282AD0752877D0E5
:1040E000DDE90D129047761CE0E0C4F3025002288F
:1040F00009D003280DD0D8F8001004280DD00E6088
:1041000008F10408D2E0D8F80010F217C1E9006203
:10411000F6E7D8F800100E80F2E70E70F0E718F816
:10412000041B8DF8001000208DF80100EB460120E3
:1041300003E058F804BB4FF0FF3061074FF0000771
:1041400001D40AE07F1C57450DDA8742FADB1BF8E1
:1041500007100029F6D106E07F1C8742FCDB1BF824
:1041600007100029F8D1DDE90D23A9EB07008146EE
:10417000214600F0B1F83044C61904E0DDE90D1223
:104180001BF8010B90477F1EF8D22146484688E075
:1041900058F8040BC4F302514FF00A0B032900D165
:1041A00000B2042900D140B2002802DA40422D2199
:1041B00002E0210505D52B218DF82410012104E012
:1041C00006E0E10710D02021F6E708AF089113E0E0
:1041D00058F8040BC4F302514FF00A0B032900D125
:1041E00080B2042900D1C0B20021EEE75946FCF7A5
:1041F000A0F8303107F8011D0028F7D1ADEB07001A
:1042000000F1200B600702D524F4803401E04FF068
:10421000010ADA4502DDAAEB0B0000E0002082462D
:1042200000EB0B0108980144A9EB01000A90E003A0
:1042300006D4DDE90D2321460A9800F04DF8064426
:104240004FF0000908E009A911F80900DDE90D1295
:10425000904709F10109761C08998945F3DBE003D1
:104260000CD5DDE90D2321460A9800F035F8064407
:1042700004E0DDE90D1230209047761CBAF1000110
:10428000AAF1010AF5DC05E0DDE90D1217F8010BD2
:104290009047761CBBF10001ABF1010BF4DC0A98EE
:1042A0002146DDE90D2300F005F806446D1C97E674
:1042B000092801002DE9F041044600251E46174655
:1042C000880404D405E039462020B0476D1C641EE4
:1042D000F9D52846BDE8F0812DE9F04104460025D6
:1042E0001E469046C80301D5302700E020278804E9
:1042F00004D505E041463846B0476D1C641EF9D52B
:104300002846BDE8F0810A68531C0B6010707047A6
:1043100010B504460420FEF7C9F90148046010BD39
:104320001000002470B5002405464FF47A7603E0AF
:10433000304600F005F8641CAC42F9D370BD0000B3
:1043400070B54FF0E02500216C69094AAB6912682D
:104350005043AA699A42FCD002D2A3EB020302E0C6
:10436000A4EB02063344194413468142F1D370BDD5
:1043700010000024FCF726F8FCF77AFC0423022244
:104380000521A020FFF786F94FF4C870FFF7C0FFA2
:104390004FF4E13000F0DCF8FEF79AFEFEF766FB22
:1043A000FEF7A6FCFCF78EF94FF6FF70FEF7D0FB88
:1043B00010214FF47846084635A33246FCF7AEF894
:1043C0001F222021102037A3FCF7A8F81F2230213C
:1043D00039A30BE01F22402110203CA3FCF79EF8DC
:1043E000C820FFF79FFF1F2250213CA31020FCF79D
:1043F00095F8FEF79DFF0028ECD11F2240211020E8
:104400003AA3FCF78BF81F22502110203BA3FCF7A6
:1044100085F81F22802110203CA3FCF77FF8404C38
:1044200014250020FEF752FB022860700FD10020F7
:104430006070FEF761FF60603AA102463E48FFF7F8
:104440008DFD3D4B602110203246FCF767F8207847
:10445000B0FBF5F105FB110098B938480221FCF7D3
:10446000F0FB09210020FEF751FF82B2324834A14F
:104470006280FFF773FD304B942110203246FCF729
:1044800063F80A20FFF74EFF2078401C2070C8E731
:10449000202053544D3332483720524E472020209D
:1044A000200000002020C7B6C8EBCABDBFAAB7A233
:1044B000CDF82020200000006D63756465762E74B1
:1044C000616F62616F2E636F6D0000002020524E9D
:1044D00047204572726F722120000000524E472023
:1044E000547279696E672E2E2E000000524E4720BE
:1044F0005265616479212020200000004B4559322B
:104500003A4765742052616E646F6D0052616E644B
:104510006F6D204E756D5B302D395D3A00000000E7
:104520000000002452616E646F6D2D333262697435
:104530003A202531317500002C000024000002587B
:1045400052616E646F6D2D386269743A2025750072
:104550000B490A4A10B5C1E9002000208860C860F4
:10456000086188610C2048610846FEF787F9BDE8BC
:104570001040044901220248FEF7F6B9001001403C
:1045800014010024140000240000000001020304B0
:1045900001020304060708090100020004000600E6
:1045A00008000A000C0010002000400080000001FC
:1045B00000000000000000000000000000000000FB
:1045C0003F400000000000000000300040003000CC
:1045D0004000000009000BC03D000BC03D00090079
:1045E00018C024407FE0224031800000180024C021
:1045F0001B000D803240018003801C4027401C803E
:1046000007400040100060000000000000000000B3
:104610000000000000001F802040402000004020DB
:1046200020401F8000000000090006001F800600D7
:1046300009000000040004003F80040004000000A2
:1046400000100060000000000000000004000400F2
:10465000040004000400000000000040000000000E
:1046600000000000002001C00600380040000000EB
:104670001F802040204020401F800000000010408C
:104680003FC000400000000018C0214022402440EC
:104690001840000010802040244024401B8000006F
:1046A00002000D0011003FC0014000003C8024408A
:1046B00024402440238000001F80244024403440B4
:1046C000038000003000200027C0380020000000D8
:1046D0001B802440244024401B8000001C0022C07A
:1046E000224022401F80000000000000084000001F
:1046F0000000000000000000046000000000000056
:10470000000004000A001100208040400900090058
:10471000090009000900000000004040208011004D
:104720000A000400180020002340240018000000A4
:104730001F802040274029401F400000004007C044
:1047400039000F0001C0004020403FC024402440F9
:104750001B8000001F80204020402040308000004F
:1047600020403FC0204020401F80000020403FC02C
:1047700024402E4030C0000020403FC024402E0086
:10478000300000000F0010802040224033800200E3
:1047900020403FC0040004003FC020402040204093
:1047A0003FC02040204000000060202020203FC06B
:1047B0002000200020403FC024400B0030C020409B
:1047C00020403FC020400040004000C03FC03C00AF
:1047D00003C03C003FC0000020403FC00C4023000D
:1047E0003FC020001F802040204020401F8000004C
:1047F00020403FC024402400180000001F802140BA
:10480000214020E01FA0000020403FC0244026009F
:1048100019C0004018C024402440224031800000CC
:10482000300020403FC020403000000020003F808A
:10483000004000403F80200020003E0001C00700F3
:1048400038002000380007C03C0007C038000000D6
:10485000204039C0060039C0204000002000384008
:1048600007C0384020000000304021C026403840BA
:1048700020C00000000000007FE040204020000039
:10488000000070000C000380004000000000402089
:1048900040207FE0000000000000200040002000D9
:1048A00000000000001000100010001000100010A8
:1048B0000000000040000000000000000000028036
:1048C0000540054003C0004020003FC004400440B4
:1048D0000380000000000380044004400640000004
:1048E00000000380044024403FC0004000000380DB
:1048F0000540054003400000000004401FC0244064
:1049000024402000000002E005500550065004201D
:1049100020403FC00440040003C0004000000440A9
:1049200027C000400000000000100010041027E025
:104930000000000020403FC00140070004C00440C8
:10494000204020403FC000400040000007C004005D
:1049500007C0040003C00000044007C00440040076
:1049600003C00040000003800440044003800000B6
:10497000041007F00450044003800000000003808E
:104980000440045007F00010044007C00240040037
:1049900004000000000006400540054004C000007F
:1049A000000004001F800440004000000400078055
:1049B0000040044007C000400400070004C001801C
:1049C00006000400060001C0070001C00600000048
:1049D000044006C0010006C0044000000410071097
:1049E00004E00180060004000000044005C0064009
:1049F000044000000000000004007BE040200000B4
:104A0000000000000000FFF0000000000000402057
:104A10007BE0040000000000400080004000200017
:104A20002000400000000000000000000000000026
:104A3000000000000000000000001FCC000C00007F
:104A40000000000000000800300060000800300096
:104A500060000000022003FC1E20022003FC1E2038
:104A60000220000000000E1811043FFF10840C7893
:104A7000000000000F0010840F3800C00778188471
:104A80000078000000780F8410C411240E9800E410
:104A900000840008080068007000000000000000AA
:104AA0000000000000000000000007E018182004CB
:104AB00040020000000040022004181807E0000037
:104AC000000000000240024001800FF0018002401F
:104AD000024000000080008000800FF8008000800D
:104AE000008000000001000D000E0000000000002A
:104AF0000000000000000080008000800080008036
:104B0000008000800000000C000C0000000000008D
:104B10000000000000000006001800600180060090
:104B200018002000000007F008081004100408080E
:104B300007F000000000080408041FFC0004000443
:104B40000000000000000E0C10141024104411840A
:104B50000E0C000000000C1810041104110412883F
:104B60000C700000000000E00320042408241FFC57
:104B70000024000000001F98108411041104108804
:104B800010700000000007F0088811041104188854
:104B90000070000000001C00100010FC13001C003E
:104BA0001000000000000E381144108410841144DD
:104BB0000E38000000000700088C104410440888DC
:104BC00007F00000000000000000030C030C0000D0
:104BD00000000000000000000001010600000000CD
:104BE00000000000000000800140022004100808BE
:104BF00010040000022002200220022002200220D5
:104C000002200000000010040808041002200140E7
:104C10000080000000000E001200100C106C1080CC
:104C20000F00000003E00C1813E4142417C4082834
:104C300007D000000004003C03C41C40074000E40F
:104C4000001C000410041FFC1104110411040E8840
:104C50000070000003E00C18100410041004100889
:104C60001C10000010041FFC10041004100408089D
:104C700007F0000010041FFC1104110417C41004F5
:104C80000818000010041FFC1104110017C01000C8
:104C90000800000003E00C181004100410441C78F5
:104CA0000040000010041FFC10840080008010846D
:104CB0001FFC10040000100410041FFC100410045A
:104CC0000000000000030001100110011FFE100091
:104CD0001000000010041FFC110403801464181C51
:104CE0001004000010041FFC100400040004000461
:104CF000000C000010041FFC1F0000FC1F001FFC24
:104D00001004000010041FFC0C04030000E0101845
:104D10001FFC100007F00808100410041004080815
:104D200007F0000010041FFC108410801080108019
:104D30000F00000007F0081810241024101C080AA7
:104D400007F2000010041FFC1104110011C0113003
:104D50000E0C000400000E1C11041084108410447A
:104D60001C3800001800100010041FFC1004100074
:104D70001800000010001FF81004000400041004C4
:104D80001FF8100010001E0011E0001C00701380BE
:104D90001C0010001FC0103C00E01F0000E0103C91
:104DA0001FC000001004180C163401C001C01634D6
:104DB000180C100410001C00130400FC13041C0049
:104DC000100000000804101C1064108413041C045C
:104DD000101800000000000000007FFE40024002AA
:104DE00040020000000030000C0003800060001C46
:104DF0000003000000004002400240027FFE00006D
:104E000000000000000000002000400040004000C2
:104E1000200000000001000100010001000100016C
:104E200000010001000040004000200000000000E0
:104E300000000000000000980124014401440144E6
:104E400000FC000410001FFC00880104010400881D
:104E500000700000000000700088010401040104DB
:104E6000008800000000007000880104010411089F
:104E70001FFC0004000000F8014401440144014407
:104E800000C800000000010401040FFC110411041B
:104E900011001800000000D601290129012901C9CB
:104EA0000106000010041FFC008401000100010441
:104EB00000FC000400000104190419FC00040004B3
:104EC000000000000000000300010101190119FEAB
:104ED0000000000010041FFC0024004001B4010C7D
:104EE000010400000000100410041FFC0004000472
:104EF00000000000010401FC0104010001FC0104A8
:104F0000010000FC010401FC008401000100010417
:104F100000FC0004000000F8010401040104010485
:104F200000F80000010101FF008501040104008870
:104F300000700000000000700088010401040105F9
:104F400001FF00010104010401FC008401040100CF
:104F500001800000000000CC012401240124012470
:104F60000198000000000100010007F8010401049D
:104F700000000000010001F8000400040004010822
:104F800001FC0004010001800170000C00100160B0
:104F90000180010001F0010C003001C00030010C63
:104FA00001F0010000000104018C00740170018C0B
:104FB00001040000010101810171000E001801606F
:104FC0000180010000000184010C013401440184CE
:104FD000010C0000000000000000000001003EFC89
:104FE000400240020000000000000000FFFF00003F
:104FF000000000000000400240023EFC01000000F2
:1050000000000000000060008000800040004000C0
:105010002000200000000000000000000000000050
:105020000000000000000000000000000000000080
:105030000000000000000000000000000000000070
:10504000000000000000000F80380FFE380F80388D
:105050000000000000000000000000000000000050
:1050600000000100000600000C00003800003100C4
:10507000000600000C0000380000300000000000B6
:105080000000000061800067F807F980006180007F
:1050900061800061800061800067F807F98000612D
:1050A0008000000000000000000001C0E003E0F00C
:1050B0000630080418081FFFFE040E080787F003D7
:1050C00081E000000000000001F000060C00040474
:1050D00008060C7001F9C0000E00003BE000EC185F
:1050E000070808040C180003E00000000001E000BD
:1050F00007F003F818041C0804170807E1D003C0E0
:10510000E00023B0003C0800200800001000000070
:105110000000000100003100003200001C0000000F
:10512000000000000000000000000000000000007F
:10513000000000000000000000000000000000006F
:10514000000000007F0001FFC00780F00C00181075
:1051500000042000020000000000002000021000F7
:10516000040C00180780F001FFC0007F0000000061
:10517000000000000000000000000000000000002F
:105180004200006600006600003C0000180003FFBB
:10519000C0001800003C00006600006600004200ED
:1051A00000000000080000080000080000080000DF
:1051B000080001FFC0000800000800000800000807
:1051C0000000080000000000000100003100003273
:1051D00000001C00000000000000000000000000B3
:1051E00000000000000000000000000008000008AF
:1051F0000000080000080000080000080000080087
:105200000008000008000008000000000000000086
:1052100000000000380000380000380000000000E6
:10522000000000000000000000000000000000007E
:1052300000000000000600001C000070000180005B
:105240000E0000380000C0000700001C0000300005
:1052500000000000000000007F8001FFE00380707C
:1052600006001804000804000806001803807001F6
:10527000FFE0007F8000000000000000000001004F
:105280000801000801000803FFF807FFF800000804
:1052900000000800000800000000000000000001FD
:1052A000C03802C05804009804011804021804040D
:1052B00018061C1803F81801E0F8000000000000B0
:1052C00000000001C0E003C0F00400080408080466
:1052D000080806180803F41801E7F00001E00000D0
:1052E00000000000000000000300000D000011009D
:1052F00000610000810803010807FFF80FFFF800B4
:1053000001080001080000000000000000E007FCA8
:10531000D0060808061008061008061008061838F7
:10532000060FF00607C000000000000000000000AB
:105330003F8001FFE00384300208180410080410C5
:1053400008041008071810030FF00007C000000041
:1053500000000000000003C0000700000600000677
:1053600000F80607F806180006E00007000006002F
:105370000000000000000001E1E003F7F006341037
:10538000041808041808040C08040C08061618036E
:10539000F3F001C1E000000000000000F80003FC91
:1053A000300306380402080402080402080404104A
:1053B0000308F001FFC0007F0000000000000000B3
:1053C00000000000000000000000000070380070C5
:1053D00038007038000000000000000000000000ED
:1053E00000000000000000000000000000000000BD
:1053F000301A00301C000000000000000000000017
:105400000000000000000000000000080000140080
:1054100000220000410000808001004002002004C2
:10542000001008000800000000000000210000211A
:1054300000002100002100002100002100002100C7
:1054400000210000210000210000000000000000F9
:105450000000080008040010020020010040008045
:10546000800041000022000014000008000000003D
:1054700000000003C00004C0000400000800380859
:105480000F380808380810000C300007E00003C08F
:1054900000000000000000003F8000FFE00380707B
:1054A000020F1006708804C088048308047F8802F5
:1054B000C09003012000FE40000008000018000119
:1054C000F8003E0801C20007020007E20000FE00EB
:1054D000001FC80001F80000380000080400080799
:1054E000FFF807FFF804080804080804080804087F
:1054F0000806180803F41801E7F00001E0000000B6
:10550000000000003F8001FFE003807002001804EB
:1055100000080400080400080400100600200780AA
:10552000C000000004000807FFF807FFF8040008A7
:105530000400080400080400180200100380700131
:10554000FFE0007F8000000004000807FFF807FF6D
:10555000F8040808040808040808040808043E08B9
:10556000040008060018010060000000040008079D
:10557000FFF807FFF80408080408000408000408FE
:1055800000043E000600000600000180000000004C
:10559000000000003F8001FFE00380700600180457
:1055A00000080402080402080203F00783F0000266
:1055B0000000020004000807FFF807FFF8040808CD
:1055C00000080000080000080000080004080807A0
:1055D000FFF807FFF80400080000000000000400C6
:1055E0000804000804000807FFF807FFF804000893
:1055F0000400080400080000000000000000000093
:10560000000600000700000104000104000104007E
:105610000307FFFE07FFFC04000004000004000075
:1056200004000807FFF807FFF8040C080018000042
:105630003E0004C7800503C80600F80400380400D3
:105640001800000804000807FFF807FFF804000826
:105650000000080000080000080000080000080022
:10566000001800006000000004000807FFF8078031
:105670000807FC00007FC00003F80007C0007800A6
:1056800007800807FFF807FFF80400080400080770
:10569000FFF807000803C00000E000003800001E0B
:1056A000000007000001C00400F007FFF80400003C
:1056B000000000007F8001FFE003807006001804F6
:1056C000000804000806001803003001FFE0007F16
:1056D0008000000004000807FFF807FFF804040832
:1056E000040400040400040400040400060C000385
:1056F000F80001F000000000000000007F8001FFC2
:10570000E00380700600880400880400C806003C9E
:1057100003003E01FFE6007F84000000040008074C
:10572000FFF807FFF8040808040800040C00040F41
:1057300000040BC00610F003F03801E00800000878
:1057400000000001E0F803F03006301004180804EF
:105750001808040C08040C080206180207F0078158
:10576000E0000000018000060000040000040000CA
:1057700004000807FFF807FFF8040008040000040D
:10578000000006000001800004000007FFE007FFA2
:10579000F0040018000008000008000008000008DD
:1057A00000000804001007FFE004000004000006E9
:1057B000000007E00007FE00041FE00001F8000001
:1057C000380001E0043E0007C000060000040000AD
:1057D00004000007E00007FFC0041FF80007C0072F
:1057E000F80007FF80043FF80007C004F800070036
:1057F0000004000000000004000806001807C0783C
:1058000005F1C8003E00001F800463E80780F80629
:1058100000180400080000000400000600000780D3
:105820000007E008047C08001FF80007F8001808CB
:1058300004E008070000060000040000000000016A
:1058400000080600380400F80403E8040F08047C8C
:105850000805F00807C008070018040060000000F1
:105860000000000000000000000000000000003FF9
:10587000FFFE200002200002200002200002200083
:105880000200000000000000000008000007000007
:1058900000C0000038000006000001C00000300019
:1058A000000E0000010000000000000000002000C9
:1058B000022000022000022000022000023FFFFE22
:1058C00000000000000000000000000000000000D8
:1058D0000000000000080000100000300000200060
:1058E0000030000010000008000000000000000070
:1058F00000000100000100000100000100000100A3
:105900000001000001000001000001000001000092
:105910000100000100000000000000000020000065
:105920002000001000001000000000000000000037
:1059300000000000000000000000000000F000195E
:10594000F8001B1800220800260800240800241074
:10595000003FF8001FF800000800001800000004D5
:10596000000007FFF80FFFF00018180010080020D3
:1059700008002008003018001FF0000FC0000000D1
:105980000000000007C0001FF000183000200800D1
:105990002008002008003C08001C100000600000E7
:1059A000000000000000000007C0001FF0003818D1
:1059B00000200800200800200804101007FFF80F3E
:1059C000FFF00000100000000000000000000007D1
:1059D000C0001FF000123000221800220800220828
:1059E000003208001E10000E200000000000000021
:1059F000200000200800200801FFF803FFF806201F
:105A0000080420080420080720000300000000000C
:105A100000000000000E000E6E001FF30031B10008
:105A200020B10020B1003191001F13002E1E002074
:105A30000E00300000000004000807FFF80FFFF818
:105A4000001008002000002000002008003FF8009F
:105A50001FF8000008000000000000000000002007
:105A600008002008002008063FF8063FF80000085C
:105A70000000080000080000000000000000000016
:105A800000000000030000030020010020010020AE
:105A900003063FFE063FFC0000000000000000007F
:105AA00000000004000807FFF80FFFF8000188005D
:105AB0000300002FC00038F8002038002008000044
:105AC00008000000000000000000040008040008B6
:105AD00004000807FFF80FFFF800000800000800A6
