:020000040800F2
:10000000104F0424BD0200085D3200087B2B00085D
:10001000C9020008C90300081D4B000800000000C9
:100020000000000000000000000000000741000880
:100030007B060008000000005F320008054300084E
:10004000D7020008D7020008D7020008D70200082C
:10005000D7020008D7020008D7020008D70200081C
:10006000D7020008D7020008D7020008D70200080C
:10007000D7020008D7020008D7020008D7020008FC
:10008000D7020008D7020008D7020008D7020008EC
:10009000D7020008D7020008D7020008D7020008DC
:1000A000D7020008D7020008D7020008D7020008CC
:1000B000D7020008D7020008D7020008D7020008BC
:1000C000D7020008D7020008D7020008D7020008AC
:1000D000D7020008D94A0008D7020008D702000852
:1000E000D7020008D702000800000000D70200086D
:1000F000D7020008D7020008D7020008D70200087C
:10010000D7020008D7020008D7020008D70200086B
:10011000D7020008D7020008D7020008D70200085B
:10012000D7020008D7020008D7020008D70200084B
:10013000D7020008D7020008D7020008D70200083B
:1001400000000000000000000000000000000000AF
:10015000D7020008D7020008D7020008D70200081B
:10016000D7020008D7020008D7020008D70200080B
:10017000D7020008D7020008D7020008D7020008FB
:10018000D7020008D7020008D7020008D7020008EB
:10019000D7020008D7020008D7020008D7020008DB
:1001A000D7020008D7020008D7020008D7020008CB
:1001B000D7020008D7020008D7020008D7020008BB
:1001C000D7020008D7020008D7020008D7020008AB
:1001D000D7020008D7020008D7020008D70200089B
:1001E000D7020008D7020008D7020008D70200088B
:1001F000D7020008D7020008D7020008D70200087B
:10020000D7020008D7020008D7020008D70200086A
:10021000D7020008D7020008D7020008D70200085A
:10022000D7020008D7020008D7020008000000002B
:10023000D7020008D702000800000000D70200081B
:10024000D7020008D7020008D7020008D70200082A
:10025000D7020008D7020008D7020008D70200081A
:10026000D7020008D7020008D7020008D70200080A
:10027000D7020008D7020008D702000800000000DB
:10028000D702000800000000D702000800000000AC
:1002900000000000D7020008DFF80CD000F082F860
:1002A000004800472D570008104F042430BF72B695
:1002B000704762B6704780F30888704706488047E9
:1002C00006480047FEE7FEE7FEE7FEE7FEE7FEE73B
:1002D000FEE7FEE7FEE7FEE7094300089902000893
:1002E0002DE9F05F0546002092469B46884606466B
:1002F000814640241BE0284641464746224600F0FE
:1003000041F853465A46C01A914110D31146184637
:10031000224600F028F82D1A67EB01084F462246C6
:100320000120002100F01FF817EB00094E41201EAC
:10033000A4F10104DFDC484631462A464346BDE8C5
:10034000F09F40EA01039B0703D009E008C9121F90
:1003500008C0042AFAD203E011F8013B00F8013B7F
:10036000521EF9D27047202A04DB203A00FA02F12B
:10037000002070479140C2F1200320FA03F3194393
:1003800090407047202A04DB203A21FA02F0002135
:10039000704721FA02F3D040C2F120029140084395
:1003A00019467047064C074D06E0E06840F001032F
:1003B00094E8070098471034AC42F6D3FFF770FF7B
:1003C000047E0008247E0008FEE70000F0B5BFF3BD
:1003D0004F8FBFF36F8F1D4900200860BFF34F8F11
:1003E000BFF36F8F1A4C216841F400312160BFF3D5
:1003F0004F8FBFF36F8F164970310860BFF34F8F77
:10040000081F006843F6FF75104E1036C0F34E31DA
:10041000C0F3C90305EA4112184642EA8077376003
:10042000401EFAD2491EF5D2BFF34F8F206840F428
:1004300080302060BFF34F8FBFF36F8F03484C3085
:10044000016841F004010160F0BD000050EF00E0E0
:1004500014ED00E0084A00204FF4803102E0536BB5
:100460001B0602D4491EFAD200E011B10349916380
:10047000704703207047000000700052FF0FE01F1C
:100480000E4A10B5516B11F0450FFBD00C4B4C07C9
:1004900004D5042090639363032010BDC90702D0E4
:1004A0000120906310BD1169814201D0102010BD60
:1004B0009363506900F0080010BD00000070005206
:1004C000FF0FE01F10B50F4C00204FF480320BE0FF
:1004D000616B11F0450F07D00AB14A0707D5A16B30
:1004E000032041F004010AE0521EF1D2F5E7C907EA
:1004F00004D0A16B012041F00101A1630249A16375
:1005000010BD000000700052FF0FE01F0849486B4B
:1005100010F0450FFBD0400705D5886B40F0040074
:1005200088630320704703488863002070470000F9
:1005300000700052FF0FE01F30B5174B054600203A
:100540005A6B12F0450FFBD0540705D5986B40F05D
:1005500004009863032030BDD20705D0986B40F0AB
:1005600001009863012030BD1A69AA420ED10B4ADE
:100570009A635A6912F4604F03D0910404D5132092
:1005800030BD120C0A8030BD510401D5102030BDA1
:100590001104FCD50F2030BD00700052FF0FE01F8A
:1005A00010B50E4C00204FF480320BE0616B11F05F
:1005B000450F07D00AB14A0707D5A16B032041F0C8
:1005C000040108E0521EF1D2F5E7490604D5A16BFB
:1005D000002041F04001A16310BD000000700052F6
:1005E0002DE9F0430D4F00241D46164688468146EE
:1005F00004EB041017F81010B14209D107EB4001C9
:100600004878A84204D1891C4246484600F02AF89E
:10061000641CA4B2382CEBD3BDE8F0834873000807
:100620002DE9F0430E4F00241D46164688468146AC
:1006300004EB840000EB441017F81010B14209D10C
:1006400007EB40014878A84204D1891C424648463D
:1006500000F008F8641CA4B2092CE9D3BDE8F083CB
:100660001E7B0008002310B504E011F8014B5B1C51
:1006700000F8014B9342F8D310BD7047F0B51C460B
:10068000094B0A4F164685B04FF0000C10251A880A
:100690005B883F88121A5B1A8DE8F01092B29BB209
:1006A00000F0FFF905B0F0BD0045042482000024ED
:1006B0002DE9FF411C46084B1646002710251A88D5
:1006C0005B88121A5B1A8DE8F00092B29BB203F0BD
:1006D00067FDBDE8FF81000000450424F0B500245B
:1006E0000E460822074601212546102002F0E4FEAE
:1006F0001020FFF7C5FE00282ED13A040121372033
:1007000002F0DAFE3720FFF7BBFE002824D10123D8
:1007100003220821401E02F0DBFE002201213320CB
:1007200002F0CAFE3320FFF7ABFE002814D11749B0
:1007300040F22A524B6B134206D14B6B1B03F9D488
:10074000D1F88040D1F880504A6B120705D5886BEC
:1007500040F0080088630420F0BD4A6B920705D57D
:10076000886B40F0020088630220F0BD4A6B92065D
:1007700005D5886B40F0200088630620F0BD044A50
:100780008A6321BA716029BA3160F0BD00700052ED
:10079000FF0FE01F2DE9F0411546DFF85C800122D4
:1007A0000C46064640461703394600F057FB052025
:1007B00000F0D5F9032003F0EFFBC4F3074003F08A
:1007C000EBFBC4F3072003F0E7FBE0B203F0E4FB2C
:1007D000002405E0FF2003F0DFFB3055641CA4B2C9
:1007E000AC42F7D300223946404600F037FBBDE863
:1007F000F041052000F0B3B90004025830B40C46B3
:100800000178202A1AD009DC0C2A0DD0102A13D026
:10081000182A17D10C4801FB030108E0302A0FD039
:10082000402A0FD10948F6E7594301F50021204637
:1008300030BC1A46FFF7AEBF0548ECE70548EAE7CB
:100840000548E8E730BC7047001208000092080035
:1008500000080800002608000048080030B40C46D4
:100860000146007815464A78812809D3402A07D3E3
:10087000FF2A05D0FF2803D07F2A0CD2403A0BE094
:100880000022104603E0521C92B204F8010B9A4277
:10089000F9D330BC7047413A8138C0B2D1B2C0EB15
:1008A000401202EB801001EB400159430C2D0CD09B
:1008B000102D0CD0182D0DD0202DEAD101F560118E
:1008C000204630BC1A46FFF765BF044800E00448E4
:1008D0000144F5E701F5ED11F2E70000001409000D
:1008E00000DD1100AFF3008070B586B04FF6FF70E9
:1008F00002F0AEF900206C4605462554401CC0B2FB
:100900001828FAD3112220460021FFF743FF1021B7
:100910006B464FF4784608463246FFF7AFFE00209C
:100920002554401CC0B21828FAD308226846142166
:10093000FFF730FF20216B4610203246FFF79EFE66
:1009400000202554401CC0B21828FAD3082268465B
:100950001E21FFF71FFF30216B4610203246FFF7A4
:100960008DFEC82004F0E2FA06B070BD2DE9F04F0C
:10097000C1B01C4616460D4682468946580701D02E
:10098000012100E0002101EBD40061080C2C10FBD8
:1009900001F0834609D0102C07D0182C05D0202C4C
:1009A00003D0302C01D0402C2DD10346224669467D
:1009B0003046FFF723FF002022E01DF808700026D4
:1009C000380601D54A9A02E04C9820B94B9A29463C
:1009D000504602F09FF978066D1CADB2070EA5EBEC
:1009E0000900A04205D10AF101004D461FFA80FA24
:1009F00003E0761CB6B2082EE2D308F1010080B203
:100A000058458046D9D341B0BDE8F08F2DE9F04F6D
:100A1000A1B01F4615460C4682468946580701D0AC
:100A2000012100E0002101EBD7000C2F10FB07F0A3
:100A3000834605D0102F03D0182F01D0202F2DD1A1
:100A400003463A4669462846FFF708FF002022E0A1
:100A50001DF808600025300601D52A9A02E02C987E
:100A600020B92B9A2146504602F054F97006641CB6
:100A7000A4B2060EA4EB0900B84205D10AF10100A8
:100A80004C461FFA80FA03E06D1CEDB2082DE2D34C
:100A900008F10100C0B258458046D9D321B0BDE865
:100AA000F08F2DE9FF4F83B09B460E4604468046EB
:100AB0008A46DDE910750020814620E0B9F1000F7B
:100AC00023D005994FF0000908EB0100401BA0421C
:100AD00002DA7019444686B20AEB0B00401BB042A2
:100AE00010DB12AB93E807002B468DE807003A466F
:100AF00031462046FFF78AFF601984B2BF1C387860
:100B00000028DBD107B0BDE8F08F802801D9012093
:100B1000D2E7059A08EB0201A1EB5501A14202DAE6
:100B2000711944468EB20AEB0B01491BB142E9DB55
:100B30000D280FD012AB93E807002B468DE8070075
:100B40003A4631462046FFF711FF04EB550084B2C8
:100B50007F1CD4E77019444686B27F1CF5E700225B
:100B600006E00021491CC9B26429FBD3521CD2B251
:100B70008242F6D3704770B4164602781D46437819
:100B8000812A0C4610D3402B0ED3FF2B0CD0FF2A0A
:100B90000AD00C2D11D0102D11D0182D0DD13146A9
:100BA000204670BCFFF73CBD0021084603E0491C0D
:100BB00004F8010BC9B2B142F9D370BC7047314699
:100BC000204670BCFFF70CBD10B528B190F8351069
:100BD000022903D080214165012010BD1D4A4FF438
:100BE000956301688C189C4207D8042280F8352050
:100BF000086820F00100086029E00C6824F00E0469
:100C00000C6001680A440A6822F001020A60016E61
:100C10000A6822F480720A6090F85C30012202FABD
:100C200003F10D4B1960D0E919134B60C16E31B15E
:100C30000B6823F480730B60D0E91C134B60002118
:100C400080F8341080F83520016D01B1884700200C
:100C500010BD0000F0FFFDBF0454025802480168B7
:100C600041F0010101607047200400582DE9F84F60
:100C70006C4C00224FF0B04A4FF0010B4FF0030EC6
:100C80004FF00F090B680BFA02F73B40BB4270D1E3
:100C90004D68022D01D0122D12D1D50800EB850C24
:100CA000DCF820605507ED0E09FA05F826EA08067B
:100CB000D1F8108008FA05F848EA0608CCF8208038
:100CC000D0F80080560091F804C00EFA06F50CF03A
:100CD000030C28EA05080CFA06FC4CEA080CC0F8DC
:100CE00000C0D1F804C0BCF1010F08D0BCF1020F64
:100CF00005D0BCF1110F02D0BCF1120F16D1D0F803
:100D000008C0D1F80C802CEA050C08FA06F848EA6D
:100D10000C08C0F80880D0F804C02CEA070C0F7942
:100D2000C7F30017974047EA0C074760C768AF430F
:100D30008D68B5403D43C5604D68ED006BD53A4DBB
:100D40002E6846F002062E602D6822F0030606F19A
:100D5000B04605F002050095D6F808C495072F0F98
:100D600009FA07F52CEA050C304DA84202D10025FE
:100D70002EE050E02E4DA84201D1012528E02D4D56
:100D8000A84201D1022523E02B4DA84201D1032521
:100D90001EE02A4DA84201D1042519E0284DA842A1
:100DA00001D1052514E0274DA84201D106250FE009
:100DB000254DA84201D107250AE0244DA84201D1C2
:100DC000082505E0224DA84201D1092500E00A25A9
:100DD000BD4045EA0C05C6F8085425684E689D4399
:100DE000F60300D51D43256065684E689D43B60334
:100DF00000D51D436560DAF8005056464F689D43A4
:100E0000FF0200D51D43356075684F689D43BF02E2
:100E100000D51D437560521C102AFFF433AFBDE8A6
:100E2000F88F000080000058F44402580000025877
:100E30000004025800080258000C02580010025822
:100E40000014025800180258001C025800200258D2
:100E50000024025842694A40426170470AB1018346
:100E60007047418370470000014880687047000068
:100E700014000024024881680278114481607047A0
:100E800014000024032010B500F058F80F2000F0E3
:100E900007F808B1012010BD00F022F8002010BDB5
:100EA00070B50D4D04464FF47A712878B1FBF0F01F
:100EB0000A490968B1FBF0F001F08CFC48B9102C2C
:100EC00007D200222146501E00F018F800206C6066
:100ED00070BD012070BD000014000024000000243B
:100EE0007047002809DB012100F01F0291404009F2
:100EF000800000F1E020C0F8001170470E4BF0B404
:100F00001B68C3F30223C3F10704042C00D9042493
:100F10001D1D072D01D2002300E0DB1E012606FA6D
:100F200004F56D1E0D409D409E40761E164045EA1C
:100F30000601F0BC03F018BE0CED00E0064A00F01C
:100F4000070110684FF6FF03184040EA01200349EB
:100F500008431060704700000CED00E00000FA0547
:100F600010B500F0B3FE084909684FF4807292FA98
:100F7000A2F201F47061B2FA82F2D140034A515CEC
:100F8000C8400349086010BD18440258185B0008A7
:100F90000000002410B500F053FE07490968102234
:100FA00092FAA2F201F07001B2FA82F2D140034A41
:100FB000515CC84010BD000020440258185B000876
:100FC000364930B50A68096812F00302344BC1F3A0
:100FD00005311B68334C03F010032468DFED320A3F
:100FE000B7EE001AC4F3CC0414FB03F300EE103A7E
:100FF0002E4BB8EE400A07D02D4C012A01D0022A10
:101000004AD0B4FBF1F10BE0244C283C2268950651
:10101000284A03D52468C4F3C104E240B2FBF1F1CD
:1010200001EE901A1968B8EE612AC1F3080101EEC9
:10103000901A1968F8EE611A40EE201A31EE810A12
:1010400022EE000AC1F34621491C00EE901AF8EE88
:10105000600A80EE201AFCEEC10AC0ED000A196891
:10106000C1F30641491C00EE901AF8EE600A80EECA
:10107000201AFCEEC10AC0ED010A1968C1F306612D
:10108000491C00EE901AF8EE600A80EE201ABCEEC1
:10109000C10A80ED020A30BD074ABFE72844025862
:1010A0002C4402583C44025800000039384402588D
:1010B00000093D000090D00340787D01364930B5ED
:1010C0000A68096812F00302344BC1F305511B682A
:1010D000334C03F480732468DFED320AB7EE001A54
:1010E000C4F3CC0414FB03F300EE103A2E4BB8EE1D
:1010F000400A07D02D4C012A01D0022A4AD0B4FB65
:10110000F1F10BE0244C283C22689506284A03D5CF
:101110002468C4F3C104E240B2FBF1F101EE901A7D
:101120001968B8EE612AC1F3080101EE901A196836
:10113000F8EE611A40EE201A31EE810A22EE000A22
:10114000C1F34621491C00EE901AF8EE600A80EEC9
:10115000201AFCEEC10AC0ED000A1968C1F306416D
:10116000491C00EE901AF8EE600A80EE201AFCEEA0
:10117000C10AC0ED010A1968C1F30661491C00EEFD
:10118000901AF8EE600A80EE201ABCEEC10A80EDDB
:10119000020A30BD074ABFE7284402582C440258CF
:1011A00044440258000000394044025800093D0000
:1011B0000090D00340787D012DE9F84F0446006887
:1011C00000252E46010104F12400FE4FDFF8F883CC
:1011D00000901DD5606E50B1B0F5801F0CD0B0F5F9
:1011E000001F0ED0B0F5401F1DD001250FE038685C
:1011F00040F40030386016E00221201D02F030F883
:1012000003E00098022102F0A3F805000BD02E465F
:101210002088C00523D5606D05281ED2DFE800F0C8
:101220000C11161B1B00D8F80010626E21F440113F
:101230001143C8F80010EBE7386840F4003038601C
:1012400009E00021201D02F00BF803E000980021C6
:1012500002F07EF805466DB100E001252E4320889E
:10126000800528D5A06D80281ED00CDC90B14028C8
:101270000ED114E0D8F80010626D21F0070111437F
:10128000C8F80010EBE7C02813D0B0F5807F10D06D
:1012900001250FE0386840F40030386009E0002193
:1012A000201D01F0DDFF03E00098002102F050F85E
:1012B000054685B12E432088DFF8109340052CD5D4
:1012C000D4F8A400B0F5800F20D00DDCA0B1B0F5AB
:1012D000001F0FD115E0D8F80010A26D21F4E071C5
:1012E0001143C8F80010E6E7B0F5C00F13D0B0F511
:1012F000000F10D001250FE0386840F4003038604E
:1013000009E00021201D01F0ABFF03E0009800215F
:1013100002F01EF8054675B12E43208800052DD534
:10132000D4F8A800B0F1007F21D00EDCA8B1B0F154
:10133000807F10D116E0D9F80010D4F8A42021F451
:1013400060011143C9F80010E7E7B0F1407F13D006
:10135000B0F1806F10D001250FE0386840F4003004
:10136000386009E00021201D01F07AFF03E00098B9
:10137000002101F0EDFF05466DB12E43206880018C
:101380001FD5A06CD8B110280FD0202812D030283B
:1013900015D0012514E0D9F80010D4F8A82021F0C8
:1013A000E0611143C9F80010E8E7386840F4003004
:1013B000386004E00221201D01F052FF05466DB1A6
:1013C0002E432088C0042BD5E06DB0F5005F20D0FF
:1013D0000DDCA0B1B0F5805F0FD115E07A48001F99
:1013E0000168A26C21F0300111430160E9E7B0F51A
:1013F000405F13D0B0F5804F10D001250FE0386862
:1014000040F40030386009E00021201D01F028FF81
:1014100003E00098002101F09BFF054685B12E43B3
:101420002088800429D5206EB0F5403F23D010DC01
:1014300008B3B0F5803F14D0B0F5003F0FD115E0F0
:10144000D8F80010E26D21F4E0411143C8F8001013
:10145000E6E7B0F5802F0ED0B0F5A02F0BD0012518
:101460000AE00121201D01F0FBFE03E000980121AC
:1014700001F06EFF05468DB12E43208840042AD529
:10148000D4F8AC00B0F1405F23D010DC08B3B0F169
:10149000805F14D0B0F1005F0FD115E0D8F80010D4
:1014A000226E21F4E0211143C8F80010E5E7B0F105
:1014B000804F0ED0B0F1A04F0BD001250AE00121E2
:1014C000201D01F0CDFE03E00098012101F040FF56
:1014D00005466DB12E43208800041FD5E06ED8B1BB
:1014E000B0F1805F0ED0B0F1005F10D0012514E0A4
:1014F000D9F80010D4F8AC2021F0E0411143C9F82C
:101500000010E8E7386840F40030386004E001215A
:10151000201D01F0A5FE05466DB12E432068C001D7
:101520001ED5606CD0B101280ED0022811D003283E
:1015300014D0012513E0D8F80010E26E21F04051DC
:101540001143C8F80010E9E7386840F4003038600B
:1015500004E00221201D01F083FE054675B12E43F3
:101560002068DFF86CB040025AD51A48016841F48F
:1015700080710160FFF778FC82460EE01248001F80
:101580000168626C21F0030111430160E8E7FFF795
:101590006BFCA0EB0A0064283AD80E480068C0052E
:1015A000F5D5B5BB094818300068B4F8B01000F4A0
:1015B000407001F44071884219D004481830016825
:1015C0000AE000002C440258504402585844025883
:1015D0001044025800480258026821F4407142F455
:1015E00080320260026822F4803202600160D4F826
:1015F000B000B0F5807F22D1FFF736FC824609E0CB
:10160000FFF732FCA0EB0A0141F28830814201D998
:10161000032504E0FE4800688007F1D57DB12E4324
:101620002078DFF8F0A3C0073CD0A06F182837D08F
:1016300025DC78B3082828D0102824D12BE0D4F852
:10164000B000C0F3012103290ED0DBF8001021F413
:101650007C51CBF80010EE480168B4F8B020C2F31A
:101660000B0211430160DBE7DBF80020EA4B22F4B8
:101670007C5203EA10100243CBF80020EBE720284D
:101680000ED028280CD001250BE00121201D01F0EF
:10169000E7FD04E004E00098012101F059FE054651
:1016A0005DB12E43207880071ED5606F062819D2C1
:1016B000DFE800F0160C11161616DAF80010A26F0B
:1016C00021F038011143CAF80010EBE70121201D79
:1016D00001F0C6FD03E00098012101F039FE054646
:1016E00075B100E001252E43207840071FD5D4F8BE
:1016F0009000062819D2DFE800F0160C1116161615
:10170000DAF80010626F21F007011143CAF80010E7
:10171000EAE70121201D01F0A3FD03E0009801216B
:1017200001F016FE05469DB100E001252E4320780C
:1017300080062BD5D4F88C00B0F1405F24D011DCAA
:1017400010B3B0F1805F15D0B0F1005F10D116E09A
:10175000D9F80010D4F8902021F007011143C9F8FE
:101760000010E4E7B0F1804F0ED0B0F1A04F0BD0E5
:1017700001250AE00021201D01F072FD03E0009820
:10178000022101F0E5FD05468DB12E43207840068B
:101790002BD5D4F89800B0F5406F24D011DC10B3ED
:1017A000B0F5806F15D0B0F5006F10D116E0DAF803
:1017B0000010D4F88C2021F0E0411143CAF8001049
:1017C000E4E7B0F5805F0ED0B0F5A05F0BD0012547
:1017D0000AE00021201D01F043FD03E000980221F2
:1017E00001F0B6FD05468DB12E43207800062BD5BD
:1017F000D4F89C00B0F5C04F24D011DC10B3B0F584
:10180000005F15D0B0F5804F10D116E0D9F8001068
:10181000D4F8982021F4E0511143C9F80010E4E70E
:10182000B0F5004F0ED0B0F5204F0BD001250AE0E7
:101830000021201D01F014FD03E00098022101F0B9
:1018400087FD054665B32E43207800070BD5D4F8F5
:101850008000B0F5805F2DD0DAF8002022F44052ED
:101860000243CAF800202078C0060BD5D4F89400B3
:10187000B0F5807F24D0D9F8002022F440720243D2
:10188000C9F80020206800032CD5D4F8A000E8B1E6
:10189000B0F5803F1FD0B0F5003F21D0012520E0FA
:1018A000D9F80010D4F89C2021F460411143C9F804
:1018B0000010C9E70098022101F04AFD0643D2E773
:1018C0000098022101F044FD0643DBE70021201DC2
:1018D00001F0C6FC03E00098022101F039FD054645
:1018E00085B12E432068400322D5D4F88400B0F59A
:1018F000801F11D0B0F5001F13D0B0F5401F15D0D8
:10190000012514E0D9F80010D4F8A02021F44031CA
:101910001143C9F80010E5E7386840F4003038603A
:1019200004E00098012101F013FD054655B12E4356
:101930002068C0031CD5E06C70B1B0F5803F10D0BA
:10194000012514E0DAF80010D4F8842021F44011C5
:101950001143CAF80010EBE7386840F400303860F3
:1019600004E00221201D01F07BFC0546C5B12E4399
:101970002068800004D50098022101F0E9FC0643AC
:10198000206880031BD5E06FB8B1B0F5807F10D020
:10199000B0F5007F11D0B0F5407F0ED001250DE0ED
:1019A0001C4808380168E26C21F480311143016061
:1019B000DEE7386840F40030386045B32E432068D5
:1019C000C00207D5D8F80000226F20F00040104375
:1019D000C8F800002068C00008D5DBF80010D4F873
:1019E000B42021F480411143CBF80010206880021C
:1019F00007D5D8F80010A26E21F080711143C8F805
:101A000000102068400014D5DBF8001006E01EE04E
:101A10007044025854440258CFFFFF0021F40041A3
:101A2000CBF80010DBF80010D4F8B8201143CBF845
:101A300000102068002806DA0A480168226D21F0AB
:101A40004051114301605EB10120BDE8F88FDAF822
:101A50000010E26F21F440711143CAF80010AEE7A4
:101A60000020F2E74C4402582DE9F047DFF8BC9122
:101A700004460E46D9F8000000F00700B0420CD230
:101A8000D9F8001021F007013143C9F80010D9F846
:101A9000000000F00700B0427ED12078DFF890818E
:101AA000800707D5D8F80010E26821F00F01114334
:101AB000C8F800102078C00762D0D8F80010A268DB
:101AC00021F470611143C8F8001059496068183951
:101AD00002281CD003281DD0096801281DD0490701
:101AE000002960DA524F083F396821F007010143AD
:101AF0003960FFF7B9F90546606841F2883102287C
:101B000013D003281ED001288A4627D034E0096864
:101B10008903E5E709688901E2E7C905E0E7FFF71E
:101B2000A3F9411B514501D923E08A463868C0F327
:101B3000C2000228F3D123E0FFF796F9411B51457B
:101B400001D916E08A463868C0F3C2000328F3D1F1
:101B500016E0FFF789F9411B51450AD83868C0F3F0
:101B6000C2000128F5D10BE0FFF77EF9411B51457A
:101B700002D90320BDE8F087386810F0380FF3D1A0
:101B8000D9F80010484601F00701B1420DD90168AB
:101B900021F00701314300E005E00160006800F03A
:101BA0000700B04201D00120E4E72078400707D5C4
:101BB000D8F80010226921F070011143C8F8001014
:101BC000207801071B4805D50168626921F0700182
:101BD000114301602178C90605D50168A26921F485
:101BE000E061114301602078800607D51149091D85
:101BF0000868E26920F070001043086000F066F8A1
:101C0000D8F800104FF4807292FAA2F201F47061D9
:101C1000B2FA82F2D140084A515CC84007490860D4
:101C20000F20FFF73DF90020A4E70000002000523C
:101C3000184402581C440258185B00080000002495
:101C400010B5FFF78DF908490968012292FAA2F24E
:101C500001F00F01B2FA82F2D140044A515CC8404F
:101C60000349086010BD000018440258185B0008C2
:101C70000400002410B5FFF7E3FF074909681022AC
:101C800092FAA2F201F07001B2FA82F2D140034A54
:101C9000515CC84010BD00001C440258185B00088D
:101CA00010B5FFF7CDFF074909684FF4807292FA2B
:101CB000A2F201F4E061B2FA82F2D140024A515C30
:101CC000C84010BD1C440258185B00083548F0B5E8
:101CD0000068364D10F03801334809D00411082946
:101CE00004D0334E10290BD018290BD02046F0BD5C
:101CF00029688906FBD52968C1F3C101C840F0BD38
:101D00003046F0BD274918310A68096812F003020D
:101D1000284BC1F305111B68274F03F001033F68EF
:101D2000DFED260AB7EE001AC7F3CC0717FB03F363
:101D300000EE103A224BB8EE400A06D0012A01D03C
:101D4000022A2BD0B4FBF1F008E02A68920603D5F2
:101D50002A68C2F3C102D040B0FBF1F001EE900A54
:101D60001868B8EE612AC0F3080001EE900A1868FE
:101D7000F8EE611A40EE201A31EE810A22EE000AD6
:101D8000C0F34620401C00EE900AF8EE600A80EE98
:101D9000201ABCEEC10A10EE100AF0BDB6FBF1F03D
:101DA000DCE70000104402580090D00300440258C1
:101DB00040787D012C440258344402580000003918
:101DC000304402582DE9F05F04460078DFF8FC83C8
:101DD00041F28839DFF8F8A3FE4DC0074ED0D8F89D
:101DE00000104046C1F3C20102291AD00068C0F3B6
:101DF000C200032805D1DAF8000000F00300022831
:101E00000FD06068B0F5803F12D010B1B0F5A02FB0
:101E100019D0286820F480302860286820F48020B9
:101E200009E02868800329D56068002874D025E07F
:101E3000286840F480302860606890B1FFF714F89B
:101E400006464F4609E0286840F480202860EFE706
:101E5000FFF70AF8801BB8427DD828688003F7D5C1
:101E60000CE0FFF701F806464F4604E0FEF7FCFFE2
:101E7000801BB842F0D828688003F7D42078D64F6A
:101E800080075AD5D8F8001040464FF47C3B11F03B
:101E9000380F13D00068C0F3C200032803D1DAF86A
:101EA000000080070AD0E068A8B3296821F0190172
:101EB00001432960FEF7D8FF06461DE02868400769
:101EC00002D5E0680028B1D02868E16820F0190048
:101ED00008432860FEF7C8FF064604E0FEF7C4FF8B
:101EE000801B0228B8D828684007F7D507E0FEF71E
:101EF000BBFF801B0228AFD828684007F7D5386899
:101F00009BFAABF220F47C312069B2FA82F2904065
:101F10000143396011E000E0AEE0286820F00100E4
:101F20002860FEF7A1FF064604E0FEF79DFF801B38
:101F3000022891D828684007F7D42078C00655D5E4
:101F4000D8F8001040464FF0F84BC1F3C201012908
:101F500017D0006800E0EDE0C0F3C200032805D10F
:101F6000DAF8000000F0030001280AD0E069002838
:101F700028682CD040F080002860FEF775FF0646E8
:101F800016E02868C00502D5E069802874D1386859
:101F90009BFAABF220F0F841206AB2FA82F290404C
:101FA0000143396022E0FEF75FFF801B022899D8C9
:101FB0002868C005F7D538689BFAABF2216AB2FAF7
:101FC00082F220F0F8409140084338600EE020F0A3
:101FD00080002860FEF748FF064604E0FEF744FF55
:101FE000801B022887D82868C005F7D4207800070E
:101FF00024D5774F60694C37002838680FD040F0FF
:1020000001003860FEF730FF064604E0FEF72CFFC3
:10201000801B02288DD838688007F7D50EE020F0A5
:1020200001003860FEF720FF064604E0FEF71CFFC3
:10203000801B02287ED838688007F7D42078800675
:1020400023D5A069002828680FD040F4805028606C
:10205000FEF70AFF064604E0FEF706FF801B022893
:1020600068D828688004F7D50FE020F480502860F5
:10207000FEF7FAFE064605E0D6E0FEF7F5FE801B09
:10208000022857D828688004F7D42078400744D520
:10209000524F386840F480703860FEF7E5FE06461F
:1020A00004E0FEF7E1FE801B642843D83868C005D1
:1020B000F7D5474FA068483701280AD008B105284E
:1020C00011D0386820F001003860386820F0040032
:1020D00002E0386840F001003860A06888B1FEF77F
:1020E000C3FE064609E0386840F004003860F0E7B7
:1020F000FEF7BAFE811B49451CD838688007F7D522
:102100000BE0FEF7B1FE064604E0FEF7ADFE811BD4
:1021100049450FD838688007F7D4606AF0B3D8F81B
:102120000010C1F3C20103297ED00228286820F0E4
:10213000807000E079E0286003D0FEF795FE044649
:1021400087E0FEF791FE064604E0FEF78DFE801B59
:1021500002287BD828688001F7D4DAF8001040F212
:10216000F3329143E26A41EA0211A26A1143CAF8CA
:10217000001094F834004FF4FE02218E4002491EF4
:10218000A0F5007080B2C1F308010843218F491EF9
:1021900002EA0141084394F83C1000E05CE0491E6B
:1021A000120202EA016108430949083108600B1D67
:1021B00019684FF6F872A06C914392FAA2F2B2FA43
:1021C00082F2904001431960014809E0104402582E
:1021D0002844025800440258044402580048025857
:1021E000001D0168226C21F00C011143016001689F
:1021F000626C21F0020111430160016841F48031F9
:102200000160016841F400310160016841F48021FE
:102210000160016841F001010160286840F08070B0
:102220002860FEF721FE01E018E00FE0044604E01C
:10223000FEF71AFE001B022808D828688001F7D58F
:102240000AE0FEF711FE001B022802D90320BDE8B8
:10225000F09F28688001F4D40020F8E70120F6E719
:102260002DE9F05F04004FF000053DD0DFF8C48198
:102270002068714E714F4045A36A06D0B04204D029
:10228000B84202D0E1680F292ED8E26B4FF0010B63
:102290000BEB521CE26802F10801C908404501FB42
:1022A0000CF105D0B04203D0B84201D008291BD8A8
:1022B000404503D0B04201D0B84201D1102913D813
:1022C0004FF480094B4512D1404507D0B04205D0AC
:1022D000B84203D0206BB0F5702F05D8256B05B937
:1022E0001504B2EB154F02D90120BDE8F09F94F818
:1022F00081004FF0000A20B9204684F880A000F049
:102300009FF8022084F881002068016821F0010113
:102310000160A069B0F1806F09D16068484506D1BD
:10232000A06B20B92068016841F480510160A16A66
:10233000E0690843E16B29430843E16808432168E9
:102340008860616A606BA2690843A16B114308430E
:102350002169084361690843216A084361680843A9
:10236000E16C0843A1680843A16C0843A16D0843D0
:102370002168C860A06A484529D1206C01282068DE
:10238000016827D021F400410160606C01282068B9
:10239000016822D021F4804101602068404506D0C8
:1023A000B04204D0B84202D0B5F5702F18D04045E5
:1023B00003D0B04201D0B84202D1B5F5F81F0FD01A
:1023C000016821F4005101602168E06A08646068D6
:1023D00050B119E041F40041D6E741F48041DBE718
:1023E000016841F40051EEE7A06A30B920688168C5
:1023F00021F4C05141F4006181602068816821F4BA
:10240000C06141F4806181602068016D21F00101AB
:1024100001656068400206D52068C168626D21F0E0
:1024200000411143C160C4F884A084F881B0002049
:102430005BE700000030014000380040003C0040F5
:10244000164800B5B5B0016841F0020101600068AE
:1024500000F00200349011480830016841F48041D6
:102460000160006800F4804034904FF48050009088
:10247000002017906846FEF79FFE4FF460402F90B3
:1024800002203090012031900320329005203390BB
:1024900003482FA9FEF7EAFB35B000BDE04402581F
:1024A000000402582DE9F84F044690F880001F46BA
:1024B00092460A9D01288B4613D04FF0010984F8FB
:1024C0008090FEF7D1FC94F8812006460020012A76
:1024D0004FF480010ED062688A4209D1A2683AB9ED
:1024E00002E00220BDE8F88F94F88120042A01D090
:1024F000022136E0BBF1000F32D0BAF1000F2FD02D
:1025000077B394F88120042A02D0052284F8812030
:102510008046C4F88400C4F864A0A4F86A70A4F8E3
:102520006870C4F85CB0A4F86270A4F860702067AA
:102530006067206842686FF30F023A434260206888
:10254000026842F0010202606068884204D120689B
:10255000016841F400710160E0680F2840D848E04C
:10256000012184F880000846BCE7B4F8620070B12D
:102570002068416989070AD5E16D09680162E06D4B
:10258000001DE065B4F86200401EA4F86200B4F8D3
:102590006A0080B12068416948F2080211420AD0FD
:1025A000006B616E0860606E001D6066B4F86A00C2
:1025B000401EA4F86A00681C12D0FEF755FC801B70
:1025C000A8420DD3204601F00FFD84F88080D4F896
:1025D000840040F48070C4F8840084F88190EBE0BB
:1025E000B4F862000028C0D1B4F86A000028BCD159
:1025F000C8E0072849D8BDE0B4F86200F0B120680F
:10260000416989071AD5B4F8621001290BD9E16B29
:1026100049B1E16D09680162E06D001DE065B4F843
:102620006200801E08E0E16D09880184E06D801C75
:10263000E065B4F86200401EA4F86200B4F86A00D5
:10264000E0B12068416911F4604F17D04169090475
:1026500009D5006B616E0860606E001D6066B4F89D
:102660006A00801E08E0008E616E0880606E801C2B
:102670006066B4F86A00401EA4F86A00681C04D0C2
:10268000FEF7F2FB801BA8429CD2B4F8620000283F
:10269000B2D1B4F86A000028AED173E0B4F8620099
:1026A00080B32068416989072CD5B4F862100329EA
:1026B0000CD9E16B402909D9E16D09680162E06D2F
:1026C000001DE065B4F86200001F19E0B4F8621064
:1026D00001290BD9E16B49B1E16D09880184E06DF5
:1026E000801CE065B4F86200801E09E0E16D0978A5
:1026F00080F82010E06D401CE065B4F86200401ED8
:10270000A4F86200B4F86A0068B32068416911F463
:10271000604F28D04169090409D5006B616E0860DB
:10272000606E001D6066B4F86A00001F19E0416920
:1027300001F4C041B1F5005F09D9008E616E0880D7
:10274000606E801C6066B4F86A00801E09E090F834
:102750003000616E0870606E401C6066B4F86A00FC
:10276000401EA4F86A00681C04D0FEF77DFB801BA5
:10277000A84289D2B4F8620000288FD1B4F86A0068
:1027800000288BD10022334608212046009501F015
:102790009AFC28B1D4F8840040F02000C4F88400EA
:1027A000204601F021FC84F8808084F88190D4F8E0
:1027B000840000283FF4D8AE012093E64FF0E021DA
:1027C0000428086903D020F004000861704740F035
:1027D0000400FAE7401EB0F1807F10B501D301205C
:1027E00010BD4FF0E02460610F21601702F0BCF9CA
:1027F0000020A06107202061002010BD70477047B5
:1028000090F8791090F87A000843704770B5026824
:102810000446D0691368916810F00F0F64D0594DC9
:1028200003F490760D40354376D0C50707D0DD051B
:1028300005D501251562E26F42F00102E2678207C9
:1028400008D5CA0706D0256802222A62E26F42F044
:102850000402E267420708D5CA0706D025680422A9
:102860002A62E26F42F00202E26702070ED503F02D
:10287000200201F080552A4352EAC17206D0256831
:1028800008222A62E26F42F00802E267E26F002A41
:102890003AD0800608D503F0200001F080510843AB
:1028A00002D0204601F01CFEE06F000703D4206830
:1028B000806840062AD5204601F004FE2068816821
:1028C00049061ED5816821F040018160606FC0B16A
:1028D0002D490165606FFEF777F9002814D0606F0D
:1028E000016DBDE870400847850615D503F0200549
:1028F00001F0805635430FD02046BDE8704001F00E
:10290000EFBD2046FFF77BFF70BD05E02046FFF7D7
:1029100076FF0020E067F7E7C6024FF020050CD5F0
:102920004E020AD5E803106284F8795084F87A5090
:102930002046BDE87040FFF761BF06060AD503F0E8
:10294000800601F400010E4304D02046BDE870402B
:1029500002F056B841060BD5590609D51168204634
:1029600021F04001116084F8795000F005F9CBE7BF
:102970000002C9D55800C7D5106820F0804010600B
:10298000C2E7000001000010B144000810B50400C7
:1029900003D094F8790010B107E0012010BD0020A9
:1029A00084F87800204600F027F8242084F8790085
:1029B0002068016821F001010160204601F0CCFD92
:1029C0000128EBD0606B10B1204601F0DFFC2068DD
:1029D000416821F4904141602068816821F02A011A
:1029E00081602068016841F0010101602046BDE876
:1029F000104001F02FBD000010B5006886B01B49E3
:102A0000884230D11A48016841F001010160006834
:102A100000F00100059016481030016841F01001E7
:102A2000016000680121134C00F0100005904FF484
:102A3000007000900220CDE9010103900720694653
:102A400004902046FEF712F94FF480612046009171
:102A50006946FEF70BF92520FEF743FA03222520ED
:102A60001146FEF74BFA06B010BD00000010014001
:102A7000E04402580000025890F87A30202B4CD1E4
:102A8000B9B1B2B190F87830012B46D0012380F86B
:102A900078304166A0F86820A0F86A20FF2281689B
:102AA000B1F5805F07D07F2351B1B1F1805F0CD0C9
:102AB00010E001207047016921B940F2FF1107E0E1
:102AC000016909BBA0F86C2004E00169E1B13F2174
:102AD000A0F86C100021C167222280F87A2080F8CB
:102AE000781001688A6842F001028A6001680A6809
:102AF00092000CD50A6842F480720A60006881680E
:102B000041F08051816006E0A0F86C30E2E708688F
:102B100040F4907008600020704702207047000069
:102B200030B50068114988420CD1114A508801041F
:102B300008D411464FF000034404097806D50A2949
:102B400001D0538030BD40F400400DE00D2909D084
:102B5000084DC0F30D04401C80B2C7282955508091
:102B6000EFD830BD40F48040508030BD00100140AF
:102B70000C000024A40000247047FEE71CB50446A6
:102B800000200090012101901648808802040D2049
:102B900000F092FC1449486B0190024601E04A6B38
:102BA000019212F0450FFAD0D00705D0886B40F0A3
:102BB0000100886301201CBD500705D5886B40F0DB
:102BC0000400886303201CBD08690D2801D0102073
:102BD0001CBD0648886348690090C0F343202070FC
:102BE00000201CBD2000002400700052FF0FE01FD9
:102BF000144870B586B0016841F0040101600168B5
:102C000001F004010591016841F0100101600068C4
:102C100000260325694600F01000059008200124D5
:102C2000CDE900060848CDE90245FEF71FF820204F
:102C30006946CDE900060548CDE90245FEF716F8DC
:102C400006B070BDE0440258001002580008025857
:102C50002DE9F0410D4F00240646214620467B8891
:102C60003A8800F0E1F93D8800217888454308461C
:102C700000F0C6F900F0C0FA03E0304600F066FA52
:102C8000641CAC42F9D3BDE8F08100000045042487
:102C90002DE9F0411E490027F0222C242A252B265D
:102CA0004FF4A07338B1012817D002284FF0010C5F
:102CB0001BD0032822D08F710A804B800C81002406
:102CC0004D818E814B880A880021084600F0ACF9BE
:102CD0002046BDE8F04100F081B98F710B804A8039
:102CE0000C8101244D818E81ECE781F806C00A80B9
:102CF0004B800C8102244D818E81E3E781F806C070
:102D00000B804A800C8103244D818E81DAE700001C
:102D1000004504242DE9F0410B4C16460F460546AC
:102D2000608900F04DFA284600F010FAA08900F002
:102D300047FA384600F00AFA208900F041FA304696
:102D4000BDE8F04100F002BA004504242DE9F0414D
:102D50005C1A151A641C069F6D1CA3B2AAB200F07F
:102D600063F90B4E308900F02BFA654300F044FA0A
:102D7000002403E0384600F0E9F9641CAC42F9D9BC
:102D80007388002132880846BDE8F04100F04CB954
:102D9000004504241A4810B586B0016841F00201CC
:102DA000016000686946174C00F00200059041F28E
:102DB0000300009001200190029003200390204620
:102DC000FDF754FF012220461146FEF747F8012285
:102DD00020460221FEF742F8012220461103FEF7A9
:102DE0003DF801F0ABF8A00401F0E6F800F00CF8B3
:102DF000012220461146FEF731F806B010BD000052
:102E0000E04402580004025870B50A4D4FF4804463
:102E1000002221462846FEF721F8322002F086F8EB
:102E2000012221462846FEF719F8BDE870401E2011
:102E300002F07CB80004025810B5FFF7ABFF00F0B9
:102E40007BF9322002F072F8362000F0B9F9002048
:102E500000F09AF93A2000F0B3F9052000F094F957
:102E6000B22000F0ADF90C2000F08EF90C2000F03B
:102E70008BF9002000F088F9332000F085F9332029
:102E800000F082F9B72000F09BF9352000F07CF9C2
:102E9000BB2000F095F9192000F076F9C02000F071
:102EA0008FF92C2000F070F9C22000F089F9012080
:102EB00000F06AF9C32000F083F9122000F064F9F1
:102EC000C42000F07DF9202000F05EF9C62000F05B
:102ED00077F90F2000F058F9D02000F071F9A42004
:102EE00000F052F9A12000F04FF9E02000F068F95D
:102EF000D02000F049F9042000F046F90D2000F040
:102F000043F9112000F040F9132000F03DF92B2087
:102F100000F03AF93F2000F037F9542000F034F97E
:102F20004C2000F031F9182000F02EF90D2000F0AF
:102F30002BF90B2000F028F91F2000F025F92320A1
:102F400000F022F9E12000F03BF9D02000F01CF95C
:102F5000042000F019F90C2000F016F9112000F0FF
:102F600013F9132000F010F92C2000F00DF93F2088
:102F700000F00AF9442000F007F9512000F004F9AC
:102F80002F2000F001F91F2000F0FEF81F2000F0B4
:102F9000FBF8202000F0F8F8232000F0F5F82120BD
:102FA00000F00EF9112000F00BF9782001F0BEFFBF
:102FB000292000F005F9C82001F0B8FF0020FFF734
:102FC00067FE012204481146FDF748FFBDE81040A6
:102FD0004FF6FF70FFF73CBE00040258002158B1C5
:102FE000012804D0022804D0032805D103E0602181
:102FF00002E0C02100E0A021362000F003B900006B
:1030000070B5084C0D460646608900F0D9F8304688
:1030100000F09CF8A08900F0D3F82846BDE8704085
:1030200000F094B8004504242DE9F04104460E4F09
:1030300010448846401E86B2C818401E85B2788962
:1030400000F0BEF8204600F081F8304600F07EF82F
:10305000B88900F0B5F8404600F078F82846BDE899
:10306000F04100F073B80000004504242DE9F84F4A
:103070001F460C4682468B46580700D0012079082F
:1030800000EBD700203A10FB01F0002602F0FF0908
:10309000C0B2009040E00C2F0FD0102F11D0182F8D
:1030A0003DD1204909EBC90001EB80004FF0000839
:1030B000855D280609D50A9A0BE01B4909EB4900F2
:1030C000F2E71A4901EB0910F0E70B9828B9184804
:1030D000428821465046FFF71DFE6806641C050E17
:1030E0001448A4B24088A04219D9A4EB0B00B842FE
:1030F00009D10AF101005C461FFA80FA0D480188E7
:1031000051450CD906E008F1010000F0FF08B8F1C4
:10311000080FCED3761CF6B200988642BBD3BDE82A
:10312000F88F0000EC650008885B0008FC5F000871
:103130008000002400450424012010B500F040F870
:10314000BDE81040322001F0F1BE000070B50D4E18
:103150004FF480550022044629463046FDF77EFE96
:10316000012230460221FDF779FE200A00F014FF0B
:10317000E0B200F011FF29463046BDE87040012260
:10318000FDF76CBE0004025870B50C4D4FF480542E
:103190000022064621462846FDF760FE0122284609
:1031A0000221FDF75BFE304600F0F6FE2146284680
:1031B000BDE870400122FDF751BE00000004025836
:1031C00070B50C4E4FF48055002204462946304617
:1031D000FDF744FE002230460221FDF73FFEE0B23B
:1031E00000F0DAFE29463046BDE870400122FDF7C6
:1031F00035BE00000004025801480089FFF7E0BF17
:103200000045042410B50C46FFF7DAFFE0B2BDE834
:103210001040FFF7B9BF00000E4810B586B0016836
:1032200041F001010160006869460B4C00F00100AB
:10323000059002200090012001900290032003904D
:103240002046FDF713FD012220460221FDF706FE70
:1032500006B010BDE04402580000025870477047A5
:103260002DE9F047DFF8E48004460F464FF00009EF
:10327000D8F80000C043800709D0344D283D2868A5
:1032800020F080602860FDF7EFFD064607E0012092
:10329000BDE8F087FDF7E8FD801B02284ED82868BE
:1032A0000001F7D4D8F80010226821F47C3141EAFB
:1032B0000231C8F80010207A4FF4FE02A1884002C3
:1032C000491EA0F5007080B2C1F308010843A1892E
:1032D000491E02EA01410843217C1202491E02EA0A
:1032E000016108431949103108601848001D016840
:1032F000626921F0C001114301600168A26921F0F7
:103300002001114301606FB10168012F0ED041F41B
:1033100000110160286840F080602860FDF7A4FD7E
:1033200004460DE0016841F40021F2E741F4801108
:10333000EFE7FDF799FD001B022801D90320A7E75D
:1033400028680001F5D54846A2E700002844025845
:103350002DE9F047DFF8E48004460F464FF00009FE
:10336000D8F80000C043800709D0344D283D2868B4
:1033700020F080502860FDF777FD064607E0012029
:10338000BDE8F087FDF770FD801B02284ED8286845
:103390008000F7D4D8F80010228821F07C7141EA2F
:1033A0000251C8F80010207A4FF4FE02A1884002B2
:1033B000491EA0F5007080B2C1F308010843A1893D
:1033C000491E02EA01410843217C1202491E02EA19
:1033D000016108431949183108601848001D016847
:1033E000626921F44061114301600168A26921F41E
:1033F0000071114301606FB10168012F0ED041F0DF
:1034000080710160286840F080502860FDF72CFD35
:1034100004460DE0016841F48001F2E741F4000147
:10342000EFE7FDF721FD001B022801D90320A7E7E4
:1034300028688000F5D54846A2E7000028440258D5
:103440003CB500210C460091019100B102241348C3
:103450004069800101D50E203CBD114D6946A88808
:1034600080B2FDF73BF90028F6D10198400313D54F
:10347000A88801210204372000F01EF83720FCF74D
:10348000FFFF0028E8D101212246062000F014F8B1
:103490000620FCF7F5FF3CBD25203CBD0070005226
:1034A00020000024034A51686FF309010143516071
:1034B0007047000000700052044B9A6000F03F001B
:1034C00040EA012040F48050D860704700700052FC
:1034D00010B5094C606221F07E40A062E06A03F002
:1034E000010120F0FF0040EA021040EA410040F0F4
:1034F0000100E06210BD0000007000520E4910B5DE
:10350000044600200978032906D019B1012901D009
:10351000022902D1022C01D3272010BDE0B2FFF70F
:103520008FFF0028F9D1054A516821F4404141EA52
:10353000843189B2516010BD200000240070005217
:103540002DE9F04783494FF0000CDFF80CA24FF053
:1035500001090B7880F856308988A0F85410DAF801
:1035600000100A0E95090570C2F38305457002F03C
:10357000030282700A0CC2700A0A02714171DAF801
:103580000420110E0C01C2F3074101F00F0844EAB8
:103590001114C480C2F3072180F80880CC0944725A
:1035A000C1F380148472C1F34014C472C1F30014D7
:1035B0000473544680F80DC0A468260EC4F3074572
:1035C000C4F3072733B1012B04D0032B02D0022B05
:1035D00030D03EE08907D2B2090D41EA820141EACA
:1035E00096120261C6F3C201017506F0070141752A
:1035F00069098175C5F38201C175A9074B0F394669
:1036000043EAD1150576AD1C09FA05F3DE17521C05
:10361000A2FB03570CFB037302FB063309FA08F203
:103620000265A5FB026703FB027205FB0C22C0E9E1
:1036300012620EE09106890A41EA062239462A43BF
:103640000261521C530BD204C0E912234FF40072E2
:103650000265C1F38012427689064A0EE1B242EA5F
:10366000D112827601F07F01C176DAF80C20110EBA
:10367000CB090377C1F341134377C1F38203890771
:1036800000F81E3F0B0FC2F3074143EA911343704A
:10369000C1F34013837001F0010180F803C0017190
:1036A000C2F30721CB094371C1F380138371C1F3C6
:1036B0004013C371C1F300130372C1F3810343725A
:1036C00001F003018172C2F34601234AC1724B46E5
:1036D000103280F80C9011680C0E84730C0CC1F33E
:1036E000072545EA042404820C0651680D0E44EABD
:1036F0000544C1F3074544EA0524C1F307252C43DB
:10370000C0F81240817591680C0EC4750C0CC1F3A1
:1037100007252406C9B244EA054444EA0124D168D5
:1037200044EA1164C0F81A40847FC1F3074244EAB6
:10373000121484771207C1F3072444EA1252028458
:10374000C1F3460180F8221080F823306046BDE8BE
:10375000F08700002000002478020024384810B5CB
:1037600086B0016841F480310160006800F4803067
:10377000059033480C30016841F004010160016894
:1037800001F004010591016841F008010160006841
:10379000694600F0080005904FF4F85000900220B0
:1037A000019001200290032003900C2004902548F2
:1037B000FDF75CFA0420009023486946FDF756FAAD
:1037C00022480021016041608160C16041628162E4
:1037D000C1621F4A8263C16331200A460221FDF79C
:1037E0008DFB3120FDF77DFB00F09CF8194C0300A8
:1037F00014D100F033F8030010D12046FFF7A0FEEB
:1038000003000BD1B4F85400000400F02DFA0300BB
:1038100004D10120FFF772FE030003D00E480078A8
:10382000032807D194F8560038B1012805D00420A8
:10383000FFF738FE06B0184610BD0620F8E7000076
:10384000D444025800080258000C0258007000527C
:10385000FF0FE01F980200242000002438B52E4CF2
:103860000120ADF80000206880071ED02B4D28787D
:1038700004284ED0002203210220FFF71DFEFCF792
:1038800021FE002812D1616925480160A1694160CB
:10389000E1698160216AC160287840B1012806D0C1
:1038A000062804D0022802D00CE0252038BD0022D2
:1038B00001210320FFF700FE03206946FCF73CFED0
:1038C0000028F3D1287803280AD1BDF8000001218F
:1038D00002040320FFF7F0FDFCF7F4FD0028E5D11A
:1038E0002878042815D0BDF8000003216860020480
:1038F0000920FFF7E1FDFCF7E5FD0028D6D161695D
:10390000074810380160A1694160E1698160216A5E
:10391000C160002038BD000000700052200000246B
:10392000880200242DE9F04FDFF8F4A000273E467E
:103930003C463D46B9465346CAF80470FA20FFF7A4
:10394000B1FD03201860002211461046FFF7B4FDB8
:10395000FCF780FD28B17F1CFFB24A2FF3D3BDE8EE
:10396000F08F01214FF4D5720820FFF7A5FDFCF779
:1039700017FEDFF8B0B020B901218BF800104FF02E
:103980008049002201213720FFF796FD3720FCF700
:1039900077FD4FF6FF78D8B1234F5646A5B336E0F2
:1039A000002201213720FFF787FD3720FCF768FD53
:1039B0000028D4D101213A462920FFF77DFDFCF7EC
:1039C000A5FD0028CBD1DAF81460F50F641C02E0E5
:1039D000164949EA01070DB94445E1D3444518D2D7
:1039E00016F0804FBBD002228BF80020B7E70121F0
:1039F0003A460846FFF760FDFCF788FD0028AED187
:103A00007169CD0F641CC9E7FFE74445EFD3444516
:103A100001D31B20A3E703218BF800109FE70000D0
:103A200000700052200000240080FF800000108001
:103A30002DE9F05FDFF874B10021DDE90A97164641
:103A400005464FF0FF34CBF82C10DFF864A19AF84C
:103A50000000022804D1560A4FF4007946EAC35602
:103A60004A4601211020FFF727FD1020FCF708FD32
:103A70005FEA000806D001464EA001F051F840462A
:103A8000BDE8F09F07FB09F1012320460922FFF75B
:103A90001FFDDBF80C10D84641F04001CBF80C10AC
:103AA000012F32464FF001010BD91220FFF704FD20
:103AB0001220FCF7E5FC06000BD043A001F030F823
:103AC00071E01120FFF7F8FC1120FCF7D9FC06008B
:103AD000D6D1FCF7ECFB444910E0D8F834000004E0
:103AE0000AD50020D8F8802045F82020401C08285E
:103AF000F8D320350C4601E0BCB1641ED8F8340080
:103B000010F4957FE9D0D8F80C0020F04000C8F8F8
:103B10000C00FCF7CEFBD8F83400000707D5D8F826
:103B2000380040F00800C8F838000420A8E7D8F8AA
:103B30003400800711D5D8F8380040F00200C8F8EA
:103B40003800012F07D9002201210C20FFF7B4FC17
:103B50000C20FCF795FC022092E7D8F83400800690
:103B600007D5D8F8380040F02000C8F83800062003
:103B700086E7D8F83400C00512D5012F10D99AF87D
:103B8000000018B1012801D0022809D1002201212A
:103B90000C20FFF791FC0C20FCF772FC0600C5D14D
:103BA0001248C8F8380030466AE70000007000523A
:103BB0002000002453444D4D435F53656E645F43C2
:103BC0006D643D25640D0A0053445F434D445F52CC
:103BD0004541445F4D554C545F424C4F434B20454B
:103BE00072726F720D0A0000FFFF7F00FF0FE01F6F
:103BF0002DE9FC5F0D461A494FF000080746404684
:103C000092460646097809B1EE0D6D02BA074FF4E7
:103C1000007119D000248346894612E00120CDE9C5
:103C20000090600242190F484BEB0603FFF700FFBC
:103C30000C4980464A463846FCF783FB641C07F56E
:103C400000775445EAD307E0CDE9001A2A46334607
:103C50003846FFF7EDFE80464046BDE8FC9F000079
:103C600020000024F002002401210246072000B5B4
:103C7000FFF722FC5DF804EB0720FCF701BC000015
:103C80002DE9F84F90460022DDE90A970400154619
:103C90008DF8002007FB09FA1ED08948C262DFF8C0
:103CA00024B29BF80000022805D14FEA58204FF4B7
:103CB000007940EAC3584A4601211020FFF7FCFB77
:103CC0001020FCF7DDFB002807D1012F2BD907FBC3
:103CD00009F0B0F1007F02D32620BDE8F88F9BF8F1
:103CE000000018B1012801D0022815D1BBF804004A
:103CF000012102043720FFF7DFFB3720FCF7C0FB70
:103D00000028EAD101213A461720FFF7D5FB1720FA
:103D1000FCF7B6FB0028E0D1012142461920FFF74D
:103D2000CBFB19202BE0BBF80400012102040D207D
:103D3000FFF7C2FB0D20FCF7A3FB0028CDD16049A3
:103D400048694FF0FF360EE0BBF804000121761EF3
:103D500002040D20FFF7B0FB0D20FCF791FB0028BB
:103D6000BBD157484069C00502D4002EECD11DE0FC
:103D7000E6B1012142461820FFF79EFB1820FCF710
:103D80007FFB0028A9D1461E07FB09F1002330461E
:103D90000922FFF79DFBDFF82881D8F80C1041F0CD
:103DA0004001C8F80C10FCF782FA27E0292094E7BC
:103DB000D8F8340040041FD5AAEB050020280ED205
:103DC00081074FEA900100D0491C002004E004CC98
:103DD000C8F88020401C2D1D8842F8D309E000203F
:103DE00054F82010C8F88010401C0828F8D320345C
:103DF00020356FF0404601E0BEB1761ED8F83400A1
:103E000010F48D7FD4D0D8F80C0020F04000C8F812
:103E10000C00FCF74EFAD8F83400000707D5D8F8A4
:103E2000380040F00800C8F83800042055E7D8F8FA
:103E30003400800711D5D8F8380040F00200C8F8E7
:103E40003800012F07D9002201210C20FFF734FB95
:103E50000C20FCF715FB02203FE7D8F83400C00621
:103E600007D5D8F8380040F01000C8F83800052011
:103E700033E7D8F83400C00512D5012F10D99BF8CC
:103E8000000018B1012801D0022809D10022012127
:103E90000C20FFF711FB0C20FCF7F2FA002886D16A
:103EA0000948C8F838006846FEF768FE0028BDD10A
:103EB0009DF800100729F6D00629F4D00DE7000080
:103EC0000070005220000024FF0FE01F2DE9FC5F6E
:103ED0000D461849074690460020024609781646C6
:103EE00009B1EE0D6D02BB074FF400711AD000242A
:103EF000924689464FF0010B10E00F484A4639467A
:103F0000FCF71FFA600242190B48CDE9009B4AEB0F
:103F10000603FFF7B5FE641C07F500774445ECD3B4
:103F2000BDE8FC9FCDE900182A4633463846FFF726
:103F3000A7FEF5E720000024F002002410B5154C80
:103F4000072113484FF0007204F1080320604FF47A
:103F500080006060002083E80700521062619200D8
:103F6000A261CA07606362650A07C4E9072060624C
:103F7000C4E90A012046FEF773F92068016841F0A0
:103F800001010160BDE81040FF2000F005B800000D
:103F900000380040EC01002401B582B04FF47A7083
:103FA0000123009001AA034802A9FEF77BFA9DF8BD
:103FB00004000EBDEC0100240A4A11680B6823F0CE
:103FC00001030B6011688B6823F0E0438B6011687C
:103FD0008B6803438B601068016841F00101016048
:103FE00070470000EC01002410B502685169936924
:103FF00043F0080393610268936943F010039361EF
:104000000268136823F0010313600268136940F229
:104010006B34A34313610268936823F440439360B5
:1040200090F88120042A0CD08A060AD5D0F8842082
:1040300042F08002C0F884200268936943F02003B4
:10404000936190F88120032A1DD04A060AD5D0F842
:10405000842042F00402C0F884200268936943F08F
:1040600040039361826AB2F5800F0CD10A060AD52B
:10407000D0F8842042F00202C0F8842002689369DC
:1040800043F0800393618A050AD5D0F8842042F07A
:104090000102C0F884200268936943F400739361BD
:1040A000C9050AD5D0F8841041F00801C0F8841081
:1040B00001688A6942F480728A610021A0F8621066
:1040C000A0F86A1010BD2DE9F0411E4617460D46B6
:1040D0008046069C0AE0601C08D024B1FCF7C4FEB0
:1040E000801BA04202D90320BDE8F081D8F800006F
:1040F000406935EA000004D00020B842EBD000202F
:10410000F2E70120F9E770472DE9F04F93B01F4621
:1041100015468A4604468146580700D0012000EB28
:10412000D7000C2F10FB07F0C0B2129003D0102F55
:1041300001D0182F2FD1024669462846FCF71BFDF7
:10414000002024E01DF808600025DFF850B030069C
:1041500001D51C9A03E01D9828B9BBF800205146F0
:104160002046FEF7D7FD7006641CA4B2060EA4EB31
:104170000900B84204D10AF101004C461FFA80FA46
:104180006D1CEDB2082DE2D308F10100C0B2129906
:1041900080468842D6D313B0BDE8F08F8200002459
:1041A0002DE9FF4F83B09B460E46044680468A4663
:1041B000DDE91075002081461FE0B9F1000F22D023
:1041C00005994FF0000908EB0100401BA04202DAFC
:1041D0007019444686B20AEB0B00401BB0420FDB5D
:1041E000DDE912012B463A46CDE900013146204671
:1041F000FFF78AFF601984B2BF1C3A78002ADCD12D
:1042000007B0BDE8F08F802A01D90120D3E70599D6
:1042100008EB0100A0EB5500A04202DA70194446F9
:1042200086B20AEB0B00401BB042E9DB0D2A0DD031
:10423000DDE912012B46CDE9000131462046FEF7AB
:1042400015FF04EB550084B27F1CD6E77019444675
:1042500086B27F1CF5E7000070B5284C9CB025683D
:1042600025F004052560254C00260C34256845F40E
:1042700040452560256805F440451B952568AD043B
:10428000FCD5012400940CAD03962404019402246F
:104290000994CDE90A410796082485E80D00CDE987
:1042A00010466846FDF78EFD88B93F201390032025
:1042B000CDE9140640200101CDE91640CDE91801F1
:1042C00050201A90022113A8FDF7CEFB10B1012057
:1042D0001CB070BD0A48016841F0800101600848C7
:1042E000F430016841F002010160006800F0020052
:1042F0001B90FCF7B3FC0020EAE700000C480258D2
:1043000000440258FCF7B6BD1C48016841F4700136
:1043100001601B49086840F001000860184A00204D
:10432000103210600A68174B1A400A60144A18329B
:104330001060121D1060121D1060114A28321060AA
:10434000121D1060121D1060121D1060121D1060F1
:10435000121D1060121D1060121D10600A6822F4F8
:1043600080220A6006496031086001200649C1F8D0
:104370000801C006014980390860704788ED00E0F7
:10438000004402587FEDF6EA0080005190F83410A6
:10439000C90706D001684A68836B22F400321A43C9
:1043A0004A6090F83410890706D501684A68C36BE3
:1043B00022F480321A434A6090F83410490706D537
:1043C00001684A68036C22F480221A434A6090F81C
:1043D0003410090706D501684A68436C22F400428C
:1043E0001A434A6090F83410C90606D501688A68F5
:1043F000836C22F480521A438A6090F83410890644
:1044000006D501688A68C36C22F400521A438A6098
:1044100090F83410490611D501684A68036D22F4FA
:1044200080121A434A60016DB1F5801F06D1016800
:104430004A68436D22F4C0021A434A6090F834106F
:10444000090606D501684A68806D22F400220243FD
:104450004A607047F8B500250446C567FCF704FDBF
:104460000746206800686FF07E46000708D50022E6
:104470003B464FF400112046009600F0FBFA60B96D
:104480002068006840070AD500223B464FF48001AF
:104490002046009600F0EEFA08B10320F8BD202077
:1044A00084F8790084F87A00002084F87850F8BD08
:1044B00010B5806B0021A0F86A10A0F86210FEF71A
:1044C0009EF910BD01680A6822F490720A600168C2
:1044D0008A6822F001028A60202180F87A107047F1
:1044E00010B5B0F86C2090F87A300168222B05D016
:1044F000088B40F008000883022010BD898C836877
:10450000B3F5805F01D103696BB11140426E531C5A
:1045100043661170B0F86A10491E0904090CA0F82E
:104520006A1007D015E0436E11401980416E891C56
:104530004166EFE701680A6822F490720A60016838
:104540008A6822F001028A60202180F87A10FEF742
:10455000E7FA002010BD00002DE9F04F0446006886
:104560008025FD4B0021D4F810C087B0A6680F4607
:10457000D4F81C8046EA0C06D4F814C0A26A4CEAAF
:10458000080C46EA0C0632430668DFF8D0C306EA98
:104590000C061643066020684268E66822F4405222
:1045A000324342602268A0699A4201D0266A3043B1
:1045B000A66AB6F1005F04D1D4E90B6C46EA0C069A
:1045C00030439668DFF898C306EA0C060643966007
:1045D0002068C26A666A22F00F023243C262E14E6C
:1045E0002068E14AB04210D1126802F03802182A5D
:1045F00074D005DCCAB3082A7AD0102A47D179E0F2
:10460000202A7BD0282A7CD17AE0D84EB04209D12A
:10461000126802F00702062A73D2DFE802F053693B
:104620006B6D6F71D24EB04209D1126802F0070271
:10463000062A66D2DFE802F0465C5E606264CD4E18
:10464000B04209D1126802F00702062A59D2DFE807
:1046500002F0394F51535557C74EB0420BD1126833
:1046600002F00702062A4CD200E00EE0DFE802F07A
:104670002A4042444648C14EB04209D1126802F075
:104680003802182A38D0BBDCB4E74FF0010538E017
:10469000BB4EB04209D1126802F00702062A30D29E
:1046A000DFE802F01026282A2C2EB64EB0420BD19D
:1046B000126802F00702062A23D2DFE802F003198B
:1046C0001B1D1F2100251CE098421AD1A64A121D6D
:1046D000126802F00702062A13D202E00CE007E09B
:1046E0000CE0DFE802F0030507090B0D022508E0E6
:1046F000042506E0402504E0082502E0102500E03E
:104700002025DFF864B2A04E9842DFF880A2ABF11A
:10471000540B73D1102D31D006DC022D09D0042D9D
:104720000AD0082D2FD111E0202D29D0402D2AD1DB
:1047300007E0FCF72FFC13E06846FCF741FC01980A
:104740000EE003A8FCF7BAFC049809E0DBF80010BF
:104750005846890610D50068C0F3C1012AFA01F055
:10476000002811D06168894601EB410181420AD8D5
:10477000B0EB093F07D808E05046F3E78448F1E77B
:104780004FF40040EEE7012733E1102D4FF0000811
:104790004ED006DC022D0FD0042D15D0082D04D1EB
:1047A0002DE0202D4AD0402D13D00127794AA0F5C5
:1047B0004071914270D9E6E7FCF7ECFB626A002396
:1047C000414636F812200DE06846FCF7F9FB0198E7
:1047D00003E003A8FCF772FC04980023616A36F832
:1047E00011201946FBF77CFD62680902030241EAC9
:1047F00010615008181841EB080115E032E0DBF8B1
:1048000000105846890609D500680023C0F3C1018D
:104810002AFA01F0616A36F8112015E0606A002377
:1048200036F8102050460FE00023FBF759FDBDE796
:10483000606A002336F81020554805E0606A0023BE
:1048400036F810204FF400400021FBF749FD090223
:10485000020241EA10614FEA590010184A4641EB42
:104860000801E1E7E3694FF4004293424DD1082D7E
:1048700023D005DC8DB1012D12D0042D06D112E01C
:10488000102D35D0202D3AD0402D11D0012721F008
:104890000F00C1F3420108435AE0FDF7EBF916E0BF
:1048A000FDF7FEF913E06846FCF78AFB01980EE07D
:1048B00003A8FCF703FC049809E0DBF80010584655
:1048C000890608D50068C0F3C1012AFA01F0616ABF
:1048D00036F8111010E0606A36F81010BAFBF1F0EB
:1048E0004100606801EB5001B1FBF0F081B2CEE70E
:1048F000606A36F810102648B0FBF1F0F0E7606A05
:1049000036F81000B2FBF0F0EAE7082D4AD00ADCD6
:104910000DB3012D43D0042D7FF44DAF6846FCF755
:104920004FFB019809E0102D52D0202D55D0402D7D
:10493000F2D103A8FCF7C2FB0498616A36F81110A3
:10494000B0FBF1F1606801EB5001B1FBF0F080B217
:104950002168C8604DE01FE0000C0058F369FFCFEC
:10496000FFF4FF110010014054440258004400407D
:1049700000480040004C004000500040001401403E
:1049800000780040007C0040285B00080090D003C5
:1049900000093D00FFFC0F00FDF76CF9CDE7FDF7C6
:1049A0007FF9CAE7DBF80020594692060AD5096864
:1049B000C1F3C1022AFA02F1626A36F81220B1FB91
:1049C000F2F20FE0616A36F81120BAFBF2F209E068
:1049D000616A36F811200949F1E7616A36F8111069
:1049E000B2FBF1F2616802EB5102B2FBF1F189B264
:1049F000C16007B03846BDE8F08F000000093D00F7
:104A000090F87910212901D002207047B0F8621087
:104A100021B18168B1F5805F13D014E001680A68A4
:104A2000920004D58A6822F400028A6003E00A68D2
:104A300022F080020A600068016841F040010160D4
:104A40000CE0016961B1C16D4A1CC2650268097858
:104A50001185B0F86210491EA0F86210002070475E
:104A6000C16D02680988C1F308011185C16D891CF7
:104A7000C165EEE72DE9F0411E461746884604461B
:104A8000069D1CE0681C1AD025B1FCF7EDF9801BCF
:104A9000A84214D92068016821F4D071016020680F
:104AA000816821F001018160202084F8790084F878
:104AB0007A00002084F878000320BDE8F0812068A7
:104AC000C16938EA010004D00020B842DAD00020E1
:104AD000F3E70120F9E7000070B50D4D00240D4803
:104AE000FDF794FE02E0641CAC4204D80948FDF7CF
:104AF00087FE2028F7D1002402E0641CAC4206D8CF
:104B0000054901220348FDF7B7FF0028F5D170BD24
:104B1000FFFF01006C0100240C000024FEE70000F0
:104B20000FB4054B10B503A9044A029800F03CF8F5
:104B300010BC5DF814FB000039550008100000247B
:104B40000FB4084B10B504A902AA039800F02CF882
:104B5000044602A9002000F087F9204610BC5DF849
:104B600014FB0000694E00080907090E002804DB49
:104B700000F1E02080F80014704700F00F0000F111
:104B8000E02080F8141D704702E008C8121F08C119
:104B9000002AFAD170477047002001E001C1121FBE
:104BA000002AFBD1704700002DE9FF4F8DB09B46D6
:104BB0000F460446002606E025280BD05A460F99DA
:104BC0009047641C761C20780028F5D111B030463F
:104BD000BDE8F08F0025A8460122984900E0054372
:104BE00014F8013F203B02FA03F00842F7D1207885
:104BF0002E2817D114F8010F45F004052A280ED0ED
:104C00006FF02F022078A0F1300109290AD808EBB3
:104C1000880102EB410100EB0108641CF2E757F840
:104C2000048B641C20786C280DD004DC4C2812D036
:104C30006A2811D104E074280DD07A280CD10AE03A
:104C400045F4001507E0617845F48015814202D1F2
:104C5000641C05F58015641C2278692A45D008DC9F
:104C6000002AB3D0582A69D0632A10D0642A08D108
:104C70003BE0702A67D0732A13D0752A5CD0782A5B
:104C80005CD010465A460F999047761CD3E017F82F
:104C9000040B8DF8000000208DF80100E94601208A
:104CA00003E057F8049B4FF0FF3069074FF0000511
:104CB00001D40AE06D1C45450DDA8542FADB19F88E
:104CC00005100029F6D106E06D1C8542FCDB19F8C1
:104CD00005100029F8D12E4404E019F8010B5A46BA
:104CE0000F9990476D1EF8D2A5E00A200021CDE96A
:104CF0000801C5F3025002280DD001CFC117031ED1
:104D000071F100030DDA4FF0000CD0EB0C006CEBEE
:104D100001012D2308E0FF1D27F00707F7E8020136
:104D2000EDE72B0504D52B238DF8283001233BE03C
:104D3000EB0739D02023F7E70A2000E010200021FC
:104D4000CDE9080107E01020002145F00405CDE978
:104D500008014FF00808C5F3025002280FD001CF18
:104D600000214FF0000A2B071FD5702A0DD0DDE976
:104D700008C38CF0100C5CEA030C0CD015E0FF1D8E
:104D800027F00707F7E80201EBE740228DF828201B
:104D90004FF0010A0BE050EA010306D030238DF8F2
:104DA00028308DF8292002239A46582A04D024A2BC
:104DB0000DF120090B9209E026A2F9E7DDE90823AD
:104DC000FBF78EFA0B9B9B5C09F8013D50EA010250
:104DD000F4D1ADEB090020300890680701D44FF002
:104DE00001080899884502DDA8EB010000E00020D9
:104DF0008046002506E00AA85A46405D0F99904774
:104E00006D1C761C5545F6DB04E030205A460F99A0
:104E10009047761CB8F10001A8F10108F5DC05E027
:104E200019F8010B5A460F999047761C0899481EAD
:104E300008900029F4DC641CC5E600000928010084
:104E40003031323334353637383961626364656600
:104E500000000000303132333435363738394142C2
:104E600043444546000000000A68531C0B60107064
:104E70007047000010B504460020E070401E6063DB
:104E8000204600F061FD08B1042010BD04F2362078
:104E900000F046FCA0F52A41553901D0032010BD91
:104EA0000B2211A104F1380000F042FD40B194F84A
:104EB0003800E92806D0EB2804D0E82802D011E019
:104EC000012010BD03220BA104F16E0000F030FDA3
:104ED0000028F6D0052208A104F18A0000F028FD80
:104EE0000028EED0022010BDEB7690455846415484
:104EF0002020200046415400464154333200000037
:104F0000C269891E921E8A4201D800207047026B36
:104F1000408900FB0120704710B504460420FDF7CE
:104F20004DFC0148046010BD0800002470B5002449
:104F300005464FF47A7603E0304600F005F8641C2D
:104F4000AC42F9D370BD000070B54FF0E0250021F0
:104F50006C69094AAB6912685043AA699A42FCD04D
:104F600002D2A3EB020302E0A4EB0206334419448D
:104F700013468142F1D370BD0800002410B518B962
:104F8000FEF7ECFB002800D0012010BD70B51C001E
:104F900015460E4602D018B1012070BD042070BD28
:104FA0001A4602E0FEF7DAFB224629463046FEF7B3
:104FB0001FFE0028F6D170BD0020704770B51C00A0
:104FC00015460E4602D018B1012070BD042070BDF8
:104FD0001A4602E0FEF7C2FB224629463046FEF79B
:104FE00075FF0028F6D170BD7CB50D461446002132
:104FF00001AA0091694600F03FF800280AD1019902
:10500000CA694B89921E00995A434B435108296043
:10501000590821607CBD000070B5164D00244FF486
:105020000E760020314600F021FD45F8240018B12D
:10503000641C14F0FF04F4D04FF4167600203146BF
:1050400000F014FD0B4D31466860002000F00EFDAD
:105050004FF40071A860002000F008FD012CE8600A
:1050600006D1696821B1A96811B108B1002070BDED
:10507000012070BD300000242DE9F7438EB01446A6
:10508000002289460EA8694600F0A4F8070078D1EE
:10509000009820600098D0E90616B21E914202D80E
:1050A000C9F800106DE001780024012905D0042919
:1050B0001AD0D0F8288000253BE00225029002A8F3
:1050C000294600F043FA411C03D0012803D020B147
:1050D00004E001274DE002274BE0641C00986D1CA2
:1050E000C0698542EBD344E00025D0F83080B61E7D
:1050F00000E045B90098414608F1010800F024FCA1
:10510000070036D1009A0820511991F8381007E0AD
:10511000CB0700D1641C4908401EA6F1010601D04E
:10512000002EF5D16D1C002EC5F30805E1D120E05D
:105130003DB90098414608F1010800F005FC070060
:1051400017D100980178284400F13800022904D0D2
:1051500000F0B0FA000106D006E000F0E1FA00B974
:10516000641CAD1C01E0641C2D1D761EC5F30805F2
:10517000DED1C9F8004000988461017941F0010155
:10518000017111B03846BDE8F083000017B581B059
:10519000144602980090684600F071FA002802DA7E
:1051A0000B2004B010BD0A4B002253F8201001B1AF
:1051B0000A70019901B10A7043F820102CB1002245
:1051C00001A902A800F006F8EBE70020E9E70000DB
:1051D0002C0000242DE9FF5F002790460E460F604B
:1051E00000F04DFA050003D50B2004B0BDE8F09F98
:1051F000CC4850F825409CB1346008F0FE06207879
:1052000020B16078FFF7D8FEC1070BD02770B846F1
:10521000E8B26070FFF7B2FEC10708D00320E4E7F0
:105220000C20E2E70EB1400704D40020DDE71EB1F8
:10523000400701D50A20D8E7002520462946FFF778
:1052400019FE022820D16E4604EB051090F8FA11E1
:1052500000F5FB7019B1083000F02CFA00E00020D6
:1052600046F825006D1C042DEED3002756F8275074
:1052700025B129462046FFF7FDFD00E00320022866
:1052800002D37F1C042FF1D304287AD002287AD2CB
:1052900001284FF0FF3A4FF400760CD004F14300A0
:1052A00000F03EFAB0426ED104F14E0000F038FA40
:1052B000002869D084E00B2002E0401C402806D280
:1052C000211891F838100029F7D040285BD304F159
:1052D000A00000F025FAB0F5807F54D194F8A40026
:1052E0000127B34607FA00F058454CD104F180007D
:1052F00000F0EBF9C14610EB050841EB0906012E61
:1053000041D204F18C0000F0D5F9206294F8A60097
:10531000A070012837D194F8A50087403804000C0C
:10532000608130D004F1940000F0C4F97E49074652
:10533000884228D8B81C6562E06104F1900000F052
:10534000B9F92844206304F1880000F0B3F9284437
:10535000A0626189226B7943521849EB0900B8EBCE
:10536000020186410FD304F1980000F0A3F9014631
:10537000E0622046FFF7C4FD0146204600F0E4FA53
:1053800018B1012031E75FE016E000255E466019A4
:1053900090F83810812904D14C3000F08BF90228A4
:1053A00002D02035B542F2D3B54269D0C4F818A076
:1053B0000426C4F814A0ADE004F15C0000F07AF912
:1053C000206294F84870A770012F01D0022F57D1A6
:1053D000474394F845006081B0B3411E08424FD165
:1053E00004F1490000F09CF92081000748D104F144
:1053F0004B0000F095F9060004D104F1580000F0CC
:1054000059F9064604F1460000F08AF9010037D048
:105410002389C81900EB1312964231D3B01A66895A
:10542000B0FBF6F080B1DFF804C10026604500D87B
:1054300003264FF6F57C604500D8022640F6F57C41
:10544000604502D8012601E01AE0CEB12944801C53
:105450002A442263E061032EC4E9095112D07BB1D2
:10546000022E3944E1621ED000F0010100EB400041
:1054700001EB5000216A00F2FF10B1EB502F14D263
:105480000D20B2E604F1620000F04AF90028F7D1DD
:1054900020890028F4D104F1640000F00BF9E062E7
:1054A000E0698000E6E74000E4E7C4F818A0802047
:1054B000C4F814A0032E20712CD104F1680000F070
:1054C0002FF9012826D1691C204600F03DFA08BBBF
:1054D00004F2362084F8048000F022F9A0F52A4175
:1054E000553917D104F1380000F0E4F8104988422A
:1054F00010D104F5077000F0DDF80E49884209D19B
:1055000004F5087000F0D6F8A06104F5097000F009
:10551000D1F8606103492670091F0888401C088083
:10552000E08082E62C000024FDFFFF7FF5FFFF0FE7
:1055300052526141727241610349CA695206FCD5F7
:10554000C2B20A8570470000001001402DE9F04109
:10555000046802290D4673D3E169A94270D9217804
:105560004FF0FF36012909D002292CD0F20D032972
:1055700002EA850736D004297DD141E0A06A05EB17
:10558000550700EB5721204600F0DEF9002873D1C3
:10559000C7F3080020447F1C90F83880A06A00EB15
:1055A0005721204600F0D0F948BBC7F3080020443B
:1055B00090F8381048EA0120E90701D006095BE0BD
:1055C000C0F30B0658E0A06A00EB1521204600F05E
:1055D000BBF9A0B9E8B204EB4000383000F0A0F805
:1055E000064649E0A06A00EBD511204600F0ACF970
:1055F00028B93819383000F05DF820F070463BE0EB
:10560000D0E9042352EA030101D0816809B9C179C4
:10561000B1B981686FF0004C691A521E43F1FF3333
:10562000520A42EAC3526389B2FBF3F3C279022AF7
:1056300007D0032A0DD0022A1DD0C06920B90CE082
:1056400019E0994217D801D1664615E005F1010627
:1056500012E082698A42F9D8EFE7A06A00EBD5111F
:10566000204600F071F938B93819383000F022F8C6
:1056700020F0004600E001263046BDE8F08110B57C
:1056800004464FF0FF302368190010D011F8012BA9
:10569000202A0DD33A2AF9D11A78303A092A06D8A5
:1056A0009B1C8B4203D1012A01DA1046216010BDF8
:1056B000002010BDC178827842EA0121427800784A
:1056C00042EA012140EA0120704710B5C179827990
:1056D0000B0E42EA01211A02437942EA116243EABF
:1056E00001211302027943EA116342EA01211A02FD
:1056F000C37842EA116243EA01211302827843EA45
:10570000116342EA01211B020A0243EA1163417854
:1057100000780A43190241EA126140EA022010BDF2
:105720004178007840EA0120704700000EB5FAF792
:105730004DFEFBF7A7FB042302220521A020FEF764
:105740008BFD4FF4C870FFF7E7FB4FF4E13000F03A
:10575000C7F9FDF761FDFDF74BFAFDF76DFBFBF7B0
:10576000C1F84FF6FF773846FDF772FA002000F0D7
:1057700005F910214FF4784508463DA32A46FAF76B
:1057800097FF1F22202110203EA3FAF791FF1F222E
:105790003021102040A3FAF78BFF444E4FF4FA74E7
:1057A00015E05A212A46102041A3FAF781FF20462E
:1057B000FFF7BCFB5A212A46102041A3FAF778FFD5
:1057C0002046FFF7B3FB02213046FBF743FBFDF712
:1057D000C5FF0028E5D1FFF71FFC3D4801223DA190
:1057E0000068FFF7D3FC16E01F225A2110203AA3CD
:1057F000FAF75EFFC820FFF799FBA6230097F02277
:1058000096211E20FDF7A2FAC820FFF78FFB022188
:105810003046FBF71FFB02AA01A935A0FFF7E4FB06
:105820000028E1D11F226E21102032A3FAF740FF99
:10583000019833A1820A3848FFF782F9364B1F22BC
:105840006E211020FAF734FF029834A1820A324800
:10585000FFF776F9304B1F2282211020FAF728FF3C
:10586000C820FFF763FB02213046FBF7F3FAF7E7A6
:10587000202053544D33324837204641544653205C
:10588000202000002020C7B6C8EBCABDBFAAB7A21F
:10589000CDF82020200000006D63756465762E74BD
:1058A000616F62616F2E636F6D000000000002582F
:1058B00053442043617264204572726F722100006C
:1058C000506C6561736520436865636B212000003F
:1058D00030000024303A00005344204361726420B9
:1058E0004661746673204572726F72210000000079
:1058F000300000004641544653204F4B2100000029
:10590000534420546F74616C2053697A653A2025A2
:1059100075204D42000000008400002453442046BE
:105920007265652053697A653A202575204D4200DD
:1059300010B510F8013B11F8014B1B1B521E01D092
:10594000002BF6D0184610BD70B50446406B0025FC
:105950000E46B0420FD0204600F09EF805000AD156
:105960006078012304F138013246FFF70FFB08B1DC
:105970006E1E01256663284670BD000030B50446E2
:105980000748084D002150F82400820005EB8400F0
:10599000006A00F07BF80120291981F8380030BD39
:1059A000405B0008400000242DE9F0411E4E002419
:1059B00005460F46701990F8380010B9316828462E
:1059C00088474FF0FF326FB3184B53F82510B7FBE1
:1059D000F1FCB7FBF1F001FB1C7101B1401C134954
:1059E000183951F82510491E1CD406EB8506376A74
:1059F00057F821C0BCF1000F04D0002484420FD11D
:105A0000002206E0641CF9E7346A8F18521C44F83F
:105A100027008242F8D353F825004843BDE8F081BF
:105A2000491EE5D51046F9E740000024585B000800
:105A30000C4B002210B50C4C114653F8203004EBEF
:105A4000800005E0046A54F8214004B1521C491C4E
:105A50008B42F7D84FF47A704243B2FBF3F080B236
:105A600010BD0000405B00084000002410B5044653
:105A7000FFF79AFF411C05D0034901EB84018968B7
:105A8000084410BD002010BD4000002401E000F8D3
:105A9000011B521EFBD2704770B50446C07800252A
:105AA00048B104F138016078626B01230E46FFF7BC
:105AB00085FA10B10125284670BD0020E070A16A6A
:105AC000606B421A216A8A42F5D2A278022AF2D188
:105AD0004218607801233146FFF770FAEBE70000C7
