:020000040800F2
:10000000E094072489030008356C00909F2D009030
:10001000950300080B0700909784009000000000F3
:10002000000000000000000000000000FF7B0090C6
:100030009908009000000000376C0090017C00904F
:10004000A3030008A3030008A3030008A3030008F8
:10005000A3030008A3030008A3030008A3030008E8
:10006000A3030008A3030008A3030008A3030008D8
:10007000A3030008A3030008A3030008A3030008C8
:10008000A3030008A3030008A3030008A3030008B8
:10009000A3030008A3030008A3030008A3030008A8
:1000A000A3030008A3030008A3030008A303000898
:1000B000A3030008A3030008057C0090A303000825
:1000C000A3030008A3030008A3030008A303000878
:1000D000A3030008D9150008A3030008A303000820
:1000E000A3030008A303000800000000A303000806
:1000F000A3030008A3030008A3030008A303000848
:10010000A3030008A3030008A3030008A303000837
:10011000A3030008A3030008A3030008A303000827
:10012000A3030008A3030008A3030008A303000817
:10013000A3030008A3030008A3030008A303000807
:1001400000000000000000000000000000000000AF
:10015000A3030008A3030008A3030008A3030008E7
:10016000A3030008A3030008A3030008A3030008D7
:10017000A3030008A3030008A3030008A3030008C7
:10018000A3030008A3030008A3030008A3030008B7
:10019000A3030008A3030008A3030008A3030008A7
:1001A000A3030008A3030008A3030008A303000897
:1001B000A3030008A3030008A3030008A303000887
:1001C000A3030008A3030008A3030008A303000877
:1001D000A3030008A3030008A3030008A303000867
:1001E000A3030008A3030008A3030008A303000857
:1001F000A3030008A3030008A3030008A303000847
:10020000A3030008A3030008A3030008A303000836
:10021000A3030008A3030008A3030008A303000826
:10022000A3030008A3030008A303000800000000C4
:10023000A3030008A303000800000000A3030008B4
:10024000A3030008A3030008A3030008A3030008F6
:10025000A3030008A3030008A3030008A3030008E6
:10026000A3030008A3030008A3030008A3030008D6
:10027000A3030008A3030008A30300080000000074
:10028000A303000800000000A30300080000000012
:1002900000000000A303000800F002F800F05CF882
:1002A0000AA090E8000C82448344AAF10107DA45D1
:1002B00001D100F051F8AFF2090EBAE80F0013F0C7
:1002C000010F18BFFB1A43F001031847781800000C
:1002D000981800000A444FF0000C10F8013B13F08E
:1002E000070408BF10F8014B1D1108BF10F8015B8F
:1002F000641E05D010F8016B641E01F8016BF9D182
:1003000013F0080F1EBF10F8014BAD1C0C1B09D1D8
:100310006D1E58BF01F801CBFAD505E014F8016B4A
:1003200001F8016B6D1EF9D59142D6D370470000DC
:100330000023002400250026103A28BF78C1FBD8EE
:10034000520728BF30C148BF0B6070471FB501F08E
:10035000EBFB1FBD10B510BD00F0B0F81146FFF764
:10036000F5FF01F0A9F900F0CEF803B4FFF7F2FFB2
:1003700003BC01F063F9000030BF72B6704762B68B
:10038000704780F30888704709488047094800474C
:10039000FEE7FEE7FEE7FEE7FEE7FEE7FEE7FEE735
:1003A000FEE7FEE704480549054A064B7047000092
:1003B0005515000899020008E0880724E0940724F6
:1003C000E08A0724E08A072453EA020C00F06980DF
:1003D0002DE9F04B4FF00006002B1FBFB3FA83F559
:1003E00003FA05F424FA05F65E4012BF1643B2FA8A
:1003F00082F502FA05F4C5F120051EBF22FA05FCBC
:1004000044EA0C04203556EA044C4FEA144418BF61
:10041000641C4FF000084FF00009904271EB030C90
:1004200039D3002919BFB1FA81F701FA07F6B0FAFA
:1004300080F700FA07F6C7F120071EBF20FA07FC75
:1004400046EA0C062037B6FBF4FCA7EB0507103F85
:1004500007F01F0BCBF120060CFA0BFB2CFA06F66B
:1004600044BFB3460026202FA4BF5E464FF0000BCA
:100470005BEA060C08BF4FF0010B19EB0B09ABFB55
:10048000027C48EB0608C01B06FB02CC0BFB03CC2E
:1004900071EB0C01C1E70B46024641464846BDE8F8
:1004A000F08B13B54FF000004FF00001AFF3008068
:1004B000BDE81C407047704770477047754600F0B4
:1004C0002BF8AE4605006946534620F007008546E6
:1004D00018B020B5FFF766FFBDE820404FF00006DA
:1004E0004FF000074FF000084FF0000B21F007011C
:1004F000AC46ACE8C009ACE8C009ACE8C009ACE85F
:10050000C0098D46704710B50446AFF30080204601
:10051000BDE81040FFF729BF0048704780880724D6
:1005200041F2997CC9F2000C604742F60D3CC9F2D9
:10053000000C604742F6013CC9F2000C604742F6ED
:10054000F74CC9F2000C604745F6492CC9F2000C83
:10055000604742F6156CC9F2000C604746F6197CFC
:10056000C9F2000C604743F22D1CC9F2000C604731
:1005700048F2FD4CC9F2000C60474AF2397CC9F2DE
:10058000000C604745F69F1CC9F2000C604747F21B
:10059000592CC9F2000C604740F6457CC9F2000CAA
:1005A000604748F6ED7CC9F2000C604749F6A14C63
:1005B000C9F2000C604749F2651CC9F2000C6047A3
:1005C00049F6E94CC9F2000C604743F2CD0CC9F280
:1005D000000C604748F6BD7CC9F2000C604745F648
:1005E000291CC9F2000C604742F68D4CC9F2000C80
:1005F00060470000F0B5BFF34F8FBFF36F8F1D4909
:1006000000200860BFF34F8FBFF36F8F1A4C216833
:1006100041F400312160BFF34F8FBFF36F8F164954
:1006200070310860BFF34F8F081F006843F6FF75F5
:10063000104E1036C0F34E31C0F3C90305EA411223
:10064000184642EA80773760401EFAD2491EF5D23A
:10065000BFF34F8F206840F480302060BFF34F8F8E
:10066000BFF36F8F03484C30016841F00401016013
:10067000F0BD000050EF00E014ED00E0024801681A
:1006800041F0010101607047200400582DE9F84F46
:100690006C4C00224FF0B04A4FF0010B4FF0030EAC
:1006A0004FF00F090B680BFA02F73B40BB4270D1C9
:1006B0004D68022D01D0122D12D1D50800EB850C0A
:1006C000DCF820605507ED0E09FA05F826EA080661
:1006D000D1F8108008FA05F848EA0608CCF820801E
:1006E000D0F80080560091F804C00EFA06F50CF020
:1006F000030C28EA05080CFA06FC4CEA080CC0F8C2
:1007000000C0D1F804C0BCF1010F08D0BCF1020F49
:1007100005D0BCF1110F02D0BCF1120F16D1D0F8E8
:1007200008C0D1F80C802CEA050C08FA06F848EA53
:100730000C08C0F80880D0F804C02CEA070C0F7928
:10074000C7F30017974047EA0C074760C768AF43F5
:100750008D68B5403D43C5604D68ED006BD53A4DA1
:100760002E6846F002062E602D6822F0030606F180
:10077000B04605F002050095D6F808C495072F0F7E
:1007800009FA07F52CEA050C304DA84202D10025E4
:100790002EE050E02E4DA84201D1012528E02D4D3C
:1007A000A84201D1022523E02B4DA84201D1032507
:1007B0001EE02A4DA84201D1042519E0284DA84287
:1007C00001D1052514E0274DA84201D106250FE0EF
:1007D000254DA84201D107250AE0244DA84201D1A8
:1007E000082505E0224DA84201D1092500E00A258F
:1007F000BD4045EA0C05C6F8085425684E689D437F
:10080000F60300D51D43256065684E689D43B60319
:1008100000D51D436560DAF8005056464F689D4389
:10082000FF0200D51D43356075684F689D43BF02C8
:1008300000D51D437560521C102AFFF433AFBDE88C
:10084000F88F000080000058F4440258000002585D
:100850000004025800080258000C02580010025808
:100860000014025800180258001C025800200258B8
:10087000002402580069084000D0012070474269F6
:100880004A40426170470AB1018370474183704713
:100890000148806870470000140000240248816805
:1008A000027811448160704714000024032010B5C1
:1008B00000F0A2F80F2000F007F808B1012010BDE9
:1008C00000F06CF8002010BD70B50D4D04464FF4DB
:1008D0007A712878B1FBF0F00A490968B1FBF0F0B1
:1008E00000F0A4FC48B9102C07D200222146501E6B
:1008F00000F062F800206C6070BD012070BD000047
:100900001400002400000024134A41781160111DD6
:1009100003780A1DE3B143680B60017BC37A0907C2
:1009200041EA0361837A41EAC341437B41EA83415F
:10093000837B41EA4341C37B41EA0341437A41EA75
:100940000321037A007841EA4301014311607047B3
:10095000002008601060704798ED00E0BFF35F8FE3
:100960000448016821F4803101600249002070319F
:100970000860704724ED00E0074940F0010008607E
:1009800005487038016841F480310160BFF34F8F32
:10099000BFF36F8F7047000094ED00E070470028B0
:1009A00009DB012100F01F0291404009800000F1A5
:1009B000E020C0F8001170470E4BF0B41B68C3F381
:1009C0000223C3F10704042C00D904241D1D072DA4
:1009D00001D2002300E0DB1E012606FA04F56D1E9D
:1009E0000D409D409E40761E164045EA0601F0BC33
:1009F00000F014BE0CED00E0064A00F0070110689C
:100A00004FF6FF03184040EA0120034908431060F5
:100A1000704700000CED00E00000FA052DE9F047FA
:100A2000DFF8BC9104460E46D9F8000000F007003C
:100A3000B0420CD2D9F8001021F007013143C9F8B7
:100A40000010D9F8000000F00700B0427ED12078F5
:100A5000DFF89081800707D5D8F80010E26821F010
:100A60000F011143C8F800102078C00762D0D8F8F1
:100A70000010A26821F470611143C8F800105949B0
:100A80006068183902281CD003281DD00968012885
:100A90001DD04907002960DA524F083F396821F01C
:100AA000070101433960FFF7F3FE0546606841F234
:100AB0008831022813D003281ED001288A4627D067
:100AC00034E009688903E5E709688901E2E7C905B7
:100AD000E0E7FFF7DDFE411B514501D923E08A46DF
:100AE0003868C0F3C2000228F3D123E0FFF7D0FE3C
:100AF000411B514501D916E08A463868C0F3C2004F
:100B00000328F3D116E0FFF7C3FE411B51450AD875
:100B10003868C0F3C2000128F5D10BE0FFF7B8FE3A
:100B2000411B514502D90320BDE8F087386810F019
:100B3000380FF3D1D9F80010484601F00701B1424F
:100B40000DD9016821F00701314300E005E00160A3
:100B5000006800F00700B04201D00120E4E72078EF
:100B6000400707D5D8F80010226921F07001114321
:100B7000C8F80010207801071B4805D50168626994
:100B800021F07001114301602178C90605D5016883
:100B9000A26921F4E061114301602078800607D545
:100BA0001149091D0868E26920F0700010430860CF
:100BB00000F066F8D8F800104FF4807292FAA2F2B2
:100BC00001F47061B2FA82F2D140084A515CC84027
:100BD000074908600F20FFF777FE0020A4E7000018
:100BE00000200052184402581C440258321B0008CE
:100BF0000000002410B5FFF793FC084909680122A2
:100C000092FAA2F201F00F01B2FA82F2D140044A44
:100C1000515CC8400349086010BD000018440258E8
:100C2000321B00080400002410B5FFF7E3FF07495A
:100C30000968102292FAA2F201F07001B2FA82F26F
:100C4000D140034A515CC84010BD00001C4402580A
:100C5000321B000810B5FFF7CDFF074909684FF4B4
:100C6000807292FAA2F201F4E061B2FA82F2D1400B
:100C7000024A515CC84010BD1C440258321B000897
:100C80003548F0B50068364D10F03801334809D0CA
:100C90000411082904D0334E10290BD018290BD089
:100CA0002046F0BD29688906FBD52968C1F3C1013A
:100CB000C840F0BD3046F0BD274918310A680968C0
:100CC00012F00302284BC1F305111B68274F03F0F4
:100CD00001033F68DFED260AB7EE001AC7F3CC0721
:100CE00017FB03F300EE103A224BB8EE400A06D091
:100CF000012A01D0022A2BD0B4FBF1F008E02A68C7
:100D0000920603D52A68C2F3C102D040B0FBF1F0CD
:100D100001EE900A1868B8EE612AC0F3080001EEEF
:100D2000900A1868F8EE611A40EE201A31EE810A36
:100D300022EE000AC0F34620401C00EE900AF8EEB6
:100D4000600A80EE201ABCEEC10A10EE100AF0BD57
:100D5000B6FBF1F0DCE70000104402580090D0032D
:100D60000044025840787D012C4402583444025813
:100D700000000039304402582DE9F05F0446007845
:100D8000DFF8FC8341F28839DFF8F8A3FE4DC00795
:100D90004ED0D8F800104046C1F3C20102291AD043
:100DA0000068C0F3C200032805D1DAF8000000F0A3
:100DB000030002280FD06068B0F5803F12D010B158
:100DC000B0F5A02F19D0286820F48030286028685A
:100DD00020F4802009E02868800329D56068002875
:100DE00074D025E0286840F480302860606890B1B5
:100DF000FFF74EFD06464F4609E0286840F4802084
:100E00002860EFE7FFF744FD801BB8427DD82868D3
:100E10008003F7D50CE0FFF73BFD06464F4604E0A4
:100E2000FFF736FD801BB842F0D828688003F7D45E
:100E30002078D64F80075AD5D8F8001040464FF496
:100E40007C3B11F0380F13D00068C0F3C2000328B8
:100E500003D1DAF8000080070AD0E068A8B3296857
:100E600021F0190101432960FFF712FD06461DE03C
:100E70002868400702D5E0680028B1D02868E168FA
:100E800020F0190008432860FFF702FD064604E041
:100E9000FFF7FEFC801B0228B8D828684007F7D56A
:100EA00007E0FFF7F5FC801B0228AFD82868400751
:100EB000F7D538689BFAABF220F47C312069B2FA9E
:100EC00082F290400143396011E000E0AEE0286812
:100ED00020F001002860FFF7DBFC064604E0FFF786
:100EE000D7FC801B022891D828684007F7D42078C7
:100EF000C00655D5D8F8001040464FF0F84BC1F366
:100F0000C201012917D0006800E0EDE0C0F3C20083
:100F1000032805D1DAF8000000F0030001280AD008
:100F2000E069002828682CD040F080002860FFF796
:100F3000AFFC064616E02868C00502D5E0698028A7
:100F400074D138689BFAABF220F0F841206AB2FA0B
:100F500082F290400143396022E0FFF799FC801B48
:100F6000022899D82868C005F7D538689BFAABF2F3
:100F7000216AB2FA82F220F0F840914008433860CA
:100F80000EE020F080002860FFF782FC064604E0B7
:100F9000FFF77EFC801B022887D82868C005F7D49D
:100FA0002078000724D5774F60694C3700283868CF
:100FB0000FD040F001003860FFF76AFC064604E0FD
:100FC000FFF766FC801B02288DD838688007F7D5AC
:100FD0000EE020F001003860FFF75AFC064604E0FE
:100FE000FFF756FC801B02287ED838688007F7D4AC
:100FF0002078800623D5A069002828680FD040F407
:1010000080502860FFF744FC064604E0FFF740FCF0
:10101000801B022868D828688004F7D50FE020F4E8
:1010200080502860FFF734FC064605E0D6E0FFF765
:101030002FFC801B022857D828688004F7D420781A
:10104000400744D5524F386840F480703860FFF74D
:101050001FFC064604E0FFF71BFC801B642843D8F6
:101060003868C005F7D5474FA068483701280AD02F
:1010700008B1052811D0386820F0010038603868C0
:1010800020F0040002E0386840F001003860A068F9
:1010900088B1FFF7FDFB064609E0386840F0040020
:1010A0003860F0E7FFF7F4FB811B49451CD838682E
:1010B0008007F7D50BE0FFF7EBFB064604E0FFF7F0
:1010C000E7FB811B49450FD838688007F7D4606A71
:1010D000F0B3D8F80010C1F3C20103297ED0022872
:1010E000286820F0807000E079E0286003D0FFF7E6
:1010F000CFFB044687E0FFF7CBFB064604E0FFF793
:10110000C7FB801B02287BD828688001F7D4DAF857
:10111000001040F2F3329143E26A41EA0211A26AFE
:101120001143CAF8001094F834004FF4FE02218EE7
:101130004002491EA0F5007080B2C1F308010843C7
:10114000218F491E02EA0141084394F83C1000E057
:101150005CE0491E120202EA0161084309490831B4
:1011600008600B1D19684FF6F872A06C914392FA53
:10117000A2F2B2FA82F2904001431960014809E0FC
:1011800010440258284402580044025804440258AB
:1011900000480258001D0168226C21F00C01114327
:1011A00001600168626C21F0020111430160016875
:1011B00041F480310160016841F40031016001684F
:1011C00041F480210160016841F00101016028685B
:1011D00040F080702860FFF75BFB01E018E00FE053
:1011E000044604E0FFF754FB001B022808D82868D7
:1011F0008001F7D50AE0FFF74BFB001B022802D95C
:101200000320BDE8F09F28688001F4D40020F8E7AF
:101210000120F6E74FF0E0210428086903D020F010
:1012200004000861704740F00400FAE7401EB0F186
:10123000807F10B501D3012010BD4FF0E024606124
:101240000F21601700F0EAF90020A061072020615B
:10125000002010BD10B5006886B01B49884230D10F
:101260001A48016841F001010160006800F00100C6
:10127000059016481030016841F0100101600068C7
:101280000121134C00F0100005904FF40070009005
:101290000220CDE901010390072069460490204611
:1012A000FFF7F4F94FF48061204600916946FFF79B
:1012B000EDF92520FFF773FB032225201146FFF7E8
:1012C0007BFB06B010BD000000100140E044025856
:1012D0000000025830B50068114988420CD1114A0B
:1012E0005088010408D411464FF0000344040978E3
:1012F00006D50A2901D0538030BD40F400400DE0EE
:101300000D2909D0084DC0F30D04401C80B2C72838
:1013100029555080EFD830BD40F48040508030BD1A
:10132000001001400C000024C001002454482DE9A5
:10133000F041524C86B0016841F002010160016841
:1013400041F0200101604E480C38016841F48041B1
:10135000016040200090022001900320DFF82481EA
:10136000002569460A270497CDE902504046FFF759
:101370008DF9042069460926049600904046FFF73F
:1013800085F90496C020404E694600903046FFF72C
:101390007DF94FF440706946049700903046FFF79E
:1013A00075F937486438016841F48041016001688B
:1013B00021F4804101603148203881688906FCD4DD
:1013C0003249016032494160016841F00101016028
:1013D00081688906FCD44FF49C714161816889075A
:1013E000FCD5C16841F00201C16081688906FCD466
:1013F0004FF48371416181688907FCD5C16841F070
:101400000201C16081688906FCD4224941610561FD
:1014100081684907FCD530212170016841F0040141
:10142000016081688907FCD5C16841F00201C16093
:1014300081688906FCD481688906FCD4C561164997
:1014400041611648016821F480310160134970310F
:101450000A6822F001020A600A1D156082060F4B1D
:1014600078331A601B1D0E4A1A6005220A60016853
:1014700041F48031016006B0BDE8F0812050005297
:10148000E0440258000402580014025810030001FE
:1014900001041600C0030003EBEF180F24ED00E079
:1014A0002D00030370B5294C9CB0256825F0040578
:1014B0002560264C00260C34256845F440452560FF
:1014C000256805F440451B952568AD04FCD501242D
:1014D00000940CAD03962404019402240994CDE9F0
:1014E0000A410796082485E80D00CDE910466846B4
:1014F000FFF742FC98B9FFF719FF3F201390032034
:10150000CDE9140640200101CDE91640CDE91801CE
:1015100050201A90022113A8FFF780FA10B1012081
:101520001CB070BD0A48016841F0800101600848A4
:10153000F430016841F002010160006800F002002F
:101540001B90FFF79BF80020EAE700000C480258C8
:10155000004402581C48016841F4700101601B49B5
:10156000086840F001000860184A0020103210603E
:101570000A68174B1A400A60144A18321060121D8C
:101580001060121D1060114A28321060121D106088
:10159000121D1060121D1060121D1060121D1060CF
:1015A000121D1060121D10600A6822F480220A6069
:1015B00006496031086001200649C1F80801C006EB
:1015C000014980390860704788ED00E00044025806
:1015D0007FEDF6EA0080005170B50D4D00240D48F6
:1015E000FEF7A3FF02E0641CAC4204D80948FEF7F2
:1015F000A1FF2028F7D1002402E0641CAC4206D8E9
:10160000054901220348FEF79AFF0028F5D170BD75
:10161000FFFF0100880200240C0000240907090EC6
:10162000002804DB00F1E02080F80014704700F08F
:101630000F0000F1E02080F8141D70477047000093
:1016400010B504460420FFF7E5FD0148046010BD15
:101650000800002470B5002405464FF47A7603E0B4
:10166000304600F005F8641CAC42F9D370BD0000B0
:1016700070B54FF0E02500216C69094AAB6912682A
:101680005043AA699A42FCD002D2A3EB020302E0C3
:10169000A4EB02063344194413468142F1D370BDD2
:1016A000080000240349CA695206FCD5C2B20A8563
:1016B00070470000001001401FB5FEF79BFFFFF7C9
:1016C000F5F8042302220521A020FFF7EBFE4FF4DA
:1016D000C870FFF7B5FF4FF4E13000F009FA9E48FB
:1016E0004168C8208847FEF72FFFFEF732FFFEF75C
:1016F00035FFFEF738FFFEF73BFF0020FEF73DFF0A
:101700000120FEF73AFF0220FEF737FF0320FEF725
:1017100034FF0420FEF731FF0520FEF72EFFDFF82F
:101720003C828FA010244FF478412346C822C8F889
:1017300000103221CDE900401E20FEF723FF8DA0CE
:101740001023C822CDE9004046211E20FEF71AFFD3
:101750008BA01023C822CDE900405A211E20FEF79D
:1017600011FF8BA01023C822CDE900406E211E205E
:10177000FEF708FF89A01023C822CDE9004082218E
:101780001E20FEF7FFFEDFF828924FF4FA751BE0EB
:1017900088A01023C822CDE9004096211E20FEF724
:1017A000F1FE2846FFF756FF86A01023C822CDE998
:1017B000004096211E20FEF7E5FE2846FFF74AFF6F
:1017C00002214846FFF75BF8FEF7E1FE0028DFD173
:1017D000FEF7E2FEFEF7E5FE7E4D01227EA12868BF
:1017E000FEF7E4FE686801227CA1FEF7DFFE7C4F75
:1017F0000D284FF400764FF47A7A1CD179A010238B
:10180000C822CDE9004096211E20FEF7BBFE0096BF
:1018100000223B68072171A0FEF7CDFE98B178A0A9
:101820001023C822CDE9004096211E20FEF7AAFE13
:101830005046FFF70FFFA868012278A1FEF7B6FE19
:101840000D2805D021E076A0FEF7BAFE77A0E7E7E5
:101850007DA01023C822CDE9004096211E20FEF76E
:1018600091FE009600223B6807216CA0FEF7A3FEC4
:10187000B0B17BA01023C822CDE9004096211E20E4
:10188000FEF780FE5046FFF7E5FEA6234FF6FF75F4
:10189000F022009596211E20FEF797FE4E461EE090
:1018A00075A0FEF78DFE77A0E4E77CA01023C82288
:1018B000CDE9004096211E20FEF764FEC820FFF708
:1018C000C9FEA6230095F02296211E20FEF77DFE7C
:1018D000C820FFF7BFFE02213046FEF7D0FF03AA63
:1018E00002A923A0FEF776FE0028DED171A01F21F9
:1018F000C8F800101023CDE90040C82296211E2010
:10190000FEF740FE6EA01023C822CDE90040AA21B8
:101910001E20FEF737FE70A01023C822CDE900403C
:10192000BE211E20FEF72EFE02980523AA21009458
:10193000820A8E20FEF753FE03980523BE210094F1
:10194000820A8E20FEF74BFEC820FFF783FE02219D
:101950003046FEF794FFF7E77C00002420000024C7
:10196000504F4C4152495320483735302F46373578
:101970003000000046415446532054455354000063
:1019800041544F4D40414C49454E54454B00000099
:10199000323031392F352F31320000005573652038
:1019A00055534D41525420666F7220746573740014
:1019B0000004025853442043617264204572726FE0
:1019C00072210000506C6561736520436865636B2C
:1019D0002120000048180024303A0000313A00006D
:1019E0007C010024466C617368204469736B204657
:1019F0006F726D617474696E672E2E2E0000000088
:101A0000466C617368204469736B20466F726D6128
:101A100074204572726F722000000000323A00009C
:101A2000313A414C49454E54454B0000466C617378
:101A300068204469736B20466F726D61742046693B
:101A40006E697368000000004E414E442044697383
:101A50006B20466F726D617474696E672E2E2E0056
:101A60004E414E44204469736B20466F726D617421
:101A7000204572726F722000323A4E414E44444902
:101A8000534B00004E414E44204469736B20466F17
:101A9000726D61742046696E697368005344204317
:101AA000617264204661746673204572726F7221A0
:101AB000000000004641544653204F4B21000000D7
:101AC000534420546F74616C2053697A653A202026
:101AD0002020204D420000005344202046726565BE
:101AE0002053697A653A20202020204D42000000D2
:101AF0000B490A4A10B5C1E9002000208860C8607F
:101B0000086188610C2048610846FEF76DFDBDE85C
:101B10001040044901220248FEF711BD00100140A7
:101B2000880200240C0000244FF04070E1EE100AFF
:101B300070470000000001020304010203040607CD
:101B400008090000641B000800000024C001000018
:101B5000D4020008E81B0008C001002420930700FD
:101B600030030008113C90D00304B13201A2102AC6
:101B7000FF0181CB18EF191E38AE03904C041A54A4
:101B8000041A40041A5C041A3C041A440413D3A92E
:101B90001B9084081321BA1B9060081355161B086C
:101BA0009C081A71082AB42C21142479B1149025A8
:101BB000AB1B90B9041AD90C4A047F01E91339A769
:101BC0001B90ED04138018122434401FC0323032B1
:101BD0003842201C80180718133FC314C003301A62
:081BE000F0181CE0012008913F
:0200000490006A
:10000000642900F08F80752900F08C80782900F039
:10001000C580632900F0D582732900F0DA820020C0
:10002000704710B54C1084EA530404D54042C1F126
:10003000000138BF491E1B4204D55242C3F10003E0
:1000400038BF5B1E00F0F8FA14F0804F04D0404235
:10005000C1F1000138BF491E14F0004F04D05242D4
:10006000C3F1000338BF5B1E10BD00000FB404498C
:1000700010B503AA029800F0B1FA10BC5DF814FBA9
:100080001000002470B5044685690068C10601D5DA
:10009000302600E02026C00707D070BDD4E901213A
:1000A00030469047206A401C20626D1EF6D570BD18
:1000B00070B5044685690078C00707D170BDD4E9E2
:1000C000012120209047206A401C20626D1EF6D539
:1000D00070BD70B50C460546012A05D0287880060B
:1000E00000D5EA69002302E0012305E05B1C93428E
:1000F00002D2E05C0028F9D1A869E618C01AA8610C
:10010000286A184428622846FFF7BCFF04E0D5E9B6
:10011000012114F8010B9047B442F8D32846FFF7A9
:10012000C7FF70BD2DE9F04106460024106875290F
:10013000314616A510D0AFF30080002802DA404205
:1001400013A507E031688A0701D512A502E0490727
:1001500004D511A5012401E0AFF3008000210A229B
:1001600006F1240709E0B0FBF2FCB0FBF2F302FB5E
:100170001C00303078541846491C0028F3D123461F
:100180002A463046BDE8F04100F0B8B90000000052
:100190002D0000002B0000002000000070B5044678
:1001A0000D4621461068AFF300802188090502D56D
:1001B0000F4A7A4402E00E4A7A440E32002104F1DA
:1001C000240305E000F00F060009965D5E54491C0B
:1001D0000028F7D120780023000704D5702D02D025
:1001E00009B1022311322046BDE8704000F086B903
:1001F00046AC03002DE9F05F894604464FF0000A43
:10020000DFF874B1FB44C0F820A02046E1688847BD
:10021000002874D0252806D0D4E901219047206A0F
:10022000401C2062F1E700265F462046E1688847CF
:100230002028054607DB312D05D2781910F8200C4F
:1002400008B10643F1E7B00701D526F00406C4F86B
:100250001CA00027C4F818A02A2D09D0284608F0B1
:10026000E5FA38B304EB8708303DC8F8185019E0B8
:1002700059F8041B204604EB87029161E168884726
:10028000012F054618D1E069002820DA26F0200663
:100290001DE0D8F8180000EB800005EB4000303876
:1002A000C8F818002046E1688847054608F0BEFAFD
:1002B0000028EED1012F0AD02E2D08D12046E1686A
:1002C00088477F1C0546022F46F02006C4DBA06944
:1002D000002803DA404246F00106A061F00701D091
:1002E00026F010066C2D0BD0682D09D04C2D39D07E
:1002F0006A2D35D0742D35D07A2D33D016E038E004
:10030000E1682F4620468847B842054609D16C2F40
:1003100026D04FF48060E1680643204688470546B2
:1003200004E06C2F1AD04FF4807006430DB3A5F192
:100330004100192802D8203546F400664A4629466D
:10034000204626604E46FFF75BFE80B101280BD0A9
:10035000F61D26F0070000F1080956E74020E4E703
:100360008020D8E70020D6E706F104094DE72846AB
:1003700052E7206ABDE8F09F1CAC0300032A40F25C
:10038000308010F0030C00F0158011F8013BBCF137
:10039000020F624498BF11F801CB00F8013B38BF4F
:1003A00011F8013BA2F1040298BF00F801CB38BF5D
:1003B00000F8013B11F0030300F02580083AC0F07B
:1003C000088051F8043B083A51F804CBA0E8081023
:1003D000F5E7121D5CBF51F8043B40F8043BAFF356
:1003E0000080D20724BF11F8013B11F801CB48BFB0
:1003F00011F8012B24BF00F8013B00F801CB48BFE6
:1004000000F8012B704710B5203AC0F00B80B1E81E
:100410001850203AA0E81850B1E81850A0E8185039
:10042000BFF4F5AF5FEA027C24BFB1E81850A0E842
:10043000185044BF18C918C0BDE810405FEA827C5C
:1004400024BF51F8043B40F8043B08BF7047D20773
:1004500028BF31F8023B48BF11F8012B28BF20F814
:10046000023B48BF00F8012B70474FF000020429FF
:10047000C0F0128010F0030C00F01B80CCF1040CD3
:10048000BCF1020F18BF00F8012BA8BF20F8022B07
:10049000A1EB0C0100F00DB85FEAC17C24BF00F8AD
:1004A000012B00F8012B48BF00F8012B70474FF0DB
:1004B000000200B5134694469646203922BFA0E8B4
:1004C0000C50A0E80C50B1F12001BFF4F7AF0907C0
:1004D00028BFA0E80C5048BF0CC05DF804EB8900B1
:1004E00028BF40F8042B08BF704748BF20F8022BF4
:1004F00011F0804F18BF00F8012B70472DE9F0472D
:100500000D4699469246044600F124080168880683
:1005100004D5E06921F01001216000E00120A8422B
:1005200001DD471B00E00027A1697A1902EB0900F1
:10053000081AA0612078C00602D42046FFF7A2FD69
:10054000002608E0D4E901211AF806009047206A45
:10055000401C761C20624E45F4DB2078C0060AD58C
:100560002046FFF78FFD06E0D4E9012130209047B7
:10057000206A401C2062381EA7F10107F4DC07E066
:10058000D4E9012118F805009047206A401C206238
:10059000281EA5F10105F3DC2046FFF789FD207830
:1005A000000602D50220BDE8F0870120FBE710B568
:1005B000436913B1AFF3008001E0FFF78AFD01202A
:1005C00010BD127800F124010A7000224A70012245
:1005D000EDE711684FF0FF32E9E70000074B70B517
:1005E0000D467B4400F011F80446284600F020F840
:1005F00010B14FF0FF3070BD204670BDBF100078C5
:1006000001694A1C02610878704700B58FB0CDE9D6
:1006100001310021059105497944CDE903101146C6
:100620006846FFF7E7FD0FB000BD0000E5FFFFFFE4
:10063000007B00F08000704740F2C93CC0F6000C1F
:10064000604740F28D6CC0F6000C604740F6814C6C
:10065000C0F6000C604740F6F53CC0F6000C604761
:1006600040F6910CC0F6000C604741F2552CC0F6E4
:10067000000C604741F2556CC0F6000C604741F237
:10068000716CC0F6000C604740F6870CC0F6000C99
:10069000604740F65D1CC0F6000C604740F6091C40
:1006A000C0F6000C604740F6791CC0F6000C6047AD
:1006B00040F6750CC0F6000C604740F6B91CC0F659
:1006C000000C604740F69F1CC0F6000C604740F2EB
:1006D0007B3CC0F6000C604740F27F3CC0F6000C4B
:1006E000604740F69D0CC0F6000C604741F2D52CE7
:1006F000C0F6000C604740F6294CC0F6000C60477D
:1007000040F6554CC0F6000C6047FEE7084A002052
:100710004FF4803102E0536B1B0602D4491EFAD21B
:1007200000E011B103499163704703207047000056
:1007300000700052FF0FE01F0E4A10B5516B11F010
:10074000450FFBD00C4B4C0704D5042090639363FA
:10075000032010BDC90702D00120906310BD1169AC
:10076000814201D0102010BD9363506900F0080051
:1007700010BD000000700052FF0FE01F10B50F4CBD
:1007800000204FF480320BE0616B11F0450F07D071
:100790000AB14A0707D5A16B032041F004010AE022
:1007A000521EF1D2F5E7C90704D0A16B012041F038
:1007B0000101A1630249A16310BD00000070005255
:1007C000FF0FE01F0849486B10F0450FFBD04007B2
:1007D00005D5886B40F00400886303207047034808
:1007E000886300207047000000700052FF0FE01F78
:1007F00030B5174B054600205A6B12F0450FFBD061
:10080000540705D5986B40F004009863032030BD71
:10081000D20705D0986B40F001009863012030BDED
:100820001A69AA420ED10B4A9A635A6912F4604FB0
:1008300003D0910404D5132030BD120C0A8030BDC2
:10084000510401D5102030BD1104FCD50F2030BD5E
:1008500000700052FF0FE01F10B50E4C00204FF447
:1008600080320BE0616B11F0450F07D00AB14A07E7
:1008700007D5A16B032041F0040108E0521EF1D21C
:10088000F5E7490604D5A16B002041F04001A163C2
:1008900010BD0000007000527047C268D1E900230B
:1008A00042EA03220B89097B1B0443EA01610A43E4
:1008B000C260002070478268D1E9002342EA032227
:1008C0000B89097B1B0443EA01610A438260002013
:1008D0007047000030B50268094B1A40D1E9013475
:1008E0002343D1E903452C4323434C69896943EAF7
:1008F000442343EA413111430160002030BD000030
:100900008901F0FF70B5B3F5804F05D06FF07041ED
:1009100040F82210002070BD50F82230084C2340CF
:10092000D1E900458E8944EA05148D6889692D0254
:1009300045EA06452C430C431C4340F82240E9E7B6
:100940000000F0CFF0B50C6850F824501A4A15405A
:10095000D1E90123D1E903671A433E4332434E698B
:1009600032438E693243CE6932430E6A32434E6A55
:1009700032438E6A3243CE6A32430E6B32438E6B01
:1009800032434E6B32432A43082B01D142F04002DE
:1009900040F824200A6BB2F5801F05D10A684AB1DD
:1009A000026842F4801202600A681AB10268496B58
:1009B0000A4302600020F0BD8004C0FF00EB820209
:1009C000F0B553688E8903F04044D1E9003543EA1D
:1009D00005138D682D0245EA06450E8A2B430D4D01
:1009E00005EB065633430E7D6F0107EB0666334376
:1009F0008E693343234353600268D20207D54268AD
:100A0000098A22F4700205EB015111434160002074
:100A1000F0BD00000000F0FF30B5D1E901230D6802
:100A20001A43D1E9033423431A434B691A438B69B0
:100A30001A43D1E90734496A012D056807D01A43E2
:100A400022430A436FF30E052A4302600AE025F4AD
:100A5000F845234329430B43416803606FF30E01BC
:100A60000A434260002030BD426942EA41014161CF
:100A70000020704718B5D1E900236FF01F041A4316
:100A80008B68C96804EB431343EA41210A4300928F
:100A90000261002018BD0000F0B5D1E900346FF00C
:100AA0000F055B1E2E0105EB041423438C682F03F6
:100AB0004FEA054C0D8A06EB04248E8A2343CC684A
:100AC000097E4FF07F4E012A07EB05450CEB0656D9
:100AD0000EEB01610CD082683F1107EB0434234315
:100AE0002B4333430B4302F07042134383600FE008
:100AF0008768084A17402203C468A2F5805232432F
:100B00003A4382602B430B4304F070442343C36099
:100B10000020F0BDFF0F0FFF38B50A4D04464FF01F
:100B2000AA306A46009004230021A879604306F0A9
:100B300071F8A879042300216A466043401C06F03E
:100B400069F838BDA01700242DE9FC47254F002582
:100B50008946064600240DF1040810E0CDF8008017
:100B60004A46798870438B08002105F0CBFE7888CF
:100B7000BDF80410B1EB900F04D1641CA4B2B87995
:100B8000A042EBD8B879A04202D10020BDE8FC8792
:100B9000304605F08FFC20B113A02946FFF766FA16
:100BA00016E0B9F1FF3F13D000200AE07A8806FB77
:100BB000001093080022114606F000F8BDF804006A
:100BC000401CADF80400B879BDF804108842EDD897
:100BD0006D1CADB2032DBDD309A03146FFF746FA17
:100BE0000120D3E7A01700246572726F722065722E
:100BF00061736520626C6F636B3A25640D0A0000B7
:100C000062616420626C6F636B20636865636B650F
:100C1000643A25640D0A000038B5114D04460020E1
:100C20006A468DF8000001230021A879604305F091
:100C3000A1FE9DF80000FF2801D0022038BDA87950
:100C4000012300216A466043401C05F093FE9DF895
:100C50000000FF2801D0012038BD002038BD000071
:100C6000A01700242DE9F84F91462F4A8A461D46C9
:100C70009179B0FBF1F3B0FBF1F801FB130B4046A7
:100C800000F0B8F8284907464889B84202D2012046
:100C9000BDE8F88F002428E05C4516D3ADB14A8842
:100CA000A2EB0A01A94201D28EB200E0AEB24B46DD
:100CB00007FB004108FB00405246009605F068FA29
:100CC000AD1B4FF0000AB14405E007FB004108FBF3
:100CD000004005F03FFB30B13846FFF71DFF012013
:100CE00000F024F8CBE7641CA4B20F498879A04235
:100CF000D2D80D46A879A04214D1384600F028FA7F
:100D0000404605F0D7FB6A890020696908E031F8A0
:100D10001040444502D121F8107003E0401C80B21D
:100D20008242F4D80020B3E7A0170024F8B52A4D7A
:100D3000002106464FF6FF7003E06A6922F81100B1
:100D4000491C6A898A42F8D80020A88104461CE020
:100D5000A879042300216A46604305F00BFE9DF844
:100D60000000FF280CD1B6B1A879012300216A4602
:100D70006043401C05F0FEFD9DF80000FF280AD0EE
:100D800016A02146FFF772F9641C6989A142DFD8D9
:100D90006A69002016E09DF803109DF8020000EB40
:100DA00001206989814202D9696921F81040A88926
:100DB000401CA881E8E732F810308B4201D3E8816B
:100DC00002E0401C8142F6D8E889642801D2022062
:100DD000F8BD0020F8BD0000A01700246261642067
:100DE000626C6F636B20696E6465783A25640D0AE6
:100DF0000000000070B5104E104C71892268491E29
:100E0000914200D2216000F001052068294600F0DF
:100E100017F8411C0AD170892168401E884207D901
:100E20002946206000F00CF8411C01D0206070BD04
:100E30004FF0FF3070BD0000A01700243C000024DC
:100E4000F8B5401C0D4600210400009112D00C4F53
:100E5000012626EA0400A8420AD1B879611E0423BB
:100E60006A464843002105F085FD0098401C04D0E7
:100E7000641EEED14FF0FF30F8BD601EF8BD0000DB
:100E8000A0170024F8B5254E00273C46B78113E093
:100E90002046FFF7C1FE70B9204605F00BFB38B1C4
:100EA0001FA02146FFF7E2F82046FFF735FE02E0DB
:100EB000B089401CB081641C7089A042E8D8B18917
:100EC0001BA0FFF7D3F8B089642801D20120F8BD38
:100ED000C0EB40100097642100EB4000B0FBF1F53F
:100EE000002410E02046FFF797FE58B9B07902239E
:100EF0006A461946604305F08DFE0098401C00903C
:100F0000A84203D0641C7089A042EBD80120FFF7EF
:100F10000DFF0028DBD00220F8BD0000A017002440
:100F200042616420626C6F636B3A25640D0A0000B5
:100F3000676F6F645F626C6F636B6E756D3A25648B
:100F40000D0A000010B505F0E1FA00BB184C61690C
:100F500011B1002009F068FC60894100002009F00F
:100F60006FFC606161894900FFF77FFA606970B1C9
:100F70000120FFF7DBFE60B10EA0FFF777F8FFF767
:100F800081FF90B111A0FFF771F8022010BD012080
:100F900010BD618912A0FFF769F8A18916A0FFF7BB
:100FA00065F8E18919A0FFF761F8002010BD000085
:100FB000A0170024666F726D6174206E616E6420EC
:100FC000666C6173682E2E2E0D0A0000666F726DBE
:100FD0006174206661696C6564210D0A000000007F
:100FE000746F74616C20626C6F636B206E756D3A08
:100FF00025640D0A00000000676F6F6420626C6F4B
:10100000636B206E756D3A25640D0A0076616C691C
:101010006420626C6F636B206E756D3A25640D0AF7
:10102000000000000549CA89824202D24FF6FF70D3
:101030007047496931F8100070470000A01700247C
:101040002DE9FF5F00269B461546824679E03F4C1E
:101050006088B0FBF5F1A079414301988319B3FB97
:10106000F1F0FFF7DFFF6189814203D8012004B06E
:10107000BDE8F09F354C6188A479B1FBF5F262437D
:10108000B3FBF2F702FB17326A43B2FBF1F300FB4A
:101090000437B2FBF1F001FB1028A1EB0800B0FB14
:1010A000F5F084B2ABEB0600A04200D284B2524607
:1010B0001FFA88F1384604FB05F91FFA89F305F099
:1010C000FBFA032809D11FFA89F352461FFA88F167
:1010D000384605F0F1FA032804D004282ED068B36E
:1010E0000220C4E71FFA88F14B4652463846FFF704
:1010F000B9FDDFF858804FF0FF3198F80600B7FBD4
:10110000F0F0FFF721FD80B998F806000021B7FB49
:10111000F0F0FFF719FD814698F80600B7FBF0F0F4
:1011200005F0C8F9B9F1000F08D098F80600B7FB30
:10113000F0F0FFF7F1FC0120FFF7F8FD05FB04AA32
:1011400026445E4583D3002091E70000A0170024C9
:1011500008B5CC216A4601238DF80010034989792E
:101160004843194605F056FD08BD0000A0170024AD
:101170002DE9FF4F0027154685B04FF0FF3B7BE080
:10118000404C6088A179B0FBF5F048430699CB1933
:10119000B3FBF0F0FFF746FF61898046414503D875
:1011A000012009B0BDE8F08F364A50889279B0FB33
:1011B000F5F15143B3FBF1F401FB143101FB05FAE6
:1011C000BAFBF0F308FB0231BAFBF0F20291089986
:1011D000C91B03918CB200FB12A9A0EB090080B2DD
:1011E000B0FBF5F0ADF80400844200D304464FF0A4
:1011F000FF3201A8009004FB05F61FFA89F102985E
:10120000C6F38F0305F07EFB08B10220C9E7BDF8E5
:101210000400B0EB960F0FD1B3B2059A1FFA89F113
:10122000029805F01BFC38B9C345414620D008465A
:10123000FFF78EFFC346D8B11248817940884143F9
:10124000A1EB0A000399B0FBF5F08CB280B2ADF8C7
:101250000400844200D30446059A1FFA89F10298DB
:1012600004FB05F63346FFF7FDFC08B1032098E7C1
:1012700005982744304405900898874280D3002081
:101280008FE70000A0170024F0B500240E460822C6
:10129000074601212546102005F01CFE1020FFF70F
:1012A0004BFA00282ED13A040121372005F012FE16
:1012B0003720FFF741FA002824D101230322082117
:1012C000401E05F013FE00220121332005F002FE2E
:1012D0003320FFF731FA002814D1174940F22A527F
:1012E0004B6B134206D14B6B1B03F9D4D1F88040F2
:1012F000D1F880504A6B120705D5886B40F0080082
:1013000088630420F0BD4A6B920705D5886B40F0D6
:10131000020088630220F0BD4A6B920605D5886BF7
:1013200040F0200088630620F0BD044A8A6321BA99
:10133000716029BA3160F0BD00700052FF0FE01FEC
:1013400010B528B190F83510022903D080214165ED
:10135000012010BD1D4A4FF4956301688C189C4212
:1013600007D8042280F83520086820F001000860C2
:1013700029E00C6824F00E040C6001680A440A6835
:1013800022F001020A60016E0A6822F480720A608B
:1013900090F85C30012202FA03F10D4B1960D0E99C
:1013A00019134B60C16E31B10B6823F480730B606D
:1013B000D0E91C134B60002180F8341080F83520F0
:1013C000016D01B18847002010BD0000F0FFFDBF96
:1013D000045402582DE9F041044690F8A000154647
:1013E0000F4601281DD0012684F8A060022084F851
:1013F000A10005EB850000EBC500342204EB800062
:101400003830FFF700F82A463946204604F00EFE31
:101410002068466284F8A160002084F8A000BDE83E
:10142000F0810220FBE7000070B5040004D094F8BE
:10143000A100002510B106E0012070BD204684F80F
:10144000A05000F06BF8022084F8A10020688169A8
:1014500021F070418161D4E901100143D4E9030214
:1014600010430143206882691143816120688268CA
:1014700029490A408260A08A020420688368A6691C
:101480003343134383602068C2680A40C260A08B64
:1014900002042068C368266A33431343C36020688C
:1014A00002690A400261A08C020420680369A66AEE
:1014B000334313430361206842690A404261A08DAF
:1014C000010420684269236B1A430A43426194F87D
:1014D0003500020294F8360001042068C36A03F064
:1014E0007F43C3622068C36A114394F83460334376
:1014F0000B43C3622068416B41F0060141632068E1
:10150000816941F001018161C4F8A450012084F88F
:10151000A100002070BD000000F800F02B4810B5BD
:1015200086B0016841F008010160006800F0080021
:10153000059026481038016841F0100101600068EC
:1015400000F0100005902148001F016841F48071EF
:101550000160016801F480710591016841F4007136
:101560000160016801F400710591016841F4806136
:10157000016000680324694600F480600590202023
:10158000009001200190CDE902041148FFF759F8BD
:101590004FF4E04000900220019000206946CDE920
:1015A00002040E2004900B48FFF74BF848F67C60CD
:1015B000009009486946FFF744F8FF20009007486B
:1015C0006946FFF73EF806B010BD0000E44402583B
:1015D0000004025800200258002402580028025833
:1015E00070B5044690F8A0000E46012820D00125D1
:1015F00084F8A050022084F8A10003EB830000EBE4
:10160000C30004EB80018E63086E3044C1E90F0211
:10161000486E1044486438311A46204604F006FDEE
:101620002068456284F8A150002084F8A00070BDB5
:10163000022070BD70B5044690F8A0000E46012847
:1016400020D0012584F8A050022084F8A10003EBEB
:10165000830000EBC30004EB8001886B3044C86357
:10166000086C10444864C1E9186238311A462046B3
:1016700004F0DCFC2068456284F8A150002084F866
:10168000A00070BD022070BD70B5040015460E4666
:1016900003D094F8210010B107E0012070BD0020B4
:1016A00084F82000204600F01FF82068211DFFF775
:1016B00011F9D4E900023146FFF7FDF8D4E9000240
:1016C0002946FFF7EAF82068016841F0040101604B
:1016D0000448016841F000410160012084F82100C4
:1016E000002070BD00400052274870B586B00168E8
:1016F00041F480510160006800F480500590224858
:101700000C30016841F008010160016801F0080136
:101710000591016841F010010160016801F01001BC
:101720000591016841F04001016000680024032533
:10173000164E00F04000059040206946CDE90004B7
:101740000120CDE902053046FEF77BFF01A94FF4E9
:1017500000700090022081E831000C2004900C48B9
:101760006946FEF76EFF4DF633006946029400901D
:101770003046FEF766FF4FF4F0600090054869467A
:10178000FEF75FFF06B070BDD4440258000C02584B
:10179000001802580010025810B5FEF757FF08490C
:1017A00009684FF4807292FAA2F201F47061B2FA01
:1017B00082F2D140034A515CC8400349086010BD21
:1017C00018440258321B00080000002410B5FEF730
:1017D00042FF07490968102292FAA2F201F0700153
:1017E000B2FA82F2D140034A515CC84010BD0000F9
:1017F00020440258321B0008364930B50A6809688F
:1018000012F00302344BC1F305311B68334C03F073
:1018100010032468DFED320AB7EE001AC4F3CC04DB
:1018200014FB03F300EE103A2E4BB8EE400A07D03B
:101830002D4C012A01D0022A4AD0B4FBF1F10BE071
:10184000244C283C22689506284A03D52468C4F312
:10185000C104E240B2FBF1F101EE901A1968B8EE52
:10186000612AC1F3080101EE901A1968F8EE611AB5
:1018700040EE201A31EE810A22EE000AC1F3462121
:10188000491C00EE901AF8EE600A80EE201AFCEE79
:10189000C10AC0ED000A1968C1F30641491C00EEF7
:1018A000901AF8EE600A80EE201AFCEEC10AC0ED34
:1018B000010A1968C1F30661491C00EE901AF8EE9E
:1018C000600A80EE201ABCEEC10A80ED020A30BD2B
:1018D000074ABFE7284402582C4402583C440258A7
:1018E000000000393844025800093D000090D00340
:1018F00040787D01364930B50A68096812F0030264
:10190000344BC1F305511B68334C03F480732468D6
:10191000DFED320AB7EE001AC4F3CC0414FB03F374
:1019200000EE103A2E4BB8EE400A07D02D4C012A9B
:1019300001D0022A4AD0B4FBF1F10BE0244C283C40
:1019400022689506284A03D52468C4F3C104E240FE
:10195000B2FBF1F101EE901A1968B8EE612AC1F3F9
:10196000080101EE901A1968F8EE611A40EE201A8B
:1019700031EE810A22EE000AC1F34621491C00EE35
:10198000901AF8EE600A80EE201AFCEEC10AC0ED53
:10199000000A1968C1F30641491C00EE901AF8EEDE
:1019A000600A80EE201AFCEEC10AC0ED010A196837
:1019B000C1F30661491C00EE901AF8EE600A80EE51
:1019C000201ABCEEC10A80ED020A30BD074ABFE70B
:1019D000284402582C44025844440258000000395C
:1019E0004044025800093D000090D00340787D013A
:1019F0002DE9F84F0446006800252E46010104F148
:101A00002400FE4FDFF8F88300901DD5606E50B1C2
:101A1000B0F5801F0CD0B0F5001F0ED0B0F5401F00
:101A20001DD001250FE0386840F40030386016E022
:101A30000221201D05F000F903E00098022105F0C5
:101A400073F905000BD02E462088C00523D5606DA4
:101A500005281ED2DFE800F00C11161B1B00D8F879
:101A60000010626E21F440111143C8F80010EBE73A
:101A7000386840F40030386009E00021201D05F08E
:101A8000DBF803E00098002105F04EF905466DB142
:101A900000E001252E432088800528D5A06D8028F0
:101AA0001ED00CDC90B140280ED114E0D8F8001004
:101AB000626D21F007011143C8F80010EBE7C02860
:101AC00013D0B0F5807F10D001250FE0386840F4C6
:101AD0000030386009E00021201D05F0ADF803E07A
:101AE0000098002105F020F9054685B12E43208895
:101AF000DFF8109340052CD5D4F8A400B0F5800F82
:101B000020D00DDCA0B1B0F5001F0FD115E0D8F842
:101B10000010A26D21F4E0711143C8F80010E6E74F
:101B2000B0F5C00F13D0B0F5000F10D001250FE0B5
:101B3000386840F40030386009E00021201D05F0CD
:101B40007BF803E00098002105F0EEF8054675B13A
:101B50002E43208800052DD5D4F8A800B0F1007FD1
:101B600021D00EDCA8B1B0F1807F10D116E0D9F8F9
:101B70000010D4F8A42021F460011143C9F800102A
:101B8000E7E7B0F1407F13D0B0F1806F10D00125AE
:101B90000FE0386840F40030386009E00021201D73
:101BA00005F04AF803E00098002105F0BDF805466D
:101BB0006DB12E43206880011FD5A06CD8B11028CC
:101BC0000FD0202812D0302815D0012514E0D9F8E4
:101BD0000010D4F8A82021F0E0611143C9F80010EA
:101BE000E8E7386840F40030386004E00221201D46
:101BF00005F022F805466DB12E432088C0042BD590
:101C0000E06DB0F5005F20D00DDCA0B1B0F5805FD5
:101C10000FD115E07A48001F0168A26C21F0300155
:101C200011430160E9E7B0F5405F13D0B0F5804F94
:101C300010D001250FE0386840F40030386009E02A
:101C40000021201D04F0F8FF03E00098002105F0BA
:101C50006BF8054685B12E432088800429D5206E77
:101C6000B0F5403F23D010DC08B3B0F5803F14D06E
:101C7000B0F5003F0FD115E0D8F80010E26D21F467
:101C8000E0411143C8F80010E6E7B0F5802F0ED010
:101C9000B0F5A02F0BD001250AE00121201D04F092
:101CA000CBFF03E00098012105F03EF805468DB119
:101CB0002E43208840042AD5D4F8AC00B0F1405F10
:101CC00023D010DC08B3B0F1805F14D0B0F1005F16
:101CD0000FD115E0D8F80010226E21F4E021114355
:101CE000C8F80010E5E7B0F1804F0ED0B0F1A04F7A
:101CF0000BD001250AE00121201D04F09DFF03E027
:101D00000098012105F010F805466DB12E4320889A
:101D100000041FD5E06ED8B1B0F1805F0ED0B0F1F5
:101D2000005F10D0012514E0D9F80010D4F8AC20E1
:101D300021F0E0411143C9F80010E8E7386840F4A9
:101D40000030386004E00121201D04F075FF0546D5
:101D50006DB12E432068C0011ED5606CD0B1012842
:101D60000ED0022811D0032814D0012513E0D8F892
:101D70000010E26E21F040511143C8F80010E9E76D
:101D8000386840F40030386004E00221201D04F07F
:101D900053FF054675B12E432068DFF86CB0400252
:101DA0005AD51A48016841F480710160FEF758FC69
:101DB00082460EE01248001F0168626C21F00301A8
:101DC00011430160E8E7FEF74BFCA0EB0A00642832
:101DD0003AD80E480068C005F5D5B5BB094818309B
:101DE0000068B4F8B01000F4407001F4407188420B
:101DF00019D00448183001680AE000002C44025849
:101E0000504402585844025810440258004802589E
:101E1000026821F4407142F480320260026822F4C8
:101E2000803202600160D4F8B000B0F5807F22D12A
:101E3000FEF716FC824609E0FEF712FCA0EB0A0151
:101E400041F28830814201D9032504E0FE48006850
:101E50008007F1D57DB12E432078DFF8F0A3C007CD
:101E60003CD0A06F182837D025DC78B3082828D0BC
:101E7000102824D12BE0D4F8B000C0F301210329AD
:101E80000ED0DBF8001021F47C51CBF80010EE48A6
:101E90000168B4F8B020C2F30B0211430160DBE724
:101EA000DBF80020EA4B22F47C5203EA10100243D4
:101EB000CBF80020EBE720280ED028280CD00125F5
:101EC0000BE00121201D04F0B7FE04E004E00098BF
:101ED000012104F029FF05465DB12E4320788007DB
:101EE0001ED5606F062819D2DFE800F0160C111617
:101EF0001616DAF80010A26F21F038011143CAF863
:101F00000010EBE70121201D04F096FE03E000988D
:101F1000012104F009FF054675B100E001252E43BB
:101F2000207840071FD5D4F89000062819D2DFE8A2
:101F300000F0160C11161616DAF80010626F21F078
:101F400007011143CAF80010EAE70121201D04F03F
:101F500073FE03E00098012104F0E6FE05469DB102
:101F600000E001252E43207880062BD5D4F88C0084
:101F7000B0F1405F24D011DC10B3B0F1805F15D018
:101F8000B0F1005F10D116E0D9F80010D4F890201D
:101F900021F007011143C9F80010E4E7B0F1804FC8
:101FA0000ED0B0F1A04F0BD001250AE00021201D7A
:101FB00004F042FE03E00098022104F0B5FE05465D
:101FC0008DB12E43207840062BD5D4F89800B0F57B
:101FD000406F24D011DC10B3B0F5806F15D0B0F590
:101FE000006F10D116E0DAF80010D4F88C2021F040
:101FF000E0411143CAF80010E4E7B0F5805F0ED06D
:10200000B0F5A05F0BD001250AE00021201D04F0EF
:1020100013FE03E00098022104F086FE05468DB110
:102020002E43207800062BD5D4F89C00B0F5C04F85
:1020300024D011DC10B3B0F5005F15D0B0F5804F9F
:1020400010D116E0D9F80010D4F8982021F4E0510E
:102050001143C9F80010E4E7B0F5004F0ED0B0F519
:10206000204F0BD001250AE00021201D04F0E4FDE3
:1020700003E00098022104F057FE054665B32E43A5
:10208000207800070BD5D4F88000B0F5805F2DD004
:10209000DAF8002022F440520243CAF800202078E7
:1020A000C0060BD5D4F89400B0F5807F24D0D9F8C1
:1020B000002022F440720243C9F800202068000387
:1020C0002CD5D4F8A000E8B1B0F5803F1FD0B0F512
:1020D000003F21D0012520E0D9F80010D4F89C2041
:1020E00021F460411143C9F80010C9E700980221AA
:1020F00004F01AFE0643D2E70098022104F014FE11
:102100000643DBE70021201D04F096FD03E0009864
:10211000022104F009FE054685B12E4320684003E4
:1021200022D5D4F88400B0F5801F11D0B0F5001F7F
:1021300013D0B0F5401F15D0012514E0D9F80010D8
:10214000D4F8A02021F440311143C9F80010E5E78C
:10215000386840F40030386004E00098012104F051
:10216000E3FD054655B12E432068C0031CD5E06C45
:1021700070B1B0F5803F10D0012514E0DAF80010FE
:10218000D4F8842021F440111143CAF80010EBE781
:10219000386840F40030386004E00221201D04F06B
:1021A0004BFD0546C5B12E432068800004D500983C
:1021B000022104F0B9FD0643206880031BD5E06FBF
:1021C000B8B1B0F5807F10D0B0F5007F11D0B0F578
:1021D000407F0ED001250DE01C4808380168E26CF4
:1021E00021F4803111430160DEE7386840F40030AB
:1021F000386045B32E432068C00207D5D8F80000E8
:10220000226F20F000401043C8F800002068C00092
:1022100008D5DBF80010D4F8B42021F48041114334
:10222000CBF800102068800207D5D8F80010A26E05
:1022300021F080711143C8F800102068400014D5C7
:10224000DBF8001006E01EE07044025854440258C7
:10225000CFFFFF0021F40041CBF80010DBF80010A5
:10226000D4F8B8201143CBF800102068002806DA13
:102270000A480168226D21F04051114301605EB1AE
:102280000120BDE8F88FDAF80010E26F21F4407108
:102290001143CAF80010AEE70020F2E74C440258A0
:1022A00070B504000D4603D094F82C0010B107E07F
:1022B000012070BD002084F82D00204600F018F8A1
:1022C000022084F82C002068211DFEF7A5FBD4E92C
:1022D00000022946FEF7E0FB0448016841F0004196
:1022E0000160012084F82C00002070BD00400052E5
:1022F000444800B587B0016841F002010160006800
:1023000000F0020005903F482038016841F48051F8
:102310000160006800F4805005903A481438016864
:1023200041F004010160016801F0040105910168B8
:1023300041F008010160016801F0080105910168A0
:1023400041F010010160016801F010010591016880
:1023500041F020010160016801F020010591016850
:1023600041F040010160016801F040010591016800
:1023700041F080010160016801F080010591016870
:1023800041F4807101600068694600F48070059036
:102390000D20009002200190012002900320039064
:1023A0000C2004901848FEF74CF94CF20370009092
:1023B00016486946FEF745F94FF6837000901448B9
:1023C0006946FEF73EF94FF63F0000901148694616
:1023D000FEF737F948F2371000900F486946FEF7CC
:1023E00030F94FF47F4000900C486946FEF729F918
:1023F00040F2FF6000900A486946FEF722F907B0F4
:1024000000BD0000F444025800080258000C0258B5
:10241000001002580014025800180258001C0258FC
:102420000020025810B5044690F82C00022809D06C
:10243000022084F82C002068FEF716FB012084F8A7
:102440002C00002010BD70B5044690F82C000D46FD
:1024500002280CD0022084F82C002068FEF70AFB2A
:102460002868022804D0012084F82C00002070BDC8
:102470000520F9E72DE9F05F04004FF000053DD09D
:10248000DFF8C4812068714E714F4045A36A06D0C1
:10249000B04204D0B84202D0E1680F292ED8E26BD6
:1024A0004FF0010B0BEB521CE26802F10801C90866
:1024B000404501FB0CF105D0B04203D0B84201D039
:1024C00008291BD8404503D0B04201D0B84201D101
:1024D000102913D84FF480094B4512D1404507D03D
:1024E000B04205D0B84203D0206BB0F5702F05D8AC
:1024F000256B05B91504B2EB154F02D90120BDE8D3
:10250000F09F94F881004FF0000A20B9204684F82B
:1025100080A000F09FF8022084F881002068016804
:1025200021F001010160A069B0F1806F09D16068FC
:10253000484506D1A06B20B92068016841F480515C
:102540000160A16AE0690843E16B29430843E1683F
:10255000084321688860616A606BA2690843A16BC7
:10256000114308432169084361690843216A08430C
:1025700061680843E16C0843A1680843A16C084303
:10258000A16D08432168C860A06A484529D1206C24
:1025900001282068016827D021F400410160606CA7
:1025A00001282068016822D021F480410160206860
:1025B000404506D0B04204D0B84202D0B5F5702FE5
:1025C00018D0404503D0B04201D0B84202D1B5F591
:1025D000F81F0FD0016821F4005101602168E06A02
:1025E0000864606850B119E041F40041D6E741F455
:1025F0008041DBE7016841F40051EEE7A06A30B9A1
:102600002068816821F4C05141F400618160206834
:10261000816821F4C06141F4806181602068016DAE
:1026200021F0010101656068400206D52068C1689B
:10263000626D21F000411143C160C4F884A084F8A8
:1026400081B000205BE7000000300140003800400E
:10265000003C0040164800B5B5B0016841F00201E9
:102660000160006800F002003490114808300168F1
:1026700041F480410160006800F4804034904FF4E0
:1026800080500090002017906846FFF7B1F94FF492
:1026900060402F9002203090012031900320329032
:1026A0000520339003482FA9FDF7CBFF35B000BDBF
:1026B000E0440258000402582DE9F84F044690F80F
:1026C00080001F4692460A9D01288B4613D04FF08A
:1026D000010984F88090FDF7C3FF94F88120064635
:1026E0000020012A4FF480010ED062688A4209D18D
:1026F000A2683AB902E00220BDE8F88F94F8812080
:10270000042A01D0022136E0BBF1000F32D0BAF129
:10271000000F2FD077B394F88120042A02D005222D
:1027200084F881208046C4F88400C4F864A0A4F82A
:102730006A70A4F86870C4F85CB0A4F86270A4F879
:10274000607020676067206842686FF30F023A4349
:1027500042602068026842F00102026060688842BC
:1027600004D12068016841F400710160E0680F281D
:1027700040D848E0012184F880000846BCE7B4F85E
:10278000620070B12068416989070AD5E16D096866
:102790000162E06D001DE065B4F86200401EA4F81F
:1027A0006200B4F86A0080B12068416948F208020A
:1027B00011420AD0006B616E0860606E001D606699
:1027C000B4F86A00401EA4F86A00681C12D0FDF735
:1027D00047FF801BA8420DD3204605F081F984F8FD
:1027E0008080D4F8840040F48070C4F8840084F8B9
:1027F0008190EBE0B4F862000028C0D1B4F86A0020
:102800000028BCD1C8E0072849D8BDE0B4F8620070
:10281000F0B12068416989071AD5B4F8621001291E
:102820000BD9E16B49B1E16D09680162E06D001DF2
:10283000E065B4F86200801E08E0E16D098801845B
:10284000E06D801CE065B4F86200401EA4F86200F0
:10285000B4F86A00E0B12068416911F4604F17D004
:102860004169090409D5006B616E0860606E001D46
:102870006066B4F86A00801E08E0008E616E088011
:10288000606E801C6066B4F86A00401EA4F86A009E
:10289000681C04D0FDF7E4FE801BA8429CD2B4F86B
:1028A00062000028B2D1B4F86A000028AED173E00B
:1028B000B4F8620080B32068416989072CD5B4F868
:1028C000621003290CD9E16B402909D9E16D09682F
:1028D0000162E06D001DE065B4F86200001F19E0C0
:1028E000B4F8621001290BD9E16B49B1E16D098897
:1028F0000184E06D801CE065B4F86200801E09E090
:10290000E16D097880F82010E06D401CE065B4F8B6
:102910006200401EA4F86200B4F86A0068B3206840
:10292000416911F4604F28D04169090409D5006B51
:10293000616E0860606E001D6066B4F86A00001F7A
:1029400019E0416901F4C041B1F5005F09D9008E79
:10295000616E0880606E801C6066B4F86A00801E3C
:1029600009E090F83000616E0870606E401C60668F
:10297000B4F86A00401EA4F86A00681C04D0FDF791
:102980006FFE801BA84289D2B4F8620000288FD164
:10299000B4F86A0000288BD1002233460821204673
:1029A000009505F00CF928B1D4F8840040F020001F
:1029B000C4F88400204605F093F884F8808084F8F9
:1029C0008190D4F8840000283FF4D8AE012093E62B
:1029D00070B5040015460E4603D094F8450010B1BA
:1029E00007E0012070BD002084F84400204600F07C
:1029F00021F8206804F10801FDF7A4FFA268314620
:102A00002068FDF7DBFFE36A2946D4E90102FDF700
:102A100079FFA168206850F8212042F0010240F8B7
:102A200021200348016841F000410160002070BD91
:102A3000004000521A4800B587B0016841F4805147
:102A40000160006800F48050059015480C30016862
:102A500041F008010160016801F008010591016879
:102A600041F0100101600068694600F01000059017
:102A70004EF2B370009002200190012002900320DA
:102A800003900C2004900748FDF7DBFD4FF68070A3
:102A9000009005486946FDF7D4FD07B000BD000071
:102AA000D4440258000C02580010025810B504001B
:102AB00003D094F83D0010B107E0012010BD0020C4
:102AC00084F83C00204600F00CF8022084F83D0019
:102AD0002068211D05F0B0F8012084F83D00002099
:102AE00010BD70470168CA6842F00102CA60006800
:102AF000018841F001010180002070477047704754
:102B000090F8791090F87A000843704770B5026821
:102B10000446D0691368916810F00F0F64D0594DC6
:102B200003F490760D40354376D0C50707D0DD0518
:102B300005D501251562E26F42F00102E2678207C6
:102B400008D5CA0706D0256802222A62E26F42F041
:102B50000402E267420708D5CA0706D025680422A6
:102B60002A62E26F42F00202E26702070ED503F02A
:102B7000200201F080552A4352EAC17206D025682E
:102B800008222A62E26F42F00802E267E26F002A3E
:102B90003AD0800608D503F0200001F080510843A8
:102BA00002D0204605F07CF9E06F000703D42068CE
:102BB000806840062AD5204605F064F920688168BF
:102BC00049061ED5816821F040018160606FC0B167
:102BD0002D490165606FFEF7B3FB002814D0606FCC
:102BE000016DBDE870400847850615D503F0200546
:102BF00001F0805635430FD02046BDE8704005F007
:102C00004FB92046FFF77BFF70BD05E02046FFF778
:102C100076FF0020E067F7E7C6024FF020050CD5ED
:102C20004E020AD5E803106284F8795084F87A508D
:102C30002046BDE87040FFF761BF06060AD503F0E5
:102C4000800601F400010E4304D02046BDE8704028
:102C500005F0B6BB41060BD5590609D511682046CB
:102C600021F04001116084F8795000F097F8CBE72B
:102C70000002C9D55800C7D5106820F08040106008
:102C8000C2E7000001000010717E009010B5040042
:102C900003D094F8790010B107E0012010BD0020A6
:102CA00084F878002046FDF7E0FC242084F87900C1
:102CB0002068016821F001010160204605F02CF92F
:102CC0000128EBD0606B10B1204605F03FF820687A
:102CD000416821F4904141602068816821F02A0117
:102CE00081602068016841F0010101602046BDE873
:102CF000104005F08FB890F87A30202B4CD1B9B144
:102D0000B2B190F87830012B46D0012380F87830AA
:102D10004166A0F86820A0F86A20FF228168B1F51A
:102D2000805F07D07F2351B1B1F1805F0CD010E0FC
:102D300001207047016921B940F2FF1107E00169E4
:102D400009BBA0F86C2004E00169E1B13F21A0F8C3
:102D50006C100021C167222280F87A2080F8781058
:102D600001688A6842F001028A6001680A6892007C
:102D70000CD50A6842F480720A600068816841F0EC
:102D80008051816006E0A0F86C30E2E7086840F40A
:102D90009070086000207047022070477047FEE77F
:102DA0001CB504460020009001210190164880883F
:102DB00002040D2004F08EF81449486B019002467D
:102DC00001E04A6B019212F0450FFAD0D00705D00E
:102DD000886B40F00100886301201CBD500705D5B9
:102DE000886B40F00400886303201CBD08690D282F
:102DF00001D010201CBD0648886348690090C0F3CC
:102E00004320207000201CBD3400002400700052BC
:102E1000FF0FE01F1B4870B586B0016841F001014B
:102E20000160016801F001010591016841F00401B0
:102E30000160016801F004010591016841F0800121
:102E40000160006803240025694600F080000590B9
:102E500002200126CDE902040B48CDE90065FDF70B
:102E6000F0FB700303948DE8610008486946FDF7A4
:102E7000E8FB0C20009006486946FDF7E2FB06B02F
:102E800070BD0000E04402580000025800080258DB
:102E9000001C02580E490F4A70B506460888126891
:102EA000002422B13046BDE8704002F0F3BD4D88E9
:102EB00000214543084602F047FC02F0B3FDB1B2E1
:102EC000054801E00180641CAC42FBD370BD0000EA
:102ED0005403002440040024000008602DE9F05F42
:102EE000394C3A4DA071296839B102F0F7FDE88AF2
:102EF0002080288B6080BDE8F09F33492C232A2551
:102F00004FF0F0092B2649F2413A4FF4305E45F27A
:102F1000105B89884FF448774FF4A07845F2103C55
:102F20004FF4F07258B1A4F800805145A4F8029013
:102F300001D0614529D123816581A68139E0A4F8BA
:102F400000905145A4F8028001D0614508D1238149
:102F500061456581A68131D1A4F8008062802DE0B1
:102F6000594508D1A4F808E04FF4285060814FF487
:102F70002C50A08106E0A1F5C85063381ED12381F2
:102F80006681A5812280678018E0594508D1A4F8A0
:102F900008E04FF4285060814FF42C50A08106E0E7
:102FA000A1F5C850633804D123816581A6812780AB
:102FB0006280614502D12280A4F802800020BDE831
:102FC000F05F02F0E5BA000054030024400400243E
:102FD0002DE9F04104463A480D46006820B12046EC
:102FE000BDE8F04102F08EBD364E270A4FEA1528A3
:102FF0003146B0884989A0F51343413B0CD0A0F578
:10300000A643103B08D0A0F5AA43103B11D0A0F571
:10301000C853633B27D04BE0084602F0F7FC384624
:1030200002F0E8FCE0B202F0E5FCB08902F0EEFC50
:1030300038E0084602F0EAFC384602F0DBFC708912
:10304000401C80B202F0E2FCE0B202F0D3FCB08996
:1030500002F0DCFC404602F0CDFCB089401C80B29E
:1030600002F0D4FC21E0B07918B93088001B401E72
:1030700084B2084602F0CAFC270A384602F0BAFCBD
:10308000E0B202F0B7FC384602F0B4FCE0B202F065
:10309000B1FCB08902F0BAFC404602F0ABFCE8B2E9
:1030A00002F0A8FC404602F0A5FCE8B202F0A2FC47
:1030B000054930890880881C0280BDE8F081000045
:1030C0004004002454030024FEFF07602DE9F84368
:1030D0001F46144B804608981B6833B13B4600904E
:1030E000404602F02DFDBDE8F883A2EB0802DFF8B0
:1030F0003890521C0C4696B285B20FE021464046ED
:1031000002F022FB02F08EFC0020494602E00D8016
:10311000401C80B2B042FAD3641CA4B2BC42EDD9C8
:10312000E1E7000040040024000008602DE9F04FB2
:1031300095B002F01DFFFE4D4FF6FF7A49F241397E
:1031400045F21036A5F14C0845F2105441F66317CC
:10315000A88018B102F04AFD02F08DB9F548016867
:1031600041F00201016000680EA900F00200139016
:1031700020200E9001200F90109003201190EE4817
:10318000FDF75FFA02F0A4F9EC491022C8F800102C
:103190004046EB49C8F804100021C8F80810C8F8E8
:1031A0000C10C0E904121202C8F81810C8F81C105C
:1031B000C0E908129200C0E90A129201C8F8301062
:1031C0001120C8E90D12CDE90701552009901520FD
:1031D0000290CDE90001D6486A460D914C3806911F
:1031E00007A9FFF7F5FB3220FDF744FAD32002F0E0
:1031F0000DFC02F099F9A88002F096F9A88002F07F
:1032000093F90AEA00205246A88002F08DF9A988B5
:103210000843A880484546D0D42002F0F7FB02F0CE
:1032200083F9A88002F080F9A88002F07DF902EA13
:103230000020A88002F078F9A9880843A880B0424D
:1032400031D04FF45A4002F0E1FB02F06DF9A88052
:103250004FF45B4002F0DAFB02F066F902EA00206C
:10326000A8804FF45C4002F0D1FB02F05DF9A98820
:103270000843A880B0F5004F7DD0A04213D0A12014
:1032800002F0C4FB02F050F9A88002F04DF902EA06
:103290000020A88002F048F9A9880843A880A0F57A
:1032A000AE41613968D080B2484566D1CF2002F086
:1032B000ADFB002002F09EFBC12002F09BFB302002
:1032C00002F098FBED2002F0A1FB642002F092FBDB
:1032D000032002F08FFB122002F08CFB812002F011
:1032E00089FBE82002F092FB852002F083FB10208E
:1032F00002F080FB7A2002F07DFBCB2002F086FBFF
:10330000392002F077FB2C2002F074FB002002F041
:1033100071FB342002F06EFB022002F06BFBF72001
:1033200002F074FB202002F065FBEA2002F06EFB45
:10333000002002F05FFB002002F05CFBC02002F0E6
:1033400065FB1B2002F056FBC12002F05FFB012051
:1033500002F050FBC52002F059FB302002F04AFB7E
:10336000302002F047FBC72002F050FBB72002F0EC
:1033700041FB362002E0B4E0B0E0B4E002F046FBEE
:10338000482002F037FB3A2002F040FB552002F0C3
:1033900031FBB12002F03AFB002002F02BFB1A2097
:1033A00002F028FBB62002F031FB0A2002F022FBDB
:1033B000A22002F01FFBF22002F028FB002002F006
:1033C00019FB262002F022FB012002F013FBE02073
:1033D00002F01CFB0F2002F00DFB2A2002F00AFB7A
:1033E000282002F007FB082002F004FB0E2002F068
:1033F00001FB082002F0FEFA542002F0FBFAA9209B
:1034000002F0F8FA432002F0F5FA0A2002F0F2FA8C
:103410000F2002F0EFFA002002F0ECFA002002F098
:10342000E9FA002002F0E6FA002002F0E3FAE120D7
:1034300002F0ECFA002002F0DDFA152002F0DAFAD0
:10344000172002F0D7FA072002F0D4FA112002F078
:10345000D1FA062002F0CEFA2B2002F0CBFA562049
:1034600002F0C8FA3C2002F0C5FA052002F0C2FAC8
:10347000102002F0BFFA0F2002F0BCFA3F2002F049
:10348000B9FA3F2002F0B6FA0F2002F0B3FA2B206F
:1034900002F0BCFA002002F0ADFA002002F0AAFA15
:1034A000012002F0A7FA3F2002F0A4FA2A2002F03D
:1034B000ADFA002002F09EFA002002F09BFA0020F4
:1034C00002F098FAEF2002F095FA112002F09EFA2D
:1034D0007820FDF7CFF8292001F010BFAF8001F070
:1034E00012BFAC80FDE3B0427ED1ED2002F08EFA37
:1034F000012002F07FFAFE2002F07CFAEE2002F0BA
:1035000085FADE2002F076FA212002F073FAF1202B
:1035100002F07CFA012002F06DFADF2002F076FA68
:10352000102002F067FAC42002F070FA8F2009E040
:1035300054030024E04402580004025800400052A2
:103540000441005202F056FAC62002F05FFA002051
:1035500002F050FAE22002F04DFAE22002F04AFABC
:10356000E22002F047FABF2002F050FAAA2002F04F
:1035700041FAB02002F04AFA0D2002F03BFA002096
:1035800002F038FA0D2002F035FA002002F032FA8B
:10359000112002F02FFA002002F02CFA192002F07C
:1035A00029FA002002F026FA212002F023FA002056
:1035B00002F020FA2D2002F01DFA002002F01AFA83
:1035C0003D2002F017FA002002F014FA5D2002F00C
:1035D00011FA002002F00EFA5D2002F00BFA002032
:1035E00002F008FAB12000E0FEE302F00FFA8020BA
:1035F00002F000FA002002F0FDF98B2002F0FAF947
:10360000002002F0F7F9962002F0F4F9002002F011
:10361000F1F9B22002F0FAF9002002F0EBF90020F3
:1036200002F0E8F9022002F0E5F9002002F0E2F9E8
:10363000032002F0DFF9002002F0DCF9B32002F0F1
:10364000E5F9002002F0D6F9002002F0D3F90020BD
:1036500002F0D0F9002002F0CDF9002002F0CAF902
:10366000002002F0C7F9002002F0C4F9002002F0A7
:10367000C1F9002002F0BEF9002002F0BBF90020E1
:1036800002F0B8F9002002F0B5F9002002F0B2F91A
:10369000002002F0AFF9002002F0ACF9002002F0A7
:1036A000A9F9002002F0A6F9002002F0A3F90020F9
:1036B00002F0A0F9002002F09DF9002002F09AF932
:1036C000002002F097F9002002F094F9002002F0A7
:1036D00091F9B42002F09AF98B2002F08BF90020C6
:1036E00002F088F9962002F085F9002002F082F9B4
:1036F000A12002F07FF9002002F07CF9B52002F051
:1037000085F9022002F076F9002002F073F9032017
:1037100002F070F9002002F06DF9042002F06AF95D
:10372000002002F067F9B62002F070F9002002F0E4
:1037300061F9002002F05EF9B72002F067F900207D
:1037400002F058F9002002F055F93F2002F052F93A
:10375000002002F04FF95E2002F04CF9002002F048
:1037600049F9642002F046F9002002F043F98C2068
:1037700002F040F9002002F03DF9AC2002F03AF9E5
:10378000002002F037F9DC2002F034F9002002F0CA
:1037900031F9702002F02EF9002002F02BF9902070
:1037A00002F028F9002002F025F9EB2002F022F9BE
:1037B000002002F01FF9DC2002F01CF9002002F0CA
:1037C00019F9B82002F022F9002002F013F90020C4
:1037D00002F010F9002002F00DF9002002F00AF9C1
:1037E000002002F007F9002002F004F9002002F0A6
:1037F00001F9002002F0FEF8BA2002F007F92420B7
:1038000002F0F8F8002002F0F5F8002002F0F2F8DB
:10381000002002F0EFF8C12002F0F8F8202002F0BA
:10382000E9F8002002F0E6F8542002F0E3F8002066
:1038300002F0E0F8FF2002F0DDF8002002F0DAF8F4
:10384000C22002F0E3F80A2002F0D4F8002002F0CF
:10385000D1F8042002F0CEF8002002F0CBF8C3200B
:1038600002F0D4F83C2002F0C5F8002002F0C2F8C3
:103870003A2002F0BFF8002002F0BCF8392002F034
:10388000B9F8002002F0B6F8372002F0B3F80020B3
:1038900002F0B0F83C2002F0ADF8002002F0AAF8E7
:1038A000362002F0A7F8002002F0A4F8322002F03F
:1038B000A1F8002002F09EF82F2002F09BF80020D3
:1038C00002F098F82C2002F095F8002002F092F80F
:1038D000292002F08FF8002002F08CF8262002F058
:1038E00089F8002002F086F8242002F083F80020F6
:1038F00002F080F8242002F07DF8002002F07AF82F
:10390000232002F077F8002002F074F83C2002F047
:1039100071F8002002F06EF8362002F06BF80020FB
:1039200002F068F8322002F065F8002002F062F838
:103930002F2002F05FF8002002F05CF82C2002F04B
:1039400059F8002002F056F8292002F053F8002020
:1039500002F050F8262002F04DF8002002F04AF85C
:10396000242002F047F8002002F044F8242002F05E
:1039700041F8002002F03EF8232002F03BF800203E
:1039800002F038F8C42002F041F8622002F032F868
:10399000002002F02FF8052002F02CF8002002F0A1
:1039A00029F8842002F026F8002002F023F8F02005
:1039B00002F020F8002002F01DF8182002F01AF89A
:1039C000002002F017F8A42002F014F8002002F002
:1039D00011F8182002F00EF8002002F00BF8502029
:1039E00002F008F8002002F005F80C2002F002F8BE
:1039F000002001F0FFFF172001F0FCFF002001F084
:103A0000F9FF952001F0F6FF002001F0F3FFF3200D
:103A100001F0F0FF002001F0EDFFE62001F0EAFFE9
:103A2000002001F0E7FFC52001F0F0FF322001F097
:103A3000E1FF002001F0DEFF442001F0DBFF002069
:103A400001F0D8FF652001F0D5FF002001F0D2FF82
:103A5000762001F0CFFF002001F0CCFF882001F09C
:103A6000C9FF002001F0C6FFC62001F0CFFF2020D3
:103A700001F0C0FF002001F0BDFF172001F0BAFFE8
:103A8000002001F0B7FF012001F0B4FF002001F099
:103A9000B1FFC72001F0BAFF002001F0ABFF00200A
:103AA00001F0A8FF002001F0A5FF002001F0A2FF17
:103AB000C82001F0ABFF002001F09CFF002001F0C6
:103AC00099FF002001F096FF002001F093FFC9202C
:103AD00001F09CFF002001F08DFF002001F08AFF23
:103AE000002001F087FF002001F084FF002001F09A
:103AF00081FF002001F07EFF002001F07BFF00200D
:103B000001F078FF002001F075FF002001F072FF46
:103B1000002001F06FFF002001F06CFF002001F099
:103B200069FF002001F066FF002001F063FF002024
:103B300001F060FFE02001F069FF162001F05AFF5C
:103B4000002001F057FF1C2001F054FF002001F07D
:103B500051FF212001F04EFF002001F04BFF3620E5
:103B600001F048FF002001F045FF462001F042FF30
:103B7000002001F03FFF522001F03CFF002001F047
:103B800039FF642001F036FF002001F033FF7A2076
:103B900001F030FF002001F02DFF8B2001F02AFF03
:103BA000002001F027FF992001F024FF002001F000
:103BB00021FFA82001F01EFF002001F01BFFB9200B
:103BC00001F018FF002001F015FFC42001F012FFE2
:103BD000002001F00FFFCA2001F00CFF002001F0CF
:103BE00009FFD22001F006FF002001F003FFD920D9
:103BF00001F000FF002001F0FDFEE02001F0FAFEE0
:103C0000002001F0F7FEF32001F0F4FE002001F0A7
:103C1000F1FEE12001F0FAFE162001F0EBFE00209B
:103C200001F0E8FE1C2001F0E5FE002001F0E2FEBC
:103C3000222001F0DFFE002001F0DCFE362001F042
:103C4000D9FE002001F0D6FE452001F0D3FE002071
:103C500001F0D0FE522001F0CDFE002001F0CAFE9E
:103C6000642001F0C7FE002001F0C4FE7A2001F0BC
:103C7000C1FE002001F0BEFE8B2001F0BBFE002043
:103C800001F0B8FE992001F0B5FE002001F0B2FE6F
:103C9000A82001F0AFFE002001F0ACFEB92001F039
:103CA000A9FE002001F0A6FEC42001F0A3FE002022
:103CB00001F0A0FECA2001F09DFE002001F09AFE56
:103CC000D22001F097FE002001F094FED82001F0F0
:103CD00091FE002001F08EFEE02001F08BFE00201E
:103CE00000E08BE301F086FEF32001F083FE00206C
:103CF00001F080FEE22001F089FE052001F07AFE4D
:103D0000002001F077FE0B2001F074FE002001F08E
:103D100071FE1B2001F06EFE002001F06BFE3420CE
:103D200001F068FE002001F065FE442001F062FE13
:103D3000002001F05FFE4F2001F05CFE002001F04A
:103D400059FE612001F056FE002001F053FE79205B
:103D500001F050FE002001F04DFE882001F04AFEE7
:103D6000002001F047FE972001F044FE002001F002
:103D700041FEA62001F03EFE002001F03BFEB720F0
:103D800001F038FE002001F035FEC22001F032FEC5
:103D9000002001F02FFEC72001F02CFE002001F0D2
:103DA00029FED12001F026FE002001F023FED620BE
:103DB00001F020FE002001F01DFEDD2001F01AFEC2
:103DC000002001F017FEF32001F014FE002001F0A6
:103DD00011FEE32001F01AFE052001F00BFE002089
:103DE00001F008FE0A2000E006E301F003FE0020D7
:103DF00001F000FE1C2001F0FDFD002001F0FAFDA5
:103E0000332001F0F7FD002001F0F4FD442001F023
:103E1000F1FD002001F0EEFD502001F0EBFD00204F
:103E200001F0E8FD622001F0E5FD002001F0E2FD77
:103E3000782001F0DFFD002001F0DCFD882001F09A
:103E4000D9FD002001F0D6FD972001F0D3FD002020
:103E500001F0D0FDA62001F0CDFD002001F0CAFD4B
:103E6000B72001F0C7FD002001F0C4FDC22001F021
:103E7000C1FD002001F0BEFDC72001F0BBFD002008
:103E800001F0B8FDD12001F0B5FD002001F0B2FD38
:103E9000D52001F0AFFD002001F0ACFDDD2001F0E8
:103EA000A9FD002001F0A6FDF32001F0A3FD0020F4
:103EB00001F0A0FDE42001F0A9FD012001F09AFD30
:103EC000002001F097FD012001F094FD002001F099
:103ED00091FD022001F08EFD002001F08BFD2A20D3
:103EE00001F088FD002001F085FD3C2001F082FDFD
