:020000040800F2
:10000000D00B0024AD020008254300084F1800085B
:10001000B9020008950300086D4D000800000000BB
:10002000000000000000000000000000A1440008E3
:10003000210400080000000027430008554500087F
:10004000C7020008C7020008C7020008C70200086C
:10005000C7020008C7020008C7020008C70200085C
:10006000C7020008C7020008C7020008C70200084C
:10007000C7020008C7020008C7020008C70200083C
:10008000C7020008C7020008C7020008C70200082C
:10009000C7020008C7020008C7020008C70200081C
:1000A000C7020008C7020008C7020008C70200080C
:1000B000C7020008C7020008C7020008C7020008FC
:1000C000C7020008C7020008C7020008C7020008EC
:1000D000C7020008294D0008C7020008C70200082F
:1000E000C7020008C702000800000000C70200089D
:1000F000C7020008C7020008C7020008C7020008BC
:10010000C7020008C7020008C7020008C7020008AB
:10011000C7020008C7020008C7020008C70200089B
:10012000C7020008C7020008C7020008C70200088B
:10013000C7020008C7020008C7020008C70200087B
:1001400000000000000000000000000000000000AF
:10015000C7020008C7020008C7020008C70200085B
:10016000C7020008C7020008C7020008C70200084B
:10017000C7020008C7020008C7020008C70200083B
:10018000C7020008C7020008C7020008C70200082B
:10019000C7020008C7020008C7020008C70200081B
:1001A000C7020008C7020008C7020008C70200080B
:1001B000C7020008C7020008C7020008C7020008FB
:1001C000C7020008C7020008C7020008C7020008EB
:1001D000C7020008C7020008C7020008C7020008DB
:1001E000C7020008C7020008C7020008C7020008CB
:1001F000C7020008C7020008C7020008C7020008BB
:10020000C7020008C7020008C7020008C7020008AA
:10021000C7020008C7020008C7020008C70200089A
:10022000C7020008C7020008C7020008000000005B
:10023000C7020008C702000800000000C70200084B
:10024000C7020008C7020008C7020008C70200086A
:10025000C7020008C7020008C7020008C70200085A
:10026000C7020008C7020008C7020008C70200084A
:10027000C7020008C7020008C7020008000000000B
:10028000C702000800000000C702000800000000CC
:1002900000000000C7020008DFF80CD000F068F88A
:1002A00000480047DD520008D00B00240648804774
:1002B00006480047FEE7FEE7FEE7FEE7FEE7FEE74B
:1002C000FEE7FEE7FEE7FEE7594500089902000851
:1002D0002DE9F05F0546002092469B46884606467B
:1002E000814640241BE0284641464746224600F00E
:1002F0002FF853465A46C01A914110D3114618465A
:10030000224600F016F82D1A67EB01084F462246E8
:100310000120002100F00DF817EB00094E41201ECE
:10032000A4F10104DFDC484631462A464346BDE8D5
:10033000F09F202A04DB203A00FA02F100207047E7
:100340009140C2F1200320FA03F319439040704713
:10035000202A04DB203A21FA02F00021704721FA1A
:1003600002F3D040C2F12002914008431946704781
:10037000064C074D06E0E06840F0010394E80700F2
:1003800098471034AC42F6D3FFF78AFFF49B00087D
:10039000149C0008FEE70000F0B5BFF34F8FBFF3D9
:1003A0006F8F1D4900200860BFF34F8FBFF36F8F21
:1003B0001A4C216841F400312160BFF34F8FBFF325
:1003C0006F8F164970310860BFF34F8F081F0068A8
:1003D00043F6FF75104E1036C0F34E31C0F3C9031B
:1003E00005EA4112184642EA80773760401EFAD289
:1003F000491EF5D2BFF34F8F206840F48030206053
:10040000BFF34F8FBFF36F8F03484C30016841F04B
:1004100004010160F0BD000050EF00E014ED00E0C9
:100420007047000070B5B3F5804F05D06FF0704194
:1004300040F82210002070BD50F82230084C2340B4
:10044000D1E900458E8944EA05148D6889692D0239
:1004500045EA06452C430C431C4340F82240E9E79B
:100460000000F0CFF0B50C6850F824501A4A15403F
:10047000D1E90123D1E903671A433E4332434E6970
:1004800032438E693243CE6932430E6A32434E6A3A
:1004900032438E6A3243CE6A32430E6B32438E6BE6
:1004A00032434E6B32432A43082B01D142F04002C3
:1004B00040F824200A6BB2F5801F05D10A684AB1C2
:1004C000026842F4801202600A681AB10268496B3D
:1004D0000A4302600020F0BD8004C0FF00EB8202EE
:1004E000F0B553688E8903F04044D1E9003543EA02
:1004F00005138D682D0245EA06450E8A2B430D4DE6
:1005000005EB065633430E7D6F0107EB066633435A
:100510008E693343234353600268D20207D5426891
:10052000098A22F4700205EB015111434160002059
:10053000F0BD00000000F0FF10B528B190F83510B4
:10054000022903D080214165012010BD1D4A4FF4CE
:10055000956301688C189C4207D8042280F83520E6
:10056000086820F00100086029E00C6824F00E04FF
:100570000C6001680A440A6822F001020A60016EF8
:100580000A6822F480720A6090F85C30012202FA54
:1005900003F10D4B1960D0E919134B60C16E31B1F5
:1005A0000B6823F480730B60D0E91C134B600021AF
:1005B00080F8341080F83520016D01B188470020A3
:1005C00010BD0000F0FFFDBF04540258024801684E
:1005D00041F0010101607047200400582DE9F84FF7
:1005E0006C4C00224FF0B04A4FF0010B4FF0030E5D
:1005F0004FF00F090B680BFA02F73B40BB4270D17A
:100600004D68022D01D0122D12D1D50800EB850CBA
:10061000DCF820605507ED0E09FA05F826EA080611
:10062000D1F8108008FA05F848EA0608CCF82080CE
:10063000D0F80080560091F804C00EFA06F50CF0D0
:10064000030C28EA05080CFA06FC4CEA080CC0F872
:1006500000C0D1F804C0BCF1010F08D0BCF1020FFA
:1006600005D0BCF1110F02D0BCF1120F16D1D0F899
:1006700008C0D1F80C802CEA050C08FA06F848EA04
:100680000C08C0F80880D0F804C02CEA070C0F79D9
:10069000C7F30017974047EA0C074760C768AF43A6
:1006A0008D68B5403D43C5604D68ED006BD53A4D52
:1006B0002E6846F002062E602D6822F0030606F131
:1006C000B04605F002050095D6F808C495072F0F2F
:1006D00009FA07F52CEA050C304DA84202D1002595
:1006E0002EE050E02E4DA84201D1012528E02D4DED
:1006F000A84201D1022523E02B4DA84201D10325B8
:100700001EE02A4DA84201D1042519E0284DA84237
:1007100001D1052514E0274DA84201D106250FE09F
:10072000254DA84201D107250AE0244DA84201D158
:10073000082505E0224DA84201D1092500E00A253F
:10074000BD4045EA0C05C6F8085425684E689D432F
:10075000F60300D51D43256065684E689D43B603CA
:1007600000D51D436560DAF8005056464F689D433A
:10077000FF0200D51D43356075684F689D43BF0279
:1007800000D51D437560521C102AFFF433AFBDE83D
:10079000F88F000080000058F4440258000002580E
:1007A0000004025800080258000C025800100258B9
:1007B0000014025800180258001C02580020025869
:1007C0000024025842694A40426170470AB10183DD
:1007D00070474183704700000148806870470000FF
:1007E0001400002402488168027811448160704737
:1007F00014000024032010B500F0A2F80F2000F030
:1008000007F808B1012010BD00F06CF8002010BD01
:1008100070B50D4D04464FF47A712878B1FBF0F0B5
:100820000A490968B1FBF0F000F03EFE48B9102C0F
:1008300007D200222146501E00F062F800206C60B2
:1008400070BD012070BD00001400002400000024D1
:10085000134A41781160111D03780A1DE3B1436802
:100860000B60017BC37A090741EA0361837A41EA9D
:10087000C341437B41EA8341837B41EA4341C37BDC
:1008800041EA0341437A41EA0321037A007841EACD
:1008900043010143116070470020086010607047F9
:1008A00098ED00E0BFF35F8F0448016821F48031C8
:1008B00001600249002070310860704724ED00E0BB
:1008C000074940F00100086005487038016841F4AC
:1008D00080310160BFF34F8FBFF36F8F704700000F
:1008E00094ED00E07047002809DB012100F01F02B1
:1008F00091404009800000F1E020C0F800117047ED
:100900000E4BF0B41B68C3F30223C3F10704042C9D
:1009100000D904241D1D072D01D2002300E0DB1E99
:10092000012606FA04F56D1E0D409D409E40761E80
:10093000164045EA0601F0BC04F03EBA0CED00E0BA
:10094000064A00F0070110684FF6FF03184040EA1E
:100950000120034908431060704700000CED00E0DF
:100960000000FA0510B500F05BFA084909684FF479
:10097000807292FAA2F201F47061B2FA82F2D1406E
:10098000034A515CC8400349086010BD184402582E
:100990008C5400080000002410B500F0FBF9074952
:1009A0000968102292FAA2F201F07001B2FA82F202
:1009B000D140034A515CC84010BD00002044025899
:1009C0008C540008364930B50A68096812F00302F1
:1009D000344BC1F305311B68334C03F0100324681A
:1009E000DFED320AB7EE001AC4F3CC0414FB03F3B4
:1009F00000EE103A2E4BB8EE400A07D02D4C012ADB
:100A000001D0022A4AD0B4FBF1F10BE0244C283C7F
:100A100022689506284A03D52468C4F3C104E2403D
:100A2000B2FBF1F101EE901A1968B8EE612AC1F338
:100A3000080101EE901A1968F8EE611A40EE201ACA
:100A400031EE810A22EE000AC1F34621491C00EE74
:100A5000901AF8EE600A80EE201AFCEEC10AC0ED92
:100A6000000A1968C1F30641491C00EE901AF8EE1D
:100A7000600A80EE201AFCEEC10AC0ED010A196876
:100A8000C1F30661491C00EE901AF8EE600A80EE90
:100A9000201ABCEEC10A80ED020A30BD074ABFE74A
:100AA000284402582C4402583C44025800000039A3
:100AB0003844025800093D000090D00340787D0181
:100AC000364930B50A68096812F00302344BC1F3A5
:100AD00005511B68334C03F480732468DFED320A40
:100AE000B7EE001AC4F3CC0414FB03F300EE103A83
:100AF0002E4BB8EE400A07D02D4C012A01D0022A15
:100B00004AD0B4FBF1F10BE0244C283C2268950656
:100B1000284A03D52468C4F3C104E240B2FBF1F1D2
:100B200001EE901A1968B8EE612AC1F3080101EECE
:100B3000901A1968F8EE611A40EE201A31EE810A17
:100B400022EE000AC1F34621491C00EE901AF8EE8D
:100B5000600A80EE201AFCEEC10AC0ED000A196896
:100B6000C1F30641491C00EE901AF8EE600A80EECF
:100B7000201AFCEEC10AC0ED010A1968C1F3066132
:100B8000491C00EE901AF8EE600A80EE201ABCEEC6
:100B9000C10A80ED020A30BD074ABFE72844025867
:100BA0002C44025844440258000000394044025882
:100BB00000093D000090D00340787D012DE9F04709
:100BC000DFF8BC9104460E46D9F8000000F007009B
:100BD000B0420CD2D9F8001021F007013143C9F816
:100BE0000010D9F8000000F00700B0427ED1207854
:100BF000DFF89081800707D5D8F80010E26821F06F
:100C00000F011143C8F800102078C00762D0D8F84F
:100C10000010A26821F470611143C8F8001059490E
:100C20006068183902281CD003281DD009680128E3
:100C30001DD04907002960DA524F083F396821F07A
:100C4000070101433960FFF7C7FD0546606841F2BF
:100C50008831022813D003281ED001288A4627D0C5
:100C600034E009688903E5E709688901E2E7C90515
:100C7000E0E7FFF7B1FD411B514501D923E08A466A
:100C80003868C0F3C2000228F3D123E0FFF7A4FDC7
:100C9000411B514501D916E08A463868C0F3C200AD
:100CA0000328F3D116E0FFF797FD411B51450AD801
:100CB0003868C0F3C2000128F5D10BE0FFF78CFDC6
:100CC000411B514502D90320BDE8F087386810F078
:100CD000380FF3D1D9F80010484601F00701B142AE
:100CE0000DD9016821F00701314300E005E0016002
:100CF000006800F00700B04201D00120E4E720784E
:100D0000400707D5D8F80010226921F0700111437F
:100D1000C8F80010207801071B4805D501686269F2
:100D200021F07001114301602178C90605D50168E1
:100D3000A26921F4E061114301602078800607D5A3
:100D40001149091D0868E26920F07000104308602D
:100D500000F066F8D8F800104FF4807292FAA2F210
:100D600001F47061B2FA82F2D140084A515CC84085
:100D7000074908600F20FFF74BFD0020A4E70000A3
:100D800000200052184402581C4402588C54000899
:100D90000000002410B5FFF7E5FD084909680122AD
:100DA00092FAA2F201F00F01B2FA82F2D140044AA3
:100DB000515CC8400349086010BD00001844025847
:100DC0008C5400080400002410B5FFF7E3FF074926
:100DD0000968102292FAA2F201F07001B2FA82F2CE
:100DE000D140034A515CC84010BD00001C44025869
:100DF0008C54000810B5FFF7CDFF074909684FF480
:100E0000807292FAA2F201F4E061B2FA82F2D14069
:100E1000024A515CC84010BD1C4402588C54000862
:100E20003548F0B50068364D10F03801334809D028
:100E30000411082904D0334E10290BD018290BD0E7
:100E40002046F0BD29688906FBD52968C1F3C10198
:100E5000C840F0BD3046F0BD274918310A6809681E
:100E600012F00302284BC1F305111B68274F03F052
:100E700001033F68DFED260AB7EE001AC7F3CC077F
:100E800017FB03F300EE103A224BB8EE400A06D0EF
:100E9000012A01D0022A2BD0B4FBF1F008E02A6825
:100EA000920603D52A68C2F3C102D040B0FBF1F02C
:100EB00001EE900A1868B8EE612AC0F3080001EE4E
:100EC000900A1868F8EE611A40EE201A31EE810A95
:100ED00022EE000AC0F34620401C00EE900AF8EE15
:100EE000600A80EE201ABCEEC10A10EE100AF0BDB6
:100EF000B6FBF1F0DCE70000104402580090D0038C
:100F00000044025840787D012C4402583444025871
:100F100000000039304402582DE9F05F04460078A3
:100F2000DFF8FC8341F28839DFF8F8A3FE4DC007F3
:100F30004ED0D8F800104046C1F3C20102291AD0A1
:100F40000068C0F3C200032805D1DAF8000000F001
:100F5000030002280FD06068B0F5803F12D010B1B6
:100F6000B0F5A02F19D0286820F4803028602868B8
:100F700020F4802009E02868800329D560680028D3
:100F800074D025E0286840F480302860606890B113
:100F9000FFF722FC06464F4609E0286840F480200F
:100FA0002860EFE7FFF718FC801BB8427DD828685F
:100FB0008003F7D50CE0FFF70FFC06464F4604E030
:100FC000FFF70AFC801BB842F0D828688003F7D4EA
:100FD0002078D64F80075AD5D8F8001040464FF4F5
:100FE0007C3B11F0380F13D00068C0F3C200032817
:100FF00003D1DAF8000080070AD0E068A8B32968B6
:1010000021F0190101432960FFF7E6FB06461DE0C8
:101010002868400702D5E0680028B1D02868E16858
:1010200020F0190008432860FFF7D6FB064604E0CD
:10103000FFF7D2FB801B0228B8D828684007F7D5F5
:1010400007E0FFF7C9FB801B0228AFD828684007DC
:10105000F7D538689BFAABF220F47C312069B2FAFC
:1010600082F290400143396011E000E0AEE0286870
:1010700020F001002860FFF7AFFB064604E0FFF711
:10108000ABFB801B022891D828684007F7D4207852
:10109000C00655D5D8F8001040464FF0F84BC1F3C4
:1010A000C201012917D0006800E0EDE0C0F3C200E2
:1010B000032805D1DAF8000000F0030001280AD067
:1010C000E069002828682CD040F080002860FFF7F5
:1010D00083FB064616E02868C00502D5E069802833
:1010E00074D138689BFAABF220F0F841206AB2FA6A
:1010F00082F290400143396022E0FFF76DFB801BD4
:10110000022899D82868C005F7D538689BFAABF251
:10111000216AB2FA82F220F0F84091400843386028
:101120000EE020F080002860FFF756FB064604E042
:10113000FFF752FB801B022887D82868C005F7D428
:101140002078000724D5774F60694C37002838682D
:101150000FD040F001003860FFF73EFB064604E088
:10116000FFF73AFB801B02288DD838688007F7D537
:101170000EE020F001003860FFF72EFB064604E089
:10118000FFF72AFB801B02287ED838688007F7D437
:101190002078800623D5A069002828680FD040F465
:1011A00080502860FFF718FB064604E0FFF714FBA9
:1011B000801B022868D828688004F7D50FE020F447
:1011C00080502860FFF708FB064605E0D6E0FFF7F1
:1011D00003FB801B022857D828688004F7D42078A6
:1011E000400744D5524F386840F480703860FFF7AC
:1011F000F3FA064604E0FFF7EFFA801B642843D8B1
:101200003868C005F7D5474FA068483701280AD08D
:1012100008B1052811D0386820F00100386038681E
:1012200020F0040002E0386840F001003860A06857
:1012300088B1FFF7D1FA064609E0386840F00400AB
:101240003860F0E7FFF7C8FA811B49451CD83868B9
:101250008007F7D50BE0FFF7BFFA064604E0FFF77B
:10126000BBFA811B49450FD838688007F7D4606AFC
:10127000F0B3D8F80010C1F3C20103297ED00228D0
:10128000286820F0807000E079E0286003D0FFF744
:10129000A3FA044687E0FFF79FFA064604E0FFF74B
:1012A0009BFA801B02287BD828688001F7D4DAF8E3
:1012B000001040F2F3329143E26A41EA0211A26A5D
:1012C0001143CAF8001094F834004FF4FE02218E46
:1012D0004002491EA0F5007080B2C1F30801084326
:1012E000218F491E02EA0141084394F83C1000E0B6
:1012F0005CE0491E120202EA016108430949083113
:1013000008600B1D19684FF6F872A06C914392FAB1
:10131000A2F2B2FA82F2904001431960014809E05A
:101320001044025828440258004402580444025809
:1013300000480258001D0168226C21F00C01114385
:1013400001600168626C21F00201114301600168D3
:1013500041F480310160016841F4003101600168AD
:1013600041F480210160016841F0010101602868B9
:1013700040F080702860FFF72FFA01E018E00FE0DE
:10138000044604E0FFF728FA001B022808D8286862
:101390008001F7D50AE0FFF71FFA001B022802D9E7
:1013A0000320BDE8F09F28688001F4D40020F8E70E
:1013B0000120F6E770B5040015460E4603D094F8F8
:1013C000450010B107E0012070BD002084F8440002
:1013D000204600F021F8206804F10801FFF742F8E8
:1013E000A26831462068FFF779F8E36A2946D4E914
:1013F0000102FFF717F8A168206850F8212042F099
:10140000010240F821200348016841F000410160D9
:10141000002070BD004000521A4800B587B0016836
:1014200041F480510160006800F480500590154837
:101430000C30016841F008010160016801F0080109
:101440000591016841F0100101600068694600F0F3
:10145000100005904EF2B370009002200190012020
:101460000290032003900C2004900748FFF7B6F881
:101470004FF68070009005486946FFF7AFF807B057
:1014800000BD0000D4440258000C0258001002585D
:101490004FF0E0210428086903D020F0040008611F
:1014A000704740F00400FAE7401EB0F1807F10B5AD
:1014B00001D3012010BD4FF0E02460610F216017BF
:1014C00003F07AFC0020A06107202061002010BDFD
:1014D0007047704790F8791090F87A000843704789
:1014E00070B502680446D0691368916810F00F0F58
:1014F00064D0594D03F490760D40354376D0C5073E
:1015000007D0DD0505D501251562E26F42F0010225
:10151000E267820708D5CA0706D0256802222A6238
:10152000E26F42F00402E267420708D5CA0706D01C
:10153000256804222A62E26F42F00202E267020793
:101540000ED503F0200201F080552A4352EAC17201
:1015500006D0256808222A62E26F42F00802E2679C
:10156000E26F002A3AD0800608D503F0200001F08F
:101570008051084302D0204603F0DAF8E06F0007FC
:1015800003D42068806840062AD5204603F0C2F8BC
:101590002068816849061ED5816821F0400181607C
:1015A000606FC0B12D490165606FFEF7C5FF00286F
:1015B00014D0606F016DBDE870400847850615D5F1
:1015C00003F0200501F0805635430FD02046BDE8DA
:1015D000704003F0ADB82046FFF77BFF70BD05E01B
:1015E0002046FFF776FF0020E067F7E7C6024FF0DE
:1015F00020050CD54E020AD5E803106284F8795014
:1016000084F87A502046BDE87040FFF761BF0606B7
:101610000AD503F0800601F400010E4304D02046F1
:10162000BDE8704003F014BB41060BD5590609D53F
:101630001168204621F04001116084F8795000F0D3
:1016400005F9CBE70002C9D55800C7D5106820F0CE
:1016500080401060C2E70000010000100147000850
:1016600010B5040003D094F8790010B107E0012010
:1016700010BD002084F87800204600F027F82420D0
:1016800084F879002068016821F00101016020469A
:1016900003F08AF80128EBD0606B10B1204602F00D
:1016A0009DFF2068416821F4904141602068816875
:1016B00021F02A0181602068016841F00101016088
:1016C0002046BDE8104002F0EDBF000010B50068F4
:1016D00086B01B49884230D11A48016841F00101A7
:1016E0000160006800F001000590164810300168A4
:1016F00041F01001016000680121134C00F010005E
:1017000005904FF4007000900220CDE90101039094
:101710000720694604902046FEF760FF4FF4806181
:10172000204600916946FEF759FF2520FFF7DBF8B8
:10173000032225201146FFF7E3F806B010BD000094
:1017400000100140E04402580000025890F87A303E
:10175000202B4CD1B9B1B2B190F87830012B46D0E2
:10176000012380F878304166A0F86820A0F86A204C
:10177000FF228168B1F5805F07D07F2351B1B1F1BD
:10178000805F0CD010E001207047016921B940F260
:10179000FF1107E0016909BBA0F86C2004E00169B2
:1017A000E1B13F21A0F86C100021C167222280F82E
:1017B0007A2080F8781001688A6842F001028A6015
:1017C00001680A6892000CD50A6842F480720A60C7
:1017D0000068816841F08051816006E0A0F86C30BB
:1017E000E2E7086840F4907008600020704702202B
:1017F0007047000030B50068114988420CD1114A89
:101800005088010408D411464FF0000344040978BD
:1018100006D50A2901D0538030BD40F400400DE0C8
:101820000D2909D0084DC0F30D04401C80B2C72813
:1018300029555080EFD830BD40F48040508030BDF5
:10184000001001400C000024280000247047FEE72F
:1018500070B50646094800240188458820464D4356
:10186000214602F0F5FB02F025FDB1B2044801E08B
:101870000180641CAC42FBD370BD0000BC0100249D
:10188000000008602DE9F04F344B2C242A2545F246
:10189000105B2B264FF0F0094FF4305E49F2413ACD
:1018A00099884FF448774FF4A07845F2103C4FF4F4
:1018B000F07268B101209871A3F800805145A3F837
:1018C000029001D061452BD11C815D819E813BE05E
:1018D00000209871A3F8009051454046A3F802807B
:1018E00001D0614507D11C8161455D819E8130D168
:1018F00018805A802DE0594508D1A3F808E04FF42C
:10190000285058814FF42C50988106E0A1F5C8501A
:1019100063381ED11C815E819D811A805F8018E032
:10192000594508D1A3F808E04FF4285058814FF4E6
:101930002C50988106E0A1F5C850633804D11C8171
:101940005D819E811F805A80614502D11A80A3F873
:1019500002800020BDE8F04F02F09EBABC010024D6
:101960002DE9F041364D0F0A90460C4602462946B5
:10197000A888160A4989A0F51343413B0CD0A0F56D
:10198000A643103B08D0A0F5AA43103B11D0A0F508
:10199000C853633B27D04BE0084602F07FFC30463B
:1019A00002F070FCD0B202F06DFCA88902F076FC67
:1019B00038E0084602F072FC304602F063FC6889A9
:1019C000401C80B202F06AFCD0B202F05BFCA88935
:1019D00002F064FC384602F055FCA889401C80B235
:1019E00002F05CFC21E0A87918B92888801A401E12
:1019F00082B2084602F052FC160A304602F042FC5F
:101A0000D0B202F03FFC304602F03CFCD0B202F013
:101A100039FCA88902F042FC384602F033FCE0B2FF
:101A200002F030FC384602F02DFCE0B202F02AFC55
:101A3000044928890880891CA1F80080BDE8F0814C
:101A4000BC010024FEFF07602DE9F04FFE4895B071
:101A5000016841F00201016000680EA900F0020077
:101A6000139020200E9001200F90109003201190D1
:101A7000F648FEF7B3FD02F0B5F9F6481022F64934
:101A8000DFF8CC83C0E9008100218160C160C0E93A
:101A9000041212028161C161C0E908129200C0E91A
:101AA0000A1292010163C0E90D121120CDE9000173
:101AB00055200290152007AACDE90810CDE906109F
:101AC000E4480D916946FFF775FC322003F0D4FB22
:101AD000D32002F0E3FB02F0ABF9DE4D4C35A880D9
:101AE00002F0A6F9A88002F0A3F94FF6FF7A0AEAFD
:101AF0000020A88002F09CF9A98849F2413945F2FA
:101B0000103645F21054084341F663174845A88043
:101B100048D0D42002F0C2FB02F08AF9A88002F07B
:101B200087F9A88002F084F90AEA00205246A880CA
:101B300002F07EF9A9880843A880B04232D04FF461
:101B40005A4002F0ABFB02F073F9A8804FF45B40FF
:101B500002F0A4FB02F06CF902EA0020A8804FF426
:101B60005C4002F09BFB02F063F9A9880843A8805F
:101B7000B0F5004F7ED0A04214D0A12002F08EFB21
:101B800002F056F9A88002F053F902EA0020A8807A
:101B900002F04EF9A9880843A880A0F5AE4161394A
:101BA00000D1AF80ADA0A98803F0E2F8A88848452D
:101BB0007ED1CF2002F072FB002002F063FBC12037
:101BC00002F060FB302002F05DFBED2002F066FBCE
:101BD000642002F057FB032002F054FB122002F0B5
:101BE00051FB812002F04EFBE82002F057FB8520DC
:101BF00002F048FB102002F045FB7A2002F042FB85
:101C0000CB2002F04BFB392002F03CFB2C2002F0F1
:101C100039FB002002F036FB342002F033FB0220B7
:101C200002F030FBF72002F039FB202002F02AFB03
:101C3000EA2002F033FB002002F024FB002002F037
:101C400021FBC02002F02AFB1B2002F01BFBC1205D
:101C500002F024FB012002F015FBC52002F01EFB60
:101C6000302002F00FFB302002F00CFBC72002F006
:101C700015FB00E0B5E0B72002F004FB362002F0CF
:101C80000DFB482002F0FEFA3A2002F007FB552037
:101C900002F0F8FAB12002F001FB002002F0F2FAA3
:101CA0001A2002F0EFFAB62002F0F8FA0A2000E05B
:101CB00099E002F0E7FAA22002F0E4FAF22002F042
:101CC000EDFA002002F0DEFA262002F0E7FA012009
:101CD00002F0D8FAE02002F0E1FA0F2002F0D2FA86
:101CE0002A2002F0CFFA282002F0CCFA082002F0D5
:101CF000C9FA0E2002F0C6FA082002F0C3FA5420F6
:101D000002F0C0FAA92002F0BDFA432002F0BAFAAC
:101D10000A2002F0B7FA0F2002F0B4FA002002F015
:101D2000B1FA002002F0AEFA002002F0ABFA002077
:101D300002F0A8FAE12002F0B1FA002002F0A2FAC3
:101D4000152002F09FFA172002F09CFA072002F0FB
:101D500099FA112002F096FA062002F093FA2B204D
:101D600002F090FA562002F08DFA3C2002F08AFA36
:101D7000052002F087FA102002F084FA0F2002F00A
:101D800081FA3F2002F07EFA3F2002F07BFA0F201A
:101D900002F078FA2B2002F081FA002002F072FAA9
:101DA000002002F06FFA012002F06CFA3F2002F0EE
:101DB00069FA2A2002F072FA002002F063FA002089
:101DC00002F060FA002002F05DFAEF2002F05AFA09
:101DD000112002F063FA782003F04EFA292001F076
:101DE00013BFAC80DEE6B0427DD1ED2002F056FAA2
:101DF000012002F047FAFE2002F044FAEE2002F041
:101E00004DFADE2002F03EFA212002F03BFAF120EA
:101E100002F044FA012002F035FADF2002F03EFA27
:101E2000102002F02FFAC42002F038FA8F2002F0BE
:101E300029FAC62002F032FA002002F023FAE2204A
:101E400002F020FAE22011E0E044025800040258B7
:101E5000004000527001002404410052204C4344D1
:101E60002049443A25780D0A0000000002F00AFAE1
:101E7000E22002F007FABF2002F010FAAA2002F0D6
:101E800001FAB02002F00AFA0D2002F0FBF900205E
:101E900002F0F8F90D2002F0F5F9002002F0F2F955
:101EA000112002F0EFF9002002F0ECF9192002F005
:101EB000E9F9002002F0E6F9212002F0E3F9002020
:101EC00002F0E0F92D2002F0DDF9002002F0DAF94D
:101ED0003D2002F0D7F9002002F0D4F95D2002F095
:101EE000D1F9002000E0FCE302F0CCF95D2002F023
:101EF000C9F9002002F0C6F9B12002F0CFF9802024
:101F000002F0C0F9002002F0BDF98B2002F0BAF90E
:101F1000002002F0B7F9962002F0B4F9002002F098
:101F2000B1F9B22002F0BAF9002002F0ABF90020BA
:101F300002F0A8F9022002F0A5F9002002F0A2F9AF
:101F4000032002F09FF9002002F09CF9B32002F078
:101F5000A5F9002002F096F9002002F093F9002084
:101F600002F090F9002002F08DF9002002F08AF9C9
:101F7000002002F087F9002002F084F9002002F02E
:101F800081F9002002F07EF9002002F07BF90020A8
:101F900002F078F9002002F075F9002002F072F9E1
:101FA000002002F06FF9002002F06CF9002002F02E
:101FB00069F9002002F066F9002002F063F90020C0
:101FC00002F060F9002002F05DF9002002F05AF9F9
:101FD000002002F057F9002002F054F9002002F02E
:101FE00051F9B42002F05AF98B2002F04BF900208D
:101FF00002F048F9962002F045F9002002F042F97B
:10200000A12002F03FF9002002F03CF9B52002F0D7
:1020100045F9022002F036F9002002F033F90320DE
:1020200002F030F9002002F02DF9042002F02AF924
:10203000002002F027F9B62002F030F9002002F06B
:1020400021F9002002F01EF9B72002F027F9002044
:1020500002F018F9002002F015F93F2002F012F901
:10206000002002F00FF95E2002F00CF9002002F0CF
:1020700009F9642002F006F9002002F003F98C202F
:1020800002F000F9002002F0FDF8AC2002F0FAF8AE
:10209000002002F0F7F8DC2002F0F4F8002002F053
:1020A000F1F8702002F0EEF8002002F0EBF890203A
:1020B00002F0E8F8002002F0E5F8EB2002F0E2F888
:1020C000002002F0DFF8DC2002F0DCF8002002F053
:1020D000D9F8B82002F0E2F8002002F0D3F800208E
:1020E00002F0D0F8002002F0CDF8002002F0CAF88B
:1020F000002002F0C7F8002002F0C4F8002002F02F
:10210000C1F8002002F0BEF8BA2002F0C7F824207F
:1021100002F0B8F8002002F0B5F8002002F0B2F8A2
:10212000002002F0AFF8C12002F0B8F8202002F041
:10213000A9F8002002F0A6F8542002F0A3F800202D
:1021400002F0A0F8FF2002F09DF8002002F09AF8BB
:10215000C22002F0A3F80A2002F094F8002002F056
:1021600091F8042002F08EF8002002F08BF8C320D2
:1021700002F094F83C2002F085F8002002F082F88A
:102180003A2002F07FF8002002F07CF8392002F0BB
:1021900079F8002002F076F8372002F073F800207A
:1021A00002F070F83C2002F06DF8002002F06AF8AE
:1021B000362002F067F8002002F064F8322002F0C6
:1021C00061F8002002F05EF82F2002F05BF800209A
:1021D00002F058F82C2002F055F8002002F052F8D6
:1021E000292002F04FF8002002F04CF8262002F0DF
:1021F00049F8002002F046F8242002F043F80020BD
:1022000002F040F8242002F03DF8002002F03AF8F5
:10221000232002F037F8002002F034F83C2002F0CE
:1022200031F8002002F02EF8362002F02BF80020C2
:1022300002F028F8322002F025F8002002F022F8FF
:102240002F2002F01FF8002002F01CF82C2002F0D2
:1022500019F8002002F016F8292002F013F80020E7
:1022600002F010F8262002F00DF8002002F00AF823
:10227000242002F007F8002002F004F8242002F0E5
:1022800001F8002001F0FEFF232001F0FBFF0020F9
:1022900001F0F8FFC42002F001F8622001F0F2FF23
:1022A000002001F0EFFF052001F0ECFF002001F01D
:1022B000E9FF842001F0E6FF002001F0E3FFF020B9
:1022C00001F0E0FF002001F0DDFF182001F0DAFF4F
:1022D000002001F0D7FFA42001F0D4FF002001F07E
:1022E000D1FF182001F0CEFF002001F0CBFF5020DD
:1022F00001F0C8FF002001F0C5FF0C2001F0C2FF73
:10230000002001F0BFFF172001F0BCFF002001F00A
:10231000B9FF952001F0B6FF002001F0B3FFF320D4
:1023200001F0B0FF002001F0ADFFE62001F0AAFFB0
:10233000002001F0A7FFC52001F0B0FF322001F01E
:10234000A1FF002001F09EFF442001F09BFF002030
:1023500001F098FF652001F095FF002001F092FF49
:10236000762001F08FFF002001F08CFF882001F023
:1023700089FF002001F086FFC62001F08FFF20209A
:1023800001F080FF002001F07DFF172001F07AFFAF
:10239000002001F077FF012001F074FF002001F020
:1023A00071FFC72001F07AFF002001F06BFF0020D1
:1023B00001F068FF002001F065FF002001F062FFDE
:1023C000C82001F06BFF002001F05CFF002001F04D
:1023D00059FF002001F056FF002001F053FFC920F3
:1023E00001F05CFF002001F04DFF002001F04AFFEA
:1023F000002001F047FF002001F044FF002001F021
:1024000041FF002001F03EFF002001F03BFF0020D3
:1024100001F038FF002001F035FF002001F032FF0D
:10242000002001F02FFF002001F02CFF002001F020
:1024300029FF002001F026FF002001F023FF0020EB
:1024400001F020FFE02001F029FF162001F01AFF23
:10245000002001F017FF1C2001F014FF002001F004
:1024600011FF212001F00EFF002001F00BFF3620AC
:1024700001F008FF002001F005FF462001F002FFF7
:10248000002001F0FFFE522001F0FCFE002001F0D0
:10249000F9FE642001F0F6FE002001F0F3FE7A2040
:1024A00001F0F0FE002001F0EDFE8B2001F0EAFECD
:1024B000002001F0E7FE992001F0E4FE002001F089
:1024C000E1FEA82001F0DEFE002001F0DBFEB920D5
:1024D00001F0D8FE002001F0D5FEC42001F0D2FEAC
:1024E000002001F0CFFECA2001F0CCFE002001F058
:1024F000C9FED22001F0C6FE002001F0C3FED920A3
:1025000001F0C0FE002001F0BDFEE02001F0BAFEA7
:10251000002001F0B7FEF32001F0B4FE002001F02E
:10252000B1FEE12001F0BAFE162001F0ABFE002062
:1025300001F0A8FE1C2001F0A5FE002001F0A2FE83
:10254000222001F09FFE002001F09CFE362001F0C9
:1025500099FE002001F096FE452001F093FE002038
:1025600001F090FE522001F08DFE002001F08AFE65
:10257000642001F087FE002001F084FE7A2001F043
:1025800081FE002001F07EFE8B2001F07BFE00200A
:1025900001F078FE992001F075FE002001F072FE36
:1025A000A82001F06FFE002001F06CFEB92001F0C0
:1025B00069FE002001F066FEC42001F063FE0020E9
:1025C00001F060FECA2001F05DFE002001F05AFE1D
:1025D000D22001F057FE002001F054FED82001F077
:1025E00051FE002001F04EFEE02001F04BFE0020E5
:1025F00001F048FEF32001F045FE002001F042FE0C
:10260000E22001F04BFE052001F03CFE002001F02D
:1026100039FE0B2001F036FE002001F033FE1B20B6
:1026200001F030FE002001F02DFE342001F02AFEE2
:10263000002001F027FE442001F024FE002001F0DC
:1026400021FE4F2001F01EFE002001F01BFE612044
:1026500001F018FE002001F015FE792001F012FEB5
:10266000002001F00FFE882001F00CFE002001F098
:1026700009FE972001F006FE002001F003FEA620CF
:1026800001F000FE002001F0FDFDB72001F0FAFD91
:10269000002001F0F7FDC22001F0F4FD002001F060
:1026A000F1FDC72001F0EEFD002001F0EBFDD1208F
:1026B00001F0E8FD002001F0E5FDD62001F0E2FD8B
:1026C000002001F0DFFDDD2001F0DCFD002001F045
:1026D000D9FDF32001F0D6FD002001F0D3FDE32069
:1026E00000E00FE301F0DAFD052001F0CBFD002052
:1026F00001F0C8FD0A2001F0C5FD002001F0C2FD77
:102700001C2001F0BFFD002001F0BCFD332001F0D2
:10271000B9FD002001F0B6FD442001F0B3FD00201A
:1027200001F0B0FD502001F0ADFD002001F0AAFD48
:10273000622001F0A7FD002001F0A4FD782001F047
:10274000A1FD002001F09EFD882001F09BFD0020EE
:1027500001F098FD972001F095FD002001F092FD19
:10276000A62001F08FFD002001F08CFDB72001F0C4
:1027700089FD002001F086FDC22001F083FD0020CC
:1027800001F080FDC72001F07DFD002001F07AFD01
:10279000D12001F077FD002001F074FDD52001F07B
:1027A00071FD002001F06EFDDD2001F06BFD0020C9
:1027B00001F068FDF32001F065FD002001F062FDED
:1027C000E42001F06BFD012001F05CFD002001F030
:1027D00059FD012001F056FD002001F053FD0220BB
:1027E00001F050FD002001F04DFD2A2001F04AFDCE
:1027F000002001F047FD3C2001F044FD002001F0E5
:1028000041FD4B2001F03EFD002001F03BFD5D202D
:1028100001F038FD002001F035FD742001F032FD9B
:10282000002001F02FFD842001F02CFD002001F09C
:1028300029FD932001F026FD002001F023FDA220B8
:1028400001F020FD002001F01DFDB32001F01AFD74
:10285000002001F017FDBE2001F014FD002001F062
:1028600011FDC42001F00EFD002001F00BFDCD2074
:1028700001F008FD002001F005FDD32001F002FD6C
:10288000002001F0FFFCDD2001F0FCFC002001F045
:10289000F9FCF32001F0F6FC002001F0F3FCE52048
:1028A00001F0FCFC002001F0EDFC002001F0EAFC4E
:1028B000002001F0E7FC002001F0E4FC022001F020
:1028C000E1FC002001F0DEFC292001F0DBFC00200F
:1028D00001F0D8FC3C2001F0D5FC002001F0D2FC36
:1028E0004B2001F0CFFC002001F0CCFC5D2001F07A
:1028F000C9FC002001F0C6FC742001F0C3FC0020DC
:1029000001F0C0FC842001F0BDFC002001F0BAFC05
:10291000932001F0B7FC002001F0B4FCA22001F0EC
:10292000B1FC002001F0AEFCB32001F0ABFC0020B4
:1029300001F0A8FCBE2001F0A5FC002001F0A2FCE3
:10294000C42001F09FFC002001F09CFCCD2001F090
:1029500099FC002001F096FCD32001F093FC0020AC
:1029600001F090FCDC2001F08DFC002001F08AFCDD
:10297000F32001F087FC002001F084FCE62001F048
:102980008DFC112001F07EFC002001F07BFC342046
:1029900001F078FC002001F075FC562001F072FC7B
:1029A000002001F06FFC762001F06CFC002001F0AB
:1029B00069FC772001F066FC002001F063FC6620D2
:1029C00001F060FC002001F05DFC882001F05AFC61
:1029D000002001F057FC992001F054FC002001F088
:1029E00051FCBB2001F04EFC002001F04BFC992073
:1029F00001F048FC002001F045FC662001F042FC9B
:102A0000002001F03FFC552001F03CFC002001F0CB
:102A100039FC552001F036FC002001F033FC452044
:102A200001F030FC002001F02DFC432001F02AFCD5
:102A3000002001F027FC442001F024FC002001F0DC
:102A400021FCE72001F02AFC322001F01BFC0020D1
:102A500001F018FC552001F015FC002001F012FCDB
:102A6000762001F00FFC002001F00CFC662001F044
:102A700009FC002001F006FC672001F003FC0020A7
:102A800001F000FC672001F0FDFB002001F0FAFBE3
:102A9000872001F0F7FB002001F0F4FB992001F002
:102AA000F1FB002001F0EEFBBB2001F0EBFB00206E
:102AB00001F0E8FB992001F0E5FB002001F0E2FBCA
:102AC000772001F0DFFB002001F0DCFB442001F067
:102AD000D9FB002001F0D6FB562001F0D3FB0020EB
:102AE00001F0D0FB232001F0CDFB002001F0CAFB58
:102AF000332001F0C7FB002001F0C4FB452001F0AA
:102B0000C1FB002001F0BEFBE82001F0C7FB002064
:102B100001F0B8FB002001F0B5FB992001F0B2FBF9
:102B2000002001F0AFFB872001F0ACFB002001F09A
:102B3000A9FB882001F0A6FB002001F0A3FB772071
:102B400001F0A0FB002001F09DFB662001F09AFB44
:102B5000002001F097FB882001F094FB002001F099
:102B600091FBAA2001F08EFB002001F08BFBBB2023
:102B700001F088FB002001F085FB992001F082FB29
:102B8000002001F07FFB662001F07CFB002001F0BB
:102B900079FB552001F076FB002001F073FB5520F6
:102BA00001F070FB002001F06DFB442001F06AFB96
:102BB000002001F067FB442001F064FB002001F0DD
:102BC00061FB552001F05EFB002001F05BFBE9207A
:102BD00001F064FBAA2001F055FB002001F052FB3C
:102BE000002001F04FFB002001F04CFB002001F021
:102BF00055FBAA2001F046FBCF2001F04FFB00203F
:102C000001F040FB002001F03DFB002001F03AFB09
:102C1000002001F037FB002001F034FB002001F020
:102C200031FB002001F02EFB002001F02BFB0020E7
:102C300001F028FB002001F025FB002001F022FB21
:102C4000002001F01FFB002001F01CFB002001F020
:102C500019FB002001F016FB002001F013FB0020FF
:102C600001F010FBF02001F019FB002001F00AFB3D
:102C7000502001F007FB002001F004FB002001F0D0
:102C800001FB002001F0FEFAF32001F007FB002019
:102C900001F0F8FAF92001F001FB062001F0F2FA48
:102CA000102001F0EFFA292001F0ECFA002001F0E9
:102CB000E9FA3A2001F0F2FA552001F0E3FA112086
:102CC00001F0ECFA642002F0D7FA292001F0E6FACC
:102CD000352001F0E3FA002001F0D4FA512001F090
:102CE000DDFAFF2001F0CEFA532001F0D7FA2C20B4
:102CF00001F0C8FA552001F0D1FA822001F0C2FAA1
:102D00002C20FDE3A0427DD14FF47043552118469D
:102D100001F0DAFA4FF2010BAA21584601F0D4FA79
:102D200052214FF2020001F0CFFA08214FF20300C6
:102D300001F0CAFA01214FF2040001F0C5FA0D2199
:102D40004FF4304001F0C0FA0D214BF2010001F0C8
:102D5000BBFA0D214BF2020001F0B6FA34214FF418
:102D6000364001F0B1FA34214BF2016001F0ACFAC7
:102D700034214BF2026001F0A7FA0D214FF43140EB
:102D800001F0A2FA0D214BF2011001F09DFA0D2184
:102D90004BF2021001F098FA34214FF4374001F061
:102DA00093FA34214BF2017001F08EFA34214BF288
:102DB000027001F089FA00214FF4324001F084FAE8
:102DC00000214BF2012001F07FFA00214BF202209A
:102DD00001F07AFA24214FF4384001F075FA2421E9
:102DE0004BF6010001F070FA24214BF6020001F0CD
:102DF0006BFA01214FF43F4001F066FA0F214FF4C6
:102E0000334000E0FEE301F05FFA0F214BF20130A6
:102E100001F05AFA0F214BF2023001F055FA342139
:102E20004FF4394001F050FA34214BF6011001F013
:102E30004BFA34214BF6021001F046FA08214FF408
:102E4000354001F041FA08214BF2015001F03CFA03
:102E500008214BF2025001F037FA03214FF44240AF
:102E600001F032FA24214FF43A4001F02DFA2421E6
:102E70004BF6012001F028FA24214BF6022001F044
:102E800023FA00214FF43C4001F01EFA78214BF662
:102E9000014001F019FA00214BF6024001F014FA4A
:102EA00000214FF43D4001F00FFA78214BF601501C
:102EB00001F00AFA00214BF6025001F005FA002158
:102EC0004FF43E4001F000FA64214BF6016001F03E
:102ED000FBF900214FF4514001F0F6F933214DF296
:102EE000011001F0F1F900214DF2021001F0ECF9AE
:102EF00034214DF2031001F0E7F900214DF20410E6
:102F000001F0E2F93A214DF2051001F0DDF900215E
:102F10004DF2061001F0D8F94A214DF2071001F0E8
:102F2000D3F900214DF2081001F0CEF95C214DF2E9
:102F3000091001F0C9F900214DF20A1001F0C4F99D
:102F400081214DF20B1001F0BFF900214DF20C1060
:102F500001F0BAF9A6214DF20D1001F0B5F90021EA
:102F60004DF20E1001F0B0F9E5214DF20F1001F015
:102F7000ABF901214DF2101001F0A6F913214DF229
:102F8000111001F0A1F901214DF2121001F09CF98C
:102F900054214DF2131001F097F901214DF2141054
:102FA00001F092F982214DF2151001F08DF9012105
:102FB0004DF2161001F088F9CA214DF2171001F0F8
:102FC00083F902214DF2181001F07EF900214DF233
:102FD000191001F079F902214DF21A1001F074F97B
:102FE00001214DF21B1001F06FF902214DF21C106E
:102FF00001F06AF934214DF21D1001F065F902214A
:103000004DF21E1001F060F967214DF21F1001F022
:103010005BF902214DF2201001F056F984214DF2A6
:10302000211001F051F902214DF2221001F04CF96A
:10303000A4214DF2231001F047F902214DF2241092
:1030400001F042F9B7214DF2251001F03DF90221BE
:103050004DF2261001F038F9CF214DF2271001F082
:1030600033F902214DF2281001F02EF9DE214DF244
:10307000291001F029F902214DF22A1001F024F95A
:10308000F2214DF22B1001F01FF902214DF22C100C
:1030900001F01AF9FE214DF22D1001F015F903216E
:1030A0004DF22E1001F010F910214DF22F1001F009
:1030B0000BF903214DF2301001F006F933214DF2E6
:1030C000311001F001F903214DF2321001F0FCF84A
:1030D0006D214DF2331001F0F7F800214FF452400A
:1030E00001F0F2F833214DF2012001F0EDF800215A
:1030F0004DF2022001F0E8F834214DF2032001F0F6
:10310000E3F800214DF2042001F0DEF83A214DF2FF
:10311000052001F0D9F800214DF2062001F0D4F885
:103120004A214DF2072001F0CFF800214DF208208E
:1031300001F0CAF85C214DF2092001F0C5F8002128
:103140004DF20A2001F0C0F881214DF20B2001F070
:10315000BBF800214DF20C2001F0B6F8A6214DF28B
:103160000D2001F0B1F800214DF20E2001F0ACF875
:10317000E5214DF20F2001F0A7F801214DF21020BA
:1031800001F0A2F813214DF2112001F09DF8012168
:103190004DF2122001F098F854214DF2132001F065
:1031A00093F801214DF2142001F08EF882214DF2A6
:1031B000152001F089F801214DF2162001F084F864
:1031C000CA214DF2172001F07FF802214DF218209C
:1031D00001F07AF800214DF2192001F075F8022172
:1031E0004DF21A2001F070F801214DF21B2001F080
:1031F0006BF802214DF21C2001F066F834214DF2EB
:103200001D2001F061F802214DF21E2001F05CF852
:1032100067214DF21F2001F057F802214DF22020C6
:1032200001F052F884214DF2212001F04DF80221E5
:103230004DF2222001F048F8A4214DF2232001F0A4
:1032400043F802214DF2242001F03EF8B7214DF25F
:10325000252001F039F802214DF2262001F034F842
:10326000CF214DF2272001F02FF802214DF2282026
:1032700001F02AF8DE214DF2292001F025F8022183
:103280004DF22A2001F020F8F2214DF22B2001F01E
:103290001BF802214DF22C2001F016F8FE214DF210
:1032A0002D2001F011F803214DF22E2001F00CF831
:1032B00010214DF22F2001F007F803214DF23020AC
:1032C00001F002F833214DF2312000F0FDFF03211F
:1032D0004DF2322000F0F8FF6D214DF2332000F066
:1032E000F3FF00214FF4534000F0EEFF33214DF285
:1032F000013000F0E9FF00214DF2023000F0E4FF60
:1033000034214DF2033000F0DFFF00214DF2043094
:1033100000F0DAFF3A214DF2053000F0D5FF002130
:103320004DF2063000F0D0FF4A214DF2073000F098
:10333000CBFF00214DF2083000F0C6FF5C214DF2BA
:10334000093000F0C1FF00214DF20A3000F0BCFF4F
:1033500081214DF20B3000F0B7FF00214DF20C300F
:1033600000F0B2FFA6214DF20D3000F0ADFF0021BC
:103370004DF20E3000F0A8FFE5214DF20F3000F0C5
:10338000A3FF01214DF2103000F09EFF13214DF2FA
:10339000113000F099FF01214DF2123000F094FF3E
:1033A00054214DF2133000F08FFF01214DF2143003
:1033B00000F08AFF82214DF2153000F085FF0121D7
:1033C0004DF2163000F080FFCA214DF2173000F0A8
:1033D0007BFF02214DF2183000F076FF00214DF204
:1033E000193000F071FF02214DF21A3000F06CFF2D
:1033F00001214DF21B3000F067FF02214DF21C301D
:1034000000F062FF34214DF21D3000F05DFF02211B
:103410004DF21E3000F058FF67214DF21F3000F0D2
:1034200053FF02214DF2203000F04EFF84214DF277
:10343000213000F049FF02214DF2223000F044FF1C
:10344000A4214DF2233000F03FFF02214DF2243041
:1034500000F03AFFB7214DF2253000F035FF022190
:103460004DF2263000F030FFCF214DF2273000F032
:103470002BFF02214DF2283000F026FFDE214DF215
:10348000293000F021FF02214DF22A3000F01CFF0C
:10349000F2214DF22B3000F017FF02214DF22C30BB
:1034A00000F012FFFE214DF22D3000F00DFF032140
:1034B0004DF22E3000F008FF10214DF22F3000F0B9
:1034C00003FF03214DF2303000F0FEFE33214DF2B8
:1034D000313000F0F9FE03214DF2323000F0F4FEFD
:1034E0006D214DF2333000F0EFFE00214FF45440D7
:1034F00000F0EAFE33214DF2014000F0E5FE00E06D
:1035000082E300214DF2024000F0DEFE34214DF254
:10351000034000F0D9FE00214DF2044000F0D4FE3B
:103520003A214DF2054000F0CFFE00214DF2064059
:1035300000F0CAFE4A214DF2074000F0C5FE00210E
:103540004DF2084000F0C0FE5C214DF2094000F051
:10355000BBFE00214DF20A4000F0B6FE81214DF283
:103560000B4000F0B1FE00214DF20C4000F0ACFE2B
:10357000A6214DF20D4000F0A7FE00214DF20E40B5
:1035800000F0A2FEE5214DF20F4000F09DFE01216A
:103590004DF2104000F098FE13214DF2114000F062
:1035A00093FE01214DF2124000F08EFE54214DF2A7
:1035B000134000F089FE01214DF2144000F084FE1A
:1035C00082214DF2154000F07FFE01214DF21640A0
:1035D00000F07AFECA214DF2174000F075FE02217C
:1035E0004DF2184000F070FE00214DF2194000F03D
:1035F0006BFE02214DF21A4000F066FE01214DF2F1
:103600001B4000E003E300F05FFE02214DF21C408E
:1036100000F05AFE34214DF21D4000F055FE02210B
:103620004DF21E4000F050FE67214DF21F4000F0A9
:103630004BFE02214DF2204000F046FE84214DF267
:10364000214000F041FE02214DF2224000F03CFEFC
:10365000A4214DF2234000F037FE02214DF2244018
:1036600000F032FEB7214DF2254000F02DFE022180
:103670004DF2264000F028FECF214DF2274000F009
:1036800023FE02214DF2284000F01EFEDE214DF205
:10369000294000F019FE02214DF22A4000F014FEEC
:1036A000F2214DF22B4000F00FFE02214DF22C4092
:1036B00000F00AFEFE214DF22D4000F005FE032130
:1036C0004DF22E4000F000FE10214DF22F4000F090
:1036D000FBFD03214DF2304000F0F6FD33214DF2A9
:1036E000314000F0F1FD03214DF2324000F0ECFDDD
:1036F0006D214DF2334000F0E7FD00214FF45540BD
:1037000000F0E2FD33214DF2015000F0DDFD00211B
:103710004DF2025000F0D8FD34214DF2035000F07C
:10372000D3FD00214DF2045000F0CEFD3A214DF2C0
:10373000055000F0C9FD00214DF2065000F0C4FD17
:103740004A214DF2075000F0BFFD00214DF2085014
:1037500000F0BAFD5C214DF2095000F0B5FD0021EA
:103760004DF20A5000F0B0FD81214DF20B5000F0F7
:10377000ABFD00214DF20C5000F0A6FDA6214DF24C
:103780000D5000F0A1FD00214DF20E5000F09CFD07
:10379000E5214DF20F5000F097FD01214DF2105040
:1037A00000F092FD13214DF2115000F08DFD01212A
:1037B0004DF2125000F088FD54214DF2135000F0EC
:1037C00083FD01214DF2145000F07EFD82214DF267
:1037D000155000F079FD01214DF2165000F074FDF6
:1037E000CA214DF2175000F06FFD02214DF2185022
:1037F00000F06AFD00214DF2195000F065FD022134
:103800004DF21A5000F060FD01214DF21B5000F006
:103810005BFD02214DF21C5000F056FD34214DF2AB
:103820001D5000F051FD02214DF21E5000F04CFDE4
:1038300067214DF21F5000F047FD02214DF220504C
:1038400000F042FD84214DF2215000F03DFD0221A7
:103850004DF2225000F038FDA4214DF2235000F02B
:1038600033FD02214DF2245000F02EFDB7214DF220
:10387000255000F029FD02214DF2265000F024FDD4
:10388000CF214DF2275000F01FFD02214DF22850AC
:1038900000F01AFDDE214DF2295000F015FD022145
:1038A0004DF22A5000F010FDF2214DF22B5000F0A5
:1038B0000BFD02214DF22C5000F006FDFE214DF2D1
:1038C0002D5000F001FD03214DF22E5000F0FCFCC4
:1038D00010214DF22F5000F0F7FC03214DF2305033
:1038E00000F0F2FC33214DF2315000F0EDFC0321E9
:1038F0004DF2325000F0E8FC6D214DF2335000F0F3
:10390000E3FC00214FF4564000F0DEFC33214DF281
:10391000016000F0D9FC00214DF2026000F0D4FCFF
:1039200034214DF2036000F0CFFC00214DF2046021
:1039300000F0CAFC3A214DF2056000F0C5FC002100
:103940004DF2066000F0C0FC4A214DF2076000F025
:10395000BBFC00214DF2086000F0B6FC5C214DF28A
:10396000096000F0B1FC00214DF20A6000F0ACFCEF
:1039700081214DF20B6000F0A7FC00214DF20C609C
:1039800000F0A2FCA6214DF20D6000F09DFC00218C
:103990004DF20E6000F098FCE5214DF20F6000F052
:1039A00093FC01214DF2106000F08EFC13214DF2CA
:1039B000116000F089FC01214DF2126000F084FCDE
:1039C00054214DF2136000F07FFC01214DF2146090
:1039D00000F07AFC82214DF2156000F075FC0121A7
:1039E0004DF2166000F070FCCA214DF2176000F035
:1039F0006BFC02214DF2186000F066FC00214DF2D4
:103A0000196000F061FC02214DF21A6000F05CFCCC
:103A100001214DF21B6000F057FC02214DF21C60A9
:103A200000F052FC34214DF21D6000F04DFC0221EB
:103A30004DF21E6000F048FC67214DF21F6000F05F
:103A400043FC02214DF2206000F03EFC84214DF247
:103A5000216000F039FC02214DF2226000F034FCBC
:103A6000A4214DF2236000F02FFC02214DF22460CE
:103A700000F02AFCB7214DF2256000F025FC022160
:103A80004DF2266000F020FCCF214DF2276000F0BF
:103A90001BFC02214DF2286000F016FCDE214DF2E5
:103AA000296000F011FC02214DF22A6000F00CFCAC
:103AB000F2214DF22B6000F007FC02214DF22C6048
:103AC00000F002FCFE214DF22D6000F0FDFB032111
:103AD0004DF22E6000F0F8FB10214DF22F6000F047
:103AE000F3FB03214DF2306000F0EEFB33214DF289
:103AF000316000F0E9FB03214DF2326000F0E4FB9D
:103B00006D214DF2336000F0DFFB5521184600F0C7
:103B1000DBFBAA21584600F0D7FB52214FF20200EE
:103B200000F0D2FB08214FF2030000F0CDFB002192
:103B30004FF2040000F0C8FBCC214FF4314000F0FC
:103B4000C3FB00214BF2011000F0BEFB05214FF436
:103B5000364000F0B9FB70214FF4374000F0B4FB61
:103B600070214BF2017000F0AFFB01214FF438409F
:103B700000F0AAFB03214BF6010000F0A5FB032196
:103B80004BF6020000F0A0FB03214BF6030000F00F
:103B90009BFB02214FF43C4000F096FB00214BF6CA
:103BA000014000F091FB00214BF6024000F08CFB3D
:103BB000D0214FF4494000F087FB02214CF6011060
:103BC00000F082FB50214CF6021000F07DFB5021EA
:103BD0004CF6031000F078FB50214CF6041000F076
:103BE00073FB00214FF4545000F06EFB55214FF44D
:103BF000685000F069FB4FF4885000F04FFB7820CC
:103C000001F048FB4FF4245000F048FBB9E0B84203
:103C1000FCD1E22000F042FB1D2000F033FB02202B
:103C200000F030FB042000F02DFB642001F032FB9B
:103C3000E02000F033FB012000F024FB0A2001F01B
:103C40001BFBE02000F02AFB032000F01BFB0C20F4
:103C500001F012FB012000F021FB0A2001F00CFB17
:103C6000E62000F01BFB2F2000F00CFBFF2000F0F3
:103C700009FBFF2000F006FBB02000F00FFB202026
:103C800000F000FB002000F0FDFA032000F0FAFA3B
:103C900040F21F3000F0F6FA012000F0F3FA40F293
:103CA000DF1000F0EFFA002000F0ECFAB42000F092
:103CB000F5FA042000F0E6FA40F21F4000F0E2FAC4
:103CC000002000F0DFFA2E2000F0DCFA002000F0E7
:103CD000D9FA002000F0D6FA002000F0D3FA002034
:103CE00000F0D0FAB62000F0D9FA022000F0CAFAAB
:103CF0004FF4037000F0C6FA002000F0C3FA17205A
:103D000000F0C0FA152000F0BDFA002000F0BAFA69
:103D1000002000F0B7FAF02000F0C0FA032000F015
:103D2000B1FA292000F0BAFAD02000F0B7FA00204A
:103D300000F0A8FABE2000F0B1FA052000F0A2FAC7
:103D4000FE2000F09FFA012000F09CFA002000F015
:103D500099FA002000F096FA002000F093FAB820BB
:103D600000F09CFA032000F08DFA012000F08AFA9E
:103D7000BA2000F093FA012000F084FA642000F0E9
:103D800061F8A888484505D0B04203D0A04201D0D0
:103D9000B84217D1D8F8041121F00F01C8F8041166
:103DA000D8F8041121F47061C8F80411D8F804118E
:103DB00041F00501C8F80411D8F8041141F4A061DC
:103DC000C8F804110020FDF75DFD054801222021FF
:103DD000FCF7FCFC5046FDF73BFD15B0BDE8F08F4D
:103DE000000402581FB5FCF75DFD00208DF80C00A3
:103DF0004FF0C04201921B228DF8082001218DF85E
:103E000009008DF80D0003228DF800108DF80A00CE
:103E10008DF80E008DF8010068468DF80B208DF8A6
:103E20000F10FCF715FD0420FCF74AFD1FBD000034
:103E3000034808B50088ADF80000BDF8000008BDD3
:103E4000000008600246BE2000B500F027FA0520F9
:103E500000F018FA00EE102A9FED0D1BB8EE400B93
:103E600020EE010BBCEEC00B10EE100A80B200F089
:103E700009FA012000F006FAFF2000F003FA002002
:103E800000F000FA5DF804EB002000F0FBB9000040
:103E90006666666666660440F0B56C4D002341F6C2
:103EA00063142946AA798988012A01D01AB11BE036
:103EB000A14202D118E0A14216D1082814D2DFE8AD
:103EC00000F00406080A0C0E101206200CE0072071
:103ED0000AE0042008E0052006E0012004E00020BC
:103EE00002E0032000E0022045F21032A1F5134762
:103EF00045F21056413F05D0914203D0B14201D066
:103F0000A14277D1082812D2DFE800F01104060898
:103F10000A0C0E1080230AE0402308E0C02306E0CC
:103F2000202304E0602302E0A02300E0E023B1426C
:103F300002D14FF4585000E03620914205D0B142F2
:103F400003D0A14201D043F00803194600F0BCF9A8
:103F5000AA88A2420AD069889806288802D5884291
:103F600002D303E0884201D929806880B24268897F
:103F700041D100F093F9002000F084F96889401CD9
:103F800080B200F08BF9002000F07CF96889801C79
:103F900080B200F083F92888401EC0F30F2000F0A3
:103FA00071F96889C01C80B200F078F92878401E49
:103FB000C0B200F067F9A88900F070F9002000F0A5
:103FC00061F9A889401C80B200F068F9002000F077
:103FD00059F9A889801C80B200F060F96888401EF9
:103FE000C0F30F2000F04EF9A889C01C80B200F089
:103FF00055F922E028E000F051F9002000F042F9E4
:10400000002000F03FF92888401EC0F30F2000F088
:1040100039F92878401EC0B200F034F9A88900F0C0
:104020003DF9002000F02EF9002000F02BF96888FF
:10403000401EC0F30F2000F025F9A878BDE8F0403D
:10404000401EC0B200F01EB9F0BD0000BC0100244B
:10405000F0B53F4D060A0C4602462846270AA988B5
:104060004089A1F51343413B28D0A1F5A643103B5D
:1040700024D0A1F5C853633B2FD0A1F5AA43103B30
:1040800064D100F00BF9304600F0FCF86889401C60
:1040900080B200F003F9D0B200F0F4F8A88900F083
:1040A000FDF8384600F0EEF8A889401C80B200F018
:1040B000F5F8E0B2BDE8F04000F0E4B800F0EEF84A
:1040C000304600F0DFF8D0B200F0DCF8A88900F04C
:1040D000E5F8384600F0D6F8EBE7A97929B300F007
:1040E000DDF8304600F0CEF8D0B200F0CBF82888EA
:1040F000401EC0F30F2000F0C5F82878401EC0B263
:1041000000F0C0F8A88900F0C9F8384600F0BAF805
:10411000E0B200F0B7F86888401EC0F30F2000F04E
:10412000B1F8A878401EC0B2C4E72988891A491E90
:104130008AB200F0B3F8002000F0A4F8002000F0EC
:10414000A1F8100A00F09EF8D0B2D9E7F0BD000047
:10415000BC0100242DE9F84F1F460E4682468B46CF
:10416000580700D00120790800EBD700203A10FB57
:1041700001F0002502F0FF09C0B2009047E00C2FCB
:1041800010D0102F12D0182F14D0202F42D1224936
:1041900001EBC9104FF00008445D200610D51F4800
:1041A000026811E01E4909EB490006E01D4901EBD8
:1041B0000910EFE71C4909EBC90001EB8000E9E7B2
:1041C0000A9828B91548426831465046FDF7C8FBA1
:1041D0006006761C040E1548B6B24088B04219D964
:1041E000A6EB0B00B84209D10AF101005E461FFAA6
:1041F00080FA0E48018851450CD906E008F101000B
:1042000000F0FF08B8F1080FC7D36D1CEDB200989D
:104210008542B4D3BDE8F88F746C000820000024F8
:10422000B454000828590008185F0008BC01002495
:104230002DE9F84F00F0FF08044610190D461FFA4B
:1042400080FA4FF0000B58191FFA80F9DDE90A7661
:1042500011E0544502D3E819444685B24D450FD2CA
:104260003B4629462046CDF800B0FFF773FF04EB2C
:10427000570084B2761C3278A2F120005E28E8D97B
:10428000BDE8F88F01B5BDF80000ADF80000BDF83D
:1042900000000149088008BD0000086001B5BDF8B4
:1042A0000000ADF80000BDF800000149088008BD1D
:1042B000FEFF07600248034900890880704700003C
:1042C000BC010024FEFF0760024A1080901C0180A0
:1042D00070470000FEFF0760104810B586B0016807
:1042E00041F002010160006801210D4C00F0020064
:1042F00005900320CDE90001CDE902106946204672
:10430000FCF76CF9012220461146FCF75FFA012206
:1043100020460221FCF75AFA06B010BDE0440258CC
:10432000000402587047704754482DE9F041524C40
:1043300086B0016841F002010160016841F020018E
:1043400001604E480C38016841F480410160402012
:104350000090022001900320DFF8248100256946A7
:104360000A270497CDE902504046FCF737F90420AC
:1043700069460926049600904046FCF72FF90496FA
:10438000C020404E694600903046FCF727F94FF4B4
:1043900040706946049700903046FCF71FF9374893
:1043A0006438016841F480410160016821F4804172
:1043B00001603148203881688906FCD432490160A7
:1043C00032494160016841F001010160816889065C
:1043D000FCD44FF49C71416181688907FCD5C168A8
:1043E00041F00201C16081688906FCD44FF48371F9
:1043F000416181688907FCD5C16841F00201C16053
:1044000081688906FCD422494161056181684907B8
:10441000FCD530212170016841F004010160816800
:104420008907FCD5C16841F00201C1608168890635
:10443000FCD481688906FCD4C561164941611648DF
:10444000016821F480310160134970310A6822F05B
:1044500001020A600A1D156082060F4B78331A604C
:104460001B1D0E4A1A6005220A60016841F4803162
:10447000016006B0BDE8F08120500052E0440258CF
:104480000004025800140258100300010104160031
:10449000C0030003EBEF180F24ED00E02D00030331
:1044A0007047000070B5294C9CB0256825F00405C4
:1044B0002560264C00260C34256845F440452560CF
:1044C000256805F440451B952568AD04FCD50124FD
:1044D00000940CAD03962404019402240994CDE9C0
:1044E0000A410796082485E80D00CDE91046684684
:1044F000FCF712FD98B9FFF717FF3F201390032038
:10450000CDE9140640200101CDE91640CDE918019E
:1045100050201A90022113A8FCF750FB10B1012083
:104520001CB070BD0A48016841F080010160084874
:10453000F430016841F002010160006800F00200FF
:104540001B90FCF743F80020EAE700000C480258F3
:1045500000440258FCF746B91C48016841F4700158
:1045600001601B49086840F001000860184A0020FB
:10457000103210600A68174B1A400A60144A183249
:104580001060121D1060121D1060114A2832106058
:10459000121D1060121D1060121D1060121D10609F
:1045A000121D1060121D1060121D10600A6822F4A6
:1045B00080220A6006496031086001200649C1F87E
:1045C0000801C006014980390860704788ED00E0A5
:1045D000004402587FEDF6EA0080005190F8341054
:1045E000C90706D001684A68836B22F400321A4377
:1045F0004A6090F83410890706D501684A68C36B91
:1046000022F480321A434A6090F83410490706D5E4
:1046100001684A68036C22F480221A434A6090F8C9
:104620003410090706D501684A68436C22F4004239
:104630001A434A6090F83410C90606D501688A68A2
:10464000836C22F480521A438A6090F834108906F1
:1046500006D501688A68C36C22F400521A438A6046
:1046600090F83410490611D501684A68036D22F4A8
:1046700080121A434A60016DB1F5801F06D10168AE
:104680004A68436D22F4C0021A434A6090F834101D
:10469000090606D501684A68806D22F400220243AB
:1046A0004A607047F8B500250446C567FCF794F8E2
:1046B0000746206800686FF07E46000708D5002294
:1046C0003B464FF400112046009600F0FBFA60B91B
:1046D0002068006840070AD500223B464FF480015D
:1046E0002046009600F0EEFA08B10320F8BD202025
:1046F00084F8790084F87A00002084F87850F8BDB6
:1047000010B5806B0021A0F86A10A0F86210FCF7C9
:10471000E0FE10BD01680A6822F490720A60016828
:104720008A6822F001028A60202180F87A1070479E
:1047300010B5B0F86C2090F87A300168222B05D0C3
:10474000088B40F008000883022010BD898C836824
:10475000B3F5805F01D103696BB11140426E531C08
:1047600043661170B0F86A10491E0904090CA0F8DC
:104770006A1007D015E0436E11401980416E891C04
:104780004166EFE701680A6822F490720A600168E6
:104790008A6822F001028A60202180F87A10FDF7F1
:1047A00029F8002010BD00002DE9F04F04460068F4
:1047B0008025FD4B0021D4F810C087B0A6680F46B5
:1047C000D4F81C8046EA0C06D4F814C0A26A4CEA5D
:1047D000080C46EA0C0632430668DFF8D0C306EA46
:1047E0000C061643066020684268E66822F44052D0
:1047F000324342602268A0699A4201D0266A30435F
:10480000A66AB6F1005F04D1D4E90B6C46EA0C0647
:1048100030439668DFF898C306EA0C0606439660B4
:104820002068C26A666A22F00F023243C262E14E19
:104830002068E14AB04210D1126802F03802182A0A
:1048400074D005DCCAB3082A7AD0102A47D179E09F
:10485000202A7BD0282A7CD17AE0D84EB04209D1D8
:10486000126802F00702062A73D2DFE802F05369E9
:104870006B6D6F71D24EB04209D1126802F007021F
:10488000062A66D2DFE802F0465C5E606264CD4EC6
:10489000B04209D1126802F00702062A59D2DFE8B5
:1048A00002F0394F51535557C74EB0420BD11268E1
:1048B00002F00702062A4CD200E00EE0DFE802F028
:1048C0002A4042444648C14EB04209D1126802F023
:1048D0003802182A38D0BBDCB4E74FF0010538E0C5
:1048E000BB4EB04209D1126802F00702062A30D24C
:1048F000DFE802F01026282A2C2EB64EB0420BD14B
:10490000126802F00702062A23D2DFE802F0031938
:104910001B1D1F2100251CE098421AD1A64A121D1A
:10492000126802F00702062A13D202E00CE007E048
:104930000CE0DFE802F0030507090B0D022508E093
:10494000042506E0402504E0082502E0102500E0EB
:104950002025DFF864B2A04E9842DFF880A2ABF1C8
:10496000540B73D1102D31D006DC022D09D0042D4B
:104970000AD0082D2FD111E0202D29D0402D2AD189
:1049800007E0FCF709F813E06846FCF71BF801980C
:104990000EE003A8FCF794F8049809E0DBF8001097
:1049A0005846890610D50068C0F3C1012AFA01F003
:1049B000002811D06168894601EB410181420AD883
:1049C000B0EB093F07D808E05046F3E78448F1E729
:1049D0004FF40040EEE7012733E1102D4FF00008BF
:1049E0004ED006DC022D0FD0042D15D0082D04D199
:1049F0002DE0202D4AD0402D13D00127794AA0F573
:104A00004071914270D9E6E7FBF7C6FF626A002366
:104A1000414636F812200DE06846FBF7D3FF0198B7
:104A200003E003A8FCF74CF804980023616A36F809
:104A300011201946FBF74CFC62680902030241EAA7
:104A400010615008181841EB080115E032E0DBF85E
:104A500000105846890609D500680023C0F3C1013B
:104A60002AFA01F0616A36F8112015E0606A002325
:104A700036F8102050460FE00023FBF729FCBDE775
:104A8000606A002336F81020554805E0606A00236C
:104A900036F810204FF400400021FBF719FC090202
:104AA000020241EA10614FEA590010184A4641EBF0
:104AB0000801E1E7E3694FF4004293424DD1082D2C
:104AC00023D005DC8DB1012D12D0042D06D112E0CA
:104AD000102D35D0202D3AD0402D11D0012721F0B6
:104AE0000F00C1F3420108435AE0FCF76DF916E0EC
:104AF000FCF780F913E06846FBF764FF01980EE0CD
:104B000003A8FBF7DDFF049809E0DBF80010584626
:104B1000890608D50068C0F3C1012AFA01F0616A6C
:104B200036F8111010E0606A36F81010BAFBF1F098
:104B30004100606801EB5001B1FBF0F081B2CEE7BB
:104B4000606A36F810102648B0FBF1F0F0E7606AB2
:104B500036F81000B2FBF0F0EAE7082D4AD00ADC84
:104B60000DB3012D43D0042D7FF44DAF6846FBF704
:104B700029FF019809E0102D52D0202D55D0402D4D
:104B8000F2D103A8FBF79CFF0498616A36F8111074
:104B9000B0FBF1F1606801EB5001B1FBF0F080B2C5
:104BA0002168C8604DE01FE0000C0058F369FFCF9A
:104BB000FFF4FF110010014054440258004400402B
:104BC00000480040004C00400050004000140140EC
:104BD00000780040007C00409C5400080090D00306
:104BE00000093D00FFFC0F00FCF7EEF8CDE7FCF7F5
:104BF00001F9CAE7DBF80020594692060AD5096890
:104C0000C1F3C1022AFA02F1626A36F81220B1FB3E
:104C1000F2F20FE0616A36F81120BAFBF2F209E015
:104C2000616A36F811200949F1E7616A36F8111016
:104C3000B2FBF1F2616802EB5102B2FBF1F189B211
:104C4000C16007B03846BDE8F08F000000093D00A4
:104C500090F87910212901D002207047B0F8621035
:104C600021B18168B1F5805F13D014E001680A6852
:104C7000920004D58A6822F400028A6003E00A6880
:104C800022F080020A600068016841F04001016082
:104C90000CE0016961B1C16D4A1CC2650268097806
:104CA0001185B0F86210491EA0F86210002070470C
:104CB000C16D02680988C1F308011185C16D891CA5
:104CC000C165EEE72DE9F0411E46174688460446C9
:104CD000069D1CE0681C1AD025B1FBF77DFD801BEA
:104CE000A84214D92068016821F4D07101602068BD
:104CF000816821F001018160202084F8790084F826
:104D00007A00002084F878000320BDE8F081206854
:104D1000C16938EA010004D00020B842DAD000208E
:104D2000F3E70120F9E7000070B50D4D00240D48B0
:104D3000FCF7D6FB02E0641CAC4204D80948FCF73F
:104D4000C9FB2028F7D1002402E0641CAC4206D83D
:104D5000054901220348FCF7F9FC0028F5D170BD94
:104D6000FFFF0100F00000240C000024FEE700001B
:104D70000FB4054B10B503A9044A029800F03CF8A3
:104D800010BC5DF814FB0000C9520008100000249C
:104D90000FB4084B10B504A902AA039800F02CF830
:104DA000044602A9002000F058FA204610BC5DF825
:104DB00014FB00005B5200080907090E002804DB01
:104DC00000F1E02080F80014704700F00F0000F1BF
:104DD000E02080F8141D704702E008C8121F08C1C7
:104DE000002AFAD170477047002001E001C1121F6C
:104DF000002AFBD1704700002DE9FF4F8DB00F4610
:104E00000546002606E025280BD0DDE90F12904765
:104E10006D1C761C28780028F5D111B03046BDE80D
:104E2000F08F0024A246A1460122EC4900E0044391
:104E300015F8013F203B02FA03F00842F7D1287829
:104E40002A2810D06FF02F022878A0F1300109290C
:104E500014D80AEB8A0102EB410144F0020400EB92
:104E6000010A6D1CF0E701CF5FEA000A03D544F4A4
:104E70000054CAF1000A44F002046D1C28782E2860
:104E800017D115F8010F44F004042A280ED06FF052
:104E90002F022878A0F1300109290AD809EB8901ED
:104EA00002EB410100EB01096D1CF2E757F8049B8E
:104EB0006D1C28786C280FD006DC4C2817D0682889
:104EC0000DD06A2814D104E0742810D07A280FD1AC
:104ED0000DE044F400140AE044F4801401E044F4CA
:104EE00040146978814202D104F580146D1C6D1C58
:104EF0002A786E2A1FD00CDC632A31D004DC002A09
:104F00008BD0582A11D1A3E0642A68D0692A0CD129
:104F100065E0732A2ED004DC6F2A73D0702A04D186
:104F20009BE0752A6FD0782A6ED01046DDE90F120B
:104F30009047761C50E1C4F30250022806D00328A3
:104F400009D0042801CF09D0066045E101CFF1174F
:104F5000C0E9006140E101CF06803DE106703BE120
:104F600017F8040B8DF8000000208DF80100EB46C7
:104F7000012003E057F804BB4FF0FF3061074FF00A
:104F8000000102D40DE008F10101884649450FDA1D
:104F90008045F8DB1BF808100029F4D108E008F17F
:104FA000010188468142FADB1BF808100029F6D17E
:104FB000DDE90F23AAEB08008146214600F036F90F
:104FC000304400EB080604E0DDE90F121BF8010B8A
:104FD0009047B8F10108F7D221464846F7E00A2188
:104FE000C4F302534FF0000B0891022B04D001CF01
:104FF000C117032B09D00AE0FF1D27F00707F7E8C8
:10500000020108E032E01FE020E000B2C117042BEB
:1050100001D140B2C117031E71F1000307DA4FF04E
:10502000000CD0EB0C006CEB01012D2302E02305FA
:1050300004D52B238DF82430012303E0E30701D0AE
:105040002023F7E7984658E00A2110E010210EE0EF
:1050500010204FF0000B08900CE010214FF0000BD7
:1050600044F004044FF00809089103E008214FF0D0
:10507000000B0891C4F30253022B04D001CF00218E
:10508000032B06D006E0FF1D27F00707F7E8020113
:1050900003E080B2042B00D1C0B24FF00008230718
:1050A0002BD5702A07D0DDF820C08CF0100C5CEAFC
:1050B0000B0C05D00EE040238DF82430012308E0CE
:1050C00050EA010306D030238DF824308DF82520D6
:1050D00002239846DDF820C08CF0080C5CEA0B0C2B
:1050E0000BD150EA010301D1630706D530238DF8B7
:1050F00024304FF00108A9F10109582A04D038A240
:105100000B9208AA0A920BE03AA2F9E75B46089ACA
:10511000FBF7DEF80B9B9B5C0A9A521E0A921370F7
:1051200050EA0102F2D10A98ADEB000000F1200B29
:10513000600702D524F4803401E04FF00109D9451D
:1051400002DDA9EB0B0000E0002000EB0B01414465
:105150000890AAEB010AE00306D4DDE90F232146FB
:10516000504600F063F806444FF0000908E009A932
:1051700011F80900DDE90F12904709F10109761CC9
:10518000C145F4DBE0030CD5DDE90F232146504691
:1051900000F04CF8064404E0DDE90F12302090479F
:1051A000761C0899481E08900029F5DC08E00A984A
:1051B0000A990078491C0A91DDE90F129047761C84
:1051C000BBF10001ABF1010BF1DC21465046DDE9FA
:1051D0000F2300F019F806446D1C1BE60928010096
:1051E000303132333435363738396162636465665D
:1051F000000000003031323334353637383941421F
:1052000043444546000000002DE9F04104460025D6
:105210001E461746880404D405E039462020B047CE
:105220006D1C641EF9D52846BDE8F0812DE9F041DA
:10523000044600251E469046C80301D5302700E0ED
:105240002027880404D505E041463846B0476D1C48
:10525000641EF9D52846BDE8F0810A68531C0B602E
:105260001070704710B504460420FCF711F901488E
:10527000046010BD0800002470B5002405464FF4FA
:105280007A7603E0304600F005F8641CAC42F9D3AE
:1052900070BD000070B54FF0E02500216C69094A2F
:1052A000AB6912685043AA699A42FCD002D2A3EBC0
:1052B000020302E0A4EB0206334419441346814280
:1052C000F1D370BD080000240349CA695206FCD519
:1052D000C2B20A85704700000010014086B0002469
:1052E000FBF75AF8FBF786FA042302220521A020D7
:1052F000FFF7D8F84FF4C870FFF7B4FF4FF4E13070
:1053000000F0A8F8FEF7E8FFFCF79EFB3D4E4FF4D7
:1053100078453D483DA13560828802A8FFF738FDF9
:1053200010274FF020090DF108084FF0180A4FF030
:105330000C0B0C2C0DD2DFE804F006093E40424570
:10534000484B4E5154574FF6FF7000E00020FCF7D9
:105350007FFA31A135602023F022CDE90091282188
:105360000A20FEF765FF30A11823F022CDE900A145
:1053700050210A20FEF75CFF2EA01023F022CDE979
:1053800000706E210A20FEF753FF1023F0228221C5
:105390000A20CDE90078FEF74BFF2AA10C23F0226A
:1053A000CDE900B196210A20FEF742FF641CE4B269
:1053B0000C2C1CD01CE01F20C9E72846C7E74FF67D
:1053C0001F00C4E74FF4FC60C1E747F6FF70BEE77B
:1053D0004FF6E070BBE74FF60740B8E748F23040C1
:1053E000B5E74CF21860B2E74BF64040AFE7002457
:1053F00017480221FBF7E6F94FF47A70FFF73CFFFC
:1054000097E7000020000024BC0100244C43442006
:1054100049443A2530345800506F6C6172697320EA
:1054200053544D33320000005446544C43442054EE
:105430004553540041544F4D40414C49454E54450D
:105440004B000000323031392F342F323100000050
:10545000000402580B490A4A10B5C1E90020002097
:105460008860C860086188610C2048610846FCF7C4
:10547000F7F8BDE81040044901220248FCF766B97C
:1054800000100140F00000240C0000240000000087
:1054900001020304010203040607080901000200D7
:1054A0000400060008000A000C0010002000400064
:1054B000800000010000000000000000000000006B
:1054C000000000003F40000000000000000030002D
:1054D000400030004000000009000BC03D000BC040
:1054E0003D00090018C024407FE0224031800000C8
:1054F000180024C01B000D803240018003801C4036
:1055000027401C80074000401000600000000000A1
:10551000000000000000000000001F80204040202C
:105520000000402020401F8000000000090006000D
:105530001F80060009000000040004003F800400F2
:1055400004000000001000600000000000000000E7
:1055500004000400040004000400000000000040F7
:105560000000000000000000002001C0060038001C
:10557000400000001F802040204020401F8000008D
:10558000000010403FC000400000000018C0214053
:105590002240244018400000108020402440244035
:1055A0001B80000002000D0011003FC00140000000
:1055B0003C80244024402440238000001F8024405D
:1055C00024403440038000003000200027C0380011
:1055D000200000001B802440244024401B80000049
:1055E0001C0022C0224022401F800000000000005A
:1055F00008400000000000000000000004600000FF
:1056000000000000000004000A001100208040405B
:1056100009000900090009000900000000004040DD
:10562000208011000A0004001800200023402400FC
:10563000180000001F802040274029401F40000024
:10564000004007C039000F0001C0004020403FC0AB
:10565000244024401B8000001F8020402040204028
:105660003080000020403FC0204020401F800000CC
:1056700020403FC024402E4030C0000020403FC0AA
:1056800024402E00300000000F00108020402240F7
:105690003380020020403FC0040004003FC020408F
:1056A000204020403FC020402040000000602020DB
:1056B00020203FC02000200020403FC024400B009D
:1056C00030C0204020403FC020400040004000C08B
:1056D0003FC03C0003C03C003FC0000020403FC032
:1056E0000C4023003FC020001F802040204020406D
:1056F0001F80000020403FC024402400180000000C
:105700001F802140214020E01FA0000020403FC01A
:105710002440260019C0004018C0244024402240E4
:1057200031800000300020403FC0204030000000A9
:1057300020003F80004000403F80200020003E00CD
:1057400001C0070038002000380007C03C0007C037
:1057500038000000204039C0060039C02040000059
:105760002000384007C0384020000000304021C0F1
:105770002640384020C00000000000007FE04020AC
:1057800040200000000070000C000380004000007A
:105790000000402040207FE00000000000002000CA
:1057A0004000200000000000001000100010001059
:1057B0000010001000000000400000000000000089
:1057C000000002800540054003C0004020003FC0AB
:1057D00004400440038000000000038004400440B3
:1057E0000640000000000380044024403FC0004009
:1057F0000000038005400540034000000000044015
:105800001FC0244024402000000002E00550055045
:105810000650042020403FC00440040003C0004064
:105820000000044027C000400000000000100010ED
:10583000041027E00000000020403FC001400700A6
:1058400004C00440204020403FC000400040000011
:1058500007C0040007C0040003C00000044007C0E4
:105860000440040003C000400000038004400440E2
:1058700003800000041007F004500440038000007F
:10588000000003800440045007F00010044007C0EB
:1058900002400400040000000000064005400540EE
:1058A00004C00000000004001F800440004000000D
:1058B000040007800040044007C0004004000700C7
:1058C00004C0018006000400060001C0070001C0FA
:1058D00006000000044006C0010006C004400000AD
:1058E0000410071004E001800600040000000440DA
:1058F00005C00640044000000000000004007BE0FA
:1059000040200000000000000000FFF00000000048
:10591000000040207BE00400000000004000800008
:1059200040002000200040000000000000000000B7
:1059300000000000000000000000000000001FCC7C
:10594000000C0000000000000000080030006000B3
:105950000800300060000000022003FC1E2002202E
:1059600003FC1E200220000000000E1811043FFF5F
:1059700010840C78000000000F0010840F3800C065
:10598000077818840078000000780F8410C4112470
:105990000E9800E400840008080068007000000011
:1059A000000000000000000000000000000007E010
:1059B00018182004400200000000400220041818BB
:1059C00007E00000000000000240024001800FF0EC
:1059D00001800240024000000080008000800FF83B
:1059E00000800080008000000001000D000E00001B
:1059F0000000000000000000000000800080008027
:105A000000800080008000800000000C000C00007E
:105A10000000000000000000000000060018006008
:105A20000180060018002000000007F0080810049C
:105A30001004080807F000000000080408041FFC18
:105A4000000400040000000000000E0C10141024DC
:105A5000104411840E0C000000000C1810041104F6
:105A6000110412880C700000000000E003200424E0
:105A700008241FFC0024000000001F98108411045B
:105A80001104108810700000000007F0088811044D
:105A9000110418880070000000001C00100010FCA9
:105AA00013001C001000000000000E381144108488
:105AB000108411440E38000000000700088C1044C8
:105AC0001044088807F00000000000000000030CEC
:105AD000030C0000000000000000000000010106AF
