:020000040800F2
:10000000800B0024AD020008C71F00089B1B0008DE
:10001000B902000895030008ED2A0008000000005E
:10002000000000000000000000000000F9210008AE
:1000300085040008000000004D200008A9220008E7
:10004000C7020008C7020008C7020008C70200086C
:10005000C7020008C7020008C7020008C70200085C
:10006000C7020008C7020008C7020008C70200084C
:10007000C7020008C7020008C7020008C70200083C
:10008000C7020008C7020008C7020008C70200082C
:10009000C7020008C7020008C7020008C70200081C
:1000A000C7020008C7020008C7020008C70200080C
:1000B000C7020008C7020008C7020008C7020008FC
:1000C000C7020008C7020008C7020008C7020008EC
:1000D000C7020008A92A0008C7020008C7020008D2
:1000E000C7020008C702000800000000C70200089D
:1000F000C7020008C7020008C7020008C7020008BC
:10010000C7020008C7020008C7020008C7020008AB
:10011000C7020008C7020008C7020008C70200089B
:10012000C7020008C7020008C7020008C70200088B
:10013000C7020008C7020008C7020008C70200087B
:1001400000000000000000000000000000000000AF
:10015000C7020008C7020008C7020008C70200085B
:10016000C7020008C7020008C7020008C70200084B
:10017000C7020008C7020008C7020008C70200083B
:10018000C7020008C7020008C7020008C70200082B
:10019000C7020008C7020008C7020008C70200081B
:1001A000C7020008C7020008C7020008C70200080B
:1001B000C7020008C7020008C7020008C7020008FB
:1001C000C7020008C7020008C7020008C7020008EB
:1001D000C7020008C7020008C7020008C7020008DB
:1001E000C7020008C7020008C7020008C7020008CB
:1001F000C7020008C7020008C7020008C7020008BB
:10020000C7020008C7020008C7020008C7020008AA
:10021000C7020008C7020008C7020008C70200089A
:10022000C7020008C7020008C7020008000000005B
:10023000C7020008C702000800000000C70200084B
:10024000C7020008C7020008C7020008C70200086A
:10025000C7020008C7020008C7020008C70200085A
:10026000C7020008C7020008C7020008C70200084A
:10027000C7020008C7020008C7020008000000000B
:10028000C702000800000000C702000800000000CC
:1002900000000000C7020008DFF80CD000F068F88A
:1002A00000480047912B0008800B00240648804737
:1002B00006480047FEE7FEE7FEE7FEE7FEE7FEE74B
:1002C000FEE7FEE7FEE7FEE7AD2200089902000820
:1002D0002DE9F05F0546002092469B46884606467B
:1002E000814640241BE0284641464746224600F00E
:1002F0002FF853465A46C01A914110D3114618465A
:10030000224600F016F82D1A67EB01084F462246E8
:100310000120002100F00DF817EB00094E41201ECE
:10032000A4F10104DFDC484631462A464346BDE8D5
:10033000F09F202A04DB203A00FA02F100207047E7
:100340009140C2F1200320FA03F319439040704713
:10035000202A04DB203A21FA02F00021704721FA1A
:1003600002F3D040C2F12002914008431946704781
:10037000064C074D06E0E06840F0010394E80700F2
:1003800098471034AC42F6D3FFF78AFFC4E8000860
:10039000E4E80008FEE70000F0B5BFF34F8FBFF3BD
:1003A0006F8F1D4900200860BFF34F8FBFF36F8F21
:1003B0001A4C216841F400312160BFF34F8FBFF325
:1003C0006F8F164970310860BFF34F8F081F0068A8
:1003D00043F6FF75104E1036C0F34E31C0F3C9031B
:1003E00005EA4112184642EA80773760401EFAD289
:1003F000491EF5D2BFF34F8F206840F48030206053
:10040000BFF34F8FBFF36F8F03484C30016841F04B
:1004100004010160F0BD000050EF00E014ED00E0C9
:10042000F8B54EF67D750124284601F039FC12A17D
:100430002B461F2200910A21142000F085F9C820C4
:1004400002F07EFB4FF478464FF6FF754FF4FC67E1
:100450000EE0284601F024FC002001F021FC30468B
:1004600001F01EFC384601F01BFC1F2001F018FCB7
:10047000641EE4B2EDD2F8BD436F6C6F7220546518
:100480007374000070472DE9F8431C460746154673
:100490000E464FF6FF780B46CDF8008000F040FA8C
:1004A0003A46234631461046CDF8008000F038FA2F
:1004B000601E48F2104883B22A4681B2CDF800800F
:1004C000781C80B200F02CFA234644F208292A4610
:1004D00019463846CDF8009000F022FA681E2346EF
:1004E00082B2CDF80080711C89B280B200F018FA97
:1004F0002A46234631461046CDF8009000F010FA07
:10050000BDE8F88338B54EF67D74204601F0C8FB8F
:100510001FA123461F2200910A21102000F014F988
:100520004FF47A7002F00CFB204601F0B9FB1CA1DD
:100530000091102123460022084600F005F91CA175
:100540002346002200912421202000F0FDF81BA06A
:1005500023461F2200903421102000F0F5F81BA044
:1005600023464621009010204FF4784200F0ECF82A
:100570001AA023466421009010204FF4FC6200F082
:10058000E3F8BDE838404FF4E16002F0D9BA00006A
:10059000CEC4D7D6CFD4CABEB2E2CAD400000000BF
:1005A000C7B6C8EBCABDBFAAB7A2CDF8000000000D
:1005B000D6D0CEC4B2E2CAD400000000D7A8D7A2D9
:1005C000D2BABEA7C5FAB7A200000000C8ABB3CC30
:1005D000BCBCCAF5D6A7B3D6000000006D63756435
:1005E00065762E74616F62616F0000002DE9FF5F18
:1005F0001546074600240E466842032101EB4008D9
:1006000058E006EB0509039A07EB040B1FFA89F182
:100610001FFA8BF000F0DAF9A7EB040A039A1FFA2D
:1006200089F11FFA8AF000F0D1F9A6EB0509039AC7
:100630001FFA89F11FFA8BF000F0C8F91FFA89F14F
:10064000039A1FFA8AF000F0C1F906EB0409039A35
:1006500007EB050B1FFA89F11FFA8BF000F0B6F9D2
:10066000A7EB050A039A1FFA89F11FFA8AF000F036
:10067000ADF9A6EB0409039A1FFA89F11FFA8BF072
:1006800000F0A4F91FFA89F1039A1FFA8AF000F02A
:100690009DF9B8F1000F04DA08EB840000F10608B8
:1006A00006E0611B6D1E08EB8100ADB200F10A0887
:1006B000641CA4B2AC42A4D3AC4242D106EB0509FF
:1006C000039A07EB04081FFA89F11FFA88F000F07B
:1006D0007DF91FFA89F1039A1FFA88F000F076F984
:1006E000A6EB0509039A1FFA89F11FFA88F000F0BA
:1006F0006DF9381B039A1FFA89F180B200F066F990
:1007000006EB0408039A07EB05091FFA88F11FFAA4
:1007100089F000F05BF97D1B039A1FFA88F1A8B2FB
:1007200000F054F9341B039AA1B21FFA89F000F0CB
:100730004DF9039A04B0A1B2A8B2BDE8F05F00F091
:1007400045B9BDE8FF9F00002DE9FE4F9A4693464C
:100750000F460446DDF83080019095E0802835D2C0
:100760000D2804D0202806D9203880B204E01037A4
:10077000019CBFB227E0002000268146002506EB41
:10078000091000904449095C8020E840014205D0EE
:10079000B8195A4681B2601980B206E0D34506D036
:1007A000B819524681B2601980B200F00FF96D1C81
:1007B000EDB2082D01D20098E4E7761CF6B2102EB7
:1007C000DCD30834A4B208F101085DE04FF0000961
:1007D000324998F8002009EB091011F810309342C3
:1007E00047D101EB40000290417898F80100814226
:1007F0003FD100250298002600EB4500009081784B
:100800008020F040014205D078195A4681B2A019E3
:1008100080B206E0D34506D07819524681B2A019BD
:1008200080B200F0D3F8761CF6B2082E01D2009800
:10083000E5E700260098C1788020F040014206D00C
:1008400078195A4681B2A019083080B207E0D34522
:1008500007D07819524681B2A019083080B200F052
:10086000B5F8761CF6B2082EE4D36D1CEDB2102D4F
:10087000C0D309F101001FFA80F9B9F13A0FA7D3EB
:100880001034A4B208F1020898F8000000287FF4A0
:1008900065AFBDE8FE8F0000B82D00082A3B0008B8
:1008A0002DE9FF4F81B080460F461C4900264FF0CE
:1008B000800B0E9801EBC01000900098002500EB13
:1008C000860A00241AF805902BFA04F010EA090FA2
:1008D00007D0B819039A81B208EBC500204480B252
:1008E0000AE0DDE90301884208D0B819049A81B210
:1008F00008EBC500204480B200F068F8641CE4B244
:10090000082CE1D36D1CEDB2042DDAD3761CF6B2BF
:10091000202ED2D305B0BDE8F08F0000A933000827
:100920002DE9F84F1C4615460E46074601F001FB1F
:10093000ED1B4FF0FF30A4EB060402D44FF0010B87
:1009400001E06D428346002C02DB4FF0010A01E01A
:100950006442824668000090A5424FEA44091ADDCD
:100960000020A9EB050411E00A9A3146384600F050
:100970002DF8002C04DB0098241A06EB0A0086B23E
:1009800007EB0B0087B24C4408F10100A8428046F7
:10099000EADDBDE8F88F0098051B002012E00A9AF6
:1009A0003146384600F012F8002D04DB07EB0B004F
:1009B00087B2A5EB09050098054406EB0A0086B24C
:1009C00008F10100A0428046E9DDE2E710B51446D7
:1009D0008A1C93B2C21C491C801C92B289B280B29C
:1009E00001F07EFA200A01F0ADFAE0B2BDE8104055
:1009F00001F0A8BA10B528B190F83510022903D03B
:100A000080214165012010BD1D4A4FF495630168A6
:100A10008C189C4207D8042280F83520086820F002
:100A20000100086029E00C6824F00E040C600168E5
:100A30000A440A6822F001020A60016E0A6822F480
:100A400080720A6090F85C30012202FA03F10D4BCB
:100A50001960D0E919134B60C16E31B10B6823F4F2
:100A600080730B60D0E91C134B60002180F83410B8
:100A700080F83520016D01B18847002010BD0000CD
:100A8000F0FFFDBF045402580248016841F0010123
:100A900001607047200400582DE9F84F6C4C00228B
:100AA0004FF0B04A4FF0010B4FF0030E4FF00F091B
:100AB0000B680BFA02F73B40BB4270D14D68022D28
:100AC00001D0122D12D1D50800EB850CDCF8206086
:100AD0005507ED0E09FA05F826EA0806D1F8108048
:100AE00008FA05F848EA0608CCF82080D0F800801B
:100AF000560091F804C00EFA06F50CF0030C28EA33
:100B000005080CFA06FC4CEA080CC0F800C0D1F845
:100B100004C0BCF1010F08D0BCF1020F05D0BCF13C
:100B2000110F02D0BCF1120F16D1D0F808C0D1F8C5
:100B30000C802CEA050C08FA06F848EA0C08C0F804
:100B40000880D0F804C02CEA070C0F79C7F300170F
:100B5000974047EA0C074760C768AF438D68B540C8
:100B60003D43C5604D68ED006BD53A4D2E6846F0AB
:100B700002062E602D6822F0030606F1B04605F04D
:100B800002050095D6F808C495072F0F09FA07F556
:100B90002CEA050C304DA84202D100252EE050E091
:100BA0002E4DA84201D1012528E02D4DA84201D1AA
:100BB000022523E02B4DA84201D103251EE02A4D3A
:100BC000A84201D1042519E0284DA84201D10525EC
:100BD00014E0274DA84201D106250FE0254DA8427B
:100BE00001D107250AE0244DA84201D1082505E0DE
:100BF000224DA84201D1092500E00A25BD4045EA61
:100C00000C05C6F8085425684E689D43F60300D5C8
:100C10001D43256065684E689D43B60300D51D439E
:100C20006560DAF8005056464F689D43FF0200D5D4
:100C30001D43356075684F689D43BF0200D51D4355
:100C40007560521C102AFFF433AFBDE8F88F000026
:100C500080000058F4440258000002580004025872
:100C600000080258000C02580010025800140258E4
:100C700000180258001C0258002002580024025894
:100C800042694A40426170470AB10183704741831B
:100C90007047000001488068704700001000002481
:100CA0000248816802781144816070471000002476
:100CB000032010B500F058F80F2000F007F808B135
:100CC000012010BD00F022F8002010BD70B50D4DC0
:100CD00004464FF47A712878B1FBF0F00A490968AC
:100CE000B1FBF0F000F086FD48B9102C07D20022CD
:100CF0002146501E00F018F800206C6070BD0120E5
:100D000070BD00001000002400000024704700287F
:100D100009DB012100F01F0291404009800000F131
:100D2000E020C0F8001170470E4BF0B41B68C3F30D
:100D30000223C3F10704042C00D904241D1D072D30
:100D400001D2002300E0DB1E012606FA04F56D1E29
:100D50000D409D409E40761E164045EA0601F0BCBF
:100D600001F0C5BE0CED00E0064A00F00701106876
:100D70004FF6FF03184040EA012003490843106082
:100D8000704700000CED00E00000FA0510B500F01F
:100D90005BFA084909684FF4807292FAA2F201F4F2
:100DA0007061B2FA82F2D140034A515CC8400349F3
:100DB000086010BD18440258902D0008000000245F
:100DC00010B500F0FBF907490968102292FAA2F267
:100DD00001F07001B2FA82F2D140034A515CC8407E
:100DE00010BD000020440258902D0008364930B54F
:100DF0000A68096812F00302344BC1F305311B681D
:100E0000334C03F010032468DFED320AB7EE001A0A
:100E1000C4F3CC0414FB03F300EE103A2E4BB8EEEF
:100E2000400A07D02D4C012A01D0022A4AD0B4FB37
:100E3000F1F10BE0244C283C22689506284A03D5A2
:100E40002468C4F3C104E240B2FBF1F101EE901A50
:100E50001968B8EE612AC1F3080101EE901A196809
:100E6000F8EE611A40EE201A31EE810A22EE000AF5
:100E7000C1F34621491C00EE901AF8EE600A80EE9C
:100E8000201AFCEEC10AC0ED000A1968C1F3064140
:100E9000491C00EE901AF8EE600A80EE201AFCEE73
:100EA000C10AC0ED010A1968C1F30661491C00EED0
:100EB000901AF8EE600A80EE201ABCEEC10A80EDAE
:100EC000020A30BD074ABFE7284402582C440258A2
:100ED0003C440258000000393844025800093D00E3
:100EE0000090D00340787D01364930B50A68096822
:100EF00012F00302344BC1F305511B68334C03F469
:100F000080732468DFED320AB7EE001AC4F3CC0414
:100F100014FB03F300EE103A2E4BB8EE400A07D054
:100F20002D4C012A01D0022A4AD0B4FBF1F10BE08A
:100F3000244C283C22689506284A03D52468C4F32B
:100F4000C104E240B2FBF1F101EE901A1968B8EE6B
:100F5000612AC1F3080101EE901A1968F8EE611ACE
:100F600040EE201A31EE810A22EE000AC1F346213A
:100F7000491C00EE901AF8EE600A80EE201AFCEE92
:100F8000C10AC0ED000A1968C1F30641491C00EE10
:100F9000901AF8EE600A80EE201AFCEEC10AC0ED4D
:100FA000010A1968C1F30661491C00EE901AF8EEB7
:100FB000600A80EE201ABCEEC10A80ED020A30BD44
:100FC000074ABFE7284402582C44025844440258B8
:100FD000000000394044025800093D000090D00351
:100FE00040787D012DE9F047DFF8BC9104460E46BC
:100FF000D9F8000000F00700B0420CD2D9F8001078
:1010000021F007013143C9F80010D9F8000000F0C1
:101010000700B0427ED12078DFF89081800707D5A5
:10102000D8F80010E26821F00F011143C8F8001051
:101030002078C00762D0D8F80010A26821F470614F
:101040001143C8F8001059496068183902281CD0AB
:1010500003281DD0096801281DD04907002960DA3E
:10106000524F083F396821F0070101433960FFF70B
:1010700011FE0546606841F28831022813D003282A
:101080001ED001288A4627D034E009688903E5E7A5
:1010900009688901E2E7C905E0E7FFF7FBFD411BAD
:1010A000514501D923E08A463868C0F3C2000228BE
:1010B000F3D123E0FFF7EEFD411B514501D916E0C6
:1010C0008A463868C0F3C2000328F3D116E0FFF760
:1010D000E1FD411B51450AD83868C0F3C200012820
:1010E000F5D10BE0FFF7D6FD411B514502D9032096
:1010F000BDE8F087386810F0380FF3D1D9F8001048
:10110000484601F00701B1420DD9016821F00701FD
:10111000314300E005E00160006800F00700B042E4
:1011200001D00120E4E72078400707D5D8F8001067
:10113000226921F070011143C8F8001020780107DE
:101140001B4805D50168626921F0700111430160F7
:101150002178C90605D50168A26921F4E06111432F
:1011600001602078800607D51149091D0868E269E9
:1011700020F070001043086000F066F8D8F8001006
:101180004FF4807292FAA2F201F47061B2FA82F224
:10119000D140084A515CC840074908600F20FFF75A
:1011A00095FD0020A4E700000020005218440258DA
:1011B0001C440258902D00080000002410B5FFF7D1
:1011C000E5FD08490968012292FAA2F201F00F0137
:1011D000B2FA82F2D140044A515CC8400349086027
:1011E00010BD000018440258902D0008040000248F
:1011F00010B5FFF7E3FF07490968102292FAA2F23F
:1012000001F07001B2FA82F2D140034A515CC84049
:1012100010BD00001C440258902D000810B5FFF7C7
:10122000CDFF074909684FF4807292FAA2F201F4E7
:10123000E061B2FA82F2D140024A515CC84010BD6E
:101240001C440258902D00083548F0B50068364D12
:1012500010F03801334809D00411082904D0334E66
:1012600010290BD018290BD02046F0BD296889061B
:10127000FBD52968C1F3C101C840F0BD3046F0BDBF
:10128000274918310A68096812F00302284BC1F394
:1012900005111B68274F03F001033F68DFED260AA5
:1012A000B7EE001AC7F3CC0717FB03F300EE103AB2
:1012B000224BB8EE400A06D0012A01D0022A2BD0D8
:1012C000B4FBF1F008E02A68920603D52A68C2F35D
:1012D000C102D040B0FBF1F001EE900A1868B8EE00
:1012E000612AC0F3080001EE900A1868F8EE611A4E
:1012F00040EE201A31EE810A22EE000AC0F34620A9
:10130000401C00EE900AF8EE600A80EE201ABCEE57
:10131000C10A10EE100AF0BDB6FBF1F0DCE70000E8
:10132000104402580090D0030044025840787D01D8
:101330002C4402583444025800000039304402580A
:101340002DE9F05F04460078DFF8FC8341F288392C
:10135000DFF8F8A3FE4DC0074ED0D8F80010404685
:10136000C1F3C20102291AD00068C0F3C2000328E9
:1013700005D1DAF8000000F0030002280FD0606801
:10138000B0F5803F12D010B1B0F5A02F19D0286869
:1013900020F480302860286820F4802009E0286844
:1013A000800329D56068002874D025E0286840F4BF
:1013B00080302860606890B1FFF76CFC06464F46AD
:1013C00009E0286840F480202860EFE7FFF762FC1E
:1013D000801BB8427DD828688003F7D50CE0FFF762
:1013E00059FC06464F4604E0FFF754FC801BB84208
:1013F000F0D828688003F7D42078D64F80075AD5D4
:10140000D8F8001040464FF47C3B11F0380F13D051
:101410000068C0F3C200032803D1DAF80000800797
:101420000AD0E068A8B3296821F0190101432960B6
:10143000FFF730FC06461DE02868400702D5E0684B
:101440000028B1D02868E16820F01900084328601E
:10145000FFF720FC064604E0FFF71CFC801B022877
:10146000B8D828684007F7D507E0FFF713FC801BC2
:101470000228AFD828684007F7D538689BFAABF246
:1014800020F47C312069B2FA82F290400143396045
:1014900011E000E0AEE0286820F001002860FFF7CE
:1014A000F9FB064604E0FFF7F5FB801B022891D804
:1014B00028684007F7D42078C00655D5D8F8001022
:1014C00040464FF0F84BC1F3C201012917D0006824
:1014D00000E0EDE0C0F3C200032805D1DAF8000017
:1014E00000F0030001280AD0E069002828682CD009
:1014F00040F080002860FFF7CDFB064616E0286824
:10150000C00502D5E069802874D138689BFAABF237
:1015100020F0F841206AB2FA82F29040014339602B
:1015200022E0FFF7B7FB801B022899D82868C00586
:10153000F7D538689BFAABF2216AB2FA82F220F052
:10154000F8409140084338600EE020F080002860A9
:10155000FFF7A0FB064604E0FFF79CFB801B022878
:1015600087D82868C005F7D42078000724D5774F9E
:1015700060694C37002838680FD040F001003860AF
:10158000FFF788FB064604E0FFF784FB801B022878
:101590008DD838688007F7D50EE020F0010038605C
:1015A000FFF778FB064604E0FFF774FB801B022878
:1015B0007ED838688007F7D42078800623D5A069C4
:1015C000002828680FD040F480502860FFF762FBA5
:1015D000064604E0FFF75EFB801B022868D82868F7
:1015E0008004F7D50FE020F480502860FFF752FB0D
:1015F000064605E0D6E0FFF74DFB801B022857D8D2
:1016000028688004F7D42078400744D5524F3868C2
:1016100040F480703860FFF73DFB064604E0FFF7BA
:1016200039FB801B642843D83868C005F7D5474F7D
:10163000A068483701280AD008B1052811D03868B9
:1016400020F001003860386820F0040002E03868BB
:1016500040F001003860A06888B1FFF71BFB064628
:1016600009E0386840F004003860F0E7FFF712FB4B
:10167000811B49451CD838688007F7D50BE0FFF778
:1016800009FB064604E0FFF705FB811B49450FD81F
:1016900038688007F7D4606AF0B3D8F80010C1F357
:1016A000C20103297ED00228286820F0807000E063
:1016B00079E0286003D0FFF7EDFA044687E0FFF7F2
:1016C000E9FA064604E0FFF7E5FA801B02287BD81A
:1016D00028688001F7D4DAF8001040F2F332914321
:1016E000E26A41EA0211A26A1143CAF8001094F8B2
:1016F00034004FF4FE02218E4002491EA0F5007016
:1017000080B2C1F308010843218F491E02EA01415A
:10171000084394F83C1000E05CE0491E120202EA23
:10172000016108430949083108600B1D19684FF62B
:10173000F872A06C914392FAA2F2B2FA82F290404F
:1017400001431960014809E0104402582844025836
:10175000004402580444025800480258001D016821
:10176000226C21F00C01114301600168626C21F0D0
:10177000020111430160016841F480310160016898
:1017800041F400310160016841F480210160016889
:1017900041F001010160286840F080702860FFF787
:1017A00079FA01E018E00FE0044604E0FFF772FA6E
:1017B000001B022808D828688001F7D50AE0FFF747
:1017C00069FA001B022802D90320BDE8F09F2868AF
:1017D0008001F4D40020F8E70120F6E74FF0E02183
:1017E0000428086903D020F004000861704740F025
:1017F0000400FAE7401EB0F1807F10B501D301204C
:1018000010BD4FF0E02460610F21601701F06FF907
:101810000020A06107202061002010BD70477047A4
:1018200090F8791090F87A000843704770B5026814
:101830000446D0691368916810F00F0F64D0594DB9
:1018400003F490760D40354376D0C50707D0DD050B
:1018500005D501251562E26F42F00102E2678207B9
:1018600008D5CA0706D0256802222A62E26F42F034
:101870000402E267420708D5CA0706D02568042299
:101880002A62E26F42F00202E26702070ED503F01D
:10189000200201F080552A4352EAC17206D0256821
:1018A00008222A62E26F42F00802E267E26F002A31
:1018B0003AD0800608D503F0200001F0805108439B
:1018C00002D0204600F0F5FDE06F000703D4206849
:1018D000806840062AD5204600F0DDFD206881683A
:1018E00049061ED5816821F040018160606FC0B15A
:1018F0002D490165606FFFF77DF8002814D0606FF7
:10190000016DBDE870400847850615D503F0200538
:1019100001F0805635430FD02046BDE8704000F0FE
:10192000C8BD2046FFF77BFF70BD05E02046FFF7EE
:1019300076FF0020E067F7E7C6024FF020050CD5E0
:101940004E020AD5E803106284F8795084F87A5080
:101950002046BDE87040FFF761BF06060AD503F0D8
:10196000800601F400010E4304D02046BDE870401B
:1019700001F02EB841060BD5590609D5116820464D
:1019800021F04001116084F8795000F005F9CBE7AF
:101990000002C9D55800C7D5106820F080401060FB
:1019A000C2E70000010000108324000810B5040005
:1019B00003D094F8790010B107E0012010BD002099
:1019C00084F87800204600F027F8242084F8790075
:1019D0002068016821F001010160204600F0A4FDAB
:1019E0000128EBD0606B10B1204600F0B8FC2068F5
:1019F000416821F4904141602068816821F02A010A
:101A000081602068016841F0010101602046BDE865
:101A1000104000F008BD000010B5006886B01B49FA
:101A2000884230D11A48016841F001010160006824
:101A300000F00100059016481030016841F01001D7
:101A4000016000680121134C00F0100005904FF474
:101A5000007000900220CDE9010103900720694643
:101A600004902046FFF718F84FF48061204600915B
:101A70006946FFF711F82520FFF749F903222520D1
:101A80001146FFF751F906B010BD000000100140EB
:101A9000E04402580000025890F87A30202B4CD1D4
:101AA000B9B1B2B190F87830012B46D0012380F85B
:101AB00078304166A0F86820A0F86A20FF2281688B
:101AC000B1F5805F07D07F2351B1B1F1805F0CD0B9
:101AD00010E001207047016921B940F2FF1107E0D1
:101AE000016909BBA0F86C2004E00169E1B13F2164
:101AF000A0F86C100021C167222280F87A2080F8BB
:101B0000781001688A6842F001028A6001680A68F8
:101B100092000CD50A6842F480720A6000688168FD
:101B200041F08051816006E0A0F86C30E2E708687F
:101B300040F4907008600020704702207047000059
:101B400030B50068114988420CD1114A508801040F
:101B500008D411464FF000034404097806D50A2939
:101B600001D0538030BD40F400400DE00D2909D074
:101B7000084DC0F30D04401C80B2C7282955508081
:101B8000EFD830BD40F48040508030BD001001409F
:101B90000C000024280000247047FEE7234810B5FD
:101BA00086B0016841F00201016000686946204C7E
:101BB00000F0020005904FF2030000900120019018
:101BC0000290032003902046FEF766FF0122204684
:101BD0001146FFF759F8012220460221FFF754F879
:101BE000012220461103FFF74FF80122204651033E
:101BF000FFF74AF8012220469103FFF745F801223A
:101C00002046D103FFF740F8012220461146FFF796
:101C10003BF8002220460121FFF736F8012220463A
:101C20001146FFF731F806B010BD0000E04402583D
:101C30000004025808482C21018100218171802173
:101C40000180A02141802A2141812B218181C02155
:101C5000362000F0AFB90000700100240E4810B526
:101C600086B0016841F001010160006869460B4CD3
:101C700000F00100059002200090012001900290E8
:101C8000032003902046FEF707FF01222046022191
:101C9000FEF7FAFF06B010BDE044025800000258FB
:101CA0002DE9F041A023064681220121022000F007
:101CB00017F92C2000F062F90025370A0024384675
:101CC00000F040F9F0B200F03DF9641C802CF6D32E
:101CD0006D1CA02DF2D3BDE8F08110B5FFF75EFFBB
:101CE00000F0E6F8112000F049F9C82000F028FFC4
:101CF000B12000F043F9052000F024F93C2000F069
:101D000021F93C2000F01EF9B22000F037F905203F
:101D100000F018F93C2000F015F93C2000F012F911
:101D2000B32000F02BF9052000F00CF93C2000F066
:101D300009F93C2000F006F9052000F003F93C20E9
:101D400000F000F93C2000F0FDF8B42000F016F996
:101D5000032000F0F7F8C02000F010F9282000F070
:101D6000F1F8082000F0EEF8042000F0EBF8C120B4
:101D700000F004F9C02000F0E5F8C22000F0FEF801
:101D80000D2000F0DFF8002000F0DCF8C32000F0A8
:101D9000F5F88D2000F0D6F82A2000F0D3F8C42002
:101DA00000F0ECF88D2000F0CDF8EE2000F0CAF83D
:101DB000C52000F0E3F81A2000F0C4F8362000F047
:101DC000DDF8C02000F0BEF8E02000F0D7F80420D5
:101DD00000F0B8F8222000F0B5F8072000F0B2F8C3
:101DE0000A2000F0AFF82E2000F0ACF8302000F010
:101DF000A9F8252000F0A6F82A2000F0A3F8282052
:101E000000F0A0F8262000F09DF82E2000F09AF8AF
:101E10003A2000F097F8002000F094F8012000F03C
:101E200091F8032000F08EF8132000F08BF8E120E9
:101E300000F0A4F8042000F085F8162000F082F8E5
:101E4000062000F07FF80D2000F07CF82D2000F037
:101E500079F8262000F076F8232000F073F8272088
:101E600000F070F8272000F06DF8252000F06AF8E7
:101E70002D2000F067F83B2000F064F8002000F00F
:101E800061F8012000F05EF8042000F05BF81320F8
:101E900000F058F83A2000F071F8052000F052F8F0
:101EA000292000F06BF8BDE81040FFF7C3BE00002A
:101EB00070B50A4D4FF48044002221462846FEF7B3
:101EC000E3FE642000F03CFE012221462846FEF796
:101ED000DBFEBDE87040642000F032BE0004025812
:101EE0002DE9F0411C4616460D4607462A2000F013
:101EF00045F8002000F026F8F8B200F023F80020A2
:101F000000F020F8F0B200F01DF82B2000F036F8B9
:101F1000002000F017F8E8B200F014F8002000F0FC
:101F200011F8E0B200F00EF8BDE8F0412C2000F00E
:101F300025B8491C801C8BB282B289B280B2FFF7EF
:101F4000CFBF000070B50C4D4FF480540022064600
:101F500021462846FEF798FE012228460221FEF778
:101F600093FE304600F022F921462846BDE8704035
:101F70000122FEF789BE00000004025870B50C4D26
:101F80004FF480540022064621462846FEF77CFE88
:101F9000002228460221FEF777FE304600F006F9BF
:101FA00021462846BDE870400122FEF76DBE0000C4
:101FB0000004025810B50C46FFF7E0FF2046BDE8CC
:101FC0001040FFF7BFBF70472DE9F8434EF67D750F
:101FD00000242846FFF764FE18A12B464FF47847EB
:101FE000009114213A461020FEF7AEFB4FF47A70B0
:101FF00000F0A6FD2846FFF753FE134EA846032522
:102000004346B4FBF5F0325D00923A464101B4FB21
:10201000F5F005FB104000EB8000C000FEF740FC2F
:10202000642000F08DFD641CE4B20A2CE8D3BDE806
:10203000F8434FF4FA6000F083BD00004E756D2048
:1020400054657374000000001C00002470470000F9
:10205000F8B54EF67D752846FFF722FE3FA02B46C9
:102060001F22009002210820FEF76EFB3FA02B46A6
:102070001F22009014212020FEF766FB3A237122D4
:1020800026210F20FEF7FFF93BA02B4628210090C8
:1020900010204FF4FC62FEF757FB582371224421B5
:1020A0000F20FEF7F0F938A02B461F2200904621A2
:1020B0001020FEF749FB7623712262210F20FEF7E4
:1020C000E2F935A02B464FF4784600906421324661
:1020D0001020FEF739FB344C7D212B4632466079C7
:1020E00000906420FEF7DCFB4FF47A77384600F06E
:1020F00027FD20797D212B46324600906420FEF793
:10210000CFFB384600F01CFDE0787D212B4632469F
:1021100000906420FEF7C4FB384600F011FDA07863
:102120007D212B46324600906420FEF7B9FB3846ED
:1021300000F006FD60787D212B4632460090642039
:10214000FEF7AEFB384600F0FBFC20787D212B46E5
:10215000324600906420FEF7A3FBF8BD4D63756422
:102160006576B5E7D7D3BCBCCAF50000D2BABEA726
:10217000B2E2CAD400000000D1D5C9ABCCEEB3E4C2
:10218000B2E2CAD400000000CEC4D7D6CFD4CABEB3
:10219000B2E2CAD400000000CDBCC6ACCFD4CABEE7
:1021A000B2E2CAD4000000001C0000242DE9F04176
:1021B0000824104F4FF400480546A602280601D512
:1021C000012200E0002241463846FEF75DFD002274
:1021D00031463846FEF758FD012231463846FEF7B3
:1021E00053FD6806050E641E14F0FF04E6D1BDE839
:1021F000F0810000000402587047000070B5284CC0
:102200009CB0256825F004052560254C00260C347B
:10221000256845F440452560256805F440451B9533
:102220002568AD04FCD5012400940CAD039624046C
:10223000019402240994CDE90A410796082485E80F
:102240000D00CDE910466846FFF77AF888B93F20BF
:1022500013900320CDE9140640200101CDE916407A
:10226000CDE9180150201A90022113A8FEF7BAFEFA
:1022700010B101201CB070BD0A48016841F0800116
:1022800001600848F430016841F002010160006813
:1022900000F002001B90FEF7F7FB0020EAE70000C9
:1022A0000C48025800440258FEF7FABC1C4801686A
:1022B00041F4700101601B49086840F001000860AA
:1022C000184A0020103210600A68174B1A400A6042
:1022D000144A18321060121D1060121D1060114A4D
:1022E00028321060121D1060121D1060121D106047
:1022F000121D1060121D1060121D1060121D106062
:102300000A6822F480220A600649603108600120D0
:102310000649C1F80801C0060149803908607047C4
:1023200088ED00E0004402587FEDF6EA008000519D
:1023300010B5FFF78DFEFEF773F8FFF745FEFEF7C9
:10234000E1F800F0D1FC4FF4966000F0F9FB00F0EA
:1023500049FCBDE810404FF4FA6000F0F1BB90F882
:102360003410C90706D001684A68836B22F4003232
:102370001A434A6090F83410890706D501684A6804
:10238000C36B22F480321A434A6090F83410490734
:1023900006D501684A68036C22F480221A434A6019
:1023A00090F83410090706D501684A68436C22F496
:1023B00000421A434A6090F83410C90606D50168F5
:1023C0008A68836C22F480521A438A6090F8341031
:1023D000890606D501688A68C36C22F400521A4344
:1023E0008A6090F83410490611D501684A68036D77
:1023F00022F480121A434A60016DB1F5801F06D1A4
:1024000001684A68436D22F4C0021A434A6090F89A
:102410003410090606D501684A68806D22F400224E
:1024200002434A607047F8B500250446C567FEF7C9
:1024300031FC0746206800686FF07E46000708D52B
:1024400000223B464FF400112046009600F0FAFAB5
:1024500060B92068006840070AD500223B464FF467
:1024600080012046009600F0EDFA08B10320F8BD87
:10247000202084F8790084F87A00002084F87850CD
:10248000F8BD10B5806B0021A0F86A10A0F86210AA
:10249000FFF7C5F910BD01680A6822F490720A605E
:1024A00001688A6822F001028A60202180F87A108F
:1024B000704710B5B0F86C2090F87A300168222B84
:1024C00005D0088B40F008000883022010BD898CDD
:1024D0008368B3F5805F01D103696BB11140426E2F
:1024E000531C43661170B0F86A10491E0904090CA8
:1024F000A0F86A1007D015E0436E11401980416EB4
:10250000891C4166EFE701680A6822F490720A604C
:1025100001688A6822F001028A60202180F87A101E
:10252000FFF70EFB002010BD2DE9F04F04460068B8
:102530008025FD4B0021D4F810C087B0A6680F4657
:10254000D4F81C8046EA0C06D4F814C0A26A4CEAFF
:10255000080C46EA0C0632430668DFF8D0C306EAE8
:102560000C061643066020684268E66822F4405272
:10257000324342602268A0699A4201D0266A304301
:10258000A66AB6F1005F04D1D4E90B6C46EA0C06EA
:1025900030439668DFF898C306EA0C060643966057
:1025A0002068C26A666A22F00F023243C262E14EBC
:1025B0002068E14AB04210D1126802F03802182AAD
:1025C00074D005DCCAB3082A7AD0102A47D179E042
:1025D000202A7BD0282A7CD17AE0D84EB04209D17B
:1025E000126802F00702062A73D2DFE802F053698C
:1025F0006B6D6F71D24EB04209D1126802F00702C2
:10260000062A66D2DFE802F0465C5E606264CD4E68
:10261000B04209D1126802F00702062A59D2DFE857
:1026200002F0394F51535557C74EB0420BD1126883
:1026300002F00702062A4CD200E00EE0DFE802F0CA
:102640002A4042444648C14EB04209D1126802F0C5
:102650003802182A38D0BBDCB4E74FF0010538E067
:10266000BB4EB04209D1126802F00702062A30D2EE
:10267000DFE802F01026282A2C2EB64EB0420BD1ED
:10268000126802F00702062A23D2DFE802F00319DB
:102690001B1D1F2100251CE098421AD1A64A121DBD
:1026A000126802F00702062A13D202E00CE007E0EB
:1026B0000CE0DFE802F0030507090B0D022508E036
:1026C000042506E0402504E0082502E0102500E08E
:1026D0002025DFF864B2A04E9842DFF880A2ABF16B
:1026E000540B73D1102D31D006DC022D09D0042DEE
:1026F0000AD0082D2FD111E0202D29D0402D2AD12C
:1027000007E0FEF75DFB13E06846FEF76FFB0198FC
:102710000EE003A8FEF7E8FB049809E0DBF80010E0
:102720005846890610D50068C0F3C1012AFA01F0A5
:10273000002811D06168894601EB410181420AD825
:10274000B0EB093F07D808E05046F3E78448F1E7CB
:102750004FF40040EEE7012733E1102D4FF0000861
:102760004ED006DC022D0FD0042D15D0082D04D13B
:102770002DE0202D4AD0402D13D00127794AA0F515
:102780004071914270D9E6E7FEF71AFB626A0023B6
:10279000414636F812200DE06846FEF727FB019807
:1027A00003E003A8FEF7A0FB04980023616A36F853
:1027B00011201946FDF78CFD62680902030241EA07
:1027C00010615008181841EB080115E032E0DBF801
:1027D00000105846890609D500680023C0F3C101DE
:1027E0002AFA01F0616A36F8112015E0606A0023C8
:1027F00036F8102050460FE00023FDF769FDBDE7D5
:10280000606A002336F81020554805E0606A00230E
:1028100036F810204FF400400021FDF759FD090261
:10282000020241EA10614FEA590010184A4641EB92
:102830000801E1E7E3694FF4004293424DD1082DCE
:1028400023D005DC8DB1012D12D0042D06D112E06C
:10285000102D35D0202D3AD0402D11D0012721F058
:102860000F00C1F3420108435AE0FEF7C1FC16E035
:10287000FEF7D4FC13E06846FEF7B8FA01980EE0C4
:1028800003A8FEF731FB049809E0DBF80010584676
:10289000890608D50068C0F3C1012AFA01F0616A0F
:1028A00036F8111010E0606A36F81010BAFBF1F03B
:1028B0004100606801EB5001B1FBF0F081B2CEE75E
:1028C000606A36F810102648B0FBF1F0F0E7606A55
:1028D00036F81000B2FBF0F0EAE7082D4AD00ADC27
:1028E0000DB3012D43D0042D7FF44DAF6846FEF7A4
:1028F0007DFA019809E0102D52D0202D55D0402DA1
:10290000F2D103A8FEF7F0FA0498616A36F81110C4
:10291000B0FBF1F1606801EB5001B1FBF0F080B267
:102920002168C8604DE01FE0000C0058F369FFCF3C
:10293000FFF4FF11001001405444025800440040CD
:1029400000480040004C004000500040001401408E
:1029500000780040007C0040A02D00080090D003CB
:1029600000093D00FFFC0F00FEF742FCCDE7FEF73B
:1029700055FCCAE7DBF80020594692060AD50968DB
:10298000C1F3C1022AFA02F1626A36F81220B1FBE1
:10299000F2F20FE0616A36F81120BAFBF2F209E0B8
:1029A000616A36F811200949F1E7616A36F81110B9
:1029B000B2FBF1F2616802EB5102B2FBF1F189B2B4
:1029C000C16007B03846BDE8F08F000000093D0047
:1029D00090F87910212901D002207047B0F86210D8
:1029E00021B18168B1F5805F13D014E001680A68F5
:1029F000920004D58A6822F400028A6003E00A6823
:102A000022F080020A600068016841F04001016024
:102A10000CE0016961B1C16D4A1CC26502680978A8
:102A20001185B0F86210491EA0F8621000207047AE
:102A3000C16D02680988C1F308011185C16D891C47
:102A4000C165EEE72DE9F0411E461746884604466B
:102A5000069D1CE0681C1AD025B1FEF71BF9801BEF
:102A6000A84214D92068016821F4D071016020685F
:102A7000816821F001018160202084F8790084F8C8
:102A80007A00002084F878000320BDE8F0812068F7
:102A9000C16938EA010004D00020B842DAD0002031
:102AA000F3E70120F9E7000070B50D4D00240D4853
:102AB000FEF7BCFE02E0641CAC4204D80948FEF7F5
:102AC000AFFE2028F7D1002402E0641CAC4206D8F7
:102AD000054901220348FEF7DFFF0028F5D170BD4C
:102AE000FFFF0100F00000240C000024FEE70907AE
:102AF000090E002804DB00F1E02080F80014704784
:102B000000F00F0000F1E02080F8141D704702E093
:102B100008C8121F08C1002AFAD170477047002068
:102B200001E001C1121F002AFBD1704710B5044615
:102B30000420FEF753FE0148046010BD0800002485
:102B400070B5002405464FF47A7603E0304600F075
:102B500005F8641CAC42F9D370BD000070B54FF0AD
:102B6000E02500216C69094AAB6912685043AA69E3
:102B70009A42FCD002D2A3EB020302E0A4EB0206CD
:102B80003344194413468142F1D370BD0800002438
:102B9000FDF702FCFEF78CF8042302220521A02099
:102BA000FFF72CFB4FF4C870FFF7C0FF4FF4E13084
:102BB00000F0D2F8FFF752F8FFF78FF84EF67D706D
:102BC000FFF76EF8064C4FF47A75FFF7B1FB022160
:102BD0002046FEF755F82846FFF7B2FFF5E700005C
:102BE0000000025838B54EF67D742046FFF758F8BD
:102BF00039A123461F2200910A210820FDF7A4FDD8
:102C00004FF47A70FFF79CFF2046FFF749F8002346
:102C10007F2219464FF4784418460094FDF780FE51
:102C2000012300947F2219460020FDF779FE7F22C0
:102C300000949F2310460021FDF772FE7E2200942F
:102C40009F2310460021FDF76BFE9F2300947F22F7
:102C500019460020FDF764FE9E2300947F2219464A
:102C60000020FDF75DFE002200949F2311461046D0
:102C7000FDF756FE012200949F2310460021FDF728
:102C80004FFE4021234632220846FDF7AFFC40218B
:102C9000282208464FF4FC63FDF7A8FC40211F23BF
:102CA00008461E22FDF7A2FC4F23002419466E227F
:102CB00000940A20FDF734FE502300946E2219463A
:102CC0000A20FDF72DFE512300946E2219460A209A
:102CD000FDF726FE38BD0000436972636C65CFD4F2
:102CE000CABEB2E2CAD400002DE9F8434EF67D74A4
:102CF0002046FEF7D5FF13A123461F2200910A218B
:102D00001020FDF721FD4FF47A70FFF719FF2046E0
:102D1000FEF7C6FFDFF83C8000252E46002418F899
:102D200005006D1C18F805706D1CFFF70BF938468F
:102D3000FFF708F9641C802CF1DB761CA02EEDDB7C
:102D4000BDE8F883CDBCC6ACCFD4CABEB2E2CAD40B
:102D500000000000C24800080B490A4A10B5C1E94A
:102D6000002000208860C860086188610C204861EC
:102D70000846FEF71BFEBDE8104004490122024848
:102D8000FEF78ABE00100140F00000240C00002471
:102D90000000000001020304010203040607080901
:102DA000010002000400060008000A000C001000E8
:102DB0002000400080000001000000000000000032
:102DC0000000000000000000001010101010101093
:102DD000101000001010000000006C6C2424000093
:102DE00000000100000000000024242424FE4848C4
:102DF0004848FC909090900000103C5492905038BD
:102E000014121292547810000000225C94A848100A
:102E100010242A5254880000000030484850206E88
:102E200054948C888A740000000030301010000028
:102E30000000000000000000000408101020202006
:102E400020202010100804000080402020101010C6
:102E50001010102020408000000000001054381096
:102E6000385410000000000000000010101010FE88
:102E70001010101000000000000000000000000012
:102E8000000000001010200000000000000000FE04
:102E90000000000000000000000000000000000032
:102EA00000000000101000000000040408081010CA
:102EB00020204040808000000000384482828282CE
:102EC00082828282443800000000107010101010BE
:102ED00010101010107C000000003844828204089A
:102EE0001020408284FC0000000038448202043834
:102EF00004020282443800000000040C141424244C
:102F00004444FE04040E00000000FC808080B8C42D
:102F1000820202828478000000003C428280B8C4B1
:102F2000828282824438000000007E4282040408CB
:102F30000808101010100000000038448282443845
:102F400044828282443800000000384482828282B7
:102F5000463A0282443800000000000010100000D1
:102F60000000101000000000000000001010000021
:102F70000000001010200000000000000618608013
:102F80006018060000000000000000000000FE00C5
:102F900000FE00000000000000000000C0300C0235
:102FA0000C30C00000000000003844828202040897
:102FB000101010001010000000003844829AAAAAD5
:102FC000AAAAAA9680423C000000101010282828C7
:102FD00044447C4444EE00000000FC424242427CF7
:102FE0004242424242FC000000003C448280808019
:102FF00080808282443800000000F844424242420D
:103000004242424244F800000000FC444240447CFA
:103010004440404244FC00000000FC444240447CE8
:103020004440404040F000000000344C82808080EA
:103030008E8484844C3400000000EE444444447C7C
:103040004444444444EE000000007C101010101072
:1030500010101010107C000000003E08080808083E
:1030600008080888887000000000EE444848506056
:103070005048484444EE00000000E04040404040DA
:103080004040404244FC00000000C6446C6C6C545C
:103090005454444444EE00000000CE44646464543C
:1030A000544C4C4C44E4000000003844828282823C
:1030B00082828282443800000000F8444242424446
:1030C0007840404040E00000000038448282828224
:1030D000828282BA443C02000000F04844444448E2
:1030E0007048444444E6000000003C448280403084
:1030F0000C0202824478000000007C5492101010F0
:1031000010101010103800000000EE4444444444F5
:1031100044444444443800000000EE4444444428FD
:1031200028282810101000000000EE445454545475
:1031300054542828282800000000EE444428281071
:103140001028284444EE00000000EE4444282828BB
:10315000101010101038000000007E448408081081
:103160002020408284FC0000001C10101010101061
:103170001010101010101C000000EE445454FE54A7
:103180005454282828280000007010101010101027
:103190001010101010107000003048840000000063
:1031A000000000000000000000000000000000001F
:1031B000000000000000FE000040200000000000B1
:1031C0000000000000000000000000000000788403
:1031D000047C84848C7600000000C0404040586429
:1031E000424242426458000000000000000038449F
:1031F000808080804438000000000C040404344CBB
:10320000848484844C360000000000000000788430
:1032100084FC808084780000000018242020F8209E
:1032200020202020207000000000000000003A4410
:103230004478807C82827C000000C040404058641A
:103240004444444444EE00000000101000003010DC
:103250001010101010380000000010100000301086
:1032600010101010109060000000C04040405C48FA
:103270005060504844EE0000000030101010101153
:103280001010101010390000000000000000ACD237
:103290009292929292D6000000000000000058E442
:1032A0004444444444EE0000000000000000384460
:1032B0008282828244380000000000000000D8644E
:1032C000424242645840E000000000000000364CDA
:1032D0008484844C34040E000000000000006C3034
:1032E00020202020207000000000000000007888CE
:1032F0008460188444780000000000202020F8201A
:103300002020202024180000000000000000C642F9
:1033100042424242463A0000000000000000EE44F3
:103320004428282810100000000000000000EE448F
:103330004454542828280000000000000000EE44F7
:103340002810102844EE0000000000000000EE44A9
:103350004428281010A0C0000000000000007E4497
:103360008810204284FC0000000C10101010106027
:103370001010101010100C00001010101010101071
:10338000101010101010100000C020202020201855
:10339000202020202020C00000000000000000723B
:1033A0008C000000000000000000000000001FE092
:1033B00000003FF000003FF000001FE00001800629
:1033C0000003C00F0003C00F0003C00F0003C00FB5
:1033D0000003C00F0003C00F0003C00F0003C00FA5
:1033E00000030003000000000000000000000000D7
:1033F000000300030003C00F0003C00F0003C00F51
:103400000003C00F0003C00F0003C00F0003C00F74
:103410000003C00F0001800600001FE000003FF025
:1034200000003FF000001FE000000000000000006E
:103430000000008000000180000003800000078081
:103440000000078000000780000007800000078060
:103450000000078000000780000007800000078050
:1034600000000180000000000000000000000000DB
:103470000000018000000780000007800000078036
:103480000000078000000780000007800000078020
:10349000000007800000078000000380000001801A
:1034A00000000080000000000000000000001FE09D
:1034B00000003FF00000FFF00001FFE00000000608
:1034C0000000000F0000000F0000000F0000000FC0
:1034D0000000000F0000000F0000000F0000000FB0
:1034E00000001FE300007FF800007FF800001FE0ED
:1034F000000300000003C0000003C0000003C00080
:103500000003C0000003C0000003C0000003C000AF
:103510000003C0000001800000001FF000003FF821
:1035200000003FFC00001FFE000000000003FF80C1
:103530000001FFC00000FFC000007F8000000018F5
:103540000000003C0000003C0000003C0000003C8B
:103550000000003C0000003C0000003C0000003C7B
:1035600000007F8C0001FFE00001FFF000007F8081
:103570000000000C0000003C0000003C0000003C8B
:103580000000003C0000003C0000003C0000003C4B
:103590000000003C0000001800007F800000FFC019
:1035A0000001FFC00003FF800000000000000000D9
:1035B0000002000100030003000380070003C00FA6
:1035C0000003C00F0003C00F0003C00F0003C00FB3
:1035D0000003C00F0003C00F0003C00F0003C00FA3
:1035E00000031FE300007FF800007FFC00001FE0E5
:1035F000000000030000000F0000000F0000000F9B
:103600000000000F0000000F0000000F0000000F7E
:103610000000000F0000000F000000070000000382
:1036200000000001000000000000000000001FFC7E
:1036300000003FF800003FF000001FE000018000A4
:103640000003C0000003C0000003C0000003C0006E
:103650000003C0000003C0000003C0000003C0005E
:1036600000031FE000007FF800007FF800001FE06B
:10367000000000030000000F0000000F0000000F1A
:103680000000000F0000000F0000000F0000000FFE
:103690000000000F0000000600003FE000007FF087
:1036A0000000FFF00001FFE00000000000001FFC30
:1036B00000003FF800003FF000001FE00001800024
:1036C0000003C0000003C0000003C0000003C000EE
:1036D0000003C0000003C0000003C0000003C000DE
:1036E00000031FE000007FF800007FFC00001FE0E7
:1036F000000300030003C00F0003C00F0003C00F4E
:103700000003C00F0003C00F0003C00F0003C00F71
:103710000003C00F0001800600001FE000003FF022
:1037200000003FF000001FE0000000000007FFE085
:103730000003FFC00001FF880000FF1800000038F0
:103740000000007800000078000000780000007899
:103750000000007800000078000000780000007889
:103760000000001800000000000000000000000041
:1037700000000018000000780000007800000078C9
:103780000000007800000078000000780000007859
:1037900000000078000000780000003800000018E9
:1037A00000000008000000000000000000001FE012
:1037B00000003FF000003FF000001FE00001800625
:1037C0000003C00F0003C00F0003C00F0003C00FB1
:1037D0000003C00F0003C00F0003C00F0003C00FA1
:1037E00000031FE300007FF800007FFC00001FE0E3
:1037F000000300030003C00F0003C00F0003C00F4D
:103800000003C00F0003C00F0003C00F0003C00F70
:103810000003C00F0001800600001FE000003FF021
:1038200000003FF000001FE00000000000001FE06B
:1038300000003FF000003FF000001FE000018006A4
:103840000003C00F0003C00F0003C00F0003C00F30
:103850000003C00F0003C00F0003C00F0003C00F20
:1038600000031FE300007FF800007FFC00001FE062
:10387000000000030000000F0000000F0000000F18
:103880000000000F0000000F0000000F0000000FFC
:103890000000000F0000000600001FE000003FF0E5
:1038A00000007FF00000FFE00000000000000000CA
:1038B0000000000000000000000000000000000008
:1038C00000000000000000000000000000000000F8
:1038D00000000000000000000000000000000000E8
:1038E00000000000000000000000000000000000D8
:1038F0000000000000000000000000000000780050
:1039000000007800000078000000780000007800D7
:10391000000078000000000000000000000000002F
:103920000000000000000000000000000000000097
:103930000000000000000000000000000000000087
:1039400000000000000000000000070000000F80E1
:1039500000000F8000000F80000007000000000042
:103960000000000000000000000000000000000057
:10397000000000000000070000000F8000000F8022
:1039800000000F80000007000000000000000000A1
:103990000000000000000000000000000000000027
:1039A0000000000000000000000000000000000017
:1039B00000000000000000000007C006000FE00645
:1039C0000000000C003018180030181800301830B3
:1039D0000030183000301860003008C00007C0C048
:1039E000000FE080000000000000000FE00006076C
:1039F000C000063018000C3018000C3018001830C9
:103A00001800303018003030180060000000C00F7F
:103A1000E000C007C000000000000000000000003F
:103A20000000000000000000000000000000000096
:103A30000000000000000000000000000000000086
:103A4000000700E0000887FC00088E0300089801CA
:103A50008007180080003000000030000000700077
:103A600000006000000060000000600000006000D6
:103A70000000600000007000000030000000300016
:103A8000000038000000180100000C03000007FCD3
:103A9000000001F000000000000000000000000035
:103AA0000000000000000000000000000000000016
:103AB0000000000000000000000000000000000006
:103AC00000000000000000000000000000000000F6
:103AD00000000000000000000000000000000000E6
:103AE0000000000000003FF000007FF000007FE0D9
:103AF0000000FFC000000000000000000000000007
:103B000000000000000000000000000000000000B5
:103B100000000000000000000000000000000000A5
:103B200000000000000000000000B5E702000200F5
:103B300002007FF0421042107FF0421042107FF0EE
:103B400042000208020801F800000000D7D37FF00D
:103B500000200040008001000200FFF80200020087
:103B600002000200020002000E0000000000C8ABCC
:103B70000100010002800440082010102FE8C10657
:103B8000010001001FF00100010001007FFC0000A6
:103B9000B6AF004000407C40004001FC0044FE44C1
:103BA00020442044208448844484FD0445040228A1
:103BB0000410BCBC10201020102013FEFC2010208C
:103BC000102015FC18843088D04810501020105058
:103BD00051882606CAF501000120011001107FFC62
:103BE000038005400540092011102108410401020D
:103BF000010001000100D2BA0080404027F81140C6
:103C000001408278424816A81AD023502220422030
:103C10004250028800000000BEA73FE020203FE0A5
:103C200020203FE00000FDF885088508FDF88508A4
:103C30008508FDF8850800000000B2E200084F8802
:103C400028880AA88AA84AA80AA82AA82AA842282E
:103C5000450884888888103800000000CAD4405085
:103C6000204820400FF80040E040274022402240FA
:103C700022202A2833A82E18000800000000B3CC08
:103C800000001BF0E210221023F0F800200033F0B7
:103C900068806080A3F02080208027F8000000006A
:103CA000D0F2020001003FF820002FF02020224037
:103CB00021803FF820882090408040808380000051
:103CC0000000D1D5200010F87E20444028F87E88DE
:103CD00048A850A864A848A872A884501888610809
:103CE00000000000C9AB100010003FE040408080A1
:103CF0007FF04210421042107FF040004008400820
:103D00003FF800000000CCEE20802FF8208027F044
:103D1000F41027F0241027F0241027F03410CFF8E7
:103D20000220041000000000B3E404000200FFF8C9
:103D30000800104020207FF008900880088008804C
:103D400010882088C07800000000CEC40400020063
:103D50000200FFF8104010400880088005000200B3
:103D6000050008803060C01800000000D7D60400AD
:103D70000200FFF8800880083FC0008001000200B8
:103D8000FFF80200020002000E0000000000CFD485
:103D90003FE0202020203FE0202020203FE008803E
:103DA0004890289028A008800880FFF800000000B4
:103DB000CABE00003FE0000000000000FFF8020063
:103DC0001240122022104208820802000E00000059
:103DD0000000CDBC7FF84008440847C848485488D4
:103DE00043084CC8733840884C08430840887FF823
:103DF00000000000C6AC00802080208020803FF0C2
:103E00002000200020003FC02040204020404040B3
:103E1000804000000000B4A520403840484091F0A8
:103E20007D50555055507D5055F054407C40545075
:103E300057F88C0800000000C3FE2220222027F83B
:103E4000FA2027F0241027F03410E7F020802FF814
:103E500021402220EC1800000000CAE440804140CC
:103E6000F22044108BE8A000F78824A827A834A8E3
:103E7000E7A824A8248825B800000000C8EB0800A3
:103E8000040004000200020005000500088008800C
:103E90001040104020204010800800000000C8ABF7
:103EA000020002000500088010402020DFD8020038
:103EB00002001FC0020002000200FFF80000000024
:103EC000B3CC00001BF0E210221023F0F800200019
:103ED00033F068806080A3F02080208027F8000005
:103EE0000000BCBC208020802080F7F02080208053
:103EF00027E03220E2202140208021402220EC18BF
:103F000000000000CAF50200024002200200FFF893
:103F100007000A800A801240222042108208020014
:103F2000020000000000D6A702000200FFF8020015
:103F300002007FE01020104008800500020005000C
:103F400018C0E03800000000B3D62080208023F0A5
:103F5000F880208027F828203020E7F82020222031
:103F600021202020E0E000000000D7A8020002008D
:103F70007FF004000400FFF8080010003FE000207C
:103F800000401C800300008000000000D7A2010058
:103F90004080200017F0008080804080008017F073
:103FA00010802080208040804FF800000000C5FA7B
:103FB000204024402440F4482450276024403440CA
:103FC000E4402440244025482648E438000000000E
:103FD000B7A202002220221044007FF8040008004B
:103FE0000FE0142024404280810006C038380000D1
:103FF0000000B3C900A0009000807FF8408040908E
:104000007C90449044A044A0444858A84118820899
:1040100000000000B9A601000100F90023F0211002
:1040200021102110211021103910C210021004108B
:10403000086000000000D2C60000002000780CE4F8
:104040007904516810307E6019981A3C2FE448E4D6
:104050000838003000600000D1A1000001200120DC
:1040600003FC62203420042003FC240021B0212022
:104070002220323E18000FE00000D4F100000000C2
:1040800010FC1304110C3DF8703E10D015907CF01C
:10409000503E18101BFE023000200000CFEE000042
:1040A000000003FE00607C4012FC11041106113672
:1040B00011241F44794400C0009C01860000C4BF45
:1040C000000000000FE03C18200820043E046004BB
:1040D00060047E046004200C20081FF001800000B2
:1040E000B6CC0000080011FC103E3EF82D8C2904CF
:1040F000490409043E8C50FC10881EC811FC100EA7
:104100000000B0B400000040006012FE13023A420A
:104110007F4410C41BFE3C987190113011A00078B0
:10412000004C0000C8B70000004000F878C41F8CA5
:10413000313821EC2126413A7DE2272225FA3D261D
:10414000012401040000B6A80000010001705FFC1A
:10415000700420042FF801001100113821C431002F
:104160003F0063E040380000B3A4000000000818DE
:10417000086008C00B001E00181C7FF010001180A2
:1041800010E01838098E0F000000B0B400000040A5
:10419000006012FE13023A427F4410C41BFE3C989A
:1041A0007190113011A00078004C0000B7B50000EC
:1041B000000007F80600240014F8078C0404240803
:1041C000261825F0647C64C220801FC00000BBD884
:1041D000000000001FF030182008278C2C442844D1
:1041E00028442CC427842004300C1FF803800000CE
:1041F000C7B60100210821083FF800202220223EF6
:10420000FF42229422103E10221022283E282244EF
:104210000082CABD0048004400440040FFFE004048
:1042200000403E4008400840082008220F12780A4B
:1042300020060002BFAA00007FFC082008200820FA
:1042400008200820FFFE0820082008200820102051
:10425000102020204020B7A20100111011082200D8
:104260003FFC0200040007F80A080908111010A01A
:10427000204040A003181C06CDF800007FFC40043D
:104280004004421452944A54442444244A544A5404
:1042900052946104400440144008D6D0010001004B
:1042A000010001003FF82108210821082108210808
:1042B0003FF821080100010001000100CEC4020006
:1042C00001000100FFFE101010100820082004401B
:1042D000028001000280044008203018C006B2E2CB
:1042E000000427C4144414548554455445541554AB
:1042F00015542554E554210422842244241408082A
:10430000CAD4002820241024102007FE0020F0200A
:1043100017E0112011101110151019CA170A020602
:10432000000200000000000000000000000000008B
:10433000000000000000000000000000000000007D
:1043400000000000B4BF00000000000002010006F1
:104350003FC00C3FE01803001002003336603726E0
:10436000203E66301C643018642031FEE03F1FC0E0
:104370001C0C00000C000704003E07F00001C00008
:104380000000000000000000000000000000C9ABB9
:1043900000000000000001FE0003E3000703000C22
:1043A00003001C3F003BFFC03F30600C30200C304E
:1043B000200C10200C10600FFFC0083F0008000008
:1043C0000800600E3FE007FC000000000000000055
:1043D0000000000000000000CCEE00000000000023
:1043E00000030000FFE00C07F00C06000CFF803F0C
:1043F000F0E01FC0600CFE300CCC3004F83004FF3D
:104400002004C0201FFE603EC06001FFF001FFF0ED
:10441000006060004000000000000000000000009C
:104420000000B3E4000000000000002000003000A5
:1044300007FFF03FFFE00300000601800C01800849
:1044400001C01807E00FFE7007E000020600060436
:10445000000404000404000C06700C07E0000000D7
:10446000000000000000000000000000B2E20000B8
:104470000000000000003039FC301FCC300706B0CF
:104480000F06F01907B03137B03136F01F27F001B1
:1044900067F001E5F001E1F00041F00CF8B03CD824
:1044A00030008C3000803000000000000000000070
:1044B000000000000000CAD4000000000000080353
:1044C000600C03700C0330003FE0003F80080100E7
:1044D0003C0180047F80047D800C00800C10C00CA7
:1044E00010C00C18400C1C600F7E6006703000007D
:1044F000300000000000000000000000000000008C
:10450000CEC400000000C00000E00000700001FF09
:10451000E01FFFC0180100000300000600000E00AD
:10452000001C000E180007300001E00000F0000041
:10453000FC00018F000303C00201E0000000000046
:1045400000000000000000000000D7D600000000BE
:104550000000002000003F0031FFE03FC020380095
:104560003030FE2033C660100200000C000018003E
:10457000001800000C0007FFE03FFFE0000400000F
:104580000C00000C00000000000000000000000013
:1045900000000000CFD400000000000007FF000F63
:1045A00003C00C00401FF8601800600800400E01B6
:1045B000C007FF000000000184000184001987800B
:1045C0000F8CE0078C2000CC0003FFE01FFFC00031
:1045D0000000000000000000000000000000CABE53
:1045E0000000000000000E00001FFFC0007FE00080
:1045F0000000000000000000000000003FC03FFF7E
:10460000E00030000030000030000613000C13C042
:104610000C18F01818001818000000000000000026
:104620000000000000000000CDBC00000000000001
:1046300007FF000F03801CC0C019FC6011C6603367
:10464000062033E63036FF30301FF030703030FC5B
:1046500030339F3036002010E060187C400E01C0DF
:1046600003FF000038000000000000000000000010
:104670000000C6AC00000000000008180018080088
:10468000180800180800180C201FFFF01FF8001869
:10469000000010000010F8001FFE001E03001003B1
:1046A00000100300100300100300180200000000B7
:1046B000000000000000000000000000CFD4000057
:1046C0000000000007FF000F03C00C00401FF8604F
:1046D0001800600800400E01C007FF000000000144
:1046E00084000184001987800F8CE0078C2000CCA7
:1046F0000003FFE01FFFC0000000000000000000FA
:10470000000000000000CABE0000000000000E0013
:10471000001FFFC0007FE00000000000000000005C
:10472000000000003FC03FFFE0003000003000000C
:1047300030000613000C13C00C18F01818001818DD
:104740000000000000000000000000000000000069
:10475000B4A50000000000000601800FC1801E61AA
:1047600080304FC020CFE0078D303FC930337930E3
:104770003379303FFB3037FF203267E03FE3803F43
:10478000E3C03263603267F0304FB00000000000D9
:1047900000000000000000000000C3FE0000000058
:1047A00000000030C000FFF00C79C00C1F800C7FAF
:1047B000E03FE0600CC0300CFC3004C03007C0307B
:1047C0001E60603C3FC0041C00047FE000FFE0006E
:1047D00030C0006060000000000000000000000029
:1047E00000000000CAE40000000000000C03800C80
:1047F0000FC0081C703F70001F9FC0101FC010002A
:1048000000367C3017E6301FE3B0067FB00277F049
:1048100007E3F03F7FF01336F00326300326300025
:104820000000000000000000000000000000C8EBD5
:1048300000000000000006000003800001C000002E
:10484000E00000700000780000CC0000C60001838A
:10485000000301800700C00600E00C007018003063
:104860001800003000000000000000000000000000
:104870000000000000000000000000000000000038
:104880000000000000000000000000000000000028
:104890000000000000000000000000000000000018
:1048A0000000000000000000000000000000000008
:1070F0000000002008000000002000000800002020
:1071000000200800002000820905126A0C300D35AD
:107110000D1605760BEF08E40000002000000000CB
:1071200000200000080100010020000000000020F5
:10713000000000000000000000000000000000004F
:10714000000000000800000100200000000108000D
:1071500000000081002000000800004000200040E6
:10716000000000000000000000000000000000001F
:10717000000000000000000000000000000000000F
:1071800000000000000000000000000000000000FF
:1071900000000000000000000000000000000000EF
:1071A00000000000000000000000000000000000DF
:1071B00000000000000000000000000000000000CF
:1071C00000000000000000000000000000000000BF
:1071D00000000000000000000000000000000000AF
:1071E000000000000000000000000000000000009F
:1071F000000000000000000000200000000000600F
:10720000000000C525551FFD079D17BE17FF07FF8E
:1072100007FF07FE17FF1FFE1CB310C5000000008C
:107220000800000000200020080100000000080005
:10723000002100000000000000000000000000002D
:10724000000000020820080000010020020625348A
:1072500016191F1B26DB05D81DFA171B1E3709A69A
:1072600000200000000000000000000000000000FE
:10727000000000000000000000000000000000000E
:1072800000000000000000000000000000000000FE
:1072900000000000000000000000000000000000EE
:1072A00000000000000000000000000000000000DE
:1072B00000000000000000000000000000000000CE
:1072C00000000000000000000000000000000000BE
:1072D00000000000000000000000000000000000AE
:1072E000000000000000000000000000000000009E
:1072F0000000000000000020000000000040080026
:107300000A8B1F9D0FFF07FF07BF17FF07FF07DF50
:107310000FFF07DF07FF07FF07DF07FE15D611C8BE
:107320000021000008200000000000000000000113
:10733000000000000000000000000000000000004D
:107340000000000008000000084111A917FF1DB649
:107350000B4B0249124A02CA0ACA0A6912AA0063FE
:10736000000100000000000000000000000000001C
:10737000000000000000000000000000000000000D
:1073800000000000000000000000000000000000FD
:1073900000000000000000000000000000000000ED
:1073A00000000000000000000000000000000000DD
:1073B00000000000000000000000000000000000CD
:1073C00000000000000000000000000000000000BD
:1073D00000000000000000000000000000000000AD
:1073E000000000000000000000000000000000009D
:1073F000000000000000000000010820000001055E
:10740000275C07FF07DF07FF07FF07FE07FE07FFF1
:107410000F9F07FF07FF07FF0FDF07BF07FF077B70
:107420001BD01000002000200020000000010020E0
:107430000800000000000000000000000000000044
:10744000000000000020002008002D971D9700007C
:1074500000000000002000000000002000000000EC
:1074600000200000000000000000000000000000FC
:10747000000000000000000000000000000000000C
:1074800000000000000000000000000000000000FC
:1074900000000000000000000000000000000000EC
:1074A00000000000000000000000000000000000DC
:1074B00000000000000000000000000000000000CC
:1074C00000000000000000000000000000000000BC
:1074D00000000000000000000000000000000000AC
:1074E000000000000000000000000000000000009C
:1074F00000000020080008000000000010831E5853
:1075000007FF079F07FF07FF0FFF0FFF07DF07DFDB
:1075100007FF0FDE07FF07FF0FDF07FF07FF0FFF64
:107520000FDF2618090500000000000100610000BF
:10753000002000000000000000000000000000002B
:10754000000008000001080000000D3325F80000CD
:1075500000000000002000200020002000000800A3
:10756000000000000000000000000000000000001B
:10757000000000000000000000000000000000000B
:1075800000000000000000000000000000000000FB
:1075900000000000000000000000000000000000EB
:1075A00000000000000000000000000000000000DB
:1075B00000000000000000000000000000000000CB
:1075C00000000000000000000000000000000000BB
:1075D00000000000000000000000000000000000AB
:1075E000000000000000000000000000000000009B
:1075F0000000000008000000000000410B0C0FFE1E
:1076000007FF07FE07FF07FF07DF07FF07FF07DF8B
:1076100007FF07FF07DF07FF07BF07DF07FF07FFBA
:1076200007FF07DF1F1B328B00000020080100202E
:10763000000000000000000000000000000000004A
:107640000000002000000063002011870F3C1CD4C4
:107650000A690946082200821063000100C3000085
:1076600000400000000000000000000000000000DA
:10767000000000000000000000000000000000000A
:1076800000000000000000000000000000000000FA
:1076900000000000000000000000000000000000EA
:1076A00000000000000000000000000000000000DA
:1076B00000000000000000000000000000000000CA
:1076C00000000000000000000000000000000000BA
:1076D00000000000000000000000000000000000AA
:1076E000000000000000000000000000000000009A
:1076F0000000000000000020100000200D5407DFF3
:1077000007DF07FD07DE07FF07FF07DF0FDF07FFC4
:1077100007FF07DF07DF0FFF07FF07DF07FF07FF91
:107720000FDE0FFF07FF0FFD1B4D000000210001C2
:107730000000000000000000000000000000000049
:1077400000000001006000010800008015341FFFE8
:1077500007DE1F3A16B90E391E3A16FB1E1609042B
:107760000000000000000000000000000000000019
:107770000000000000000000000000000000000009
:1077800000000000000000000000000000000000F9
:1077900000000000000000000000000000000000E9
:1077A00000000000000000000000000000000000D9
:1077B00000000000000000000000000000000000C9
:1077C00000000000000000000000000000000000B9
:1077D00000000000000000000000000000000000A9
:1077E0000000000000000000000000000000000099
:1077F000000000000001000000200000157607DFF7
:107800000FFE07FF07FF07FF07FF07FF07FF07FF41
:1078100007FF0FDF0FFF07BF07FF07FF0FBF07FFC0
:1078200007FF07FE07FF0FDF1FFF147100000800AE
:10783000080100000000000000000000000000003F
:107840000000000000000800080013AD0FFF15B78E
:1078500009250104012411450904016501040021E1
:107860000000000000000000000000000000000018
:107870000000000000000000000000000000000008
:1078800000000000000000000000000000000000F8
:1078900000000000000000000000000000000000E8
:1078A00000000000000000000000000000000000D8
:1078B00000000000000000000000000000000000C8
:1078C00000000000000000000000000000000000B8
:1078D00000000000000000000000000000000000A8
:1078E0000000000000000000000000000000000098
:1078F0000000004008010000004000001C7217FF5B
:1079000007DF07FF07FF07DF07FF07FF07FF07FF87
:1079100007FF07FF07FF07FF07FF07FF07FF07FF37
:1079200007FF07FF07FF07BF07FF17BE1390000100
:107930000040000200400000000100200020000183
:10794000000100400801000010001FDD0472080063
:1079500000000001000000200000000000010041C4
:107960000000000000000000000000000000000017
:107970000000000000000000000000000000000007
:10798000080000200000000000400000080008007F
:1079900000200000000000000000000000000000C7
:1079A00000000000000000000000000000000000D7
:1079B00000000000000000000000000000000000C7
:1079C00000000000000000000000000000000000B7
:1079D00000000000000000000000000000000000A7
:1079E0000000000000000000000000000000000097
:1079F0000000000000001000000000000208177CDA
:107A000007FF07FD07FE07FF07FF07DF0FFF07FF61
:107A100007FE07FF07FF07FF07FF07FF07FF07FF37
:107A200007FF07DF0FDF07FF07FF0FFF1FBD0C0F6B
:107A300000010000000000200000000000410000E4
:107A40000800002008000021002113AE26FB01667B
:107A500008000000002100201000000000000000CD
:107A60000000000000000000000000000000000016
:107A700000000000002000000000000000000020C6
:107A80000020000000410000000000000020000075
:107A900000000020002000000000000000000000A6
:107AA00000000000000000000000000000000000D6
:107AB00000000000000000000000000000000000C6
:107AC00000000000000000000000000000000000B6
:107AD00000000000000000000000000000000000A6
:107AE0000000000000000000000000000000000096
:107AF00000000000004000000000080000001CF42E
:107B000007FF07FF07FF07FF07FF07DF07FF0FFF5D
:107B100007FF07FF07FF07FF07FF07FF07FF07FF35
:107B200007FF07FF0FDF0FFF07FF079F0FFF0F7C08
:107B300014110000000008000000000008010020EF
:107B40000000000008000041000018E53EFD07FEAF
:107B50002516134D1B6E1BCF13AD138D1BEF0104A8
:107B60000000000000000000000000000000000015
:107B700000000000002000000000000000200020A5
:107B800000000800000000000800080000000000DD
:107B900000220000000000000000000000000000C3
:107BA00000000000000000000000000000000000D5
:107BB00000000000000000000000000000000000C5
:107BC00000000000000000000000000000000000B5
:107BD00000000000000000000000000000000000A5
:107BE0000000000000000000000000000000000095
:107BF00000000800080000000000000000000A4A21
:107C00001F1C0FFF07DF07DF07FF0FFF07FF07FF3F
:107C100007DF07FF07FF07FF07FF07FF07FF07FF54
:107C200007FF07FF07DF07FF0FFF07DF07DF0FFF74
:107C300007FF130C002008000801000008000000E6
:107C40000020000000000040002029C72C91148F64
:107C50001CB21CD41CB23C11149225351D9501A8F0
:107C600000230000000000000000000000000000F1
:107C700000000000000000000800000000200000DC
:107C80001000004000000000000000210000000083
:107C900000000000000000000000000000000000E4
:107CA00000000000000000000000000000000000D4
:107CB00000000000000000000000000000000000C4
:107CC00000000000000000000000000000000000B4
:107CD00000000000000000000000000000000000A4
:107CE0000000000000000000000000000000000094
:107CF0000000002000210020002000000001000101
:107D00000A071E9A1FDF07FF07DF07DF07FF07FFCE
:107D100007FF07FF07FF07FF07FF07FF07FF07FF33
:107D200007FF0FFF07DF07DF0FFF07FF07FF07DF73
:107D300007FF179E01E80021000100000020080055
:107D40000020000000000020002000000023094562
:107D50000B8E0D5414F213AE0B0C00620020086061
:107D60000802000000000000000000000000000009
:107D70000000000000000000000000000000000003
:107D800000A2000000210000000008000000000028
:107D90000000002000200020002000000000000063
:107DA00000000000000000000000000000000000D3
:107DB00000000000000000000000000000000000C3
:107DC00000000000000000000000000000000000B3
:107DD00000000000000000000000000000000000A3
:107DE0000000000000000000000000000000000093
:107DF0000000000008010000000000200001000059
:107E00000000004114B20FFE07FF07FF0FFF07FF3E
:107E100007FE07FF07FF07FF07FF07FF07FF07FF33
:107E200007FF07DF07FF07FF07FF07FF07FF07DF62
:107E30000FDF07DF1F7D132C08000000000000018A
:107E40000000080100000001002000C30D571FDFE3
:107E500016DB0D960C721596177D273B0227000046
:107E60000001000000000000000000000000000011
:107E700000000060080008000040002010000061C1
:107E8000248F2555018808010020004000001021A2
:107E900000010800000000000000000000200000B9
:107EA00000000000000000000000000000000000D2
:107EB00000000000000000000000000000000000C2
:107EC00000000000000000000000000000000000B2
:107ED00000000000000000000000000000000000A2
:107EE0000000000000000000000000000000000092
:107EF000000000000000000000000000000008007A
:107F0000000008A31CD20FFE07FF07FF07FF07FFB3
:107F10000FFF07FF07FF07FF07FF07FF07FF07FF29
:107F200007FF07FF0FFF07FF07FF07FF0FBE07DF72
:107F300007FF1FFF177D01E7000000200800002059
:107F400000000000002000010820130C27FE1AAAE0
:107F5000082008000040000000642DD81F9D01A8E3
:107F60000800000000000000000000000000000009
:107F70000000002008000800002000201000002061
:107F800002261F9D17BC0E570BAE11A70061000003
:107F900008000001000100010000000000000000D6
:107FA00000000000000000000000000000000000D1
:107FB00000000000000000000000000000000000C1
:107FC00000000000000000000000000000000000B1
:107FD00000000000000000000000000000000000A1
:107FE0000000000000000000000000000000000091
:107FF00000000020000000400800080000200000F1
:108000000A292F7D0FFF07FF07DF0FFE07FE07DF9F
:1080100007FF07FF07FF07FF07FF07FF07FF07FF30
:1080200007FF07FF07FF07DF07FF07FF07FF07FF40
:1080300017FF07FE120A08010021000000200800B7
:1080400000200020080200000020157624D408003B
:108050000000000108020000004000010F7B02EC5C
:108060000000000000000000000000000000000010
:108070000000000000000000000000000000000000
:108080000801006109251B4E2DB726FB16DA159550
:108090001C50032B0B0B0A69014500410000000036
:1080A00008000000000000000000000000000000C8
:1080B00000000000000000000000000000000000C0
:1080C00000000000000000000000000000000000B0
:1080D00000000000000000000000000000000000A0
:1080E0000000000000000000000000000000000090
:1080F000000008000020000000000020080009A780
:10810000177E07FF07FF07FF07FF07FF07FF07FFB0
:1081100007FF07FF07FF07FF07FF07FF07FF07FF2F
:1081200007FF07FF07DF07FE0FDF07BF07FF07FD9A
:108130000F5D194400400000000000000000000036
:108140000000000000000041000014D2263600208C
:108150000001080000400000000001842F5F01655D
:1081600000000000002000200800080000000000BF
:1081700000000000000000000000000000000000FF
:108180000000000008000000000000C302080BEF20
:1081900025751FBE1F1D2FDF1FBE053402AB09A6AC
:1081A0000103000000000040080100210061000000
:1081B00000010000000000000000000000000000BE
:1081C00000000000000000000000000000000000AF
:1081D000000000000000000000000000000000009F
:1081E000000000000000000000000000000000008F
:1081F00000000000000000200000002008421DF5E3
:108200000FFF07FF07FF07FF07FF07FF07FF07FF36
:1082100007FF07FF07FF07FF07FF07FF07FF07FF2E
:1082200007FF0FDF07FE07FF07DF07FF07FF07FF57
:108230001ACB0061000000000000000000000000F8
:108240000000000000600000000010E62F9D0B6D94
:10825000082000010800000020C7163905B71000EB
:1082600000000801000000000020000000000000E5
:1082700000000000000000000000000000000000FE
:10828000000000200020002000000000000000008E
:10829000006200620082010512EC1D141E1826BC4B
:1082A0001FBF163B1C32138D014410000800000054
:1082B00000000000000000000000000000000000BE
:1082C00000000000000000000000000000000000AE
:1082D000000000000000000000000000000000009E
:1082E000000000000000000000000000000000008E
:1082F00000000020000000000000002001C827FF4F
:1083000007FF07FF07FF07FF07FF07FF07FF07FF3D
:1083100007FF07FF07FF07FF07FF07FF07FF07FF2D
