:020000040800F2
:10000000300D0024AD02000831430008373C0008E1
:10001000B9020008FD080008F550000800000000C3
:10002000000000000000000000000000DF460008A3
:100030005D0A00080000000033430008DD480008A6
:10004000C7020008C7020008C7020008C70200086C
:10005000C7020008C7020008C7020008C70200085C
:10006000C7020008C7020008C7020008C70200084C
:10007000C7020008C7020008C7020008C70200083C
:10008000C7020008C7020008C7020008C70200082C
:10009000C7020008C7020008C7020008C70200081C
:1000A000C7020008C7020008C7020008C70200080C
:1000B000C7020008C7020008C7020008C7020008FC
:1000C000C7020008C7020008C7020008C7020008EC
:1000D000C7020008B1500008C7020008C7020008A4
:1000E000C7020008C702000800000000C70200089D
:1000F000C7020008C7020008C7020008C7020008BC
:10010000C7020008C7020008C7020008C7020008AB
:10011000C7020008C7020008C7020008C70200089B
:10012000C7020008C7020008C7020008C70200088B
:10013000C7020008C7020008C7020008C70200087B
:1001400000000000000000000000000000000000AF
:10015000C7020008C7020008C7020008C70200085B
:10016000C7020008C7020008C7020008C70200084B
:10017000C7020008C7020008C7020008C70200083B
:10018000C7020008C7020008C7020008C70200082B
:10019000C7020008C7020008C7020008C70200081B
:1001A000C7020008C7020008C7020008C70200080B
:1001B000C7020008C7020008C7020008C7020008FB
:1001C000C7020008C7020008C7020008C7020008EB
:1001D000C7020008C7020008C7020008C7020008DB
:1001E000C7020008C7020008C7020008C7020008CB
:1001F000C7020008C7020008C7020008C7020008BB
:10020000C7020008C7020008C7020008C7020008AA
:10021000C7020008C7020008C7020008C70200089A
:10022000C7020008C7020008C7020008000000005B
:10023000C7020008C702000800000000C70200084B
:10024000C7020008C7020008C7020008C70200086A
:10025000C7020008C7020008C7020008C70200085A
:10026000C7020008C7020008C7020008C70200084A
:10027000C7020008C7020008C7020008000000000B
:10028000C702000800000000C702000800000000CC
:1002900000000000C7020008DFF80CD000F048FAA8
:1002A00000480047815A0008300D00240648804766
:1002B00006480047FEE7FEE7FEE7FEE7FEE7FEE74B
:1002C000FEE7FEE7FEE7FEE7E148000899020008C6
:1002D0002DE9F05F0546002092469B46884606467B
:1002E000814640241BE0284641464746224600F00E
:1002F00057F853465A46C01A914110D31146184632
:10030000224600F03EF82D1A67EB01084F462246C0
:100310000120002100F035F817EB00094E41201EA6
:10032000A4F10104DFDC484631462A464346BDE8D5
:10033000F09F40EA01039B0703D009E008C9121FA0
:1003400008C0042AFAD203E011F8013B00F8013B8F
:10035000521EF9D2704730B50B46014600202022CC
:10036000012409E021FA02F59D4205D303FA02F5C2
:10037000491B04FA02F52844151EA2F10102F1DC22
:1003800030BD202A04DB203A00FA02F10020704739
:100390009140C2F1200320FA03F3194390407047C3
:1003A000202A04DB203A21FA02F00021704721FACA
:1003B00002F3D040C2F12002914008431946704731
:1003C0002DE9FE4F804681EA0300C00F0C460090E5
:1003D00021F0004123F00045B8EB0200A94105D20D
:1003E0004046214690461C460B46024623F00040FC
:1003F000104347D0270DC7F30A00C3F30A510290F8
:10040000401A019040286BDAC3F3130040F4801BBC
:100410000098924620B10023D2EB030A63EB0B0B4A
:1004200001985946C0F140025046FFF7AAFF064620
:100430000D4650465946019A00F08CF910EB080021
:100440006141002487EA115284EAE7731A4340D0DD
:10045000009A62B3019A012A4FEA075215DC001B89
:1004600061EB02014FF0004202EA0752CDE900427F
:10047000001C41F5801132462B4600F08CF903B088
:10048000BDE8F08F40462146F9E7001B61EB020111
:10049000001C41F5801300185B412018A2F50017DD
:1004A00047EB030140EAD570B6196D4111E06D08C4
:1004B0004FEA360645EAC0754FEA0752001B61EB6A
:1004C0000201001C41F5801149084FEA3000001973
:1004D000514132462B4603B0BDE8F04F00F04CB915
:1004E0000098012240000023D0EB020263EBE0738E
:1004F000009821464FEAE074B8EB000061EB04017C
:10050000E9E783F000435BE781F0004158E72DE91C
:10051000FE4F81EA030404F0004421F000410094FE
:100520004FF0000B23F0004350EA01045ED052EA82
:1005300003045BD0C3F30A54C1F30A552C44A4F25C
:10054000F3340194A0FB0254C1F3130141F4801170
:10055000C3F3130343F4801301FB024400FB034E77
:10056000840A970A44EA815447EA8357A4FB076840
:1005700002958D0A05FB07854FEA932C04FB0C546A
:100580002705029D4FEA065847EA1637B5EB0805DE
:100590006EEB070C870E920E47EA811742EA831230
:1005A000A7FB0201B6EB0B0164EB00042B0D43EA41
:1005B0000C335E1844EB1C50DA465146E7FB02014F
:1005C000C5F313044FEA0B3343EA14534FEA0432E2
:1005D000019C43EA0603A4F10C040294009CCDE9BB
:1005E00000B400F0D8F803B0BDE8F08F0020014659
:1005F000F9E72DE9F04D81EA030404F0004B21F006
:10060000004514464FF0000A23F0004150EA05026D
:1006100020D054EA01021DD0C5F30A570246C5F3A3
:100620001303C1F31300C1F30A5640F4801543F4D9
:100630008013A7EB0608101BD64608F2FD3873EBB3
:10064000050002D308F1010801E092185B41B8F1FE
:10065000000F03DA00200146BDE8F08D00204FF4C2
:100660008011064684460EE0171B73EB050705D381
:10067000121B63EB050306434CEA010C49084FEAE1
:10068000300092185B4150EA0107EDD152EA0300B5
:1006900012D082EA040083EA0501084305D0101B4A
:1006A000AB4106D20122002306E000224FF00043B6
:1006B00002E06FF0010253101AEB06004CEB0851F8
:1006C00010EB0A0041EB0B01BDE8F04D00F054B80F
:1006D000C1F30A52C1F3130140F2FF3341F4801118
:1006E0009A4202DA00200146704740F233439A42B0
:1006F000A2F2334202DC5242FFF752BEFFF741BE84
:1007000030B5041E71F1000404DB4FF00044404298
:1007100064EB0101141E73F1000405DB1C464FF06D
:100720000043524263EB0403994208BF904230BD3C
:10073000064C074D06E0E06840F0010394E807002E
:1007400098471034AC42F6D3FFF7AAFD2480000886
:1007500044800008202A06DBCB17203A41FA02F039
:1007600043EAE07306E041FA02F3D040C2F120020E
:10077000914008431946704710B5141E73F10004E8
:1007800008DA401C41F1000192185B411A4301D183
:1007900020F0010010BD2DE9F04D92469B4611B1AD
:1007A000B1FA81F202E0B0FA80F220329046FFF70F
:1007B000E8FD04460F4640EA0A0041EA0B015346B1
:1007C0005A46084313D0114653EA010019D0C8F124
:1007D00040025046FFF7E4FD05460E465046594696
:1007E0004246FFF7CEFD084305D0012004E0204635
:1007F0003946BDE8F08D0020054346EAE0762C43FB
:1008000037430A986305E40AA0EB08000022FD0ABA
:1008100044EA47540A3002D500200146E9E70105C1
:1008200010196941DDE9084500196941BDE8F04D3D
:10083000A2E770B504460068816801F00301012950
:1008400025D10168C90722D0816801F00D01012975
:100850000FD1816841F002018160216803200860A6
:1008600001F060FB05460EE001F05CFB401B022836
:1008700009D9606D40F010006065A06D40F0010086
:10088000A065012070BD20688068C007ECD1002001
:1008900070BD000070B504460068816801F0030176
:1008A000012902D10168C90723D18168124A114286
:1008B00010D1816841F00101816001F033FB0546F0
:1008C00012E0816841F00101816001F02BFB401BC7
:1008D000022809D9606D40F010006065A06D40F0FD
:1008E0000100A065012070BD20680168C943C907E7
:1008F000E7D1002070BD00003F000080FEE700004F
:10090000F0B5BFF34F8FBFF36F8F1D490020086014
:10091000BFF34F8FBFF36F8F1A4C216841F4003142
:100920002160BFF34F8FBFF36F8F1649703108609E
:10093000BFF34F8F081F006843F6FF75104E103647
:10094000C0F34E31C0F3C90305EA4112184642EA2A
:1009500080773760401EFAD2491EF5D2BFF34F8F21
:10096000206840F480302060BFF34F8FBFF36F8F5B
:1009700003484C30016841F004010160F0BD000003
:1009800050EF00E014ED00E02DE9F0430D4F00249E
:100990001D4616468846814604EB041017F81010D1
:1009A000B14209D107EB40014878A84204D1891C23
:1009B0004246484600F02AF8641CA4B2382CEBD317
:1009C000BDE8F083687500082DE9F0430E4F002460
:1009D0001D4616468846814604EB840000EB441011
:1009E00017F81010B14209D107EB40014878A8422E
:1009F00004D1891C4246484600F008F8641CA4B2A1
:100A0000092CE9D3BDE8F0833E7D0008002310B532
:100A100004E011F8014B5B1C00F8014B9342F8D342
:100A200010BD00000C490B4810B50860084601F0E5
:100A3000A1F8094800211022143041600221816090
:100A40000146143801F00AF8BDE8104002481021B0
:100A500001F0D7B800740040600200247047000025
:100A6000F0B51C46094B0A4F164685B04FF0000CF6
:100A700010251A885B883F88121A5B1A8DE8F010DF
:100A800092B29BB200F0A4F905B0F0BD200300249F
:100A90002C0000242DE9FF411C46084B1646002778
:100AA00010251A885B88121A5B1A8DE8F00092B242
:100AB0009BB203F061FEBDE8FF810000200300242B
:100AC0002DE9F0411546DFF85C8001220C46064610
:100AD00040461703394601F020FA052000F0D6F908
:100AE000032003F045FDC4F3074003F041FDC4F3C8
:100AF000072003F03DFDE0B203F03AFD002405E0DD
:100B0000FF2003F035FD3055641CA4B2AC42F7D38E
:100B100000223946404601F000FABDE8F0410520C8
:100B200000F0B4B90004025830B40C460178202A11
:100B30001AD009DC0C2A0DD0102A13D0182A17D18C
:100B40000C4801FB030108E0302A0FD0402A0FD1E6
:100B50000948F6E7594301F50021204630BC1A4602
:100B6000FFF7AEBF0548ECE70548EAE70548E8E7C8
:100B700030BC70470012080000920800000808000E
:100B8000002608000048080030B40C4601460078F2
:100B900015464A78812809D3402A07D3FF2A05D071
:100BA000FF2803D07F2A0CD2403A0BE000221046E7
:100BB00003E0521C92B204F8010B9A42F9D330BC04
:100BC0007047413A8138C0B2D1B2C0EB401202EB5B
:100BD000801001EB400159430C2D0CD0102D0CD08E
:100BE000182D0DD0202DEAD101F56011204630BC22
:100BF0001A46FFF765BF044800E004480144F5E7E2
:100C000001F5ED11F2E700000014090000DD11000C
:100C1000AFF3008070B586B04FF6FF7003F07EF83A
:100C200000206C4605462554401CC0B21828FAD353
:100C3000112220460021FFF743FF10216B464FF49D
:100C4000784608463246FFF70BFF00202554401C2B
:100C5000C0B21828FAD3082268461421FFF730FFE3
:100C600020216B4610203246FFF7FAFE0020255463
:100C7000401CC0B21828FAD3082268461E21FFF78C
:100C80001FFF30216B4610203246FFF7E9FE4FF47C
:100C9000FA6004F0CDFE06B070BD2DE9F04FC1B092
:100CA0001C4616460D4682468946580701D001214A
:100CB00000E0002101EBD40061080C2C10FB01F0D6
:100CC000834609D0102C07D0182C05D0202C03D037
:100CD000302C01D0402C2DD10346224669463046A7
:100CE000FFF722FF002022E01DF8087000263806DA
:100CF00001D54A9A02E04C9820B94B9A29465046B1
:100D000003F06EF878066D1CADB2070EA5EB090076
:100D1000A04205D10AF101004D461FFA80FA03E016
:100D2000761CB6B2082EE2D308F1010080B2584515
:100D30008046D9D341B0BDE8F08F2DE9F04FA1B086
:100D40001F4615460C4682468946580701D00121A8
:100D500000E0002101EBD7000C2F10FB07F08346C9
:100D600005D0102F03D0182F01D0202F2DD10346EE
:100D70003A4669462846FFF707FF002022E01DF8A3
:100D800008600025300601D52A9A02E02C9820B987
:100D90002B9A2146504603F023F87006641CA4B237
:100DA000060EA4EB0900B84205D10AF101004C4639
:100DB0001FFA80FA03E06D1CEDB2082DE2D308F1B2
:100DC0000100C0B258458046D9D321B0BDE8F08FAC
:100DD0002DE9FF4F83B09B460E46044680468A4667
:100DE000DDE910750020814620E0B9F1000F23D025
:100DF00005994FF0000908EB0100401BA04202DA00
:100E00007019444686B20AEB0B00401BB04210DB5F
:100E100012AB93E807002B468DE807003A463146AF
:100E20002046FFF78AFF601984B2BF1C387800287B
:100E3000DBD107B0BDE8F08F802801D90120D2E7CF
:100E4000059A08EB0201A1EB5501A14202DA7119E2
:100E500044468EB20AEB0B01491BB142E9DB0D2877
:100E60000FD012AB93E807002B468DE807003A46F7
:100E700031462046FFF711FF04EB550084B27F1C7A
:100E8000D4E77019444686B27F1CF5E7002206E0DD
:100E90000021491CC9B26429FBD3521CD2B2824240
:100EA000F6D370470FB400B587B06946219800901B
:100EB00001200190072002900020039004900590EB
:100EC00008A800F0B9F808A800F050FD0A2108A809
:100ED00000F0B0FC08A800F043FB07B080B25DF85A
:100EE00014FB0FB42DE9F041B0B000250DF16808F6
:100EF0002C46DDE94F761EE0542236A916A8FFF7EE
:100F000018FA4B982B904C982C904D984E9954224F
:100F10001597CDE92D0141466846FFF70AFA0DF114
:100F2000580C9CE80F00FFF7BDFF0544052004F0B6
:100F30007FFD641CE4B2B442DED3B5FBF6F030B002
:100F4000BDE8F00180B25DF814FB70B4164602787B
:100F50001D464378812A0C4610D3402B0ED3FF2B1D
:100F60000CD0FF2A0AD00C2D11D0102D11D0182D25
:100F70000DD13146204670BCFFF726BD0021084642
:100F800003E0491C04F8010BC9B2B142F9D370BCAB
:100F900070473146204670BCFFF7F6BC2DE9F041A2
:100FA000044690F850000025164601280F460CD044
:100FB000012084F850002046FFF73BFC0100606DE3
:100FC0002A4605D040F0100031E00220BDE8F08153
:100FD00020F4885040F0020060652068836823F0A8
:100FE0008043334383602068836823F480333B432A
:100FF00083602068836843F00043836020684FF477
:101000007A460CE06D1CB54209D3606D20F00200F9
:1010100040F010006065012084F85020D6E7836816
:10102000002BEFDB606D20F0020040F001006065F6
:10103000084684F85020C9E72DE9F84F0023FC4CFE
:101040004FF0804E9B46009390F85020012A28D004
:10105000012580F850500268966876077ED4D669DC
:10106000AA460F78BD402E43D6614A681F254FF42B
:10107000F868052A18D20668376B98FAA8FCBCFAFB
:101080008CFC02FB0CFC05FA0CF598FAA8FCAF43AB
:101090000D68BCFA8CFC02FB0CF295402F433763C1
:1010A00049E00220BDE8F88F0A2A16D20668776B5D
:1010B00098FAA8FC521FBCFA8CFC02FB0CFC05FA47
:1010C0000CF598FAA8FCAF430D68BCFA8CFC02FB47
:1010D0000CF295402F4377632DE006680F2A15D256
:1010E000B76B98FAA8FC0A3ABCFA8CFC02FB0CFC21
:1010F00005FA0CF598FAA8FCAF430D68BCFA8CFC15
:1011000002FB0CF295402F43B76314E0F76B98FA9B
:10111000A8FC0F3ABCFA8CFC02FB0CFC05FA0CF59F
:1011200098FAA8FCAF430D68BCFA8CFC02FB0CF2E9
:1011300095402F43F763026895684FF038064FF0EB
:10114000070915F00C0F7DD10D680A2D1BD3976987
:1011500096FAA6FC0A3DBCFA8CFC00E0C9E105FB4E
:101160000CF809FA08FC96FAA6F827EA0C07D1F859
:1011700008C0B8FA88F805FB08F50CFA05FC47EA40
:101180000C07976117E0576996FAA6FCBCFA8CFC2D
:1011900005FB0CF809FA08FC96FAA6F827EA0C07F2
:1011A000D1F808C0B8FA88F805FB08F50CFA05FC78
:1011B00047EA0C07576102684D69D7684FF0F84C51
:1011C000C7F382077F00BD400F69012F4AD0022F6D
:1011D0006AD0032F7DD0042F7CD0156E9CFAACF81A
:1011E00005F0F8470D68B8FA88F805FA08F5AF4237
:1011F00003D1156E25F0004515660268556E9CFA00
:10120000ACF805F0F8470D68B8FA88F805FA08F563
:10121000AF4203D1556E25F0004555660268956EC4
:101220009CFAACF80F68B8FA88F805F0F84507FAA8
:1012300008F7BD4203D1956E25F00045956602681A
:10124000D56E00E02FE09CFAACFC05F0F8470D6885
:10125000BCFA8CFC05FA0CF5AF4224D1D56E25F012
:10126000004589E0176E9CFAACFC07F000480F6857
:10127000BCFA8CFC07FA0CF72F4348EA0708C2F8BF
:101280006080026815690F7E25F400653D43156195
:101290004A7E002A0268156E02D045F0004501E042
:1012A00025F00045156668E0576E9CFAACFC07F027
:1012B00000480F68BCFA8CFC07FA0CF72F4348EA89
:1012C0000708C2F86480026815690F7E25F480550E
:1012D00001E00FE031E045EA470515614A7E002A4A
:1012E0000268556E02D045F0004501E025F000454A
:1012F000556642E0976E9CFAACFC07F000480F6818
:10130000BCFA8CFC07FA0CF72F4348EA0708C2F82E
:101310006880026815690F7E25F4005545EA870547
:1013200015614A7E002A0268956E02D045F000459C
:1013300001E025F0004595661FE0D76E9CFAACFCF5
:1013400007F000480F68BCFA8CFC07FA0CF72F4333
:1013500048EA0708C2F86C80026815690F7E25F418
:10136000804545EAC70515614A7E002A02683FF4B8
:1013700075AFD56E45F00045D5660268956805F0F5
:101380000305012D02D11568ED0761D1CD687545C2
:1013900007D052F8C06F0F780AFA07F5AE4316600F
:1013A0003CE052F8C07F91F800C00AFA0CF52F43D8
:1013B00017600A680568092A18D3AF6996FAA6FC6F
:1013C000093ABCFA8CFC96FAA6F602FB0CF8B6FABF
:1013D00086F609FA08FC724327EA0C07D1F808C020
:1013E0000CFA02FC47EA0C07AF6117E06F6996FA46
:1013F000A6FC521CBCFA8CFC96FAA6F602FB0CF872
:10140000B6FA86F609FA08FC724327EA0C07D1F807
:1014100008C00CFA02FC47EA0C076F61054E05682C
:10142000054FB54201D0BD420AD1044A09E000008F
:1014300000600258002002400021024000230240C8
:10144000444A0968122904D0112907D013290AD067
:1014500054E0D2F808C04FEA0C2C08E0D2F808C0DB
:101460004FEACC1C03E0D2F808C04FEA4C2CBCF188
:10147000000F43DBD5F808C00CF0030CBCF1010FE2
:1014800004D1D5F800C05FEACC7C32D1B54210D18E
:10149000D6F8087107F00307012F03D1D6F80061D1
:1014A000F60726D1A66806F00306012E2AD1266883
:1014B0001DE0BD42B76807F003070BD1012F02D131
:1014C0003768FF0715D1A76807F00307012F06D17A
:1014D000276802E0012F02D13768FF0709D1D6F84B
:1014E000087107F00307012F0CD1D6F80061F60749
:1014F00008D0416D41F020014165012380F850B0D2
:101500001846CFE512290AD011291CD01329F5D18C
:10151000A542F3D1916841F480019160EEE7A542C4
:10152000ECD1916841F4000191600B490B4A0968C4
:10153000B1FBF2F1C1EB0111C90000E0491E0091BD
:101540000029FBD1DAE7A542D8D1916841F080713A
:10155000E3E70000006302580C00002480841E00B2
:101560000068006C70470000F8B54FF000050400FB
:101570002E46009502D0606D10B107E00120F8BD45
:10158000204600F021F9A66584F850602068816843
:10159000890003D5816821F000518160206881684D
:1015A000C90010D4816841F0805181607D487E4936
:1015B0000068B0FBF1F000EB8000400000E0401E4E
:1015C00000900028FBD120688168C90008D4616DB3
:1015D00041F010016165A16D41F00101A165012596
:1015E000616DC9067ED481684907FBD4616D41F005
:1015F000020161656D4A6E4E904201D0B04201D148
:101600006C4900E06C49836803F00303012B02D1AD
:101610000368DB0739D1694B904210D1D2F8080139
:1016200000F00300012803D1D2F80001C0072CD13B
:10163000986800F00300012821D118681DE0B0422D
:10164000906800F003000BD1012802D11068C00798
:101650001BD1986800F00300012806D1186802E049
:10166000012802D11068C0070FD1D2F8080100F09C
:101670000300012803D1D2F80001C00705D1886812
:10168000626820F47C1010438860A1684FF48033B6
:10169000206B627D93FAA3F308434FF40051B3FA31
:1016A00083F391FAA1F1B1FA81F18A40217F01FA25
:1016B00003F31A431043012909D14FF46022216A30
:1016C00092FAA2F2491EB2FA82F291400843616A8C
:1016D000012903D0A26A0AB1114308432168CA68EC
:1016E000374B00E056E01A400243CA602068816828
:1016F00011F00C0F28D14FF48042217D92FAA2F212
:10170000B2FA82F29140E26A1143C26844F20303E2
:101710009A430A43C26094F8390001281CD020681B
:10172000016921F00101016120680169626B21F00A
:1017300070411143016194F83800012820688168E4
:101740001AD021F480718160E06801282068016B63
:1017500021F00F0113D015E0D4E91010A28F01235E
:101760000143A06C03EB024210430143206802696D
:10177000144B1A401143D6E741F48071E3E7A269A4
:10178000521E11430163606D20F0020040F0010021
:10179000606504E0606D40F010006065012528463A
:1017A000F8BD00000C00002480841E0000200240D0
:1017B00000210240002302400063025800600258EA
:1017C00003C0F0FF1EF800FC184800B5B5B0016872
:1017D00041F020010160006800F0200034901348BF
:1017E0000830016841F004010160006800F0040065
:1017F00034900E488038016821F4403141F40031C2
:1018000001604FF40020009080102890684600F09E
:1018100031FD01202F9003203090002031900448AA
:101820002FA900F07DFA35B000BD0000D844025861
:10183000000802582DE9F04704460069DFF81C91C2
:10184000012608280F4622D020684946884202D047
:10185000434A90421DD1D1F80823D20619D0D1F8BD
:10186000082302F01F02052A13D0D1F8081301F053
:101870001F0109290DD03B488168C1F3813102293C
:101880000AD08068C0F38130032805D00BE008251A
:101890000AE0C068C00706D0606D40F020006065B7
:1018A0000120BDE8F087042500F03CFB804611E0F4
:1018B000781C0FD02FB100F035FBA0EB0800B84228
:1018C00008D9606D40F004006065002084F8500085
:1018D0000320E6E7206800682842E9D02068016814
:1018E000090700D400264946884224D01E4A904267
:1018F00021D0D1F80823D2061DD0D1F8082302F058
:101900001F02052A17D0D1F8082302F01F02092A66
:1019100011D0C968082D10D04A0401D404220260F5
:10192000606D40F400706065B6B12068C06810F466
:10193000406F04D010E0C168ECE70822EFE78804AC
:101940000AD4606D20F480706065606DC00403D4BB
:10195000606D40F0010060650020A2E700200240B9
:1019600000210240002302400060025870B5044686
:1019700000688068400767D494F8500001280AD0B6
:10198000012084F850002046FEF784FF01004FF04C
:10199000000202D045E0022070BD606DC00404D595
:1019A000A06D20F00600A06500E0A265606D40F625
:1019B0000163984340F480706065254B206898422D
:1019C00006D0244DA84203D0D3F80853ED0603D126
:1019D000656D25F4801565651C25056020689842B5
:1019E00022D01D4DA8421FD0D3F80853ED061BD0BE
:1019F000D3F8085305F01F05052D15D0D3F808536B
:101A000005F01F05092D0FD0606D40F48010606552
:101A1000D868800105D5606D20F4005040F48050F6
:101A2000606584F8502010E0C3689B0105D5636DA4
:101A300023F4005343F48053636584F85020826894
:101A400042F00402826000E00221084670BD0000FE
:101A50000020024000210240006002582DE9F047BA
:101A6000044640790027154601280E4609D04FF05C
:101A7000010884F80580022020713068042803D012
:101A80003BE00220BDE8F0874FF003091DBB00F0EA
:101A900049FADFF8D0A0074604E000F043FAC01B83
:101AA000012810D82068406B10EA0A0FF5D10120F8
:101AB00000F01CF92168B069086416E000F032FA01
:101AC000C01B012807D9206940F00800206184F874
:101AD00004900320D6E72068406B0028EEDB01204D
:101AE00000F004F92168B0694864F0692168A840F1
:101AF0008864306A2168A840C8643069012808D128
:101B00002068826B1F21A9408A437169A940114353
:101B100081632068C26B0721B368A9408A4331689A
:101B20001943F3681943A9401143C1632068016850
:101B30004FF48042AA40914301602068016840F65A
:101B4000FE72AA4091437268AA400A43026020686C
:101B50000168C022AA409143016084F804800020FB
:101B600060718FE700800020006809B1006B70474A
:101B7000C06A704770B5040003D02079002510B109
:101B800005E0012070BD2046657100F007F80220D5
:101B90002071256101202071002070BD104800B522
:101BA00087B0016841F000510160006800F000500A
:101BB00005900B480838016841F001010160006898
:101BC000694600F00100059020200090032001905C
:101BD00000200290034800F0A3F807B000BD000009
:101BE000E84402580000025818B5046800940068E0
:101BF000104421B1143000900360002018BD08305B
:101C0000F9E730B54279012A12D00123437102224B
:101C100002710268146803FA01F52C43146000296C
:101C200001680A6806D0C2F34442012A0AD00DE0D6
:101C3000022030BDC2F34402012A07D14A6842F0B3
:101C4000010202E04A6842F002024A600371002188
:101C50004171084630BD000010B528B190F835102C
:101C6000022903D080214165012010BD1D4A4FF497
:101C7000956301688C189C4207D8042280F83520AF
:101C8000086820F00100086029E00C6824F00E04C8
:101C90000C6001680A440A6822F001020A60016EC1
:101CA0000A6822F480720A6090F85C30012202FA1D
:101CB00003F10D4B1960D0E919134B60C16E31B1BE
:101CC0000B6823F480730B60D0E91C134B60002178
:101CD00080F8341080F83520016D01B1884700206C
:101CE00010BD0000F0FFFDBF0454025870B504465B
:101CF00000F018F90546601C02D00448007804443E
:101D000000F010F9401BA042FAD370BD1C00002463
:101D10000248016841F00101016070472004005849
:101D20002DE9F84F6C4C00224FF0B04A4FF0010BF8
:101D30004FF0030E4FF00F090B680BFA02F73B4010
:101D4000BB4270D14D68022D01D0122D12D1D508A1
:101D500000EB850CDCF820605507ED0E09FA05F85C
:101D600026EA0806D1F8108008FA05F848EA0608BD
:101D7000CCF82080D0F80080560091F804C00EFA0C
:101D800006F50CF0030C28EA05080CFA06FC4CEAF0
:101D9000080CC0F800C0D1F804C0BCF1010F08D095
:101DA000BCF1020F05D0BCF1110F02D0BCF1120F33
:101DB00016D1D0F808C0D1F80C802CEA050C08FA2E
:101DC00006F848EA0C08C0F80880D0F804C02CEAED
:101DD000070C0F79C7F30017974047EA0C074760D5
:101DE000C768AF438D68B5403D43C5604D68ED00A1
:101DF0006BD53A4D2E6846F002062E602D6822F013
:101E0000030606F1B04605F002050095D6F808C4B1
:101E100095072F0F09FA07F52CEA050C304DA8425B
:101E200002D100252EE050E02E4DA84201D101251F
:101E300028E02D4DA84201D1022523E02B4DA842D8
:101E400001D103251EE02A4DA84201D1042519E045
:101E5000284DA84201D1052514E0274DA84201D103
:101E600006250FE0254DA84201D107250AE0244DA3
:101E7000A84201D1082505E0224DA84201D109253B
:101E800000E00A25BD4045EA0C05C6F8085425685F
:101E90004E689D43F60300D51D43256065684E6876
:101EA0009D43B60300D51D436560DAF800505646E1
:101EB0004F689D43FF0200D51D43356075684F682C
:101EC0009D43BF0200D51D437560521C102AFFF4CC
:101ED00033AFBDE8F88F000080000058F44402588A
:101EE000000002580004025800080258000C025872
:101EF000001002580014025800180258001C025822
:101F000000200258002402580069084000D0012037
:101F1000704742694A40426170470AB10183704785
:101F20004183704701488068704700001C0000240E
:101F30000248816802781144816070471C000024C7
:101F4000032010B500F058F80F2000F007F808B192
:101F5000012010BD00F022F8002010BD70B50D4D1D
:101F600004464FF47A712878B1FBF0F00A49096809
:101F7000B1FBF0F001F08CFC48B9102C07D2002224
:101F80002146501E00F018F800206C6070BD012042
:101F900070BD00001C0000240C00002470470028C5
:101FA00009DB012100F01F0291404009800000F18F
:101FB000E020C0F8001170470E4BF0B41B68C3F36B
:101FC0000223C3F10704042C00D904241D1D072D8E
:101FD00001D2002300E0DB1E012606FA04F56D1E87
:101FE0000D409D409E40761E164045EA0601F0BC1D
:101FF00003F096B80CED00E0064A00F00701106807
:102000004FF6FF03184040EA0120034908431060DF
:10201000704700000CED00E00000FA0510B500F07C
:10202000B3FE084909684FF4807292FAA2F201F4F3
:102030007061B2FA82F2D140034A515CC840034950
:10204000086010BD18440258805D00080C00002490
:1020500010B500F053FE07490968102292FAA2F267
:1020600001F07001B2FA82F2D140034A515CC840DB
:1020700010BD000020440258805D0008364930B58C
:102080000A68096812F00302344BC1F305311B687A
:10209000334C03F010032468DFED320AB7EE001A68
:1020A000C4F3CC0414FB03F300EE103A2E4BB8EE4D
:1020B000400A07D02D4C012A01D0022A4AD0B4FB95
:1020C000F1F10BE0244C283C22689506284A03D500
:1020D0002468C4F3C104E240B2FBF1F101EE901AAE
:1020E0001968B8EE612AC1F3080101EE901A196867
:1020F000F8EE611A40EE201A31EE810A22EE000A53
:10210000C1F34621491C00EE901AF8EE600A80EEF9
:10211000201AFCEEC10AC0ED000A1968C1F306419D
:10212000491C00EE901AF8EE600A80EE201AFCEED0
:10213000C10AC0ED010A1968C1F30661491C00EE2D
:10214000901AF8EE600A80EE201ABCEEC10A80ED0B
:10215000020A30BD074ABFE7284402582C440258FF
:102160003C440258000000393844025800093D0040
:102170000090D00340787D01364930B50A6809687F
:1021800012F00302344BC1F305511B68334C03F4C6
:1021900080732468DFED320AB7EE001AC4F3CC0472
:1021A00014FB03F300EE103A2E4BB8EE400A07D0B2
:1021B0002D4C012A01D0022A4AD0B4FBF1F10BE0E8
:1021C000244C283C22689506284A03D52468C4F389
:1021D000C104E240B2FBF1F101EE901A1968B8EEC9
:1021E000612AC1F3080101EE901A1968F8EE611A2C
:1021F00040EE201A31EE810A22EE000AC1F3462198
:10220000491C00EE901AF8EE600A80EE201AFCEEEF
:10221000C10AC0ED000A1968C1F30641491C00EE6D
:10222000901AF8EE600A80EE201AFCEEC10AC0EDAA
:10223000010A1968C1F30661491C00EE901AF8EE14
:10224000600A80EE201ABCEEC10A80ED020A30BDA1
:10225000074ABFE7284402582C4402584444025815
:10226000000000394044025800093D000090D003AE
:1022700040787D012DE9F84F0446006800252E4680
:10228000010104F12400FE4FDFF8F88300901DD512
:10229000606E50B1B0F5801F0CD0B0F5001F0ED0AD
:1022A000B0F5401F1DD001250FE0386840F4003024
:1022B000386016E00221201D02F03CF803E000988F
:1022C000022102F0AFF805000BD02E462088C00591
:1022D00023D5606D05281ED2DFE800F00C11161B17
:1022E0001B00D8F80010626E21F440111143C8F8A9
:1022F0000010EBE7386840F40030386009E0002156
:10230000201D02F017F803E00098002102F08AF87F
:1023100005466DB100E001252E432088800528D5B3
:10232000A06D80281ED00CDC90B140280ED114E0A6
:10233000D8F80010626D21F007011143C8F80010B1
:10234000EBE7C02813D0B0F5807F10D001250FE057
:10235000386840F40030386009E00021201D01F0A9
:10236000E9FF03E00098002102F05CF8054685B122
:102370002E432088DFF8109340052CD5D4F8A40014
:10238000B0F5800F20D00DDCA0B1B0F5001F0FD14B
:1023900015E0D8F80010A26D21F4E0711143C8F8DF
:1023A0000010E6E7B0F5C00F13D0B0F5000F10D065
:1023B00001250FE0386840F40030386009E0002162
:1023C000201D01F0B7FF03E00098002102F02AF879
:1023D000054675B12E43208800052DD5D4F8A800F8
:1023E000B0F1007F21D00EDCA8B1B0F1807F10D118
:1023F00016E0D9F80010D4F8A42021F460011143AC
:10240000C9F80010E7E7B0F1407F13D0B0F1806F5A
:1024100010D001250FE0386840F40030386009E042
:102420000021201D01F086FF03E00098002101F04B
:10243000F9FF05466DB12E43206880011FD5A06CC1
:10244000D8B110280FD0202812D0302815D001255F
:1024500014E0D9F80010D4F8A82021F0E06111436D
:10246000C9F80010E8E7386840F40030386004E04C
:102470000221201D01F05EFF05466DB12E4320882C
:10248000C0042BD5E06DB0F5005F20D00DDCA0B10D
:10249000B0F5805F0FD115E07A48001F0168A26C8B
:1024A00021F0300111430160E9E7B0F5405F13D03E
:1024B000B0F5804F10D001250FE0386840F40030AF
:1024C000386009E00021201D01F034FF03E000988E
:1024D000002101F0A7FF054685B12E432088800426
:1024E00029D5206EB0F5403F23D010DC08B3B0F5FD
:1024F000803F14D0B0F5003F0FD115E0D8F80010A0
:10250000E26D21F4E0411143C8F80010E6E7B0F5B0
:10251000802F0ED0B0F5A02F0BD001250AE00121AD
:10252000201D01F007FF03E00098012101F07AFF70
:1025300005468DB12E43208840042AD5D4F8AC003E
:10254000B0F1405F23D010DC08B3B0F1805F14D04D
:10255000B0F1005F0FD115E0D8F80010226E21F421
:10256000E0211143C8F80010E5E7B0F1804F0ED02C
:10257000B0F1A04F0BD001250AE00121201D01F090
:10258000D9FE03E00098012101F04CFF05466DB132
:102590002E43208800041FD5E06ED8B1B0F1805FD3
:1025A0000ED0B0F1005F10D0012514E0D9F8001072
:1025B000D4F8AC2021F0E0411143C9F80010E8E75D
:1025C000386840F40030386004E00121201D01F03B
:1025D000B1FE05466DB12E432068C0011ED5606C6A
:1025E000D0B101280ED0022811D0032814D0012523
:1025F00013E0D8F80010E26E21F040511143C8F802
:102600000010E9E7386840F40030386004E0022147
:10261000201D01F08FFE054675B12E432068DFF8BE
:102620006CB040025AD51A48016841F480710160CB
:10263000FFF778FC82460EE01248001F0168626CCA
:1026400021F0030111430160E8E7FFF76BFCA0EB09
:102650000A0064283AD80E480068C005F5D5B5BB15
:10266000094818300068B4F8B01000F4407001F464
:102670004071884219D00448183001680AE000000F
:102680002C440258504402585844025810440258EE
:1026900000480258026821F4407142F4803202601E
:1026A000026822F4803202600160D4F8B000B0F514
:1026B000807F22D1FFF736FC824609E0FFF732FC2B
:1026C000A0EB0A0141F28830814201D9032504E0E0
:1026D000FE4800688007F1D57DB12E432078DFF8F1
:1026E000F0A3C0073CD0A06F182837D025DC78B302
:1026F000082828D0102824D12BE0D4F8B000C0F34B
:10270000012103290ED0DBF8001021F47C51CBF815
:102710000010EE480168B4F8B020C2F30B02114378
:102720000160DBE7DBF80020EA4B22F47C5203EA8D
:1027300010100243CBF80020EBE720280ED0282809
:102740000CD001250BE00121201D01F0F3FD04E078
:1027500004E00098012101F065FE05465DB12E43BD
:10276000207880071ED5606F062819D2DFE800F0B8
:10277000160C11161616DAF80010A26F21F03801A7
:102780001143CAF80010EBE70121201D01F0D2FD32
:1027900003E00098012101F045FE054675B100E017
:1027A00001252E43207840071FD5D4F89000062835
:1027B00019D2DFE800F0160C11161616DAF8001020
:1027C000626F21F007011143CAF80010EAE7012106
:1027D000201D01F0AFFD03E00098012101F022FE71
:1027E00005469DB100E001252E43207880062BD5BB
:1027F000D4F88C00B0F1405F24D011DC10B3B0F1FC
:10280000805F15D0B0F1005F10D116E0D9F800104C
:10281000D4F8902021F007011143C9F80010E4E733
:10282000B0F1804F0ED0B0F1A04F0BD001250AE0DF
:102830000021201D01F07EFD03E00098022101F03F
:10284000F1FD05468DB12E43207840062BD5D4F8F6
:102850009800B0F5406F24D011DC10B3B0F5806F54
:1028600015D0B0F5006F10D116E0DAF80010D4F8EA
:102870008C2021F0E0411143CAF80010E4E7B0F5E4
:10288000805F0ED0B0F5A05F0BD001250AE00021DB
:10289000201D01F04FFD03E00098022101F0C2FD70
:1028A00005468DB12E43207800062BD5D4F89C0028
:1028B000B0F5C04F24D011DC10B3B0F5005F15D0D7
:1028C000B0F5804F10D116E0D9F80010D4F8982058
:1028D00021F4E0511143C9F80010E4E7B0F5004FCE
:1028E0000ED0B0F5204F0BD001250AE00021201DAD
:1028F00001F020FD03E00098022101F093FD054660
:1029000065B32E43207800070BD5D4F88000B0F5CE
:10291000805F2DD0DAF8002022F440520243CAF83A
:1029200000202078C0060BD5D4F89400B0F5807F45
:1029300024D0D9F8002022F440720243C9F80020C4
:10294000206800032CD5D4F8A000E8B1B0F5803F92
:102950001FD0B0F5003F21D0012520E0D9F80010AC
:10296000D4F89C2021F460411143C9F80010C9E754
:102970000098022101F056FD0643D2E7009802219B
:1029800001F050FD0643DBE70021201D01F0D2FCE1
:1029900003E00098022101F045FD054685B12E4374
:1029A0002068400322D5D4F88400B0F5801F11D0F0
:1029B000B0F5001F13D0B0F5401F15D0012514E06D
:1029C000D9F80010D4F8A02021F440311143C9F8FF
:1029D0000010E5E7386840F40030386004E0009803
:1029E000012101F01FFD054655B12E432068C003AB
:1029F0001CD5E06C70B1B0F5803F10D0012514E01B
:102A0000DAF80010D4F8842021F440111143CAF8F8
:102A10000010EBE7386840F40030386004E0022131
:102A2000201D01F087FC0546C5B12E4320688000BB
:102A300004D50098022101F0F5FC064320688003CC
:102A40001BD5E06FB8B1B0F5807F10D0B0F5007F36
:102A500011D0B0F5407F0ED001250DE01C4808389C
:102A60000168E26C21F4803111430160DEE73868CF
:102A700040F40030386045B32E432068C00207D5CB
:102A8000D8F80000226F20F000401043C8F8000082
:102A90002068C00008D5DBF80010D4F8B42021F479
:102AA00080411143CBF800102068800207D5D8F888
:102AB0000010A26E21F080711143C8F80010206848
:102AC000400014D5DBF8001006E01EE07044025808
:102AD00054440258CFFFFF0021F40041CBF800100E
:102AE000DBF80010D4F8B8201143CBF800102068B0
:102AF000002806DA0A480168226D21F0405111438E
:102B000001605EB10120BDE8F88FDAF80010E26FD5
:102B100021F440711143CAF80010AEE70020F2E73B
:102B20004C4402582DE9F047DFF8BC9104460E46AC
:102B3000D9F8000000F00700B0420CD2D9F800101C
:102B400021F007013143C9F80010D9F8000000F066
:102B50000700B0427ED12078DFF89081800707D54A
:102B6000D8F80010E26821F00F011143C8F80010F6
:102B70002078C00762D0D8F80010A26821F47061F4
:102B80001143C8F8001059496068183902281CD050
:102B900003281DD0096801281DD04907002960DAE3
:102BA000524F083F396821F0070101433960FFF7B0
:102BB000B9F90546606841F28831022813D003282C
:102BC0001ED001288A4627D034E009688903E5E74A
:102BD00009688901E2E7C905E0E7FFF7A3F9411BAE
:102BE000514501D923E08A463868C0F3C200022863
:102BF000F3D123E0FFF796F9411B514501D916E0C7
:102C00008A463868C0F3C2000328F3D116E0FFF704
:102C100089F9411B51450AD83868C0F3C200012820
:102C2000F5D10BE0FFF77EF9411B514502D9032096
:102C3000BDE8F087386810F0380FF3D1D9F80010EC
:102C4000484601F00701B1420DD9016821F00701A2
:102C5000314300E005E00160006800F00700B04289
:102C600001D00120E4E72078400707D5D8F800100C
:102C7000226921F070011143C8F800102078010783
:102C80001B4805D50168626921F07001114301609C
:102C90002178C90605D50168A26921F4E0611143D4
:102CA00001602078800607D51149091D0868E2698E
:102CB00020F070001043086000F066F8D8F80010AB
:102CC0004FF4807292FAA2F201F47061B2FA82F2C9
:102CD000D140084A515CC840074908600F20FFF7FF
:102CE0003DF90020A4E700000020005218440258DB
:102CF0001C440258805D00080C00002410B5FFF74A
:102D00008DF908490968012292FAA2F201F00F0137
:102D1000B2FA82F2D140044A515CC84003490860CB
:102D200010BD000018440258805D00081000002407
:102D300010B5FFF7E3FF07490968102292FAA2F2E3
:102D400001F07001B2FA82F2D140034A515CC840EE
:102D500010BD00001C440258805D000810B5FFF74C
:102D6000CDFF074909684FF4807292FAA2F201F48C
:102D7000E061B2FA82F2D140024A515CC84010BD13
:102D80001C440258805D00083548F0B50068364D97
:102D900010F03801334809D00411082904D0334E0B
:102DA00010290BD018290BD02046F0BD29688906C0
:102DB000FBD52968C1F3C101C840F0BD3046F0BD64
:102DC000274918310A68096812F00302284BC1F339
:102DD00005111B68274F03F001033F68DFED260A4A
:102DE000B7EE001AC7F3CC0717FB03F300EE103A57
:102DF000224BB8EE400A06D0012A01D0022A2BD07D
:102E0000B4FBF1F008E02A68920603D52A68C2F301
:102E1000C102D040B0FBF1F001EE900A1868B8EEA4
:102E2000612AC0F3080001EE900A1868F8EE611AF2
:102E300040EE201A31EE810A22EE000AC0F346204D
:102E4000401C00EE900AF8EE600A80EE201ABCEEFC
:102E5000C10A10EE100AF0BDB6FBF1F0DCE700008D
:102E6000104402580090D0030044025840787D017D
:102E70002C440258344402580000003930440258AF
:102E80002DE9F05F04460078DFF8FC8341F28839D1
:102E9000DFF8F8A3FE4DC0074ED0D8F8001040462A
:102EA000C1F3C20102291AD00068C0F3C20003288E
:102EB00005D1DAF8000000F0030002280FD06068A6
:102EC000B0F5803F12D010B1B0F5A02F19D028680E
:102ED00020F480302860286820F4802009E02868E9
:102EE000800329D56068002874D025E0286840F464
:102EF00080302860606890B1FFF714F806464F46AE
:102F000009E0286840F480202860EFE7FFF70AF81E
:102F1000801BB8427DD828688003F7D50CE0FFF706
:102F200001F806464F4604E0FEF7FCFF801BB8425E
:102F3000F0D828688003F7D42078D64F80075AD578
:102F4000D8F8001040464FF47C3B11F0380F13D0F6
:102F50000068C0F3C200032803D1DAF8000080073C
:102F60000AD0E068A8B3296821F01901014329605B
:102F7000FEF7D8FF06461DE02868400702D5E06846
:102F80000028B1D02868E16820F0190008432860C3
:102F9000FEF7C8FF064604E0FEF7C4FF801B0228C8
:102FA000B8D828684007F7D507E0FEF7BBFF801BBD
:102FB0000228AFD828684007F7D538689BFAABF2EB
:102FC00020F47C312069B2FA82F2904001433960EA
:102FD00011E000E0AEE0286820F001002860FEF774
:102FE000A1FF064604E0FEF79DFF801B022891D852
:102FF00028684007F7D42078C00655D5D8F80010C7
:1030000040464FF0F84BC1F3C201012917D00068C8
:1030100000E0EDE0C0F3C200032805D1DAF80000BB
:1030200000F0030001280AD0E069002828682CD0AD
:1030300040F080002860FEF775FF064616E028681D
:10304000C00502D5E069802874D138689BFAABF2DC
:1030500020F0F841206AB2FA82F2904001433960D0
:1030600022E0FEF75FFF801B022899D82868C00580
:10307000F7D538689BFAABF2216AB2FA82F220F0F7
:10308000F8409140084338600EE020F0800028604E
:10309000FEF748FF064604E0FEF744FF801B0228C7
:1030A00087D82868C005F7D42078000724D5774F43
:1030B00060694C37002838680FD040F00100386054
:1030C000FEF730FF064604E0FEF72CFF801B0228C7
:1030D0008DD838688007F7D50EE020F00100386001
:1030E000FEF720FF064604E0FEF71CFF801B0228C7
:1030F0007ED838688007F7D42078800623D5A06969
:10310000002828680FD040F480502860FEF70AFF9E
:10311000064604E0FEF706FF801B022868D82868F0
:103120008004F7D50FE020F480502860FEF7FAFE07
:10313000064605E0D6E0FEF7F5FE801B022857D8CC
:1031400028688004F7D42078400744D5524F386867
:1031500040F480703860FEF7E5FE064604E0FEF7B6
:10316000E1FE801B642843D83868C005F7D5474F77
:10317000A068483701280AD008B1052811D038685E
:1031800020F001003860386820F0040002E0386860
:1031900040F001003860A06888B1FEF7C3FE064623
:1031A00009E0386840F004003860F0E7FEF7BAFE46
:1031B000811B49451CD838688007F7D50BE0FEF71E
:1031C000B1FE064604E0FEF7ADFE811B49450FD86F
:1031D00038688007F7D4606AF0B3D8F80010C1F3FC
:1031E000C20103297ED00228286820F0807000E008
:1031F00079E0286003D0FEF795FE044687E0FEF7ED
:1032000091FE064604E0FEF78DFE801B02287BD867
:1032100028688001F7D4DAF8001040F2F3329143C5
:10322000E26A41EA0211A26A1143CAF8001094F856
:1032300034004FF4FE02218E4002491EA0F50070BA
:1032400080B2C1F308010843218F491E02EA0141FF
:10325000084394F83C1000E05CE0491E120202EAC8
:10326000016108430949083108600B1D19684FF6D0
:10327000F872A06C914392FAA2F2B2FA82F29040F4
:1032800001431960014809E01044025828440258DB
:10329000004402580444025800480258001D0168C6
:1032A000226C21F00C01114301600168626C21F075
:1032B000020111430160016841F48031016001683D
:1032C00041F400310160016841F48021016001682E
:1032D00041F001010160286840F080702860FEF72D
:1032E00021FE01E018E00FE0044604E0FEF71AFEBC
:1032F000001B022808D828688001F7D50AE0FEF7ED
:1033000011FE001B022802D90320BDE8F09F2868A7
:103310008001F4D40020F8E70120F6E72DE9F05F02
:1033200004004FF000053DD0DFF8C4812068714EE5
:10333000714F4045A36A06D0B04204D0B84202D0D3
:10334000E1680F292ED8E26B4FF0010B0BEB521CFA
:10335000E26802F10801C908404501FB0CF105D003
:10336000B04203D0B84201D008291BD8404503D051
:10337000B04201D0B84201D1102913D84FF48009CE
:103380004B4512D1404507D0B04205D0B84203D0DA
:10339000206BB0F5702F05D8256B05B91504B2EB7D
:1033A000154F02D90120BDE8F09F94F881004FF03D
:1033B000000A20B9204684F880A000F09FF802207F
:1033C00084F881002068016821F001010160A06992
:1033D000B0F1806F09D16068484506D1A06B20B973
:1033E0002068016841F480510160A16AE0690843E6
:1033F000E16B29430843E168084321688860616AFA
:10340000606BA2690843A16B11430843216908431B
:1034100061690843216A084361680843E16C084315
:10342000A1680843A16C0843A16D08432168C860E6
:10343000A06A484529D1206C01282068016827D05E
:1034400021F400410160606C01282068016822D0ED
:1034500021F4804101602068404506D0B04204D08C
:10346000B84202D0B5F5702F18D0404503D0B04215
:1034700001D0B84202D1B5F5F81F0FD0016821F490
:10348000005101602168E06A0864606850B119E089
:1034900041F40041D6E741F48041DBE7016841F4A3
:1034A0000051EEE7A06A30B92068816821F4C0516C
:1034B00041F4006181602068816821F4C06141F4B9
:1034C000806181602068016D21F001010165606803
:1034D000400206D52068C168626D21F000411143A9
:1034E000C160C4F884A084F881B000205BE70000CC
:1034F0000030014000380040003C0040164800B554
:10350000B5B0016841F002010160006800F00200FE
:10351000349011480830016841F48041016000682E
:1035200000F4804034904FF48050009000201790B9
:103530006846FEF79FFE4FF460402F9002203090C7
:1035400001203190032032900520339003482FA9A9
:10355000FEF7E6FB35B000BDE04402580004025817
:103560002DE9F84F044690F880001F4692460A9DC8
:1035700001288B4613D04FF0010984F88090FEF7A4
:10358000D1FC94F8812006460020012A4FF48001E6
:103590000ED062688A4209D1A2683AB902E00220DC
:1035A000BDE8F88F94F88120042A01D0022136E08A
:1035B000BBF1000F32D0BAF1000F2FD077B394F8DF
:1035C0008120042A02D0052284F881208046C4F894
:1035D0008400C4F864A0A4F86A70A4F86870C4F801
:1035E0005CB0A4F86270A4F860702067606720681F
:1035F00042686FF30F023A4342602068026842F06B
:10360000010202606068884204D12068016841F4C8
:1036100000710160E0680F2840D848E0012184F87B
:1036200080000846BCE7B4F8620070B120684169C8
:1036300089070AD5E16D09680162E06D001DE0654A
:10364000B4F86200401EA4F86200B4F86A0080B1C9
:103650002068416948F2080211420AD0006B616E8D
:103660000860606E001D6066B4F86A00401EA4F831
:103670006A00681C12D0FEF755FC801BA8420DD3CF
:10368000204600F09DFF84F88080D4F8840040F448
:103690008070C4F8840084F88190EBE0B4F8620094
:1036A0000028C0D1B4F86A000028BCD1C8E00728BF
:1036B00049D8BDE0B4F86200F0B1206841698907DB
:1036C0001AD5B4F8621001290BD9E16B49B1E16D4B
:1036D00009680162E06D001DE065B4F86200801EBB
:1036E00008E0E16D09880184E06D801CE065B4F8B4
:1036F0006200401EA4F86200B4F86A00E0B12068DD
:10370000416911F4604F17D04169090409D5006B74
:10371000616E0860606E001D6066B4F86A00801E0D
:1037200008E0008E616E0880606E801C6066B4F8F0
:103730006A00401EA4F86A00681C04D0FEF7F2FB81
:10374000801BA8429CD2B4F862000028B2D1B4F821
:103750006A000028AED173E0B4F8620080B320683C
:10376000416989072CD5B4F8621003290CD9E16BA3
:10377000402909D9E16D09680162E06D001DE0652D
:10378000B4F86200001F19E0B4F8621001290BD9E7
:10379000E16B49B1E16D09880184E06D801CE06551
:1037A000B4F86200801E09E0E16D097880F820100D
:1037B000E06D401CE065B4F86200401EA4F86200B1
:1037C000B4F86A0068B32068416911F4604F28D0EA
:1037D0004169090409D5006B616E0860606E001DC7
:1037E0006066B4F86A00001F19E0416901F4C04145
:1037F000B1F5005F09D9008E616E0880606E801C93
:103800006066B4F86A00801E09E090F83000616ECE
:103810000870606E401C6066B4F86A00401EA4F830
:103820006A00681C04D0FEF77DFB801BA84289D289
:10383000B4F8620000288FD1B4F86A0000288BD158
:103840000022334608212046009500F028FF28B1C9
:10385000D4F8840040F02000C4F88400204600F032
:10386000AFFE84F8808084F88190D4F8840000282A
:103870003FF4D8AE012093E64FF0E0210428086918
:1038800003D020F004000861704740F00400FAE71C
:10389000401EB0F1807F10B501D3012010BD4FF064
:1038A000E02460610F21601701F03AFC0020A06164
:1038B00007202061002010BD7047704790F87910F4
:1038C00090F87A000843704770B502680446D069E2
:1038D0001368916810F00F0F64D0594D03F490767F
:1038E0000D40354376D0C50707D0DD0505D5012548
:1038F0001562E26F42F00102E267820708D5CA074B
:1039000006D0256802222A62E26F42F00402E267D2
:10391000420708D5CA0706D0256804222A62E26F4A
:1039200042F00202E26702070ED503F0200201F026
:1039300080552A4352EAC17206D0256808222A62BD
:10394000E26F42F00802E267E26F002A3AD0800696
:1039500008D503F0200001F08051084302D0204632
:1039600001F0AAF8E06F000703D4206880684006E1
:103970002AD5204601F092F82068816849061ED5B4
:10398000816821F040018160606FC0B12D490165FF
:10399000606FFEF761F9002814D0606F016DBDE81B
:1039A00070400847850615D503F0200501F08056C4
:1039B00035430FD02046BDE8704001F07DB8204669
:1039C000FFF77BFF70BD05E02046FFF776FF002084
:1039D000E067F7E7C6024FF020050CD54E020AD586
:1039E000E803106284F8795084F87A502046BDE8E4
:1039F0007040FFF761BF06060AD503F0800601F4A8
:103A000000010E4304D02046BDE8704001F0E4BA46
:103A100041060BD5590609D51168204621F0400111
:103A2000116084F8795000F005F9CBE70002C9D5A0
:103A30005800C7D5106820F080401060C2E7000031
:103A400001000010894A000810B5040003D094F862
:103A5000790010B107E0012010BD002084F8780043
:103A6000204600F027F8242084F8790020680168B7
:103A700021F001010160204601F05AF80128EBD045
:103A8000606B10B1204600F06DFF2068416821F4A2
:103A9000904141602068816821F02A01816020689E
:103AA000016841F0010101602046BDE8104000F0CE
:103AB000BDBF000010B5006886B01B49884230D1F8
:103AC0001A48016841F001010160006800F001003E
:103AD000059016481030016841F01001016000683F
:103AE0000121134C00F0100005904FF4007000907D
:103AF0000220CDE901010390072069460490204689
:103B0000FEF70EF94FF48061204600916946FEF7FA
:103B100007F92520FEF743FA032225201146FEF778
:103B20004BFA06B010BD000000100140E0440258FE
:103B30000000025890F87A30202B4CD1B9B1B2B1C4
:103B400090F87830012B46D0012380F87830416618
:103B5000A0F86820A0F86A20FF228168B1F5805F94
:103B600007D07F2351B1B1F1805F0CD010E001206C
:103B70007047016921B940F2FF1107E0016909BBF3
:103B8000A0F86C2004E00169E1B13F21A0F86C10BD
:103B90000021C167222280F87A2080F8781001681D
:103BA0008A6842F001028A6001680A6892000CD5B6
:103BB0000A6842F480720A600068816841F08051AE
:103BC000816006E0A0F86C30E2E7086840F490708D
:103BD00008600020704702207047000030B5006880
:103BE000114988420CD1114A5088010408D4114669
:103BF0004FF000034404097806D50A2901D0538008
:103C000030BD40F400400DE00D2909D0084DC0F34F
:103C10000D04401C80B2C72829555080EFD830BD14
:103C200040F48040508030BD001001401800002456
:103C3000500000247047FEE7144870B586B0016854
:103C400041F004010160016801F00401059101687F
:103C500041F010010160006800260325694600F06C
:103C60001000059008200124CDE900060848CDE9A0
:103C70000245FEF755F820206946CDE900060548C3
:103C8000CDE90245FEF74CF806B070BDE04402589D
:103C900000100258000802582DE9F0411C4C012583
:103CA0001C4E01281C4F12D0207848B10821304604
:103CB000FEF72AF968B120213846FEF725F940B110
:103CC00008213046FEF720F9012817D01DE02570A5
:103CD000ECE70A2001F0ACFE0020207008213046FD
:103CE000FEF712F928B120213846FEF70DF918B178
:103CF0000BE00120BDE8F0810220FBE720213846DF
:103D0000FEF702F9012800D125700020F2E700003B
:103D10002800002400100258000802582DE9F04144
:103D20000D4F00240646214620467B883A8800F045
:103D3000BDF93D88002178884543084600F0A2F986
:103D400000F09CFA03E0304600F042FA641CAC42FA
:103D5000F9D3BDE8F0810000200300242DE9F041F3
:103D60001E490027F0222C242A252B264FF4A0736D
:103D700038B1012817D002284FF0010C1BD00328BE
:103D800022D08F710A804B800C8100244D818E815E
:103D90004B880A880021084600F088F92046BDE8D3
:103DA000F04100F05DB98F710B804A800C810124D5
:103DB0004D818E81ECE781F806C00A804B800C8132
:103DC00002244D818E81E3E781F806C00B804A8092
:103DD0000C8103244D818E81DAE70000200300244A
:103DE0002DE9F0410B4C16460F460546608900F060
:103DF00029FA284600F0ECF9A08900F023FA3846A9
:103E000000F0E6F9208900F01DFA3046BDE8F041E7
:103E100000F0DEB9200300241A4810B586B001680E
:103E200041F00201016000686946174C00F0020091
:103E3000059041F2030000900120019002900320C0
:103E400003902046FDF76CFF012220461146FEF745
:103E500064F8012220460221FEF75FF80122204685
:103E60001103FEF75AF800F055FBA00400F090FB98
:103E700000F00CF8012220461146FEF74EF806B07D
:103E800010BD0000E04402580004025870B50A4D0D
:103E90004FF48044002221462846FEF73EF83220A7
:103EA00001F0C6FD012221462846FEF736F8BDE89E
:103EB00070401E2001F0BCBD0004025810B5FFF791
:103EC000ABFF00F07BF9322001F0B2FD362000F0AC
:103ED000B9F9002000F09AF93A2000F0B3F9052072
:103EE00000F094F9B22000F0ADF90C2000F08EF94A
:103EF0000C2000F08BF9002000F088F9332000F04E
:103F000085F9332000F082F9B72000F09BF93520C5
:103F100000F07CF9BB2000F095F9192000F076F94B
:103F2000C02000F08FF92C2000F070F9C22000F0C2
:103F300089F9012000F06AF9C32000F083F912200A
:103F400000F064F9C42000F07DF9202000F05EF953
:103F5000C62000F077F90F2000F058F9D02000F0CB
:103F600071F9A42000F052F9A12000F04FF9E020EF
:103F700000F068F9D02000F049F9042000F046F97B
:103F80000D2000F043F9112000F040F9132000F05B
:103F90003DF92B2000F03AF93F2000F037F954208A
:103FA00000F034F94C2000F031F9182000F02EF91F
:103FB0000D2000F02BF90B2000F028F91F2000F055
:103FC00025F9232000F022F9E12000F03BF9D02070
:103FD00000F01CF9042000F019F90C2000F016F98B
:103FE000112000F013F9132000F010F92C2000F03C
:103FF0000DF93F2000F00AF9442000F007F95120A4
:1040000000F004F92F2000F001F91F2000F0FEF865
:104010001F2000F0FBF8202000F0F8F8232000F02B
:10402000F5F8212000F00EF9112000F00BF97820AE
:1040300001F0FEFC292000F005F9C82001F0F8FC91
:104040000020FFF78BFE012204481146FDF765FFB3
:10405000BDE810404FF6FF70FFF760BE0004025845
:10406000002158B1012804D0022804D0032805D12A
:1040700003E0602102E0C02100E0A021362000F032
:1040800003B9000070B5084C0D460646608900F083
:10409000D9F8304600F09CF8A08900F0D3F8284603
:1040A000BDE8704000F094B8200300242DE9F041F1
:1040B00004460E4F10448846401E86B2C818401E63
:1040C00085B2788900F0BEF8204600F081F83046CD
:1040D00000F07EF8B88900F0B5F8404600F078F8B6
:1040E0002846BDE8F04100F073B80000200300242A
:1040F0002DE9F84F1F460C4682468B46580700D0E4
:104100000120790800EBD700203A10FB01F00026CF
:1041100002F0FF09C0B2009040E00C2F0FD0102F2A
:1041200011D0182F3DD1204909EBC90001EB8000C7
:104130004FF00008855D280609D50A9A0BE01B4957
:1041400009EB4900F2E71A4901EB0910F0E70B9877
:1041500028B91848428821465046FFF741FE6806B4
:10416000641C050E1448A4B24088A04219D9A4EBDF
:104170000B00B84209D10AF101005C461FFA80FA2F
:104180000D48018851450CD906E008F1010000F006
:10419000FF08B8F1080FCED3761CF6B2009886421D
:1041A000BBD3BDE8F88F00000C680008A85D0008CC
:1041B0001C6200082A00002420030024012010B5FE
:1041C00000F040F8BDE81040322001F031BC0000A2
:1041D00070B50D4E4FF480550022044629463046F6
:1041E000FDF79BFE012230460221FDF796FE200AD4
:1041F00000F0BEF9E0B200F0BBF929463046BDE858
:1042000070400122FDF789BE0004025870B50C4DC4
:104210004FF480540022064621462846FDF77DFED5
:10422000012228460221FDF778FE304600F0A0F971
:1042300021462846BDE870400122FDF76EBE000011
:104240000004025870B50C4E4FF48055002204460D
:1042500029463046FDF761FE002230460221FDF777
:104260005CFEE0B200F084F929463046BDE87040BB
:104270000122FDF752BE00000004025801480089E7
:10428000FFF7E0BF2003002410B50C46FFF7DAFF6C
:10429000E0B2BDE81040FFF7B9BF00000E4810B50E
:1042A00086B0016841F001010160006869460B4C6D
:1042B00000F0010005900220009001200190029082
:1042C000032003902046FDF72BFD0122204602210A
:1042D000FDF723FE06B010BDE0440258000002586E
:1042E00012480422104910B501604FF4403141607A
:1042F00000218160C0E903120175012241758261CC
:104300000177C0E90812816280F838201203026345
:1043100080F83910C162FDF727F900220348BDE893
:1043200010401146FCF73ABE0020024098010024DC
:10433000704770472DE9F047DFF8E48004460F46E8
:104340004FF00009D8F80000C043800709D0344D71
:10435000283D286820F080602860FDF7E3FD0646D0
:1043600007E00120BDE8F087FDF7DCFD801B022897
:104370004ED828680001F7D4D8F80010226821F43C
:104380007C3141EA0231C8F80010207A4FF4FE0275
:10439000A1884002491EA0F5007080B2C1F3080157
:1043A0000843A189491E02EA01410843217C120207
:1043B000491E02EA01610843194910310860184892
:1043C000001D0168626921F0C001114301600168AC
:1043D000A26921F02001114301606FB10168012F32
:1043E0000ED041F400110160286840F08060286020
:1043F000FDF798FD04460DE0016841F40021F2E765
:1044000041F48011EFE7FDF78DFD001B022801D973
:104410000320A7E728680001F5D54846A2E7000079
:10442000284402582DE9F047DFF8E48004460F469F
:104430004FF00009D8F80000C043800709D0344D80
:10444000283D286820F080502860FDF76BFD064667
:1044500007E00120BDE8F087FDF764FD801B02281E
:104460004ED828688000F7D4D8F80010228821F0B0
:104470007C7141EA0251C8F80010207A4FF4FE0224
:10448000A1884002491EA0F5007080B2C1F3080166
:104490000843A189491E02EA01410843217C120216
:1044A000491E02EA01610843194918310860184899
:1044B000001D0168626921F44061114301600168D7
:1044C000A26921F40071114301606FB10168012FED
:1044D0000ED041F080710160286840F08050286063
:1044E000FDF720FD04460DE0016841F48001F2E78C
:1044F00041F40001EFE7FDF715FD001B022801D98B
:104500000320A7E728688000F5D54846A2E7000009
:104510002844025810B5154C072113484FF000727B
:1045200004F1080320604FF480006060002083E8FD
:104530000700521062619200A261CA07606362655F
:104540000A07C4E907206062C4E90A012046FEF7B1
:10455000E5FE2068016841F001010160BDE81040FE
:10456000FF2000F005B80000003800409802002449
:1045700001B582B04FF47A700123009001AA03487C
:1045800002A9FEF7EDFF9DF804000EBD980200247D
:104590000A4A11680B6823F001030B6011688B68ED
:1045A00023F0E0438B6011688B6803438B601068D5
:1045B000016841F001010160704700009802002489
:1045C00010B502685169936943F00803936102686A
:1045D000936943F0100393610268136823F00103A9
:1045E00013600268136940F26B34A34313610268DD
:1045F000936823F44043936090F88120042A0CD000
:104600008A060AD5D0F8842042F08002C0F88420BF
:104610000268936943F02003936190F88120032A94
:104620001DD04A060AD5D0F8842042F00402C0F812
:1046300084200268936943F040039361826AB2F573
:10464000800F0CD10A060AD5D0F8842042F002026D
:10465000C0F884200268936943F0800393618A055F
:104660000AD5D0F8842042F00102C0F88420026804
:10467000936943F400739361C9050AD5D0F8841097
:1046800041F00801C0F8841001688A6942F4807220
:104690008A610021A0F86210A0F86A1010BD2DE90F
:1046A000F0411E4617460D468046069C0AE0601CF7
:1046B00008D024B1FDF736FC801BA04202D90320AC
:1046C000BDE8F081D8F80000406935EA000004D068
:1046D0000020B842EBD00020F2E70120F9E7704754
:1046E0002DE9F04F93B01F4615468A460446814691
:1046F000580700D0012000EBD7000C2F10FB07F06B
:10470000C0B2129003D0102F01D0182F2FD1024623
:1047100069462846FCF719FC002024E01DF80860D3
:104720000025DFF850B0300601D51C9A03E01D9833
:1047300028B9BBF8002051462046FFF751FB700610
:10474000641CA4B2060EA4EB0900B84204D10AF11D
:1047500001004C461FFA80FA6D1CEDB2082DE2D321
:1047600008F10100C0B2129980468842D6D313B036
:10477000BDE8F08F2C0000242DE9FF4F83B09B464D
:104780000E46044680468A46DDE9107500208146C3
:104790001FE0B9F1000F22D005994FF0000908EB96
:1047A0000100401BA04202DA7019444686B20AEBAF
:1047B0000B00401BB0420FDBDDE912012B463A46ED
:1047C000CDE9000131462046FFF78AFF601984B227
:1047D000BF1C3A78002ADCD107B0BDE8F08F802AF0
:1047E00001D90120D3E7059908EB0100A0EB5500A2
:1047F000A04202DA7019444686B20AEB0B00401B55
:10480000B042E9DB0D2A0DD0DDE912012B46CDE9DE
:10481000000131462046FFF76BFC04EB550084B2E3
:104820007F1CD6E77019444686B27F1CF5E700006E
:1048300070B5284C9CB0256825F004052560254CF2
:1048400000260C34256845F440452560256805F4AC
:1048500040451B952568AD04FCD5012400940CADA2
:1048600003962404019402240994CDE90A41079691
:10487000082485E80D00CDE910466846FEF700FBE8
:1048800088B93F2013900320CDE914064020010190
:10489000CDE91640CDE9180150201A90022113A845
:1048A000FEF740F910B101201CB070BD0A48016844
:1048B00041F0800101600848F430016841F00201D4
:1048C0000160006800F002001B90FDF721FA002053
:1048D000EAE700000C48025800440258FDF728BBE4
:1048E0001C48016841F4700101601B49086840F0F0
:1048F00001000860184A0020103210600A68174B47
:104900001A400A60144A18321060121D1060121DFD
:104910001060114A28321060121D1060121D1060C4
:10492000121D1060121D1060121D1060121D10600B
:10493000121D10600A6822F480220A600649603164
:10494000086001200649C1F80801C0060149803904
:104950000860704788ED00E0004402587FEDF6EAF9
:104960000080005190F83410C90706D001684A68E9
:10497000836B22F400321A434A6090F8341089079E
:1049800006D501684A68C36B22F480321A434A6034
:1049900090F83410490706D501684A68036C22F480
:1049A00080221A434A6090F83410090706D501683E
:1049B0004A68436C22F400421A434A6090F834106B
:1049C000C90606D501688A68836C22F480521A43AE
:1049D0008A6090F83410890606D501688A68C36C2D
:1049E00022F400521A438A6090F83410490611D517
:1049F00001684A68036D22F480121A434A60016D0F
:104A0000B1F5801F06D101684A68436D22F4C002E7
:104A10001A434A6090F83410090606D501684A68BE
:104A2000806D22F4002202434A607047F8B50025E9
:104A30000446C567FDF776FA0746206800686FF000
:104A40007E46000708D500223B464FF40011204661
:104A5000009600F0FBFA60B92068006840070AD5AC
:104A600000223B464FF480012046009600F0EEFA0B
:104A700008B10320F8BD202084F8790084F87A007A
:104A8000002084F87850F8BD10B5806B0021A0F8A4
:104A90006A10A0F86210FEF710FF10BD01680A68E6
:104AA00022F490720A6001688A6822F001028A602A
:104AB000202180F87A10704710B5B0F86C2090F87B
:104AC0007A300168222B05D0088B40F0080008835B
:104AD000022010BD898C8368B3F5805F01D1036922
:104AE0006BB11140426E531C43661170B0F86A10EE
:104AF000491E0904090CA0F86A1007D015E0436E9E
:104B000011401980416E891C4166EFE701680A680F
:104B100022F490720A6001688A6822F001028A60B9
:104B2000202180F87A10FFF759F8002010BD00000E
:104B30002DE9F04F044600688025FD4B0021D4F894
:104B400010C087B0A6680F46D4F81C8046EA0C0651
:104B5000D4F814C0A26A4CEA080C46EA0C063243A8
:104B60000668DFF8D0C306EA0C0616430660206824
:104B70004268E66822F44052324342602268A069EB
:104B80009A4201D0266A3043A66AB6F1005F04D18A
:104B9000D4E90B6C46EA0C0630439668DFF898C3FC
:104BA00006EA0C06064396602068C26A666A22F02E
:104BB0000F023243C262E14E2068E14AB04210D196
:104BC000126802F03802182A74D005DCCAB3082A29
:104BD0007AD0102A47D179E0202A7BD0282A7CD1AC
:104BE0007AE0D84EB04209D1126802F00702062AD4
:104BF00073D2DFE802F053696B6D6F71D24EB04231
:104C000009D1126802F00702062A66D2DFE802F034
:104C1000465C5E606264CD4EB04209D1126802F01B
:104C20000702062A59D2DFE802F0394F515355578F
:104C3000C74EB0420BD1126802F00702062A4CD2CE
:104C400000E00EE0DFE802F02A4042444648C14E50
:104C5000B04209D1126802F03802182A38D0BBDC01
:104C6000B4E74FF0010538E0BB4EB04209D11268FD
:104C700002F00702062A30D2DFE802F01026282AC6
:104C80002C2EB64EB0420BD1126802F00702062A53
:104C900023D2DFE802F003191B1D1F2100251CE0B1
:104CA00098421AD1A64A121D126802F00702062A7B
:104CB00013D202E00CE007E00CE0DFE802F00305AD
:104CC00007090B0D022508E0042506E0402504E055
:104CD000082502E0102500E02025DFF864B2A04E90
:104CE0009842DFF880A2ABF1540B73D1102D31D074
:104CF00006DC022D09D0042D0AD0082D2FD111E099
:104D0000202D29D0402D2AD107E0FDF7A1F913E08D
:104D10006846FDF7B3F901980EE003A8FDF72CFAF9
:104D2000049809E0DBF800105846890610D50068A1
:104D3000C0F3C1012AFA01F0002811D06168894648
:104D400001EB410181420AD8B0EB093F07D808E0E6
:104D50005046F3E78448F1E74FF40040EEE70127BF
:104D600033E1102D4FF000084ED006DC022D0FD09D
:104D7000042D15D0082D04D12DE0202D4AD0402D32
:104D800013D00127794AA0F54071914270D9E6E726
:104D9000FDF75EF9626A0023414636F812200DE005
:104DA0006846FDF76BF9019803E003A8FDF7E4F905
:104DB00004980023616A36F811201946FBF788FA37
:104DC00062680902030241EA10615008181841EBB9
:104DD000080115E032E0DBF800105846890609D5D5
:104DE00000680023C0F3C1012AFA01F0616A36F8B5
:104DF000112015E0606A002336F8102050460FE0BD
:104E00000023FBF765FABDE7606A002336F810203F
:104E1000554805E0606A002336F810204FF4004042
:104E20000021FBF755FA0902020241EA10614FEA3C
:104E3000590010184A4641EB0801E1E7E3694FF4D5
:104E4000004293424DD1082D23D005DC8DB1012DB8
:104E500012D0042D06D112E0102D35D0202D3AD0DD
:104E6000402D11D0012721F00F00C1F3420108436A
:104E70005AE0FDF75DFF16E0FDF770FF13E06846AE
:104E8000FDF7FCF801980EE003A8FDF775F904980A
:104E900009E0DBF800105846890608D50068C0F321
:104EA000C1012AFA01F0616A36F8111010E0606A57
:104EB00036F81010BAFBF1F04100606801EB5001C8
:104EC000B1FBF0F081B2CEE7606A36F810102648E8
:104ED000B0FBF1F0F0E7606A36F81000B2FBF0F0DA
:104EE000EAE7082D4AD00ADC0DB3012D43D0042D8A
:104EF0007FF44DAF6846FDF7C1F8019809E0102D29
:104F000052D0202D55D0402DF2D103A8FDF734F911
:104F10000498616A36F81110B0FBF1F1606801EB9A
:104F20005001B1FBF0F080B22168C8604DE01FE095
:104F3000000C0058F369FFCFFFF4FF11001001408F
:104F4000544402580044004000480040004C0040D7
:104F5000005000400014014000780040007C0040F8
:104F6000905D00080090D00300093D00FFFC0F0099
:104F7000FDF7DEFECDE7FDF7F1FECAE7DBF8002026
:104F8000594692060AD50968C1F3C1022AFA02F10C
:104F9000626A36F81220B1FBF2F20FE0616A36F86D
:104FA0001120BAFBF2F209E0616A36F811200949D2
:104FB000F1E7616A36F81110B2FBF1F2616802EBB9
:104FC0005102B2FBF1F189B2C16007B03846BDE8C9
:104FD000F08F000000093D0090F87910212901D0E0
:104FE00002207047B0F8621021B18168B1F5805F8E
:104FF00013D014E001680A68920004D58A6822F48C
:1050000000028A6003E00A6822F080020A600068F9
:10501000016841F0400101600CE0016961B1C16DBE
:105020004A1CC265026809781185B0F86210491EF1
:10503000A0F8621000207047C16D02680988C1F3B2
:1050400008011185C16D891CC165EEE72DE9F041AC
:105050001E46174688460446069D1CE0681C1AD06A
:1050600025B1FCF75FFF801BA84214D920680168B6
:1050700021F4D07101602068816821F00101816014
:10508000202084F8790084F87A00002084F87800E1
:105090000320BDE8F0812068C16938EA010004D02E
:1050A0000020B842DAD00020F3E70120F9E7000041
:1050B00070B50D4D00240D48FEF706FC02E0641C9F
:1050C000AC4204D80948FEF7F9FB2028F7D10024A8
:1050D00002E0641CAC4206D8054901220348FEF7F1
:1050E00029FD0028F5D170BDFFFF01001801002443
:1050F00018000024FEE700000FB4084B10B504A907
:1051000002AA039800F0EEF8044602A9002000F07D
:1051100080FC204610BC5DF814FB0000135A000808
:105120000907090E002804DB00F1E02080F80014D4
:10513000704700F00F0000F1E02080F8141D704768
:1051400002E008C8121F08C1002AFAD17047704750
:10515000002001E001C1121F002AFBD170470000AE
:105160002DE9FF5F82B00021DDE90430020DDDF89A
:1051700040B0034318D044F61050A2F2FF3242432D
:105180001514119801281FD0A5EB0B00401C5FEAF5
:10519000000A4FF000064E4FDFF83891B0465046F7
:1051A00015D5CAF1000413E0119801244AA301287F
:1051B00001D16FEA0B010298119AC0E90031C0E9F0
:1051C000024206B0BDE8F09FCBF10000DFE70446E5
:1051D0000021404A491842EB0450CDE9001012E08A
:1051E000E00707D032463B4640464946FBF78FF979
:1051F0008046894632463B4610461946FBF787F9FA
:1052000006460F466410002CEAD1DDE90401DDE911
:105210000023BAF1000F06DAFBF779F942464B4654
:10522000FBF775F905E0FBF7E4F942464B46FBF75F
:10523000E0F904460E460022284BFBF761FA03D83A
:105240004FF0FF30014607E00022254B2046314653
:10525000FBF7B6F8FBF73CFA102409E0002C0ADB58
:105260000A220023FBF734F8039B30321A55641EE0
:1052700050EA0102F2D1641C039AC4F111031444F0
:10528000119A012A03D0012208430DD10AE00843F4
:1052900004D000204FF0110B119072E7A3EB0B0527
:1052A0006D1E0DE05B4504DD4FF0000205F10105C8
:1052B00004E003DA4FF00002A5F10105002AECD06A
:1052C00002981199C0E90231C0E9004579E7000070
:1052D000000014400000F03F300000000000F043E8
:1052E0000000E03F2DE9FF4F95B09B4689460646FA
:1052F00000250FE2252877D100242746F84A01210E
:10530000059400E0044316F8013F203B01FA03F046
:105310001042F7D130782A2811D06FF02F0330785F
:10532000A0F13002092A16D8059A44F0020402EBD3
:10533000820203EB42021044761C0590EFE759F815
:10534000042B0592002A03DA504244F400540590DD
:1053500044F00204761C30782E2816D116F8010F7E
:1053600044F004042A280DD06FF02F023078A0F109
:105370003003092B09D807EB870302EB4303C71857
:10538000761CF3E759F8047B761C30786C280FD034
:1053900006DC4C2817D068280DD06A2814D104E008
:1053A000742810D07A280FD10DE044F400140AE0DC
:1053B00044F4801401E044F440147278824202D133
:1053C00004F58014761C761C307866280BD013DC2C
:1053D000582877D009DC002875D04528F6D0462813
:1053E000F4D047281AD19DE118E0632835D064280D
:1053F00079D0652812D195E1702873D008DC672830
:10540000F1D069286FD06E280DD06F2806D1B5E095
:1054100073282CD0752875D0782874D05A461799DF
:1054200090476D1C75E1C4F30250022809D003288F
:105430000DD0D9F8001004280DD00D6009F1040931
:1054400067E1D9F80010EA17C1E90052F6E7D9F888
:1054500000100D80F2E70D70F0E719F8041B8DF8CD
:10546000001000208DF80100EA46012003E059F801
:1054700004AB4FF0FF3061074FF0000102D40DE0A4
:1054800008F101018846B9420FDA8045F8DB1AF8C5
:1054900008100029F4D108E008F101018846814292
:1054A000FADB1AF808100029F6D105985B46A0EB44
:1054B000080721463846179A00F094FA284400EB72
:1054C000080507E04DE029E10DE01AF8010B5A4606
:1054D00017999047B8F10108F7D25B462146384644
:1054E000179A13E142E00A220092C4F302524FF0ED
:1054F000000A022A08D059F804CB032A4FEAEC71BB
:105500000AD00DE029E02AE009F1070121F00702A5
:10551000F2E802C1914609E00FFA8CFC4FEAEC7107
:10552000042A03D14FFA8CFC4FEAEC71002907DA08
:105530000A460021DCF1000C61EB02012D2202E0A1
:10554000220504D52B228DF80420012203E0E20776
:1055500001D02022F7E7904659E00A2102E010220C
:105560000DE010214FF0000A00910BE010224FF0E7
:10557000000A44F004040827009203E008224FF0D8
:10558000000A0092C4F30252022A05D059F804CB53
:105590000021032A08D009E009F1070121F00702E0
:1055A000F2E802C1914605E01FFA8CFC042A01D101
:1055B0000CF0FF0C4FF00008220728D5702806D009
:1055C000009B83F0100353EA0A0305D00EE040224B
:1055D0008DF80420012208E05CEA010206D03022A6
:1055E0008DF804208DF8050002229046009B83F080
:1055F000080353EA0A030AD15CEA010201D16207F7
:1056000005D530228DF804204FF001087F1E582860
:1056100004D034A003900EA802900DE036A0F9E764
:1056200053466046009AFAF753FE84460398825C1C
:105630000298401E029002705CEA0100F0D10298CC
:1056400006A9081A00F1200A600702D524F4803464
:1056500000E00127574502DDA7EB0A0000E000202B
:1056600000EB0A01009005984144401A0590E003C0
:1056700006D45B462146179A059800F0B3F9054415
:10568000002706E001A85A46C05D179990476D1C97
:105690007F1C4745F6DBE0030CD55B462146179A95
:1056A000059800F09FF9054404E030205A46179908
:1056B00090476D1C0099481E00900029F5DC08E019
:1056C000029802995A460078491C0291179990470E
:1056D0006D1CBAF10001AAF1010AF1DC65E10000DC
:1056E00009280100303132333435363738396162B8
:1056F000636465660000000030313233343536377C
:1057000038394142434445460000000000F058F952
:105710000544761C307800287FF4ECAD19B028469B
:10572000BDE8F08F620700D4062709F1070222F0D6
:10573000070CFCE80223E14603F000485FEA080C8E
:1057400002D00FF2702C0DE05FEA045C02D50FF27C
:10575000682C07E05FEAC47C02D00FF2602C01E005
:10576000AFF2700C4FF0FF3823F00043CDF850C07B
:1057700065280CD006DC452809D046281DD04728CE
:105780003DD13DE0662818D067287ED138E0002161
:10579000112F01DB112000E0781CCDE9000106A9E2
:1057A0000EA8FFF7DDFCDDE90F010E9A0391002141
:1057B000009207F1010A04914DE04FF0004000977C
:1057C000CDE9011006A90EA8FFF7CAFCDDE90F021A
:1057D00003920E9B11990022DDF80CA00093049215
:1057E00011B9791C00EB010AB7EB0A0004D4C0F12F
:1057F000FF3007F1010A0490AAEB0700019044E092
:10580000012F00DA01270021112F01DD112000E016
:105810003846CDE9000106A90EA8FFF7A1FCDDE995
:105820000F010E9A0391002104910092BA462107BC
:105830000CD40399514500DA8A46BAF1010F05DD0F
:10584000009AAAF10101515C302908D0B84202DA6D
:1058500010F1040F06DA0121CDE9011015E0AAF1DB
:105860000101E9E7002805DC049901440491AAEB51
:10587000000102E0411C514500DD8A460499401AAE
:10588000401C01904FF000400290200704D4019882
:10589000504501DBCDF8048000208DF84F000298C0
:1058A0000DF14F07B0F1004F25D02B200E9002983C
:1058B0004FF0020800280CDA404202902D200E9092
:1058C00007E00A210298FAF746FD3031029007F806
:1058D000011DB8F10001A8F10108F2DC02980028CE
:1058E000EFD1791E0E980870307800F0200040F05B
:1058F000450007F8020D12A8C01B00F10708149814
:10590000007800B1012000EB0A01019801EBE07181
:1059100005984144401A401E0590E00306D45B46BA
:105920002146179A059800F05DF805441498007810
:1059300018B15A46179990476D1CE00324D55B4671
:105940002146179A059800F04DF805441CE004988C
:10595000002807DBDDE90301884203DD0098405C95
:10596000179901E0179930205A469047049805F19D
:105970000105401C04900198401E019004D12E2086
:105980005A46179990476D1CBAF10001AAF1010A15
:10599000DDDC05E017F8010B5A46179990476D1C9E
:1059A000B8F10001A8F10108F4DC5B462146179A22
:1059B0000598ABE62D0000002B0000002000000041
:1059C0002DE9F041044600251E461746880404D4FC
:1059D00005E039462020B0476D1C641EF9D52846E5
:1059E000BDE8F0812DE9F041044600251E469046B1
:1059F000C80301D5302700E02027880404D505E03E
:105A000041463846B0476D1C641EF9D52846BDE8AE
:105A1000F0810A68531C0B601070704710B5044683
:105A20000420FDF729FF0148046010BD1400002484
:105A300070B5002405464FF47A7603E0304600F056
:105A400005F8641CAC42F9D370BD000070B54FF08E
:105A5000E02500216C69094AAB6912685043AA69C4
:105A60009A42FCD002D2A3EB020302E0A4EB0206AE
:105A70003344194413468142F1D370BD140000240D
:105A8000B0B0FAF73DFFFCF75BFA042302220521D0
:105A9000A020FEF7CDFE4FF4C870FFF7BFFF4FF414
:105AA000E13000F051F9FEF7F9FBFEF7C5F8FEF71B
:105AB00005FAFBF7ADF84FF6FF70FEF72FF910214E
:105AC0004FF47846084664A33246FAF7E3FF1F22F4
:105AD0002021102065A3FAF7DDFF1F2230211020BE
